{
	"FundDistributor.sol": {
		"FundDistributor": {
			"abi": [
				{
					"inputs": [
						{
							"internalType": "address",
							"name": "_Token",
							"type": "address"
						}
					],
					"stateMutability": "nonpayable",
					"type": "constructor"
				},
				{
					"anonymous": false,
					"inputs": [
						{
							"indexed": true,
							"internalType": "bytes32",
							"name": "role",
							"type": "bytes32"
						},
						{
							"indexed": true,
							"internalType": "bytes32",
							"name": "previousAdminRole",
							"type": "bytes32"
						},
						{
							"indexed": true,
							"internalType": "bytes32",
							"name": "newAdminRole",
							"type": "bytes32"
						}
					],
					"name": "RoleAdminChanged",
					"type": "event"
				},
				{
					"anonymous": false,
					"inputs": [
						{
							"indexed": true,
							"internalType": "bytes32",
							"name": "role",
							"type": "bytes32"
						},
						{
							"indexed": true,
							"internalType": "address",
							"name": "account",
							"type": "address"
						},
						{
							"indexed": true,
							"internalType": "address",
							"name": "sender",
							"type": "address"
						}
					],
					"name": "RoleGranted",
					"type": "event"
				},
				{
					"anonymous": false,
					"inputs": [
						{
							"indexed": true,
							"internalType": "bytes32",
							"name": "role",
							"type": "bytes32"
						},
						{
							"indexed": true,
							"internalType": "address",
							"name": "account",
							"type": "address"
						},
						{
							"indexed": true,
							"internalType": "address",
							"name": "sender",
							"type": "address"
						}
					],
					"name": "RoleRevoked",
					"type": "event"
				},
				{
					"anonymous": false,
					"inputs": [
						{
							"indexed": false,
							"internalType": "address",
							"name": "user",
							"type": "address"
						}
					],
					"name": "UserHasBeenAdded",
					"type": "event"
				},
				{
					"inputs": [],
					"name": "DEFAULT_ADMIN_ROLE",
					"outputs": [
						{
							"internalType": "bytes32",
							"name": "",
							"type": "bytes32"
						}
					],
					"stateMutability": "view",
					"type": "function"
				},
				{
					"inputs": [
						{
							"internalType": "address",
							"name": "user",
							"type": "address"
						}
					],
					"name": "addAdress",
					"outputs": [],
					"stateMutability": "payable",
					"type": "function"
				},
				{
					"inputs": [
						{
							"internalType": "address",
							"name": "user",
							"type": "address"
						}
					],
					"name": "amountAvailable",
					"outputs": [
						{
							"internalType": "uint256",
							"name": "",
							"type": "uint256"
						}
					],
					"stateMutability": "view",
					"type": "function"
				},
				{
					"inputs": [
						{
							"internalType": "bytes32",
							"name": "role",
							"type": "bytes32"
						}
					],
					"name": "getRoleAdmin",
					"outputs": [
						{
							"internalType": "bytes32",
							"name": "",
							"type": "bytes32"
						}
					],
					"stateMutability": "view",
					"type": "function"
				},
				{
					"inputs": [
						{
							"internalType": "bytes32",
							"name": "role",
							"type": "bytes32"
						},
						{
							"internalType": "address",
							"name": "account",
							"type": "address"
						}
					],
					"name": "grantRole",
					"outputs": [],
					"stateMutability": "nonpayable",
					"type": "function"
				},
				{
					"inputs": [
						{
							"internalType": "address",
							"name": "user",
							"type": "address"
						}
					],
					"name": "hasParticipant",
					"outputs": [
						{
							"internalType": "bool",
							"name": "",
							"type": "bool"
						}
					],
					"stateMutability": "view",
					"type": "function"
				},
				{
					"inputs": [
						{
							"internalType": "bytes32",
							"name": "role",
							"type": "bytes32"
						},
						{
							"internalType": "address",
							"name": "account",
							"type": "address"
						}
					],
					"name": "hasRole",
					"outputs": [
						{
							"internalType": "bool",
							"name": "",
							"type": "bool"
						}
					],
					"stateMutability": "view",
					"type": "function"
				},
				{
					"inputs": [
						{
							"internalType": "address",
							"name": "",
							"type": "address"
						}
					],
					"name": "participants",
					"outputs": [
						{
							"internalType": "uint256",
							"name": "currentLimit",
							"type": "uint256"
						},
						{
							"internalType": "uint256",
							"name": "currentlyOwed",
							"type": "uint256"
						},
						{
							"internalType": "uint256",
							"name": "nextAllowedWithdrawBlock",
							"type": "uint256"
						}
					],
					"stateMutability": "view",
					"type": "function"
				},
				{
					"inputs": [
						{
							"internalType": "bytes32",
							"name": "role",
							"type": "bytes32"
						},
						{
							"internalType": "address",
							"name": "account",
							"type": "address"
						}
					],
					"name": "renounceRole",
					"outputs": [],
					"stateMutability": "nonpayable",
					"type": "function"
				},
				{
					"inputs": [
						{
							"internalType": "uint256",
							"name": "amount",
							"type": "uint256"
						}
					],
					"name": "repay",
					"outputs": [],
					"stateMutability": "nonpayable",
					"type": "function"
				},
				{
					"inputs": [
						{
							"internalType": "bytes32",
							"name": "role",
							"type": "bytes32"
						},
						{
							"internalType": "address",
							"name": "account",
							"type": "address"
						}
					],
					"name": "revokeRole",
					"outputs": [],
					"stateMutability": "nonpayable",
					"type": "function"
				},
				{
					"inputs": [
						{
							"internalType": "bytes4",
							"name": "interfaceId",
							"type": "bytes4"
						}
					],
					"name": "supportsInterface",
					"outputs": [
						{
							"internalType": "bool",
							"name": "",
							"type": "bool"
						}
					],
					"stateMutability": "view",
					"type": "function"
				},
				{
					"inputs": [],
					"name": "token",
					"outputs": [
						{
							"internalType": "address",
							"name": "",
							"type": "address"
						}
					],
					"stateMutability": "view",
					"type": "function"
				},
				{
					"inputs": [
						{
							"internalType": "uint256",
							"name": "amount",
							"type": "uint256"
						}
					],
					"name": "withdraw",
					"outputs": [],
					"stateMutability": "nonpayable",
					"type": "function"
				},
				{
					"inputs": [
						{
							"internalType": "uint256",
							"name": "_amount",
							"type": "uint256"
						}
					],
					"name": "withdrawToken",
					"outputs": [],
					"stateMutability": "nonpayable",
					"type": "function"
				}
			],
			"devdoc": {
				"kind": "dev",
				"methods": {
					"getRoleAdmin(bytes32)": {
						"details": "Returns the admin role that controls `role`. See {grantRole} and {revokeRole}. To change a role's admin, use {_setRoleAdmin}."
					},
					"grantRole(bytes32,address)": {
						"details": "Grants `role` to `account`. If `account` had not been already granted `role`, emits a {RoleGranted} event. Requirements: - the caller must have ``role``'s admin role. May emit a {RoleGranted} event."
					},
					"hasRole(bytes32,address)": {
						"details": "Returns `true` if `account` has been granted `role`."
					},
					"renounceRole(bytes32,address)": {
						"details": "Revokes `role` from the calling account. Roles are often managed via {grantRole} and {revokeRole}: this function's purpose is to provide a mechanism for accounts to lose their privileges if they are compromised (such as when a trusted device is misplaced). If the calling account had been revoked `role`, emits a {RoleRevoked} event. Requirements: - the caller must be `account`. May emit a {RoleRevoked} event."
					},
					"revokeRole(bytes32,address)": {
						"details": "Revokes `role` from `account`. If `account` had been granted `role`, emits a {RoleRevoked} event. Requirements: - the caller must have ``role``'s admin role. May emit a {RoleRevoked} event."
					},
					"supportsInterface(bytes4)": {
						"details": "See {IERC165-supportsInterface}."
					}
				},
				"version": 1
			},
			"evm": {
				"assembly": "    /* \"FundDistributor.sol\":181:2973  contract FundDistributor is AccessControl {... */\n  mstore(0x40, 0x80)\n    /* \"FundDistributor.sol\":276:290  20000000000000 */\n  0x12309ce54000\n    /* \"FundDistributor.sol\":257:290  uint256 maxLimit = 20000000000000 */\n  0x02\n  sstore\n    /* \"FundDistributor.sol\":398:509  constructor(address _Token) {... */\n  callvalue\n  dup1\n  iszero\n  tag_1\n  jumpi\n  0x00\n  dup1\n  revert\ntag_1:\n  pop\n  mload(0x40)\n  sub(codesize, bytecodeSize)\n  dup1\n  bytecodeSize\n  dup4\n  codecopy\n  dup2\n  dup2\n  add\n  0x40\n  mstore\n  dup2\n  add\n  swap1\n  tag_2\n  swap2\n  swap1\n  tag_3\n  jump\t// in\ntag_2:\n    /* \"FundDistributor.sol\":444:450  _Token */\n  dup1\n    /* \"FundDistributor.sol\":436:441  token */\n  0x01\n  0x00\n    /* \"FundDistributor.sol\":436:450  token = _Token */\n  0x0100\n  exp\n  dup2\n  sload\n  dup2\n  0xffffffffffffffffffffffffffffffffffffffff\n  mul\n  not\n  and\n  swap1\n  dup4\n  0xffffffffffffffffffffffffffffffffffffffff\n  and\n  mul\n  or\n  swap1\n  sstore\n  pop\n    /* \"FundDistributor.sol\":460:502  _setupRole(DEFAULT_ADMIN_ROLE, msg.sender) */\n  tag_6\n    /* \"@openzeppelin/contracts/access/AccessControl.sol\":2072:2076  0x00 */\n  0x00\n    /* \"FundDistributor.sol\":471:489  DEFAULT_ADMIN_ROLE */\n  dup1\n  shl\n    /* \"FundDistributor.sol\":491:501  msg.sender */\n  caller\n    /* \"FundDistributor.sol\":460:470  _setupRole */\n  shl(0x20, tag_7)\n    /* \"FundDistributor.sol\":460:502  _setupRole(DEFAULT_ADMIN_ROLE, msg.sender) */\n  0x20\n  shr\n  jump\t// in\ntag_6:\n    /* \"FundDistributor.sol\":398:509  constructor(address _Token) {... */\n  pop\n    /* \"FundDistributor.sol\":181:2973  contract FundDistributor is AccessControl {... */\n  jump(tag_8)\n    /* \"@openzeppelin/contracts/access/AccessControl.sol\":6824:6934  function _setupRole(bytes32 role, address account) internal virtual {... */\ntag_7:\n    /* \"@openzeppelin/contracts/access/AccessControl.sol\":6902:6927  _grantRole(role, account) */\n  tag_10\n    /* \"@openzeppelin/contracts/access/AccessControl.sol\":6913:6917  role */\n  dup3\n    /* \"@openzeppelin/contracts/access/AccessControl.sol\":6919:6926  account */\n  dup3\n    /* \"@openzeppelin/contracts/access/AccessControl.sol\":6902:6912  _grantRole */\n  shl(0x20, tag_11)\n    /* \"@openzeppelin/contracts/access/AccessControl.sol\":6902:6927  _grantRole(role, account) */\n  0x20\n  shr\n  jump\t// in\ntag_10:\n    /* \"@openzeppelin/contracts/access/AccessControl.sol\":6824:6934  function _setupRole(bytes32 role, address account) internal virtual {... */\n  pop\n  pop\n  jump\t// out\n    /* \"@openzeppelin/contracts/access/AccessControl.sol\":7474:7707  function _grantRole(bytes32 role, address account) internal virtual {... */\ntag_11:\n    /* \"@openzeppelin/contracts/access/AccessControl.sol\":7557:7579  hasRole(role, account) */\n  tag_13\n    /* \"@openzeppelin/contracts/access/AccessControl.sol\":7565:7569  role */\n  dup3\n    /* \"@openzeppelin/contracts/access/AccessControl.sol\":7571:7578  account */\n  dup3\n    /* \"@openzeppelin/contracts/access/AccessControl.sol\":7557:7564  hasRole */\n  shl(0x20, tag_14)\n    /* \"@openzeppelin/contracts/access/AccessControl.sol\":7557:7579  hasRole(role, account) */\n  0x20\n  shr\n  jump\t// in\ntag_13:\n    /* \"@openzeppelin/contracts/access/AccessControl.sol\":7552:7701  if (!hasRole(role, account)) {... */\n  tag_15\n  jumpi\n    /* \"@openzeppelin/contracts/access/AccessControl.sol\":7627:7631  true */\n  0x01\n    /* \"@openzeppelin/contracts/access/AccessControl.sol\":7595:7601  _roles */\n  0x00\n    /* \"@openzeppelin/contracts/access/AccessControl.sol\":7595:7607  _roles[role] */\n  dup1\n    /* \"@openzeppelin/contracts/access/AccessControl.sol\":7602:7606  role */\n  dup5\n    /* \"@openzeppelin/contracts/access/AccessControl.sol\":7595:7607  _roles[role] */\n  dup2\n  mstore\n  0x20\n  add\n  swap1\n  dup2\n  mstore\n  0x20\n  add\n  0x00\n  keccak256\n    /* \"@openzeppelin/contracts/access/AccessControl.sol\":7595:7615  _roles[role].members */\n  0x00\n  add\n    /* \"@openzeppelin/contracts/access/AccessControl.sol\":7595:7624  _roles[role].members[account] */\n  0x00\n    /* \"@openzeppelin/contracts/access/AccessControl.sol\":7616:7623  account */\n  dup4\n    /* \"@openzeppelin/contracts/access/AccessControl.sol\":7595:7624  _roles[role].members[account] */\n  0xffffffffffffffffffffffffffffffffffffffff\n  and\n  0xffffffffffffffffffffffffffffffffffffffff\n  and\n  dup2\n  mstore\n  0x20\n  add\n  swap1\n  dup2\n  mstore\n  0x20\n  add\n  0x00\n  keccak256\n  0x00\n    /* \"@openzeppelin/contracts/access/AccessControl.sol\":7595:7631  _roles[role].members[account] = true */\n  0x0100\n  exp\n  dup2\n  sload\n  dup2\n  0xff\n  mul\n  not\n  and\n  swap1\n  dup4\n  iszero\n  iszero\n  mul\n  or\n  swap1\n  sstore\n  pop\n    /* \"@openzeppelin/contracts/access/AccessControl.sol\":7677:7689  _msgSender() */\n  tag_16\n    /* \"@openzeppelin/contracts/access/AccessControl.sol\":7677:7687  _msgSender */\n  shl(0x20, tag_17)\n    /* \"@openzeppelin/contracts/access/AccessControl.sol\":7677:7689  _msgSender() */\n  0x20\n  shr\n  jump\t// in\ntag_16:\n    /* \"@openzeppelin/contracts/access/AccessControl.sol\":7650:7690  RoleGranted(role, account, _msgSender()) */\n  0xffffffffffffffffffffffffffffffffffffffff\n  and\n    /* \"@openzeppelin/contracts/access/AccessControl.sol\":7668:7675  account */\n  dup2\n    /* \"@openzeppelin/contracts/access/AccessControl.sol\":7650:7690  RoleGranted(role, account, _msgSender()) */\n  0xffffffffffffffffffffffffffffffffffffffff\n  and\n    /* \"@openzeppelin/contracts/access/AccessControl.sol\":7662:7666  role */\n  dup4\n    /* \"@openzeppelin/contracts/access/AccessControl.sol\":7650:7690  RoleGranted(role, account, _msgSender()) */\n  0x2f8788117e7eff1d82e926ec794901d17c78024a50270940304540a733656f0d\n  mload(0x40)\n  mload(0x40)\n  dup1\n  swap2\n  sub\n  swap1\n  log4\n    /* \"@openzeppelin/contracts/access/AccessControl.sol\":7552:7701  if (!hasRole(role, account)) {... */\ntag_15:\n    /* \"@openzeppelin/contracts/access/AccessControl.sol\":7474:7707  function _grantRole(bytes32 role, address account) internal virtual {... */\n  pop\n  pop\n  jump\t// out\n    /* \"@openzeppelin/contracts/access/AccessControl.sol\":2895:3040  function hasRole(bytes32 role, address account) public view virtual override returns (bool) {... */\ntag_14:\n    /* \"@openzeppelin/contracts/access/AccessControl.sol\":2981:2985  bool */\n  0x00\n    /* \"@openzeppelin/contracts/access/AccessControl.sol\":3004:3010  _roles */\n  dup1\n    /* \"@openzeppelin/contracts/access/AccessControl.sol\":3004:3016  _roles[role] */\n  0x00\n    /* \"@openzeppelin/contracts/access/AccessControl.sol\":3011:3015  role */\n  dup5\n    /* \"@openzeppelin/contracts/access/AccessControl.sol\":3004:3016  _roles[role] */\n  dup2\n  mstore\n  0x20\n  add\n  swap1\n  dup2\n  mstore\n  0x20\n  add\n  0x00\n  keccak256\n    /* \"@openzeppelin/contracts/access/AccessControl.sol\":3004:3024  _roles[role].members */\n  0x00\n  add\n    /* \"@openzeppelin/contracts/access/AccessControl.sol\":3004:3033  _roles[role].members[account] */\n  0x00\n    /* \"@openzeppelin/contracts/access/AccessControl.sol\":3025:3032  account */\n  dup4\n    /* \"@openzeppelin/contracts/access/AccessControl.sol\":3004:3033  _roles[role].members[account] */\n  0xffffffffffffffffffffffffffffffffffffffff\n  and\n  0xffffffffffffffffffffffffffffffffffffffff\n  and\n  dup2\n  mstore\n  0x20\n  add\n  swap1\n  dup2\n  mstore\n  0x20\n  add\n  0x00\n  keccak256\n  0x00\n  swap1\n  sload\n  swap1\n  0x0100\n  exp\n  swap1\n  div\n  0xff\n  and\n    /* \"@openzeppelin/contracts/access/AccessControl.sol\":2997:3033  return _roles[role].members[account] */\n  swap1\n  pop\n    /* \"@openzeppelin/contracts/access/AccessControl.sol\":2895:3040  function hasRole(bytes32 role, address account) public view virtual override returns (bool) {... */\n  swap3\n  swap2\n  pop\n  pop\n  jump\t// out\n    /* \"@openzeppelin/contracts/utils/Context.sol\":640:736  function _msgSender() internal view virtual returns (address) {... */\ntag_17:\n    /* \"@openzeppelin/contracts/utils/Context.sol\":693:700  address */\n  0x00\n    /* \"@openzeppelin/contracts/utils/Context.sol\":719:729  msg.sender */\n  caller\n    /* \"@openzeppelin/contracts/utils/Context.sol\":712:729  return msg.sender */\n  swap1\n  pop\n    /* \"@openzeppelin/contracts/utils/Context.sol\":640:736  function _msgSender() internal view virtual returns (address) {... */\n  swap1\n  jump\t// out\n    /* \"#utility.yul\":7:150   */\ntag_21:\n    /* \"#utility.yul\":64:69   */\n  0x00\n    /* \"#utility.yul\":95:101   */\n  dup2\n    /* \"#utility.yul\":89:102   */\n  mload\n    /* \"#utility.yul\":80:102   */\n  swap1\n  pop\n    /* \"#utility.yul\":111:144   */\n  tag_23\n    /* \"#utility.yul\":138:143   */\n  dup2\n    /* \"#utility.yul\":111:144   */\n  tag_24\n  jump\t// in\ntag_23:\n    /* \"#utility.yul\":7:150   */\n  swap3\n  swap2\n  pop\n  pop\n  jump\t// out\n    /* \"#utility.yul\":156:507   */\ntag_3:\n    /* \"#utility.yul\":226:232   */\n  0x00\n    /* \"#utility.yul\":275:277   */\n  0x20\n    /* \"#utility.yul\":263:272   */\n  dup3\n    /* \"#utility.yul\":254:261   */\n  dup5\n    /* \"#utility.yul\":250:273   */\n  sub\n    /* \"#utility.yul\":246:278   */\n  slt\n    /* \"#utility.yul\":243:362   */\n  iszero\n  tag_26\n  jumpi\n    /* \"#utility.yul\":281:360   */\n  tag_27\n  tag_28\n  jump\t// in\ntag_27:\n    /* \"#utility.yul\":243:362   */\ntag_26:\n    /* \"#utility.yul\":401:402   */\n  0x00\n    /* \"#utility.yul\":426:490   */\n  tag_29\n    /* \"#utility.yul\":482:489   */\n  dup5\n    /* \"#utility.yul\":473:479   */\n  dup3\n    /* \"#utility.yul\":462:471   */\n  dup6\n    /* \"#utility.yul\":458:480   */\n  add\n    /* \"#utility.yul\":426:490   */\n  tag_21\n  jump\t// in\ntag_29:\n    /* \"#utility.yul\":416:490   */\n  swap2\n  pop\n    /* \"#utility.yul\":372:500   */\n  pop\n    /* \"#utility.yul\":156:507   */\n  swap3\n  swap2\n  pop\n  pop\n  jump\t// out\n    /* \"#utility.yul\":594:690   */\ntag_32:\n    /* \"#utility.yul\":631:638   */\n  0x00\n    /* \"#utility.yul\":660:684   */\n  tag_34\n    /* \"#utility.yul\":678:683   */\n  dup3\n    /* \"#utility.yul\":660:684   */\n  tag_35\n  jump\t// in\ntag_34:\n    /* \"#utility.yul\":649:684   */\n  swap1\n  pop\n    /* \"#utility.yul\":594:690   */\n  swap2\n  swap1\n  pop\n  jump\t// out\n    /* \"#utility.yul\":696:822   */\ntag_35:\n    /* \"#utility.yul\":733:740   */\n  0x00\n    /* \"#utility.yul\":773:815   */\n  0xffffffffffffffffffffffffffffffffffffffff\n    /* \"#utility.yul\":766:771   */\n  dup3\n    /* \"#utility.yul\":762:816   */\n  and\n    /* \"#utility.yul\":751:816   */\n  swap1\n  pop\n    /* \"#utility.yul\":696:822   */\n  swap2\n  swap1\n  pop\n  jump\t// out\n    /* \"#utility.yul\":951:1068   */\ntag_28:\n    /* \"#utility.yul\":1060:1061   */\n  0x00\n    /* \"#utility.yul\":1057:1058   */\n  dup1\n    /* \"#utility.yul\":1050:1062   */\n  revert\n    /* \"#utility.yul\":1074:1196   */\ntag_24:\n    /* \"#utility.yul\":1147:1171   */\n  tag_41\n    /* \"#utility.yul\":1165:1170   */\n  dup2\n    /* \"#utility.yul\":1147:1171   */\n  tag_32\n  jump\t// in\ntag_41:\n    /* \"#utility.yul\":1140:1145   */\n  dup2\n    /* \"#utility.yul\":1137:1172   */\n  eq\n    /* \"#utility.yul\":1127:1190   */\n  tag_42\n  jumpi\n    /* \"#utility.yul\":1186:1187   */\n  0x00\n    /* \"#utility.yul\":1183:1184   */\n  dup1\n    /* \"#utility.yul\":1176:1188   */\n  revert\n    /* \"#utility.yul\":1127:1190   */\ntag_42:\n    /* \"#utility.yul\":1074:1196   */\n  pop\n  jump\t// out\n    /* \"FundDistributor.sol\":181:2973  contract FundDistributor is AccessControl {... */\ntag_8:\n  dataSize(sub_0)\n  dup1\n  dataOffset(sub_0)\n  0x00\n  codecopy\n  0x00\n  return\nstop\n\nsub_0: assembly {\n        /* \"FundDistributor.sol\":181:2973  contract FundDistributor is AccessControl {... */\n      mstore(0x40, 0x80)\n      jumpi(tag_1, lt(calldatasize, 0x04))\n      shr(0xe0, calldataload(0x00))\n      dup1\n      0x50baa622\n      gt\n      tag_17\n      jumpi\n      dup1\n      0xadd474da\n      gt\n      tag_18\n      jumpi\n      dup1\n      0xadd474da\n      eq\n      tag_13\n      jumpi\n      dup1\n      0xd547741f\n      eq\n      tag_14\n      jumpi\n      dup1\n      0xf7d19f5e\n      eq\n      tag_15\n      jumpi\n      dup1\n      0xfc0c546a\n      eq\n      tag_16\n      jumpi\n      jump(tag_1)\n    tag_18:\n      dup1\n      0x50baa622\n      eq\n      tag_9\n      jumpi\n      dup1\n      0x91d14854\n      eq\n      tag_10\n      jumpi\n      dup1\n      0x9c60b07e\n      eq\n      tag_11\n      jumpi\n      dup1\n      0xa217fddf\n      eq\n      tag_12\n      jumpi\n      jump(tag_1)\n    tag_17:\n      dup1\n      0x2e1a7d4d\n      gt\n      tag_19\n      jumpi\n      dup1\n      0x2e1a7d4d\n      eq\n      tag_5\n      jumpi\n      dup1\n      0x2f2ff15d\n      eq\n      tag_6\n      jumpi\n      dup1\n      0x36568abe\n      eq\n      tag_7\n      jumpi\n      dup1\n      0x371fd8e6\n      eq\n      tag_8\n      jumpi\n      jump(tag_1)\n    tag_19:\n      dup1\n      0x01ffc9a7\n      eq\n      tag_2\n      jumpi\n      dup1\n      0x09e69ede\n      eq\n      tag_3\n      jumpi\n      dup1\n      0x248a9ca3\n      eq\n      tag_4\n      jumpi\n    tag_1:\n      0x00\n      dup1\n      revert\n        /* \"@openzeppelin/contracts/access/AccessControl.sol\":2606:2808  function supportsInterface(bytes4 interfaceId) public view virtual override returns (bool) {... */\n    tag_2:\n      callvalue\n      dup1\n      iszero\n      tag_20\n      jumpi\n      0x00\n      dup1\n      revert\n    tag_20:\n      pop\n      tag_21\n      0x04\n      dup1\n      calldatasize\n      sub\n      dup2\n      add\n      swap1\n      tag_22\n      swap2\n      swap1\n      tag_23\n      jump\t// in\n    tag_22:\n      tag_24\n      jump\t// in\n    tag_21:\n      mload(0x40)\n      tag_25\n      swap2\n      swap1\n      tag_26\n      jump\t// in\n    tag_25:\n      mload(0x40)\n      dup1\n      swap2\n      sub\n      swap1\n      return\n        /* \"FundDistributor.sol\":297:348  mapping(address => Participant) public participants */\n    tag_3:\n      callvalue\n      dup1\n      iszero\n      tag_27\n      jumpi\n      0x00\n      dup1\n      revert\n    tag_27:\n      pop\n      tag_28\n      0x04\n      dup1\n      calldatasize\n      sub\n      dup2\n      add\n      swap1\n      tag_29\n      swap2\n      swap1\n      tag_30\n      jump\t// in\n    tag_29:\n      tag_31\n      jump\t// in\n    tag_28:\n      mload(0x40)\n      tag_32\n      swap4\n      swap3\n      swap2\n      swap1\n      tag_33\n      jump\t// in\n    tag_32:\n      mload(0x40)\n      dup1\n      swap2\n      sub\n      swap1\n      return\n        /* \"@openzeppelin/contracts/access/AccessControl.sol\":4391:4520  function getRoleAdmin(bytes32 role) public view virtual override returns (bytes32) {... */\n    tag_4:\n      callvalue\n      dup1\n      iszero\n      tag_34\n      jumpi\n      0x00\n      dup1\n      revert\n    tag_34:\n      pop\n      tag_35\n      0x04\n      dup1\n      calldatasize\n      sub\n      dup2\n      add\n      swap1\n      tag_36\n      swap2\n      swap1\n      tag_37\n      jump\t// in\n    tag_36:\n      tag_38\n      jump\t// in\n    tag_35:\n      mload(0x40)\n      tag_39\n      swap2\n      swap1\n      tag_40\n      jump\t// in\n    tag_39:\n      mload(0x40)\n      dup1\n      swap2\n      sub\n      swap1\n      return\n        /* \"FundDistributor.sol\":1436:2176  function withdraw(uint256 amount) public {... */\n    tag_5:\n      callvalue\n      dup1\n      iszero\n      tag_41\n      jumpi\n      0x00\n      dup1\n      revert\n    tag_41:\n      pop\n      tag_42\n      0x04\n      dup1\n      calldatasize\n      sub\n      dup2\n      add\n      swap1\n      tag_43\n      swap2\n      swap1\n      tag_44\n      jump\t// in\n    tag_43:\n      tag_45\n      jump\t// in\n    tag_42:\n      stop\n        /* \"@openzeppelin/contracts/access/AccessControl.sol\":4816:4961  function grantRole(bytes32 role, address account) public virtual override onlyRole(getRoleAdmin(role)) {... */\n    tag_6:\n      callvalue\n      dup1\n      iszero\n      tag_46\n      jumpi\n      0x00\n      dup1\n      revert\n    tag_46:\n      pop\n      tag_47\n      0x04\n      dup1\n      calldatasize\n      sub\n      dup2\n      add\n      swap1\n      tag_48\n      swap2\n      swap1\n      tag_49\n      jump\t// in\n    tag_48:\n      tag_50\n      jump\t// in\n    tag_47:\n      stop\n        /* \"@openzeppelin/contracts/access/AccessControl.sol\":5925:6139  function renounceRole(bytes32 role, address account) public virtual override {... */\n    tag_7:\n      callvalue\n      dup1\n      iszero\n      tag_51\n      jumpi\n      0x00\n      dup1\n      revert\n    tag_51:\n      pop\n      tag_52\n      0x04\n      dup1\n      calldatasize\n      sub\n      dup2\n      add\n      swap1\n      tag_53\n      swap2\n      swap1\n      tag_49\n      jump\t// in\n    tag_53:\n      tag_54\n      jump\t// in\n    tag_52:\n      stop\n        /* \"FundDistributor.sol\":2182:2723  function repay(uint256 amount) public {... */\n    tag_8:\n      callvalue\n      dup1\n      iszero\n      tag_55\n      jumpi\n      0x00\n      dup1\n      revert\n    tag_55:\n      pop\n      tag_56\n      0x04\n      dup1\n      calldatasize\n      sub\n      dup2\n      add\n      swap1\n      tag_57\n      swap2\n      swap1\n      tag_44\n      jump\t// in\n    tag_57:\n      tag_58\n      jump\t// in\n    tag_56:\n      stop\n        /* \"FundDistributor.sol\":2729:2971  function withdrawToken(uint256 _amount) external {... */\n    tag_9:\n      callvalue\n      dup1\n      iszero\n      tag_59\n      jumpi\n      0x00\n      dup1\n      revert\n    tag_59:\n      pop\n      tag_60\n      0x04\n      dup1\n      calldatasize\n      sub\n      dup2\n      add\n      swap1\n      tag_61\n      swap2\n      swap1\n      tag_44\n      jump\t// in\n    tag_61:\n      tag_62\n      jump\t// in\n    tag_60:\n      stop\n        /* \"@openzeppelin/contracts/access/AccessControl.sol\":2895:3040  function hasRole(bytes32 role, address account) public view virtual override returns (bool) {... */\n    tag_10:\n      callvalue\n      dup1\n      iszero\n      tag_63\n      jumpi\n      0x00\n      dup1\n      revert\n    tag_63:\n      pop\n      tag_64\n      0x04\n      dup1\n      calldatasize\n      sub\n      dup2\n      add\n      swap1\n      tag_65\n      swap2\n      swap1\n      tag_49\n      jump\t// in\n    tag_65:\n      tag_66\n      jump\t// in\n    tag_64:\n      mload(0x40)\n      tag_67\n      swap2\n      swap1\n      tag_26\n      jump\t// in\n    tag_67:\n      mload(0x40)\n      dup1\n      swap2\n      sub\n      swap1\n      return\n        /* \"FundDistributor.sol\":1272:1430  function amountAvailable(address user) public view returns(uint256) {... */\n    tag_11:\n      callvalue\n      dup1\n      iszero\n      tag_68\n      jumpi\n      0x00\n      dup1\n      revert\n    tag_68:\n      pop\n      tag_69\n      0x04\n      dup1\n      calldatasize\n      sub\n      dup2\n      add\n      swap1\n      tag_70\n      swap2\n      swap1\n      tag_30\n      jump\t// in\n    tag_70:\n      tag_71\n      jump\t// in\n    tag_69:\n      mload(0x40)\n      tag_72\n      swap2\n      swap1\n      tag_73\n      jump\t// in\n    tag_72:\n      mload(0x40)\n      dup1\n      swap2\n      sub\n      swap1\n      return\n        /* \"@openzeppelin/contracts/access/AccessControl.sol\":2027:2076  bytes32 public constant DEFAULT_ADMIN_ROLE = 0x00 */\n    tag_12:\n      callvalue\n      dup1\n      iszero\n      tag_74\n      jumpi\n      0x00\n      dup1\n      revert\n    tag_74:\n      pop\n      tag_75\n      tag_76\n      jump\t// in\n    tag_75:\n      mload(0x40)\n      tag_77\n      swap2\n      swap1\n      tag_40\n      jump\t// in\n    tag_77:\n      mload(0x40)\n      dup1\n      swap2\n      sub\n      swap1\n      return\n        /* \"FundDistributor.sol\":1142:1266  function hasParticipant(address user) public view returns(bool) {... */\n    tag_13:\n      callvalue\n      dup1\n      iszero\n      tag_78\n      jumpi\n      0x00\n      dup1\n      revert\n    tag_78:\n      pop\n      tag_79\n      0x04\n      dup1\n      calldatasize\n      sub\n      dup2\n      add\n      swap1\n      tag_80\n      swap2\n      swap1\n      tag_30\n      jump\t// in\n    tag_80:\n      tag_81\n      jump\t// in\n    tag_79:\n      mload(0x40)\n      tag_82\n      swap2\n      swap1\n      tag_26\n      jump\t// in\n    tag_82:\n      mload(0x40)\n      dup1\n      swap2\n      sub\n      swap1\n      return\n        /* \"@openzeppelin/contracts/access/AccessControl.sol\":5241:5388  function revokeRole(bytes32 role, address account) public virtual override onlyRole(getRoleAdmin(role)) {... */\n    tag_14:\n      callvalue\n      dup1\n      iszero\n      tag_83\n      jumpi\n      0x00\n      dup1\n      revert\n    tag_83:\n      pop\n      tag_84\n      0x04\n      dup1\n      calldatasize\n      sub\n      dup2\n      add\n      swap1\n      tag_85\n      swap2\n      swap1\n      tag_49\n      jump\t// in\n    tag_85:\n      tag_86\n      jump\t// in\n    tag_84:\n      stop\n        /* \"FundDistributor.sol\":650:1136  function addAdress(address user) external payable {... */\n    tag_15:\n      tag_87\n      0x04\n      dup1\n      calldatasize\n      sub\n      dup2\n      add\n      swap1\n      tag_88\n      swap2\n      swap1\n      tag_30\n      jump\t// in\n    tag_88:\n      tag_89\n      jump\t// in\n    tag_87:\n      stop\n        /* \"FundDistributor.sol\":230:250  address public token */\n    tag_16:\n      callvalue\n      dup1\n      iszero\n      tag_90\n      jumpi\n      0x00\n      dup1\n      revert\n    tag_90:\n      pop\n      tag_91\n      tag_92\n      jump\t// in\n    tag_91:\n      mload(0x40)\n      tag_93\n      swap2\n      swap1\n      tag_94\n      jump\t// in\n    tag_93:\n      mload(0x40)\n      dup1\n      swap2\n      sub\n      swap1\n      return\n        /* \"@openzeppelin/contracts/access/AccessControl.sol\":2606:2808  function supportsInterface(bytes4 interfaceId) public view virtual override returns (bool) {... */\n    tag_24:\n        /* \"@openzeppelin/contracts/access/AccessControl.sol\":2691:2695  bool */\n      0x00\n        /* \"@openzeppelin/contracts/access/AccessControl.sol\":2729:2761  type(IAccessControl).interfaceId */\n      0x7965db0b00000000000000000000000000000000000000000000000000000000\n        /* \"@openzeppelin/contracts/access/AccessControl.sol\":2714:2761  interfaceId == type(IAccessControl).interfaceId */\n      not(0xffffffffffffffffffffffffffffffffffffffffffffffffffffffff)\n      and\n        /* \"@openzeppelin/contracts/access/AccessControl.sol\":2714:2725  interfaceId */\n      dup3\n        /* \"@openzeppelin/contracts/access/AccessControl.sol\":2714:2761  interfaceId == type(IAccessControl).interfaceId */\n      not(0xffffffffffffffffffffffffffffffffffffffffffffffffffffffff)\n      and\n      eq\n        /* \"@openzeppelin/contracts/access/AccessControl.sol\":2714:2801  interfaceId == type(IAccessControl).interfaceId || super.supportsInterface(interfaceId) */\n      dup1\n      tag_96\n      jumpi\n      pop\n        /* \"@openzeppelin/contracts/access/AccessControl.sol\":2765:2801  super.supportsInterface(interfaceId) */\n      tag_97\n        /* \"@openzeppelin/contracts/access/AccessControl.sol\":2789:2800  interfaceId */\n      dup3\n        /* \"@openzeppelin/contracts/access/AccessControl.sol\":2765:2788  super.supportsInterface */\n      tag_98\n        /* \"@openzeppelin/contracts/access/AccessControl.sol\":2765:2801  super.supportsInterface(interfaceId) */\n      jump\t// in\n    tag_97:\n        /* \"@openzeppelin/contracts/access/AccessControl.sol\":2714:2801  interfaceId == type(IAccessControl).interfaceId || super.supportsInterface(interfaceId) */\n    tag_96:\n        /* \"@openzeppelin/contracts/access/AccessControl.sol\":2707:2801  return interfaceId == type(IAccessControl).interfaceId || super.supportsInterface(interfaceId) */\n      swap1\n      pop\n        /* \"@openzeppelin/contracts/access/AccessControl.sol\":2606:2808  function supportsInterface(bytes4 interfaceId) public view virtual override returns (bool) {... */\n      swap2\n      swap1\n      pop\n      jump\t// out\n        /* \"FundDistributor.sol\":297:348  mapping(address => Participant) public participants */\n    tag_31:\n      mstore(0x20, 0x03)\n      dup1\n      0x00\n      mstore\n      keccak256(0x00, 0x40)\n      0x00\n      swap2\n      pop\n      swap1\n      pop\n      dup1\n      0x00\n      add\n      sload\n      swap1\n      dup1\n      0x01\n      add\n      sload\n      swap1\n      dup1\n      0x02\n      add\n      sload\n      swap1\n      pop\n      dup4\n      jump\t// out\n        /* \"@openzeppelin/contracts/access/AccessControl.sol\":4391:4520  function getRoleAdmin(bytes32 role) public view virtual override returns (bytes32) {... */\n    tag_38:\n        /* \"@openzeppelin/contracts/access/AccessControl.sol\":4465:4472  bytes32 */\n      0x00\n        /* \"@openzeppelin/contracts/access/AccessControl.sol\":4491:4497  _roles */\n      dup1\n        /* \"@openzeppelin/contracts/access/AccessControl.sol\":4491:4503  _roles[role] */\n      0x00\n        /* \"@openzeppelin/contracts/access/AccessControl.sol\":4498:4502  role */\n      dup4\n        /* \"@openzeppelin/contracts/access/AccessControl.sol\":4491:4503  _roles[role] */\n      dup2\n      mstore\n      0x20\n      add\n      swap1\n      dup2\n      mstore\n      0x20\n      add\n      0x00\n      keccak256\n        /* \"@openzeppelin/contracts/access/AccessControl.sol\":4491:4513  _roles[role].adminRole */\n      0x01\n      add\n      sload\n        /* \"@openzeppelin/contracts/access/AccessControl.sol\":4484:4513  return _roles[role].adminRole */\n      swap1\n      pop\n        /* \"@openzeppelin/contracts/access/AccessControl.sol\":4391:4520  function getRoleAdmin(bytes32 role) public view virtual override returns (bytes32) {... */\n      swap2\n      swap1\n      pop\n      jump\t// out\n        /* \"FundDistributor.sol\":1436:2176  function withdraw(uint256 amount) public {... */\n    tag_45:\n        /* \"FundDistributor.sol\":1487:1502  uint256 balance */\n      0x00\n        /* \"FundDistributor.sol\":1511:1516  token */\n      0x01\n      0x00\n      swap1\n      sload\n      swap1\n      0x0100\n      exp\n      swap1\n      div\n      0xffffffffffffffffffffffffffffffffffffffff\n      and\n        /* \"FundDistributor.sol\":1505:1527  ERC20(token).balanceOf */\n      0xffffffffffffffffffffffffffffffffffffffff\n      and\n      0x70a08231\n        /* \"FundDistributor.sol\":1536:1540  this */\n      address\n        /* \"FundDistributor.sol\":1505:1542  ERC20(token).balanceOf(address(this)) */\n      mload(0x40)\n      dup3\n      0xffffffff\n      and\n      0xe0\n      shl\n      dup2\n      mstore\n      0x04\n      add\n      tag_101\n      swap2\n      swap1\n      tag_94\n      jump\t// in\n    tag_101:\n      0x20\n      mload(0x40)\n      dup1\n      dup4\n      sub\n      dup2\n      dup7\n      dup1\n      extcodesize\n      iszero\n      dup1\n      iszero\n      tag_102\n      jumpi\n      0x00\n      dup1\n      revert\n    tag_102:\n      pop\n      gas\n      staticcall\n      iszero\n      dup1\n      iszero\n      tag_104\n      jumpi\n      returndatasize\n      0x00\n      dup1\n      returndatacopy\n      revert(0x00, returndatasize)\n    tag_104:\n      pop\n      pop\n      pop\n      pop\n      mload(0x40)\n      returndatasize\n      not(0x1f)\n      0x1f\n      dup3\n      add\n      and\n      dup3\n      add\n      dup1\n      0x40\n      mstore\n      pop\n      dup2\n      add\n      swap1\n      tag_105\n      swap2\n      swap1\n      tag_106\n      jump\t// in\n    tag_105:\n        /* \"FundDistributor.sol\":1487:1542  uint256 balance = ERC20(token).balanceOf(address(this)) */\n      swap1\n      pop\n        /* \"FundDistributor.sol\":1570:1576  amount */\n      dup2\n        /* \"FundDistributor.sol\":1560:1567  balance */\n      dup2\n        /* \"FundDistributor.sol\":1560:1576  balance > amount */\n      gt\n        /* \"FundDistributor.sol\":1552:1609  require(balance > amount, \"not enough funds in contract\") */\n      tag_107\n      jumpi\n      mload(0x40)\n      0x08c379a000000000000000000000000000000000000000000000000000000000\n      dup2\n      mstore\n      0x04\n      add\n      tag_108\n      swap1\n      tag_109\n      jump\t// in\n    tag_108:\n      mload(0x40)\n      dup1\n      swap2\n      sub\n      swap1\n      revert\n    tag_107:\n        /* \"FundDistributor.sol\":1620:1643  Participant memory user */\n      0x00\n        /* \"FundDistributor.sol\":1646:1658  participants */\n      0x03\n        /* \"FundDistributor.sol\":1646:1670  participants[msg.sender] */\n      0x00\n        /* \"FundDistributor.sol\":1659:1669  msg.sender */\n      caller\n        /* \"FundDistributor.sol\":1646:1670  participants[msg.sender] */\n      0xffffffffffffffffffffffffffffffffffffffff\n      and\n      0xffffffffffffffffffffffffffffffffffffffff\n      and\n      dup2\n      mstore\n      0x20\n      add\n      swap1\n      dup2\n      mstore\n      0x20\n      add\n      0x00\n      keccak256\n        /* \"FundDistributor.sol\":1620:1670  Participant memory user = participants[msg.sender] */\n      mload(0x40)\n      dup1\n      0x60\n      add\n      0x40\n      mstore\n      swap1\n      dup2\n      0x00\n      dup3\n      add\n      sload\n      dup2\n      mstore\n      0x20\n      add\n      0x01\n      dup3\n      add\n      sload\n      dup2\n      mstore\n      0x20\n      add\n      0x02\n      dup3\n      add\n      sload\n      dup2\n      mstore\n      pop\n      pop\n      swap1\n      pop\n        /* \"FundDistributor.sol\":1720:1732  block.number */\n      number\n        /* \"FundDistributor.sol\":1688:1692  user */\n      dup2\n        /* \"FundDistributor.sol\":1688:1717  user.nextAllowedWithdrawBlock */\n      0x40\n      add\n      mload\n        /* \"FundDistributor.sol\":1688:1732  user.nextAllowedWithdrawBlock < block.number */\n      lt\n        /* \"FundDistributor.sol\":1680:1777  require(user.nextAllowedWithdrawBlock < block.number, \"caller is not eligible for next withdraw\") */\n      tag_110\n      jumpi\n      mload(0x40)\n      0x08c379a000000000000000000000000000000000000000000000000000000000\n      dup2\n      mstore\n      0x04\n      add\n      tag_111\n      swap1\n      tag_112\n      jump\t// in\n    tag_111:\n      mload(0x40)\n      dup1\n      swap2\n      sub\n      swap1\n      revert\n    tag_110:\n        /* \"FundDistributor.sol\":1815:1821  amount */\n      dup3\n        /* \"FundDistributor.sol\":1795:1799  user */\n      dup2\n        /* \"FundDistributor.sol\":1795:1812  user.currentLimit */\n      0x00\n      add\n      mload\n        /* \"FundDistributor.sol\":1795:1821  user.currentLimit > amount */\n      gt\n        /* \"FundDistributor.sol\":1787:1868  require(user.currentLimit > amount, \"caller is not eligible for withdraw amount\") */\n      tag_113\n      jumpi\n      mload(0x40)\n      0x08c379a000000000000000000000000000000000000000000000000000000000\n      dup2\n      mstore\n      0x04\n      add\n      tag_114\n      swap1\n      tag_115\n      jump\t// in\n    tag_114:\n      mload(0x40)\n      dup1\n      swap2\n      sub\n      swap1\n      revert\n    tag_113:\n        /* \"FundDistributor.sol\":1927:1933  amount */\n      dup3\n        /* \"FundDistributor.sol\":1907:1911  user */\n      dup2\n        /* \"FundDistributor.sol\":1907:1924  user.currentLimit */\n      0x00\n      add\n      mload\n        /* \"FundDistributor.sol\":1907:1933  user.currentLimit - amount */\n      tag_116\n      swap2\n      swap1\n      tag_117\n      jump\t// in\n    tag_116:\n        /* \"FundDistributor.sol\":1886:1890  user */\n      dup2\n        /* \"FundDistributor.sol\":1886:1904  user.currentlyOwed */\n      0x20\n      add\n      mload\n        /* \"FundDistributor.sol\":1886:1933  user.currentlyOwed < user.currentLimit - amount */\n      lt\n        /* \"FundDistributor.sol\":1878:1980  require(user.currentlyOwed < user.currentLimit - amount, \"caller is not eligible for withdraw amount\") */\n      tag_118\n      jumpi\n      mload(0x40)\n      0x08c379a000000000000000000000000000000000000000000000000000000000\n      dup2\n      mstore\n      0x04\n      add\n      tag_119\n      swap1\n      tag_115\n      jump\t// in\n    tag_119:\n      mload(0x40)\n      dup1\n      swap2\n      sub\n      swap1\n      revert\n    tag_118:\n        /* \"FundDistributor.sol\":2004:2009  token */\n      0x01\n      0x00\n      swap1\n      sload\n      swap1\n      0x0100\n      exp\n      swap1\n      div\n      0xffffffffffffffffffffffffffffffffffffffff\n      and\n        /* \"FundDistributor.sol\":1998:2019  ERC20(token).transfer */\n      0xffffffffffffffffffffffffffffffffffffffff\n      and\n      0xa9059cbb\n        /* \"FundDistributor.sol\":2020:2030  msg.sender */\n      caller\n        /* \"FundDistributor.sol\":2032:2038  amount */\n      dup6\n        /* \"FundDistributor.sol\":1998:2039  ERC20(token).transfer(msg.sender, amount) */\n      mload(0x40)\n      dup4\n      0xffffffff\n      and\n      0xe0\n      shl\n      dup2\n      mstore\n      0x04\n      add\n      tag_120\n      swap3\n      swap2\n      swap1\n      tag_121\n      jump\t// in\n    tag_120:\n      0x20\n      mload(0x40)\n      dup1\n      dup4\n      sub\n      dup2\n      0x00\n      dup8\n      dup1\n      extcodesize\n      iszero\n      dup1\n      iszero\n      tag_122\n      jumpi\n      0x00\n      dup1\n      revert\n    tag_122:\n      pop\n      gas\n      call\n      iszero\n      dup1\n      iszero\n      tag_124\n      jumpi\n      returndatasize\n      0x00\n      dup1\n      returndatacopy\n      revert(0x00, returndatasize)\n    tag_124:\n      pop\n      pop\n      pop\n      pop\n      mload(0x40)\n      returndatasize\n      not(0x1f)\n      0x1f\n      dup3\n      add\n      and\n      dup3\n      add\n      dup1\n      0x40\n      mstore\n      pop\n      dup2\n      add\n      swap1\n      tag_125\n      swap2\n      swap1\n      tag_126\n      jump\t// in\n    tag_125:\n        /* \"FundDistributor.sol\":1990:2059  require(ERC20(token).transfer(msg.sender, amount), \"withdraw failed\") */\n      tag_127\n      jumpi\n      mload(0x40)\n      0x08c379a000000000000000000000000000000000000000000000000000000000\n      dup2\n      mstore\n      0x04\n      add\n      tag_128\n      swap1\n      tag_129\n      jump\t// in\n    tag_128:\n      mload(0x40)\n      dup1\n      swap2\n      sub\n      swap1\n      revert\n    tag_127:\n        /* \"FundDistributor.sol\":2100:2106  amount */\n      dup3\n        /* \"FundDistributor.sol\":2078:2082  user */\n      dup2\n        /* \"FundDistributor.sol\":2078:2096  user.currentlyOwed */\n      0x20\n      add\n        /* \"FundDistributor.sol\":2078:2106  user.currentlyOwed += amount */\n      dup2\n      dup2\n      mload\n      tag_130\n      swap2\n      swap1\n      tag_131\n      jump\t// in\n    tag_130:\n      swap2\n      pop\n      dup2\n      dup2\n      mstore\n      pop\n      pop\n        /* \"FundDistributor.sol\":2164:2169  67280 */\n      0x0106d0\n        /* \"FundDistributor.sol\":2149:2161  block.number */\n      number\n        /* \"FundDistributor.sol\":2149:2169  block.number + 67280 */\n      tag_132\n      swap2\n      swap1\n      tag_131\n      jump\t// in\n    tag_132:\n        /* \"FundDistributor.sol\":2116:2120  user */\n      dup2\n        /* \"FundDistributor.sol\":2116:2145  user.nextAllowedWithdrawBlock */\n      0x40\n      add\n        /* \"FundDistributor.sol\":2116:2169  user.nextAllowedWithdrawBlock += block.number + 67280 */\n      dup2\n      dup2\n      mload\n      tag_133\n      swap2\n      swap1\n      tag_131\n      jump\t// in\n    tag_133:\n      swap2\n      pop\n      dup2\n      dup2\n      mstore\n      pop\n      pop\n        /* \"FundDistributor.sol\":1477:2176  {... */\n      pop\n      pop\n        /* \"FundDistributor.sol\":1436:2176  function withdraw(uint256 amount) public {... */\n      pop\n      jump\t// out\n        /* \"@openzeppelin/contracts/access/AccessControl.sol\":4816:4961  function grantRole(bytes32 role, address account) public virtual override onlyRole(getRoleAdmin(role)) {... */\n    tag_50:\n        /* \"@openzeppelin/contracts/access/AccessControl.sol\":4899:4917  getRoleAdmin(role) */\n      tag_134\n        /* \"@openzeppelin/contracts/access/AccessControl.sol\":4912:4916  role */\n      dup3\n        /* \"@openzeppelin/contracts/access/AccessControl.sol\":4899:4911  getRoleAdmin */\n      tag_38\n        /* \"@openzeppelin/contracts/access/AccessControl.sol\":4899:4917  getRoleAdmin(role) */\n      jump\t// in\n    tag_134:\n        /* \"@openzeppelin/contracts/access/AccessControl.sol\":2505:2521  _checkRole(role) */\n      tag_136\n        /* \"@openzeppelin/contracts/access/AccessControl.sol\":2516:2520  role */\n      dup2\n        /* \"@openzeppelin/contracts/access/AccessControl.sol\":2505:2515  _checkRole */\n      tag_137\n        /* \"@openzeppelin/contracts/access/AccessControl.sol\":2505:2521  _checkRole(role) */\n      jump\t// in\n    tag_136:\n        /* \"@openzeppelin/contracts/access/AccessControl.sol\":4929:4954  _grantRole(role, account) */\n      tag_139\n        /* \"@openzeppelin/contracts/access/AccessControl.sol\":4940:4944  role */\n      dup4\n        /* \"@openzeppelin/contracts/access/AccessControl.sol\":4946:4953  account */\n      dup4\n        /* \"@openzeppelin/contracts/access/AccessControl.sol\":4929:4939  _grantRole */\n      tag_140\n        /* \"@openzeppelin/contracts/access/AccessControl.sol\":4929:4954  _grantRole(role, account) */\n      jump\t// in\n    tag_139:\n        /* \"@openzeppelin/contracts/access/AccessControl.sol\":4816:4961  function grantRole(bytes32 role, address account) public virtual override onlyRole(getRoleAdmin(role)) {... */\n      pop\n      pop\n      pop\n      jump\t// out\n        /* \"@openzeppelin/contracts/access/AccessControl.sol\":5925:6139  function renounceRole(bytes32 role, address account) public virtual override {... */\n    tag_54:\n        /* \"@openzeppelin/contracts/access/AccessControl.sol\":6031:6043  _msgSender() */\n      tag_142\n        /* \"@openzeppelin/contracts/access/AccessControl.sol\":6031:6041  _msgSender */\n      tag_143\n        /* \"@openzeppelin/contracts/access/AccessControl.sol\":6031:6043  _msgSender() */\n      jump\t// in\n    tag_142:\n        /* \"@openzeppelin/contracts/access/AccessControl.sol\":6020:6043  account == _msgSender() */\n      0xffffffffffffffffffffffffffffffffffffffff\n      and\n        /* \"@openzeppelin/contracts/access/AccessControl.sol\":6020:6027  account */\n      dup2\n        /* \"@openzeppelin/contracts/access/AccessControl.sol\":6020:6043  account == _msgSender() */\n      0xffffffffffffffffffffffffffffffffffffffff\n      and\n      eq\n        /* \"@openzeppelin/contracts/access/AccessControl.sol\":6012:6095  require(account == _msgSender(), \"AccessControl: can only renounce roles for self\") */\n      tag_144\n      jumpi\n      mload(0x40)\n      0x08c379a000000000000000000000000000000000000000000000000000000000\n      dup2\n      mstore\n      0x04\n      add\n      tag_145\n      swap1\n      tag_146\n      jump\t// in\n    tag_145:\n      mload(0x40)\n      dup1\n      swap2\n      sub\n      swap1\n      revert\n    tag_144:\n        /* \"@openzeppelin/contracts/access/AccessControl.sol\":6106:6132  _revokeRole(role, account) */\n      tag_147\n        /* \"@openzeppelin/contracts/access/AccessControl.sol\":6118:6122  role */\n      dup3\n        /* \"@openzeppelin/contracts/access/AccessControl.sol\":6124:6131  account */\n      dup3\n        /* \"@openzeppelin/contracts/access/AccessControl.sol\":6106:6117  _revokeRole */\n      tag_148\n        /* \"@openzeppelin/contracts/access/AccessControl.sol\":6106:6132  _revokeRole(role, account) */\n      jump\t// in\n    tag_147:\n        /* \"@openzeppelin/contracts/access/AccessControl.sol\":5925:6139  function renounceRole(bytes32 role, address account) public virtual override {... */\n      pop\n      pop\n      jump\t// out\n        /* \"FundDistributor.sol\":2182:2723  function repay(uint256 amount) public {... */\n    tag_58:\n        /* \"FundDistributor.sol\":2244:2249  token */\n      0x01\n      0x00\n      swap1\n      sload\n      swap1\n      0x0100\n      exp\n      swap1\n      div\n      0xffffffffffffffffffffffffffffffffffffffff\n      and\n        /* \"FundDistributor.sol\":2238:2263  ERC20(token).transferFrom */\n      0xffffffffffffffffffffffffffffffffffffffff\n      and\n      0x23b872dd\n        /* \"FundDistributor.sol\":2264:2274  msg.sender */\n      caller\n        /* \"FundDistributor.sol\":2284:2288  this */\n      address\n        /* \"FundDistributor.sol\":2291:2297  amount */\n      dup5\n        /* \"FundDistributor.sol\":2238:2298  ERC20(token).transferFrom(msg.sender, address(this), amount) */\n      mload(0x40)\n      dup5\n      0xffffffff\n      and\n      0xe0\n      shl\n      dup2\n      mstore\n      0x04\n      add\n      tag_150\n      swap4\n      swap3\n      swap2\n      swap1\n      tag_151\n      jump\t// in\n    tag_150:\n      0x20\n      mload(0x40)\n      dup1\n      dup4\n      sub\n      dup2\n      0x00\n      dup8\n      dup1\n      extcodesize\n      iszero\n      dup1\n      iszero\n      tag_152\n      jumpi\n      0x00\n      dup1\n      revert\n    tag_152:\n      pop\n      gas\n      call\n      iszero\n      dup1\n      iszero\n      tag_154\n      jumpi\n      returndatasize\n      0x00\n      dup1\n      returndatacopy\n      revert(0x00, returndatasize)\n    tag_154:\n      pop\n      pop\n      pop\n      pop\n      mload(0x40)\n      returndatasize\n      not(0x1f)\n      0x1f\n      dup3\n      add\n      and\n      dup3\n      add\n      dup1\n      0x40\n      mstore\n      pop\n      dup2\n      add\n      swap1\n      tag_155\n      swap2\n      swap1\n      tag_126\n      jump\t// in\n    tag_155:\n        /* \"FundDistributor.sol\":2230:2315  require(ERC20(token).transferFrom(msg.sender, address(this), amount), \"failed repay\") */\n      tag_156\n      jumpi\n      mload(0x40)\n      0x08c379a000000000000000000000000000000000000000000000000000000000\n      dup2\n      mstore\n      0x04\n      add\n      tag_157\n      swap1\n      tag_158\n      jump\t// in\n    tag_157:\n      mload(0x40)\n      dup1\n      swap2\n      sub\n      swap1\n      revert\n    tag_156:\n        /* \"FundDistributor.sol\":2368:2374  amount */\n      dup1\n        /* \"FundDistributor.sol\":2326:2338  participants */\n      0x03\n        /* \"FundDistributor.sol\":2326:2350  participants[msg.sender] */\n      0x00\n        /* \"FundDistributor.sol\":2339:2349  msg.sender */\n      caller\n        /* \"FundDistributor.sol\":2326:2350  participants[msg.sender] */\n      0xffffffffffffffffffffffffffffffffffffffff\n      and\n      0xffffffffffffffffffffffffffffffffffffffff\n      and\n      dup2\n      mstore\n      0x20\n      add\n      swap1\n      dup2\n      mstore\n      0x20\n      add\n      0x00\n      keccak256\n        /* \"FundDistributor.sol\":2326:2364  participants[msg.sender].currentlyOwed */\n      0x01\n      add\n      0x00\n        /* \"FundDistributor.sol\":2326:2374  participants[msg.sender].currentlyOwed -= amount */\n      dup3\n      dup3\n      sload\n      tag_159\n      swap2\n      swap1\n      tag_117\n      jump\t// in\n    tag_159:\n      swap3\n      pop\n      pop\n      dup2\n      swap1\n      sstore\n      pop\n        /* \"FundDistributor.sol\":2385:2397  uint256 owed */\n      0x00\n        /* \"FundDistributor.sol\":2400:2412  participants */\n      0x03\n        /* \"FundDistributor.sol\":2400:2424  participants[msg.sender] */\n      0x00\n        /* \"FundDistributor.sol\":2413:2423  msg.sender */\n      caller\n        /* \"FundDistributor.sol\":2400:2424  participants[msg.sender] */\n      0xffffffffffffffffffffffffffffffffffffffff\n      and\n      0xffffffffffffffffffffffffffffffffffffffff\n      and\n      dup2\n      mstore\n      0x20\n      add\n      swap1\n      dup2\n      mstore\n      0x20\n      add\n      0x00\n      keccak256\n        /* \"FundDistributor.sol\":2400:2438  participants[msg.sender].currentlyOwed */\n      0x01\n      add\n      sload\n        /* \"FundDistributor.sol\":2385:2438  uint256 owed = participants[msg.sender].currentlyOwed */\n      swap1\n      pop\n        /* \"FundDistributor.sol\":2461:2465  owed */\n      dup1\n        /* \"FundDistributor.sol\":2452:2458  amount */\n      dup3\n        /* \"FundDistributor.sol\":2452:2465  amount < owed */\n      lt\n        /* \"FundDistributor.sol\":2448:2498  if (amount < owed) {... */\n      iszero\n      tag_160\n      jumpi\n        /* \"FundDistributor.sol\":2481:2488  return; */\n      pop\n      jump(tag_149)\n        /* \"FundDistributor.sol\":2448:2498  if (amount < owed) {... */\n    tag_160:\n        /* \"FundDistributor.sol\":2508:2524  uint256 newLimit */\n      0x00\n        /* \"FundDistributor.sol\":2573:2576  100 */\n      0x64\n        /* \"FundDistributor.sol\":2567:2570  105 */\n      0x69\n        /* \"FundDistributor.sol\":2527:2539  participants */\n      0x03\n        /* \"FundDistributor.sol\":2527:2551  participants[msg.sender] */\n      0x00\n        /* \"FundDistributor.sol\":2540:2550  msg.sender */\n      caller\n        /* \"FundDistributor.sol\":2527:2551  participants[msg.sender] */\n      0xffffffffffffffffffffffffffffffffffffffff\n      and\n      0xffffffffffffffffffffffffffffffffffffffff\n      and\n      dup2\n      mstore\n      0x20\n      add\n      swap1\n      dup2\n      mstore\n      0x20\n      add\n      0x00\n      keccak256\n        /* \"FundDistributor.sol\":2527:2564  participants[msg.sender].currentLimit */\n      0x00\n      add\n      sload\n        /* \"FundDistributor.sol\":2527:2570  participants[msg.sender].currentLimit * 105 */\n      tag_161\n      swap2\n      swap1\n      tag_162\n      jump\t// in\n    tag_161:\n        /* \"FundDistributor.sol\":2527:2576  participants[msg.sender].currentLimit * 105 / 100 */\n      tag_163\n      swap2\n      swap1\n      tag_164\n      jump\t// in\n    tag_163:\n        /* \"FundDistributor.sol\":2508:2576  uint256 newLimit = participants[msg.sender].currentLimit * 105 / 100 */\n      swap1\n      pop\n        /* \"FundDistributor.sol\":2603:2611  maxLimit */\n      sload(0x02)\n        /* \"FundDistributor.sol\":2592:2600  newLimit */\n      dup2\n        /* \"FundDistributor.sol\":2592:2611  newLimit > maxLimit */\n      gt\n        /* \"FundDistributor.sol\":2587:2658  if ( newLimit > maxLimit ) {... */\n      iszero\n      tag_165\n      jumpi\n        /* \"FundDistributor.sol\":2639:2647  maxLimit */\n      sload(0x02)\n        /* \"FundDistributor.sol\":2628:2647  newLimit = maxLimit */\n      swap1\n      pop\n        /* \"FundDistributor.sol\":2587:2658  if ( newLimit > maxLimit ) {... */\n    tag_165:\n        /* \"FundDistributor.sol\":2708:2716  newLimit */\n      dup1\n        /* \"FundDistributor.sol\":2668:2680  participants */\n      0x03\n        /* \"FundDistributor.sol\":2668:2692  participants[msg.sender] */\n      0x00\n        /* \"FundDistributor.sol\":2681:2691  msg.sender */\n      caller\n        /* \"FundDistributor.sol\":2668:2692  participants[msg.sender] */\n      0xffffffffffffffffffffffffffffffffffffffff\n      and\n      0xffffffffffffffffffffffffffffffffffffffff\n      and\n      dup2\n      mstore\n      0x20\n      add\n      swap1\n      dup2\n      mstore\n      0x20\n      add\n      0x00\n      keccak256\n        /* \"FundDistributor.sol\":2668:2705  participants[msg.sender].currentLimit */\n      0x00\n      add\n        /* \"FundDistributor.sol\":2668:2716  participants[msg.sender].currentLimit = newLimit */\n      dup2\n      swap1\n      sstore\n      pop\n        /* \"FundDistributor.sol\":2220:2723  {... */\n      pop\n      pop\n        /* \"FundDistributor.sol\":2182:2723  function repay(uint256 amount) public {... */\n    tag_149:\n      pop\n      jump\t// out\n        /* \"FundDistributor.sol\":2729:2971  function withdrawToken(uint256 _amount) external {... */\n    tag_62:\n        /* \"FundDistributor.sol\":2796:2835  hasRole(DEFAULT_ADMIN_ROLE, msg.sender) */\n      tag_167\n        /* \"@openzeppelin/contracts/access/AccessControl.sol\":2072:2076  0x00 */\n      0x00\n        /* \"FundDistributor.sol\":2804:2822  DEFAULT_ADMIN_ROLE */\n      dup1\n      shl\n        /* \"FundDistributor.sol\":2824:2834  msg.sender */\n      caller\n        /* \"FundDistributor.sol\":2796:2803  hasRole */\n      tag_66\n        /* \"FundDistributor.sol\":2796:2835  hasRole(DEFAULT_ADMIN_ROLE, msg.sender) */\n      jump\t// in\n    tag_167:\n        /* \"FundDistributor.sol\":2788:2867  require(hasRole(DEFAULT_ADMIN_ROLE, msg.sender), \"caller is not administrator\") */\n      tag_168\n      jumpi\n      mload(0x40)\n      0x08c379a000000000000000000000000000000000000000000000000000000000\n      dup2\n      mstore\n      0x04\n      add\n      tag_169\n      swap1\n      tag_170\n      jump\t// in\n    tag_169:\n      mload(0x40)\n      dup1\n      swap2\n      sub\n      swap1\n      revert\n    tag_168:\n        /* \"FundDistributor.sol\":2877:2896  ERC20 tokenContract */\n      0x00\n        /* \"FundDistributor.sol\":2905:2910  token */\n      0x01\n      0x00\n      swap1\n      sload\n      swap1\n      0x0100\n      exp\n      swap1\n      div\n      0xffffffffffffffffffffffffffffffffffffffff\n      and\n        /* \"FundDistributor.sol\":2877:2911  ERC20 tokenContract = ERC20(token) */\n      swap1\n      pop\n        /* \"FundDistributor.sol\":2921:2934  tokenContract */\n      dup1\n        /* \"FundDistributor.sol\":2921:2943  tokenContract.transfer */\n      0xffffffffffffffffffffffffffffffffffffffff\n      and\n      0xa9059cbb\n        /* \"FundDistributor.sol\":2944:2954  msg.sender */\n      caller\n        /* \"FundDistributor.sol\":2956:2963  _amount */\n      dup5\n        /* \"FundDistributor.sol\":2921:2964  tokenContract.transfer(msg.sender, _amount) */\n      mload(0x40)\n      dup4\n      0xffffffff\n      and\n      0xe0\n      shl\n      dup2\n      mstore\n      0x04\n      add\n      tag_171\n      swap3\n      swap2\n      swap1\n      tag_121\n      jump\t// in\n    tag_171:\n      0x20\n      mload(0x40)\n      dup1\n      dup4\n      sub\n      dup2\n      0x00\n      dup8\n      dup1\n      extcodesize\n      iszero\n      dup1\n      iszero\n      tag_172\n      jumpi\n      0x00\n      dup1\n      revert\n    tag_172:\n      pop\n      gas\n      call\n      iszero\n      dup1\n      iszero\n      tag_174\n      jumpi\n      returndatasize\n      0x00\n      dup1\n      returndatacopy\n      revert(0x00, returndatasize)\n    tag_174:\n      pop\n      pop\n      pop\n      pop\n      mload(0x40)\n      returndatasize\n      not(0x1f)\n      0x1f\n      dup3\n      add\n      and\n      dup3\n      add\n      dup1\n      0x40\n      mstore\n      pop\n      dup2\n      add\n      swap1\n      tag_175\n      swap2\n      swap1\n      tag_126\n      jump\t// in\n    tag_175:\n      pop\n        /* \"FundDistributor.sol\":2778:2971  {... */\n      pop\n        /* \"FundDistributor.sol\":2729:2971  function withdrawToken(uint256 _amount) external {... */\n      pop\n      jump\t// out\n        /* \"@openzeppelin/contracts/access/AccessControl.sol\":2895:3040  function hasRole(bytes32 role, address account) public view virtual override returns (bool) {... */\n    tag_66:\n        /* \"@openzeppelin/contracts/access/AccessControl.sol\":2981:2985  bool */\n      0x00\n        /* \"@openzeppelin/contracts/access/AccessControl.sol\":3004:3010  _roles */\n      dup1\n        /* \"@openzeppelin/contracts/access/AccessControl.sol\":3004:3016  _roles[role] */\n      0x00\n        /* \"@openzeppelin/contracts/access/AccessControl.sol\":3011:3015  role */\n      dup5\n        /* \"@openzeppelin/contracts/access/AccessControl.sol\":3004:3016  _roles[role] */\n      dup2\n      mstore\n      0x20\n      add\n      swap1\n      dup2\n      mstore\n      0x20\n      add\n      0x00\n      keccak256\n        /* \"@openzeppelin/contracts/access/AccessControl.sol\":3004:3024  _roles[role].members */\n      0x00\n      add\n        /* \"@openzeppelin/contracts/access/AccessControl.sol\":3004:3033  _roles[role].members[account] */\n      0x00\n        /* \"@openzeppelin/contracts/access/AccessControl.sol\":3025:3032  account */\n      dup4\n        /* \"@openzeppelin/contracts/access/AccessControl.sol\":3004:3033  _roles[role].members[account] */\n      0xffffffffffffffffffffffffffffffffffffffff\n      and\n      0xffffffffffffffffffffffffffffffffffffffff\n      and\n      dup2\n      mstore\n      0x20\n      add\n      swap1\n      dup2\n      mstore\n      0x20\n      add\n      0x00\n      keccak256\n      0x00\n      swap1\n      sload\n      swap1\n      0x0100\n      exp\n      swap1\n      div\n      0xff\n      and\n        /* \"@openzeppelin/contracts/access/AccessControl.sol\":2997:3033  return _roles[role].members[account] */\n      swap1\n      pop\n        /* \"@openzeppelin/contracts/access/AccessControl.sol\":2895:3040  function hasRole(bytes32 role, address account) public view virtual override returns (bool) {... */\n      swap3\n      swap2\n      pop\n      pop\n      jump\t// out\n        /* \"FundDistributor.sol\":1272:1430  function amountAvailable(address user) public view returns(uint256) {... */\n    tag_71:\n        /* \"FundDistributor.sol\":1331:1338  uint256 */\n      0x00\n        /* \"FundDistributor.sol\":1391:1403  participants */\n      0x03\n        /* \"FundDistributor.sol\":1391:1409  participants[user] */\n      0x00\n        /* \"FundDistributor.sol\":1404:1408  user */\n      dup4\n        /* \"FundDistributor.sol\":1391:1409  participants[user] */\n      0xffffffffffffffffffffffffffffffffffffffff\n      and\n      0xffffffffffffffffffffffffffffffffffffffff\n      and\n      dup2\n      mstore\n      0x20\n      add\n      swap1\n      dup2\n      mstore\n      0x20\n      add\n      0x00\n      keccak256\n        /* \"FundDistributor.sol\":1391:1423  participants[user].currentlyOwed */\n      0x01\n      add\n      sload\n        /* \"FundDistributor.sol\":1357:1369  participants */\n      0x03\n        /* \"FundDistributor.sol\":1357:1375  participants[user] */\n      0x00\n        /* \"FundDistributor.sol\":1370:1374  user */\n      dup5\n        /* \"FundDistributor.sol\":1357:1375  participants[user] */\n      0xffffffffffffffffffffffffffffffffffffffff\n      and\n      0xffffffffffffffffffffffffffffffffffffffff\n      and\n      dup2\n      mstore\n      0x20\n      add\n      swap1\n      dup2\n      mstore\n      0x20\n      add\n      0x00\n      keccak256\n        /* \"FundDistributor.sol\":1357:1388  participants[user].currentLimit */\n      0x00\n      add\n      sload\n        /* \"FundDistributor.sol\":1357:1423  participants[user].currentLimit - participants[user].currentlyOwed */\n      tag_178\n      swap2\n      swap1\n      tag_117\n      jump\t// in\n    tag_178:\n        /* \"FundDistributor.sol\":1350:1423  return participants[user].currentLimit - participants[user].currentlyOwed */\n      swap1\n      pop\n        /* \"FundDistributor.sol\":1272:1430  function amountAvailable(address user) public view returns(uint256) {... */\n      swap2\n      swap1\n      pop\n      jump\t// out\n        /* \"@openzeppelin/contracts/access/AccessControl.sol\":2027:2076  bytes32 public constant DEFAULT_ADMIN_ROLE = 0x00 */\n    tag_76:\n        /* \"@openzeppelin/contracts/access/AccessControl.sol\":2072:2076  0x00 */\n      0x00\n        /* \"@openzeppelin/contracts/access/AccessControl.sol\":2027:2076  bytes32 public constant DEFAULT_ADMIN_ROLE = 0x00 */\n      dup1\n      shl\n      dup2\n      jump\t// out\n        /* \"FundDistributor.sol\":1142:1266  function hasParticipant(address user) public view returns(bool) {... */\n    tag_81:\n        /* \"FundDistributor.sol\":1200:1204  bool */\n      0x00\n        /* \"FundDistributor.sol\":1258:1259  0 */\n      dup1\n        /* \"FundDistributor.sol\":1223:1235  participants */\n      0x03\n        /* \"FundDistributor.sol\":1223:1241  participants[user] */\n      0x00\n        /* \"FundDistributor.sol\":1236:1240  user */\n      dup5\n        /* \"FundDistributor.sol\":1223:1241  participants[user] */\n      0xffffffffffffffffffffffffffffffffffffffff\n      and\n      0xffffffffffffffffffffffffffffffffffffffff\n      and\n      dup2\n      mstore\n      0x20\n      add\n      swap1\n      dup2\n      mstore\n      0x20\n      add\n      0x00\n      keccak256\n        /* \"FundDistributor.sol\":1223:1254  participants[user].currentLimit */\n      0x00\n      add\n      sload\n        /* \"FundDistributor.sol\":1223:1259  participants[user].currentLimit != 0 */\n      eq\n      iszero\n        /* \"FundDistributor.sol\":1216:1259  return participants[user].currentLimit != 0 */\n      swap1\n      pop\n        /* \"FundDistributor.sol\":1142:1266  function hasParticipant(address user) public view returns(bool) {... */\n      swap2\n      swap1\n      pop\n      jump\t// out\n        /* \"@openzeppelin/contracts/access/AccessControl.sol\":5241:5388  function revokeRole(bytes32 role, address account) public virtual override onlyRole(getRoleAdmin(role)) {... */\n    tag_86:\n        /* \"@openzeppelin/contracts/access/AccessControl.sol\":5325:5343  getRoleAdmin(role) */\n      tag_180\n        /* \"@openzeppelin/contracts/access/AccessControl.sol\":5338:5342  role */\n      dup3\n        /* \"@openzeppelin/contracts/access/AccessControl.sol\":5325:5337  getRoleAdmin */\n      tag_38\n        /* \"@openzeppelin/contracts/access/AccessControl.sol\":5325:5343  getRoleAdmin(role) */\n      jump\t// in\n    tag_180:\n        /* \"@openzeppelin/contracts/access/AccessControl.sol\":2505:2521  _checkRole(role) */\n      tag_182\n        /* \"@openzeppelin/contracts/access/AccessControl.sol\":2516:2520  role */\n      dup2\n        /* \"@openzeppelin/contracts/access/AccessControl.sol\":2505:2515  _checkRole */\n      tag_137\n        /* \"@openzeppelin/contracts/access/AccessControl.sol\":2505:2521  _checkRole(role) */\n      jump\t// in\n    tag_182:\n        /* \"@openzeppelin/contracts/access/AccessControl.sol\":5355:5381  _revokeRole(role, account) */\n      tag_184\n        /* \"@openzeppelin/contracts/access/AccessControl.sol\":5367:5371  role */\n      dup4\n        /* \"@openzeppelin/contracts/access/AccessControl.sol\":5373:5380  account */\n      dup4\n        /* \"@openzeppelin/contracts/access/AccessControl.sol\":5355:5366  _revokeRole */\n      tag_148\n        /* \"@openzeppelin/contracts/access/AccessControl.sol\":5355:5381  _revokeRole(role, account) */\n      jump\t// in\n    tag_184:\n        /* \"@openzeppelin/contracts/access/AccessControl.sol\":5241:5388  function revokeRole(bytes32 role, address account) public virtual override onlyRole(getRoleAdmin(role)) {... */\n      pop\n      pop\n      pop\n      jump\t// out\n        /* \"FundDistributor.sol\":650:1136  function addAdress(address user) external payable {... */\n    tag_89:\n        /* \"FundDistributor.sol\":718:757  hasRole(DEFAULT_ADMIN_ROLE, msg.sender) */\n      tag_186\n        /* \"@openzeppelin/contracts/access/AccessControl.sol\":2072:2076  0x00 */\n      0x00\n        /* \"FundDistributor.sol\":726:744  DEFAULT_ADMIN_ROLE */\n      dup1\n      shl\n        /* \"FundDistributor.sol\":746:756  msg.sender */\n      caller\n        /* \"FundDistributor.sol\":718:725  hasRole */\n      tag_66\n        /* \"FundDistributor.sol\":718:757  hasRole(DEFAULT_ADMIN_ROLE, msg.sender) */\n      jump\t// in\n    tag_186:\n        /* \"FundDistributor.sol\":710:789  require(hasRole(DEFAULT_ADMIN_ROLE, msg.sender), \"caller is not administrator\") */\n      tag_187\n      jumpi\n      mload(0x40)\n      0x08c379a000000000000000000000000000000000000000000000000000000000\n      dup2\n      mstore\n      0x04\n      add\n      tag_188\n      swap1\n      tag_170\n      jump\t// in\n    tag_188:\n      mload(0x40)\n      dup1\n      swap2\n      sub\n      swap1\n      revert\n    tag_187:\n        /* \"FundDistributor.sol\":801:815  bool isSuccess */\n      0x00\n        /* \"FundDistributor.sol\":821:825  user */\n      dup2\n        /* \"FundDistributor.sol\":821:830  user.call */\n      0xffffffffffffffffffffffffffffffffffffffff\n      and\n        /* \"FundDistributor.sol\":838:847  msg.value */\n      callvalue\n        /* \"FundDistributor.sol\":821:852  user.call{value: msg.value}(\"\") */\n      mload(0x40)\n      tag_189\n      swap1\n      tag_190\n      jump\t// in\n    tag_189:\n      0x00\n      mload(0x40)\n      dup1\n      dup4\n      sub\n      dup2\n      dup6\n      dup8\n      gas\n      call\n      swap3\n      pop\n      pop\n      pop\n      returndatasize\n      dup1\n      0x00\n      dup2\n      eq\n      tag_193\n      jumpi\n      mload(0x40)\n      swap2\n      pop\n      and(add(returndatasize, 0x3f), not(0x1f))\n      dup3\n      add\n      0x40\n      mstore\n      returndatasize\n      dup3\n      mstore\n      returndatasize\n      0x00\n      0x20\n      dup5\n      add\n      returndatacopy\n      jump(tag_192)\n    tag_193:\n      0x60\n      swap2\n      pop\n    tag_192:\n      pop\n        /* \"FundDistributor.sol\":800:852  (bool isSuccess, ) = user.call{value: msg.value}(\"\") */\n      pop\n      swap1\n      pop\n        /* \"FundDistributor.sol\":870:879  isSuccess */\n      dup1\n        /* \"FundDistributor.sol\":862:918  require(isSuccess, \"failed to transfer gas to the user\") */\n      tag_194\n      jumpi\n      mload(0x40)\n      0x08c379a000000000000000000000000000000000000000000000000000000000\n      dup2\n      mstore\n      0x04\n      add\n      tag_195\n      swap1\n      tag_196\n      jump\t// in\n    tag_195:\n      mload(0x40)\n      dup1\n      swap2\n      sub\n      swap1\n      revert\n    tag_194:\n        /* \"FundDistributor.sol\":950:1091  Participant({... */\n      mload(0x40)\n      dup1\n      0x60\n      add\n      0x40\n      mstore\n      dup1\n        /* \"FundDistributor.sol\":1072:1080  maxLimit */\n      sload(0x02)\n        /* \"FundDistributor.sol\":950:1091  Participant({... */\n      dup2\n      mstore\n      0x20\n      add\n        /* \"FundDistributor.sol\":1043:1044  0 */\n      0x00\n        /* \"FundDistributor.sol\":950:1091  Participant({... */\n      dup2\n      mstore\n      0x20\n      add\n        /* \"FundDistributor.sol\":1002:1014  block.number */\n      number\n        /* \"FundDistributor.sol\":950:1091  Participant({... */\n      dup2\n      mstore\n      pop\n        /* \"FundDistributor.sol\":929:941  participants */\n      0x03\n        /* \"FundDistributor.sol\":929:947  participants[user] */\n      0x00\n        /* \"FundDistributor.sol\":942:946  user */\n      dup5\n        /* \"FundDistributor.sol\":929:947  participants[user] */\n      0xffffffffffffffffffffffffffffffffffffffff\n      and\n      0xffffffffffffffffffffffffffffffffffffffff\n      and\n      dup2\n      mstore\n      0x20\n      add\n      swap1\n      dup2\n      mstore\n      0x20\n      add\n      0x00\n      keccak256\n        /* \"FundDistributor.sol\":929:1091  participants[user] = Participant({... */\n      0x00\n      dup3\n      add\n      mload\n      dup2\n      0x00\n      add\n      sstore\n      0x20\n      dup3\n      add\n      mload\n      dup2\n      0x01\n      add\n      sstore\n      0x40\n      dup3\n      add\n      mload\n      dup2\n      0x02\n      add\n      sstore\n      swap1\n      pop\n      pop\n        /* \"FundDistributor.sol\":1107:1129  UserHasBeenAdded(user) */\n      0xb40223cb2fd2f5f68c1edc600b630cde6097946002f42d44bbc15560739e1e3d\n        /* \"FundDistributor.sol\":1124:1128  user */\n      dup3\n        /* \"FundDistributor.sol\":1107:1129  UserHasBeenAdded(user) */\n      mload(0x40)\n      tag_197\n      swap2\n      swap1\n      tag_94\n      jump\t// in\n    tag_197:\n      mload(0x40)\n      dup1\n      swap2\n      sub\n      swap1\n      log1\n        /* \"FundDistributor.sol\":700:1136  {... */\n      pop\n        /* \"FundDistributor.sol\":650:1136  function addAdress(address user) external payable {... */\n      pop\n      jump\t// out\n        /* \"FundDistributor.sol\":230:250  address public token */\n    tag_92:\n      0x01\n      0x00\n      swap1\n      sload\n      swap1\n      0x0100\n      exp\n      swap1\n      div\n      0xffffffffffffffffffffffffffffffffffffffff\n      and\n      dup2\n      jump\t// out\n        /* \"@openzeppelin/contracts/utils/introspection/ERC165.sol\":829:984  function supportsInterface(bytes4 interfaceId) public view virtual override returns (bool) {... */\n    tag_98:\n        /* \"@openzeppelin/contracts/utils/introspection/ERC165.sol\":914:918  bool */\n      0x00\n        /* \"@openzeppelin/contracts/utils/introspection/ERC165.sol\":952:977  type(IERC165).interfaceId */\n      0x01ffc9a700000000000000000000000000000000000000000000000000000000\n        /* \"@openzeppelin/contracts/utils/introspection/ERC165.sol\":937:977  interfaceId == type(IERC165).interfaceId */\n      not(0xffffffffffffffffffffffffffffffffffffffffffffffffffffffff)\n      and\n        /* \"@openzeppelin/contracts/utils/introspection/ERC165.sol\":937:948  interfaceId */\n      dup3\n        /* \"@openzeppelin/contracts/utils/introspection/ERC165.sol\":937:977  interfaceId == type(IERC165).interfaceId */\n      not(0xffffffffffffffffffffffffffffffffffffffffffffffffffffffff)\n      and\n      eq\n        /* \"@openzeppelin/contracts/utils/introspection/ERC165.sol\":930:977  return interfaceId == type(IERC165).interfaceId */\n      swap1\n      pop\n        /* \"@openzeppelin/contracts/utils/introspection/ERC165.sol\":829:984  function supportsInterface(bytes4 interfaceId) public view virtual override returns (bool) {... */\n      swap2\n      swap1\n      pop\n      jump\t// out\n        /* \"@openzeppelin/contracts/access/AccessControl.sol\":3334:3437  function _checkRole(bytes32 role) internal view virtual {... */\n    tag_137:\n        /* \"@openzeppelin/contracts/access/AccessControl.sol\":3400:3430  _checkRole(role, _msgSender()) */\n      tag_200\n        /* \"@openzeppelin/contracts/access/AccessControl.sol\":3411:3415  role */\n      dup2\n        /* \"@openzeppelin/contracts/access/AccessControl.sol\":3417:3429  _msgSender() */\n      tag_201\n        /* \"@openzeppelin/contracts/access/AccessControl.sol\":3417:3427  _msgSender */\n      tag_143\n        /* \"@openzeppelin/contracts/access/AccessControl.sol\":3417:3429  _msgSender() */\n      jump\t// in\n    tag_201:\n        /* \"@openzeppelin/contracts/access/AccessControl.sol\":3400:3410  _checkRole */\n      tag_202\n        /* \"@openzeppelin/contracts/access/AccessControl.sol\":3400:3430  _checkRole(role, _msgSender()) */\n      jump\t// in\n    tag_200:\n        /* \"@openzeppelin/contracts/access/AccessControl.sol\":3334:3437  function _checkRole(bytes32 role) internal view virtual {... */\n      pop\n      jump\t// out\n        /* \"@openzeppelin/contracts/access/AccessControl.sol\":7474:7707  function _grantRole(bytes32 role, address account) internal virtual {... */\n    tag_140:\n        /* \"@openzeppelin/contracts/access/AccessControl.sol\":7557:7579  hasRole(role, account) */\n      tag_204\n        /* \"@openzeppelin/contracts/access/AccessControl.sol\":7565:7569  role */\n      dup3\n        /* \"@openzeppelin/contracts/access/AccessControl.sol\":7571:7578  account */\n      dup3\n        /* \"@openzeppelin/contracts/access/AccessControl.sol\":7557:7564  hasRole */\n      tag_66\n        /* \"@openzeppelin/contracts/access/AccessControl.sol\":7557:7579  hasRole(role, account) */\n      jump\t// in\n    tag_204:\n        /* \"@openzeppelin/contracts/access/AccessControl.sol\":7552:7701  if (!hasRole(role, account)) {... */\n      tag_205\n      jumpi\n        /* \"@openzeppelin/contracts/access/AccessControl.sol\":7627:7631  true */\n      0x01\n        /* \"@openzeppelin/contracts/access/AccessControl.sol\":7595:7601  _roles */\n      0x00\n        /* \"@openzeppelin/contracts/access/AccessControl.sol\":7595:7607  _roles[role] */\n      dup1\n        /* \"@openzeppelin/contracts/access/AccessControl.sol\":7602:7606  role */\n      dup5\n        /* \"@openzeppelin/contracts/access/AccessControl.sol\":7595:7607  _roles[role] */\n      dup2\n      mstore\n      0x20\n      add\n      swap1\n      dup2\n      mstore\n      0x20\n      add\n      0x00\n      keccak256\n        /* \"@openzeppelin/contracts/access/AccessControl.sol\":7595:7615  _roles[role].members */\n      0x00\n      add\n        /* \"@openzeppelin/contracts/access/AccessControl.sol\":7595:7624  _roles[role].members[account] */\n      0x00\n        /* \"@openzeppelin/contracts/access/AccessControl.sol\":7616:7623  account */\n      dup4\n        /* \"@openzeppelin/contracts/access/AccessControl.sol\":7595:7624  _roles[role].members[account] */\n      0xffffffffffffffffffffffffffffffffffffffff\n      and\n      0xffffffffffffffffffffffffffffffffffffffff\n      and\n      dup2\n      mstore\n      0x20\n      add\n      swap1\n      dup2\n      mstore\n      0x20\n      add\n      0x00\n      keccak256\n      0x00\n        /* \"@openzeppelin/contracts/access/AccessControl.sol\":7595:7631  _roles[role].members[account] = true */\n      0x0100\n      exp\n      dup2\n      sload\n      dup2\n      0xff\n      mul\n      not\n      and\n      swap1\n      dup4\n      iszero\n      iszero\n      mul\n      or\n      swap1\n      sstore\n      pop\n        /* \"@openzeppelin/contracts/access/AccessControl.sol\":7677:7689  _msgSender() */\n      tag_206\n        /* \"@openzeppelin/contracts/access/AccessControl.sol\":7677:7687  _msgSender */\n      tag_143\n        /* \"@openzeppelin/contracts/access/AccessControl.sol\":7677:7689  _msgSender() */\n      jump\t// in\n    tag_206:\n        /* \"@openzeppelin/contracts/access/AccessControl.sol\":7650:7690  RoleGranted(role, account, _msgSender()) */\n      0xffffffffffffffffffffffffffffffffffffffff\n      and\n        /* \"@openzeppelin/contracts/access/AccessControl.sol\":7668:7675  account */\n      dup2\n        /* \"@openzeppelin/contracts/access/AccessControl.sol\":7650:7690  RoleGranted(role, account, _msgSender()) */\n      0xffffffffffffffffffffffffffffffffffffffff\n      and\n        /* \"@openzeppelin/contracts/access/AccessControl.sol\":7662:7666  role */\n      dup4\n        /* \"@openzeppelin/contracts/access/AccessControl.sol\":7650:7690  RoleGranted(role, account, _msgSender()) */\n      0x2f8788117e7eff1d82e926ec794901d17c78024a50270940304540a733656f0d\n      mload(0x40)\n      mload(0x40)\n      dup1\n      swap2\n      sub\n      swap1\n      log4\n        /* \"@openzeppelin/contracts/access/AccessControl.sol\":7552:7701  if (!hasRole(role, account)) {... */\n    tag_205:\n        /* \"@openzeppelin/contracts/access/AccessControl.sol\":7474:7707  function _grantRole(bytes32 role, address account) internal virtual {... */\n      pop\n      pop\n      jump\t// out\n        /* \"@openzeppelin/contracts/utils/Context.sol\":640:736  function _msgSender() internal view virtual returns (address) {... */\n    tag_143:\n        /* \"@openzeppelin/contracts/utils/Context.sol\":693:700  address */\n      0x00\n        /* \"@openzeppelin/contracts/utils/Context.sol\":719:729  msg.sender */\n      caller\n        /* \"@openzeppelin/contracts/utils/Context.sol\":712:729  return msg.sender */\n      swap1\n      pop\n        /* \"@openzeppelin/contracts/utils/Context.sol\":640:736  function _msgSender() internal view virtual returns (address) {... */\n      swap1\n      jump\t// out\n        /* \"@openzeppelin/contracts/access/AccessControl.sol\":7878:8112  function _revokeRole(bytes32 role, address account) internal virtual {... */\n    tag_148:\n        /* \"@openzeppelin/contracts/access/AccessControl.sol\":7961:7983  hasRole(role, account) */\n      tag_209\n        /* \"@openzeppelin/contracts/access/AccessControl.sol\":7969:7973  role */\n      dup3\n        /* \"@openzeppelin/contracts/access/AccessControl.sol\":7975:7982  account */\n      dup3\n        /* \"@openzeppelin/contracts/access/AccessControl.sol\":7961:7968  hasRole */\n      tag_66\n        /* \"@openzeppelin/contracts/access/AccessControl.sol\":7961:7983  hasRole(role, account) */\n      jump\t// in\n    tag_209:\n        /* \"@openzeppelin/contracts/access/AccessControl.sol\":7957:8106  if (hasRole(role, account)) {... */\n      iszero\n      tag_210\n      jumpi\n        /* \"@openzeppelin/contracts/access/AccessControl.sol\":8031:8036  false */\n      0x00\n        /* \"@openzeppelin/contracts/access/AccessControl.sol\":7999:8005  _roles */\n      dup1\n        /* \"@openzeppelin/contracts/access/AccessControl.sol\":7999:8011  _roles[role] */\n      0x00\n        /* \"@openzeppelin/contracts/access/AccessControl.sol\":8006:8010  role */\n      dup5\n        /* \"@openzeppelin/contracts/access/AccessControl.sol\":7999:8011  _roles[role] */\n      dup2\n      mstore\n      0x20\n      add\n      swap1\n      dup2\n      mstore\n      0x20\n      add\n      0x00\n      keccak256\n        /* \"@openzeppelin/contracts/access/AccessControl.sol\":7999:8019  _roles[role].members */\n      0x00\n      add\n        /* \"@openzeppelin/contracts/access/AccessControl.sol\":7999:8028  _roles[role].members[account] */\n      0x00\n        /* \"@openzeppelin/contracts/access/AccessControl.sol\":8020:8027  account */\n      dup4\n        /* \"@openzeppelin/contracts/access/AccessControl.sol\":7999:8028  _roles[role].members[account] */\n      0xffffffffffffffffffffffffffffffffffffffff\n      and\n      0xffffffffffffffffffffffffffffffffffffffff\n      and\n      dup2\n      mstore\n      0x20\n      add\n      swap1\n      dup2\n      mstore\n      0x20\n      add\n      0x00\n      keccak256\n      0x00\n        /* \"@openzeppelin/contracts/access/AccessControl.sol\":7999:8036  _roles[role].members[account] = false */\n      0x0100\n      exp\n      dup2\n      sload\n      dup2\n      0xff\n      mul\n      not\n      and\n      swap1\n      dup4\n      iszero\n      iszero\n      mul\n      or\n      swap1\n      sstore\n      pop\n        /* \"@openzeppelin/contracts/access/AccessControl.sol\":8082:8094  _msgSender() */\n      tag_211\n        /* \"@openzeppelin/contracts/access/AccessControl.sol\":8082:8092  _msgSender */\n      tag_143\n        /* \"@openzeppelin/contracts/access/AccessControl.sol\":8082:8094  _msgSender() */\n      jump\t// in\n    tag_211:\n        /* \"@openzeppelin/contracts/access/AccessControl.sol\":8055:8095  RoleRevoked(role, account, _msgSender()) */\n      0xffffffffffffffffffffffffffffffffffffffff\n      and\n        /* \"@openzeppelin/contracts/access/AccessControl.sol\":8073:8080  account */\n      dup2\n        /* \"@openzeppelin/contracts/access/AccessControl.sol\":8055:8095  RoleRevoked(role, account, _msgSender()) */\n      0xffffffffffffffffffffffffffffffffffffffff\n      and\n        /* \"@openzeppelin/contracts/access/AccessControl.sol\":8067:8071  role */\n      dup4\n        /* \"@openzeppelin/contracts/access/AccessControl.sol\":8055:8095  RoleRevoked(role, account, _msgSender()) */\n      0xf6391f5c32d9c69d2a47ea670b442974b53935d1edc7fd64eb21e047a839171b\n      mload(0x40)\n      mload(0x40)\n      dup1\n      swap2\n      sub\n      swap1\n      log4\n        /* \"@openzeppelin/contracts/access/AccessControl.sol\":7957:8106  if (hasRole(role, account)) {... */\n    tag_210:\n        /* \"@openzeppelin/contracts/access/AccessControl.sol\":7878:8112  function _revokeRole(bytes32 role, address account) internal virtual {... */\n      pop\n      pop\n      jump\t// out\n        /* \"@openzeppelin/contracts/access/AccessControl.sol\":3718:4210  function _checkRole(bytes32 role, address account) internal view virtual {... */\n    tag_202:\n        /* \"@openzeppelin/contracts/access/AccessControl.sol\":3806:3828  hasRole(role, account) */\n      tag_213\n        /* \"@openzeppelin/contracts/access/AccessControl.sol\":3814:3818  role */\n      dup3\n        /* \"@openzeppelin/contracts/access/AccessControl.sol\":3820:3827  account */\n      dup3\n        /* \"@openzeppelin/contracts/access/AccessControl.sol\":3806:3813  hasRole */\n      tag_66\n        /* \"@openzeppelin/contracts/access/AccessControl.sol\":3806:3828  hasRole(role, account) */\n      jump\t// in\n    tag_213:\n        /* \"@openzeppelin/contracts/access/AccessControl.sol\":3801:4204  if (!hasRole(role, account)) {... */\n      tag_214\n      jumpi\n        /* \"@openzeppelin/contracts/access/AccessControl.sol\":3989:4030  Strings.toHexString(uint160(account), 20) */\n      tag_215\n        /* \"@openzeppelin/contracts/access/AccessControl.sol\":4017:4024  account */\n      dup2\n        /* \"@openzeppelin/contracts/access/AccessControl.sol\":3989:4030  Strings.toHexString(uint160(account), 20) */\n      0xffffffffffffffffffffffffffffffffffffffff\n      and\n        /* \"@openzeppelin/contracts/access/AccessControl.sol\":4027:4029  20 */\n      0x14\n        /* \"@openzeppelin/contracts/access/AccessControl.sol\":3989:4008  Strings.toHexString */\n      tag_216\n        /* \"@openzeppelin/contracts/access/AccessControl.sol\":3989:4030  Strings.toHexString(uint160(account), 20) */\n      jump\t// in\n    tag_215:\n        /* \"@openzeppelin/contracts/access/AccessControl.sol\":4101:4139  Strings.toHexString(uint256(role), 32) */\n      tag_217\n        /* \"@openzeppelin/contracts/access/AccessControl.sol\":4129:4133  role */\n      dup4\n        /* \"@openzeppelin/contracts/access/AccessControl.sol\":4121:4134  uint256(role) */\n      0x00\n      shr\n        /* \"@openzeppelin/contracts/access/AccessControl.sol\":4136:4138  32 */\n      0x20\n        /* \"@openzeppelin/contracts/access/AccessControl.sol\":4101:4120  Strings.toHexString */\n      tag_216\n        /* \"@openzeppelin/contracts/access/AccessControl.sol\":4101:4139  Strings.toHexString(uint256(role), 32) */\n      jump\t// in\n    tag_217:\n        /* \"@openzeppelin/contracts/access/AccessControl.sol\":3896:4161  abi.encodePacked(... */\n      add(0x20, mload(0x40))\n      tag_218\n      swap3\n      swap2\n      swap1\n      tag_219\n      jump\t// in\n    tag_218:\n      mload(0x40)\n      0x20\n      dup2\n      dup4\n      sub\n      sub\n      dup2\n      mstore\n      swap1\n      0x40\n      mstore\n        /* \"@openzeppelin/contracts/access/AccessControl.sol\":3844:4193  revert(... */\n      mload(0x40)\n      0x08c379a000000000000000000000000000000000000000000000000000000000\n      dup2\n      mstore\n      0x04\n      add\n      tag_220\n      swap2\n      swap1\n      tag_221\n      jump\t// in\n    tag_220:\n      mload(0x40)\n      dup1\n      swap2\n      sub\n      swap1\n      revert\n        /* \"@openzeppelin/contracts/access/AccessControl.sol\":3801:4204  if (!hasRole(role, account)) {... */\n    tag_214:\n        /* \"@openzeppelin/contracts/access/AccessControl.sol\":3718:4210  function _checkRole(bytes32 role, address account) internal view virtual {... */\n      pop\n      pop\n      jump\t// out\n        /* \"@openzeppelin/contracts/utils/Strings.sol\":1652:2093  function toHexString(uint256 value, uint256 length) internal pure returns (string memory) {... */\n    tag_216:\n        /* \"@openzeppelin/contracts/utils/Strings.sol\":1727:1740  string memory */\n      0x60\n        /* \"@openzeppelin/contracts/utils/Strings.sol\":1752:1771  bytes memory buffer */\n      0x00\n        /* \"@openzeppelin/contracts/utils/Strings.sol\":1797:1798  2 */\n      0x02\n        /* \"@openzeppelin/contracts/utils/Strings.sol\":1788:1794  length */\n      dup4\n        /* \"@openzeppelin/contracts/utils/Strings.sol\":1784:1785  2 */\n      0x02\n        /* \"@openzeppelin/contracts/utils/Strings.sol\":1784:1794  2 * length */\n      tag_223\n      swap2\n      swap1\n      tag_162\n      jump\t// in\n    tag_223:\n        /* \"@openzeppelin/contracts/utils/Strings.sol\":1784:1798  2 * length + 2 */\n      tag_224\n      swap2\n      swap1\n      tag_131\n      jump\t// in\n    tag_224:\n        /* \"@openzeppelin/contracts/utils/Strings.sol\":1774:1799  new bytes(2 * length + 2) */\n      0xffffffffffffffff\n      dup2\n      gt\n      iszero\n      tag_225\n      jumpi\n      tag_226\n      tag_227\n      jump\t// in\n    tag_226:\n    tag_225:\n      mload(0x40)\n      swap1\n      dup1\n      dup3\n      mstore\n      dup1\n      0x1f\n      add\n      not(0x1f)\n      and\n      0x20\n      add\n      dup3\n      add\n      0x40\n      mstore\n      dup1\n      iszero\n      tag_228\n      jumpi\n      dup2\n      0x20\n      add\n      0x01\n      dup3\n      mul\n      dup1\n      calldatasize\n      dup4\n      calldatacopy\n      dup1\n      dup3\n      add\n      swap2\n      pop\n      pop\n      swap1\n      pop\n    tag_228:\n      pop\n        /* \"@openzeppelin/contracts/utils/Strings.sol\":1752:1799  bytes memory buffer = new bytes(2 * length + 2) */\n      swap1\n      pop\n        /* \"@openzeppelin/contracts/utils/Strings.sol\":1809:1824  buffer[0] = \"0\" */\n      0x3000000000000000000000000000000000000000000000000000000000000000\n        /* \"@openzeppelin/contracts/utils/Strings.sol\":1809:1815  buffer */\n      dup2\n        /* \"@openzeppelin/contracts/utils/Strings.sol\":1816:1817  0 */\n      0x00\n        /* \"@openzeppelin/contracts/utils/Strings.sol\":1809:1818  buffer[0] */\n      dup2\n      mload\n      dup2\n      lt\n      tag_229\n      jumpi\n      tag_230\n      tag_231\n      jump\t// in\n    tag_230:\n    tag_229:\n      0x20\n      add\n      add\n        /* \"@openzeppelin/contracts/utils/Strings.sol\":1809:1824  buffer[0] = \"0\" */\n      swap1\n      not(0xffffffffffffffffffffffffffffffffffffffffffffffffffffffffffffff)\n      and\n      swap1\n      dup2\n      0x00\n      byte\n      swap1\n      mstore8\n      pop\n        /* \"@openzeppelin/contracts/utils/Strings.sol\":1834:1849  buffer[1] = \"x\" */\n      0x7800000000000000000000000000000000000000000000000000000000000000\n        /* \"@openzeppelin/contracts/utils/Strings.sol\":1834:1840  buffer */\n      dup2\n        /* \"@openzeppelin/contracts/utils/Strings.sol\":1841:1842  1 */\n      0x01\n        /* \"@openzeppelin/contracts/utils/Strings.sol\":1834:1843  buffer[1] */\n      dup2\n      mload\n      dup2\n      lt\n      tag_232\n      jumpi\n      tag_233\n      tag_231\n      jump\t// in\n    tag_233:\n    tag_232:\n      0x20\n      add\n      add\n        /* \"@openzeppelin/contracts/utils/Strings.sol\":1834:1849  buffer[1] = \"x\" */\n      swap1\n      not(0xffffffffffffffffffffffffffffffffffffffffffffffffffffffffffffff)\n      and\n      swap1\n      dup2\n      0x00\n      byte\n      swap1\n      mstore8\n      pop\n        /* \"@openzeppelin/contracts/utils/Strings.sol\":1864:1873  uint256 i */\n      0x00\n        /* \"@openzeppelin/contracts/utils/Strings.sol\":1889:1890  1 */\n      0x01\n        /* \"@openzeppelin/contracts/utils/Strings.sol\":1880:1886  length */\n      dup5\n        /* \"@openzeppelin/contracts/utils/Strings.sol\":1876:1877  2 */\n      0x02\n        /* \"@openzeppelin/contracts/utils/Strings.sol\":1876:1886  2 * length */\n      tag_237\n      swap2\n      swap1\n      tag_162\n      jump\t// in\n    tag_237:\n        /* \"@openzeppelin/contracts/utils/Strings.sol\":1876:1890  2 * length + 1 */\n      tag_238\n      swap2\n      swap1\n      tag_131\n      jump\t// in\n    tag_238:\n        /* \"@openzeppelin/contracts/utils/Strings.sol\":1864:1890  uint256 i = 2 * length + 1 */\n      swap1\n      pop\n        /* \"@openzeppelin/contracts/utils/Strings.sol\":1859:1991  for (uint256 i = 2 * length + 1; i > 1; --i) {... */\n    tag_234:\n        /* \"@openzeppelin/contracts/utils/Strings.sol\":1896:1897  1 */\n      0x01\n        /* \"@openzeppelin/contracts/utils/Strings.sol\":1892:1893  i */\n      dup2\n        /* \"@openzeppelin/contracts/utils/Strings.sol\":1892:1897  i > 1 */\n      gt\n        /* \"@openzeppelin/contracts/utils/Strings.sol\":1859:1991  for (uint256 i = 2 * length + 1; i > 1; --i) {... */\n      iszero\n      tag_235\n      jumpi\n        /* \"@openzeppelin/contracts/utils/Strings.sol\":1930:1942  _HEX_SYMBOLS */\n      0x3031323334353637383961626364656600000000000000000000000000000000\n        /* \"@openzeppelin/contracts/utils/Strings.sol\":1951:1954  0xf */\n      0x0f\n        /* \"@openzeppelin/contracts/utils/Strings.sol\":1943:1948  value */\n      dup7\n        /* \"@openzeppelin/contracts/utils/Strings.sol\":1943:1954  value & 0xf */\n      and\n        /* \"@openzeppelin/contracts/utils/Strings.sol\":1930:1955  _HEX_SYMBOLS[value & 0xf] */\n      0x10\n      dup2\n      lt\n      tag_239\n      jumpi\n      tag_240\n      tag_231\n      jump\t// in\n    tag_240:\n    tag_239:\n      byte\n      0xf8\n      shl\n        /* \"@openzeppelin/contracts/utils/Strings.sol\":1918:1924  buffer */\n      dup3\n        /* \"@openzeppelin/contracts/utils/Strings.sol\":1925:1926  i */\n      dup3\n        /* \"@openzeppelin/contracts/utils/Strings.sol\":1918:1927  buffer[i] */\n      dup2\n      mload\n      dup2\n      lt\n      tag_241\n      jumpi\n      tag_242\n      tag_231\n      jump\t// in\n    tag_242:\n    tag_241:\n      0x20\n      add\n      add\n        /* \"@openzeppelin/contracts/utils/Strings.sol\":1918:1955  buffer[i] = _HEX_SYMBOLS[value & 0xf] */\n      swap1\n      not(0xffffffffffffffffffffffffffffffffffffffffffffffffffffffffffffff)\n      and\n      swap1\n      dup2\n      0x00\n      byte\n      swap1\n      mstore8\n      pop\n        /* \"@openzeppelin/contracts/utils/Strings.sol\":1979:1980  4 */\n      0x04\n        /* \"@openzeppelin/contracts/utils/Strings.sol\":1969:1980  value >>= 4 */\n      dup6\n      swap1\n      shr\n      swap5\n      pop\n        /* \"@openzeppelin/contracts/utils/Strings.sol\":1899:1902  --i */\n      dup1\n      tag_243\n      swap1\n      tag_244\n      jump\t// in\n    tag_243:\n      swap1\n      pop\n        /* \"@openzeppelin/contracts/utils/Strings.sol\":1859:1991  for (uint256 i = 2 * length + 1; i > 1; --i) {... */\n      jump(tag_234)\n    tag_235:\n      pop\n        /* \"@openzeppelin/contracts/utils/Strings.sol\":2017:2018  0 */\n      0x00\n        /* \"@openzeppelin/contracts/utils/Strings.sol\":2008:2013  value */\n      dup5\n        /* \"@openzeppelin/contracts/utils/Strings.sol\":2008:2018  value == 0 */\n      eq\n        /* \"@openzeppelin/contracts/utils/Strings.sol\":2000:2055  require(value == 0, \"Strings: hex length insufficient\") */\n      tag_245\n      jumpi\n      mload(0x40)\n      0x08c379a000000000000000000000000000000000000000000000000000000000\n      dup2\n      mstore\n      0x04\n      add\n      tag_246\n      swap1\n      tag_247\n      jump\t// in\n    tag_246:\n      mload(0x40)\n      dup1\n      swap2\n      sub\n      swap1\n      revert\n    tag_245:\n        /* \"@openzeppelin/contracts/utils/Strings.sol\":2079:2085  buffer */\n      dup1\n        /* \"@openzeppelin/contracts/utils/Strings.sol\":2065:2086  return string(buffer) */\n      swap2\n      pop\n      pop\n        /* \"@openzeppelin/contracts/utils/Strings.sol\":1652:2093  function toHexString(uint256 value, uint256 length) internal pure returns (string memory) {... */\n      swap3\n      swap2\n      pop\n      pop\n      jump\t// out\n        /* \"#utility.yul\":7:146   */\n    tag_249:\n        /* \"#utility.yul\":53:58   */\n      0x00\n        /* \"#utility.yul\":91:97   */\n      dup2\n        /* \"#utility.yul\":78:98   */\n      calldataload\n        /* \"#utility.yul\":69:98   */\n      swap1\n      pop\n        /* \"#utility.yul\":107:140   */\n      tag_251\n        /* \"#utility.yul\":134:139   */\n      dup2\n        /* \"#utility.yul\":107:140   */\n      tag_252\n      jump\t// in\n    tag_251:\n        /* \"#utility.yul\":7:146   */\n      swap3\n      swap2\n      pop\n      pop\n      jump\t// out\n        /* \"#utility.yul\":152:289   */\n    tag_253:\n        /* \"#utility.yul\":206:211   */\n      0x00\n        /* \"#utility.yul\":237:243   */\n      dup2\n        /* \"#utility.yul\":231:244   */\n      mload\n        /* \"#utility.yul\":222:244   */\n      swap1\n      pop\n        /* \"#utility.yul\":253:283   */\n      tag_255\n        /* \"#utility.yul\":277:282   */\n      dup2\n        /* \"#utility.yul\":253:283   */\n      tag_256\n      jump\t// in\n    tag_255:\n        /* \"#utility.yul\":152:289   */\n      swap3\n      swap2\n      pop\n      pop\n      jump\t// out\n        /* \"#utility.yul\":295:434   */\n    tag_257:\n        /* \"#utility.yul\":341:346   */\n      0x00\n        /* \"#utility.yul\":379:385   */\n      dup2\n        /* \"#utility.yul\":366:386   */\n      calldataload\n        /* \"#utility.yul\":357:386   */\n      swap1\n      pop\n        /* \"#utility.yul\":395:428   */\n      tag_259\n        /* \"#utility.yul\":422:427   */\n      dup2\n        /* \"#utility.yul\":395:428   */\n      tag_260\n      jump\t// in\n    tag_259:\n        /* \"#utility.yul\":295:434   */\n      swap3\n      swap2\n      pop\n      pop\n      jump\t// out\n        /* \"#utility.yul\":440:577   */\n    tag_261:\n        /* \"#utility.yul\":485:490   */\n      0x00\n        /* \"#utility.yul\":523:529   */\n      dup2\n        /* \"#utility.yul\":510:530   */\n      calldataload\n        /* \"#utility.yul\":501:530   */\n      swap1\n      pop\n        /* \"#utility.yul\":539:571   */\n      tag_263\n        /* \"#utility.yul\":565:570   */\n      dup2\n        /* \"#utility.yul\":539:571   */\n      tag_264\n      jump\t// in\n    tag_263:\n        /* \"#utility.yul\":440:577   */\n      swap3\n      swap2\n      pop\n      pop\n      jump\t// out\n        /* \"#utility.yul\":583:722   */\n    tag_265:\n        /* \"#utility.yul\":629:634   */\n      0x00\n        /* \"#utility.yul\":667:673   */\n      dup2\n        /* \"#utility.yul\":654:674   */\n      calldataload\n        /* \"#utility.yul\":645:674   */\n      swap1\n      pop\n        /* \"#utility.yul\":683:716   */\n      tag_267\n        /* \"#utility.yul\":710:715   */\n      dup2\n        /* \"#utility.yul\":683:716   */\n      tag_268\n      jump\t// in\n    tag_267:\n        /* \"#utility.yul\":583:722   */\n      swap3\n      swap2\n      pop\n      pop\n      jump\t// out\n        /* \"#utility.yul\":728:871   */\n    tag_269:\n        /* \"#utility.yul\":785:790   */\n      0x00\n        /* \"#utility.yul\":816:822   */\n      dup2\n        /* \"#utility.yul\":810:823   */\n      mload\n        /* \"#utility.yul\":801:823   */\n      swap1\n      pop\n        /* \"#utility.yul\":832:865   */\n      tag_271\n        /* \"#utility.yul\":859:864   */\n      dup2\n        /* \"#utility.yul\":832:865   */\n      tag_268\n      jump\t// in\n    tag_271:\n        /* \"#utility.yul\":728:871   */\n      swap3\n      swap2\n      pop\n      pop\n      jump\t// out\n        /* \"#utility.yul\":877:1206   */\n    tag_30:\n        /* \"#utility.yul\":936:942   */\n      0x00\n        /* \"#utility.yul\":985:987   */\n      0x20\n        /* \"#utility.yul\":973:982   */\n      dup3\n        /* \"#utility.yul\":964:971   */\n      dup5\n        /* \"#utility.yul\":960:983   */\n      sub\n        /* \"#utility.yul\":956:988   */\n      slt\n        /* \"#utility.yul\":953:1072   */\n      iszero\n      tag_273\n      jumpi\n        /* \"#utility.yul\":991:1070   */\n      tag_274\n      tag_275\n      jump\t// in\n    tag_274:\n        /* \"#utility.yul\":953:1072   */\n    tag_273:\n        /* \"#utility.yul\":1111:1112   */\n      0x00\n        /* \"#utility.yul\":1136:1189   */\n      tag_276\n        /* \"#utility.yul\":1181:1188   */\n      dup5\n        /* \"#utility.yul\":1172:1178   */\n      dup3\n        /* \"#utility.yul\":1161:1170   */\n      dup6\n        /* \"#utility.yul\":1157:1179   */\n      add\n        /* \"#utility.yul\":1136:1189   */\n      tag_249\n      jump\t// in\n    tag_276:\n        /* \"#utility.yul\":1126:1189   */\n      swap2\n      pop\n        /* \"#utility.yul\":1082:1199   */\n      pop\n        /* \"#utility.yul\":877:1206   */\n      swap3\n      swap2\n      pop\n      pop\n      jump\t// out\n        /* \"#utility.yul\":1212:1557   */\n    tag_126:\n        /* \"#utility.yul\":1279:1285   */\n      0x00\n        /* \"#utility.yul\":1328:1330   */\n      0x20\n        /* \"#utility.yul\":1316:1325   */\n      dup3\n        /* \"#utility.yul\":1307:1314   */\n      dup5\n        /* \"#utility.yul\":1303:1326   */\n      sub\n        /* \"#utility.yul\":1299:1331   */\n      slt\n        /* \"#utility.yul\":1296:1415   */\n      iszero\n      tag_278\n      jumpi\n        /* \"#utility.yul\":1334:1413   */\n      tag_279\n      tag_275\n      jump\t// in\n    tag_279:\n        /* \"#utility.yul\":1296:1415   */\n    tag_278:\n        /* \"#utility.yul\":1454:1455   */\n      0x00\n        /* \"#utility.yul\":1479:1540   */\n      tag_280\n        /* \"#utility.yul\":1532:1539   */\n      dup5\n        /* \"#utility.yul\":1523:1529   */\n      dup3\n        /* \"#utility.yul\":1512:1521   */\n      dup6\n        /* \"#utility.yul\":1508:1530   */\n      add\n        /* \"#utility.yul\":1479:1540   */\n      tag_253\n      jump\t// in\n    tag_280:\n        /* \"#utility.yul\":1469:1540   */\n      swap2\n      pop\n        /* \"#utility.yul\":1425:1550   */\n      pop\n        /* \"#utility.yul\":1212:1557   */\n      swap3\n      swap2\n      pop\n      pop\n      jump\t// out\n        /* \"#utility.yul\":1563:1892   */\n    tag_37:\n        /* \"#utility.yul\":1622:1628   */\n      0x00\n        /* \"#utility.yul\":1671:1673   */\n      0x20\n        /* \"#utility.yul\":1659:1668   */\n      dup3\n        /* \"#utility.yul\":1650:1657   */\n      dup5\n        /* \"#utility.yul\":1646:1669   */\n      sub\n        /* \"#utility.yul\":1642:1674   */\n      slt\n        /* \"#utility.yul\":1639:1758   */\n      iszero\n      tag_282\n      jumpi\n        /* \"#utility.yul\":1677:1756   */\n      tag_283\n      tag_275\n      jump\t// in\n    tag_283:\n        /* \"#utility.yul\":1639:1758   */\n    tag_282:\n        /* \"#utility.yul\":1797:1798   */\n      0x00\n        /* \"#utility.yul\":1822:1875   */\n      tag_284\n        /* \"#utility.yul\":1867:1874   */\n      dup5\n        /* \"#utility.yul\":1858:1864   */\n      dup3\n        /* \"#utility.yul\":1847:1856   */\n      dup6\n        /* \"#utility.yul\":1843:1865   */\n      add\n        /* \"#utility.yul\":1822:1875   */\n      tag_257\n      jump\t// in\n    tag_284:\n        /* \"#utility.yul\":1812:1875   */\n      swap2\n      pop\n        /* \"#utility.yul\":1768:1885   */\n      pop\n        /* \"#utility.yul\":1563:1892   */\n      swap3\n      swap2\n      pop\n      pop\n      jump\t// out\n        /* \"#utility.yul\":1898:2372   */\n    tag_49:\n        /* \"#utility.yul\":1966:1972   */\n      0x00\n        /* \"#utility.yul\":1974:1980   */\n      dup1\n        /* \"#utility.yul\":2023:2025   */\n      0x40\n        /* \"#utility.yul\":2011:2020   */\n      dup4\n        /* \"#utility.yul\":2002:2009   */\n      dup6\n        /* \"#utility.yul\":1998:2021   */\n      sub\n        /* \"#utility.yul\":1994:2026   */\n      slt\n        /* \"#utility.yul\":1991:2110   */\n      iszero\n      tag_286\n      jumpi\n        /* \"#utility.yul\":2029:2108   */\n      tag_287\n      tag_275\n      jump\t// in\n    tag_287:\n        /* \"#utility.yul\":1991:2110   */\n    tag_286:\n        /* \"#utility.yul\":2149:2150   */\n      0x00\n        /* \"#utility.yul\":2174:2227   */\n      tag_288\n        /* \"#utility.yul\":2219:2226   */\n      dup6\n        /* \"#utility.yul\":2210:2216   */\n      dup3\n        /* \"#utility.yul\":2199:2208   */\n      dup7\n        /* \"#utility.yul\":2195:2217   */\n      add\n        /* \"#utility.yul\":2174:2227   */\n      tag_257\n      jump\t// in\n    tag_288:\n        /* \"#utility.yul\":2164:2227   */\n      swap3\n      pop\n        /* \"#utility.yul\":2120:2237   */\n      pop\n        /* \"#utility.yul\":2276:2278   */\n      0x20\n        /* \"#utility.yul\":2302:2355   */\n      tag_289\n        /* \"#utility.yul\":2347:2354   */\n      dup6\n        /* \"#utility.yul\":2338:2344   */\n      dup3\n        /* \"#utility.yul\":2327:2336   */\n      dup7\n        /* \"#utility.yul\":2323:2345   */\n      add\n        /* \"#utility.yul\":2302:2355   */\n      tag_249\n      jump\t// in\n    tag_289:\n        /* \"#utility.yul\":2292:2355   */\n      swap2\n      pop\n        /* \"#utility.yul\":2247:2365   */\n      pop\n        /* \"#utility.yul\":1898:2372   */\n      swap3\n      pop\n      swap3\n      swap1\n      pop\n      jump\t// out\n        /* \"#utility.yul\":2378:2705   */\n    tag_23:\n        /* \"#utility.yul\":2436:2442   */\n      0x00\n        /* \"#utility.yul\":2485:2487   */\n      0x20\n        /* \"#utility.yul\":2473:2482   */\n      dup3\n        /* \"#utility.yul\":2464:2471   */\n      dup5\n        /* \"#utility.yul\":2460:2483   */\n      sub\n        /* \"#utility.yul\":2456:2488   */\n      slt\n        /* \"#utility.yul\":2453:2572   */\n      iszero\n      tag_291\n      jumpi\n        /* \"#utility.yul\":2491:2570   */\n      tag_292\n      tag_275\n      jump\t// in\n    tag_292:\n        /* \"#utility.yul\":2453:2572   */\n    tag_291:\n        /* \"#utility.yul\":2611:2612   */\n      0x00\n        /* \"#utility.yul\":2636:2688   */\n      tag_293\n        /* \"#utility.yul\":2680:2687   */\n      dup5\n        /* \"#utility.yul\":2671:2677   */\n      dup3\n        /* \"#utility.yul\":2660:2669   */\n      dup6\n        /* \"#utility.yul\":2656:2678   */\n      add\n        /* \"#utility.yul\":2636:2688   */\n      tag_261\n      jump\t// in\n    tag_293:\n        /* \"#utility.yul\":2626:2688   */\n      swap2\n      pop\n        /* \"#utility.yul\":2582:2698   */\n      pop\n        /* \"#utility.yul\":2378:2705   */\n      swap3\n      swap2\n      pop\n      pop\n      jump\t// out\n        /* \"#utility.yul\":2711:3040   */\n    tag_44:\n        /* \"#utility.yul\":2770:2776   */\n      0x00\n        /* \"#utility.yul\":2819:2821   */\n      0x20\n        /* \"#utility.yul\":2807:2816   */\n      dup3\n        /* \"#utility.yul\":2798:2805   */\n      dup5\n        /* \"#utility.yul\":2794:2817   */\n      sub\n        /* \"#utility.yul\":2790:2822   */\n      slt\n        /* \"#utility.yul\":2787:2906   */\n      iszero\n      tag_295\n      jumpi\n        /* \"#utility.yul\":2825:2904   */\n      tag_296\n      tag_275\n      jump\t// in\n    tag_296:\n        /* \"#utility.yul\":2787:2906   */\n    tag_295:\n        /* \"#utility.yul\":2945:2946   */\n      0x00\n        /* \"#utility.yul\":2970:3023   */\n      tag_297\n        /* \"#utility.yul\":3015:3022   */\n      dup5\n        /* \"#utility.yul\":3006:3012   */\n      dup3\n        /* \"#utility.yul\":2995:3004   */\n      dup6\n        /* \"#utility.yul\":2991:3013   */\n      add\n        /* \"#utility.yul\":2970:3023   */\n      tag_265\n      jump\t// in\n    tag_297:\n        /* \"#utility.yul\":2960:3023   */\n      swap2\n      pop\n        /* \"#utility.yul\":2916:3033   */\n      pop\n        /* \"#utility.yul\":2711:3040   */\n      swap3\n      swap2\n      pop\n      pop\n      jump\t// out\n        /* \"#utility.yul\":3046:3397   */\n    tag_106:\n        /* \"#utility.yul\":3116:3122   */\n      0x00\n        /* \"#utility.yul\":3165:3167   */\n      0x20\n        /* \"#utility.yul\":3153:3162   */\n      dup3\n        /* \"#utility.yul\":3144:3151   */\n      dup5\n        /* \"#utility.yul\":3140:3163   */\n      sub\n        /* \"#utility.yul\":3136:3168   */\n      slt\n        /* \"#utility.yul\":3133:3252   */\n      iszero\n      tag_299\n      jumpi\n        /* \"#utility.yul\":3171:3250   */\n      tag_300\n      tag_275\n      jump\t// in\n    tag_300:\n        /* \"#utility.yul\":3133:3252   */\n    tag_299:\n        /* \"#utility.yul\":3291:3292   */\n      0x00\n        /* \"#utility.yul\":3316:3380   */\n      tag_301\n        /* \"#utility.yul\":3372:3379   */\n      dup5\n        /* \"#utility.yul\":3363:3369   */\n      dup3\n        /* \"#utility.yul\":3352:3361   */\n      dup6\n        /* \"#utility.yul\":3348:3370   */\n      add\n        /* \"#utility.yul\":3316:3380   */\n      tag_269\n      jump\t// in\n    tag_301:\n        /* \"#utility.yul\":3306:3380   */\n      swap2\n      pop\n        /* \"#utility.yul\":3262:3390   */\n      pop\n        /* \"#utility.yul\":3046:3397   */\n      swap3\n      swap2\n      pop\n      pop\n      jump\t// out\n        /* \"#utility.yul\":3403:3521   */\n    tag_302:\n        /* \"#utility.yul\":3490:3514   */\n      tag_304\n        /* \"#utility.yul\":3508:3513   */\n      dup2\n        /* \"#utility.yul\":3490:3514   */\n      tag_305\n      jump\t// in\n    tag_304:\n        /* \"#utility.yul\":3485:3488   */\n      dup3\n        /* \"#utility.yul\":3478:3515   */\n      mstore\n        /* \"#utility.yul\":3403:3521   */\n      pop\n      pop\n      jump\t// out\n        /* \"#utility.yul\":3527:3636   */\n    tag_306:\n        /* \"#utility.yul\":3608:3629   */\n      tag_308\n        /* \"#utility.yul\":3623:3628   */\n      dup2\n        /* \"#utility.yul\":3608:3629   */\n      tag_309\n      jump\t// in\n    tag_308:\n        /* \"#utility.yul\":3603:3606   */\n      dup3\n        /* \"#utility.yul\":3596:3630   */\n      mstore\n        /* \"#utility.yul\":3527:3636   */\n      pop\n      pop\n      jump\t// out\n        /* \"#utility.yul\":3642:3760   */\n    tag_310:\n        /* \"#utility.yul\":3729:3753   */\n      tag_312\n        /* \"#utility.yul\":3747:3752   */\n      dup2\n        /* \"#utility.yul\":3729:3753   */\n      tag_313\n      jump\t// in\n    tag_312:\n        /* \"#utility.yul\":3724:3727   */\n      dup3\n        /* \"#utility.yul\":3717:3754   */\n      mstore\n        /* \"#utility.yul\":3642:3760   */\n      pop\n      pop\n      jump\t// out\n        /* \"#utility.yul\":3766:4130   */\n    tag_314:\n        /* \"#utility.yul\":3854:3857   */\n      0x00\n        /* \"#utility.yul\":3882:3921   */\n      tag_316\n        /* \"#utility.yul\":3915:3920   */\n      dup3\n        /* \"#utility.yul\":3882:3921   */\n      tag_317\n      jump\t// in\n    tag_316:\n        /* \"#utility.yul\":3937:4008   */\n      tag_318\n        /* \"#utility.yul\":4001:4007   */\n      dup2\n        /* \"#utility.yul\":3996:3999   */\n      dup6\n        /* \"#utility.yul\":3937:4008   */\n      tag_319\n      jump\t// in\n    tag_318:\n        /* \"#utility.yul\":3930:4008   */\n      swap4\n      pop\n        /* \"#utility.yul\":4017:4069   */\n      tag_320\n        /* \"#utility.yul\":4062:4068   */\n      dup2\n        /* \"#utility.yul\":4057:4060   */\n      dup6\n        /* \"#utility.yul\":4050:4054   */\n      0x20\n        /* \"#utility.yul\":4043:4048   */\n      dup7\n        /* \"#utility.yul\":4039:4055   */\n      add\n        /* \"#utility.yul\":4017:4069   */\n      tag_321\n      jump\t// in\n    tag_320:\n        /* \"#utility.yul\":4094:4123   */\n      tag_322\n        /* \"#utility.yul\":4116:4122   */\n      dup2\n        /* \"#utility.yul\":4094:4123   */\n      tag_323\n      jump\t// in\n    tag_322:\n        /* \"#utility.yul\":4089:4092   */\n      dup5\n        /* \"#utility.yul\":4085:4124   */\n      add\n        /* \"#utility.yul\":4078:4124   */\n      swap2\n      pop\n        /* \"#utility.yul\":3858:4130   */\n      pop\n        /* \"#utility.yul\":3766:4130   */\n      swap3\n      swap2\n      pop\n      pop\n      jump\t// out\n        /* \"#utility.yul\":4136:4513   */\n    tag_324:\n        /* \"#utility.yul\":4242:4245   */\n      0x00\n        /* \"#utility.yul\":4270:4309   */\n      tag_326\n        /* \"#utility.yul\":4303:4308   */\n      dup3\n        /* \"#utility.yul\":4270:4309   */\n      tag_317\n      jump\t// in\n    tag_326:\n        /* \"#utility.yul\":4325:4414   */\n      tag_327\n        /* \"#utility.yul\":4407:4413   */\n      dup2\n        /* \"#utility.yul\":4402:4405   */\n      dup6\n        /* \"#utility.yul\":4325:4414   */\n      tag_328\n      jump\t// in\n    tag_327:\n        /* \"#utility.yul\":4318:4414   */\n      swap4\n      pop\n        /* \"#utility.yul\":4423:4475   */\n      tag_329\n        /* \"#utility.yul\":4468:4474   */\n      dup2\n        /* \"#utility.yul\":4463:4466   */\n      dup6\n        /* \"#utility.yul\":4456:4460   */\n      0x20\n        /* \"#utility.yul\":4449:4454   */\n      dup7\n        /* \"#utility.yul\":4445:4461   */\n      add\n        /* \"#utility.yul\":4423:4475   */\n      tag_321\n      jump\t// in\n    tag_329:\n        /* \"#utility.yul\":4500:4506   */\n      dup1\n        /* \"#utility.yul\":4495:4498   */\n      dup5\n        /* \"#utility.yul\":4491:4507   */\n      add\n        /* \"#utility.yul\":4484:4507   */\n      swap2\n      pop\n        /* \"#utility.yul\":4246:4513   */\n      pop\n        /* \"#utility.yul\":4136:4513   */\n      swap3\n      swap2\n      pop\n      pop\n      jump\t// out\n        /* \"#utility.yul\":4519:4885   */\n    tag_330:\n        /* \"#utility.yul\":4661:4664   */\n      0x00\n        /* \"#utility.yul\":4682:4749   */\n      tag_332\n        /* \"#utility.yul\":4746:4748   */\n      0x28\n        /* \"#utility.yul\":4741:4744   */\n      dup4\n        /* \"#utility.yul\":4682:4749   */\n      tag_319\n      jump\t// in\n    tag_332:\n        /* \"#utility.yul\":4675:4749   */\n      swap2\n      pop\n        /* \"#utility.yul\":4758:4851   */\n      tag_333\n        /* \"#utility.yul\":4847:4850   */\n      dup3\n        /* \"#utility.yul\":4758:4851   */\n      tag_334\n      jump\t// in\n    tag_333:\n        /* \"#utility.yul\":4876:4878   */\n      0x40\n        /* \"#utility.yul\":4871:4874   */\n      dup3\n        /* \"#utility.yul\":4867:4879   */\n      add\n        /* \"#utility.yul\":4860:4879   */\n      swap1\n      pop\n        /* \"#utility.yul\":4519:4885   */\n      swap2\n      swap1\n      pop\n      jump\t// out\n        /* \"#utility.yul\":4891:5257   */\n    tag_335:\n        /* \"#utility.yul\":5033:5036   */\n      0x00\n        /* \"#utility.yul\":5054:5121   */\n      tag_337\n        /* \"#utility.yul\":5118:5120   */\n      0x20\n        /* \"#utility.yul\":5113:5116   */\n      dup4\n        /* \"#utility.yul\":5054:5121   */\n      tag_319\n      jump\t// in\n    tag_337:\n        /* \"#utility.yul\":5047:5121   */\n      swap2\n      pop\n        /* \"#utility.yul\":5130:5223   */\n      tag_338\n        /* \"#utility.yul\":5219:5222   */\n      dup3\n        /* \"#utility.yul\":5130:5223   */\n      tag_339\n      jump\t// in\n    tag_338:\n        /* \"#utility.yul\":5248:5250   */\n      0x20\n        /* \"#utility.yul\":5243:5246   */\n      dup3\n        /* \"#utility.yul\":5239:5251   */\n      add\n        /* \"#utility.yul\":5232:5251   */\n      swap1\n      pop\n        /* \"#utility.yul\":4891:5257   */\n      swap2\n      swap1\n      pop\n      jump\t// out\n        /* \"#utility.yul\":5263:5629   */\n    tag_340:\n        /* \"#utility.yul\":5405:5408   */\n      0x00\n        /* \"#utility.yul\":5426:5493   */\n      tag_342\n        /* \"#utility.yul\":5490:5492   */\n      0x1b\n        /* \"#utility.yul\":5485:5488   */\n      dup4\n        /* \"#utility.yul\":5426:5493   */\n      tag_319\n      jump\t// in\n    tag_342:\n        /* \"#utility.yul\":5419:5493   */\n      swap2\n      pop\n        /* \"#utility.yul\":5502:5595   */\n      tag_343\n        /* \"#utility.yul\":5591:5594   */\n      dup3\n        /* \"#utility.yul\":5502:5595   */\n      tag_344\n      jump\t// in\n    tag_343:\n        /* \"#utility.yul\":5620:5622   */\n      0x20\n        /* \"#utility.yul\":5615:5618   */\n      dup3\n        /* \"#utility.yul\":5611:5623   */\n      add\n        /* \"#utility.yul\":5604:5623   */\n      swap1\n      pop\n        /* \"#utility.yul\":5263:5629   */\n      swap2\n      swap1\n      pop\n      jump\t// out\n        /* \"#utility.yul\":5635:6001   */\n    tag_345:\n        /* \"#utility.yul\":5777:5780   */\n      0x00\n        /* \"#utility.yul\":5798:5865   */\n      tag_347\n        /* \"#utility.yul\":5862:5864   */\n      0x22\n        /* \"#utility.yul\":5857:5860   */\n      dup4\n        /* \"#utility.yul\":5798:5865   */\n      tag_319\n      jump\t// in\n    tag_347:\n        /* \"#utility.yul\":5791:5865   */\n      swap2\n      pop\n        /* \"#utility.yul\":5874:5967   */\n      tag_348\n        /* \"#utility.yul\":5963:5966   */\n      dup3\n        /* \"#utility.yul\":5874:5967   */\n      tag_349\n      jump\t// in\n    tag_348:\n        /* \"#utility.yul\":5992:5994   */\n      0x40\n        /* \"#utility.yul\":5987:5990   */\n      dup3\n        /* \"#utility.yul\":5983:5995   */\n      add\n        /* \"#utility.yul\":5976:5995   */\n      swap1\n      pop\n        /* \"#utility.yul\":5635:6001   */\n      swap2\n      swap1\n      pop\n      jump\t// out\n        /* \"#utility.yul\":6007:6373   */\n    tag_350:\n        /* \"#utility.yul\":6149:6152   */\n      0x00\n        /* \"#utility.yul\":6170:6237   */\n      tag_352\n        /* \"#utility.yul\":6234:6236   */\n      0x1c\n        /* \"#utility.yul\":6229:6232   */\n      dup4\n        /* \"#utility.yul\":6170:6237   */\n      tag_319\n      jump\t// in\n    tag_352:\n        /* \"#utility.yul\":6163:6237   */\n      swap2\n      pop\n        /* \"#utility.yul\":6246:6339   */\n      tag_353\n        /* \"#utility.yul\":6335:6338   */\n      dup3\n        /* \"#utility.yul\":6246:6339   */\n      tag_354\n      jump\t// in\n    tag_353:\n        /* \"#utility.yul\":6364:6366   */\n      0x20\n        /* \"#utility.yul\":6359:6362   */\n      dup3\n        /* \"#utility.yul\":6355:6367   */\n      add\n        /* \"#utility.yul\":6348:6367   */\n      swap1\n      pop\n        /* \"#utility.yul\":6007:6373   */\n      swap2\n      swap1\n      pop\n      jump\t// out\n        /* \"#utility.yul\":6379:6745   */\n    tag_355:\n        /* \"#utility.yul\":6521:6524   */\n      0x00\n        /* \"#utility.yul\":6542:6609   */\n      tag_357\n        /* \"#utility.yul\":6606:6608   */\n      0x0c\n        /* \"#utility.yul\":6601:6604   */\n      dup4\n        /* \"#utility.yul\":6542:6609   */\n      tag_319\n      jump\t// in\n    tag_357:\n        /* \"#utility.yul\":6535:6609   */\n      swap2\n      pop\n        /* \"#utility.yul\":6618:6711   */\n      tag_358\n        /* \"#utility.yul\":6707:6710   */\n      dup3\n        /* \"#utility.yul\":6618:6711   */\n      tag_359\n      jump\t// in\n    tag_358:\n        /* \"#utility.yul\":6736:6738   */\n      0x20\n        /* \"#utility.yul\":6731:6734   */\n      dup3\n        /* \"#utility.yul\":6727:6739   */\n      add\n        /* \"#utility.yul\":6720:6739   */\n      swap1\n      pop\n        /* \"#utility.yul\":6379:6745   */\n      swap2\n      swap1\n      pop\n      jump\t// out\n        /* \"#utility.yul\":6751:7117   */\n    tag_360:\n        /* \"#utility.yul\":6893:6896   */\n      0x00\n        /* \"#utility.yul\":6914:6981   */\n      tag_362\n        /* \"#utility.yul\":6978:6980   */\n      0x2a\n        /* \"#utility.yul\":6973:6976   */\n      dup4\n        /* \"#utility.yul\":6914:6981   */\n      tag_319\n      jump\t// in\n    tag_362:\n        /* \"#utility.yul\":6907:6981   */\n      swap2\n      pop\n        /* \"#utility.yul\":6990:7083   */\n      tag_363\n        /* \"#utility.yul\":7079:7082   */\n      dup3\n        /* \"#utility.yul\":6990:7083   */\n      tag_364\n      jump\t// in\n    tag_363:\n        /* \"#utility.yul\":7108:7110   */\n      0x40\n        /* \"#utility.yul\":7103:7106   */\n      dup3\n        /* \"#utility.yul\":7099:7111   */\n      add\n        /* \"#utility.yul\":7092:7111   */\n      swap1\n      pop\n        /* \"#utility.yul\":6751:7117   */\n      swap2\n      swap1\n      pop\n      jump\t// out\n        /* \"#utility.yul\":7123:7521   */\n    tag_365:\n        /* \"#utility.yul\":7282:7285   */\n      0x00\n        /* \"#utility.yul\":7303:7386   */\n      tag_367\n        /* \"#utility.yul\":7384:7385   */\n      0x00\n        /* \"#utility.yul\":7379:7382   */\n      dup4\n        /* \"#utility.yul\":7303:7386   */\n      tag_368\n      jump\t// in\n    tag_367:\n        /* \"#utility.yul\":7296:7386   */\n      swap2\n      pop\n        /* \"#utility.yul\":7395:7488   */\n      tag_369\n        /* \"#utility.yul\":7484:7487   */\n      dup3\n        /* \"#utility.yul\":7395:7488   */\n      tag_370\n      jump\t// in\n    tag_369:\n        /* \"#utility.yul\":7513:7514   */\n      0x00\n        /* \"#utility.yul\":7508:7511   */\n      dup3\n        /* \"#utility.yul\":7504:7515   */\n      add\n        /* \"#utility.yul\":7497:7515   */\n      swap1\n      pop\n        /* \"#utility.yul\":7123:7521   */\n      swap2\n      swap1\n      pop\n      jump\t// out\n        /* \"#utility.yul\":7527:7929   */\n    tag_371:\n        /* \"#utility.yul\":7687:7690   */\n      0x00\n        /* \"#utility.yul\":7708:7793   */\n      tag_373\n        /* \"#utility.yul\":7790:7792   */\n      0x17\n        /* \"#utility.yul\":7785:7788   */\n      dup4\n        /* \"#utility.yul\":7708:7793   */\n      tag_328\n      jump\t// in\n    tag_373:\n        /* \"#utility.yul\":7701:7793   */\n      swap2\n      pop\n        /* \"#utility.yul\":7802:7895   */\n      tag_374\n        /* \"#utility.yul\":7891:7894   */\n      dup3\n        /* \"#utility.yul\":7802:7895   */\n      tag_375\n      jump\t// in\n    tag_374:\n        /* \"#utility.yul\":7920:7922   */\n      0x17\n        /* \"#utility.yul\":7915:7918   */\n      dup3\n        /* \"#utility.yul\":7911:7923   */\n      add\n        /* \"#utility.yul\":7904:7923   */\n      swap1\n      pop\n        /* \"#utility.yul\":7527:7929   */\n      swap2\n      swap1\n      pop\n      jump\t// out\n        /* \"#utility.yul\":7935:8301   */\n    tag_376:\n        /* \"#utility.yul\":8077:8080   */\n      0x00\n        /* \"#utility.yul\":8098:8165   */\n      tag_378\n        /* \"#utility.yul\":8162:8164   */\n      0x0f\n        /* \"#utility.yul\":8157:8160   */\n      dup4\n        /* \"#utility.yul\":8098:8165   */\n      tag_319\n      jump\t// in\n    tag_378:\n        /* \"#utility.yul\":8091:8165   */\n      swap2\n      pop\n        /* \"#utility.yul\":8174:8267   */\n      tag_379\n        /* \"#utility.yul\":8263:8266   */\n      dup3\n        /* \"#utility.yul\":8174:8267   */\n      tag_380\n      jump\t// in\n    tag_379:\n        /* \"#utility.yul\":8292:8294   */\n      0x20\n        /* \"#utility.yul\":8287:8290   */\n      dup3\n        /* \"#utility.yul\":8283:8295   */\n      add\n        /* \"#utility.yul\":8276:8295   */\n      swap1\n      pop\n        /* \"#utility.yul\":7935:8301   */\n      swap2\n      swap1\n      pop\n      jump\t// out\n        /* \"#utility.yul\":8307:8709   */\n    tag_381:\n        /* \"#utility.yul\":8467:8470   */\n      0x00\n        /* \"#utility.yul\":8488:8573   */\n      tag_383\n        /* \"#utility.yul\":8570:8572   */\n      0x11\n        /* \"#utility.yul\":8565:8568   */\n      dup4\n        /* \"#utility.yul\":8488:8573   */\n      tag_328\n      jump\t// in\n    tag_383:\n        /* \"#utility.yul\":8481:8573   */\n      swap2\n      pop\n        /* \"#utility.yul\":8582:8675   */\n      tag_384\n        /* \"#utility.yul\":8671:8674   */\n      dup3\n        /* \"#utility.yul\":8582:8675   */\n      tag_385\n      jump\t// in\n    tag_384:\n        /* \"#utility.yul\":8700:8702   */\n      0x11\n        /* \"#utility.yul\":8695:8698   */\n      dup3\n        /* \"#utility.yul\":8691:8703   */\n      add\n        /* \"#utility.yul\":8684:8703   */\n      swap1\n      pop\n        /* \"#utility.yul\":8307:8709   */\n      swap2\n      swap1\n      pop\n      jump\t// out\n        /* \"#utility.yul\":8715:9081   */\n    tag_386:\n        /* \"#utility.yul\":8857:8860   */\n      0x00\n        /* \"#utility.yul\":8878:8945   */\n      tag_388\n        /* \"#utility.yul\":8942:8944   */\n      0x2f\n        /* \"#utility.yul\":8937:8940   */\n      dup4\n        /* \"#utility.yul\":8878:8945   */\n      tag_319\n      jump\t// in\n    tag_388:\n        /* \"#utility.yul\":8871:8945   */\n      swap2\n      pop\n        /* \"#utility.yul\":8954:9047   */\n      tag_389\n        /* \"#utility.yul\":9043:9046   */\n      dup3\n        /* \"#utility.yul\":8954:9047   */\n      tag_390\n      jump\t// in\n    tag_389:\n        /* \"#utility.yul\":9072:9074   */\n      0x40\n        /* \"#utility.yul\":9067:9070   */\n      dup3\n        /* \"#utility.yul\":9063:9075   */\n      add\n        /* \"#utility.yul\":9056:9075   */\n      swap1\n      pop\n        /* \"#utility.yul\":8715:9081   */\n      swap2\n      swap1\n      pop\n      jump\t// out\n        /* \"#utility.yul\":9087:9205   */\n    tag_391:\n        /* \"#utility.yul\":9174:9198   */\n      tag_393\n        /* \"#utility.yul\":9192:9197   */\n      dup2\n        /* \"#utility.yul\":9174:9198   */\n      tag_394\n      jump\t// in\n    tag_393:\n        /* \"#utility.yul\":9169:9172   */\n      dup3\n        /* \"#utility.yul\":9162:9199   */\n      mstore\n        /* \"#utility.yul\":9087:9205   */\n      pop\n      pop\n      jump\t// out\n        /* \"#utility.yul\":9211:9590   */\n    tag_190:\n        /* \"#utility.yul\":9395:9398   */\n      0x00\n        /* \"#utility.yul\":9417:9564   */\n      tag_396\n        /* \"#utility.yul\":9560:9563   */\n      dup3\n        /* \"#utility.yul\":9417:9564   */\n      tag_365\n      jump\t// in\n    tag_396:\n        /* \"#utility.yul\":9410:9564   */\n      swap2\n      pop\n        /* \"#utility.yul\":9581:9584   */\n      dup2\n        /* \"#utility.yul\":9574:9584   */\n      swap1\n      pop\n        /* \"#utility.yul\":9211:9590   */\n      swap2\n      swap1\n      pop\n      jump\t// out\n        /* \"#utility.yul\":9596:10563   */\n    tag_219:\n        /* \"#utility.yul\":9978:9981   */\n      0x00\n        /* \"#utility.yul\":10000:10148   */\n      tag_398\n        /* \"#utility.yul\":10144:10147   */\n      dup3\n        /* \"#utility.yul\":10000:10148   */\n      tag_371\n      jump\t// in\n    tag_398:\n        /* \"#utility.yul\":9993:10148   */\n      swap2\n      pop\n        /* \"#utility.yul\":10165:10260   */\n      tag_399\n        /* \"#utility.yul\":10256:10259   */\n      dup3\n        /* \"#utility.yul\":10247:10253   */\n      dup6\n        /* \"#utility.yul\":10165:10260   */\n      tag_324\n      jump\t// in\n    tag_399:\n        /* \"#utility.yul\":10158:10260   */\n      swap2\n      pop\n        /* \"#utility.yul\":10277:10425   */\n      tag_400\n        /* \"#utility.yul\":10421:10424   */\n      dup3\n        /* \"#utility.yul\":10277:10425   */\n      tag_381\n      jump\t// in\n    tag_400:\n        /* \"#utility.yul\":10270:10425   */\n      swap2\n      pop\n        /* \"#utility.yul\":10442:10537   */\n      tag_401\n        /* \"#utility.yul\":10533:10536   */\n      dup3\n        /* \"#utility.yul\":10524:10530   */\n      dup5\n        /* \"#utility.yul\":10442:10537   */\n      tag_324\n      jump\t// in\n    tag_401:\n        /* \"#utility.yul\":10435:10537   */\n      swap2\n      pop\n        /* \"#utility.yul\":10554:10557   */\n      dup2\n        /* \"#utility.yul\":10547:10557   */\n      swap1\n      pop\n        /* \"#utility.yul\":9596:10563   */\n      swap4\n      swap3\n      pop\n      pop\n      pop\n      jump\t// out\n        /* \"#utility.yul\":10569:10791   */\n    tag_94:\n        /* \"#utility.yul\":10662:10666   */\n      0x00\n        /* \"#utility.yul\":10700:10702   */\n      0x20\n        /* \"#utility.yul\":10689:10698   */\n      dup3\n        /* \"#utility.yul\":10685:10703   */\n      add\n        /* \"#utility.yul\":10677:10703   */\n      swap1\n      pop\n        /* \"#utility.yul\":10713:10784   */\n      tag_403\n        /* \"#utility.yul\":10781:10782   */\n      0x00\n        /* \"#utility.yul\":10770:10779   */\n      dup4\n        /* \"#utility.yul\":10766:10783   */\n      add\n        /* \"#utility.yul\":10757:10763   */\n      dup5\n        /* \"#utility.yul\":10713:10784   */\n      tag_302\n      jump\t// in\n    tag_403:\n        /* \"#utility.yul\":10569:10791   */\n      swap3\n      swap2\n      pop\n      pop\n      jump\t// out\n        /* \"#utility.yul\":10797:11239   */\n    tag_151:\n        /* \"#utility.yul\":10946:10950   */\n      0x00\n        /* \"#utility.yul\":10984:10986   */\n      0x60\n        /* \"#utility.yul\":10973:10982   */\n      dup3\n        /* \"#utility.yul\":10969:10987   */\n      add\n        /* \"#utility.yul\":10961:10987   */\n      swap1\n      pop\n        /* \"#utility.yul\":10997:11068   */\n      tag_405\n        /* \"#utility.yul\":11065:11066   */\n      0x00\n        /* \"#utility.yul\":11054:11063   */\n      dup4\n        /* \"#utility.yul\":11050:11067   */\n      add\n        /* \"#utility.yul\":11041:11047   */\n      dup7\n        /* \"#utility.yul\":10997:11068   */\n      tag_302\n      jump\t// in\n    tag_405:\n        /* \"#utility.yul\":11078:11150   */\n      tag_406\n        /* \"#utility.yul\":11146:11148   */\n      0x20\n        /* \"#utility.yul\":11135:11144   */\n      dup4\n        /* \"#utility.yul\":11131:11149   */\n      add\n        /* \"#utility.yul\":11122:11128   */\n      dup6\n        /* \"#utility.yul\":11078:11150   */\n      tag_302\n      jump\t// in\n    tag_406:\n        /* \"#utility.yul\":11160:11232   */\n      tag_407\n        /* \"#utility.yul\":11228:11230   */\n      0x40\n        /* \"#utility.yul\":11217:11226   */\n      dup4\n        /* \"#utility.yul\":11213:11231   */\n      add\n        /* \"#utility.yul\":11204:11210   */\n      dup5\n        /* \"#utility.yul\":11160:11232   */\n      tag_391\n      jump\t// in\n    tag_407:\n        /* \"#utility.yul\":10797:11239   */\n      swap5\n      swap4\n      pop\n      pop\n      pop\n      pop\n      jump\t// out\n        /* \"#utility.yul\":11245:11577   */\n    tag_121:\n        /* \"#utility.yul\":11366:11370   */\n      0x00\n        /* \"#utility.yul\":11404:11406   */\n      0x40\n        /* \"#utility.yul\":11393:11402   */\n      dup3\n        /* \"#utility.yul\":11389:11407   */\n      add\n        /* \"#utility.yul\":11381:11407   */\n      swap1\n      pop\n        /* \"#utility.yul\":11417:11488   */\n      tag_409\n        /* \"#utility.yul\":11485:11486   */\n      0x00\n        /* \"#utility.yul\":11474:11483   */\n      dup4\n        /* \"#utility.yul\":11470:11487   */\n      add\n        /* \"#utility.yul\":11461:11467   */\n      dup6\n        /* \"#utility.yul\":11417:11488   */\n      tag_302\n      jump\t// in\n    tag_409:\n        /* \"#utility.yul\":11498:11570   */\n      tag_410\n        /* \"#utility.yul\":11566:11568   */\n      0x20\n        /* \"#utility.yul\":11555:11564   */\n      dup4\n        /* \"#utility.yul\":11551:11569   */\n      add\n        /* \"#utility.yul\":11542:11548   */\n      dup5\n        /* \"#utility.yul\":11498:11570   */\n      tag_391\n      jump\t// in\n    tag_410:\n        /* \"#utility.yul\":11245:11577   */\n      swap4\n      swap3\n      pop\n      pop\n      pop\n      jump\t// out\n        /* \"#utility.yul\":11583:11793   */\n    tag_26:\n        /* \"#utility.yul\":11670:11674   */\n      0x00\n        /* \"#utility.yul\":11708:11710   */\n      0x20\n        /* \"#utility.yul\":11697:11706   */\n      dup3\n        /* \"#utility.yul\":11693:11711   */\n      add\n        /* \"#utility.yul\":11685:11711   */\n      swap1\n      pop\n        /* \"#utility.yul\":11721:11786   */\n      tag_412\n        /* \"#utility.yul\":11783:11784   */\n      0x00\n        /* \"#utility.yul\":11772:11781   */\n      dup4\n        /* \"#utility.yul\":11768:11785   */\n      add\n        /* \"#utility.yul\":11759:11765   */\n      dup5\n        /* \"#utility.yul\":11721:11786   */\n      tag_306\n      jump\t// in\n    tag_412:\n        /* \"#utility.yul\":11583:11793   */\n      swap3\n      swap2\n      pop\n      pop\n      jump\t// out\n        /* \"#utility.yul\":11799:12021   */\n    tag_40:\n        /* \"#utility.yul\":11892:11896   */\n      0x00\n        /* \"#utility.yul\":11930:11932   */\n      0x20\n        /* \"#utility.yul\":11919:11928   */\n      dup3\n        /* \"#utility.yul\":11915:11933   */\n      add\n        /* \"#utility.yul\":11907:11933   */\n      swap1\n      pop\n        /* \"#utility.yul\":11943:12014   */\n      tag_414\n        /* \"#utility.yul\":12011:12012   */\n      0x00\n        /* \"#utility.yul\":12000:12009   */\n      dup4\n        /* \"#utility.yul\":11996:12013   */\n      add\n        /* \"#utility.yul\":11987:11993   */\n      dup5\n        /* \"#utility.yul\":11943:12014   */\n      tag_310\n      jump\t// in\n    tag_414:\n        /* \"#utility.yul\":11799:12021   */\n      swap3\n      swap2\n      pop\n      pop\n      jump\t// out\n        /* \"#utility.yul\":12027:12340   */\n    tag_221:\n        /* \"#utility.yul\":12140:12144   */\n      0x00\n        /* \"#utility.yul\":12178:12180   */\n      0x20\n        /* \"#utility.yul\":12167:12176   */\n      dup3\n        /* \"#utility.yul\":12163:12181   */\n      add\n        /* \"#utility.yul\":12155:12181   */\n      swap1\n      pop\n        /* \"#utility.yul\":12227:12236   */\n      dup2\n        /* \"#utility.yul\":12221:12225   */\n      dup2\n        /* \"#utility.yul\":12217:12237   */\n      sub\n        /* \"#utility.yul\":12213:12214   */\n      0x00\n        /* \"#utility.yul\":12202:12211   */\n      dup4\n        /* \"#utility.yul\":12198:12215   */\n      add\n        /* \"#utility.yul\":12191:12238   */\n      mstore\n        /* \"#utility.yul\":12255:12333   */\n      tag_416\n        /* \"#utility.yul\":12328:12332   */\n      dup2\n        /* \"#utility.yul\":12319:12325   */\n      dup5\n        /* \"#utility.yul\":12255:12333   */\n      tag_314\n      jump\t// in\n    tag_416:\n        /* \"#utility.yul\":12247:12333   */\n      swap1\n      pop\n        /* \"#utility.yul\":12027:12340   */\n      swap3\n      swap2\n      pop\n      pop\n      jump\t// out\n        /* \"#utility.yul\":12346:12765   */\n    tag_112:\n        /* \"#utility.yul\":12512:12516   */\n      0x00\n        /* \"#utility.yul\":12550:12552   */\n      0x20\n        /* \"#utility.yul\":12539:12548   */\n      dup3\n        /* \"#utility.yul\":12535:12553   */\n      add\n        /* \"#utility.yul\":12527:12553   */\n      swap1\n      pop\n        /* \"#utility.yul\":12599:12608   */\n      dup2\n        /* \"#utility.yul\":12593:12597   */\n      dup2\n        /* \"#utility.yul\":12589:12609   */\n      sub\n        /* \"#utility.yul\":12585:12586   */\n      0x00\n        /* \"#utility.yul\":12574:12583   */\n      dup4\n        /* \"#utility.yul\":12570:12587   */\n      add\n        /* \"#utility.yul\":12563:12610   */\n      mstore\n        /* \"#utility.yul\":12627:12758   */\n      tag_418\n        /* \"#utility.yul\":12753:12757   */\n      dup2\n        /* \"#utility.yul\":12627:12758   */\n      tag_330\n      jump\t// in\n    tag_418:\n        /* \"#utility.yul\":12619:12758   */\n      swap1\n      pop\n        /* \"#utility.yul\":12346:12765   */\n      swap2\n      swap1\n      pop\n      jump\t// out\n        /* \"#utility.yul\":12771:13190   */\n    tag_247:\n        /* \"#utility.yul\":12937:12941   */\n      0x00\n        /* \"#utility.yul\":12975:12977   */\n      0x20\n        /* \"#utility.yul\":12964:12973   */\n      dup3\n        /* \"#utility.yul\":12960:12978   */\n      add\n        /* \"#utility.yul\":12952:12978   */\n      swap1\n      pop\n        /* \"#utility.yul\":13024:13033   */\n      dup2\n        /* \"#utility.yul\":13018:13022   */\n      dup2\n        /* \"#utility.yul\":13014:13034   */\n      sub\n        /* \"#utility.yul\":13010:13011   */\n      0x00\n        /* \"#utility.yul\":12999:13008   */\n      dup4\n        /* \"#utility.yul\":12995:13012   */\n      add\n        /* \"#utility.yul\":12988:13035   */\n      mstore\n        /* \"#utility.yul\":13052:13183   */\n      tag_420\n        /* \"#utility.yul\":13178:13182   */\n      dup2\n        /* \"#utility.yul\":13052:13183   */\n      tag_335\n      jump\t// in\n    tag_420:\n        /* \"#utility.yul\":13044:13183   */\n      swap1\n      pop\n        /* \"#utility.yul\":12771:13190   */\n      swap2\n      swap1\n      pop\n      jump\t// out\n        /* \"#utility.yul\":13196:13615   */\n    tag_170:\n        /* \"#utility.yul\":13362:13366   */\n      0x00\n        /* \"#utility.yul\":13400:13402   */\n      0x20\n        /* \"#utility.yul\":13389:13398   */\n      dup3\n        /* \"#utility.yul\":13385:13403   */\n      add\n        /* \"#utility.yul\":13377:13403   */\n      swap1\n      pop\n        /* \"#utility.yul\":13449:13458   */\n      dup2\n        /* \"#utility.yul\":13443:13447   */\n      dup2\n        /* \"#utility.yul\":13439:13459   */\n      sub\n        /* \"#utility.yul\":13435:13436   */\n      0x00\n        /* \"#utility.yul\":13424:13433   */\n      dup4\n        /* \"#utility.yul\":13420:13437   */\n      add\n        /* \"#utility.yul\":13413:13460   */\n      mstore\n        /* \"#utility.yul\":13477:13608   */\n      tag_422\n        /* \"#utility.yul\":13603:13607   */\n      dup2\n        /* \"#utility.yul\":13477:13608   */\n      tag_340\n      jump\t// in\n    tag_422:\n        /* \"#utility.yul\":13469:13608   */\n      swap1\n      pop\n        /* \"#utility.yul\":13196:13615   */\n      swap2\n      swap1\n      pop\n      jump\t// out\n        /* \"#utility.yul\":13621:14040   */\n    tag_196:\n        /* \"#utility.yul\":13787:13791   */\n      0x00\n        /* \"#utility.yul\":13825:13827   */\n      0x20\n        /* \"#utility.yul\":13814:13823   */\n      dup3\n        /* \"#utility.yul\":13810:13828   */\n      add\n        /* \"#utility.yul\":13802:13828   */\n      swap1\n      pop\n        /* \"#utility.yul\":13874:13883   */\n      dup2\n        /* \"#utility.yul\":13868:13872   */\n      dup2\n        /* \"#utility.yul\":13864:13884   */\n      sub\n        /* \"#utility.yul\":13860:13861   */\n      0x00\n        /* \"#utility.yul\":13849:13858   */\n      dup4\n        /* \"#utility.yul\":13845:13862   */\n      add\n        /* \"#utility.yul\":13838:13885   */\n      mstore\n        /* \"#utility.yul\":13902:14033   */\n      tag_424\n        /* \"#utility.yul\":14028:14032   */\n      dup2\n        /* \"#utility.yul\":13902:14033   */\n      tag_345\n      jump\t// in\n    tag_424:\n        /* \"#utility.yul\":13894:14033   */\n      swap1\n      pop\n        /* \"#utility.yul\":13621:14040   */\n      swap2\n      swap1\n      pop\n      jump\t// out\n        /* \"#utility.yul\":14046:14465   */\n    tag_109:\n        /* \"#utility.yul\":14212:14216   */\n      0x00\n        /* \"#utility.yul\":14250:14252   */\n      0x20\n        /* \"#utility.yul\":14239:14248   */\n      dup3\n        /* \"#utility.yul\":14235:14253   */\n      add\n        /* \"#utility.yul\":14227:14253   */\n      swap1\n      pop\n        /* \"#utility.yul\":14299:14308   */\n      dup2\n        /* \"#utility.yul\":14293:14297   */\n      dup2\n        /* \"#utility.yul\":14289:14309   */\n      sub\n        /* \"#utility.yul\":14285:14286   */\n      0x00\n        /* \"#utility.yul\":14274:14283   */\n      dup4\n        /* \"#utility.yul\":14270:14287   */\n      add\n        /* \"#utility.yul\":14263:14310   */\n      mstore\n        /* \"#utility.yul\":14327:14458   */\n      tag_426\n        /* \"#utility.yul\":14453:14457   */\n      dup2\n        /* \"#utility.yul\":14327:14458   */\n      tag_350\n      jump\t// in\n    tag_426:\n        /* \"#utility.yul\":14319:14458   */\n      swap1\n      pop\n        /* \"#utility.yul\":14046:14465   */\n      swap2\n      swap1\n      pop\n      jump\t// out\n        /* \"#utility.yul\":14471:14890   */\n    tag_158:\n        /* \"#utility.yul\":14637:14641   */\n      0x00\n        /* \"#utility.yul\":14675:14677   */\n      0x20\n        /* \"#utility.yul\":14664:14673   */\n      dup3\n        /* \"#utility.yul\":14660:14678   */\n      add\n        /* \"#utility.yul\":14652:14678   */\n      swap1\n      pop\n        /* \"#utility.yul\":14724:14733   */\n      dup2\n        /* \"#utility.yul\":14718:14722   */\n      dup2\n        /* \"#utility.yul\":14714:14734   */\n      sub\n        /* \"#utility.yul\":14710:14711   */\n      0x00\n        /* \"#utility.yul\":14699:14708   */\n      dup4\n        /* \"#utility.yul\":14695:14712   */\n      add\n        /* \"#utility.yul\":14688:14735   */\n      mstore\n        /* \"#utility.yul\":14752:14883   */\n      tag_428\n        /* \"#utility.yul\":14878:14882   */\n      dup2\n        /* \"#utility.yul\":14752:14883   */\n      tag_355\n      jump\t// in\n    tag_428:\n        /* \"#utility.yul\":14744:14883   */\n      swap1\n      pop\n        /* \"#utility.yul\":14471:14890   */\n      swap2\n      swap1\n      pop\n      jump\t// out\n        /* \"#utility.yul\":14896:15315   */\n    tag_115:\n        /* \"#utility.yul\":15062:15066   */\n      0x00\n        /* \"#utility.yul\":15100:15102   */\n      0x20\n        /* \"#utility.yul\":15089:15098   */\n      dup3\n        /* \"#utility.yul\":15085:15103   */\n      add\n        /* \"#utility.yul\":15077:15103   */\n      swap1\n      pop\n        /* \"#utility.yul\":15149:15158   */\n      dup2\n        /* \"#utility.yul\":15143:15147   */\n      dup2\n        /* \"#utility.yul\":15139:15159   */\n      sub\n        /* \"#utility.yul\":15135:15136   */\n      0x00\n        /* \"#utility.yul\":15124:15133   */\n      dup4\n        /* \"#utility.yul\":15120:15137   */\n      add\n        /* \"#utility.yul\":15113:15160   */\n      mstore\n        /* \"#utility.yul\":15177:15308   */\n      tag_430\n        /* \"#utility.yul\":15303:15307   */\n      dup2\n        /* \"#utility.yul\":15177:15308   */\n      tag_360\n      jump\t// in\n    tag_430:\n        /* \"#utility.yul\":15169:15308   */\n      swap1\n      pop\n        /* \"#utility.yul\":14896:15315   */\n      swap2\n      swap1\n      pop\n      jump\t// out\n        /* \"#utility.yul\":15321:15740   */\n    tag_129:\n        /* \"#utility.yul\":15487:15491   */\n      0x00\n        /* \"#utility.yul\":15525:15527   */\n      0x20\n        /* \"#utility.yul\":15514:15523   */\n      dup3\n        /* \"#utility.yul\":15510:15528   */\n      add\n        /* \"#utility.yul\":15502:15528   */\n      swap1\n      pop\n        /* \"#utility.yul\":15574:15583   */\n      dup2\n        /* \"#utility.yul\":15568:15572   */\n      dup2\n        /* \"#utility.yul\":15564:15584   */\n      sub\n        /* \"#utility.yul\":15560:15561   */\n      0x00\n        /* \"#utility.yul\":15549:15558   */\n      dup4\n        /* \"#utility.yul\":15545:15562   */\n      add\n        /* \"#utility.yul\":15538:15585   */\n      mstore\n        /* \"#utility.yul\":15602:15733   */\n      tag_432\n        /* \"#utility.yul\":15728:15732   */\n      dup2\n        /* \"#utility.yul\":15602:15733   */\n      tag_376\n      jump\t// in\n    tag_432:\n        /* \"#utility.yul\":15594:15733   */\n      swap1\n      pop\n        /* \"#utility.yul\":15321:15740   */\n      swap2\n      swap1\n      pop\n      jump\t// out\n        /* \"#utility.yul\":15746:16165   */\n    tag_146:\n        /* \"#utility.yul\":15912:15916   */\n      0x00\n        /* \"#utility.yul\":15950:15952   */\n      0x20\n        /* \"#utility.yul\":15939:15948   */\n      dup3\n        /* \"#utility.yul\":15935:15953   */\n      add\n        /* \"#utility.yul\":15927:15953   */\n      swap1\n      pop\n        /* \"#utility.yul\":15999:16008   */\n      dup2\n        /* \"#utility.yul\":15993:15997   */\n      dup2\n        /* \"#utility.yul\":15989:16009   */\n      sub\n        /* \"#utility.yul\":15985:15986   */\n      0x00\n        /* \"#utility.yul\":15974:15983   */\n      dup4\n        /* \"#utility.yul\":15970:15987   */\n      add\n        /* \"#utility.yul\":15963:16010   */\n      mstore\n        /* \"#utility.yul\":16027:16158   */\n      tag_434\n        /* \"#utility.yul\":16153:16157   */\n      dup2\n        /* \"#utility.yul\":16027:16158   */\n      tag_386\n      jump\t// in\n    tag_434:\n        /* \"#utility.yul\":16019:16158   */\n      swap1\n      pop\n        /* \"#utility.yul\":15746:16165   */\n      swap2\n      swap1\n      pop\n      jump\t// out\n        /* \"#utility.yul\":16171:16393   */\n    tag_73:\n        /* \"#utility.yul\":16264:16268   */\n      0x00\n        /* \"#utility.yul\":16302:16304   */\n      0x20\n        /* \"#utility.yul\":16291:16300   */\n      dup3\n        /* \"#utility.yul\":16287:16305   */\n      add\n        /* \"#utility.yul\":16279:16305   */\n      swap1\n      pop\n        /* \"#utility.yul\":16315:16386   */\n      tag_436\n        /* \"#utility.yul\":16383:16384   */\n      0x00\n        /* \"#utility.yul\":16372:16381   */\n      dup4\n        /* \"#utility.yul\":16368:16385   */\n      add\n        /* \"#utility.yul\":16359:16365   */\n      dup5\n        /* \"#utility.yul\":16315:16386   */\n      tag_391\n      jump\t// in\n    tag_436:\n        /* \"#utility.yul\":16171:16393   */\n      swap3\n      swap2\n      pop\n      pop\n      jump\t// out\n        /* \"#utility.yul\":16399:16841   */\n    tag_33:\n        /* \"#utility.yul\":16548:16552   */\n      0x00\n        /* \"#utility.yul\":16586:16588   */\n      0x60\n        /* \"#utility.yul\":16575:16584   */\n      dup3\n        /* \"#utility.yul\":16571:16589   */\n      add\n        /* \"#utility.yul\":16563:16589   */\n      swap1\n      pop\n        /* \"#utility.yul\":16599:16670   */\n      tag_438\n        /* \"#utility.yul\":16667:16668   */\n      0x00\n        /* \"#utility.yul\":16656:16665   */\n      dup4\n        /* \"#utility.yul\":16652:16669   */\n      add\n        /* \"#utility.yul\":16643:16649   */\n      dup7\n        /* \"#utility.yul\":16599:16670   */\n      tag_391\n      jump\t// in\n    tag_438:\n        /* \"#utility.yul\":16680:16752   */\n      tag_439\n        /* \"#utility.yul\":16748:16750   */\n      0x20\n        /* \"#utility.yul\":16737:16746   */\n      dup4\n        /* \"#utility.yul\":16733:16751   */\n      add\n        /* \"#utility.yul\":16724:16730   */\n      dup6\n        /* \"#utility.yul\":16680:16752   */\n      tag_391\n      jump\t// in\n    tag_439:\n        /* \"#utility.yul\":16762:16834   */\n      tag_440\n        /* \"#utility.yul\":16830:16832   */\n      0x40\n        /* \"#utility.yul\":16819:16828   */\n      dup4\n        /* \"#utility.yul\":16815:16833   */\n      add\n        /* \"#utility.yul\":16806:16812   */\n      dup5\n        /* \"#utility.yul\":16762:16834   */\n      tag_391\n      jump\t// in\n    tag_440:\n        /* \"#utility.yul\":16399:16841   */\n      swap5\n      swap4\n      pop\n      pop\n      pop\n      pop\n      jump\t// out\n        /* \"#utility.yul\":16928:17027   */\n    tag_317:\n        /* \"#utility.yul\":16980:16986   */\n      0x00\n        /* \"#utility.yul\":17014:17019   */\n      dup2\n        /* \"#utility.yul\":17008:17020   */\n      mload\n        /* \"#utility.yul\":16998:17020   */\n      swap1\n      pop\n        /* \"#utility.yul\":16928:17027   */\n      swap2\n      swap1\n      pop\n      jump\t// out\n        /* \"#utility.yul\":17033:17180   */\n    tag_368:\n        /* \"#utility.yul\":17134:17145   */\n      0x00\n        /* \"#utility.yul\":17171:17174   */\n      dup2\n        /* \"#utility.yul\":17156:17174   */\n      swap1\n      pop\n        /* \"#utility.yul\":17033:17180   */\n      swap3\n      swap2\n      pop\n      pop\n      jump\t// out\n        /* \"#utility.yul\":17186:17355   */\n    tag_319:\n        /* \"#utility.yul\":17270:17281   */\n      0x00\n        /* \"#utility.yul\":17304:17310   */\n      dup3\n        /* \"#utility.yul\":17299:17302   */\n      dup3\n        /* \"#utility.yul\":17292:17311   */\n      mstore\n        /* \"#utility.yul\":17344:17348   */\n      0x20\n        /* \"#utility.yul\":17339:17342   */\n      dup3\n        /* \"#utility.yul\":17335:17349   */\n      add\n        /* \"#utility.yul\":17320:17349   */\n      swap1\n      pop\n        /* \"#utility.yul\":17186:17355   */\n      swap3\n      swap2\n      pop\n      pop\n      jump\t// out\n        /* \"#utility.yul\":17361:17509   */\n    tag_328:\n        /* \"#utility.yul\":17463:17474   */\n      0x00\n        /* \"#utility.yul\":17500:17503   */\n      dup2\n        /* \"#utility.yul\":17485:17503   */\n      swap1\n      pop\n        /* \"#utility.yul\":17361:17509   */\n      swap3\n      swap2\n      pop\n      pop\n      jump\t// out\n        /* \"#utility.yul\":17515:17820   */\n    tag_131:\n        /* \"#utility.yul\":17555:17558   */\n      0x00\n        /* \"#utility.yul\":17574:17594   */\n      tag_448\n        /* \"#utility.yul\":17592:17593   */\n      dup3\n        /* \"#utility.yul\":17574:17594   */\n      tag_394\n      jump\t// in\n    tag_448:\n        /* \"#utility.yul\":17569:17594   */\n      swap2\n      pop\n        /* \"#utility.yul\":17608:17628   */\n      tag_449\n        /* \"#utility.yul\":17626:17627   */\n      dup4\n        /* \"#utility.yul\":17608:17628   */\n      tag_394\n      jump\t// in\n    tag_449:\n        /* \"#utility.yul\":17603:17628   */\n      swap3\n      pop\n        /* \"#utility.yul\":17762:17763   */\n      dup3\n        /* \"#utility.yul\":17694:17760   */\n      0xffffffffffffffffffffffffffffffffffffffffffffffffffffffffffffffff\n        /* \"#utility.yul\":17690:17764   */\n      sub\n        /* \"#utility.yul\":17687:17688   */\n      dup3\n        /* \"#utility.yul\":17684:17765   */\n      gt\n        /* \"#utility.yul\":17681:17788   */\n      iszero\n      tag_450\n      jumpi\n        /* \"#utility.yul\":17768:17786   */\n      tag_451\n      tag_452\n      jump\t// in\n    tag_451:\n        /* \"#utility.yul\":17681:17788   */\n    tag_450:\n        /* \"#utility.yul\":17812:17813   */\n      dup3\n        /* \"#utility.yul\":17809:17810   */\n      dup3\n        /* \"#utility.yul\":17805:17814   */\n      add\n        /* \"#utility.yul\":17798:17814   */\n      swap1\n      pop\n        /* \"#utility.yul\":17515:17820   */\n      swap3\n      swap2\n      pop\n      pop\n      jump\t// out\n        /* \"#utility.yul\":17826:18011   */\n    tag_164:\n        /* \"#utility.yul\":17866:17867   */\n      0x00\n        /* \"#utility.yul\":17883:17903   */\n      tag_454\n        /* \"#utility.yul\":17901:17902   */\n      dup3\n        /* \"#utility.yul\":17883:17903   */\n      tag_394\n      jump\t// in\n    tag_454:\n        /* \"#utility.yul\":17878:17903   */\n      swap2\n      pop\n        /* \"#utility.yul\":17917:17937   */\n      tag_455\n        /* \"#utility.yul\":17935:17936   */\n      dup4\n        /* \"#utility.yul\":17917:17937   */\n      tag_394\n      jump\t// in\n    tag_455:\n        /* \"#utility.yul\":17912:17937   */\n      swap3\n      pop\n        /* \"#utility.yul\":17956:17957   */\n      dup3\n        /* \"#utility.yul\":17946:17981   */\n      tag_456\n      jumpi\n        /* \"#utility.yul\":17961:17979   */\n      tag_457\n      tag_458\n      jump\t// in\n    tag_457:\n        /* \"#utility.yul\":17946:17981   */\n    tag_456:\n        /* \"#utility.yul\":18003:18004   */\n      dup3\n        /* \"#utility.yul\":18000:18001   */\n      dup3\n        /* \"#utility.yul\":17996:18005   */\n      div\n        /* \"#utility.yul\":17991:18005   */\n      swap1\n      pop\n        /* \"#utility.yul\":17826:18011   */\n      swap3\n      swap2\n      pop\n      pop\n      jump\t// out\n        /* \"#utility.yul\":18017:18365   */\n    tag_162:\n        /* \"#utility.yul\":18057:18064   */\n      0x00\n        /* \"#utility.yul\":18080:18100   */\n      tag_460\n        /* \"#utility.yul\":18098:18099   */\n      dup3\n        /* \"#utility.yul\":18080:18100   */\n      tag_394\n      jump\t// in\n    tag_460:\n        /* \"#utility.yul\":18075:18100   */\n      swap2\n      pop\n        /* \"#utility.yul\":18114:18134   */\n      tag_461\n        /* \"#utility.yul\":18132:18133   */\n      dup4\n        /* \"#utility.yul\":18114:18134   */\n      tag_394\n      jump\t// in\n    tag_461:\n        /* \"#utility.yul\":18109:18134   */\n      swap3\n      pop\n        /* \"#utility.yul\":18302:18303   */\n      dup2\n        /* \"#utility.yul\":18234:18300   */\n      0xffffffffffffffffffffffffffffffffffffffffffffffffffffffffffffffff\n        /* \"#utility.yul\":18230:18304   */\n      div\n        /* \"#utility.yul\":18227:18228   */\n      dup4\n        /* \"#utility.yul\":18224:18305   */\n      gt\n        /* \"#utility.yul\":18219:18220   */\n      dup3\n        /* \"#utility.yul\":18212:18221   */\n      iszero\n        /* \"#utility.yul\":18205:18222   */\n      iszero\n        /* \"#utility.yul\":18201:18306   */\n      and\n        /* \"#utility.yul\":18198:18329   */\n      iszero\n      tag_462\n      jumpi\n        /* \"#utility.yul\":18309:18327   */\n      tag_463\n      tag_452\n      jump\t// in\n    tag_463:\n        /* \"#utility.yul\":18198:18329   */\n    tag_462:\n        /* \"#utility.yul\":18357:18358   */\n      dup3\n        /* \"#utility.yul\":18354:18355   */\n      dup3\n        /* \"#utility.yul\":18350:18359   */\n      mul\n        /* \"#utility.yul\":18339:18359   */\n      swap1\n      pop\n        /* \"#utility.yul\":18017:18365   */\n      swap3\n      swap2\n      pop\n      pop\n      jump\t// out\n        /* \"#utility.yul\":18371:18562   */\n    tag_117:\n        /* \"#utility.yul\":18411:18415   */\n      0x00\n        /* \"#utility.yul\":18431:18451   */\n      tag_465\n        /* \"#utility.yul\":18449:18450   */\n      dup3\n        /* \"#utility.yul\":18431:18451   */\n      tag_394\n      jump\t// in\n    tag_465:\n        /* \"#utility.yul\":18426:18451   */\n      swap2\n      pop\n        /* \"#utility.yul\":18465:18485   */\n      tag_466\n        /* \"#utility.yul\":18483:18484   */\n      dup4\n        /* \"#utility.yul\":18465:18485   */\n      tag_394\n      jump\t// in\n    tag_466:\n        /* \"#utility.yul\":18460:18485   */\n      swap3\n      pop\n        /* \"#utility.yul\":18504:18505   */\n      dup3\n        /* \"#utility.yul\":18501:18502   */\n      dup3\n        /* \"#utility.yul\":18498:18506   */\n      lt\n        /* \"#utility.yul\":18495:18529   */\n      iszero\n      tag_467\n      jumpi\n        /* \"#utility.yul\":18509:18527   */\n      tag_468\n      tag_452\n      jump\t// in\n    tag_468:\n        /* \"#utility.yul\":18495:18529   */\n    tag_467:\n        /* \"#utility.yul\":18554:18555   */\n      dup3\n        /* \"#utility.yul\":18551:18552   */\n      dup3\n        /* \"#utility.yul\":18547:18556   */\n      sub\n        /* \"#utility.yul\":18539:18556   */\n      swap1\n      pop\n        /* \"#utility.yul\":18371:18562   */\n      swap3\n      swap2\n      pop\n      pop\n      jump\t// out\n        /* \"#utility.yul\":18568:18664   */\n    tag_305:\n        /* \"#utility.yul\":18605:18612   */\n      0x00\n        /* \"#utility.yul\":18634:18658   */\n      tag_470\n        /* \"#utility.yul\":18652:18657   */\n      dup3\n        /* \"#utility.yul\":18634:18658   */\n      tag_471\n      jump\t// in\n    tag_470:\n        /* \"#utility.yul\":18623:18658   */\n      swap1\n      pop\n        /* \"#utility.yul\":18568:18664   */\n      swap2\n      swap1\n      pop\n      jump\t// out\n        /* \"#utility.yul\":18670:18760   */\n    tag_309:\n        /* \"#utility.yul\":18704:18711   */\n      0x00\n        /* \"#utility.yul\":18747:18752   */\n      dup2\n        /* \"#utility.yul\":18740:18753   */\n      iszero\n        /* \"#utility.yul\":18733:18754   */\n      iszero\n        /* \"#utility.yul\":18722:18754   */\n      swap1\n      pop\n        /* \"#utility.yul\":18670:18760   */\n      swap2\n      swap1\n      pop\n      jump\t// out\n        /* \"#utility.yul\":18766:18843   */\n    tag_313:\n        /* \"#utility.yul\":18803:18810   */\n      0x00\n        /* \"#utility.yul\":18832:18837   */\n      dup2\n        /* \"#utility.yul\":18821:18837   */\n      swap1\n      pop\n        /* \"#utility.yul\":18766:18843   */\n      swap2\n      swap1\n      pop\n      jump\t// out\n        /* \"#utility.yul\":18849:18998   */\n    tag_474:\n        /* \"#utility.yul\":18885:18892   */\n      0x00\n        /* \"#utility.yul\":18925:18991   */\n      0xffffffff00000000000000000000000000000000000000000000000000000000\n        /* \"#utility.yul\":18918:18923   */\n      dup3\n        /* \"#utility.yul\":18914:18992   */\n      and\n        /* \"#utility.yul\":18903:18992   */\n      swap1\n      pop\n        /* \"#utility.yul\":18849:18998   */\n      swap2\n      swap1\n      pop\n      jump\t// out\n        /* \"#utility.yul\":19004:19130   */\n    tag_471:\n        /* \"#utility.yul\":19041:19048   */\n      0x00\n        /* \"#utility.yul\":19081:19123   */\n      0xffffffffffffffffffffffffffffffffffffffff\n        /* \"#utility.yul\":19074:19079   */\n      dup3\n        /* \"#utility.yul\":19070:19124   */\n      and\n        /* \"#utility.yul\":19059:19124   */\n      swap1\n      pop\n        /* \"#utility.yul\":19004:19130   */\n      swap2\n      swap1\n      pop\n      jump\t// out\n        /* \"#utility.yul\":19136:19213   */\n    tag_394:\n        /* \"#utility.yul\":19173:19180   */\n      0x00\n        /* \"#utility.yul\":19202:19207   */\n      dup2\n        /* \"#utility.yul\":19191:19207   */\n      swap1\n      pop\n        /* \"#utility.yul\":19136:19213   */\n      swap2\n      swap1\n      pop\n      jump\t// out\n        /* \"#utility.yul\":19219:19526   */\n    tag_321:\n        /* \"#utility.yul\":19287:19288   */\n      0x00\n        /* \"#utility.yul\":19297:19410   */\n    tag_479:\n        /* \"#utility.yul\":19311:19317   */\n      dup4\n        /* \"#utility.yul\":19308:19309   */\n      dup2\n        /* \"#utility.yul\":19305:19318   */\n      lt\n        /* \"#utility.yul\":19297:19410   */\n      iszero\n      tag_481\n      jumpi\n        /* \"#utility.yul\":19396:19397   */\n      dup1\n        /* \"#utility.yul\":19391:19394   */\n      dup3\n        /* \"#utility.yul\":19387:19398   */\n      add\n        /* \"#utility.yul\":19381:19399   */\n      mload\n        /* \"#utility.yul\":19377:19378   */\n      dup2\n        /* \"#utility.yul\":19372:19375   */\n      dup5\n        /* \"#utility.yul\":19368:19379   */\n      add\n        /* \"#utility.yul\":19361:19400   */\n      mstore\n        /* \"#utility.yul\":19333:19335   */\n      0x20\n        /* \"#utility.yul\":19330:19331   */\n      dup2\n        /* \"#utility.yul\":19326:19336   */\n      add\n        /* \"#utility.yul\":19321:19336   */\n      swap1\n      pop\n        /* \"#utility.yul\":19297:19410   */\n      jump(tag_479)\n    tag_481:\n        /* \"#utility.yul\":19428:19434   */\n      dup4\n        /* \"#utility.yul\":19425:19426   */\n      dup2\n        /* \"#utility.yul\":19422:19435   */\n      gt\n        /* \"#utility.yul\":19419:19520   */\n      iszero\n      tag_482\n      jumpi\n        /* \"#utility.yul\":19508:19509   */\n      0x00\n        /* \"#utility.yul\":19499:19505   */\n      dup5\n        /* \"#utility.yul\":19494:19497   */\n      dup5\n        /* \"#utility.yul\":19490:19506   */\n      add\n        /* \"#utility.yul\":19483:19510   */\n      mstore\n        /* \"#utility.yul\":19419:19520   */\n    tag_482:\n        /* \"#utility.yul\":19268:19526   */\n      pop\n        /* \"#utility.yul\":19219:19526   */\n      pop\n      pop\n      pop\n      jump\t// out\n        /* \"#utility.yul\":19532:19703   */\n    tag_244:\n        /* \"#utility.yul\":19571:19574   */\n      0x00\n        /* \"#utility.yul\":19594:19618   */\n      tag_484\n        /* \"#utility.yul\":19612:19617   */\n      dup3\n        /* \"#utility.yul\":19594:19618   */\n      tag_394\n      jump\t// in\n    tag_484:\n        /* \"#utility.yul\":19585:19618   */\n      swap2\n      pop\n        /* \"#utility.yul\":19640:19644   */\n      0x00\n        /* \"#utility.yul\":19633:19638   */\n      dup3\n        /* \"#utility.yul\":19630:19645   */\n      eq\n        /* \"#utility.yul\":19627:19668   */\n      iszero\n      tag_485\n      jumpi\n        /* \"#utility.yul\":19648:19666   */\n      tag_486\n      tag_452\n      jump\t// in\n    tag_486:\n        /* \"#utility.yul\":19627:19668   */\n    tag_485:\n        /* \"#utility.yul\":19695:19696   */\n      0x01\n        /* \"#utility.yul\":19688:19693   */\n      dup3\n        /* \"#utility.yul\":19684:19697   */\n      sub\n        /* \"#utility.yul\":19677:19697   */\n      swap1\n      pop\n        /* \"#utility.yul\":19532:19703   */\n      swap2\n      swap1\n      pop\n      jump\t// out\n        /* \"#utility.yul\":19709:19889   */\n    tag_452:\n        /* \"#utility.yul\":19757:19834   */\n      0x4e487b7100000000000000000000000000000000000000000000000000000000\n        /* \"#utility.yul\":19754:19755   */\n      0x00\n        /* \"#utility.yul\":19747:19835   */\n      mstore\n        /* \"#utility.yul\":19854:19858   */\n      0x11\n        /* \"#utility.yul\":19851:19852   */\n      0x04\n        /* \"#utility.yul\":19844:19859   */\n      mstore\n        /* \"#utility.yul\":19878:19882   */\n      0x24\n        /* \"#utility.yul\":19875:19876   */\n      0x00\n        /* \"#utility.yul\":19868:19883   */\n      revert\n        /* \"#utility.yul\":19895:20075   */\n    tag_458:\n        /* \"#utility.yul\":19943:20020   */\n      0x4e487b7100000000000000000000000000000000000000000000000000000000\n        /* \"#utility.yul\":19940:19941   */\n      0x00\n        /* \"#utility.yul\":19933:20021   */\n      mstore\n        /* \"#utility.yul\":20040:20044   */\n      0x12\n        /* \"#utility.yul\":20037:20038   */\n      0x04\n        /* \"#utility.yul\":20030:20045   */\n      mstore\n        /* \"#utility.yul\":20064:20068   */\n      0x24\n        /* \"#utility.yul\":20061:20062   */\n      0x00\n        /* \"#utility.yul\":20054:20069   */\n      revert\n        /* \"#utility.yul\":20081:20261   */\n    tag_231:\n        /* \"#utility.yul\":20129:20206   */\n      0x4e487b7100000000000000000000000000000000000000000000000000000000\n        /* \"#utility.yul\":20126:20127   */\n      0x00\n        /* \"#utility.yul\":20119:20207   */\n      mstore\n        /* \"#utility.yul\":20226:20230   */\n      0x32\n        /* \"#utility.yul\":20223:20224   */\n      0x04\n        /* \"#utility.yul\":20216:20231   */\n      mstore\n        /* \"#utility.yul\":20250:20254   */\n      0x24\n        /* \"#utility.yul\":20247:20248   */\n      0x00\n        /* \"#utility.yul\":20240:20255   */\n      revert\n        /* \"#utility.yul\":20267:20447   */\n    tag_227:\n        /* \"#utility.yul\":20315:20392   */\n      0x4e487b7100000000000000000000000000000000000000000000000000000000\n        /* \"#utility.yul\":20312:20313   */\n      0x00\n        /* \"#utility.yul\":20305:20393   */\n      mstore\n        /* \"#utility.yul\":20412:20416   */\n      0x41\n        /* \"#utility.yul\":20409:20410   */\n      0x04\n        /* \"#utility.yul\":20402:20417   */\n      mstore\n        /* \"#utility.yul\":20436:20440   */\n      0x24\n        /* \"#utility.yul\":20433:20434   */\n      0x00\n        /* \"#utility.yul\":20426:20441   */\n      revert\n        /* \"#utility.yul\":20576:20693   */\n    tag_275:\n        /* \"#utility.yul\":20685:20686   */\n      0x00\n        /* \"#utility.yul\":20682:20683   */\n      dup1\n        /* \"#utility.yul\":20675:20687   */\n      revert\n        /* \"#utility.yul\":20699:20801   */\n    tag_323:\n        /* \"#utility.yul\":20740:20746   */\n      0x00\n        /* \"#utility.yul\":20791:20793   */\n      0x1f\n        /* \"#utility.yul\":20787:20794   */\n      not\n        /* \"#utility.yul\":20782:20784   */\n      0x1f\n        /* \"#utility.yul\":20775:20780   */\n      dup4\n        /* \"#utility.yul\":20771:20785   */\n      add\n        /* \"#utility.yul\":20767:20795   */\n      and\n        /* \"#utility.yul\":20757:20795   */\n      swap1\n      pop\n        /* \"#utility.yul\":20699:20801   */\n      swap2\n      swap1\n      pop\n      jump\t// out\n        /* \"#utility.yul\":20807:21034   */\n    tag_334:\n        /* \"#utility.yul\":20947:20981   */\n      0x63616c6c6572206973206e6f7420656c696769626c6520666f72206e65787420\n        /* \"#utility.yul\":20943:20944   */\n      0x00\n        /* \"#utility.yul\":20935:20941   */\n      dup3\n        /* \"#utility.yul\":20931:20945   */\n      add\n        /* \"#utility.yul\":20924:20982   */\n      mstore\n        /* \"#utility.yul\":21016:21026   */\n      0x7769746864726177000000000000000000000000000000000000000000000000\n        /* \"#utility.yul\":21011:21013   */\n      0x20\n        /* \"#utility.yul\":21003:21009   */\n      dup3\n        /* \"#utility.yul\":20999:21014   */\n      add\n        /* \"#utility.yul\":20992:21027   */\n      mstore\n        /* \"#utility.yul\":20807:21034   */\n      pop\n      jump\t// out\n        /* \"#utility.yul\":21040:21222   */\n    tag_339:\n        /* \"#utility.yul\":21180:21214   */\n      0x537472696e67733a20686578206c656e67746820696e73756666696369656e74\n        /* \"#utility.yul\":21176:21177   */\n      0x00\n        /* \"#utility.yul\":21168:21174   */\n      dup3\n        /* \"#utility.yul\":21164:21178   */\n      add\n        /* \"#utility.yul\":21157:21215   */\n      mstore\n        /* \"#utility.yul\":21040:21222   */\n      pop\n      jump\t// out\n        /* \"#utility.yul\":21228:21405   */\n    tag_344:\n        /* \"#utility.yul\":21368:21397   */\n      0x63616c6c6572206973206e6f742061646d696e6973747261746f720000000000\n        /* \"#utility.yul\":21364:21365   */\n      0x00\n        /* \"#utility.yul\":21356:21362   */\n      dup3\n        /* \"#utility.yul\":21352:21366   */\n      add\n        /* \"#utility.yul\":21345:21398   */\n      mstore\n        /* \"#utility.yul\":21228:21405   */\n      pop\n      jump\t// out\n        /* \"#utility.yul\":21411:21632   */\n    tag_349:\n        /* \"#utility.yul\":21551:21585   */\n      0x6661696c656420746f207472616e736665722067617320746f20746865207573\n        /* \"#utility.yul\":21547:21548   */\n      0x00\n        /* \"#utility.yul\":21539:21545   */\n      dup3\n        /* \"#utility.yul\":21535:21549   */\n      add\n        /* \"#utility.yul\":21528:21586   */\n      mstore\n        /* \"#utility.yul\":21620:21624   */\n      0x6572000000000000000000000000000000000000000000000000000000000000\n        /* \"#utility.yul\":21615:21617   */\n      0x20\n        /* \"#utility.yul\":21607:21613   */\n      dup3\n        /* \"#utility.yul\":21603:21618   */\n      add\n        /* \"#utility.yul\":21596:21625   */\n      mstore\n        /* \"#utility.yul\":21411:21632   */\n      pop\n      jump\t// out\n        /* \"#utility.yul\":21638:21816   */\n    tag_354:\n        /* \"#utility.yul\":21778:21808   */\n      0x6e6f7420656e6f7567682066756e647320696e20636f6e747261637400000000\n        /* \"#utility.yul\":21774:21775   */\n      0x00\n        /* \"#utility.yul\":21766:21772   */\n      dup3\n        /* \"#utility.yul\":21762:21776   */\n      add\n        /* \"#utility.yul\":21755:21809   */\n      mstore\n        /* \"#utility.yul\":21638:21816   */\n      pop\n      jump\t// out\n        /* \"#utility.yul\":21822:21984   */\n    tag_359:\n        /* \"#utility.yul\":21962:21976   */\n      0x6661696c65642072657061790000000000000000000000000000000000000000\n        /* \"#utility.yul\":21958:21959   */\n      0x00\n        /* \"#utility.yul\":21950:21956   */\n      dup3\n        /* \"#utility.yul\":21946:21960   */\n      add\n        /* \"#utility.yul\":21939:21977   */\n      mstore\n        /* \"#utility.yul\":21822:21984   */\n      pop\n      jump\t// out\n        /* \"#utility.yul\":21990:22219   */\n    tag_364:\n        /* \"#utility.yul\":22130:22164   */\n      0x63616c6c6572206973206e6f7420656c696769626c6520666f72207769746864\n        /* \"#utility.yul\":22126:22127   */\n      0x00\n        /* \"#utility.yul\":22118:22124   */\n      dup3\n        /* \"#utility.yul\":22114:22128   */\n      add\n        /* \"#utility.yul\":22107:22165   */\n      mstore\n        /* \"#utility.yul\":22199:22211   */\n      0x72617720616d6f756e7400000000000000000000000000000000000000000000\n        /* \"#utility.yul\":22194:22196   */\n      0x20\n        /* \"#utility.yul\":22186:22192   */\n      dup3\n        /* \"#utility.yul\":22182:22197   */\n      add\n        /* \"#utility.yul\":22175:22212   */\n      mstore\n        /* \"#utility.yul\":21990:22219   */\n      pop\n      jump\t// out\n        /* \"#utility.yul\":22225:22339   */\n    tag_370:\n      pop\n      jump\t// out\n        /* \"#utility.yul\":22345:22518   */\n    tag_375:\n        /* \"#utility.yul\":22485:22510   */\n      0x416363657373436f6e74726f6c3a206163636f756e7420000000000000000000\n        /* \"#utility.yul\":22481:22482   */\n      0x00\n        /* \"#utility.yul\":22473:22479   */\n      dup3\n        /* \"#utility.yul\":22469:22483   */\n      add\n        /* \"#utility.yul\":22462:22511   */\n      mstore\n        /* \"#utility.yul\":22345:22518   */\n      pop\n      jump\t// out\n        /* \"#utility.yul\":22524:22689   */\n    tag_380:\n        /* \"#utility.yul\":22664:22681   */\n      0x7769746864726177206661696c65640000000000000000000000000000000000\n        /* \"#utility.yul\":22660:22661   */\n      0x00\n        /* \"#utility.yul\":22652:22658   */\n      dup3\n        /* \"#utility.yul\":22648:22662   */\n      add\n        /* \"#utility.yul\":22641:22682   */\n      mstore\n        /* \"#utility.yul\":22524:22689   */\n      pop\n      jump\t// out\n        /* \"#utility.yul\":22695:22862   */\n    tag_385:\n        /* \"#utility.yul\":22835:22854   */\n      0x206973206d697373696e6720726f6c6520000000000000000000000000000000\n        /* \"#utility.yul\":22831:22832   */\n      0x00\n        /* \"#utility.yul\":22823:22829   */\n      dup3\n        /* \"#utility.yul\":22819:22833   */\n      add\n        /* \"#utility.yul\":22812:22855   */\n      mstore\n        /* \"#utility.yul\":22695:22862   */\n      pop\n      jump\t// out\n        /* \"#utility.yul\":22868:23102   */\n    tag_390:\n        /* \"#utility.yul\":23008:23042   */\n      0x416363657373436f6e74726f6c3a2063616e206f6e6c792072656e6f756e6365\n        /* \"#utility.yul\":23004:23005   */\n      0x00\n        /* \"#utility.yul\":22996:23002   */\n      dup3\n        /* \"#utility.yul\":22992:23006   */\n      add\n        /* \"#utility.yul\":22985:23043   */\n      mstore\n        /* \"#utility.yul\":23077:23094   */\n      0x20726f6c657320666f722073656c660000000000000000000000000000000000\n        /* \"#utility.yul\":23072:23074   */\n      0x20\n        /* \"#utility.yul\":23064:23070   */\n      dup3\n        /* \"#utility.yul\":23060:23075   */\n      add\n        /* \"#utility.yul\":23053:23095   */\n      mstore\n        /* \"#utility.yul\":22868:23102   */\n      pop\n      jump\t// out\n        /* \"#utility.yul\":23108:23230   */\n    tag_252:\n        /* \"#utility.yul\":23181:23205   */\n      tag_508\n        /* \"#utility.yul\":23199:23204   */\n      dup2\n        /* \"#utility.yul\":23181:23205   */\n      tag_305\n      jump\t// in\n    tag_508:\n        /* \"#utility.yul\":23174:23179   */\n      dup2\n        /* \"#utility.yul\":23171:23206   */\n      eq\n        /* \"#utility.yul\":23161:23224   */\n      tag_509\n      jumpi\n        /* \"#utility.yul\":23220:23221   */\n      0x00\n        /* \"#utility.yul\":23217:23218   */\n      dup1\n        /* \"#utility.yul\":23210:23222   */\n      revert\n        /* \"#utility.yul\":23161:23224   */\n    tag_509:\n        /* \"#utility.yul\":23108:23230   */\n      pop\n      jump\t// out\n        /* \"#utility.yul\":23236:23352   */\n    tag_256:\n        /* \"#utility.yul\":23306:23327   */\n      tag_511\n        /* \"#utility.yul\":23321:23326   */\n      dup2\n        /* \"#utility.yul\":23306:23327   */\n      tag_309\n      jump\t// in\n    tag_511:\n        /* \"#utility.yul\":23299:23304   */\n      dup2\n        /* \"#utility.yul\":23296:23328   */\n      eq\n        /* \"#utility.yul\":23286:23346   */\n      tag_512\n      jumpi\n        /* \"#utility.yul\":23342:23343   */\n      0x00\n        /* \"#utility.yul\":23339:23340   */\n      dup1\n        /* \"#utility.yul\":23332:23344   */\n      revert\n        /* \"#utility.yul\":23286:23346   */\n    tag_512:\n        /* \"#utility.yul\":23236:23352   */\n      pop\n      jump\t// out\n        /* \"#utility.yul\":23358:23480   */\n    tag_260:\n        /* \"#utility.yul\":23431:23455   */\n      tag_514\n        /* \"#utility.yul\":23449:23454   */\n      dup2\n        /* \"#utility.yul\":23431:23455   */\n      tag_313\n      jump\t// in\n    tag_514:\n        /* \"#utility.yul\":23424:23429   */\n      dup2\n        /* \"#utility.yul\":23421:23456   */\n      eq\n        /* \"#utility.yul\":23411:23474   */\n      tag_515\n      jumpi\n        /* \"#utility.yul\":23470:23471   */\n      0x00\n        /* \"#utility.yul\":23467:23468   */\n      dup1\n        /* \"#utility.yul\":23460:23472   */\n      revert\n        /* \"#utility.yul\":23411:23474   */\n    tag_515:\n        /* \"#utility.yul\":23358:23480   */\n      pop\n      jump\t// out\n        /* \"#utility.yul\":23486:23606   */\n    tag_264:\n        /* \"#utility.yul\":23558:23581   */\n      tag_517\n        /* \"#utility.yul\":23575:23580   */\n      dup2\n        /* \"#utility.yul\":23558:23581   */\n      tag_474\n      jump\t// in\n    tag_517:\n        /* \"#utility.yul\":23551:23556   */\n      dup2\n        /* \"#utility.yul\":23548:23582   */\n      eq\n        /* \"#utility.yul\":23538:23600   */\n      tag_518\n      jumpi\n        /* \"#utility.yul\":23596:23597   */\n      0x00\n        /* \"#utility.yul\":23593:23594   */\n      dup1\n        /* \"#utility.yul\":23586:23598   */\n      revert\n        /* \"#utility.yul\":23538:23600   */\n    tag_518:\n        /* \"#utility.yul\":23486:23606   */\n      pop\n      jump\t// out\n        /* \"#utility.yul\":23612:23734   */\n    tag_268:\n        /* \"#utility.yul\":23685:23709   */\n      tag_520\n        /* \"#utility.yul\":23703:23708   */\n      dup2\n        /* \"#utility.yul\":23685:23709   */\n      tag_394\n      jump\t// in\n    tag_520:\n        /* \"#utility.yul\":23678:23683   */\n      dup2\n        /* \"#utility.yul\":23675:23710   */\n      eq\n        /* \"#utility.yul\":23665:23728   */\n      tag_521\n      jumpi\n        /* \"#utility.yul\":23724:23725   */\n      0x00\n        /* \"#utility.yul\":23721:23722   */\n      dup1\n        /* \"#utility.yul\":23714:23726   */\n      revert\n        /* \"#utility.yul\":23665:23728   */\n    tag_521:\n        /* \"#utility.yul\":23612:23734   */\n      pop\n      jump\t// out\n\n    auxdata: 0xa26469706673582212202192a9431862bd90d7ee8442588dbe006e56f6b59ae2d0a82f2b16033d5f095364736f6c63430008070033\n}\n",
				"bytecode": {
					"linkReferences": {},
					"object": "60806040526512309ce540006002553480156200001b57600080fd5b50604051620023d5380380620023d583398181016040528101906200004191906200022e565b80600160006101000a81548173ffffffffffffffffffffffffffffffffffffffff021916908373ffffffffffffffffffffffffffffffffffffffff160217905550620000976000801b336200009e60201b60201c565b50620002b3565b620000b08282620000b460201b60201c565b5050565b620000c68282620001a560201b60201c565b620001a157600160008084815260200190815260200160002060000160008373ffffffffffffffffffffffffffffffffffffffff1673ffffffffffffffffffffffffffffffffffffffff16815260200190815260200160002060006101000a81548160ff021916908315150217905550620001466200020f60201b60201c565b73ffffffffffffffffffffffffffffffffffffffff168173ffffffffffffffffffffffffffffffffffffffff16837f2f8788117e7eff1d82e926ec794901d17c78024a50270940304540a733656f0d60405160405180910390a45b5050565b600080600084815260200190815260200160002060000160008373ffffffffffffffffffffffffffffffffffffffff1673ffffffffffffffffffffffffffffffffffffffff16815260200190815260200160002060009054906101000a900460ff16905092915050565b600033905090565b600081519050620002288162000299565b92915050565b60006020828403121562000247576200024662000294565b5b6000620002578482850162000217565b91505092915050565b60006200026d8262000274565b9050919050565b600073ffffffffffffffffffffffffffffffffffffffff82169050919050565b600080fd5b620002a48162000260565b8114620002b057600080fd5b50565b61211280620002c36000396000f3fe6080604052600436106100e85760003560e01c806350baa6221161008a578063add474da11610059578063add474da14610318578063d547741f14610355578063f7d19f5e1461037e578063fc0c546a1461039a576100e8565b806350baa6221461024a57806391d14854146102735780639c60b07e146102b0578063a217fddf146102ed576100e8565b80632e1a7d4d116100c65780632e1a7d4d146101a65780632f2ff15d146101cf57806336568abe146101f8578063371fd8e614610221576100e8565b806301ffc9a7146100ed57806309e69ede1461012a578063248a9ca314610169575b600080fd5b3480156100f957600080fd5b50610114600480360381019061010f91906115b2565b6103c5565b604051610121919061194d565b60405180910390f35b34801561013657600080fd5b50610151600480360381019061014c91906114eb565b61043f565b60405161016093929190611ae0565b60405180910390f35b34801561017557600080fd5b50610190600480360381019061018b9190611545565b610469565b60405161019d9190611968565b60405180910390f35b3480156101b257600080fd5b506101cd60048036038101906101c891906115df565b610488565b005b3480156101db57600080fd5b506101f660048036038101906101f19190611572565b6107f9565b005b34801561020457600080fd5b5061021f600480360381019061021a9190611572565b61081a565b005b34801561022d57600080fd5b50610248600480360381019061024391906115df565b61089d565b005b34801561025657600080fd5b50610271600480360381019061026c91906115df565b610af7565b005b34801561027f57600080fd5b5061029a60048036038101906102959190611572565b610bfc565b6040516102a7919061194d565b60405180910390f35b3480156102bc57600080fd5b506102d760048036038101906102d291906114eb565b610c66565b6040516102e49190611ac5565b60405180910390f35b3480156102f957600080fd5b50610302610cff565b60405161030f9190611968565b60405180910390f35b34801561032457600080fd5b5061033f600480360381019061033a91906114eb565b610d06565b60405161034c919061194d565b60405180910390f35b34801561036157600080fd5b5061037c60048036038101906103779190611572565b610d55565b005b610398600480360381019061039391906114eb565b610d76565b005b3480156103a657600080fd5b506103af610f27565b6040516103bc91906118d2565b60405180910390f35b60007f7965db0b000000000000000000000000000000000000000000000000000000007bffffffffffffffffffffffffffffffffffffffffffffffffffffffff1916827bffffffffffffffffffffffffffffffffffffffffffffffffffffffff19161480610438575061043782610f4d565b5b9050919050565b60036020528060005260406000206000915090508060000154908060010154908060020154905083565b6000806000838152602001908152602001600020600101549050919050565b6000600160009054906101000a900473ffffffffffffffffffffffffffffffffffffffff1673ffffffffffffffffffffffffffffffffffffffff166370a08231306040518263ffffffff1660e01b81526004016104e591906118d2565b60206040518083038186803b1580156104fd57600080fd5b505afa158015610511573d6000803e3d6000fd5b505050506040513d601f19601f82011682018060405250810190610535919061160c565b9050818111610579576040517f08c379a000000000000000000000000000000000000000000000000000000000815260040161057090611a25565b60405180910390fd5b6000600360003373ffffffffffffffffffffffffffffffffffffffff1673ffffffffffffffffffffffffffffffffffffffff168152602001908152602001600020604051806060016040529081600082015481526020016001820154815260200160028201548152505090504381604001511061062b576040517f08c379a0000000000000000000000000000000000000000000000000000000008152600401610622906119a5565b60405180910390fd5b82816000015111610671576040517f08c379a000000000000000000000000000000000000000000000000000000000815260040161066890611a65565b60405180910390fd5b8281600001516106819190611c2a565b8160200151106106c6576040517f08c379a00000000000000000000000000000000000000000000000000000000081526004016106bd90611a65565b60405180910390fd5b600160009054906101000a900473ffffffffffffffffffffffffffffffffffffffff1673ffffffffffffffffffffffffffffffffffffffff1663a9059cbb33856040518363ffffffff1660e01b8152600401610723929190611924565b602060405180830381600087803b15801561073d57600080fd5b505af1158015610751573d6000803e3d6000fd5b505050506040513d601f19601f820116820180604052508101906107759190611518565b6107b4576040517f08c379a00000000000000000000000000000000000000000000000000000000081526004016107ab90611a85565b60405180910390fd5b82816020018181516107c69190611b49565b91508181525050620106d0436107dc9190611b49565b816040018181516107ed9190611b49565b91508181525050505050565b61080282610469565b61080b81610fb7565b6108158383610fcb565b505050565b6108226110ab565b73ffffffffffffffffffffffffffffffffffffffff168173ffffffffffffffffffffffffffffffffffffffff161461088f576040517f08c379a000000000000000000000000000000000000000000000000000000000815260040161088690611aa5565b60405180910390fd5b61089982826110b3565b5050565b600160009054906101000a900473ffffffffffffffffffffffffffffffffffffffff1673ffffffffffffffffffffffffffffffffffffffff166323b872dd3330846040518463ffffffff1660e01b81526004016108fc939291906118ed565b602060405180830381600087803b15801561091657600080fd5b505af115801561092a573d6000803e3d6000fd5b505050506040513d601f19601f8201168201806040525081019061094e9190611518565b61098d576040517f08c379a000000000000000000000000000000000000000000000000000000000815260040161098490611a45565b60405180910390fd5b80600360003373ffffffffffffffffffffffffffffffffffffffff1673ffffffffffffffffffffffffffffffffffffffff16815260200190815260200160002060010160008282546109df9190611c2a565b925050819055506000600360003373ffffffffffffffffffffffffffffffffffffffff1673ffffffffffffffffffffffffffffffffffffffff16815260200190815260200160002060010154905080821015610a3b5750610af4565b600060646069600360003373ffffffffffffffffffffffffffffffffffffffff1673ffffffffffffffffffffffffffffffffffffffff16815260200190815260200160002060000154610a8e9190611bd0565b610a989190611b9f565b9050600254811115610aaa5760025490505b80600360003373ffffffffffffffffffffffffffffffffffffffff1673ffffffffffffffffffffffffffffffffffffffff1681526020019081526020016000206000018190555050505b50565b610b046000801b33610bfc565b610b43576040517f08c379a0000000000000000000000000000000000000000000000000000000008152600401610b3a906119e5565b60405180910390fd5b6000600160009054906101000a900473ffffffffffffffffffffffffffffffffffffffff1690508073ffffffffffffffffffffffffffffffffffffffff1663a9059cbb33846040518363ffffffff1660e01b8152600401610ba5929190611924565b602060405180830381600087803b158015610bbf57600080fd5b505af1158015610bd3573d6000803e3d6000fd5b505050506040513d601f19601f82011682018060405250810190610bf79190611518565b505050565b600080600084815260200190815260200160002060000160008373ffffffffffffffffffffffffffffffffffffffff1673ffffffffffffffffffffffffffffffffffffffff16815260200190815260200160002060009054906101000a900460ff16905092915050565b6000600360008373ffffffffffffffffffffffffffffffffffffffff1673ffffffffffffffffffffffffffffffffffffffff16815260200190815260200160002060010154600360008473ffffffffffffffffffffffffffffffffffffffff1673ffffffffffffffffffffffffffffffffffffffff16815260200190815260200160002060000154610cf89190611c2a565b9050919050565b6000801b81565b600080600360008473ffffffffffffffffffffffffffffffffffffffff1673ffffffffffffffffffffffffffffffffffffffff1681526020019081526020016000206000015414159050919050565b610d5e82610469565b610d6781610fb7565b610d7183836110b3565b505050565b610d836000801b33610bfc565b610dc2576040517f08c379a0000000000000000000000000000000000000000000000000000000008152600401610db9906119e5565b60405180910390fd5b60008173ffffffffffffffffffffffffffffffffffffffff1634604051610de890611883565b60006040518083038185875af1925050503d8060008114610e25576040519150601f19603f3d011682016040523d82523d6000602084013e610e2a565b606091505b5050905080610e6e576040517f08c379a0000000000000000000000000000000000000000000000000000000008152600401610e6590611a05565b60405180910390fd5b604051806060016040528060025481526020016000815260200143815250600360008473ffffffffffffffffffffffffffffffffffffffff1673ffffffffffffffffffffffffffffffffffffffff1681526020019081526020016000206000820151816000015560208201518160010155604082015181600201559050507fb40223cb2fd2f5f68c1edc600b630cde6097946002f42d44bbc15560739e1e3d82604051610f1b91906118d2565b60405180910390a15050565b600160009054906101000a900473ffffffffffffffffffffffffffffffffffffffff1681565b60007f01ffc9a7000000000000000000000000000000000000000000000000000000007bffffffffffffffffffffffffffffffffffffffffffffffffffffffff1916827bffffffffffffffffffffffffffffffffffffffffffffffffffffffff1916149050919050565b610fc881610fc36110ab565b611194565b50565b610fd58282610bfc565b6110a757600160008084815260200190815260200160002060000160008373ffffffffffffffffffffffffffffffffffffffff1673ffffffffffffffffffffffffffffffffffffffff16815260200190815260200160002060006101000a81548160ff02191690831515021790555061104c6110ab565b73ffffffffffffffffffffffffffffffffffffffff168173ffffffffffffffffffffffffffffffffffffffff16837f2f8788117e7eff1d82e926ec794901d17c78024a50270940304540a733656f0d60405160405180910390a45b5050565b600033905090565b6110bd8282610bfc565b1561119057600080600084815260200190815260200160002060000160008373ffffffffffffffffffffffffffffffffffffffff1673ffffffffffffffffffffffffffffffffffffffff16815260200190815260200160002060006101000a81548160ff0219169083151502179055506111356110ab565b73ffffffffffffffffffffffffffffffffffffffff168173ffffffffffffffffffffffffffffffffffffffff16837ff6391f5c32d9c69d2a47ea670b442974b53935d1edc7fd64eb21e047a839171b60405160405180910390a45b5050565b61119e8282610bfc565b61122d576111c38173ffffffffffffffffffffffffffffffffffffffff166014611231565b6111d18360001c6020611231565b6040516020016111e2929190611898565b6040516020818303038152906040526040517f08c379a00000000000000000000000000000000000000000000000000000000081526004016112249190611983565b60405180910390fd5b5050565b6060600060028360026112449190611bd0565b61124e9190611b49565b67ffffffffffffffff81111561126757611266611dc6565b5b6040519080825280601f01601f1916602001820160405280156112995781602001600182028036833780820191505090505b5090507f3000000000000000000000000000000000000000000000000000000000000000816000815181106112d1576112d0611d97565b5b60200101907effffffffffffffffffffffffffffffffffffffffffffffffffffffffffffff1916908160001a9053507f78000000000000000000000000000000000000000000000000000000000000008160018151811061133557611334611d97565b5b60200101907effffffffffffffffffffffffffffffffffffffffffffffffffffffffffffff1916908160001a905350600060018460026113759190611bd0565b61137f9190611b49565b90505b600181111561141f577f3031323334353637383961626364656600000000000000000000000000000000600f8616601081106113c1576113c0611d97565b5b1a60f81b8282815181106113d8576113d7611d97565b5b60200101907effffffffffffffffffffffffffffffffffffffffffffffffffffffffffffff1916908160001a905350600485901c94508061141890611d0f565b9050611382565b5060008414611463576040517f08c379a000000000000000000000000000000000000000000000000000000000815260040161145a906119c5565b60405180910390fd5b8091505092915050565b60008135905061147c81612069565b92915050565b60008151905061149181612080565b92915050565b6000813590506114a681612097565b92915050565b6000813590506114bb816120ae565b92915050565b6000813590506114d0816120c5565b92915050565b6000815190506114e5816120c5565b92915050565b60006020828403121561150157611500611df5565b5b600061150f8482850161146d565b91505092915050565b60006020828403121561152e5761152d611df5565b5b600061153c84828501611482565b91505092915050565b60006020828403121561155b5761155a611df5565b5b600061156984828501611497565b91505092915050565b6000806040838503121561158957611588611df5565b5b600061159785828601611497565b92505060206115a88582860161146d565b9150509250929050565b6000602082840312156115c8576115c7611df5565b5b60006115d6848285016114ac565b91505092915050565b6000602082840312156115f5576115f4611df5565b5b6000611603848285016114c1565b91505092915050565b60006020828403121561162257611621611df5565b5b6000611630848285016114d6565b91505092915050565b61164281611c5e565b82525050565b61165181611c70565b82525050565b61166081611c7c565b82525050565b600061167182611b17565b61167b8185611b2d565b935061168b818560208601611cdc565b61169481611dfa565b840191505092915050565b60006116aa82611b17565b6116b48185611b3e565b93506116c4818560208601611cdc565b80840191505092915050565b60006116dd602883611b2d565b91506116e882611e0b565b604082019050919050565b6000611700602083611b2d565b915061170b82611e5a565b602082019050919050565b6000611723601b83611b2d565b915061172e82611e83565b602082019050919050565b6000611746602283611b2d565b915061175182611eac565b604082019050919050565b6000611769601c83611b2d565b915061177482611efb565b602082019050919050565b600061178c600c83611b2d565b915061179782611f24565b602082019050919050565b60006117af602a83611b2d565b91506117ba82611f4d565b604082019050919050565b60006117d2600083611b22565b91506117dd82611f9c565b600082019050919050565b60006117f5601783611b3e565b915061180082611f9f565b601782019050919050565b6000611818600f83611b2d565b915061182382611fc8565b602082019050919050565b600061183b601183611b3e565b915061184682611ff1565b601182019050919050565b600061185e602f83611b2d565b91506118698261201a565b604082019050919050565b61187d81611cd2565b82525050565b600061188e826117c5565b9150819050919050565b60006118a3826117e8565b91506118af828561169f565b91506118ba8261182e565b91506118c6828461169f565b91508190509392505050565b60006020820190506118e76000830184611639565b92915050565b60006060820190506119026000830186611639565b61190f6020830185611639565b61191c6040830184611874565b949350505050565b60006040820190506119396000830185611639565b6119466020830184611874565b9392505050565b60006020820190506119626000830184611648565b92915050565b600060208201905061197d6000830184611657565b92915050565b6000602082019050818103600083015261199d8184611666565b905092915050565b600060208201905081810360008301526119be816116d0565b9050919050565b600060208201905081810360008301526119de816116f3565b9050919050565b600060208201905081810360008301526119fe81611716565b9050919050565b60006020820190508181036000830152611a1e81611739565b9050919050565b60006020820190508181036000830152611a3e8161175c565b9050919050565b60006020820190508181036000830152611a5e8161177f565b9050919050565b60006020820190508181036000830152611a7e816117a2565b9050919050565b60006020820190508181036000830152611a9e8161180b565b9050919050565b60006020820190508181036000830152611abe81611851565b9050919050565b6000602082019050611ada6000830184611874565b92915050565b6000606082019050611af56000830186611874565b611b026020830185611874565b611b0f6040830184611874565b949350505050565b600081519050919050565b600081905092915050565b600082825260208201905092915050565b600081905092915050565b6000611b5482611cd2565b9150611b5f83611cd2565b9250827fffffffffffffffffffffffffffffffffffffffffffffffffffffffffffffffff03821115611b9457611b93611d39565b5b828201905092915050565b6000611baa82611cd2565b9150611bb583611cd2565b925082611bc557611bc4611d68565b5b828204905092915050565b6000611bdb82611cd2565b9150611be683611cd2565b9250817fffffffffffffffffffffffffffffffffffffffffffffffffffffffffffffffff0483118215151615611c1f57611c1e611d39565b5b828202905092915050565b6000611c3582611cd2565b9150611c4083611cd2565b925082821015611c5357611c52611d39565b5b828203905092915050565b6000611c6982611cb2565b9050919050565b60008115159050919050565b6000819050919050565b60007fffffffff0000000000000000000000000000000000000000000000000000000082169050919050565b600073ffffffffffffffffffffffffffffffffffffffff82169050919050565b6000819050919050565b60005b83811015611cfa578082015181840152602081019050611cdf565b83811115611d09576000848401525b50505050565b6000611d1a82611cd2565b91506000821415611d2e57611d2d611d39565b5b600182039050919050565b7f4e487b7100000000000000000000000000000000000000000000000000000000600052601160045260246000fd5b7f4e487b7100000000000000000000000000000000000000000000000000000000600052601260045260246000fd5b7f4e487b7100000000000000000000000000000000000000000000000000000000600052603260045260246000fd5b7f4e487b7100000000000000000000000000000000000000000000000000000000600052604160045260246000fd5b600080fd5b6000601f19601f8301169050919050565b7f63616c6c6572206973206e6f7420656c696769626c6520666f72206e6578742060008201527f7769746864726177000000000000000000000000000000000000000000000000602082015250565b7f537472696e67733a20686578206c656e67746820696e73756666696369656e74600082015250565b7f63616c6c6572206973206e6f742061646d696e6973747261746f720000000000600082015250565b7f6661696c656420746f207472616e736665722067617320746f2074686520757360008201527f6572000000000000000000000000000000000000000000000000000000000000602082015250565b7f6e6f7420656e6f7567682066756e647320696e20636f6e747261637400000000600082015250565b7f6661696c65642072657061790000000000000000000000000000000000000000600082015250565b7f63616c6c6572206973206e6f7420656c696769626c6520666f7220776974686460008201527f72617720616d6f756e7400000000000000000000000000000000000000000000602082015250565b50565b7f416363657373436f6e74726f6c3a206163636f756e7420000000000000000000600082015250565b7f7769746864726177206661696c65640000000000000000000000000000000000600082015250565b7f206973206d697373696e6720726f6c6520000000000000000000000000000000600082015250565b7f416363657373436f6e74726f6c3a2063616e206f6e6c792072656e6f756e636560008201527f20726f6c657320666f722073656c660000000000000000000000000000000000602082015250565b61207281611c5e565b811461207d57600080fd5b50565b61208981611c70565b811461209457600080fd5b50565b6120a081611c7c565b81146120ab57600080fd5b50565b6120b781611c86565b81146120c257600080fd5b50565b6120ce81611cd2565b81146120d957600080fd5b5056fea26469706673582212202192a9431862bd90d7ee8442588dbe006e56f6b59ae2d0a82f2b16033d5f095364736f6c63430008070033",
					"opcodes": "PUSH1 0x80 PUSH1 0x40 MSTORE PUSH6 0x12309CE54000 PUSH1 0x2 SSTORE CALLVALUE DUP1 ISZERO PUSH3 0x1B JUMPI PUSH1 0x0 DUP1 REVERT JUMPDEST POP PUSH1 0x40 MLOAD PUSH3 0x23D5 CODESIZE SUB DUP1 PUSH3 0x23D5 DUP4 CODECOPY DUP2 DUP2 ADD PUSH1 0x40 MSTORE DUP2 ADD SWAP1 PUSH3 0x41 SWAP2 SWAP1 PUSH3 0x22E JUMP JUMPDEST DUP1 PUSH1 0x1 PUSH1 0x0 PUSH2 0x100 EXP DUP2 SLOAD DUP2 PUSH20 0xFFFFFFFFFFFFFFFFFFFFFFFFFFFFFFFFFFFFFFFF MUL NOT AND SWAP1 DUP4 PUSH20 0xFFFFFFFFFFFFFFFFFFFFFFFFFFFFFFFFFFFFFFFF AND MUL OR SWAP1 SSTORE POP PUSH3 0x97 PUSH1 0x0 DUP1 SHL CALLER PUSH3 0x9E PUSH1 0x20 SHL PUSH1 0x20 SHR JUMP JUMPDEST POP PUSH3 0x2B3 JUMP JUMPDEST PUSH3 0xB0 DUP3 DUP3 PUSH3 0xB4 PUSH1 0x20 SHL PUSH1 0x20 SHR JUMP JUMPDEST POP POP JUMP JUMPDEST PUSH3 0xC6 DUP3 DUP3 PUSH3 0x1A5 PUSH1 0x20 SHL PUSH1 0x20 SHR JUMP JUMPDEST PUSH3 0x1A1 JUMPI PUSH1 0x1 PUSH1 0x0 DUP1 DUP5 DUP2 MSTORE PUSH1 0x20 ADD SWAP1 DUP2 MSTORE PUSH1 0x20 ADD PUSH1 0x0 KECCAK256 PUSH1 0x0 ADD PUSH1 0x0 DUP4 PUSH20 0xFFFFFFFFFFFFFFFFFFFFFFFFFFFFFFFFFFFFFFFF AND PUSH20 0xFFFFFFFFFFFFFFFFFFFFFFFFFFFFFFFFFFFFFFFF AND DUP2 MSTORE PUSH1 0x20 ADD SWAP1 DUP2 MSTORE PUSH1 0x20 ADD PUSH1 0x0 KECCAK256 PUSH1 0x0 PUSH2 0x100 EXP DUP2 SLOAD DUP2 PUSH1 0xFF MUL NOT AND SWAP1 DUP4 ISZERO ISZERO MUL OR SWAP1 SSTORE POP PUSH3 0x146 PUSH3 0x20F PUSH1 0x20 SHL PUSH1 0x20 SHR JUMP JUMPDEST PUSH20 0xFFFFFFFFFFFFFFFFFFFFFFFFFFFFFFFFFFFFFFFF AND DUP2 PUSH20 0xFFFFFFFFFFFFFFFFFFFFFFFFFFFFFFFFFFFFFFFF AND DUP4 PUSH32 0x2F8788117E7EFF1D82E926EC794901D17C78024A50270940304540A733656F0D PUSH1 0x40 MLOAD PUSH1 0x40 MLOAD DUP1 SWAP2 SUB SWAP1 LOG4 JUMPDEST POP POP JUMP JUMPDEST PUSH1 0x0 DUP1 PUSH1 0x0 DUP5 DUP2 MSTORE PUSH1 0x20 ADD SWAP1 DUP2 MSTORE PUSH1 0x20 ADD PUSH1 0x0 KECCAK256 PUSH1 0x0 ADD PUSH1 0x0 DUP4 PUSH20 0xFFFFFFFFFFFFFFFFFFFFFFFFFFFFFFFFFFFFFFFF AND PUSH20 0xFFFFFFFFFFFFFFFFFFFFFFFFFFFFFFFFFFFFFFFF AND DUP2 MSTORE PUSH1 0x20 ADD SWAP1 DUP2 MSTORE PUSH1 0x20 ADD PUSH1 0x0 KECCAK256 PUSH1 0x0 SWAP1 SLOAD SWAP1 PUSH2 0x100 EXP SWAP1 DIV PUSH1 0xFF AND SWAP1 POP SWAP3 SWAP2 POP POP JUMP JUMPDEST PUSH1 0x0 CALLER SWAP1 POP SWAP1 JUMP JUMPDEST PUSH1 0x0 DUP2 MLOAD SWAP1 POP PUSH3 0x228 DUP2 PUSH3 0x299 JUMP JUMPDEST SWAP3 SWAP2 POP POP JUMP JUMPDEST PUSH1 0x0 PUSH1 0x20 DUP3 DUP5 SUB SLT ISZERO PUSH3 0x247 JUMPI PUSH3 0x246 PUSH3 0x294 JUMP JUMPDEST JUMPDEST PUSH1 0x0 PUSH3 0x257 DUP5 DUP3 DUP6 ADD PUSH3 0x217 JUMP JUMPDEST SWAP2 POP POP SWAP3 SWAP2 POP POP JUMP JUMPDEST PUSH1 0x0 PUSH3 0x26D DUP3 PUSH3 0x274 JUMP JUMPDEST SWAP1 POP SWAP2 SWAP1 POP JUMP JUMPDEST PUSH1 0x0 PUSH20 0xFFFFFFFFFFFFFFFFFFFFFFFFFFFFFFFFFFFFFFFF DUP3 AND SWAP1 POP SWAP2 SWAP1 POP JUMP JUMPDEST PUSH1 0x0 DUP1 REVERT JUMPDEST PUSH3 0x2A4 DUP2 PUSH3 0x260 JUMP JUMPDEST DUP2 EQ PUSH3 0x2B0 JUMPI PUSH1 0x0 DUP1 REVERT JUMPDEST POP JUMP JUMPDEST PUSH2 0x2112 DUP1 PUSH3 0x2C3 PUSH1 0x0 CODECOPY PUSH1 0x0 RETURN INVALID PUSH1 0x80 PUSH1 0x40 MSTORE PUSH1 0x4 CALLDATASIZE LT PUSH2 0xE8 JUMPI PUSH1 0x0 CALLDATALOAD PUSH1 0xE0 SHR DUP1 PUSH4 0x50BAA622 GT PUSH2 0x8A JUMPI DUP1 PUSH4 0xADD474DA GT PUSH2 0x59 JUMPI DUP1 PUSH4 0xADD474DA EQ PUSH2 0x318 JUMPI DUP1 PUSH4 0xD547741F EQ PUSH2 0x355 JUMPI DUP1 PUSH4 0xF7D19F5E EQ PUSH2 0x37E JUMPI DUP1 PUSH4 0xFC0C546A EQ PUSH2 0x39A JUMPI PUSH2 0xE8 JUMP JUMPDEST DUP1 PUSH4 0x50BAA622 EQ PUSH2 0x24A JUMPI DUP1 PUSH4 0x91D14854 EQ PUSH2 0x273 JUMPI DUP1 PUSH4 0x9C60B07E EQ PUSH2 0x2B0 JUMPI DUP1 PUSH4 0xA217FDDF EQ PUSH2 0x2ED JUMPI PUSH2 0xE8 JUMP JUMPDEST DUP1 PUSH4 0x2E1A7D4D GT PUSH2 0xC6 JUMPI DUP1 PUSH4 0x2E1A7D4D EQ PUSH2 0x1A6 JUMPI DUP1 PUSH4 0x2F2FF15D EQ PUSH2 0x1CF JUMPI DUP1 PUSH4 0x36568ABE EQ PUSH2 0x1F8 JUMPI DUP1 PUSH4 0x371FD8E6 EQ PUSH2 0x221 JUMPI PUSH2 0xE8 JUMP JUMPDEST DUP1 PUSH4 0x1FFC9A7 EQ PUSH2 0xED JUMPI DUP1 PUSH4 0x9E69EDE EQ PUSH2 0x12A JUMPI DUP1 PUSH4 0x248A9CA3 EQ PUSH2 0x169 JUMPI JUMPDEST PUSH1 0x0 DUP1 REVERT JUMPDEST CALLVALUE DUP1 ISZERO PUSH2 0xF9 JUMPI PUSH1 0x0 DUP1 REVERT JUMPDEST POP PUSH2 0x114 PUSH1 0x4 DUP1 CALLDATASIZE SUB DUP2 ADD SWAP1 PUSH2 0x10F SWAP2 SWAP1 PUSH2 0x15B2 JUMP JUMPDEST PUSH2 0x3C5 JUMP JUMPDEST PUSH1 0x40 MLOAD PUSH2 0x121 SWAP2 SWAP1 PUSH2 0x194D JUMP JUMPDEST PUSH1 0x40 MLOAD DUP1 SWAP2 SUB SWAP1 RETURN JUMPDEST CALLVALUE DUP1 ISZERO PUSH2 0x136 JUMPI PUSH1 0x0 DUP1 REVERT JUMPDEST POP PUSH2 0x151 PUSH1 0x4 DUP1 CALLDATASIZE SUB DUP2 ADD SWAP1 PUSH2 0x14C SWAP2 SWAP1 PUSH2 0x14EB JUMP JUMPDEST PUSH2 0x43F JUMP JUMPDEST PUSH1 0x40 MLOAD PUSH2 0x160 SWAP4 SWAP3 SWAP2 SWAP1 PUSH2 0x1AE0 JUMP JUMPDEST PUSH1 0x40 MLOAD DUP1 SWAP2 SUB SWAP1 RETURN JUMPDEST CALLVALUE DUP1 ISZERO PUSH2 0x175 JUMPI PUSH1 0x0 DUP1 REVERT JUMPDEST POP PUSH2 0x190 PUSH1 0x4 DUP1 CALLDATASIZE SUB DUP2 ADD SWAP1 PUSH2 0x18B SWAP2 SWAP1 PUSH2 0x1545 JUMP JUMPDEST PUSH2 0x469 JUMP JUMPDEST PUSH1 0x40 MLOAD PUSH2 0x19D SWAP2 SWAP1 PUSH2 0x1968 JUMP JUMPDEST PUSH1 0x40 MLOAD DUP1 SWAP2 SUB SWAP1 RETURN JUMPDEST CALLVALUE DUP1 ISZERO PUSH2 0x1B2 JUMPI PUSH1 0x0 DUP1 REVERT JUMPDEST POP PUSH2 0x1CD PUSH1 0x4 DUP1 CALLDATASIZE SUB DUP2 ADD SWAP1 PUSH2 0x1C8 SWAP2 SWAP1 PUSH2 0x15DF JUMP JUMPDEST PUSH2 0x488 JUMP JUMPDEST STOP JUMPDEST CALLVALUE DUP1 ISZERO PUSH2 0x1DB JUMPI PUSH1 0x0 DUP1 REVERT JUMPDEST POP PUSH2 0x1F6 PUSH1 0x4 DUP1 CALLDATASIZE SUB DUP2 ADD SWAP1 PUSH2 0x1F1 SWAP2 SWAP1 PUSH2 0x1572 JUMP JUMPDEST PUSH2 0x7F9 JUMP JUMPDEST STOP JUMPDEST CALLVALUE DUP1 ISZERO PUSH2 0x204 JUMPI PUSH1 0x0 DUP1 REVERT JUMPDEST POP PUSH2 0x21F PUSH1 0x4 DUP1 CALLDATASIZE SUB DUP2 ADD SWAP1 PUSH2 0x21A SWAP2 SWAP1 PUSH2 0x1572 JUMP JUMPDEST PUSH2 0x81A JUMP JUMPDEST STOP JUMPDEST CALLVALUE DUP1 ISZERO PUSH2 0x22D JUMPI PUSH1 0x0 DUP1 REVERT JUMPDEST POP PUSH2 0x248 PUSH1 0x4 DUP1 CALLDATASIZE SUB DUP2 ADD SWAP1 PUSH2 0x243 SWAP2 SWAP1 PUSH2 0x15DF JUMP JUMPDEST PUSH2 0x89D JUMP JUMPDEST STOP JUMPDEST CALLVALUE DUP1 ISZERO PUSH2 0x256 JUMPI PUSH1 0x0 DUP1 REVERT JUMPDEST POP PUSH2 0x271 PUSH1 0x4 DUP1 CALLDATASIZE SUB DUP2 ADD SWAP1 PUSH2 0x26C SWAP2 SWAP1 PUSH2 0x15DF JUMP JUMPDEST PUSH2 0xAF7 JUMP JUMPDEST STOP JUMPDEST CALLVALUE DUP1 ISZERO PUSH2 0x27F JUMPI PUSH1 0x0 DUP1 REVERT JUMPDEST POP PUSH2 0x29A PUSH1 0x4 DUP1 CALLDATASIZE SUB DUP2 ADD SWAP1 PUSH2 0x295 SWAP2 SWAP1 PUSH2 0x1572 JUMP JUMPDEST PUSH2 0xBFC JUMP JUMPDEST PUSH1 0x40 MLOAD PUSH2 0x2A7 SWAP2 SWAP1 PUSH2 0x194D JUMP JUMPDEST PUSH1 0x40 MLOAD DUP1 SWAP2 SUB SWAP1 RETURN JUMPDEST CALLVALUE DUP1 ISZERO PUSH2 0x2BC JUMPI PUSH1 0x0 DUP1 REVERT JUMPDEST POP PUSH2 0x2D7 PUSH1 0x4 DUP1 CALLDATASIZE SUB DUP2 ADD SWAP1 PUSH2 0x2D2 SWAP2 SWAP1 PUSH2 0x14EB JUMP JUMPDEST PUSH2 0xC66 JUMP JUMPDEST PUSH1 0x40 MLOAD PUSH2 0x2E4 SWAP2 SWAP1 PUSH2 0x1AC5 JUMP JUMPDEST PUSH1 0x40 MLOAD DUP1 SWAP2 SUB SWAP1 RETURN JUMPDEST CALLVALUE DUP1 ISZERO PUSH2 0x2F9 JUMPI PUSH1 0x0 DUP1 REVERT JUMPDEST POP PUSH2 0x302 PUSH2 0xCFF JUMP JUMPDEST PUSH1 0x40 MLOAD PUSH2 0x30F SWAP2 SWAP1 PUSH2 0x1968 JUMP JUMPDEST PUSH1 0x40 MLOAD DUP1 SWAP2 SUB SWAP1 RETURN JUMPDEST CALLVALUE DUP1 ISZERO PUSH2 0x324 JUMPI PUSH1 0x0 DUP1 REVERT JUMPDEST POP PUSH2 0x33F PUSH1 0x4 DUP1 CALLDATASIZE SUB DUP2 ADD SWAP1 PUSH2 0x33A SWAP2 SWAP1 PUSH2 0x14EB JUMP JUMPDEST PUSH2 0xD06 JUMP JUMPDEST PUSH1 0x40 MLOAD PUSH2 0x34C SWAP2 SWAP1 PUSH2 0x194D JUMP JUMPDEST PUSH1 0x40 MLOAD DUP1 SWAP2 SUB SWAP1 RETURN JUMPDEST CALLVALUE DUP1 ISZERO PUSH2 0x361 JUMPI PUSH1 0x0 DUP1 REVERT JUMPDEST POP PUSH2 0x37C PUSH1 0x4 DUP1 CALLDATASIZE SUB DUP2 ADD SWAP1 PUSH2 0x377 SWAP2 SWAP1 PUSH2 0x1572 JUMP JUMPDEST PUSH2 0xD55 JUMP JUMPDEST STOP JUMPDEST PUSH2 0x398 PUSH1 0x4 DUP1 CALLDATASIZE SUB DUP2 ADD SWAP1 PUSH2 0x393 SWAP2 SWAP1 PUSH2 0x14EB JUMP JUMPDEST PUSH2 0xD76 JUMP JUMPDEST STOP JUMPDEST CALLVALUE DUP1 ISZERO PUSH2 0x3A6 JUMPI PUSH1 0x0 DUP1 REVERT JUMPDEST POP PUSH2 0x3AF PUSH2 0xF27 JUMP JUMPDEST PUSH1 0x40 MLOAD PUSH2 0x3BC SWAP2 SWAP1 PUSH2 0x18D2 JUMP JUMPDEST PUSH1 0x40 MLOAD DUP1 SWAP2 SUB SWAP1 RETURN JUMPDEST PUSH1 0x0 PUSH32 0x7965DB0B00000000000000000000000000000000000000000000000000000000 PUSH28 0xFFFFFFFFFFFFFFFFFFFFFFFFFFFFFFFFFFFFFFFFFFFFFFFFFFFFFFFF NOT AND DUP3 PUSH28 0xFFFFFFFFFFFFFFFFFFFFFFFFFFFFFFFFFFFFFFFFFFFFFFFFFFFFFFFF NOT AND EQ DUP1 PUSH2 0x438 JUMPI POP PUSH2 0x437 DUP3 PUSH2 0xF4D JUMP JUMPDEST JUMPDEST SWAP1 POP SWAP2 SWAP1 POP JUMP JUMPDEST PUSH1 0x3 PUSH1 0x20 MSTORE DUP1 PUSH1 0x0 MSTORE PUSH1 0x40 PUSH1 0x0 KECCAK256 PUSH1 0x0 SWAP2 POP SWAP1 POP DUP1 PUSH1 0x0 ADD SLOAD SWAP1 DUP1 PUSH1 0x1 ADD SLOAD SWAP1 DUP1 PUSH1 0x2 ADD SLOAD SWAP1 POP DUP4 JUMP JUMPDEST PUSH1 0x0 DUP1 PUSH1 0x0 DUP4 DUP2 MSTORE PUSH1 0x20 ADD SWAP1 DUP2 MSTORE PUSH1 0x20 ADD PUSH1 0x0 KECCAK256 PUSH1 0x1 ADD SLOAD SWAP1 POP SWAP2 SWAP1 POP JUMP JUMPDEST PUSH1 0x0 PUSH1 0x1 PUSH1 0x0 SWAP1 SLOAD SWAP1 PUSH2 0x100 EXP SWAP1 DIV PUSH20 0xFFFFFFFFFFFFFFFFFFFFFFFFFFFFFFFFFFFFFFFF AND PUSH20 0xFFFFFFFFFFFFFFFFFFFFFFFFFFFFFFFFFFFFFFFF AND PUSH4 0x70A08231 ADDRESS PUSH1 0x40 MLOAD DUP3 PUSH4 0xFFFFFFFF AND PUSH1 0xE0 SHL DUP2 MSTORE PUSH1 0x4 ADD PUSH2 0x4E5 SWAP2 SWAP1 PUSH2 0x18D2 JUMP JUMPDEST PUSH1 0x20 PUSH1 0x40 MLOAD DUP1 DUP4 SUB DUP2 DUP7 DUP1 EXTCODESIZE ISZERO DUP1 ISZERO PUSH2 0x4FD JUMPI PUSH1 0x0 DUP1 REVERT JUMPDEST POP GAS STATICCALL ISZERO DUP1 ISZERO PUSH2 0x511 JUMPI RETURNDATASIZE PUSH1 0x0 DUP1 RETURNDATACOPY RETURNDATASIZE PUSH1 0x0 REVERT JUMPDEST POP POP POP POP PUSH1 0x40 MLOAD RETURNDATASIZE PUSH1 0x1F NOT PUSH1 0x1F DUP3 ADD AND DUP3 ADD DUP1 PUSH1 0x40 MSTORE POP DUP2 ADD SWAP1 PUSH2 0x535 SWAP2 SWAP1 PUSH2 0x160C JUMP JUMPDEST SWAP1 POP DUP2 DUP2 GT PUSH2 0x579 JUMPI PUSH1 0x40 MLOAD PUSH32 0x8C379A000000000000000000000000000000000000000000000000000000000 DUP2 MSTORE PUSH1 0x4 ADD PUSH2 0x570 SWAP1 PUSH2 0x1A25 JUMP JUMPDEST PUSH1 0x40 MLOAD DUP1 SWAP2 SUB SWAP1 REVERT JUMPDEST PUSH1 0x0 PUSH1 0x3 PUSH1 0x0 CALLER PUSH20 0xFFFFFFFFFFFFFFFFFFFFFFFFFFFFFFFFFFFFFFFF AND PUSH20 0xFFFFFFFFFFFFFFFFFFFFFFFFFFFFFFFFFFFFFFFF AND DUP2 MSTORE PUSH1 0x20 ADD SWAP1 DUP2 MSTORE PUSH1 0x20 ADD PUSH1 0x0 KECCAK256 PUSH1 0x40 MLOAD DUP1 PUSH1 0x60 ADD PUSH1 0x40 MSTORE SWAP1 DUP2 PUSH1 0x0 DUP3 ADD SLOAD DUP2 MSTORE PUSH1 0x20 ADD PUSH1 0x1 DUP3 ADD SLOAD DUP2 MSTORE PUSH1 0x20 ADD PUSH1 0x2 DUP3 ADD SLOAD DUP2 MSTORE POP POP SWAP1 POP NUMBER DUP2 PUSH1 0x40 ADD MLOAD LT PUSH2 0x62B JUMPI PUSH1 0x40 MLOAD PUSH32 0x8C379A000000000000000000000000000000000000000000000000000000000 DUP2 MSTORE PUSH1 0x4 ADD PUSH2 0x622 SWAP1 PUSH2 0x19A5 JUMP JUMPDEST PUSH1 0x40 MLOAD DUP1 SWAP2 SUB SWAP1 REVERT JUMPDEST DUP3 DUP2 PUSH1 0x0 ADD MLOAD GT PUSH2 0x671 JUMPI PUSH1 0x40 MLOAD PUSH32 0x8C379A000000000000000000000000000000000000000000000000000000000 DUP2 MSTORE PUSH1 0x4 ADD PUSH2 0x668 SWAP1 PUSH2 0x1A65 JUMP JUMPDEST PUSH1 0x40 MLOAD DUP1 SWAP2 SUB SWAP1 REVERT JUMPDEST DUP3 DUP2 PUSH1 0x0 ADD MLOAD PUSH2 0x681 SWAP2 SWAP1 PUSH2 0x1C2A JUMP JUMPDEST DUP2 PUSH1 0x20 ADD MLOAD LT PUSH2 0x6C6 JUMPI PUSH1 0x40 MLOAD PUSH32 0x8C379A000000000000000000000000000000000000000000000000000000000 DUP2 MSTORE PUSH1 0x4 ADD PUSH2 0x6BD SWAP1 PUSH2 0x1A65 JUMP JUMPDEST PUSH1 0x40 MLOAD DUP1 SWAP2 SUB SWAP1 REVERT JUMPDEST PUSH1 0x1 PUSH1 0x0 SWAP1 SLOAD SWAP1 PUSH2 0x100 EXP SWAP1 DIV PUSH20 0xFFFFFFFFFFFFFFFFFFFFFFFFFFFFFFFFFFFFFFFF AND PUSH20 0xFFFFFFFFFFFFFFFFFFFFFFFFFFFFFFFFFFFFFFFF AND PUSH4 0xA9059CBB CALLER DUP6 PUSH1 0x40 MLOAD DUP4 PUSH4 0xFFFFFFFF AND PUSH1 0xE0 SHL DUP2 MSTORE PUSH1 0x4 ADD PUSH2 0x723 SWAP3 SWAP2 SWAP1 PUSH2 0x1924 JUMP JUMPDEST PUSH1 0x20 PUSH1 0x40 MLOAD DUP1 DUP4 SUB DUP2 PUSH1 0x0 DUP8 DUP1 EXTCODESIZE ISZERO DUP1 ISZERO PUSH2 0x73D JUMPI PUSH1 0x0 DUP1 REVERT JUMPDEST POP GAS CALL ISZERO DUP1 ISZERO PUSH2 0x751 JUMPI RETURNDATASIZE PUSH1 0x0 DUP1 RETURNDATACOPY RETURNDATASIZE PUSH1 0x0 REVERT JUMPDEST POP POP POP POP PUSH1 0x40 MLOAD RETURNDATASIZE PUSH1 0x1F NOT PUSH1 0x1F DUP3 ADD AND DUP3 ADD DUP1 PUSH1 0x40 MSTORE POP DUP2 ADD SWAP1 PUSH2 0x775 SWAP2 SWAP1 PUSH2 0x1518 JUMP JUMPDEST PUSH2 0x7B4 JUMPI PUSH1 0x40 MLOAD PUSH32 0x8C379A000000000000000000000000000000000000000000000000000000000 DUP2 MSTORE PUSH1 0x4 ADD PUSH2 0x7AB SWAP1 PUSH2 0x1A85 JUMP JUMPDEST PUSH1 0x40 MLOAD DUP1 SWAP2 SUB SWAP1 REVERT JUMPDEST DUP3 DUP2 PUSH1 0x20 ADD DUP2 DUP2 MLOAD PUSH2 0x7C6 SWAP2 SWAP1 PUSH2 0x1B49 JUMP JUMPDEST SWAP2 POP DUP2 DUP2 MSTORE POP POP PUSH3 0x106D0 NUMBER PUSH2 0x7DC SWAP2 SWAP1 PUSH2 0x1B49 JUMP JUMPDEST DUP2 PUSH1 0x40 ADD DUP2 DUP2 MLOAD PUSH2 0x7ED SWAP2 SWAP1 PUSH2 0x1B49 JUMP JUMPDEST SWAP2 POP DUP2 DUP2 MSTORE POP POP POP POP POP JUMP JUMPDEST PUSH2 0x802 DUP3 PUSH2 0x469 JUMP JUMPDEST PUSH2 0x80B DUP2 PUSH2 0xFB7 JUMP JUMPDEST PUSH2 0x815 DUP4 DUP4 PUSH2 0xFCB JUMP JUMPDEST POP POP POP JUMP JUMPDEST PUSH2 0x822 PUSH2 0x10AB JUMP JUMPDEST PUSH20 0xFFFFFFFFFFFFFFFFFFFFFFFFFFFFFFFFFFFFFFFF AND DUP2 PUSH20 0xFFFFFFFFFFFFFFFFFFFFFFFFFFFFFFFFFFFFFFFF AND EQ PUSH2 0x88F JUMPI PUSH1 0x40 MLOAD PUSH32 0x8C379A000000000000000000000000000000000000000000000000000000000 DUP2 MSTORE PUSH1 0x4 ADD PUSH2 0x886 SWAP1 PUSH2 0x1AA5 JUMP JUMPDEST PUSH1 0x40 MLOAD DUP1 SWAP2 SUB SWAP1 REVERT JUMPDEST PUSH2 0x899 DUP3 DUP3 PUSH2 0x10B3 JUMP JUMPDEST POP POP JUMP JUMPDEST PUSH1 0x1 PUSH1 0x0 SWAP1 SLOAD SWAP1 PUSH2 0x100 EXP SWAP1 DIV PUSH20 0xFFFFFFFFFFFFFFFFFFFFFFFFFFFFFFFFFFFFFFFF AND PUSH20 0xFFFFFFFFFFFFFFFFFFFFFFFFFFFFFFFFFFFFFFFF AND PUSH4 0x23B872DD CALLER ADDRESS DUP5 PUSH1 0x40 MLOAD DUP5 PUSH4 0xFFFFFFFF AND PUSH1 0xE0 SHL DUP2 MSTORE PUSH1 0x4 ADD PUSH2 0x8FC SWAP4 SWAP3 SWAP2 SWAP1 PUSH2 0x18ED JUMP JUMPDEST PUSH1 0x20 PUSH1 0x40 MLOAD DUP1 DUP4 SUB DUP2 PUSH1 0x0 DUP8 DUP1 EXTCODESIZE ISZERO DUP1 ISZERO PUSH2 0x916 JUMPI PUSH1 0x0 DUP1 REVERT JUMPDEST POP GAS CALL ISZERO DUP1 ISZERO PUSH2 0x92A JUMPI RETURNDATASIZE PUSH1 0x0 DUP1 RETURNDATACOPY RETURNDATASIZE PUSH1 0x0 REVERT JUMPDEST POP POP POP POP PUSH1 0x40 MLOAD RETURNDATASIZE PUSH1 0x1F NOT PUSH1 0x1F DUP3 ADD AND DUP3 ADD DUP1 PUSH1 0x40 MSTORE POP DUP2 ADD SWAP1 PUSH2 0x94E SWAP2 SWAP1 PUSH2 0x1518 JUMP JUMPDEST PUSH2 0x98D JUMPI PUSH1 0x40 MLOAD PUSH32 0x8C379A000000000000000000000000000000000000000000000000000000000 DUP2 MSTORE PUSH1 0x4 ADD PUSH2 0x984 SWAP1 PUSH2 0x1A45 JUMP JUMPDEST PUSH1 0x40 MLOAD DUP1 SWAP2 SUB SWAP1 REVERT JUMPDEST DUP1 PUSH1 0x3 PUSH1 0x0 CALLER PUSH20 0xFFFFFFFFFFFFFFFFFFFFFFFFFFFFFFFFFFFFFFFF AND PUSH20 0xFFFFFFFFFFFFFFFFFFFFFFFFFFFFFFFFFFFFFFFF AND DUP2 MSTORE PUSH1 0x20 ADD SWAP1 DUP2 MSTORE PUSH1 0x20 ADD PUSH1 0x0 KECCAK256 PUSH1 0x1 ADD PUSH1 0x0 DUP3 DUP3 SLOAD PUSH2 0x9DF SWAP2 SWAP1 PUSH2 0x1C2A JUMP JUMPDEST SWAP3 POP POP DUP2 SWAP1 SSTORE POP PUSH1 0x0 PUSH1 0x3 PUSH1 0x0 CALLER PUSH20 0xFFFFFFFFFFFFFFFFFFFFFFFFFFFFFFFFFFFFFFFF AND PUSH20 0xFFFFFFFFFFFFFFFFFFFFFFFFFFFFFFFFFFFFFFFF AND DUP2 MSTORE PUSH1 0x20 ADD SWAP1 DUP2 MSTORE PUSH1 0x20 ADD PUSH1 0x0 KECCAK256 PUSH1 0x1 ADD SLOAD SWAP1 POP DUP1 DUP3 LT ISZERO PUSH2 0xA3B JUMPI POP PUSH2 0xAF4 JUMP JUMPDEST PUSH1 0x0 PUSH1 0x64 PUSH1 0x69 PUSH1 0x3 PUSH1 0x0 CALLER PUSH20 0xFFFFFFFFFFFFFFFFFFFFFFFFFFFFFFFFFFFFFFFF AND PUSH20 0xFFFFFFFFFFFFFFFFFFFFFFFFFFFFFFFFFFFFFFFF AND DUP2 MSTORE PUSH1 0x20 ADD SWAP1 DUP2 MSTORE PUSH1 0x20 ADD PUSH1 0x0 KECCAK256 PUSH1 0x0 ADD SLOAD PUSH2 0xA8E SWAP2 SWAP1 PUSH2 0x1BD0 JUMP JUMPDEST PUSH2 0xA98 SWAP2 SWAP1 PUSH2 0x1B9F JUMP JUMPDEST SWAP1 POP PUSH1 0x2 SLOAD DUP2 GT ISZERO PUSH2 0xAAA JUMPI PUSH1 0x2 SLOAD SWAP1 POP JUMPDEST DUP1 PUSH1 0x3 PUSH1 0x0 CALLER PUSH20 0xFFFFFFFFFFFFFFFFFFFFFFFFFFFFFFFFFFFFFFFF AND PUSH20 0xFFFFFFFFFFFFFFFFFFFFFFFFFFFFFFFFFFFFFFFF AND DUP2 MSTORE PUSH1 0x20 ADD SWAP1 DUP2 MSTORE PUSH1 0x20 ADD PUSH1 0x0 KECCAK256 PUSH1 0x0 ADD DUP2 SWAP1 SSTORE POP POP POP JUMPDEST POP JUMP JUMPDEST PUSH2 0xB04 PUSH1 0x0 DUP1 SHL CALLER PUSH2 0xBFC JUMP JUMPDEST PUSH2 0xB43 JUMPI PUSH1 0x40 MLOAD PUSH32 0x8C379A000000000000000000000000000000000000000000000000000000000 DUP2 MSTORE PUSH1 0x4 ADD PUSH2 0xB3A SWAP1 PUSH2 0x19E5 JUMP JUMPDEST PUSH1 0x40 MLOAD DUP1 SWAP2 SUB SWAP1 REVERT JUMPDEST PUSH1 0x0 PUSH1 0x1 PUSH1 0x0 SWAP1 SLOAD SWAP1 PUSH2 0x100 EXP SWAP1 DIV PUSH20 0xFFFFFFFFFFFFFFFFFFFFFFFFFFFFFFFFFFFFFFFF AND SWAP1 POP DUP1 PUSH20 0xFFFFFFFFFFFFFFFFFFFFFFFFFFFFFFFFFFFFFFFF AND PUSH4 0xA9059CBB CALLER DUP5 PUSH1 0x40 MLOAD DUP4 PUSH4 0xFFFFFFFF AND PUSH1 0xE0 SHL DUP2 MSTORE PUSH1 0x4 ADD PUSH2 0xBA5 SWAP3 SWAP2 SWAP1 PUSH2 0x1924 JUMP JUMPDEST PUSH1 0x20 PUSH1 0x40 MLOAD DUP1 DUP4 SUB DUP2 PUSH1 0x0 DUP8 DUP1 EXTCODESIZE ISZERO DUP1 ISZERO PUSH2 0xBBF JUMPI PUSH1 0x0 DUP1 REVERT JUMPDEST POP GAS CALL ISZERO DUP1 ISZERO PUSH2 0xBD3 JUMPI RETURNDATASIZE PUSH1 0x0 DUP1 RETURNDATACOPY RETURNDATASIZE PUSH1 0x0 REVERT JUMPDEST POP POP POP POP PUSH1 0x40 MLOAD RETURNDATASIZE PUSH1 0x1F NOT PUSH1 0x1F DUP3 ADD AND DUP3 ADD DUP1 PUSH1 0x40 MSTORE POP DUP2 ADD SWAP1 PUSH2 0xBF7 SWAP2 SWAP1 PUSH2 0x1518 JUMP JUMPDEST POP POP POP JUMP JUMPDEST PUSH1 0x0 DUP1 PUSH1 0x0 DUP5 DUP2 MSTORE PUSH1 0x20 ADD SWAP1 DUP2 MSTORE PUSH1 0x20 ADD PUSH1 0x0 KECCAK256 PUSH1 0x0 ADD PUSH1 0x0 DUP4 PUSH20 0xFFFFFFFFFFFFFFFFFFFFFFFFFFFFFFFFFFFFFFFF AND PUSH20 0xFFFFFFFFFFFFFFFFFFFFFFFFFFFFFFFFFFFFFFFF AND DUP2 MSTORE PUSH1 0x20 ADD SWAP1 DUP2 MSTORE PUSH1 0x20 ADD PUSH1 0x0 KECCAK256 PUSH1 0x0 SWAP1 SLOAD SWAP1 PUSH2 0x100 EXP SWAP1 DIV PUSH1 0xFF AND SWAP1 POP SWAP3 SWAP2 POP POP JUMP JUMPDEST PUSH1 0x0 PUSH1 0x3 PUSH1 0x0 DUP4 PUSH20 0xFFFFFFFFFFFFFFFFFFFFFFFFFFFFFFFFFFFFFFFF AND PUSH20 0xFFFFFFFFFFFFFFFFFFFFFFFFFFFFFFFFFFFFFFFF AND DUP2 MSTORE PUSH1 0x20 ADD SWAP1 DUP2 MSTORE PUSH1 0x20 ADD PUSH1 0x0 KECCAK256 PUSH1 0x1 ADD SLOAD PUSH1 0x3 PUSH1 0x0 DUP5 PUSH20 0xFFFFFFFFFFFFFFFFFFFFFFFFFFFFFFFFFFFFFFFF AND PUSH20 0xFFFFFFFFFFFFFFFFFFFFFFFFFFFFFFFFFFFFFFFF AND DUP2 MSTORE PUSH1 0x20 ADD SWAP1 DUP2 MSTORE PUSH1 0x20 ADD PUSH1 0x0 KECCAK256 PUSH1 0x0 ADD SLOAD PUSH2 0xCF8 SWAP2 SWAP1 PUSH2 0x1C2A JUMP JUMPDEST SWAP1 POP SWAP2 SWAP1 POP JUMP JUMPDEST PUSH1 0x0 DUP1 SHL DUP2 JUMP JUMPDEST PUSH1 0x0 DUP1 PUSH1 0x3 PUSH1 0x0 DUP5 PUSH20 0xFFFFFFFFFFFFFFFFFFFFFFFFFFFFFFFFFFFFFFFF AND PUSH20 0xFFFFFFFFFFFFFFFFFFFFFFFFFFFFFFFFFFFFFFFF AND DUP2 MSTORE PUSH1 0x20 ADD SWAP1 DUP2 MSTORE PUSH1 0x20 ADD PUSH1 0x0 KECCAK256 PUSH1 0x0 ADD SLOAD EQ ISZERO SWAP1 POP SWAP2 SWAP1 POP JUMP JUMPDEST PUSH2 0xD5E DUP3 PUSH2 0x469 JUMP JUMPDEST PUSH2 0xD67 DUP2 PUSH2 0xFB7 JUMP JUMPDEST PUSH2 0xD71 DUP4 DUP4 PUSH2 0x10B3 JUMP JUMPDEST POP POP POP JUMP JUMPDEST PUSH2 0xD83 PUSH1 0x0 DUP1 SHL CALLER PUSH2 0xBFC JUMP JUMPDEST PUSH2 0xDC2 JUMPI PUSH1 0x40 MLOAD PUSH32 0x8C379A000000000000000000000000000000000000000000000000000000000 DUP2 MSTORE PUSH1 0x4 ADD PUSH2 0xDB9 SWAP1 PUSH2 0x19E5 JUMP JUMPDEST PUSH1 0x40 MLOAD DUP1 SWAP2 SUB SWAP1 REVERT JUMPDEST PUSH1 0x0 DUP2 PUSH20 0xFFFFFFFFFFFFFFFFFFFFFFFFFFFFFFFFFFFFFFFF AND CALLVALUE PUSH1 0x40 MLOAD PUSH2 0xDE8 SWAP1 PUSH2 0x1883 JUMP JUMPDEST PUSH1 0x0 PUSH1 0x40 MLOAD DUP1 DUP4 SUB DUP2 DUP6 DUP8 GAS CALL SWAP3 POP POP POP RETURNDATASIZE DUP1 PUSH1 0x0 DUP2 EQ PUSH2 0xE25 JUMPI PUSH1 0x40 MLOAD SWAP2 POP PUSH1 0x1F NOT PUSH1 0x3F RETURNDATASIZE ADD AND DUP3 ADD PUSH1 0x40 MSTORE RETURNDATASIZE DUP3 MSTORE RETURNDATASIZE PUSH1 0x0 PUSH1 0x20 DUP5 ADD RETURNDATACOPY PUSH2 0xE2A JUMP JUMPDEST PUSH1 0x60 SWAP2 POP JUMPDEST POP POP SWAP1 POP DUP1 PUSH2 0xE6E JUMPI PUSH1 0x40 MLOAD PUSH32 0x8C379A000000000000000000000000000000000000000000000000000000000 DUP2 MSTORE PUSH1 0x4 ADD PUSH2 0xE65 SWAP1 PUSH2 0x1A05 JUMP JUMPDEST PUSH1 0x40 MLOAD DUP1 SWAP2 SUB SWAP1 REVERT JUMPDEST PUSH1 0x40 MLOAD DUP1 PUSH1 0x60 ADD PUSH1 0x40 MSTORE DUP1 PUSH1 0x2 SLOAD DUP2 MSTORE PUSH1 0x20 ADD PUSH1 0x0 DUP2 MSTORE PUSH1 0x20 ADD NUMBER DUP2 MSTORE POP PUSH1 0x3 PUSH1 0x0 DUP5 PUSH20 0xFFFFFFFFFFFFFFFFFFFFFFFFFFFFFFFFFFFFFFFF AND PUSH20 0xFFFFFFFFFFFFFFFFFFFFFFFFFFFFFFFFFFFFFFFF AND DUP2 MSTORE PUSH1 0x20 ADD SWAP1 DUP2 MSTORE PUSH1 0x20 ADD PUSH1 0x0 KECCAK256 PUSH1 0x0 DUP3 ADD MLOAD DUP2 PUSH1 0x0 ADD SSTORE PUSH1 0x20 DUP3 ADD MLOAD DUP2 PUSH1 0x1 ADD SSTORE PUSH1 0x40 DUP3 ADD MLOAD DUP2 PUSH1 0x2 ADD SSTORE SWAP1 POP POP PUSH32 0xB40223CB2FD2F5F68C1EDC600B630CDE6097946002F42D44BBC15560739E1E3D DUP3 PUSH1 0x40 MLOAD PUSH2 0xF1B SWAP2 SWAP1 PUSH2 0x18D2 JUMP JUMPDEST PUSH1 0x40 MLOAD DUP1 SWAP2 SUB SWAP1 LOG1 POP POP JUMP JUMPDEST PUSH1 0x1 PUSH1 0x0 SWAP1 SLOAD SWAP1 PUSH2 0x100 EXP SWAP1 DIV PUSH20 0xFFFFFFFFFFFFFFFFFFFFFFFFFFFFFFFFFFFFFFFF AND DUP2 JUMP JUMPDEST PUSH1 0x0 PUSH32 0x1FFC9A700000000000000000000000000000000000000000000000000000000 PUSH28 0xFFFFFFFFFFFFFFFFFFFFFFFFFFFFFFFFFFFFFFFFFFFFFFFFFFFFFFFF NOT AND DUP3 PUSH28 0xFFFFFFFFFFFFFFFFFFFFFFFFFFFFFFFFFFFFFFFFFFFFFFFFFFFFFFFF NOT AND EQ SWAP1 POP SWAP2 SWAP1 POP JUMP JUMPDEST PUSH2 0xFC8 DUP2 PUSH2 0xFC3 PUSH2 0x10AB JUMP JUMPDEST PUSH2 0x1194 JUMP JUMPDEST POP JUMP JUMPDEST PUSH2 0xFD5 DUP3 DUP3 PUSH2 0xBFC JUMP JUMPDEST PUSH2 0x10A7 JUMPI PUSH1 0x1 PUSH1 0x0 DUP1 DUP5 DUP2 MSTORE PUSH1 0x20 ADD SWAP1 DUP2 MSTORE PUSH1 0x20 ADD PUSH1 0x0 KECCAK256 PUSH1 0x0 ADD PUSH1 0x0 DUP4 PUSH20 0xFFFFFFFFFFFFFFFFFFFFFFFFFFFFFFFFFFFFFFFF AND PUSH20 0xFFFFFFFFFFFFFFFFFFFFFFFFFFFFFFFFFFFFFFFF AND DUP2 MSTORE PUSH1 0x20 ADD SWAP1 DUP2 MSTORE PUSH1 0x20 ADD PUSH1 0x0 KECCAK256 PUSH1 0x0 PUSH2 0x100 EXP DUP2 SLOAD DUP2 PUSH1 0xFF MUL NOT AND SWAP1 DUP4 ISZERO ISZERO MUL OR SWAP1 SSTORE POP PUSH2 0x104C PUSH2 0x10AB JUMP JUMPDEST PUSH20 0xFFFFFFFFFFFFFFFFFFFFFFFFFFFFFFFFFFFFFFFF AND DUP2 PUSH20 0xFFFFFFFFFFFFFFFFFFFFFFFFFFFFFFFFFFFFFFFF AND DUP4 PUSH32 0x2F8788117E7EFF1D82E926EC794901D17C78024A50270940304540A733656F0D PUSH1 0x40 MLOAD PUSH1 0x40 MLOAD DUP1 SWAP2 SUB SWAP1 LOG4 JUMPDEST POP POP JUMP JUMPDEST PUSH1 0x0 CALLER SWAP1 POP SWAP1 JUMP JUMPDEST PUSH2 0x10BD DUP3 DUP3 PUSH2 0xBFC JUMP JUMPDEST ISZERO PUSH2 0x1190 JUMPI PUSH1 0x0 DUP1 PUSH1 0x0 DUP5 DUP2 MSTORE PUSH1 0x20 ADD SWAP1 DUP2 MSTORE PUSH1 0x20 ADD PUSH1 0x0 KECCAK256 PUSH1 0x0 ADD PUSH1 0x0 DUP4 PUSH20 0xFFFFFFFFFFFFFFFFFFFFFFFFFFFFFFFFFFFFFFFF AND PUSH20 0xFFFFFFFFFFFFFFFFFFFFFFFFFFFFFFFFFFFFFFFF AND DUP2 MSTORE PUSH1 0x20 ADD SWAP1 DUP2 MSTORE PUSH1 0x20 ADD PUSH1 0x0 KECCAK256 PUSH1 0x0 PUSH2 0x100 EXP DUP2 SLOAD DUP2 PUSH1 0xFF MUL NOT AND SWAP1 DUP4 ISZERO ISZERO MUL OR SWAP1 SSTORE POP PUSH2 0x1135 PUSH2 0x10AB JUMP JUMPDEST PUSH20 0xFFFFFFFFFFFFFFFFFFFFFFFFFFFFFFFFFFFFFFFF AND DUP2 PUSH20 0xFFFFFFFFFFFFFFFFFFFFFFFFFFFFFFFFFFFFFFFF AND DUP4 PUSH32 0xF6391F5C32D9C69D2A47EA670B442974B53935D1EDC7FD64EB21E047A839171B PUSH1 0x40 MLOAD PUSH1 0x40 MLOAD DUP1 SWAP2 SUB SWAP1 LOG4 JUMPDEST POP POP JUMP JUMPDEST PUSH2 0x119E DUP3 DUP3 PUSH2 0xBFC JUMP JUMPDEST PUSH2 0x122D JUMPI PUSH2 0x11C3 DUP2 PUSH20 0xFFFFFFFFFFFFFFFFFFFFFFFFFFFFFFFFFFFFFFFF AND PUSH1 0x14 PUSH2 0x1231 JUMP JUMPDEST PUSH2 0x11D1 DUP4 PUSH1 0x0 SHR PUSH1 0x20 PUSH2 0x1231 JUMP JUMPDEST PUSH1 0x40 MLOAD PUSH1 0x20 ADD PUSH2 0x11E2 SWAP3 SWAP2 SWAP1 PUSH2 0x1898 JUMP JUMPDEST PUSH1 0x40 MLOAD PUSH1 0x20 DUP2 DUP4 SUB SUB DUP2 MSTORE SWAP1 PUSH1 0x40 MSTORE PUSH1 0x40 MLOAD PUSH32 0x8C379A000000000000000000000000000000000000000000000000000000000 DUP2 MSTORE PUSH1 0x4 ADD PUSH2 0x1224 SWAP2 SWAP1 PUSH2 0x1983 JUMP JUMPDEST PUSH1 0x40 MLOAD DUP1 SWAP2 SUB SWAP1 REVERT JUMPDEST POP POP JUMP JUMPDEST PUSH1 0x60 PUSH1 0x0 PUSH1 0x2 DUP4 PUSH1 0x2 PUSH2 0x1244 SWAP2 SWAP1 PUSH2 0x1BD0 JUMP JUMPDEST PUSH2 0x124E SWAP2 SWAP1 PUSH2 0x1B49 JUMP JUMPDEST PUSH8 0xFFFFFFFFFFFFFFFF DUP2 GT ISZERO PUSH2 0x1267 JUMPI PUSH2 0x1266 PUSH2 0x1DC6 JUMP JUMPDEST JUMPDEST PUSH1 0x40 MLOAD SWAP1 DUP1 DUP3 MSTORE DUP1 PUSH1 0x1F ADD PUSH1 0x1F NOT AND PUSH1 0x20 ADD DUP3 ADD PUSH1 0x40 MSTORE DUP1 ISZERO PUSH2 0x1299 JUMPI DUP2 PUSH1 0x20 ADD PUSH1 0x1 DUP3 MUL DUP1 CALLDATASIZE DUP4 CALLDATACOPY DUP1 DUP3 ADD SWAP2 POP POP SWAP1 POP JUMPDEST POP SWAP1 POP PUSH32 0x3000000000000000000000000000000000000000000000000000000000000000 DUP2 PUSH1 0x0 DUP2 MLOAD DUP2 LT PUSH2 0x12D1 JUMPI PUSH2 0x12D0 PUSH2 0x1D97 JUMP JUMPDEST JUMPDEST PUSH1 0x20 ADD ADD SWAP1 PUSH31 0xFFFFFFFFFFFFFFFFFFFFFFFFFFFFFFFFFFFFFFFFFFFFFFFFFFFFFFFFFFFFFF NOT AND SWAP1 DUP2 PUSH1 0x0 BYTE SWAP1 MSTORE8 POP PUSH32 0x7800000000000000000000000000000000000000000000000000000000000000 DUP2 PUSH1 0x1 DUP2 MLOAD DUP2 LT PUSH2 0x1335 JUMPI PUSH2 0x1334 PUSH2 0x1D97 JUMP JUMPDEST JUMPDEST PUSH1 0x20 ADD ADD SWAP1 PUSH31 0xFFFFFFFFFFFFFFFFFFFFFFFFFFFFFFFFFFFFFFFFFFFFFFFFFFFFFFFFFFFFFF NOT AND SWAP1 DUP2 PUSH1 0x0 BYTE SWAP1 MSTORE8 POP PUSH1 0x0 PUSH1 0x1 DUP5 PUSH1 0x2 PUSH2 0x1375 SWAP2 SWAP1 PUSH2 0x1BD0 JUMP JUMPDEST PUSH2 0x137F SWAP2 SWAP1 PUSH2 0x1B49 JUMP JUMPDEST SWAP1 POP JUMPDEST PUSH1 0x1 DUP2 GT ISZERO PUSH2 0x141F JUMPI PUSH32 0x3031323334353637383961626364656600000000000000000000000000000000 PUSH1 0xF DUP7 AND PUSH1 0x10 DUP2 LT PUSH2 0x13C1 JUMPI PUSH2 0x13C0 PUSH2 0x1D97 JUMP JUMPDEST JUMPDEST BYTE PUSH1 0xF8 SHL DUP3 DUP3 DUP2 MLOAD DUP2 LT PUSH2 0x13D8 JUMPI PUSH2 0x13D7 PUSH2 0x1D97 JUMP JUMPDEST JUMPDEST PUSH1 0x20 ADD ADD SWAP1 PUSH31 0xFFFFFFFFFFFFFFFFFFFFFFFFFFFFFFFFFFFFFFFFFFFFFFFFFFFFFFFFFFFFFF NOT AND SWAP1 DUP2 PUSH1 0x0 BYTE SWAP1 MSTORE8 POP PUSH1 0x4 DUP6 SWAP1 SHR SWAP5 POP DUP1 PUSH2 0x1418 SWAP1 PUSH2 0x1D0F JUMP JUMPDEST SWAP1 POP PUSH2 0x1382 JUMP JUMPDEST POP PUSH1 0x0 DUP5 EQ PUSH2 0x1463 JUMPI PUSH1 0x40 MLOAD PUSH32 0x8C379A000000000000000000000000000000000000000000000000000000000 DUP2 MSTORE PUSH1 0x4 ADD PUSH2 0x145A SWAP1 PUSH2 0x19C5 JUMP JUMPDEST PUSH1 0x40 MLOAD DUP1 SWAP2 SUB SWAP1 REVERT JUMPDEST DUP1 SWAP2 POP POP SWAP3 SWAP2 POP POP JUMP JUMPDEST PUSH1 0x0 DUP2 CALLDATALOAD SWAP1 POP PUSH2 0x147C DUP2 PUSH2 0x2069 JUMP JUMPDEST SWAP3 SWAP2 POP POP JUMP JUMPDEST PUSH1 0x0 DUP2 MLOAD SWAP1 POP PUSH2 0x1491 DUP2 PUSH2 0x2080 JUMP JUMPDEST SWAP3 SWAP2 POP POP JUMP JUMPDEST PUSH1 0x0 DUP2 CALLDATALOAD SWAP1 POP PUSH2 0x14A6 DUP2 PUSH2 0x2097 JUMP JUMPDEST SWAP3 SWAP2 POP POP JUMP JUMPDEST PUSH1 0x0 DUP2 CALLDATALOAD SWAP1 POP PUSH2 0x14BB DUP2 PUSH2 0x20AE JUMP JUMPDEST SWAP3 SWAP2 POP POP JUMP JUMPDEST PUSH1 0x0 DUP2 CALLDATALOAD SWAP1 POP PUSH2 0x14D0 DUP2 PUSH2 0x20C5 JUMP JUMPDEST SWAP3 SWAP2 POP POP JUMP JUMPDEST PUSH1 0x0 DUP2 MLOAD SWAP1 POP PUSH2 0x14E5 DUP2 PUSH2 0x20C5 JUMP JUMPDEST SWAP3 SWAP2 POP POP JUMP JUMPDEST PUSH1 0x0 PUSH1 0x20 DUP3 DUP5 SUB SLT ISZERO PUSH2 0x1501 JUMPI PUSH2 0x1500 PUSH2 0x1DF5 JUMP JUMPDEST JUMPDEST PUSH1 0x0 PUSH2 0x150F DUP5 DUP3 DUP6 ADD PUSH2 0x146D JUMP JUMPDEST SWAP2 POP POP SWAP3 SWAP2 POP POP JUMP JUMPDEST PUSH1 0x0 PUSH1 0x20 DUP3 DUP5 SUB SLT ISZERO PUSH2 0x152E JUMPI PUSH2 0x152D PUSH2 0x1DF5 JUMP JUMPDEST JUMPDEST PUSH1 0x0 PUSH2 0x153C DUP5 DUP3 DUP6 ADD PUSH2 0x1482 JUMP JUMPDEST SWAP2 POP POP SWAP3 SWAP2 POP POP JUMP JUMPDEST PUSH1 0x0 PUSH1 0x20 DUP3 DUP5 SUB SLT ISZERO PUSH2 0x155B JUMPI PUSH2 0x155A PUSH2 0x1DF5 JUMP JUMPDEST JUMPDEST PUSH1 0x0 PUSH2 0x1569 DUP5 DUP3 DUP6 ADD PUSH2 0x1497 JUMP JUMPDEST SWAP2 POP POP SWAP3 SWAP2 POP POP JUMP JUMPDEST PUSH1 0x0 DUP1 PUSH1 0x40 DUP4 DUP6 SUB SLT ISZERO PUSH2 0x1589 JUMPI PUSH2 0x1588 PUSH2 0x1DF5 JUMP JUMPDEST JUMPDEST PUSH1 0x0 PUSH2 0x1597 DUP6 DUP3 DUP7 ADD PUSH2 0x1497 JUMP JUMPDEST SWAP3 POP POP PUSH1 0x20 PUSH2 0x15A8 DUP6 DUP3 DUP7 ADD PUSH2 0x146D JUMP JUMPDEST SWAP2 POP POP SWAP3 POP SWAP3 SWAP1 POP JUMP JUMPDEST PUSH1 0x0 PUSH1 0x20 DUP3 DUP5 SUB SLT ISZERO PUSH2 0x15C8 JUMPI PUSH2 0x15C7 PUSH2 0x1DF5 JUMP JUMPDEST JUMPDEST PUSH1 0x0 PUSH2 0x15D6 DUP5 DUP3 DUP6 ADD PUSH2 0x14AC JUMP JUMPDEST SWAP2 POP POP SWAP3 SWAP2 POP POP JUMP JUMPDEST PUSH1 0x0 PUSH1 0x20 DUP3 DUP5 SUB SLT ISZERO PUSH2 0x15F5 JUMPI PUSH2 0x15F4 PUSH2 0x1DF5 JUMP JUMPDEST JUMPDEST PUSH1 0x0 PUSH2 0x1603 DUP5 DUP3 DUP6 ADD PUSH2 0x14C1 JUMP JUMPDEST SWAP2 POP POP SWAP3 SWAP2 POP POP JUMP JUMPDEST PUSH1 0x0 PUSH1 0x20 DUP3 DUP5 SUB SLT ISZERO PUSH2 0x1622 JUMPI PUSH2 0x1621 PUSH2 0x1DF5 JUMP JUMPDEST JUMPDEST PUSH1 0x0 PUSH2 0x1630 DUP5 DUP3 DUP6 ADD PUSH2 0x14D6 JUMP JUMPDEST SWAP2 POP POP SWAP3 SWAP2 POP POP JUMP JUMPDEST PUSH2 0x1642 DUP2 PUSH2 0x1C5E JUMP JUMPDEST DUP3 MSTORE POP POP JUMP JUMPDEST PUSH2 0x1651 DUP2 PUSH2 0x1C70 JUMP JUMPDEST DUP3 MSTORE POP POP JUMP JUMPDEST PUSH2 0x1660 DUP2 PUSH2 0x1C7C JUMP JUMPDEST DUP3 MSTORE POP POP JUMP JUMPDEST PUSH1 0x0 PUSH2 0x1671 DUP3 PUSH2 0x1B17 JUMP JUMPDEST PUSH2 0x167B DUP2 DUP6 PUSH2 0x1B2D JUMP JUMPDEST SWAP4 POP PUSH2 0x168B DUP2 DUP6 PUSH1 0x20 DUP7 ADD PUSH2 0x1CDC JUMP JUMPDEST PUSH2 0x1694 DUP2 PUSH2 0x1DFA JUMP JUMPDEST DUP5 ADD SWAP2 POP POP SWAP3 SWAP2 POP POP JUMP JUMPDEST PUSH1 0x0 PUSH2 0x16AA DUP3 PUSH2 0x1B17 JUMP JUMPDEST PUSH2 0x16B4 DUP2 DUP6 PUSH2 0x1B3E JUMP JUMPDEST SWAP4 POP PUSH2 0x16C4 DUP2 DUP6 PUSH1 0x20 DUP7 ADD PUSH2 0x1CDC JUMP JUMPDEST DUP1 DUP5 ADD SWAP2 POP POP SWAP3 SWAP2 POP POP JUMP JUMPDEST PUSH1 0x0 PUSH2 0x16DD PUSH1 0x28 DUP4 PUSH2 0x1B2D JUMP JUMPDEST SWAP2 POP PUSH2 0x16E8 DUP3 PUSH2 0x1E0B JUMP JUMPDEST PUSH1 0x40 DUP3 ADD SWAP1 POP SWAP2 SWAP1 POP JUMP JUMPDEST PUSH1 0x0 PUSH2 0x1700 PUSH1 0x20 DUP4 PUSH2 0x1B2D JUMP JUMPDEST SWAP2 POP PUSH2 0x170B DUP3 PUSH2 0x1E5A JUMP JUMPDEST PUSH1 0x20 DUP3 ADD SWAP1 POP SWAP2 SWAP1 POP JUMP JUMPDEST PUSH1 0x0 PUSH2 0x1723 PUSH1 0x1B DUP4 PUSH2 0x1B2D JUMP JUMPDEST SWAP2 POP PUSH2 0x172E DUP3 PUSH2 0x1E83 JUMP JUMPDEST PUSH1 0x20 DUP3 ADD SWAP1 POP SWAP2 SWAP1 POP JUMP JUMPDEST PUSH1 0x0 PUSH2 0x1746 PUSH1 0x22 DUP4 PUSH2 0x1B2D JUMP JUMPDEST SWAP2 POP PUSH2 0x1751 DUP3 PUSH2 0x1EAC JUMP JUMPDEST PUSH1 0x40 DUP3 ADD SWAP1 POP SWAP2 SWAP1 POP JUMP JUMPDEST PUSH1 0x0 PUSH2 0x1769 PUSH1 0x1C DUP4 PUSH2 0x1B2D JUMP JUMPDEST SWAP2 POP PUSH2 0x1774 DUP3 PUSH2 0x1EFB JUMP JUMPDEST PUSH1 0x20 DUP3 ADD SWAP1 POP SWAP2 SWAP1 POP JUMP JUMPDEST PUSH1 0x0 PUSH2 0x178C PUSH1 0xC DUP4 PUSH2 0x1B2D JUMP JUMPDEST SWAP2 POP PUSH2 0x1797 DUP3 PUSH2 0x1F24 JUMP JUMPDEST PUSH1 0x20 DUP3 ADD SWAP1 POP SWAP2 SWAP1 POP JUMP JUMPDEST PUSH1 0x0 PUSH2 0x17AF PUSH1 0x2A DUP4 PUSH2 0x1B2D JUMP JUMPDEST SWAP2 POP PUSH2 0x17BA DUP3 PUSH2 0x1F4D JUMP JUMPDEST PUSH1 0x40 DUP3 ADD SWAP1 POP SWAP2 SWAP1 POP JUMP JUMPDEST PUSH1 0x0 PUSH2 0x17D2 PUSH1 0x0 DUP4 PUSH2 0x1B22 JUMP JUMPDEST SWAP2 POP PUSH2 0x17DD DUP3 PUSH2 0x1F9C JUMP JUMPDEST PUSH1 0x0 DUP3 ADD SWAP1 POP SWAP2 SWAP1 POP JUMP JUMPDEST PUSH1 0x0 PUSH2 0x17F5 PUSH1 0x17 DUP4 PUSH2 0x1B3E JUMP JUMPDEST SWAP2 POP PUSH2 0x1800 DUP3 PUSH2 0x1F9F JUMP JUMPDEST PUSH1 0x17 DUP3 ADD SWAP1 POP SWAP2 SWAP1 POP JUMP JUMPDEST PUSH1 0x0 PUSH2 0x1818 PUSH1 0xF DUP4 PUSH2 0x1B2D JUMP JUMPDEST SWAP2 POP PUSH2 0x1823 DUP3 PUSH2 0x1FC8 JUMP JUMPDEST PUSH1 0x20 DUP3 ADD SWAP1 POP SWAP2 SWAP1 POP JUMP JUMPDEST PUSH1 0x0 PUSH2 0x183B PUSH1 0x11 DUP4 PUSH2 0x1B3E JUMP JUMPDEST SWAP2 POP PUSH2 0x1846 DUP3 PUSH2 0x1FF1 JUMP JUMPDEST PUSH1 0x11 DUP3 ADD SWAP1 POP SWAP2 SWAP1 POP JUMP JUMPDEST PUSH1 0x0 PUSH2 0x185E PUSH1 0x2F DUP4 PUSH2 0x1B2D JUMP JUMPDEST SWAP2 POP PUSH2 0x1869 DUP3 PUSH2 0x201A JUMP JUMPDEST PUSH1 0x40 DUP3 ADD SWAP1 POP SWAP2 SWAP1 POP JUMP JUMPDEST PUSH2 0x187D DUP2 PUSH2 0x1CD2 JUMP JUMPDEST DUP3 MSTORE POP POP JUMP JUMPDEST PUSH1 0x0 PUSH2 0x188E DUP3 PUSH2 0x17C5 JUMP JUMPDEST SWAP2 POP DUP2 SWAP1 POP SWAP2 SWAP1 POP JUMP JUMPDEST PUSH1 0x0 PUSH2 0x18A3 DUP3 PUSH2 0x17E8 JUMP JUMPDEST SWAP2 POP PUSH2 0x18AF DUP3 DUP6 PUSH2 0x169F JUMP JUMPDEST SWAP2 POP PUSH2 0x18BA DUP3 PUSH2 0x182E JUMP JUMPDEST SWAP2 POP PUSH2 0x18C6 DUP3 DUP5 PUSH2 0x169F JUMP JUMPDEST SWAP2 POP DUP2 SWAP1 POP SWAP4 SWAP3 POP POP POP JUMP JUMPDEST PUSH1 0x0 PUSH1 0x20 DUP3 ADD SWAP1 POP PUSH2 0x18E7 PUSH1 0x0 DUP4 ADD DUP5 PUSH2 0x1639 JUMP JUMPDEST SWAP3 SWAP2 POP POP JUMP JUMPDEST PUSH1 0x0 PUSH1 0x60 DUP3 ADD SWAP1 POP PUSH2 0x1902 PUSH1 0x0 DUP4 ADD DUP7 PUSH2 0x1639 JUMP JUMPDEST PUSH2 0x190F PUSH1 0x20 DUP4 ADD DUP6 PUSH2 0x1639 JUMP JUMPDEST PUSH2 0x191C PUSH1 0x40 DUP4 ADD DUP5 PUSH2 0x1874 JUMP JUMPDEST SWAP5 SWAP4 POP POP POP POP JUMP JUMPDEST PUSH1 0x0 PUSH1 0x40 DUP3 ADD SWAP1 POP PUSH2 0x1939 PUSH1 0x0 DUP4 ADD DUP6 PUSH2 0x1639 JUMP JUMPDEST PUSH2 0x1946 PUSH1 0x20 DUP4 ADD DUP5 PUSH2 0x1874 JUMP JUMPDEST SWAP4 SWAP3 POP POP POP JUMP JUMPDEST PUSH1 0x0 PUSH1 0x20 DUP3 ADD SWAP1 POP PUSH2 0x1962 PUSH1 0x0 DUP4 ADD DUP5 PUSH2 0x1648 JUMP JUMPDEST SWAP3 SWAP2 POP POP JUMP JUMPDEST PUSH1 0x0 PUSH1 0x20 DUP3 ADD SWAP1 POP PUSH2 0x197D PUSH1 0x0 DUP4 ADD DUP5 PUSH2 0x1657 JUMP JUMPDEST SWAP3 SWAP2 POP POP JUMP JUMPDEST PUSH1 0x0 PUSH1 0x20 DUP3 ADD SWAP1 POP DUP2 DUP2 SUB PUSH1 0x0 DUP4 ADD MSTORE PUSH2 0x199D DUP2 DUP5 PUSH2 0x1666 JUMP JUMPDEST SWAP1 POP SWAP3 SWAP2 POP POP JUMP JUMPDEST PUSH1 0x0 PUSH1 0x20 DUP3 ADD SWAP1 POP DUP2 DUP2 SUB PUSH1 0x0 DUP4 ADD MSTORE PUSH2 0x19BE DUP2 PUSH2 0x16D0 JUMP JUMPDEST SWAP1 POP SWAP2 SWAP1 POP JUMP JUMPDEST PUSH1 0x0 PUSH1 0x20 DUP3 ADD SWAP1 POP DUP2 DUP2 SUB PUSH1 0x0 DUP4 ADD MSTORE PUSH2 0x19DE DUP2 PUSH2 0x16F3 JUMP JUMPDEST SWAP1 POP SWAP2 SWAP1 POP JUMP JUMPDEST PUSH1 0x0 PUSH1 0x20 DUP3 ADD SWAP1 POP DUP2 DUP2 SUB PUSH1 0x0 DUP4 ADD MSTORE PUSH2 0x19FE DUP2 PUSH2 0x1716 JUMP JUMPDEST SWAP1 POP SWAP2 SWAP1 POP JUMP JUMPDEST PUSH1 0x0 PUSH1 0x20 DUP3 ADD SWAP1 POP DUP2 DUP2 SUB PUSH1 0x0 DUP4 ADD MSTORE PUSH2 0x1A1E DUP2 PUSH2 0x1739 JUMP JUMPDEST SWAP1 POP SWAP2 SWAP1 POP JUMP JUMPDEST PUSH1 0x0 PUSH1 0x20 DUP3 ADD SWAP1 POP DUP2 DUP2 SUB PUSH1 0x0 DUP4 ADD MSTORE PUSH2 0x1A3E DUP2 PUSH2 0x175C JUMP JUMPDEST SWAP1 POP SWAP2 SWAP1 POP JUMP JUMPDEST PUSH1 0x0 PUSH1 0x20 DUP3 ADD SWAP1 POP DUP2 DUP2 SUB PUSH1 0x0 DUP4 ADD MSTORE PUSH2 0x1A5E DUP2 PUSH2 0x177F JUMP JUMPDEST SWAP1 POP SWAP2 SWAP1 POP JUMP JUMPDEST PUSH1 0x0 PUSH1 0x20 DUP3 ADD SWAP1 POP DUP2 DUP2 SUB PUSH1 0x0 DUP4 ADD MSTORE PUSH2 0x1A7E DUP2 PUSH2 0x17A2 JUMP JUMPDEST SWAP1 POP SWAP2 SWAP1 POP JUMP JUMPDEST PUSH1 0x0 PUSH1 0x20 DUP3 ADD SWAP1 POP DUP2 DUP2 SUB PUSH1 0x0 DUP4 ADD MSTORE PUSH2 0x1A9E DUP2 PUSH2 0x180B JUMP JUMPDEST SWAP1 POP SWAP2 SWAP1 POP JUMP JUMPDEST PUSH1 0x0 PUSH1 0x20 DUP3 ADD SWAP1 POP DUP2 DUP2 SUB PUSH1 0x0 DUP4 ADD MSTORE PUSH2 0x1ABE DUP2 PUSH2 0x1851 JUMP JUMPDEST SWAP1 POP SWAP2 SWAP1 POP JUMP JUMPDEST PUSH1 0x0 PUSH1 0x20 DUP3 ADD SWAP1 POP PUSH2 0x1ADA PUSH1 0x0 DUP4 ADD DUP5 PUSH2 0x1874 JUMP JUMPDEST SWAP3 SWAP2 POP POP JUMP JUMPDEST PUSH1 0x0 PUSH1 0x60 DUP3 ADD SWAP1 POP PUSH2 0x1AF5 PUSH1 0x0 DUP4 ADD DUP7 PUSH2 0x1874 JUMP JUMPDEST PUSH2 0x1B02 PUSH1 0x20 DUP4 ADD DUP6 PUSH2 0x1874 JUMP JUMPDEST PUSH2 0x1B0F PUSH1 0x40 DUP4 ADD DUP5 PUSH2 0x1874 JUMP JUMPDEST SWAP5 SWAP4 POP POP POP POP JUMP JUMPDEST PUSH1 0x0 DUP2 MLOAD SWAP1 POP SWAP2 SWAP1 POP JUMP JUMPDEST PUSH1 0x0 DUP2 SWAP1 POP SWAP3 SWAP2 POP POP JUMP JUMPDEST PUSH1 0x0 DUP3 DUP3 MSTORE PUSH1 0x20 DUP3 ADD SWAP1 POP SWAP3 SWAP2 POP POP JUMP JUMPDEST PUSH1 0x0 DUP2 SWAP1 POP SWAP3 SWAP2 POP POP JUMP JUMPDEST PUSH1 0x0 PUSH2 0x1B54 DUP3 PUSH2 0x1CD2 JUMP JUMPDEST SWAP2 POP PUSH2 0x1B5F DUP4 PUSH2 0x1CD2 JUMP JUMPDEST SWAP3 POP DUP3 PUSH32 0xFFFFFFFFFFFFFFFFFFFFFFFFFFFFFFFFFFFFFFFFFFFFFFFFFFFFFFFFFFFFFFFF SUB DUP3 GT ISZERO PUSH2 0x1B94 JUMPI PUSH2 0x1B93 PUSH2 0x1D39 JUMP JUMPDEST JUMPDEST DUP3 DUP3 ADD SWAP1 POP SWAP3 SWAP2 POP POP JUMP JUMPDEST PUSH1 0x0 PUSH2 0x1BAA DUP3 PUSH2 0x1CD2 JUMP JUMPDEST SWAP2 POP PUSH2 0x1BB5 DUP4 PUSH2 0x1CD2 JUMP JUMPDEST SWAP3 POP DUP3 PUSH2 0x1BC5 JUMPI PUSH2 0x1BC4 PUSH2 0x1D68 JUMP JUMPDEST JUMPDEST DUP3 DUP3 DIV SWAP1 POP SWAP3 SWAP2 POP POP JUMP JUMPDEST PUSH1 0x0 PUSH2 0x1BDB DUP3 PUSH2 0x1CD2 JUMP JUMPDEST SWAP2 POP PUSH2 0x1BE6 DUP4 PUSH2 0x1CD2 JUMP JUMPDEST SWAP3 POP DUP2 PUSH32 0xFFFFFFFFFFFFFFFFFFFFFFFFFFFFFFFFFFFFFFFFFFFFFFFFFFFFFFFFFFFFFFFF DIV DUP4 GT DUP3 ISZERO ISZERO AND ISZERO PUSH2 0x1C1F JUMPI PUSH2 0x1C1E PUSH2 0x1D39 JUMP JUMPDEST JUMPDEST DUP3 DUP3 MUL SWAP1 POP SWAP3 SWAP2 POP POP JUMP JUMPDEST PUSH1 0x0 PUSH2 0x1C35 DUP3 PUSH2 0x1CD2 JUMP JUMPDEST SWAP2 POP PUSH2 0x1C40 DUP4 PUSH2 0x1CD2 JUMP JUMPDEST SWAP3 POP DUP3 DUP3 LT ISZERO PUSH2 0x1C53 JUMPI PUSH2 0x1C52 PUSH2 0x1D39 JUMP JUMPDEST JUMPDEST DUP3 DUP3 SUB SWAP1 POP SWAP3 SWAP2 POP POP JUMP JUMPDEST PUSH1 0x0 PUSH2 0x1C69 DUP3 PUSH2 0x1CB2 JUMP JUMPDEST SWAP1 POP SWAP2 SWAP1 POP JUMP JUMPDEST PUSH1 0x0 DUP2 ISZERO ISZERO SWAP1 POP SWAP2 SWAP1 POP JUMP JUMPDEST PUSH1 0x0 DUP2 SWAP1 POP SWAP2 SWAP1 POP JUMP JUMPDEST PUSH1 0x0 PUSH32 0xFFFFFFFF00000000000000000000000000000000000000000000000000000000 DUP3 AND SWAP1 POP SWAP2 SWAP1 POP JUMP JUMPDEST PUSH1 0x0 PUSH20 0xFFFFFFFFFFFFFFFFFFFFFFFFFFFFFFFFFFFFFFFF DUP3 AND SWAP1 POP SWAP2 SWAP1 POP JUMP JUMPDEST PUSH1 0x0 DUP2 SWAP1 POP SWAP2 SWAP1 POP JUMP JUMPDEST PUSH1 0x0 JUMPDEST DUP4 DUP2 LT ISZERO PUSH2 0x1CFA JUMPI DUP1 DUP3 ADD MLOAD DUP2 DUP5 ADD MSTORE PUSH1 0x20 DUP2 ADD SWAP1 POP PUSH2 0x1CDF JUMP JUMPDEST DUP4 DUP2 GT ISZERO PUSH2 0x1D09 JUMPI PUSH1 0x0 DUP5 DUP5 ADD MSTORE JUMPDEST POP POP POP POP JUMP JUMPDEST PUSH1 0x0 PUSH2 0x1D1A DUP3 PUSH2 0x1CD2 JUMP JUMPDEST SWAP2 POP PUSH1 0x0 DUP3 EQ ISZERO PUSH2 0x1D2E JUMPI PUSH2 0x1D2D PUSH2 0x1D39 JUMP JUMPDEST JUMPDEST PUSH1 0x1 DUP3 SUB SWAP1 POP SWAP2 SWAP1 POP JUMP JUMPDEST PUSH32 0x4E487B7100000000000000000000000000000000000000000000000000000000 PUSH1 0x0 MSTORE PUSH1 0x11 PUSH1 0x4 MSTORE PUSH1 0x24 PUSH1 0x0 REVERT JUMPDEST PUSH32 0x4E487B7100000000000000000000000000000000000000000000000000000000 PUSH1 0x0 MSTORE PUSH1 0x12 PUSH1 0x4 MSTORE PUSH1 0x24 PUSH1 0x0 REVERT JUMPDEST PUSH32 0x4E487B7100000000000000000000000000000000000000000000000000000000 PUSH1 0x0 MSTORE PUSH1 0x32 PUSH1 0x4 MSTORE PUSH1 0x24 PUSH1 0x0 REVERT JUMPDEST PUSH32 0x4E487B7100000000000000000000000000000000000000000000000000000000 PUSH1 0x0 MSTORE PUSH1 0x41 PUSH1 0x4 MSTORE PUSH1 0x24 PUSH1 0x0 REVERT JUMPDEST PUSH1 0x0 DUP1 REVERT JUMPDEST PUSH1 0x0 PUSH1 0x1F NOT PUSH1 0x1F DUP4 ADD AND SWAP1 POP SWAP2 SWAP1 POP JUMP JUMPDEST PUSH32 0x63616C6C6572206973206E6F7420656C696769626C6520666F72206E65787420 PUSH1 0x0 DUP3 ADD MSTORE PUSH32 0x7769746864726177000000000000000000000000000000000000000000000000 PUSH1 0x20 DUP3 ADD MSTORE POP JUMP JUMPDEST PUSH32 0x537472696E67733A20686578206C656E67746820696E73756666696369656E74 PUSH1 0x0 DUP3 ADD MSTORE POP JUMP JUMPDEST PUSH32 0x63616C6C6572206973206E6F742061646D696E6973747261746F720000000000 PUSH1 0x0 DUP3 ADD MSTORE POP JUMP JUMPDEST PUSH32 0x6661696C656420746F207472616E736665722067617320746F20746865207573 PUSH1 0x0 DUP3 ADD MSTORE PUSH32 0x6572000000000000000000000000000000000000000000000000000000000000 PUSH1 0x20 DUP3 ADD MSTORE POP JUMP JUMPDEST PUSH32 0x6E6F7420656E6F7567682066756E647320696E20636F6E747261637400000000 PUSH1 0x0 DUP3 ADD MSTORE POP JUMP JUMPDEST PUSH32 0x6661696C65642072657061790000000000000000000000000000000000000000 PUSH1 0x0 DUP3 ADD MSTORE POP JUMP JUMPDEST PUSH32 0x63616C6C6572206973206E6F7420656C696769626C6520666F72207769746864 PUSH1 0x0 DUP3 ADD MSTORE PUSH32 0x72617720616D6F756E7400000000000000000000000000000000000000000000 PUSH1 0x20 DUP3 ADD MSTORE POP JUMP JUMPDEST POP JUMP JUMPDEST PUSH32 0x416363657373436F6E74726F6C3A206163636F756E7420000000000000000000 PUSH1 0x0 DUP3 ADD MSTORE POP JUMP JUMPDEST PUSH32 0x7769746864726177206661696C65640000000000000000000000000000000000 PUSH1 0x0 DUP3 ADD MSTORE POP JUMP JUMPDEST PUSH32 0x206973206D697373696E6720726F6C6520000000000000000000000000000000 PUSH1 0x0 DUP3 ADD MSTORE POP JUMP JUMPDEST PUSH32 0x416363657373436F6E74726F6C3A2063616E206F6E6C792072656E6F756E6365 PUSH1 0x0 DUP3 ADD MSTORE PUSH32 0x20726F6C657320666F722073656C660000000000000000000000000000000000 PUSH1 0x20 DUP3 ADD MSTORE POP JUMP JUMPDEST PUSH2 0x2072 DUP2 PUSH2 0x1C5E JUMP JUMPDEST DUP2 EQ PUSH2 0x207D JUMPI PUSH1 0x0 DUP1 REVERT JUMPDEST POP JUMP JUMPDEST PUSH2 0x2089 DUP2 PUSH2 0x1C70 JUMP JUMPDEST DUP2 EQ PUSH2 0x2094 JUMPI PUSH1 0x0 DUP1 REVERT JUMPDEST POP JUMP JUMPDEST PUSH2 0x20A0 DUP2 PUSH2 0x1C7C JUMP JUMPDEST DUP2 EQ PUSH2 0x20AB JUMPI PUSH1 0x0 DUP1 REVERT JUMPDEST POP JUMP JUMPDEST PUSH2 0x20B7 DUP2 PUSH2 0x1C86 JUMP JUMPDEST DUP2 EQ PUSH2 0x20C2 JUMPI PUSH1 0x0 DUP1 REVERT JUMPDEST POP JUMP JUMPDEST PUSH2 0x20CE DUP2 PUSH2 0x1CD2 JUMP JUMPDEST DUP2 EQ PUSH2 0x20D9 JUMPI PUSH1 0x0 DUP1 REVERT JUMPDEST POP JUMP INVALID LOG2 PUSH5 0x6970667358 0x22 SLT KECCAK256 0x21 SWAP3 0xA9 NUMBER XOR PUSH3 0xBD90D7 0xEE DUP5 TIMESTAMP PC DUP14 0xBE STOP PUSH15 0x56F6B59AE2D0A82F2B16033D5F0953 PUSH5 0x736F6C6343 STOP ADDMOD SMOD STOP CALLER "
				},
				"gasEstimates": {
					"creation": {
						"codeDepositCost": "1693200",
						"executionCost": "infinite",
						"totalCost": "infinite"
					},
					"external": {
						"DEFAULT_ADMIN_ROLE()": "424",
						"addAdress(address)": "infinite",
						"amountAvailable(address)": "infinite",
						"getRoleAdmin(bytes32)": "infinite",
						"grantRole(bytes32,address)": "infinite",
						"hasParticipant(address)": "2884",
						"hasRole(bytes32,address)": "3185",
						"participants(address)": "infinite",
						"renounceRole(bytes32,address)": "infinite",
						"repay(uint256)": "infinite",
						"revokeRole(bytes32,address)": "infinite",
						"supportsInterface(bytes4)": "751",
						"token()": "2602",
						"withdraw(uint256)": "infinite",
						"withdrawToken(uint256)": "infinite"
					}
				},
				"methodIdentifiers": {
					"DEFAULT_ADMIN_ROLE()": "a217fddf",
					"addAdress(address)": "f7d19f5e",
					"amountAvailable(address)": "9c60b07e",
					"getRoleAdmin(bytes32)": "248a9ca3",
					"grantRole(bytes32,address)": "2f2ff15d",
					"hasParticipant(address)": "add474da",
					"hasRole(bytes32,address)": "91d14854",
					"participants(address)": "09e69ede",
					"renounceRole(bytes32,address)": "36568abe",
					"repay(uint256)": "371fd8e6",
					"revokeRole(bytes32,address)": "d547741f",
					"supportsInterface(bytes4)": "01ffc9a7",
					"token()": "fc0c546a",
					"withdraw(uint256)": "2e1a7d4d",
					"withdrawToken(uint256)": "50baa622"
				}
			},
			"storageLayout": {
				"storage": [
					{
						"astId": 24,
						"contract": "FundDistributor.sol:FundDistributor",
						"label": "_roles",
						"offset": 0,
						"slot": "0",
						"type": "t_mapping(t_bytes32,t_struct(RoleData)19_storage)"
					},
					{
						"astId": 1373,
						"contract": "FundDistributor.sol:FundDistributor",
						"label": "token",
						"offset": 0,
						"slot": "1",
						"type": "t_address"
					},
					{
						"astId": 1376,
						"contract": "FundDistributor.sol:FundDistributor",
						"label": "maxLimit",
						"offset": 0,
						"slot": "2",
						"type": "t_uint256"
					},
					{
						"astId": 1381,
						"contract": "FundDistributor.sol:FundDistributor",
						"label": "participants",
						"offset": 0,
						"slot": "3",
						"type": "t_mapping(t_address,t_struct(Participant)1408_storage)"
					}
				],
				"types": {
					"t_address": {
						"encoding": "inplace",
						"label": "address",
						"numberOfBytes": "20"
					},
					"t_bool": {
						"encoding": "inplace",
						"label": "bool",
						"numberOfBytes": "1"
					},
					"t_bytes32": {
						"encoding": "inplace",
						"label": "bytes32",
						"numberOfBytes": "32"
					},
					"t_mapping(t_address,t_bool)": {
						"encoding": "mapping",
						"key": "t_address",
						"label": "mapping(address => bool)",
						"numberOfBytes": "32",
						"value": "t_bool"
					},
					"t_mapping(t_address,t_struct(Participant)1408_storage)": {
						"encoding": "mapping",
						"key": "t_address",
						"label": "mapping(address => struct FundDistributor.Participant)",
						"numberOfBytes": "32",
						"value": "t_struct(Participant)1408_storage"
					},
					"t_mapping(t_bytes32,t_struct(RoleData)19_storage)": {
						"encoding": "mapping",
						"key": "t_bytes32",
						"label": "mapping(bytes32 => struct AccessControl.RoleData)",
						"numberOfBytes": "32",
						"value": "t_struct(RoleData)19_storage"
					},
					"t_struct(Participant)1408_storage": {
						"encoding": "inplace",
						"label": "struct FundDistributor.Participant",
						"members": [
							{
								"astId": 1403,
								"contract": "FundDistributor.sol:FundDistributor",
								"label": "currentLimit",
								"offset": 0,
								"slot": "0",
								"type": "t_uint256"
							},
							{
								"astId": 1405,
								"contract": "FundDistributor.sol:FundDistributor",
								"label": "currentlyOwed",
								"offset": 0,
								"slot": "1",
								"type": "t_uint256"
							},
							{
								"astId": 1407,
								"contract": "FundDistributor.sol:FundDistributor",
								"label": "nextAllowedWithdrawBlock",
								"offset": 0,
								"slot": "2",
								"type": "t_uint256"
							}
						],
						"numberOfBytes": "96"
					},
					"t_struct(RoleData)19_storage": {
						"encoding": "inplace",
						"label": "struct AccessControl.RoleData",
						"members": [
							{
								"astId": 16,
								"contract": "FundDistributor.sol:FundDistributor",
								"label": "members",
								"offset": 0,
								"slot": "0",
								"type": "t_mapping(t_address,t_bool)"
							},
							{
								"astId": 18,
								"contract": "FundDistributor.sol:FundDistributor",
								"label": "adminRole",
								"offset": 0,
								"slot": "1",
								"type": "t_bytes32"
							}
						],
						"numberOfBytes": "64"
					},
					"t_uint256": {
						"encoding": "inplace",
						"label": "uint256",
						"numberOfBytes": "32"
					}
				}
			},
			"userdoc": {
				"kind": "user",
				"methods": {},
				"version": 1
			}
		}
	}
}