{
	"distributor.sol": {
		"FundDistributor": {
			"abi": [
				{
					"inputs": [
						{
							"internalType": "address",
							"name": "_Token",
							"type": "address"
						}
					],
					"stateMutability": "nonpayable",
					"type": "constructor"
				},
				{
					"anonymous": false,
					"inputs": [
						{
							"indexed": true,
							"internalType": "bytes32",
							"name": "role",
							"type": "bytes32"
						},
						{
							"indexed": true,
							"internalType": "bytes32",
							"name": "previousAdminRole",
							"type": "bytes32"
						},
						{
							"indexed": true,
							"internalType": "bytes32",
							"name": "newAdminRole",
							"type": "bytes32"
						}
					],
					"name": "RoleAdminChanged",
					"type": "event"
				},
				{
					"anonymous": false,
					"inputs": [
						{
							"indexed": true,
							"internalType": "bytes32",
							"name": "role",
							"type": "bytes32"
						},
						{
							"indexed": true,
							"internalType": "address",
							"name": "account",
							"type": "address"
						},
						{
							"indexed": true,
							"internalType": "address",
							"name": "sender",
							"type": "address"
						}
					],
					"name": "RoleGranted",
					"type": "event"
				},
				{
					"anonymous": false,
					"inputs": [
						{
							"indexed": true,
							"internalType": "bytes32",
							"name": "role",
							"type": "bytes32"
						},
						{
							"indexed": true,
							"internalType": "address",
							"name": "account",
							"type": "address"
						},
						{
							"indexed": true,
							"internalType": "address",
							"name": "sender",
							"type": "address"
						}
					],
					"name": "RoleRevoked",
					"type": "event"
				},
				{
					"inputs": [],
					"name": "DEFAULT_ADMIN_ROLE",
					"outputs": [
						{
							"internalType": "bytes32",
							"name": "",
							"type": "bytes32"
						}
					],
					"stateMutability": "view",
					"type": "function"
				},
				{
					"inputs": [
						{
							"internalType": "address",
							"name": "",
							"type": "address"
						}
					],
					"name": "Participants",
					"outputs": [
						{
							"internalType": "address",
							"name": "owner",
							"type": "address"
						},
						{
							"internalType": "string",
							"name": "diiaToken",
							"type": "string"
						},
						{
							"internalType": "uint256",
							"name": "currentLimit",
							"type": "uint256"
						},
						{
							"internalType": "uint256",
							"name": "currentlyOwed",
							"type": "uint256"
						},
						{
							"internalType": "uint256",
							"name": "nextAllowedWithdrawBlock",
							"type": "uint256"
						}
					],
					"stateMutability": "view",
					"type": "function"
				},
				{
					"inputs": [
						{
							"internalType": "address",
							"name": "newParticipant",
							"type": "address"
						},
						{
							"internalType": "string",
							"name": "diiaToken",
							"type": "string"
						}
					],
					"name": "addAdress",
					"outputs": [],
					"stateMutability": "nonpayable",
					"type": "function"
				},
				{
					"inputs": [
						{
							"internalType": "bytes32",
							"name": "role",
							"type": "bytes32"
						}
					],
					"name": "getRoleAdmin",
					"outputs": [
						{
							"internalType": "bytes32",
							"name": "",
							"type": "bytes32"
						}
					],
					"stateMutability": "view",
					"type": "function"
				},
				{
					"inputs": [
						{
							"internalType": "bytes32",
							"name": "role",
							"type": "bytes32"
						},
						{
							"internalType": "address",
							"name": "account",
							"type": "address"
						}
					],
					"name": "grantRole",
					"outputs": [],
					"stateMutability": "nonpayable",
					"type": "function"
				},
				{
					"inputs": [
						{
							"internalType": "bytes32",
							"name": "role",
							"type": "bytes32"
						},
						{
							"internalType": "address",
							"name": "account",
							"type": "address"
						}
					],
					"name": "hasRole",
					"outputs": [
						{
							"internalType": "bool",
							"name": "",
							"type": "bool"
						}
					],
					"stateMutability": "view",
					"type": "function"
				},
				{
					"inputs": [
						{
							"internalType": "bytes32",
							"name": "role",
							"type": "bytes32"
						},
						{
							"internalType": "address",
							"name": "account",
							"type": "address"
						}
					],
					"name": "renounceRole",
					"outputs": [],
					"stateMutability": "nonpayable",
					"type": "function"
				},
				{
					"inputs": [
						{
							"internalType": "address",
							"name": "owner",
							"type": "address"
						}
					],
					"name": "repay",
					"outputs": [],
					"stateMutability": "nonpayable",
					"type": "function"
				},
				{
					"inputs": [
						{
							"internalType": "bytes32",
							"name": "role",
							"type": "bytes32"
						},
						{
							"internalType": "address",
							"name": "account",
							"type": "address"
						}
					],
					"name": "revokeRole",
					"outputs": [],
					"stateMutability": "nonpayable",
					"type": "function"
				},
				{
					"inputs": [
						{
							"internalType": "bytes4",
							"name": "interfaceId",
							"type": "bytes4"
						}
					],
					"name": "supportsInterface",
					"outputs": [
						{
							"internalType": "bool",
							"name": "",
							"type": "bool"
						}
					],
					"stateMutability": "view",
					"type": "function"
				},
				{
					"inputs": [],
					"name": "token",
					"outputs": [
						{
							"internalType": "address",
							"name": "",
							"type": "address"
						}
					],
					"stateMutability": "view",
					"type": "function"
				},
				{
					"inputs": [
						{
							"internalType": "uint256",
							"name": "amount",
							"type": "uint256"
						}
					],
					"name": "withdraw",
					"outputs": [],
					"stateMutability": "nonpayable",
					"type": "function"
				}
			],
			"devdoc": {
				"kind": "dev",
				"methods": {
					"getRoleAdmin(bytes32)": {
						"details": "Returns the admin role that controls `role`. See {grantRole} and {revokeRole}. To change a role's admin, use {_setRoleAdmin}."
					},
					"grantRole(bytes32,address)": {
						"details": "Grants `role` to `account`. If `account` had not been already granted `role`, emits a {RoleGranted} event. Requirements: - the caller must have ``role``'s admin role. May emit a {RoleGranted} event."
					},
					"hasRole(bytes32,address)": {
						"details": "Returns `true` if `account` has been granted `role`."
					},
					"renounceRole(bytes32,address)": {
						"details": "Revokes `role` from the calling account. Roles are often managed via {grantRole} and {revokeRole}: this function's purpose is to provide a mechanism for accounts to lose their privileges if they are compromised (such as when a trusted device is misplaced). If the calling account had been revoked `role`, emits a {RoleRevoked} event. Requirements: - the caller must be `account`. May emit a {RoleRevoked} event."
					},
					"revokeRole(bytes32,address)": {
						"details": "Revokes `role` from `account`. If `account` had been granted `role`, emits a {RoleRevoked} event. Requirements: - the caller must have ``role``'s admin role. May emit a {RoleRevoked} event."
					},
					"supportsInterface(bytes4)": {
						"details": "See {IERC165-supportsInterface}."
					}
				},
				"version": 1
			},
			"evm": {
				"assembly": "    /* \"distributor.sol\":181:2381  contract FundDistributor is AccessControl {... */\n  mstore(0x40, 0x80)\n    /* \"distributor.sol\":276:290  20000000000000 */\n  0x12309ce54000\n    /* \"distributor.sol\":257:290  uint256 maxLimit = 20000000000000 */\n  0x02\n  sstore\n    /* \"distributor.sol\":355:466  constructor(address _Token) {... */\n  callvalue\n  dup1\n  iszero\n  tag_1\n  jumpi\n  0x00\n  dup1\n  revert\ntag_1:\n  pop\n  mload(0x40)\n  sub(codesize, bytecodeSize)\n  dup1\n  bytecodeSize\n  dup4\n  codecopy\n  dup2\n  dup2\n  add\n  0x40\n  mstore\n  dup2\n  add\n  swap1\n  tag_2\n  swap2\n  swap1\n  tag_3\n  jump\t// in\ntag_2:\n    /* \"distributor.sol\":401:407  _Token */\n  dup1\n    /* \"distributor.sol\":393:398  token */\n  0x01\n  0x00\n    /* \"distributor.sol\":393:407  token = _Token */\n  0x0100\n  exp\n  dup2\n  sload\n  dup2\n  0xffffffffffffffffffffffffffffffffffffffff\n  mul\n  not\n  and\n  swap1\n  dup4\n  0xffffffffffffffffffffffffffffffffffffffff\n  and\n  mul\n  or\n  swap1\n  sstore\n  pop\n    /* \"distributor.sol\":417:459  _setupRole(DEFAULT_ADMIN_ROLE, msg.sender) */\n  tag_6\n    /* \"@openzeppelin/contracts/access/AccessControl.sol\":2072:2076  0x00 */\n  0x00\n    /* \"distributor.sol\":428:446  DEFAULT_ADMIN_ROLE */\n  dup1\n  shl\n    /* \"distributor.sol\":448:458  msg.sender */\n  caller\n    /* \"distributor.sol\":417:427  _setupRole */\n  shl(0x20, tag_7)\n    /* \"distributor.sol\":417:459  _setupRole(DEFAULT_ADMIN_ROLE, msg.sender) */\n  0x20\n  shr\n  jump\t// in\ntag_6:\n    /* \"distributor.sol\":355:466  constructor(address _Token) {... */\n  pop\n    /* \"distributor.sol\":181:2381  contract FundDistributor is AccessControl {... */\n  jump(tag_8)\n    /* \"@openzeppelin/contracts/access/AccessControl.sol\":6824:6934  function _setupRole(bytes32 role, address account) internal virtual {... */\ntag_7:\n    /* \"@openzeppelin/contracts/access/AccessControl.sol\":6902:6927  _grantRole(role, account) */\n  tag_10\n    /* \"@openzeppelin/contracts/access/AccessControl.sol\":6913:6917  role */\n  dup3\n    /* \"@openzeppelin/contracts/access/AccessControl.sol\":6919:6926  account */\n  dup3\n    /* \"@openzeppelin/contracts/access/AccessControl.sol\":6902:6912  _grantRole */\n  shl(0x20, tag_11)\n    /* \"@openzeppelin/contracts/access/AccessControl.sol\":6902:6927  _grantRole(role, account) */\n  0x20\n  shr\n  jump\t// in\ntag_10:\n    /* \"@openzeppelin/contracts/access/AccessControl.sol\":6824:6934  function _setupRole(bytes32 role, address account) internal virtual {... */\n  pop\n  pop\n  jump\t// out\n    /* \"@openzeppelin/contracts/access/AccessControl.sol\":7474:7707  function _grantRole(bytes32 role, address account) internal virtual {... */\ntag_11:\n    /* \"@openzeppelin/contracts/access/AccessControl.sol\":7557:7579  hasRole(role, account) */\n  tag_13\n    /* \"@openzeppelin/contracts/access/AccessControl.sol\":7565:7569  role */\n  dup3\n    /* \"@openzeppelin/contracts/access/AccessControl.sol\":7571:7578  account */\n  dup3\n    /* \"@openzeppelin/contracts/access/AccessControl.sol\":7557:7564  hasRole */\n  shl(0x20, tag_14)\n    /* \"@openzeppelin/contracts/access/AccessControl.sol\":7557:7579  hasRole(role, account) */\n  0x20\n  shr\n  jump\t// in\ntag_13:\n    /* \"@openzeppelin/contracts/access/AccessControl.sol\":7552:7701  if (!hasRole(role, account)) {... */\n  tag_15\n  jumpi\n    /* \"@openzeppelin/contracts/access/AccessControl.sol\":7627:7631  true */\n  0x01\n    /* \"@openzeppelin/contracts/access/AccessControl.sol\":7595:7601  _roles */\n  0x00\n    /* \"@openzeppelin/contracts/access/AccessControl.sol\":7595:7607  _roles[role] */\n  dup1\n    /* \"@openzeppelin/contracts/access/AccessControl.sol\":7602:7606  role */\n  dup5\n    /* \"@openzeppelin/contracts/access/AccessControl.sol\":7595:7607  _roles[role] */\n  dup2\n  mstore\n  0x20\n  add\n  swap1\n  dup2\n  mstore\n  0x20\n  add\n  0x00\n  keccak256\n    /* \"@openzeppelin/contracts/access/AccessControl.sol\":7595:7615  _roles[role].members */\n  0x00\n  add\n    /* \"@openzeppelin/contracts/access/AccessControl.sol\":7595:7624  _roles[role].members[account] */\n  0x00\n    /* \"@openzeppelin/contracts/access/AccessControl.sol\":7616:7623  account */\n  dup4\n    /* \"@openzeppelin/contracts/access/AccessControl.sol\":7595:7624  _roles[role].members[account] */\n  0xffffffffffffffffffffffffffffffffffffffff\n  and\n  0xffffffffffffffffffffffffffffffffffffffff\n  and\n  dup2\n  mstore\n  0x20\n  add\n  swap1\n  dup2\n  mstore\n  0x20\n  add\n  0x00\n  keccak256\n  0x00\n    /* \"@openzeppelin/contracts/access/AccessControl.sol\":7595:7631  _roles[role].members[account] = true */\n  0x0100\n  exp\n  dup2\n  sload\n  dup2\n  0xff\n  mul\n  not\n  and\n  swap1\n  dup4\n  iszero\n  iszero\n  mul\n  or\n  swap1\n  sstore\n  pop\n    /* \"@openzeppelin/contracts/access/AccessControl.sol\":7677:7689  _msgSender() */\n  tag_16\n    /* \"@openzeppelin/contracts/access/AccessControl.sol\":7677:7687  _msgSender */\n  shl(0x20, tag_17)\n    /* \"@openzeppelin/contracts/access/AccessControl.sol\":7677:7689  _msgSender() */\n  0x20\n  shr\n  jump\t// in\ntag_16:\n    /* \"@openzeppelin/contracts/access/AccessControl.sol\":7650:7690  RoleGranted(role, account, _msgSender()) */\n  0xffffffffffffffffffffffffffffffffffffffff\n  and\n    /* \"@openzeppelin/contracts/access/AccessControl.sol\":7668:7675  account */\n  dup2\n    /* \"@openzeppelin/contracts/access/AccessControl.sol\":7650:7690  RoleGranted(role, account, _msgSender()) */\n  0xffffffffffffffffffffffffffffffffffffffff\n  and\n    /* \"@openzeppelin/contracts/access/AccessControl.sol\":7662:7666  role */\n  dup4\n    /* \"@openzeppelin/contracts/access/AccessControl.sol\":7650:7690  RoleGranted(role, account, _msgSender()) */\n  0x2f8788117e7eff1d82e926ec794901d17c78024a50270940304540a733656f0d\n  mload(0x40)\n  mload(0x40)\n  dup1\n  swap2\n  sub\n  swap1\n  log4\n    /* \"@openzeppelin/contracts/access/AccessControl.sol\":7552:7701  if (!hasRole(role, account)) {... */\ntag_15:\n    /* \"@openzeppelin/contracts/access/AccessControl.sol\":7474:7707  function _grantRole(bytes32 role, address account) internal virtual {... */\n  pop\n  pop\n  jump\t// out\n    /* \"@openzeppelin/contracts/access/AccessControl.sol\":2895:3040  function hasRole(bytes32 role, address account) public view virtual override returns (bool) {... */\ntag_14:\n    /* \"@openzeppelin/contracts/access/AccessControl.sol\":2981:2985  bool */\n  0x00\n    /* \"@openzeppelin/contracts/access/AccessControl.sol\":3004:3010  _roles */\n  dup1\n    /* \"@openzeppelin/contracts/access/AccessControl.sol\":3004:3016  _roles[role] */\n  0x00\n    /* \"@openzeppelin/contracts/access/AccessControl.sol\":3011:3015  role */\n  dup5\n    /* \"@openzeppelin/contracts/access/AccessControl.sol\":3004:3016  _roles[role] */\n  dup2\n  mstore\n  0x20\n  add\n  swap1\n  dup2\n  mstore\n  0x20\n  add\n  0x00\n  keccak256\n    /* \"@openzeppelin/contracts/access/AccessControl.sol\":3004:3024  _roles[role].members */\n  0x00\n  add\n    /* \"@openzeppelin/contracts/access/AccessControl.sol\":3004:3033  _roles[role].members[account] */\n  0x00\n    /* \"@openzeppelin/contracts/access/AccessControl.sol\":3025:3032  account */\n  dup4\n    /* \"@openzeppelin/contracts/access/AccessControl.sol\":3004:3033  _roles[role].members[account] */\n  0xffffffffffffffffffffffffffffffffffffffff\n  and\n  0xffffffffffffffffffffffffffffffffffffffff\n  and\n  dup2\n  mstore\n  0x20\n  add\n  swap1\n  dup2\n  mstore\n  0x20\n  add\n  0x00\n  keccak256\n  0x00\n  swap1\n  sload\n  swap1\n  0x0100\n  exp\n  swap1\n  div\n  0xff\n  and\n    /* \"@openzeppelin/contracts/access/AccessControl.sol\":2997:3033  return _roles[role].members[account] */\n  swap1\n  pop\n    /* \"@openzeppelin/contracts/access/AccessControl.sol\":2895:3040  function hasRole(bytes32 role, address account) public view virtual override returns (bool) {... */\n  swap3\n  swap2\n  pop\n  pop\n  jump\t// out\n    /* \"@openzeppelin/contracts/utils/Context.sol\":640:736  function _msgSender() internal view virtual returns (address) {... */\ntag_17:\n    /* \"@openzeppelin/contracts/utils/Context.sol\":693:700  address */\n  0x00\n    /* \"@openzeppelin/contracts/utils/Context.sol\":719:729  msg.sender */\n  caller\n    /* \"@openzeppelin/contracts/utils/Context.sol\":712:729  return msg.sender */\n  swap1\n  pop\n    /* \"@openzeppelin/contracts/utils/Context.sol\":640:736  function _msgSender() internal view virtual returns (address) {... */\n  swap1\n  jump\t// out\n    /* \"#utility.yul\":7:150   */\ntag_21:\n    /* \"#utility.yul\":64:69   */\n  0x00\n    /* \"#utility.yul\":95:101   */\n  dup2\n    /* \"#utility.yul\":89:102   */\n  mload\n    /* \"#utility.yul\":80:102   */\n  swap1\n  pop\n    /* \"#utility.yul\":111:144   */\n  tag_23\n    /* \"#utility.yul\":138:143   */\n  dup2\n    /* \"#utility.yul\":111:144   */\n  tag_24\n  jump\t// in\ntag_23:\n    /* \"#utility.yul\":7:150   */\n  swap3\n  swap2\n  pop\n  pop\n  jump\t// out\n    /* \"#utility.yul\":156:507   */\ntag_3:\n    /* \"#utility.yul\":226:232   */\n  0x00\n    /* \"#utility.yul\":275:277   */\n  0x20\n    /* \"#utility.yul\":263:272   */\n  dup3\n    /* \"#utility.yul\":254:261   */\n  dup5\n    /* \"#utility.yul\":250:273   */\n  sub\n    /* \"#utility.yul\":246:278   */\n  slt\n    /* \"#utility.yul\":243:362   */\n  iszero\n  tag_26\n  jumpi\n    /* \"#utility.yul\":281:360   */\n  tag_27\n  tag_28\n  jump\t// in\ntag_27:\n    /* \"#utility.yul\":243:362   */\ntag_26:\n    /* \"#utility.yul\":401:402   */\n  0x00\n    /* \"#utility.yul\":426:490   */\n  tag_29\n    /* \"#utility.yul\":482:489   */\n  dup5\n    /* \"#utility.yul\":473:479   */\n  dup3\n    /* \"#utility.yul\":462:471   */\n  dup6\n    /* \"#utility.yul\":458:480   */\n  add\n    /* \"#utility.yul\":426:490   */\n  tag_21\n  jump\t// in\ntag_29:\n    /* \"#utility.yul\":416:490   */\n  swap2\n  pop\n    /* \"#utility.yul\":372:500   */\n  pop\n    /* \"#utility.yul\":156:507   */\n  swap3\n  swap2\n  pop\n  pop\n  jump\t// out\n    /* \"#utility.yul\":594:690   */\ntag_32:\n    /* \"#utility.yul\":631:638   */\n  0x00\n    /* \"#utility.yul\":660:684   */\n  tag_34\n    /* \"#utility.yul\":678:683   */\n  dup3\n    /* \"#utility.yul\":660:684   */\n  tag_35\n  jump\t// in\ntag_34:\n    /* \"#utility.yul\":649:684   */\n  swap1\n  pop\n    /* \"#utility.yul\":594:690   */\n  swap2\n  swap1\n  pop\n  jump\t// out\n    /* \"#utility.yul\":696:822   */\ntag_35:\n    /* \"#utility.yul\":733:740   */\n  0x00\n    /* \"#utility.yul\":773:815   */\n  0xffffffffffffffffffffffffffffffffffffffff\n    /* \"#utility.yul\":766:771   */\n  dup3\n    /* \"#utility.yul\":762:816   */\n  and\n    /* \"#utility.yul\":751:816   */\n  swap1\n  pop\n    /* \"#utility.yul\":696:822   */\n  swap2\n  swap1\n  pop\n  jump\t// out\n    /* \"#utility.yul\":951:1068   */\ntag_28:\n    /* \"#utility.yul\":1060:1061   */\n  0x00\n    /* \"#utility.yul\":1057:1058   */\n  dup1\n    /* \"#utility.yul\":1050:1062   */\n  revert\n    /* \"#utility.yul\":1074:1196   */\ntag_24:\n    /* \"#utility.yul\":1147:1171   */\n  tag_41\n    /* \"#utility.yul\":1165:1170   */\n  dup2\n    /* \"#utility.yul\":1147:1171   */\n  tag_32\n  jump\t// in\ntag_41:\n    /* \"#utility.yul\":1140:1145   */\n  dup2\n    /* \"#utility.yul\":1137:1172   */\n  eq\n    /* \"#utility.yul\":1127:1190   */\n  tag_42\n  jumpi\n    /* \"#utility.yul\":1186:1187   */\n  0x00\n    /* \"#utility.yul\":1183:1184   */\n  dup1\n    /* \"#utility.yul\":1176:1188   */\n  revert\n    /* \"#utility.yul\":1127:1190   */\ntag_42:\n    /* \"#utility.yul\":1074:1196   */\n  pop\n  jump\t// out\n    /* \"distributor.sol\":181:2381  contract FundDistributor is AccessControl {... */\ntag_8:\n  dataSize(sub_0)\n  dup1\n  dataOffset(sub_0)\n  0x00\n  codecopy\n  0x00\n  return\nstop\n\nsub_0: assembly {\n        /* \"distributor.sol\":181:2381  contract FundDistributor is AccessControl {... */\n      mstore(0x40, 0x80)\n      callvalue\n      dup1\n      iszero\n      tag_1\n      jumpi\n      0x00\n      dup1\n      revert\n    tag_1:\n      pop\n      jumpi(tag_2, lt(calldatasize, 0x04))\n      shr(0xe0, calldataload(0x00))\n      dup1\n      0x91d14854\n      gt\n      tag_15\n      jumpi\n      dup1\n      0x91d14854\n      eq\n      tag_9\n      jumpi\n      dup1\n      0x9f7c73e9\n      eq\n      tag_10\n      jumpi\n      dup1\n      0xa217fddf\n      eq\n      tag_11\n      jumpi\n      dup1\n      0xd547741f\n      eq\n      tag_12\n      jumpi\n      dup1\n      0xf2dc12ce\n      eq\n      tag_13\n      jumpi\n      dup1\n      0xfc0c546a\n      eq\n      tag_14\n      jumpi\n      jump(tag_2)\n    tag_15:\n      dup1\n      0x01ffc9a7\n      eq\n      tag_3\n      jumpi\n      dup1\n      0x248a9ca3\n      eq\n      tag_4\n      jumpi\n      dup1\n      0x2e1a7d4d\n      eq\n      tag_5\n      jumpi\n      dup1\n      0x2f2ff15d\n      eq\n      tag_6\n      jumpi\n      dup1\n      0x36568abe\n      eq\n      tag_7\n      jumpi\n      dup1\n      0x595aa13d\n      eq\n      tag_8\n      jumpi\n    tag_2:\n      0x00\n      dup1\n      revert\n        /* \"@openzeppelin/contracts/access/AccessControl.sol\":2606:2808  function supportsInterface(bytes4 interfaceId) public view virtual override returns (bool) {... */\n    tag_3:\n      tag_16\n      0x04\n      dup1\n      calldatasize\n      sub\n      dup2\n      add\n      swap1\n      tag_17\n      swap2\n      swap1\n      tag_18\n      jump\t// in\n    tag_17:\n      tag_19\n      jump\t// in\n    tag_16:\n      mload(0x40)\n      tag_20\n      swap2\n      swap1\n      tag_21\n      jump\t// in\n    tag_20:\n      mload(0x40)\n      dup1\n      swap2\n      sub\n      swap1\n      return\n        /* \"@openzeppelin/contracts/access/AccessControl.sol\":4391:4520  function getRoleAdmin(bytes32 role) public view virtual override returns (bytes32) {... */\n    tag_4:\n      tag_22\n      0x04\n      dup1\n      calldatasize\n      sub\n      dup2\n      add\n      swap1\n      tag_23\n      swap2\n      swap1\n      tag_24\n      jump\t// in\n    tag_23:\n      tag_25\n      jump\t// in\n    tag_22:\n      mload(0x40)\n      tag_26\n      swap2\n      swap1\n      tag_27\n      jump\t// in\n    tag_26:\n      mload(0x40)\n      dup1\n      swap2\n      sub\n      swap1\n      return\n        /* \"distributor.sol\":1087:1827  function withdraw(uint256 amount) public {... */\n    tag_5:\n      tag_28\n      0x04\n      dup1\n      calldatasize\n      sub\n      dup2\n      add\n      swap1\n      tag_29\n      swap2\n      swap1\n      tag_30\n      jump\t// in\n    tag_29:\n      tag_31\n      jump\t// in\n    tag_28:\n      stop\n        /* \"@openzeppelin/contracts/access/AccessControl.sol\":4816:4961  function grantRole(bytes32 role, address account) public virtual override onlyRole(getRoleAdmin(role)) {... */\n    tag_6:\n      tag_32\n      0x04\n      dup1\n      calldatasize\n      sub\n      dup2\n      add\n      swap1\n      tag_33\n      swap2\n      swap1\n      tag_34\n      jump\t// in\n    tag_33:\n      tag_35\n      jump\t// in\n    tag_32:\n      stop\n        /* \"@openzeppelin/contracts/access/AccessControl.sol\":5925:6139  function renounceRole(bytes32 role, address account) public virtual override {... */\n    tag_7:\n      tag_36\n      0x04\n      dup1\n      calldatasize\n      sub\n      dup2\n      add\n      swap1\n      tag_37\n      swap2\n      swap1\n      tag_34\n      jump\t// in\n    tag_37:\n      tag_38\n      jump\t// in\n    tag_36:\n      stop\n        /* \"distributor.sol\":297:348  mapping(address => Participant) public Participants */\n    tag_8:\n      tag_39\n      0x04\n      dup1\n      calldatasize\n      sub\n      dup2\n      add\n      swap1\n      tag_40\n      swap2\n      swap1\n      tag_41\n      jump\t// in\n    tag_40:\n      tag_42\n      jump\t// in\n    tag_39:\n      mload(0x40)\n      tag_43\n      swap6\n      swap5\n      swap4\n      swap3\n      swap2\n      swap1\n      tag_44\n      jump\t// in\n    tag_43:\n      mload(0x40)\n      dup1\n      swap2\n      sub\n      swap1\n      return\n        /* \"@openzeppelin/contracts/access/AccessControl.sol\":2895:3040  function hasRole(bytes32 role, address account) public view virtual override returns (bool) {... */\n    tag_9:\n      tag_45\n      0x04\n      dup1\n      calldatasize\n      sub\n      dup2\n      add\n      swap1\n      tag_46\n      swap2\n      swap1\n      tag_34\n      jump\t// in\n    tag_46:\n      tag_47\n      jump\t// in\n    tag_45:\n      mload(0x40)\n      tag_48\n      swap2\n      swap1\n      tag_21\n      jump\t// in\n    tag_48:\n      mload(0x40)\n      dup1\n      swap2\n      sub\n      swap1\n      return\n        /* \"distributor.sol\":1833:2284  function repay(address owner) public {... */\n    tag_10:\n      tag_49\n      0x04\n      dup1\n      calldatasize\n      sub\n      dup2\n      add\n      swap1\n      tag_50\n      swap2\n      swap1\n      tag_41\n      jump\t// in\n    tag_50:\n      tag_51\n      jump\t// in\n    tag_49:\n      stop\n        /* \"@openzeppelin/contracts/access/AccessControl.sol\":2027:2076  bytes32 public constant DEFAULT_ADMIN_ROLE = 0x00 */\n    tag_11:\n      tag_52\n      tag_53\n      jump\t// in\n    tag_52:\n      mload(0x40)\n      tag_54\n      swap2\n      swap1\n      tag_27\n      jump\t// in\n    tag_54:\n      mload(0x40)\n      dup1\n      swap2\n      sub\n      swap1\n      return\n        /* \"@openzeppelin/contracts/access/AccessControl.sol\":5241:5388  function revokeRole(bytes32 role, address account) public virtual override onlyRole(getRoleAdmin(role)) {... */\n    tag_12:\n      tag_55\n      0x04\n      dup1\n      calldatasize\n      sub\n      dup2\n      add\n      swap1\n      tag_56\n      swap2\n      swap1\n      tag_34\n      jump\t// in\n    tag_56:\n      tag_57\n      jump\t// in\n    tag_55:\n      stop\n        /* \"distributor.sol\":656:1081  function addAdress(address newParticipant, string memory diiaToken) external {... */\n    tag_13:\n      tag_58\n      0x04\n      dup1\n      calldatasize\n      sub\n      dup2\n      add\n      swap1\n      tag_59\n      swap2\n      swap1\n      tag_60\n      jump\t// in\n    tag_59:\n      tag_61\n      jump\t// in\n    tag_58:\n      stop\n        /* \"distributor.sol\":230:250  address public token */\n    tag_14:\n      tag_62\n      tag_63\n      jump\t// in\n    tag_62:\n      mload(0x40)\n      tag_64\n      swap2\n      swap1\n      tag_65\n      jump\t// in\n    tag_64:\n      mload(0x40)\n      dup1\n      swap2\n      sub\n      swap1\n      return\n        /* \"@openzeppelin/contracts/access/AccessControl.sol\":2606:2808  function supportsInterface(bytes4 interfaceId) public view virtual override returns (bool) {... */\n    tag_19:\n        /* \"@openzeppelin/contracts/access/AccessControl.sol\":2691:2695  bool */\n      0x00\n        /* \"@openzeppelin/contracts/access/AccessControl.sol\":2729:2761  type(IAccessControl).interfaceId */\n      0x7965db0b00000000000000000000000000000000000000000000000000000000\n        /* \"@openzeppelin/contracts/access/AccessControl.sol\":2714:2761  interfaceId == type(IAccessControl).interfaceId */\n      not(0xffffffffffffffffffffffffffffffffffffffffffffffffffffffff)\n      and\n        /* \"@openzeppelin/contracts/access/AccessControl.sol\":2714:2725  interfaceId */\n      dup3\n        /* \"@openzeppelin/contracts/access/AccessControl.sol\":2714:2761  interfaceId == type(IAccessControl).interfaceId */\n      not(0xffffffffffffffffffffffffffffffffffffffffffffffffffffffff)\n      and\n      eq\n        /* \"@openzeppelin/contracts/access/AccessControl.sol\":2714:2801  interfaceId == type(IAccessControl).interfaceId || super.supportsInterface(interfaceId) */\n      dup1\n      tag_67\n      jumpi\n      pop\n        /* \"@openzeppelin/contracts/access/AccessControl.sol\":2765:2801  super.supportsInterface(interfaceId) */\n      tag_68\n        /* \"@openzeppelin/contracts/access/AccessControl.sol\":2789:2800  interfaceId */\n      dup3\n        /* \"@openzeppelin/contracts/access/AccessControl.sol\":2765:2788  super.supportsInterface */\n      tag_69\n        /* \"@openzeppelin/contracts/access/AccessControl.sol\":2765:2801  super.supportsInterface(interfaceId) */\n      jump\t// in\n    tag_68:\n        /* \"@openzeppelin/contracts/access/AccessControl.sol\":2714:2801  interfaceId == type(IAccessControl).interfaceId || super.supportsInterface(interfaceId) */\n    tag_67:\n        /* \"@openzeppelin/contracts/access/AccessControl.sol\":2707:2801  return interfaceId == type(IAccessControl).interfaceId || super.supportsInterface(interfaceId) */\n      swap1\n      pop\n        /* \"@openzeppelin/contracts/access/AccessControl.sol\":2606:2808  function supportsInterface(bytes4 interfaceId) public view virtual override returns (bool) {... */\n      swap2\n      swap1\n      pop\n      jump\t// out\n        /* \"@openzeppelin/contracts/access/AccessControl.sol\":4391:4520  function getRoleAdmin(bytes32 role) public view virtual override returns (bytes32) {... */\n    tag_25:\n        /* \"@openzeppelin/contracts/access/AccessControl.sol\":4465:4472  bytes32 */\n      0x00\n        /* \"@openzeppelin/contracts/access/AccessControl.sol\":4491:4497  _roles */\n      dup1\n        /* \"@openzeppelin/contracts/access/AccessControl.sol\":4491:4503  _roles[role] */\n      0x00\n        /* \"@openzeppelin/contracts/access/AccessControl.sol\":4498:4502  role */\n      dup4\n        /* \"@openzeppelin/contracts/access/AccessControl.sol\":4491:4503  _roles[role] */\n      dup2\n      mstore\n      0x20\n      add\n      swap1\n      dup2\n      mstore\n      0x20\n      add\n      0x00\n      keccak256\n        /* \"@openzeppelin/contracts/access/AccessControl.sol\":4491:4513  _roles[role].adminRole */\n      0x01\n      add\n      sload\n        /* \"@openzeppelin/contracts/access/AccessControl.sol\":4484:4513  return _roles[role].adminRole */\n      swap1\n      pop\n        /* \"@openzeppelin/contracts/access/AccessControl.sol\":4391:4520  function getRoleAdmin(bytes32 role) public view virtual override returns (bytes32) {... */\n      swap2\n      swap1\n      pop\n      jump\t// out\n        /* \"distributor.sol\":1087:1827  function withdraw(uint256 amount) public {... */\n    tag_31:\n        /* \"distributor.sol\":1138:1153  uint256 balance */\n      0x00\n        /* \"distributor.sol\":1162:1167  token */\n      0x01\n      0x00\n      swap1\n      sload\n      swap1\n      0x0100\n      exp\n      swap1\n      div\n      0xffffffffffffffffffffffffffffffffffffffff\n      and\n        /* \"distributor.sol\":1156:1178  ERC20(token).balanceOf */\n      0xffffffffffffffffffffffffffffffffffffffff\n      and\n      0x70a08231\n        /* \"distributor.sol\":1187:1191  this */\n      address\n        /* \"distributor.sol\":1156:1193  ERC20(token).balanceOf(address(this)) */\n      mload(0x40)\n      dup3\n      0xffffffff\n      and\n      0xe0\n      shl\n      dup2\n      mstore\n      0x04\n      add\n      tag_72\n      swap2\n      swap1\n      tag_65\n      jump\t// in\n    tag_72:\n      0x20\n      mload(0x40)\n      dup1\n      dup4\n      sub\n      dup2\n      dup7\n      dup1\n      extcodesize\n      iszero\n      dup1\n      iszero\n      tag_73\n      jumpi\n      0x00\n      dup1\n      revert\n    tag_73:\n      pop\n      gas\n      staticcall\n      iszero\n      dup1\n      iszero\n      tag_75\n      jumpi\n      returndatasize\n      0x00\n      dup1\n      returndatacopy\n      revert(0x00, returndatasize)\n    tag_75:\n      pop\n      pop\n      pop\n      pop\n      mload(0x40)\n      returndatasize\n      not(0x1f)\n      0x1f\n      dup3\n      add\n      and\n      dup3\n      add\n      dup1\n      0x40\n      mstore\n      pop\n      dup2\n      add\n      swap1\n      tag_76\n      swap2\n      swap1\n      tag_77\n      jump\t// in\n    tag_76:\n        /* \"distributor.sol\":1138:1193  uint256 balance = ERC20(token).balanceOf(address(this)) */\n      swap1\n      pop\n        /* \"distributor.sol\":1221:1227  amount */\n      dup2\n        /* \"distributor.sol\":1211:1218  balance */\n      dup2\n        /* \"distributor.sol\":1211:1227  balance > amount */\n      gt\n        /* \"distributor.sol\":1203:1260  require(balance > amount, \"not enough funds in contract\") */\n      tag_78\n      jumpi\n      mload(0x40)\n      0x08c379a000000000000000000000000000000000000000000000000000000000\n      dup2\n      mstore\n      0x04\n      add\n      tag_79\n      swap1\n      tag_80\n      jump\t// in\n    tag_79:\n      mload(0x40)\n      dup1\n      swap2\n      sub\n      swap1\n      revert\n    tag_78:\n        /* \"distributor.sol\":1271:1294  Participant memory user */\n      0x00\n        /* \"distributor.sol\":1297:1309  Participants */\n      0x03\n        /* \"distributor.sol\":1297:1321  Participants[msg.sender] */\n      0x00\n        /* \"distributor.sol\":1310:1320  msg.sender */\n      caller\n        /* \"distributor.sol\":1297:1321  Participants[msg.sender] */\n      0xffffffffffffffffffffffffffffffffffffffff\n      and\n      0xffffffffffffffffffffffffffffffffffffffff\n      and\n      dup2\n      mstore\n      0x20\n      add\n      swap1\n      dup2\n      mstore\n      0x20\n      add\n      0x00\n      keccak256\n        /* \"distributor.sol\":1271:1321  Participant memory user = Participants[msg.sender] */\n      mload(0x40)\n      dup1\n      0xa0\n      add\n      0x40\n      mstore\n      swap1\n      dup2\n      0x00\n      dup3\n      add\n      0x00\n      swap1\n      sload\n      swap1\n      0x0100\n      exp\n      swap1\n      div\n      0xffffffffffffffffffffffffffffffffffffffff\n      and\n      0xffffffffffffffffffffffffffffffffffffffff\n      and\n      0xffffffffffffffffffffffffffffffffffffffff\n      and\n      dup2\n      mstore\n      0x20\n      add\n      0x01\n      dup3\n      add\n      dup1\n      sload\n      tag_81\n      swap1\n      tag_82\n      jump\t// in\n    tag_81:\n      dup1\n      0x1f\n      add\n      0x20\n      dup1\n      swap2\n      div\n      mul\n      0x20\n      add\n      mload(0x40)\n      swap1\n      dup2\n      add\n      0x40\n      mstore\n      dup1\n      swap3\n      swap2\n      swap1\n      dup2\n      dup2\n      mstore\n      0x20\n      add\n      dup3\n      dup1\n      sload\n      tag_83\n      swap1\n      tag_82\n      jump\t// in\n    tag_83:\n      dup1\n      iszero\n      tag_84\n      jumpi\n      dup1\n      0x1f\n      lt\n      tag_85\n      jumpi\n      0x0100\n      dup1\n      dup4\n      sload\n      div\n      mul\n      dup4\n      mstore\n      swap2\n      0x20\n      add\n      swap2\n      jump(tag_84)\n    tag_85:\n      dup3\n      add\n      swap2\n      swap1\n      0x00\n      mstore\n      keccak256(0x00, 0x20)\n      swap1\n    tag_86:\n      dup2\n      sload\n      dup2\n      mstore\n      swap1\n      0x01\n      add\n      swap1\n      0x20\n      add\n      dup1\n      dup4\n      gt\n      tag_86\n      jumpi\n      dup3\n      swap1\n      sub\n      0x1f\n      and\n      dup3\n      add\n      swap2\n    tag_84:\n      pop\n      pop\n      pop\n      pop\n      pop\n      dup2\n      mstore\n      0x20\n      add\n      0x02\n      dup3\n      add\n      sload\n      dup2\n      mstore\n      0x20\n      add\n      0x03\n      dup3\n      add\n      sload\n      dup2\n      mstore\n      0x20\n      add\n      0x04\n      dup3\n      add\n      sload\n      dup2\n      mstore\n      pop\n      pop\n      swap1\n      pop\n        /* \"distributor.sol\":1371:1383  block.number */\n      number\n        /* \"distributor.sol\":1339:1343  user */\n      dup2\n        /* \"distributor.sol\":1339:1368  user.nextAllowedWithdrawBlock */\n      0x80\n      add\n      mload\n        /* \"distributor.sol\":1339:1383  user.nextAllowedWithdrawBlock > block.number */\n      gt\n        /* \"distributor.sol\":1331:1428  require(user.nextAllowedWithdrawBlock > block.number, \"caller is not eligible for next withdraw\") */\n      tag_87\n      jumpi\n      mload(0x40)\n      0x08c379a000000000000000000000000000000000000000000000000000000000\n      dup2\n      mstore\n      0x04\n      add\n      tag_88\n      swap1\n      tag_89\n      jump\t// in\n    tag_88:\n      mload(0x40)\n      dup1\n      swap2\n      sub\n      swap1\n      revert\n    tag_87:\n        /* \"distributor.sol\":1466:1472  amount */\n      dup3\n        /* \"distributor.sol\":1446:1450  user */\n      dup2\n        /* \"distributor.sol\":1446:1463  user.currentLimit */\n      0x40\n      add\n      mload\n        /* \"distributor.sol\":1446:1472  user.currentLimit > amount */\n      gt\n        /* \"distributor.sol\":1438:1519  require(user.currentLimit > amount, \"caller is not eligible for withdraw amount\") */\n      tag_90\n      jumpi\n      mload(0x40)\n      0x08c379a000000000000000000000000000000000000000000000000000000000\n      dup2\n      mstore\n      0x04\n      add\n      tag_91\n      swap1\n      tag_92\n      jump\t// in\n    tag_91:\n      mload(0x40)\n      dup1\n      swap2\n      sub\n      swap1\n      revert\n    tag_90:\n        /* \"distributor.sol\":1578:1584  amount */\n      dup3\n        /* \"distributor.sol\":1558:1562  user */\n      dup2\n        /* \"distributor.sol\":1558:1575  user.currentLimit */\n      0x40\n      add\n      mload\n        /* \"distributor.sol\":1558:1584  user.currentLimit - amount */\n      tag_93\n      swap2\n      swap1\n      tag_94\n      jump\t// in\n    tag_93:\n        /* \"distributor.sol\":1537:1541  user */\n      dup2\n        /* \"distributor.sol\":1537:1555  user.currentlyOwed */\n      0x60\n      add\n      mload\n        /* \"distributor.sol\":1537:1584  user.currentlyOwed < user.currentLimit - amount */\n      lt\n        /* \"distributor.sol\":1529:1631  require(user.currentlyOwed < user.currentLimit - amount, \"caller is not eligible for withdraw amount\") */\n      tag_95\n      jumpi\n      mload(0x40)\n      0x08c379a000000000000000000000000000000000000000000000000000000000\n      dup2\n      mstore\n      0x04\n      add\n      tag_96\n      swap1\n      tag_92\n      jump\t// in\n    tag_96:\n      mload(0x40)\n      dup1\n      swap2\n      sub\n      swap1\n      revert\n    tag_95:\n        /* \"distributor.sol\":1655:1660  token */\n      0x01\n      0x00\n      swap1\n      sload\n      swap1\n      0x0100\n      exp\n      swap1\n      div\n      0xffffffffffffffffffffffffffffffffffffffff\n      and\n        /* \"distributor.sol\":1649:1670  ERC20(token).transfer */\n      0xffffffffffffffffffffffffffffffffffffffff\n      and\n      0xa9059cbb\n        /* \"distributor.sol\":1671:1681  msg.sender */\n      caller\n        /* \"distributor.sol\":1683:1689  amount */\n      dup6\n        /* \"distributor.sol\":1649:1690  ERC20(token).transfer(msg.sender, amount) */\n      mload(0x40)\n      dup4\n      0xffffffff\n      and\n      0xe0\n      shl\n      dup2\n      mstore\n      0x04\n      add\n      tag_97\n      swap3\n      swap2\n      swap1\n      tag_98\n      jump\t// in\n    tag_97:\n      0x20\n      mload(0x40)\n      dup1\n      dup4\n      sub\n      dup2\n      0x00\n      dup8\n      dup1\n      extcodesize\n      iszero\n      dup1\n      iszero\n      tag_99\n      jumpi\n      0x00\n      dup1\n      revert\n    tag_99:\n      pop\n      gas\n      call\n      iszero\n      dup1\n      iszero\n      tag_101\n      jumpi\n      returndatasize\n      0x00\n      dup1\n      returndatacopy\n      revert(0x00, returndatasize)\n    tag_101:\n      pop\n      pop\n      pop\n      pop\n      mload(0x40)\n      returndatasize\n      not(0x1f)\n      0x1f\n      dup3\n      add\n      and\n      dup3\n      add\n      dup1\n      0x40\n      mstore\n      pop\n      dup2\n      add\n      swap1\n      tag_102\n      swap2\n      swap1\n      tag_103\n      jump\t// in\n    tag_102:\n        /* \"distributor.sol\":1641:1710  require(ERC20(token).transfer(msg.sender, amount), \"withdraw failed\") */\n      tag_104\n      jumpi\n      mload(0x40)\n      0x08c379a000000000000000000000000000000000000000000000000000000000\n      dup2\n      mstore\n      0x04\n      add\n      tag_105\n      swap1\n      tag_106\n      jump\t// in\n    tag_105:\n      mload(0x40)\n      dup1\n      swap2\n      sub\n      swap1\n      revert\n    tag_104:\n        /* \"distributor.sol\":1751:1757  amount */\n      dup3\n        /* \"distributor.sol\":1729:1733  user */\n      dup2\n        /* \"distributor.sol\":1729:1747  user.currentlyOwed */\n      0x60\n      add\n        /* \"distributor.sol\":1729:1757  user.currentlyOwed += amount */\n      dup2\n      dup2\n      mload\n      tag_107\n      swap2\n      swap1\n      tag_108\n      jump\t// in\n    tag_107:\n      swap2\n      pop\n      dup2\n      dup2\n      mstore\n      pop\n      pop\n        /* \"distributor.sol\":1815:1820  67280 */\n      0x0106d0\n        /* \"distributor.sol\":1800:1812  block.number */\n      number\n        /* \"distributor.sol\":1800:1820  block.number + 67280 */\n      tag_109\n      swap2\n      swap1\n      tag_108\n      jump\t// in\n    tag_109:\n        /* \"distributor.sol\":1767:1771  user */\n      dup2\n        /* \"distributor.sol\":1767:1796  user.nextAllowedWithdrawBlock */\n      0x80\n      add\n        /* \"distributor.sol\":1767:1820  user.nextAllowedWithdrawBlock += block.number + 67280 */\n      dup2\n      dup2\n      mload\n      tag_110\n      swap2\n      swap1\n      tag_108\n      jump\t// in\n    tag_110:\n      swap2\n      pop\n      dup2\n      dup2\n      mstore\n      pop\n      pop\n        /* \"distributor.sol\":1128:1827  {... */\n      pop\n      pop\n        /* \"distributor.sol\":1087:1827  function withdraw(uint256 amount) public {... */\n      pop\n      jump\t// out\n        /* \"@openzeppelin/contracts/access/AccessControl.sol\":4816:4961  function grantRole(bytes32 role, address account) public virtual override onlyRole(getRoleAdmin(role)) {... */\n    tag_35:\n        /* \"@openzeppelin/contracts/access/AccessControl.sol\":4899:4917  getRoleAdmin(role) */\n      tag_111\n        /* \"@openzeppelin/contracts/access/AccessControl.sol\":4912:4916  role */\n      dup3\n        /* \"@openzeppelin/contracts/access/AccessControl.sol\":4899:4911  getRoleAdmin */\n      tag_25\n        /* \"@openzeppelin/contracts/access/AccessControl.sol\":4899:4917  getRoleAdmin(role) */\n      jump\t// in\n    tag_111:\n        /* \"@openzeppelin/contracts/access/AccessControl.sol\":2505:2521  _checkRole(role) */\n      tag_113\n        /* \"@openzeppelin/contracts/access/AccessControl.sol\":2516:2520  role */\n      dup2\n        /* \"@openzeppelin/contracts/access/AccessControl.sol\":2505:2515  _checkRole */\n      tag_114\n        /* \"@openzeppelin/contracts/access/AccessControl.sol\":2505:2521  _checkRole(role) */\n      jump\t// in\n    tag_113:\n        /* \"@openzeppelin/contracts/access/AccessControl.sol\":4929:4954  _grantRole(role, account) */\n      tag_116\n        /* \"@openzeppelin/contracts/access/AccessControl.sol\":4940:4944  role */\n      dup4\n        /* \"@openzeppelin/contracts/access/AccessControl.sol\":4946:4953  account */\n      dup4\n        /* \"@openzeppelin/contracts/access/AccessControl.sol\":4929:4939  _grantRole */\n      tag_117\n        /* \"@openzeppelin/contracts/access/AccessControl.sol\":4929:4954  _grantRole(role, account) */\n      jump\t// in\n    tag_116:\n        /* \"@openzeppelin/contracts/access/AccessControl.sol\":4816:4961  function grantRole(bytes32 role, address account) public virtual override onlyRole(getRoleAdmin(role)) {... */\n      pop\n      pop\n      pop\n      jump\t// out\n        /* \"@openzeppelin/contracts/access/AccessControl.sol\":5925:6139  function renounceRole(bytes32 role, address account) public virtual override {... */\n    tag_38:\n        /* \"@openzeppelin/contracts/access/AccessControl.sol\":6031:6043  _msgSender() */\n      tag_119\n        /* \"@openzeppelin/contracts/access/AccessControl.sol\":6031:6041  _msgSender */\n      tag_120\n        /* \"@openzeppelin/contracts/access/AccessControl.sol\":6031:6043  _msgSender() */\n      jump\t// in\n    tag_119:\n        /* \"@openzeppelin/contracts/access/AccessControl.sol\":6020:6043  account == _msgSender() */\n      0xffffffffffffffffffffffffffffffffffffffff\n      and\n        /* \"@openzeppelin/contracts/access/AccessControl.sol\":6020:6027  account */\n      dup2\n        /* \"@openzeppelin/contracts/access/AccessControl.sol\":6020:6043  account == _msgSender() */\n      0xffffffffffffffffffffffffffffffffffffffff\n      and\n      eq\n        /* \"@openzeppelin/contracts/access/AccessControl.sol\":6012:6095  require(account == _msgSender(), \"AccessControl: can only renounce roles for self\") */\n      tag_121\n      jumpi\n      mload(0x40)\n      0x08c379a000000000000000000000000000000000000000000000000000000000\n      dup2\n      mstore\n      0x04\n      add\n      tag_122\n      swap1\n      tag_123\n      jump\t// in\n    tag_122:\n      mload(0x40)\n      dup1\n      swap2\n      sub\n      swap1\n      revert\n    tag_121:\n        /* \"@openzeppelin/contracts/access/AccessControl.sol\":6106:6132  _revokeRole(role, account) */\n      tag_124\n        /* \"@openzeppelin/contracts/access/AccessControl.sol\":6118:6122  role */\n      dup3\n        /* \"@openzeppelin/contracts/access/AccessControl.sol\":6124:6131  account */\n      dup3\n        /* \"@openzeppelin/contracts/access/AccessControl.sol\":6106:6117  _revokeRole */\n      tag_125\n        /* \"@openzeppelin/contracts/access/AccessControl.sol\":6106:6132  _revokeRole(role, account) */\n      jump\t// in\n    tag_124:\n        /* \"@openzeppelin/contracts/access/AccessControl.sol\":5925:6139  function renounceRole(bytes32 role, address account) public virtual override {... */\n      pop\n      pop\n      jump\t// out\n        /* \"distributor.sol\":297:348  mapping(address => Participant) public Participants */\n    tag_42:\n      mstore(0x20, 0x03)\n      dup1\n      0x00\n      mstore\n      keccak256(0x00, 0x40)\n      0x00\n      swap2\n      pop\n      swap1\n      pop\n      dup1\n      0x00\n      add\n      0x00\n      swap1\n      sload\n      swap1\n      0x0100\n      exp\n      swap1\n      div\n      0xffffffffffffffffffffffffffffffffffffffff\n      and\n      swap1\n      dup1\n      0x01\n      add\n      dup1\n      sload\n      tag_126\n      swap1\n      tag_82\n      jump\t// in\n    tag_126:\n      dup1\n      0x1f\n      add\n      0x20\n      dup1\n      swap2\n      div\n      mul\n      0x20\n      add\n      mload(0x40)\n      swap1\n      dup2\n      add\n      0x40\n      mstore\n      dup1\n      swap3\n      swap2\n      swap1\n      dup2\n      dup2\n      mstore\n      0x20\n      add\n      dup3\n      dup1\n      sload\n      tag_127\n      swap1\n      tag_82\n      jump\t// in\n    tag_127:\n      dup1\n      iszero\n      tag_128\n      jumpi\n      dup1\n      0x1f\n      lt\n      tag_129\n      jumpi\n      0x0100\n      dup1\n      dup4\n      sload\n      div\n      mul\n      dup4\n      mstore\n      swap2\n      0x20\n      add\n      swap2\n      jump(tag_128)\n    tag_129:\n      dup3\n      add\n      swap2\n      swap1\n      0x00\n      mstore\n      keccak256(0x00, 0x20)\n      swap1\n    tag_130:\n      dup2\n      sload\n      dup2\n      mstore\n      swap1\n      0x01\n      add\n      swap1\n      0x20\n      add\n      dup1\n      dup4\n      gt\n      tag_130\n      jumpi\n      dup3\n      swap1\n      sub\n      0x1f\n      and\n      dup3\n      add\n      swap2\n    tag_128:\n      pop\n      pop\n      pop\n      pop\n      pop\n      swap1\n      dup1\n      0x02\n      add\n      sload\n      swap1\n      dup1\n      0x03\n      add\n      sload\n      swap1\n      dup1\n      0x04\n      add\n      sload\n      swap1\n      pop\n      dup6\n      jump\t// out\n        /* \"@openzeppelin/contracts/access/AccessControl.sol\":2895:3040  function hasRole(bytes32 role, address account) public view virtual override returns (bool) {... */\n    tag_47:\n        /* \"@openzeppelin/contracts/access/AccessControl.sol\":2981:2985  bool */\n      0x00\n        /* \"@openzeppelin/contracts/access/AccessControl.sol\":3004:3010  _roles */\n      dup1\n        /* \"@openzeppelin/contracts/access/AccessControl.sol\":3004:3016  _roles[role] */\n      0x00\n        /* \"@openzeppelin/contracts/access/AccessControl.sol\":3011:3015  role */\n      dup5\n        /* \"@openzeppelin/contracts/access/AccessControl.sol\":3004:3016  _roles[role] */\n      dup2\n      mstore\n      0x20\n      add\n      swap1\n      dup2\n      mstore\n      0x20\n      add\n      0x00\n      keccak256\n        /* \"@openzeppelin/contracts/access/AccessControl.sol\":3004:3024  _roles[role].members */\n      0x00\n      add\n        /* \"@openzeppelin/contracts/access/AccessControl.sol\":3004:3033  _roles[role].members[account] */\n      0x00\n        /* \"@openzeppelin/contracts/access/AccessControl.sol\":3025:3032  account */\n      dup4\n        /* \"@openzeppelin/contracts/access/AccessControl.sol\":3004:3033  _roles[role].members[account] */\n      0xffffffffffffffffffffffffffffffffffffffff\n      and\n      0xffffffffffffffffffffffffffffffffffffffff\n      and\n      dup2\n      mstore\n      0x20\n      add\n      swap1\n      dup2\n      mstore\n      0x20\n      add\n      0x00\n      keccak256\n      0x00\n      swap1\n      sload\n      swap1\n      0x0100\n      exp\n      swap1\n      div\n      0xff\n      and\n        /* \"@openzeppelin/contracts/access/AccessControl.sol\":2997:3033  return _roles[role].members[account] */\n      swap1\n      pop\n        /* \"@openzeppelin/contracts/access/AccessControl.sol\":2895:3040  function hasRole(bytes32 role, address account) public view virtual override returns (bool) {... */\n      swap3\n      swap2\n      pop\n      pop\n      jump\t// out\n        /* \"distributor.sol\":1833:2284  function repay(address owner) public {... */\n    tag_51:\n        /* \"distributor.sol\":1880:1892  uint256 owed */\n      0x00\n        /* \"distributor.sol\":1895:1907  Participants */\n      0x03\n        /* \"distributor.sol\":1895:1914  Participants[owner] */\n      0x00\n        /* \"distributor.sol\":1908:1913  owner */\n      dup4\n        /* \"distributor.sol\":1895:1914  Participants[owner] */\n      0xffffffffffffffffffffffffffffffffffffffff\n      and\n      0xffffffffffffffffffffffffffffffffffffffff\n      and\n      dup2\n      mstore\n      0x20\n      add\n      swap1\n      dup2\n      mstore\n      0x20\n      add\n      0x00\n      keccak256\n        /* \"distributor.sol\":1895:1928  Participants[owner].currentlyOwed */\n      0x03\n      add\n      sload\n        /* \"distributor.sol\":1880:1928  uint256 owed = Participants[owner].currentlyOwed */\n      swap1\n      pop\n        /* \"distributor.sol\":1952:1957  token */\n      0x01\n      0x00\n      swap1\n      sload\n      swap1\n      0x0100\n      exp\n      swap1\n      div\n      0xffffffffffffffffffffffffffffffffffffffff\n      and\n        /* \"distributor.sol\":1946:1971  ERC20(token).transferFrom */\n      0xffffffffffffffffffffffffffffffffffffffff\n      and\n      0x23b872dd\n        /* \"distributor.sol\":1972:1982  msg.sender */\n      caller\n        /* \"distributor.sol\":1992:1996  this */\n      address\n        /* \"distributor.sol\":1999:2003  owed */\n      dup5\n        /* \"distributor.sol\":1946:2004  ERC20(token).transferFrom(msg.sender, address(this), owed) */\n      mload(0x40)\n      dup5\n      0xffffffff\n      and\n      0xe0\n      shl\n      dup2\n      mstore\n      0x04\n      add\n      tag_133\n      swap4\n      swap3\n      swap2\n      swap1\n      tag_134\n      jump\t// in\n    tag_133:\n      0x20\n      mload(0x40)\n      dup1\n      dup4\n      sub\n      dup2\n      0x00\n      dup8\n      dup1\n      extcodesize\n      iszero\n      dup1\n      iszero\n      tag_135\n      jumpi\n      0x00\n      dup1\n      revert\n    tag_135:\n      pop\n      gas\n      call\n      iszero\n      dup1\n      iszero\n      tag_137\n      jumpi\n      returndatasize\n      0x00\n      dup1\n      returndatacopy\n      revert(0x00, returndatasize)\n    tag_137:\n      pop\n      pop\n      pop\n      pop\n      mload(0x40)\n      returndatasize\n      not(0x1f)\n      0x1f\n      dup3\n      add\n      and\n      dup3\n      add\n      dup1\n      0x40\n      mstore\n      pop\n      dup2\n      add\n      swap1\n      tag_138\n      swap2\n      swap1\n      tag_103\n      jump\t// in\n    tag_138:\n        /* \"distributor.sol\":1938:2021  require(ERC20(token).transferFrom(msg.sender, address(this), owed), \"failed repay\") */\n      tag_139\n      jumpi\n      mload(0x40)\n      0x08c379a000000000000000000000000000000000000000000000000000000000\n      dup2\n      mstore\n      0x04\n      add\n      tag_140\n      swap1\n      tag_141\n      jump\t// in\n    tag_140:\n      mload(0x40)\n      dup1\n      swap2\n      sub\n      swap1\n      revert\n    tag_139:\n        /* \"distributor.sol\":2032:2048  uint256 newLimit */\n      0x00\n        /* \"distributor.sol\":2092:2095  100 */\n      0x64\n        /* \"distributor.sol\":2086:2089  105 */\n      0x69\n        /* \"distributor.sol\":2051:2063  Participants */\n      0x03\n        /* \"distributor.sol\":2051:2070  Participants[owner] */\n      0x00\n        /* \"distributor.sol\":2064:2069  owner */\n      dup7\n        /* \"distributor.sol\":2051:2070  Participants[owner] */\n      0xffffffffffffffffffffffffffffffffffffffff\n      and\n      0xffffffffffffffffffffffffffffffffffffffff\n      and\n      dup2\n      mstore\n      0x20\n      add\n      swap1\n      dup2\n      mstore\n      0x20\n      add\n      0x00\n      keccak256\n        /* \"distributor.sol\":2051:2083  Participants[owner].currentLimit */\n      0x02\n      add\n      sload\n        /* \"distributor.sol\":2051:2089  Participants[owner].currentLimit * 105 */\n      tag_142\n      swap2\n      swap1\n      tag_143\n      jump\t// in\n    tag_142:\n        /* \"distributor.sol\":2051:2095  Participants[owner].currentLimit * 105 / 100 */\n      tag_144\n      swap2\n      swap1\n      tag_145\n      jump\t// in\n    tag_144:\n        /* \"distributor.sol\":2032:2095  uint256 newLimit = Participants[owner].currentLimit * 105 / 100 */\n      swap1\n      pop\n        /* \"distributor.sol\":2122:2130  maxLimit */\n      sload(0x02)\n        /* \"distributor.sol\":2111:2119  newLimit */\n      dup2\n        /* \"distributor.sol\":2111:2130  newLimit > maxLimit */\n      gt\n        /* \"distributor.sol\":2106:2177  if ( newLimit > maxLimit ) {... */\n      iszero\n      tag_146\n      jumpi\n        /* \"distributor.sol\":2158:2166  maxLimit */\n      sload(0x02)\n        /* \"distributor.sol\":2147:2166  newLimit = maxLimit */\n      swap1\n      pop\n        /* \"distributor.sol\":2106:2177  if ( newLimit > maxLimit ) {... */\n    tag_146:\n        /* \"distributor.sol\":2222:2230  newLimit */\n      dup1\n        /* \"distributor.sol\":2187:2199  Participants */\n      0x03\n        /* \"distributor.sol\":2187:2206  Participants[owner] */\n      0x00\n        /* \"distributor.sol\":2200:2205  owner */\n      dup6\n        /* \"distributor.sol\":2187:2206  Participants[owner] */\n      0xffffffffffffffffffffffffffffffffffffffff\n      and\n      0xffffffffffffffffffffffffffffffffffffffff\n      and\n      dup2\n      mstore\n      0x20\n      add\n      swap1\n      dup2\n      mstore\n      0x20\n      add\n      0x00\n      keccak256\n        /* \"distributor.sol\":2187:2219  Participants[owner].currentLimit */\n      0x02\n      add\n        /* \"distributor.sol\":2187:2230  Participants[owner].currentLimit = newLimit */\n      dup2\n      swap1\n      sstore\n      pop\n        /* \"distributor.sol\":2276:2277  0 */\n      0x00\n        /* \"distributor.sol\":2240:2252  Participants */\n      0x03\n        /* \"distributor.sol\":2240:2259  Participants[owner] */\n      0x00\n        /* \"distributor.sol\":2253:2258  owner */\n      dup6\n        /* \"distributor.sol\":2240:2259  Participants[owner] */\n      0xffffffffffffffffffffffffffffffffffffffff\n      and\n      0xffffffffffffffffffffffffffffffffffffffff\n      and\n      dup2\n      mstore\n      0x20\n      add\n      swap1\n      dup2\n      mstore\n      0x20\n      add\n      0x00\n      keccak256\n        /* \"distributor.sol\":2240:2273  Participants[owner].currentlyOwed */\n      0x03\n      add\n        /* \"distributor.sol\":2240:2277  Participants[owner].currentlyOwed = 0 */\n      dup2\n      swap1\n      sstore\n      pop\n        /* \"distributor.sol\":1870:2284  {... */\n      pop\n      pop\n        /* \"distributor.sol\":1833:2284  function repay(address owner) public {... */\n      pop\n      jump\t// out\n        /* \"@openzeppelin/contracts/access/AccessControl.sol\":2027:2076  bytes32 public constant DEFAULT_ADMIN_ROLE = 0x00 */\n    tag_53:\n        /* \"@openzeppelin/contracts/access/AccessControl.sol\":2072:2076  0x00 */\n      0x00\n        /* \"@openzeppelin/contracts/access/AccessControl.sol\":2027:2076  bytes32 public constant DEFAULT_ADMIN_ROLE = 0x00 */\n      dup1\n      shl\n      dup2\n      jump\t// out\n        /* \"@openzeppelin/contracts/access/AccessControl.sol\":5241:5388  function revokeRole(bytes32 role, address account) public virtual override onlyRole(getRoleAdmin(role)) {... */\n    tag_57:\n        /* \"@openzeppelin/contracts/access/AccessControl.sol\":5325:5343  getRoleAdmin(role) */\n      tag_147\n        /* \"@openzeppelin/contracts/access/AccessControl.sol\":5338:5342  role */\n      dup3\n        /* \"@openzeppelin/contracts/access/AccessControl.sol\":5325:5337  getRoleAdmin */\n      tag_25\n        /* \"@openzeppelin/contracts/access/AccessControl.sol\":5325:5343  getRoleAdmin(role) */\n      jump\t// in\n    tag_147:\n        /* \"@openzeppelin/contracts/access/AccessControl.sol\":2505:2521  _checkRole(role) */\n      tag_149\n        /* \"@openzeppelin/contracts/access/AccessControl.sol\":2516:2520  role */\n      dup2\n        /* \"@openzeppelin/contracts/access/AccessControl.sol\":2505:2515  _checkRole */\n      tag_114\n        /* \"@openzeppelin/contracts/access/AccessControl.sol\":2505:2521  _checkRole(role) */\n      jump\t// in\n    tag_149:\n        /* \"@openzeppelin/contracts/access/AccessControl.sol\":5355:5381  _revokeRole(role, account) */\n      tag_151\n        /* \"@openzeppelin/contracts/access/AccessControl.sol\":5367:5371  role */\n      dup4\n        /* \"@openzeppelin/contracts/access/AccessControl.sol\":5373:5380  account */\n      dup4\n        /* \"@openzeppelin/contracts/access/AccessControl.sol\":5355:5366  _revokeRole */\n      tag_125\n        /* \"@openzeppelin/contracts/access/AccessControl.sol\":5355:5381  _revokeRole(role, account) */\n      jump\t// in\n    tag_151:\n        /* \"@openzeppelin/contracts/access/AccessControl.sol\":5241:5388  function revokeRole(bytes32 role, address account) public virtual override onlyRole(getRoleAdmin(role)) {... */\n      pop\n      pop\n      pop\n      jump\t// out\n        /* \"distributor.sol\":656:1081  function addAdress(address newParticipant, string memory diiaToken) external {... */\n    tag_61:\n        /* \"distributor.sol\":751:790  hasRole(DEFAULT_ADMIN_ROLE, msg.sender) */\n      tag_153\n        /* \"@openzeppelin/contracts/access/AccessControl.sol\":2072:2076  0x00 */\n      0x00\n        /* \"distributor.sol\":759:777  DEFAULT_ADMIN_ROLE */\n      dup1\n      shl\n        /* \"distributor.sol\":779:789  msg.sender */\n      caller\n        /* \"distributor.sol\":751:758  hasRole */\n      tag_47\n        /* \"distributor.sol\":751:790  hasRole(DEFAULT_ADMIN_ROLE, msg.sender) */\n      jump\t// in\n    tag_153:\n        /* \"distributor.sol\":743:822  require(hasRole(DEFAULT_ADMIN_ROLE, msg.sender), \"caller is not administrator\") */\n      tag_154\n      jumpi\n      mload(0x40)\n      0x08c379a000000000000000000000000000000000000000000000000000000000\n      dup2\n      mstore\n      0x04\n      add\n      tag_155\n      swap1\n      tag_156\n      jump\t// in\n    tag_155:\n      mload(0x40)\n      dup1\n      swap2\n      sub\n      swap1\n      revert\n    tag_154:\n        /* \"distributor.sol\":864:1074  Participant({... */\n      mload(0x40)\n      dup1\n      0xa0\n      add\n      0x40\n      mstore\n      dup1\n        /* \"distributor.sol\":897:911  newParticipant */\n      dup4\n        /* \"distributor.sol\":864:1074  Participant({... */\n      0xffffffffffffffffffffffffffffffffffffffff\n      and\n      dup2\n      mstore\n      0x20\n      add\n        /* \"distributor.sol\":936:945  diiaToken */\n      dup3\n        /* \"distributor.sol\":864:1074  Participant({... */\n      dup2\n      mstore\n      0x20\n      add\n        /* \"distributor.sol\":1055:1063  maxLimit */\n      sload(0x02)\n        /* \"distributor.sol\":864:1074  Participant({... */\n      dup2\n      mstore\n      0x20\n      add\n        /* \"distributor.sol\":1026:1027  0 */\n      0x00\n        /* \"distributor.sol\":864:1074  Participant({... */\n      dup2\n      mstore\n      0x20\n      add\n        /* \"distributor.sol\":985:997  block.number */\n      number\n        /* \"distributor.sol\":864:1074  Participant({... */\n      dup2\n      mstore\n      pop\n        /* \"distributor.sol\":833:845  Participants */\n      0x03\n        /* \"distributor.sol\":833:861  Participants[newParticipant] */\n      0x00\n        /* \"distributor.sol\":846:860  newParticipant */\n      dup5\n        /* \"distributor.sol\":833:861  Participants[newParticipant] */\n      0xffffffffffffffffffffffffffffffffffffffff\n      and\n      0xffffffffffffffffffffffffffffffffffffffff\n      and\n      dup2\n      mstore\n      0x20\n      add\n      swap1\n      dup2\n      mstore\n      0x20\n      add\n      0x00\n      keccak256\n        /* \"distributor.sol\":833:1074  Participants[newParticipant] = Participant({... */\n      0x00\n      dup3\n      add\n      mload\n      dup2\n      0x00\n      add\n      exp(0x0100, 0x00)\n      dup2\n      sload\n      dup2\n      0xffffffffffffffffffffffffffffffffffffffff\n      mul\n      not\n      and\n      swap1\n      dup4\n      0xffffffffffffffffffffffffffffffffffffffff\n      and\n      mul\n      or\n      swap1\n      sstore\n      pop\n      0x20\n      dup3\n      add\n      mload\n      dup2\n      0x01\n      add\n      swap1\n      dup1\n      mload\n      swap1\n      0x20\n      add\n      swap1\n      tag_157\n      swap3\n      swap2\n      swap1\n      tag_158\n      jump\t// in\n    tag_157:\n      pop\n      0x40\n      dup3\n      add\n      mload\n      dup2\n      0x02\n      add\n      sstore\n      0x60\n      dup3\n      add\n      mload\n      dup2\n      0x03\n      add\n      sstore\n      0x80\n      dup3\n      add\n      mload\n      dup2\n      0x04\n      add\n      sstore\n      swap1\n      pop\n      pop\n        /* \"distributor.sol\":656:1081  function addAdress(address newParticipant, string memory diiaToken) external {... */\n      pop\n      pop\n      jump\t// out\n        /* \"distributor.sol\":230:250  address public token */\n    tag_63:\n      0x01\n      0x00\n      swap1\n      sload\n      swap1\n      0x0100\n      exp\n      swap1\n      div\n      0xffffffffffffffffffffffffffffffffffffffff\n      and\n      dup2\n      jump\t// out\n        /* \"@openzeppelin/contracts/utils/introspection/ERC165.sol\":829:984  function supportsInterface(bytes4 interfaceId) public view virtual override returns (bool) {... */\n    tag_69:\n        /* \"@openzeppelin/contracts/utils/introspection/ERC165.sol\":914:918  bool */\n      0x00\n        /* \"@openzeppelin/contracts/utils/introspection/ERC165.sol\":952:977  type(IERC165).interfaceId */\n      0x01ffc9a700000000000000000000000000000000000000000000000000000000\n        /* \"@openzeppelin/contracts/utils/introspection/ERC165.sol\":937:977  interfaceId == type(IERC165).interfaceId */\n      not(0xffffffffffffffffffffffffffffffffffffffffffffffffffffffff)\n      and\n        /* \"@openzeppelin/contracts/utils/introspection/ERC165.sol\":937:948  interfaceId */\n      dup3\n        /* \"@openzeppelin/contracts/utils/introspection/ERC165.sol\":937:977  interfaceId == type(IERC165).interfaceId */\n      not(0xffffffffffffffffffffffffffffffffffffffffffffffffffffffff)\n      and\n      eq\n        /* \"@openzeppelin/contracts/utils/introspection/ERC165.sol\":930:977  return interfaceId == type(IERC165).interfaceId */\n      swap1\n      pop\n        /* \"@openzeppelin/contracts/utils/introspection/ERC165.sol\":829:984  function supportsInterface(bytes4 interfaceId) public view virtual override returns (bool) {... */\n      swap2\n      swap1\n      pop\n      jump\t// out\n        /* \"@openzeppelin/contracts/access/AccessControl.sol\":3334:3437  function _checkRole(bytes32 role) internal view virtual {... */\n    tag_114:\n        /* \"@openzeppelin/contracts/access/AccessControl.sol\":3400:3430  _checkRole(role, _msgSender()) */\n      tag_161\n        /* \"@openzeppelin/contracts/access/AccessControl.sol\":3411:3415  role */\n      dup2\n        /* \"@openzeppelin/contracts/access/AccessControl.sol\":3417:3429  _msgSender() */\n      tag_162\n        /* \"@openzeppelin/contracts/access/AccessControl.sol\":3417:3427  _msgSender */\n      tag_120\n        /* \"@openzeppelin/contracts/access/AccessControl.sol\":3417:3429  _msgSender() */\n      jump\t// in\n    tag_162:\n        /* \"@openzeppelin/contracts/access/AccessControl.sol\":3400:3410  _checkRole */\n      tag_163\n        /* \"@openzeppelin/contracts/access/AccessControl.sol\":3400:3430  _checkRole(role, _msgSender()) */\n      jump\t// in\n    tag_161:\n        /* \"@openzeppelin/contracts/access/AccessControl.sol\":3334:3437  function _checkRole(bytes32 role) internal view virtual {... */\n      pop\n      jump\t// out\n        /* \"@openzeppelin/contracts/access/AccessControl.sol\":7474:7707  function _grantRole(bytes32 role, address account) internal virtual {... */\n    tag_117:\n        /* \"@openzeppelin/contracts/access/AccessControl.sol\":7557:7579  hasRole(role, account) */\n      tag_165\n        /* \"@openzeppelin/contracts/access/AccessControl.sol\":7565:7569  role */\n      dup3\n        /* \"@openzeppelin/contracts/access/AccessControl.sol\":7571:7578  account */\n      dup3\n        /* \"@openzeppelin/contracts/access/AccessControl.sol\":7557:7564  hasRole */\n      tag_47\n        /* \"@openzeppelin/contracts/access/AccessControl.sol\":7557:7579  hasRole(role, account) */\n      jump\t// in\n    tag_165:\n        /* \"@openzeppelin/contracts/access/AccessControl.sol\":7552:7701  if (!hasRole(role, account)) {... */\n      tag_166\n      jumpi\n        /* \"@openzeppelin/contracts/access/AccessControl.sol\":7627:7631  true */\n      0x01\n        /* \"@openzeppelin/contracts/access/AccessControl.sol\":7595:7601  _roles */\n      0x00\n        /* \"@openzeppelin/contracts/access/AccessControl.sol\":7595:7607  _roles[role] */\n      dup1\n        /* \"@openzeppelin/contracts/access/AccessControl.sol\":7602:7606  role */\n      dup5\n        /* \"@openzeppelin/contracts/access/AccessControl.sol\":7595:7607  _roles[role] */\n      dup2\n      mstore\n      0x20\n      add\n      swap1\n      dup2\n      mstore\n      0x20\n      add\n      0x00\n      keccak256\n        /* \"@openzeppelin/contracts/access/AccessControl.sol\":7595:7615  _roles[role].members */\n      0x00\n      add\n        /* \"@openzeppelin/contracts/access/AccessControl.sol\":7595:7624  _roles[role].members[account] */\n      0x00\n        /* \"@openzeppelin/contracts/access/AccessControl.sol\":7616:7623  account */\n      dup4\n        /* \"@openzeppelin/contracts/access/AccessControl.sol\":7595:7624  _roles[role].members[account] */\n      0xffffffffffffffffffffffffffffffffffffffff\n      and\n      0xffffffffffffffffffffffffffffffffffffffff\n      and\n      dup2\n      mstore\n      0x20\n      add\n      swap1\n      dup2\n      mstore\n      0x20\n      add\n      0x00\n      keccak256\n      0x00\n        /* \"@openzeppelin/contracts/access/AccessControl.sol\":7595:7631  _roles[role].members[account] = true */\n      0x0100\n      exp\n      dup2\n      sload\n      dup2\n      0xff\n      mul\n      not\n      and\n      swap1\n      dup4\n      iszero\n      iszero\n      mul\n      or\n      swap1\n      sstore\n      pop\n        /* \"@openzeppelin/contracts/access/AccessControl.sol\":7677:7689  _msgSender() */\n      tag_167\n        /* \"@openzeppelin/contracts/access/AccessControl.sol\":7677:7687  _msgSender */\n      tag_120\n        /* \"@openzeppelin/contracts/access/AccessControl.sol\":7677:7689  _msgSender() */\n      jump\t// in\n    tag_167:\n        /* \"@openzeppelin/contracts/access/AccessControl.sol\":7650:7690  RoleGranted(role, account, _msgSender()) */\n      0xffffffffffffffffffffffffffffffffffffffff\n      and\n        /* \"@openzeppelin/contracts/access/AccessControl.sol\":7668:7675  account */\n      dup2\n        /* \"@openzeppelin/contracts/access/AccessControl.sol\":7650:7690  RoleGranted(role, account, _msgSender()) */\n      0xffffffffffffffffffffffffffffffffffffffff\n      and\n        /* \"@openzeppelin/contracts/access/AccessControl.sol\":7662:7666  role */\n      dup4\n        /* \"@openzeppelin/contracts/access/AccessControl.sol\":7650:7690  RoleGranted(role, account, _msgSender()) */\n      0x2f8788117e7eff1d82e926ec794901d17c78024a50270940304540a733656f0d\n      mload(0x40)\n      mload(0x40)\n      dup1\n      swap2\n      sub\n      swap1\n      log4\n        /* \"@openzeppelin/contracts/access/AccessControl.sol\":7552:7701  if (!hasRole(role, account)) {... */\n    tag_166:\n        /* \"@openzeppelin/contracts/access/AccessControl.sol\":7474:7707  function _grantRole(bytes32 role, address account) internal virtual {... */\n      pop\n      pop\n      jump\t// out\n        /* \"@openzeppelin/contracts/utils/Context.sol\":640:736  function _msgSender() internal view virtual returns (address) {... */\n    tag_120:\n        /* \"@openzeppelin/contracts/utils/Context.sol\":693:700  address */\n      0x00\n        /* \"@openzeppelin/contracts/utils/Context.sol\":719:729  msg.sender */\n      caller\n        /* \"@openzeppelin/contracts/utils/Context.sol\":712:729  return msg.sender */\n      swap1\n      pop\n        /* \"@openzeppelin/contracts/utils/Context.sol\":640:736  function _msgSender() internal view virtual returns (address) {... */\n      swap1\n      jump\t// out\n        /* \"@openzeppelin/contracts/access/AccessControl.sol\":7878:8112  function _revokeRole(bytes32 role, address account) internal virtual {... */\n    tag_125:\n        /* \"@openzeppelin/contracts/access/AccessControl.sol\":7961:7983  hasRole(role, account) */\n      tag_170\n        /* \"@openzeppelin/contracts/access/AccessControl.sol\":7969:7973  role */\n      dup3\n        /* \"@openzeppelin/contracts/access/AccessControl.sol\":7975:7982  account */\n      dup3\n        /* \"@openzeppelin/contracts/access/AccessControl.sol\":7961:7968  hasRole */\n      tag_47\n        /* \"@openzeppelin/contracts/access/AccessControl.sol\":7961:7983  hasRole(role, account) */\n      jump\t// in\n    tag_170:\n        /* \"@openzeppelin/contracts/access/AccessControl.sol\":7957:8106  if (hasRole(role, account)) {... */\n      iszero\n      tag_171\n      jumpi\n        /* \"@openzeppelin/contracts/access/AccessControl.sol\":8031:8036  false */\n      0x00\n        /* \"@openzeppelin/contracts/access/AccessControl.sol\":7999:8005  _roles */\n      dup1\n        /* \"@openzeppelin/contracts/access/AccessControl.sol\":7999:8011  _roles[role] */\n      0x00\n        /* \"@openzeppelin/contracts/access/AccessControl.sol\":8006:8010  role */\n      dup5\n        /* \"@openzeppelin/contracts/access/AccessControl.sol\":7999:8011  _roles[role] */\n      dup2\n      mstore\n      0x20\n      add\n      swap1\n      dup2\n      mstore\n      0x20\n      add\n      0x00\n      keccak256\n        /* \"@openzeppelin/contracts/access/AccessControl.sol\":7999:8019  _roles[role].members */\n      0x00\n      add\n        /* \"@openzeppelin/contracts/access/AccessControl.sol\":7999:8028  _roles[role].members[account] */\n      0x00\n        /* \"@openzeppelin/contracts/access/AccessControl.sol\":8020:8027  account */\n      dup4\n        /* \"@openzeppelin/contracts/access/AccessControl.sol\":7999:8028  _roles[role].members[account] */\n      0xffffffffffffffffffffffffffffffffffffffff\n      and\n      0xffffffffffffffffffffffffffffffffffffffff\n      and\n      dup2\n      mstore\n      0x20\n      add\n      swap1\n      dup2\n      mstore\n      0x20\n      add\n      0x00\n      keccak256\n      0x00\n        /* \"@openzeppelin/contracts/access/AccessControl.sol\":7999:8036  _roles[role].members[account] = false */\n      0x0100\n      exp\n      dup2\n      sload\n      dup2\n      0xff\n      mul\n      not\n      and\n      swap1\n      dup4\n      iszero\n      iszero\n      mul\n      or\n      swap1\n      sstore\n      pop\n        /* \"@openzeppelin/contracts/access/AccessControl.sol\":8082:8094  _msgSender() */\n      tag_172\n        /* \"@openzeppelin/contracts/access/AccessControl.sol\":8082:8092  _msgSender */\n      tag_120\n        /* \"@openzeppelin/contracts/access/AccessControl.sol\":8082:8094  _msgSender() */\n      jump\t// in\n    tag_172:\n        /* \"@openzeppelin/contracts/access/AccessControl.sol\":8055:8095  RoleRevoked(role, account, _msgSender()) */\n      0xffffffffffffffffffffffffffffffffffffffff\n      and\n        /* \"@openzeppelin/contracts/access/AccessControl.sol\":8073:8080  account */\n      dup2\n        /* \"@openzeppelin/contracts/access/AccessControl.sol\":8055:8095  RoleRevoked(role, account, _msgSender()) */\n      0xffffffffffffffffffffffffffffffffffffffff\n      and\n        /* \"@openzeppelin/contracts/access/AccessControl.sol\":8067:8071  role */\n      dup4\n        /* \"@openzeppelin/contracts/access/AccessControl.sol\":8055:8095  RoleRevoked(role, account, _msgSender()) */\n      0xf6391f5c32d9c69d2a47ea670b442974b53935d1edc7fd64eb21e047a839171b\n      mload(0x40)\n      mload(0x40)\n      dup1\n      swap2\n      sub\n      swap1\n      log4\n        /* \"@openzeppelin/contracts/access/AccessControl.sol\":7957:8106  if (hasRole(role, account)) {... */\n    tag_171:\n        /* \"@openzeppelin/contracts/access/AccessControl.sol\":7878:8112  function _revokeRole(bytes32 role, address account) internal virtual {... */\n      pop\n      pop\n      jump\t// out\n        /* \"@openzeppelin/contracts/access/AccessControl.sol\":3718:4210  function _checkRole(bytes32 role, address account) internal view virtual {... */\n    tag_163:\n        /* \"@openzeppelin/contracts/access/AccessControl.sol\":3806:3828  hasRole(role, account) */\n      tag_174\n        /* \"@openzeppelin/contracts/access/AccessControl.sol\":3814:3818  role */\n      dup3\n        /* \"@openzeppelin/contracts/access/AccessControl.sol\":3820:3827  account */\n      dup3\n        /* \"@openzeppelin/contracts/access/AccessControl.sol\":3806:3813  hasRole */\n      tag_47\n        /* \"@openzeppelin/contracts/access/AccessControl.sol\":3806:3828  hasRole(role, account) */\n      jump\t// in\n    tag_174:\n        /* \"@openzeppelin/contracts/access/AccessControl.sol\":3801:4204  if (!hasRole(role, account)) {... */\n      tag_175\n      jumpi\n        /* \"@openzeppelin/contracts/access/AccessControl.sol\":3989:4030  Strings.toHexString(uint160(account), 20) */\n      tag_176\n        /* \"@openzeppelin/contracts/access/AccessControl.sol\":4017:4024  account */\n      dup2\n        /* \"@openzeppelin/contracts/access/AccessControl.sol\":3989:4030  Strings.toHexString(uint160(account), 20) */\n      0xffffffffffffffffffffffffffffffffffffffff\n      and\n        /* \"@openzeppelin/contracts/access/AccessControl.sol\":4027:4029  20 */\n      0x14\n        /* \"@openzeppelin/contracts/access/AccessControl.sol\":3989:4008  Strings.toHexString */\n      tag_177\n        /* \"@openzeppelin/contracts/access/AccessControl.sol\":3989:4030  Strings.toHexString(uint160(account), 20) */\n      jump\t// in\n    tag_176:\n        /* \"@openzeppelin/contracts/access/AccessControl.sol\":4101:4139  Strings.toHexString(uint256(role), 32) */\n      tag_178\n        /* \"@openzeppelin/contracts/access/AccessControl.sol\":4129:4133  role */\n      dup4\n        /* \"@openzeppelin/contracts/access/AccessControl.sol\":4121:4134  uint256(role) */\n      0x00\n      shr\n        /* \"@openzeppelin/contracts/access/AccessControl.sol\":4136:4138  32 */\n      0x20\n        /* \"@openzeppelin/contracts/access/AccessControl.sol\":4101:4120  Strings.toHexString */\n      tag_177\n        /* \"@openzeppelin/contracts/access/AccessControl.sol\":4101:4139  Strings.toHexString(uint256(role), 32) */\n      jump\t// in\n    tag_178:\n        /* \"@openzeppelin/contracts/access/AccessControl.sol\":3896:4161  abi.encodePacked(... */\n      add(0x20, mload(0x40))\n      tag_179\n      swap3\n      swap2\n      swap1\n      tag_180\n      jump\t// in\n    tag_179:\n      mload(0x40)\n      0x20\n      dup2\n      dup4\n      sub\n      sub\n      dup2\n      mstore\n      swap1\n      0x40\n      mstore\n        /* \"@openzeppelin/contracts/access/AccessControl.sol\":3844:4193  revert(... */\n      mload(0x40)\n      0x08c379a000000000000000000000000000000000000000000000000000000000\n      dup2\n      mstore\n      0x04\n      add\n      tag_181\n      swap2\n      swap1\n      tag_182\n      jump\t// in\n    tag_181:\n      mload(0x40)\n      dup1\n      swap2\n      sub\n      swap1\n      revert\n        /* \"@openzeppelin/contracts/access/AccessControl.sol\":3801:4204  if (!hasRole(role, account)) {... */\n    tag_175:\n        /* \"@openzeppelin/contracts/access/AccessControl.sol\":3718:4210  function _checkRole(bytes32 role, address account) internal view virtual {... */\n      pop\n      pop\n      jump\t// out\n        /* \"@openzeppelin/contracts/utils/Strings.sol\":1652:2093  function toHexString(uint256 value, uint256 length) internal pure returns (string memory) {... */\n    tag_177:\n        /* \"@openzeppelin/contracts/utils/Strings.sol\":1727:1740  string memory */\n      0x60\n        /* \"@openzeppelin/contracts/utils/Strings.sol\":1752:1771  bytes memory buffer */\n      0x00\n        /* \"@openzeppelin/contracts/utils/Strings.sol\":1797:1798  2 */\n      0x02\n        /* \"@openzeppelin/contracts/utils/Strings.sol\":1788:1794  length */\n      dup4\n        /* \"@openzeppelin/contracts/utils/Strings.sol\":1784:1785  2 */\n      0x02\n        /* \"@openzeppelin/contracts/utils/Strings.sol\":1784:1794  2 * length */\n      tag_184\n      swap2\n      swap1\n      tag_143\n      jump\t// in\n    tag_184:\n        /* \"@openzeppelin/contracts/utils/Strings.sol\":1784:1798  2 * length + 2 */\n      tag_185\n      swap2\n      swap1\n      tag_108\n      jump\t// in\n    tag_185:\n        /* \"@openzeppelin/contracts/utils/Strings.sol\":1774:1799  new bytes(2 * length + 2) */\n      0xffffffffffffffff\n      dup2\n      gt\n      iszero\n      tag_186\n      jumpi\n      tag_187\n      tag_188\n      jump\t// in\n    tag_187:\n    tag_186:\n      mload(0x40)\n      swap1\n      dup1\n      dup3\n      mstore\n      dup1\n      0x1f\n      add\n      not(0x1f)\n      and\n      0x20\n      add\n      dup3\n      add\n      0x40\n      mstore\n      dup1\n      iszero\n      tag_189\n      jumpi\n      dup2\n      0x20\n      add\n      0x01\n      dup3\n      mul\n      dup1\n      calldatasize\n      dup4\n      calldatacopy\n      dup1\n      dup3\n      add\n      swap2\n      pop\n      pop\n      swap1\n      pop\n    tag_189:\n      pop\n        /* \"@openzeppelin/contracts/utils/Strings.sol\":1752:1799  bytes memory buffer = new bytes(2 * length + 2) */\n      swap1\n      pop\n        /* \"@openzeppelin/contracts/utils/Strings.sol\":1809:1824  buffer[0] = \"0\" */\n      0x3000000000000000000000000000000000000000000000000000000000000000\n        /* \"@openzeppelin/contracts/utils/Strings.sol\":1809:1815  buffer */\n      dup2\n        /* \"@openzeppelin/contracts/utils/Strings.sol\":1816:1817  0 */\n      0x00\n        /* \"@openzeppelin/contracts/utils/Strings.sol\":1809:1818  buffer[0] */\n      dup2\n      mload\n      dup2\n      lt\n      tag_190\n      jumpi\n      tag_191\n      tag_192\n      jump\t// in\n    tag_191:\n    tag_190:\n      0x20\n      add\n      add\n        /* \"@openzeppelin/contracts/utils/Strings.sol\":1809:1824  buffer[0] = \"0\" */\n      swap1\n      not(0xffffffffffffffffffffffffffffffffffffffffffffffffffffffffffffff)\n      and\n      swap1\n      dup2\n      0x00\n      byte\n      swap1\n      mstore8\n      pop\n        /* \"@openzeppelin/contracts/utils/Strings.sol\":1834:1849  buffer[1] = \"x\" */\n      0x7800000000000000000000000000000000000000000000000000000000000000\n        /* \"@openzeppelin/contracts/utils/Strings.sol\":1834:1840  buffer */\n      dup2\n        /* \"@openzeppelin/contracts/utils/Strings.sol\":1841:1842  1 */\n      0x01\n        /* \"@openzeppelin/contracts/utils/Strings.sol\":1834:1843  buffer[1] */\n      dup2\n      mload\n      dup2\n      lt\n      tag_193\n      jumpi\n      tag_194\n      tag_192\n      jump\t// in\n    tag_194:\n    tag_193:\n      0x20\n      add\n      add\n        /* \"@openzeppelin/contracts/utils/Strings.sol\":1834:1849  buffer[1] = \"x\" */\n      swap1\n      not(0xffffffffffffffffffffffffffffffffffffffffffffffffffffffffffffff)\n      and\n      swap1\n      dup2\n      0x00\n      byte\n      swap1\n      mstore8\n      pop\n        /* \"@openzeppelin/contracts/utils/Strings.sol\":1864:1873  uint256 i */\n      0x00\n        /* \"@openzeppelin/contracts/utils/Strings.sol\":1889:1890  1 */\n      0x01\n        /* \"@openzeppelin/contracts/utils/Strings.sol\":1880:1886  length */\n      dup5\n        /* \"@openzeppelin/contracts/utils/Strings.sol\":1876:1877  2 */\n      0x02\n        /* \"@openzeppelin/contracts/utils/Strings.sol\":1876:1886  2 * length */\n      tag_198\n      swap2\n      swap1\n      tag_143\n      jump\t// in\n    tag_198:\n        /* \"@openzeppelin/contracts/utils/Strings.sol\":1876:1890  2 * length + 1 */\n      tag_199\n      swap2\n      swap1\n      tag_108\n      jump\t// in\n    tag_199:\n        /* \"@openzeppelin/contracts/utils/Strings.sol\":1864:1890  uint256 i = 2 * length + 1 */\n      swap1\n      pop\n        /* \"@openzeppelin/contracts/utils/Strings.sol\":1859:1991  for (uint256 i = 2 * length + 1; i > 1; --i) {... */\n    tag_195:\n        /* \"@openzeppelin/contracts/utils/Strings.sol\":1896:1897  1 */\n      0x01\n        /* \"@openzeppelin/contracts/utils/Strings.sol\":1892:1893  i */\n      dup2\n        /* \"@openzeppelin/contracts/utils/Strings.sol\":1892:1897  i > 1 */\n      gt\n        /* \"@openzeppelin/contracts/utils/Strings.sol\":1859:1991  for (uint256 i = 2 * length + 1; i > 1; --i) {... */\n      iszero\n      tag_196\n      jumpi\n        /* \"@openzeppelin/contracts/utils/Strings.sol\":1930:1942  _HEX_SYMBOLS */\n      0x3031323334353637383961626364656600000000000000000000000000000000\n        /* \"@openzeppelin/contracts/utils/Strings.sol\":1951:1954  0xf */\n      0x0f\n        /* \"@openzeppelin/contracts/utils/Strings.sol\":1943:1948  value */\n      dup7\n        /* \"@openzeppelin/contracts/utils/Strings.sol\":1943:1954  value & 0xf */\n      and\n        /* \"@openzeppelin/contracts/utils/Strings.sol\":1930:1955  _HEX_SYMBOLS[value & 0xf] */\n      0x10\n      dup2\n      lt\n      tag_200\n      jumpi\n      tag_201\n      tag_192\n      jump\t// in\n    tag_201:\n    tag_200:\n      byte\n      0xf8\n      shl\n        /* \"@openzeppelin/contracts/utils/Strings.sol\":1918:1924  buffer */\n      dup3\n        /* \"@openzeppelin/contracts/utils/Strings.sol\":1925:1926  i */\n      dup3\n        /* \"@openzeppelin/contracts/utils/Strings.sol\":1918:1927  buffer[i] */\n      dup2\n      mload\n      dup2\n      lt\n      tag_202\n      jumpi\n      tag_203\n      tag_192\n      jump\t// in\n    tag_203:\n    tag_202:\n      0x20\n      add\n      add\n        /* \"@openzeppelin/contracts/utils/Strings.sol\":1918:1955  buffer[i] = _HEX_SYMBOLS[value & 0xf] */\n      swap1\n      not(0xffffffffffffffffffffffffffffffffffffffffffffffffffffffffffffff)\n      and\n      swap1\n      dup2\n      0x00\n      byte\n      swap1\n      mstore8\n      pop\n        /* \"@openzeppelin/contracts/utils/Strings.sol\":1979:1980  4 */\n      0x04\n        /* \"@openzeppelin/contracts/utils/Strings.sol\":1969:1980  value >>= 4 */\n      dup6\n      swap1\n      shr\n      swap5\n      pop\n        /* \"@openzeppelin/contracts/utils/Strings.sol\":1899:1902  --i */\n      dup1\n      tag_204\n      swap1\n      tag_205\n      jump\t// in\n    tag_204:\n      swap1\n      pop\n        /* \"@openzeppelin/contracts/utils/Strings.sol\":1859:1991  for (uint256 i = 2 * length + 1; i > 1; --i) {... */\n      jump(tag_195)\n    tag_196:\n      pop\n        /* \"@openzeppelin/contracts/utils/Strings.sol\":2017:2018  0 */\n      0x00\n        /* \"@openzeppelin/contracts/utils/Strings.sol\":2008:2013  value */\n      dup5\n        /* \"@openzeppelin/contracts/utils/Strings.sol\":2008:2018  value == 0 */\n      eq\n        /* \"@openzeppelin/contracts/utils/Strings.sol\":2000:2055  require(value == 0, \"Strings: hex length insufficient\") */\n      tag_206\n      jumpi\n      mload(0x40)\n      0x08c379a000000000000000000000000000000000000000000000000000000000\n      dup2\n      mstore\n      0x04\n      add\n      tag_207\n      swap1\n      tag_208\n      jump\t// in\n    tag_207:\n      mload(0x40)\n      dup1\n      swap2\n      sub\n      swap1\n      revert\n    tag_206:\n        /* \"@openzeppelin/contracts/utils/Strings.sol\":2079:2085  buffer */\n      dup1\n        /* \"@openzeppelin/contracts/utils/Strings.sol\":2065:2086  return string(buffer) */\n      swap2\n      pop\n      pop\n        /* \"@openzeppelin/contracts/utils/Strings.sol\":1652:2093  function toHexString(uint256 value, uint256 length) internal pure returns (string memory) {... */\n      swap3\n      swap2\n      pop\n      pop\n      jump\t// out\n    tag_158:\n      dup3\n      dup1\n      sload\n      tag_209\n      swap1\n      tag_82\n      jump\t// in\n    tag_209:\n      swap1\n      0x00\n      mstore\n      keccak256(0x00, 0x20)\n      swap1\n      0x1f\n      add\n      0x20\n      swap1\n      div\n      dup2\n      add\n      swap3\n      dup3\n      tag_211\n      jumpi\n      0x00\n      dup6\n      sstore\n      jump(tag_210)\n    tag_211:\n      dup3\n      0x1f\n      lt\n      tag_212\n      jumpi\n      dup1\n      mload\n      not(0xff)\n      and\n      dup4\n      dup1\n      add\n      or\n      dup6\n      sstore\n      jump(tag_210)\n    tag_212:\n      dup3\n      dup1\n      add\n      0x01\n      add\n      dup6\n      sstore\n      dup3\n      iszero\n      tag_210\n      jumpi\n      swap2\n      dup3\n      add\n    tag_213:\n      dup3\n      dup2\n      gt\n      iszero\n      tag_214\n      jumpi\n      dup3\n      mload\n      dup3\n      sstore\n      swap2\n      0x20\n      add\n      swap2\n      swap1\n      0x01\n      add\n      swap1\n      jump(tag_213)\n    tag_214:\n    tag_210:\n      pop\n      swap1\n      pop\n      tag_215\n      swap2\n      swap1\n      tag_216\n      jump\t// in\n    tag_215:\n      pop\n      swap1\n      jump\t// out\n    tag_216:\n    tag_217:\n      dup1\n      dup3\n      gt\n      iszero\n      tag_218\n      jumpi\n      0x00\n      dup2\n      0x00\n      swap1\n      sstore\n      pop\n      0x01\n      add\n      jump(tag_217)\n    tag_218:\n      pop\n      swap1\n      jump\t// out\n        /* \"#utility.yul\":7:419   */\n    tag_220:\n        /* \"#utility.yul\":85:90   */\n      0x00\n        /* \"#utility.yul\":110:176   */\n      tag_222\n        /* \"#utility.yul\":126:175   */\n      tag_223\n        /* \"#utility.yul\":168:174   */\n      dup5\n        /* \"#utility.yul\":126:175   */\n      tag_224\n      jump\t// in\n    tag_223:\n        /* \"#utility.yul\":110:176   */\n      tag_225\n      jump\t// in\n    tag_222:\n        /* \"#utility.yul\":101:176   */\n      swap1\n      pop\n        /* \"#utility.yul\":199:205   */\n      dup3\n        /* \"#utility.yul\":192:197   */\n      dup2\n        /* \"#utility.yul\":185:206   */\n      mstore\n        /* \"#utility.yul\":237:241   */\n      0x20\n        /* \"#utility.yul\":230:235   */\n      dup2\n        /* \"#utility.yul\":226:242   */\n      add\n        /* \"#utility.yul\":275:278   */\n      dup5\n        /* \"#utility.yul\":266:272   */\n      dup5\n        /* \"#utility.yul\":261:264   */\n      dup5\n        /* \"#utility.yul\":257:273   */\n      add\n        /* \"#utility.yul\":254:279   */\n      gt\n        /* \"#utility.yul\":251:363   */\n      iszero\n      tag_226\n      jumpi\n        /* \"#utility.yul\":282:361   */\n      tag_227\n      tag_228\n      jump\t// in\n    tag_227:\n        /* \"#utility.yul\":251:363   */\n    tag_226:\n        /* \"#utility.yul\":372:413   */\n      tag_229\n        /* \"#utility.yul\":406:412   */\n      dup5\n        /* \"#utility.yul\":401:404   */\n      dup3\n        /* \"#utility.yul\":396:399   */\n      dup6\n        /* \"#utility.yul\":372:413   */\n      tag_230\n      jump\t// in\n    tag_229:\n        /* \"#utility.yul\":91:419   */\n      pop\n        /* \"#utility.yul\":7:419   */\n      swap4\n      swap3\n      pop\n      pop\n      pop\n      jump\t// out\n        /* \"#utility.yul\":425:564   */\n    tag_231:\n        /* \"#utility.yul\":471:476   */\n      0x00\n        /* \"#utility.yul\":509:515   */\n      dup2\n        /* \"#utility.yul\":496:516   */\n      calldataload\n        /* \"#utility.yul\":487:516   */\n      swap1\n      pop\n        /* \"#utility.yul\":525:558   */\n      tag_233\n        /* \"#utility.yul\":552:557   */\n      dup2\n        /* \"#utility.yul\":525:558   */\n      tag_234\n      jump\t// in\n    tag_233:\n        /* \"#utility.yul\":425:564   */\n      swap3\n      swap2\n      pop\n      pop\n      jump\t// out\n        /* \"#utility.yul\":570:707   */\n    tag_235:\n        /* \"#utility.yul\":624:629   */\n      0x00\n        /* \"#utility.yul\":655:661   */\n      dup2\n        /* \"#utility.yul\":649:662   */\n      mload\n        /* \"#utility.yul\":640:662   */\n      swap1\n      pop\n        /* \"#utility.yul\":671:701   */\n      tag_237\n        /* \"#utility.yul\":695:700   */\n      dup2\n        /* \"#utility.yul\":671:701   */\n      tag_238\n      jump\t// in\n    tag_237:\n        /* \"#utility.yul\":570:707   */\n      swap3\n      swap2\n      pop\n      pop\n      jump\t// out\n        /* \"#utility.yul\":713:852   */\n    tag_239:\n        /* \"#utility.yul\":759:764   */\n      0x00\n        /* \"#utility.yul\":797:803   */\n      dup2\n        /* \"#utility.yul\":784:804   */\n      calldataload\n        /* \"#utility.yul\":775:804   */\n      swap1\n      pop\n        /* \"#utility.yul\":813:846   */\n      tag_241\n        /* \"#utility.yul\":840:845   */\n      dup2\n        /* \"#utility.yul\":813:846   */\n      tag_242\n      jump\t// in\n    tag_241:\n        /* \"#utility.yul\":713:852   */\n      swap3\n      swap2\n      pop\n      pop\n      jump\t// out\n        /* \"#utility.yul\":858:995   */\n    tag_243:\n        /* \"#utility.yul\":903:908   */\n      0x00\n        /* \"#utility.yul\":941:947   */\n      dup2\n        /* \"#utility.yul\":928:948   */\n      calldataload\n        /* \"#utility.yul\":919:948   */\n      swap1\n      pop\n        /* \"#utility.yul\":957:989   */\n      tag_245\n        /* \"#utility.yul\":983:988   */\n      dup2\n        /* \"#utility.yul\":957:989   */\n      tag_246\n      jump\t// in\n    tag_245:\n        /* \"#utility.yul\":858:995   */\n      swap3\n      swap2\n      pop\n      pop\n      jump\t// out\n        /* \"#utility.yul\":1015:1355   */\n    tag_247:\n        /* \"#utility.yul\":1071:1076   */\n      0x00\n        /* \"#utility.yul\":1120:1123   */\n      dup3\n        /* \"#utility.yul\":1113:1117   */\n      0x1f\n        /* \"#utility.yul\":1105:1111   */\n      dup4\n        /* \"#utility.yul\":1101:1118   */\n      add\n        /* \"#utility.yul\":1097:1124   */\n      slt\n        /* \"#utility.yul\":1087:1209   */\n      tag_249\n      jumpi\n        /* \"#utility.yul\":1128:1207   */\n      tag_250\n      tag_251\n      jump\t// in\n    tag_250:\n        /* \"#utility.yul\":1087:1209   */\n    tag_249:\n        /* \"#utility.yul\":1245:1251   */\n      dup2\n        /* \"#utility.yul\":1232:1252   */\n      calldataload\n        /* \"#utility.yul\":1270:1349   */\n      tag_252\n        /* \"#utility.yul\":1345:1348   */\n      dup5\n        /* \"#utility.yul\":1337:1343   */\n      dup3\n        /* \"#utility.yul\":1330:1334   */\n      0x20\n        /* \"#utility.yul\":1322:1328   */\n      dup7\n        /* \"#utility.yul\":1318:1335   */\n      add\n        /* \"#utility.yul\":1270:1349   */\n      tag_220\n      jump\t// in\n    tag_252:\n        /* \"#utility.yul\":1261:1349   */\n      swap2\n      pop\n        /* \"#utility.yul\":1077:1355   */\n      pop\n        /* \"#utility.yul\":1015:1355   */\n      swap3\n      swap2\n      pop\n      pop\n      jump\t// out\n        /* \"#utility.yul\":1361:1500   */\n    tag_253:\n        /* \"#utility.yul\":1407:1412   */\n      0x00\n        /* \"#utility.yul\":1445:1451   */\n      dup2\n        /* \"#utility.yul\":1432:1452   */\n      calldataload\n        /* \"#utility.yul\":1423:1452   */\n      swap1\n      pop\n        /* \"#utility.yul\":1461:1494   */\n      tag_255\n        /* \"#utility.yul\":1488:1493   */\n      dup2\n        /* \"#utility.yul\":1461:1494   */\n      tag_256\n      jump\t// in\n    tag_255:\n        /* \"#utility.yul\":1361:1500   */\n      swap3\n      swap2\n      pop\n      pop\n      jump\t// out\n        /* \"#utility.yul\":1506:1649   */\n    tag_257:\n        /* \"#utility.yul\":1563:1568   */\n      0x00\n        /* \"#utility.yul\":1594:1600   */\n      dup2\n        /* \"#utility.yul\":1588:1601   */\n      mload\n        /* \"#utility.yul\":1579:1601   */\n      swap1\n      pop\n        /* \"#utility.yul\":1610:1643   */\n      tag_259\n        /* \"#utility.yul\":1637:1642   */\n      dup2\n        /* \"#utility.yul\":1610:1643   */\n      tag_256\n      jump\t// in\n    tag_259:\n        /* \"#utility.yul\":1506:1649   */\n      swap3\n      swap2\n      pop\n      pop\n      jump\t// out\n        /* \"#utility.yul\":1655:1984   */\n    tag_41:\n        /* \"#utility.yul\":1714:1720   */\n      0x00\n        /* \"#utility.yul\":1763:1765   */\n      0x20\n        /* \"#utility.yul\":1751:1760   */\n      dup3\n        /* \"#utility.yul\":1742:1749   */\n      dup5\n        /* \"#utility.yul\":1738:1761   */\n      sub\n        /* \"#utility.yul\":1734:1766   */\n      slt\n        /* \"#utility.yul\":1731:1850   */\n      iszero\n      tag_261\n      jumpi\n        /* \"#utility.yul\":1769:1848   */\n      tag_262\n      tag_263\n      jump\t// in\n    tag_262:\n        /* \"#utility.yul\":1731:1850   */\n    tag_261:\n        /* \"#utility.yul\":1889:1890   */\n      0x00\n        /* \"#utility.yul\":1914:1967   */\n      tag_264\n        /* \"#utility.yul\":1959:1966   */\n      dup5\n        /* \"#utility.yul\":1950:1956   */\n      dup3\n        /* \"#utility.yul\":1939:1948   */\n      dup6\n        /* \"#utility.yul\":1935:1957   */\n      add\n        /* \"#utility.yul\":1914:1967   */\n      tag_231\n      jump\t// in\n    tag_264:\n        /* \"#utility.yul\":1904:1967   */\n      swap2\n      pop\n        /* \"#utility.yul\":1860:1977   */\n      pop\n        /* \"#utility.yul\":1655:1984   */\n      swap3\n      swap2\n      pop\n      pop\n      jump\t// out\n        /* \"#utility.yul\":1990:2644   */\n    tag_60:\n        /* \"#utility.yul\":2068:2074   */\n      0x00\n        /* \"#utility.yul\":2076:2082   */\n      dup1\n        /* \"#utility.yul\":2125:2127   */\n      0x40\n        /* \"#utility.yul\":2113:2122   */\n      dup4\n        /* \"#utility.yul\":2104:2111   */\n      dup6\n        /* \"#utility.yul\":2100:2123   */\n      sub\n        /* \"#utility.yul\":2096:2128   */\n      slt\n        /* \"#utility.yul\":2093:2212   */\n      iszero\n      tag_266\n      jumpi\n        /* \"#utility.yul\":2131:2210   */\n      tag_267\n      tag_263\n      jump\t// in\n    tag_267:\n        /* \"#utility.yul\":2093:2212   */\n    tag_266:\n        /* \"#utility.yul\":2251:2252   */\n      0x00\n        /* \"#utility.yul\":2276:2329   */\n      tag_268\n        /* \"#utility.yul\":2321:2328   */\n      dup6\n        /* \"#utility.yul\":2312:2318   */\n      dup3\n        /* \"#utility.yul\":2301:2310   */\n      dup7\n        /* \"#utility.yul\":2297:2319   */\n      add\n        /* \"#utility.yul\":2276:2329   */\n      tag_231\n      jump\t// in\n    tag_268:\n        /* \"#utility.yul\":2266:2329   */\n      swap3\n      pop\n        /* \"#utility.yul\":2222:2339   */\n      pop\n        /* \"#utility.yul\":2406:2408   */\n      0x20\n        /* \"#utility.yul\":2395:2404   */\n      dup4\n        /* \"#utility.yul\":2391:2409   */\n      add\n        /* \"#utility.yul\":2378:2410   */\n      calldataload\n        /* \"#utility.yul\":2437:2455   */\n      0xffffffffffffffff\n        /* \"#utility.yul\":2429:2435   */\n      dup2\n        /* \"#utility.yul\":2426:2456   */\n      gt\n        /* \"#utility.yul\":2423:2540   */\n      iszero\n      tag_269\n      jumpi\n        /* \"#utility.yul\":2459:2538   */\n      tag_270\n      tag_271\n      jump\t// in\n    tag_270:\n        /* \"#utility.yul\":2423:2540   */\n    tag_269:\n        /* \"#utility.yul\":2564:2627   */\n      tag_272\n        /* \"#utility.yul\":2619:2626   */\n      dup6\n        /* \"#utility.yul\":2610:2616   */\n      dup3\n        /* \"#utility.yul\":2599:2608   */\n      dup7\n        /* \"#utility.yul\":2595:2617   */\n      add\n        /* \"#utility.yul\":2564:2627   */\n      tag_247\n      jump\t// in\n    tag_272:\n        /* \"#utility.yul\":2554:2627   */\n      swap2\n      pop\n        /* \"#utility.yul\":2349:2637   */\n      pop\n        /* \"#utility.yul\":1990:2644   */\n      swap3\n      pop\n      swap3\n      swap1\n      pop\n      jump\t// out\n        /* \"#utility.yul\":2650:2995   */\n    tag_103:\n        /* \"#utility.yul\":2717:2723   */\n      0x00\n        /* \"#utility.yul\":2766:2768   */\n      0x20\n        /* \"#utility.yul\":2754:2763   */\n      dup3\n        /* \"#utility.yul\":2745:2752   */\n      dup5\n        /* \"#utility.yul\":2741:2764   */\n      sub\n        /* \"#utility.yul\":2737:2769   */\n      slt\n        /* \"#utility.yul\":2734:2853   */\n      iszero\n      tag_274\n      jumpi\n        /* \"#utility.yul\":2772:2851   */\n      tag_275\n      tag_263\n      jump\t// in\n    tag_275:\n        /* \"#utility.yul\":2734:2853   */\n    tag_274:\n        /* \"#utility.yul\":2892:2893   */\n      0x00\n        /* \"#utility.yul\":2917:2978   */\n      tag_276\n        /* \"#utility.yul\":2970:2977   */\n      dup5\n        /* \"#utility.yul\":2961:2967   */\n      dup3\n        /* \"#utility.yul\":2950:2959   */\n      dup6\n        /* \"#utility.yul\":2946:2968   */\n      add\n        /* \"#utility.yul\":2917:2978   */\n      tag_235\n      jump\t// in\n    tag_276:\n        /* \"#utility.yul\":2907:2978   */\n      swap2\n      pop\n        /* \"#utility.yul\":2863:2988   */\n      pop\n        /* \"#utility.yul\":2650:2995   */\n      swap3\n      swap2\n      pop\n      pop\n      jump\t// out\n        /* \"#utility.yul\":3001:3330   */\n    tag_24:\n        /* \"#utility.yul\":3060:3066   */\n      0x00\n        /* \"#utility.yul\":3109:3111   */\n      0x20\n        /* \"#utility.yul\":3097:3106   */\n      dup3\n        /* \"#utility.yul\":3088:3095   */\n      dup5\n        /* \"#utility.yul\":3084:3107   */\n      sub\n        /* \"#utility.yul\":3080:3112   */\n      slt\n        /* \"#utility.yul\":3077:3196   */\n      iszero\n      tag_278\n      jumpi\n        /* \"#utility.yul\":3115:3194   */\n      tag_279\n      tag_263\n      jump\t// in\n    tag_279:\n        /* \"#utility.yul\":3077:3196   */\n    tag_278:\n        /* \"#utility.yul\":3235:3236   */\n      0x00\n        /* \"#utility.yul\":3260:3313   */\n      tag_280\n        /* \"#utility.yul\":3305:3312   */\n      dup5\n        /* \"#utility.yul\":3296:3302   */\n      dup3\n        /* \"#utility.yul\":3285:3294   */\n      dup6\n        /* \"#utility.yul\":3281:3303   */\n      add\n        /* \"#utility.yul\":3260:3313   */\n      tag_239\n      jump\t// in\n    tag_280:\n        /* \"#utility.yul\":3250:3313   */\n      swap2\n      pop\n        /* \"#utility.yul\":3206:3323   */\n      pop\n        /* \"#utility.yul\":3001:3330   */\n      swap3\n      swap2\n      pop\n      pop\n      jump\t// out\n        /* \"#utility.yul\":3336:3810   */\n    tag_34:\n        /* \"#utility.yul\":3404:3410   */\n      0x00\n        /* \"#utility.yul\":3412:3418   */\n      dup1\n        /* \"#utility.yul\":3461:3463   */\n      0x40\n        /* \"#utility.yul\":3449:3458   */\n      dup4\n        /* \"#utility.yul\":3440:3447   */\n      dup6\n        /* \"#utility.yul\":3436:3459   */\n      sub\n        /* \"#utility.yul\":3432:3464   */\n      slt\n        /* \"#utility.yul\":3429:3548   */\n      iszero\n      tag_282\n      jumpi\n        /* \"#utility.yul\":3467:3546   */\n      tag_283\n      tag_263\n      jump\t// in\n    tag_283:\n        /* \"#utility.yul\":3429:3548   */\n    tag_282:\n        /* \"#utility.yul\":3587:3588   */\n      0x00\n        /* \"#utility.yul\":3612:3665   */\n      tag_284\n        /* \"#utility.yul\":3657:3664   */\n      dup6\n        /* \"#utility.yul\":3648:3654   */\n      dup3\n        /* \"#utility.yul\":3637:3646   */\n      dup7\n        /* \"#utility.yul\":3633:3655   */\n      add\n        /* \"#utility.yul\":3612:3665   */\n      tag_239\n      jump\t// in\n    tag_284:\n        /* \"#utility.yul\":3602:3665   */\n      swap3\n      pop\n        /* \"#utility.yul\":3558:3675   */\n      pop\n        /* \"#utility.yul\":3714:3716   */\n      0x20\n        /* \"#utility.yul\":3740:3793   */\n      tag_285\n        /* \"#utility.yul\":3785:3792   */\n      dup6\n        /* \"#utility.yul\":3776:3782   */\n      dup3\n        /* \"#utility.yul\":3765:3774   */\n      dup7\n        /* \"#utility.yul\":3761:3783   */\n      add\n        /* \"#utility.yul\":3740:3793   */\n      tag_231\n      jump\t// in\n    tag_285:\n        /* \"#utility.yul\":3730:3793   */\n      swap2\n      pop\n        /* \"#utility.yul\":3685:3803   */\n      pop\n        /* \"#utility.yul\":3336:3810   */\n      swap3\n      pop\n      swap3\n      swap1\n      pop\n      jump\t// out\n        /* \"#utility.yul\":3816:4143   */\n    tag_18:\n        /* \"#utility.yul\":3874:3880   */\n      0x00\n        /* \"#utility.yul\":3923:3925   */\n      0x20\n        /* \"#utility.yul\":3911:3920   */\n      dup3\n        /* \"#utility.yul\":3902:3909   */\n      dup5\n        /* \"#utility.yul\":3898:3921   */\n      sub\n        /* \"#utility.yul\":3894:3926   */\n      slt\n        /* \"#utility.yul\":3891:4010   */\n      iszero\n      tag_287\n      jumpi\n        /* \"#utility.yul\":3929:4008   */\n      tag_288\n      tag_263\n      jump\t// in\n    tag_288:\n        /* \"#utility.yul\":3891:4010   */\n    tag_287:\n        /* \"#utility.yul\":4049:4050   */\n      0x00\n        /* \"#utility.yul\":4074:4126   */\n      tag_289\n        /* \"#utility.yul\":4118:4125   */\n      dup5\n        /* \"#utility.yul\":4109:4115   */\n      dup3\n        /* \"#utility.yul\":4098:4107   */\n      dup6\n        /* \"#utility.yul\":4094:4116   */\n      add\n        /* \"#utility.yul\":4074:4126   */\n      tag_243\n      jump\t// in\n    tag_289:\n        /* \"#utility.yul\":4064:4126   */\n      swap2\n      pop\n        /* \"#utility.yul\":4020:4136   */\n      pop\n        /* \"#utility.yul\":3816:4143   */\n      swap3\n      swap2\n      pop\n      pop\n      jump\t// out\n        /* \"#utility.yul\":4149:4478   */\n    tag_30:\n        /* \"#utility.yul\":4208:4214   */\n      0x00\n        /* \"#utility.yul\":4257:4259   */\n      0x20\n        /* \"#utility.yul\":4245:4254   */\n      dup3\n        /* \"#utility.yul\":4236:4243   */\n      dup5\n        /* \"#utility.yul\":4232:4255   */\n      sub\n        /* \"#utility.yul\":4228:4260   */\n      slt\n        /* \"#utility.yul\":4225:4344   */\n      iszero\n      tag_291\n      jumpi\n        /* \"#utility.yul\":4263:4342   */\n      tag_292\n      tag_263\n      jump\t// in\n    tag_292:\n        /* \"#utility.yul\":4225:4344   */\n    tag_291:\n        /* \"#utility.yul\":4383:4384   */\n      0x00\n        /* \"#utility.yul\":4408:4461   */\n      tag_293\n        /* \"#utility.yul\":4453:4460   */\n      dup5\n        /* \"#utility.yul\":4444:4450   */\n      dup3\n        /* \"#utility.yul\":4433:4442   */\n      dup6\n        /* \"#utility.yul\":4429:4451   */\n      add\n        /* \"#utility.yul\":4408:4461   */\n      tag_253\n      jump\t// in\n    tag_293:\n        /* \"#utility.yul\":4398:4461   */\n      swap2\n      pop\n        /* \"#utility.yul\":4354:4471   */\n      pop\n        /* \"#utility.yul\":4149:4478   */\n      swap3\n      swap2\n      pop\n      pop\n      jump\t// out\n        /* \"#utility.yul\":4484:4835   */\n    tag_77:\n        /* \"#utility.yul\":4554:4560   */\n      0x00\n        /* \"#utility.yul\":4603:4605   */\n      0x20\n        /* \"#utility.yul\":4591:4600   */\n      dup3\n        /* \"#utility.yul\":4582:4589   */\n      dup5\n        /* \"#utility.yul\":4578:4601   */\n      sub\n        /* \"#utility.yul\":4574:4606   */\n      slt\n        /* \"#utility.yul\":4571:4690   */\n      iszero\n      tag_295\n      jumpi\n        /* \"#utility.yul\":4609:4688   */\n      tag_296\n      tag_263\n      jump\t// in\n    tag_296:\n        /* \"#utility.yul\":4571:4690   */\n    tag_295:\n        /* \"#utility.yul\":4729:4730   */\n      0x00\n        /* \"#utility.yul\":4754:4818   */\n      tag_297\n        /* \"#utility.yul\":4810:4817   */\n      dup5\n        /* \"#utility.yul\":4801:4807   */\n      dup3\n        /* \"#utility.yul\":4790:4799   */\n      dup6\n        /* \"#utility.yul\":4786:4808   */\n      add\n        /* \"#utility.yul\":4754:4818   */\n      tag_257\n      jump\t// in\n    tag_297:\n        /* \"#utility.yul\":4744:4818   */\n      swap2\n      pop\n        /* \"#utility.yul\":4700:4828   */\n      pop\n        /* \"#utility.yul\":4484:4835   */\n      swap3\n      swap2\n      pop\n      pop\n      jump\t// out\n        /* \"#utility.yul\":4841:4959   */\n    tag_298:\n        /* \"#utility.yul\":4928:4952   */\n      tag_300\n        /* \"#utility.yul\":4946:4951   */\n      dup2\n        /* \"#utility.yul\":4928:4952   */\n      tag_301\n      jump\t// in\n    tag_300:\n        /* \"#utility.yul\":4923:4926   */\n      dup3\n        /* \"#utility.yul\":4916:4953   */\n      mstore\n        /* \"#utility.yul\":4841:4959   */\n      pop\n      pop\n      jump\t// out\n        /* \"#utility.yul\":4965:5074   */\n    tag_302:\n        /* \"#utility.yul\":5046:5067   */\n      tag_304\n        /* \"#utility.yul\":5061:5066   */\n      dup2\n        /* \"#utility.yul\":5046:5067   */\n      tag_305\n      jump\t// in\n    tag_304:\n        /* \"#utility.yul\":5041:5044   */\n      dup3\n        /* \"#utility.yul\":5034:5068   */\n      mstore\n        /* \"#utility.yul\":4965:5074   */\n      pop\n      pop\n      jump\t// out\n        /* \"#utility.yul\":5080:5198   */\n    tag_306:\n        /* \"#utility.yul\":5167:5191   */\n      tag_308\n        /* \"#utility.yul\":5185:5190   */\n      dup2\n        /* \"#utility.yul\":5167:5191   */\n      tag_309\n      jump\t// in\n    tag_308:\n        /* \"#utility.yul\":5162:5165   */\n      dup3\n        /* \"#utility.yul\":5155:5192   */\n      mstore\n        /* \"#utility.yul\":5080:5198   */\n      pop\n      pop\n      jump\t// out\n        /* \"#utility.yul\":5204:5568   */\n    tag_310:\n        /* \"#utility.yul\":5292:5295   */\n      0x00\n        /* \"#utility.yul\":5320:5359   */\n      tag_312\n        /* \"#utility.yul\":5353:5358   */\n      dup3\n        /* \"#utility.yul\":5320:5359   */\n      tag_313\n      jump\t// in\n    tag_312:\n        /* \"#utility.yul\":5375:5446   */\n      tag_314\n        /* \"#utility.yul\":5439:5445   */\n      dup2\n        /* \"#utility.yul\":5434:5437   */\n      dup6\n        /* \"#utility.yul\":5375:5446   */\n      tag_315\n      jump\t// in\n    tag_314:\n        /* \"#utility.yul\":5368:5446   */\n      swap4\n      pop\n        /* \"#utility.yul\":5455:5507   */\n      tag_316\n        /* \"#utility.yul\":5500:5506   */\n      dup2\n        /* \"#utility.yul\":5495:5498   */\n      dup6\n        /* \"#utility.yul\":5488:5492   */\n      0x20\n        /* \"#utility.yul\":5481:5486   */\n      dup7\n        /* \"#utility.yul\":5477:5493   */\n      add\n        /* \"#utility.yul\":5455:5507   */\n      tag_317\n      jump\t// in\n    tag_316:\n        /* \"#utility.yul\":5532:5561   */\n      tag_318\n        /* \"#utility.yul\":5554:5560   */\n      dup2\n        /* \"#utility.yul\":5532:5561   */\n      tag_319\n      jump\t// in\n    tag_318:\n        /* \"#utility.yul\":5527:5530   */\n      dup5\n        /* \"#utility.yul\":5523:5562   */\n      add\n        /* \"#utility.yul\":5516:5562   */\n      swap2\n      pop\n        /* \"#utility.yul\":5296:5568   */\n      pop\n        /* \"#utility.yul\":5204:5568   */\n      swap3\n      swap2\n      pop\n      pop\n      jump\t// out\n        /* \"#utility.yul\":5574:5951   */\n    tag_320:\n        /* \"#utility.yul\":5680:5683   */\n      0x00\n        /* \"#utility.yul\":5708:5747   */\n      tag_322\n        /* \"#utility.yul\":5741:5746   */\n      dup3\n        /* \"#utility.yul\":5708:5747   */\n      tag_313\n      jump\t// in\n    tag_322:\n        /* \"#utility.yul\":5763:5852   */\n      tag_323\n        /* \"#utility.yul\":5845:5851   */\n      dup2\n        /* \"#utility.yul\":5840:5843   */\n      dup6\n        /* \"#utility.yul\":5763:5852   */\n      tag_324\n      jump\t// in\n    tag_323:\n        /* \"#utility.yul\":5756:5852   */\n      swap4\n      pop\n        /* \"#utility.yul\":5861:5913   */\n      tag_325\n        /* \"#utility.yul\":5906:5912   */\n      dup2\n        /* \"#utility.yul\":5901:5904   */\n      dup6\n        /* \"#utility.yul\":5894:5898   */\n      0x20\n        /* \"#utility.yul\":5887:5892   */\n      dup7\n        /* \"#utility.yul\":5883:5899   */\n      add\n        /* \"#utility.yul\":5861:5913   */\n      tag_317\n      jump\t// in\n    tag_325:\n        /* \"#utility.yul\":5938:5944   */\n      dup1\n        /* \"#utility.yul\":5933:5936   */\n      dup5\n        /* \"#utility.yul\":5929:5945   */\n      add\n        /* \"#utility.yul\":5922:5945   */\n      swap2\n      pop\n        /* \"#utility.yul\":5684:5951   */\n      pop\n        /* \"#utility.yul\":5574:5951   */\n      swap3\n      swap2\n      pop\n      pop\n      jump\t// out\n        /* \"#utility.yul\":5957:6323   */\n    tag_326:\n        /* \"#utility.yul\":6099:6102   */\n      0x00\n        /* \"#utility.yul\":6120:6187   */\n      tag_328\n        /* \"#utility.yul\":6184:6186   */\n      0x28\n        /* \"#utility.yul\":6179:6182   */\n      dup4\n        /* \"#utility.yul\":6120:6187   */\n      tag_315\n      jump\t// in\n    tag_328:\n        /* \"#utility.yul\":6113:6187   */\n      swap2\n      pop\n        /* \"#utility.yul\":6196:6289   */\n      tag_329\n        /* \"#utility.yul\":6285:6288   */\n      dup3\n        /* \"#utility.yul\":6196:6289   */\n      tag_330\n      jump\t// in\n    tag_329:\n        /* \"#utility.yul\":6314:6316   */\n      0x40\n        /* \"#utility.yul\":6309:6312   */\n      dup3\n        /* \"#utility.yul\":6305:6317   */\n      add\n        /* \"#utility.yul\":6298:6317   */\n      swap1\n      pop\n        /* \"#utility.yul\":5957:6323   */\n      swap2\n      swap1\n      pop\n      jump\t// out\n        /* \"#utility.yul\":6329:6695   */\n    tag_331:\n        /* \"#utility.yul\":6471:6474   */\n      0x00\n        /* \"#utility.yul\":6492:6559   */\n      tag_333\n        /* \"#utility.yul\":6556:6558   */\n      0x20\n        /* \"#utility.yul\":6551:6554   */\n      dup4\n        /* \"#utility.yul\":6492:6559   */\n      tag_315\n      jump\t// in\n    tag_333:\n        /* \"#utility.yul\":6485:6559   */\n      swap2\n      pop\n        /* \"#utility.yul\":6568:6661   */\n      tag_334\n        /* \"#utility.yul\":6657:6660   */\n      dup3\n        /* \"#utility.yul\":6568:6661   */\n      tag_335\n      jump\t// in\n    tag_334:\n        /* \"#utility.yul\":6686:6688   */\n      0x20\n        /* \"#utility.yul\":6681:6684   */\n      dup3\n        /* \"#utility.yul\":6677:6689   */\n      add\n        /* \"#utility.yul\":6670:6689   */\n      swap1\n      pop\n        /* \"#utility.yul\":6329:6695   */\n      swap2\n      swap1\n      pop\n      jump\t// out\n        /* \"#utility.yul\":6701:7067   */\n    tag_336:\n        /* \"#utility.yul\":6843:6846   */\n      0x00\n        /* \"#utility.yul\":6864:6931   */\n      tag_338\n        /* \"#utility.yul\":6928:6930   */\n      0x1b\n        /* \"#utility.yul\":6923:6926   */\n      dup4\n        /* \"#utility.yul\":6864:6931   */\n      tag_315\n      jump\t// in\n    tag_338:\n        /* \"#utility.yul\":6857:6931   */\n      swap2\n      pop\n        /* \"#utility.yul\":6940:7033   */\n      tag_339\n        /* \"#utility.yul\":7029:7032   */\n      dup3\n        /* \"#utility.yul\":6940:7033   */\n      tag_340\n      jump\t// in\n    tag_339:\n        /* \"#utility.yul\":7058:7060   */\n      0x20\n        /* \"#utility.yul\":7053:7056   */\n      dup3\n        /* \"#utility.yul\":7049:7061   */\n      add\n        /* \"#utility.yul\":7042:7061   */\n      swap1\n      pop\n        /* \"#utility.yul\":6701:7067   */\n      swap2\n      swap1\n      pop\n      jump\t// out\n        /* \"#utility.yul\":7073:7439   */\n    tag_341:\n        /* \"#utility.yul\":7215:7218   */\n      0x00\n        /* \"#utility.yul\":7236:7303   */\n      tag_343\n        /* \"#utility.yul\":7300:7302   */\n      0x1c\n        /* \"#utility.yul\":7295:7298   */\n      dup4\n        /* \"#utility.yul\":7236:7303   */\n      tag_315\n      jump\t// in\n    tag_343:\n        /* \"#utility.yul\":7229:7303   */\n      swap2\n      pop\n        /* \"#utility.yul\":7312:7405   */\n      tag_344\n        /* \"#utility.yul\":7401:7404   */\n      dup3\n        /* \"#utility.yul\":7312:7405   */\n      tag_345\n      jump\t// in\n    tag_344:\n        /* \"#utility.yul\":7430:7432   */\n      0x20\n        /* \"#utility.yul\":7425:7428   */\n      dup3\n        /* \"#utility.yul\":7421:7433   */\n      add\n        /* \"#utility.yul\":7414:7433   */\n      swap1\n      pop\n        /* \"#utility.yul\":7073:7439   */\n      swap2\n      swap1\n      pop\n      jump\t// out\n        /* \"#utility.yul\":7445:7811   */\n    tag_346:\n        /* \"#utility.yul\":7587:7590   */\n      0x00\n        /* \"#utility.yul\":7608:7675   */\n      tag_348\n        /* \"#utility.yul\":7672:7674   */\n      0x0c\n        /* \"#utility.yul\":7667:7670   */\n      dup4\n        /* \"#utility.yul\":7608:7675   */\n      tag_315\n      jump\t// in\n    tag_348:\n        /* \"#utility.yul\":7601:7675   */\n      swap2\n      pop\n        /* \"#utility.yul\":7684:7777   */\n      tag_349\n        /* \"#utility.yul\":7773:7776   */\n      dup3\n        /* \"#utility.yul\":7684:7777   */\n      tag_350\n      jump\t// in\n    tag_349:\n        /* \"#utility.yul\":7802:7804   */\n      0x20\n        /* \"#utility.yul\":7797:7800   */\n      dup3\n        /* \"#utility.yul\":7793:7805   */\n      add\n        /* \"#utility.yul\":7786:7805   */\n      swap1\n      pop\n        /* \"#utility.yul\":7445:7811   */\n      swap2\n      swap1\n      pop\n      jump\t// out\n        /* \"#utility.yul\":7817:8183   */\n    tag_351:\n        /* \"#utility.yul\":7959:7962   */\n      0x00\n        /* \"#utility.yul\":7980:8047   */\n      tag_353\n        /* \"#utility.yul\":8044:8046   */\n      0x2a\n        /* \"#utility.yul\":8039:8042   */\n      dup4\n        /* \"#utility.yul\":7980:8047   */\n      tag_315\n      jump\t// in\n    tag_353:\n        /* \"#utility.yul\":7973:8047   */\n      swap2\n      pop\n        /* \"#utility.yul\":8056:8149   */\n      tag_354\n        /* \"#utility.yul\":8145:8148   */\n      dup3\n        /* \"#utility.yul\":8056:8149   */\n      tag_355\n      jump\t// in\n    tag_354:\n        /* \"#utility.yul\":8174:8176   */\n      0x40\n        /* \"#utility.yul\":8169:8172   */\n      dup3\n        /* \"#utility.yul\":8165:8177   */\n      add\n        /* \"#utility.yul\":8158:8177   */\n      swap1\n      pop\n        /* \"#utility.yul\":7817:8183   */\n      swap2\n      swap1\n      pop\n      jump\t// out\n        /* \"#utility.yul\":8189:8591   */\n    tag_356:\n        /* \"#utility.yul\":8349:8352   */\n      0x00\n        /* \"#utility.yul\":8370:8455   */\n      tag_358\n        /* \"#utility.yul\":8452:8454   */\n      0x17\n        /* \"#utility.yul\":8447:8450   */\n      dup4\n        /* \"#utility.yul\":8370:8455   */\n      tag_324\n      jump\t// in\n    tag_358:\n        /* \"#utility.yul\":8363:8455   */\n      swap2\n      pop\n        /* \"#utility.yul\":8464:8557   */\n      tag_359\n        /* \"#utility.yul\":8553:8556   */\n      dup3\n        /* \"#utility.yul\":8464:8557   */\n      tag_360\n      jump\t// in\n    tag_359:\n        /* \"#utility.yul\":8582:8584   */\n      0x17\n        /* \"#utility.yul\":8577:8580   */\n      dup3\n        /* \"#utility.yul\":8573:8585   */\n      add\n        /* \"#utility.yul\":8566:8585   */\n      swap1\n      pop\n        /* \"#utility.yul\":8189:8591   */\n      swap2\n      swap1\n      pop\n      jump\t// out\n        /* \"#utility.yul\":8597:8963   */\n    tag_361:\n        /* \"#utility.yul\":8739:8742   */\n      0x00\n        /* \"#utility.yul\":8760:8827   */\n      tag_363\n        /* \"#utility.yul\":8824:8826   */\n      0x0f\n        /* \"#utility.yul\":8819:8822   */\n      dup4\n        /* \"#utility.yul\":8760:8827   */\n      tag_315\n      jump\t// in\n    tag_363:\n        /* \"#utility.yul\":8753:8827   */\n      swap2\n      pop\n        /* \"#utility.yul\":8836:8929   */\n      tag_364\n        /* \"#utility.yul\":8925:8928   */\n      dup3\n        /* \"#utility.yul\":8836:8929   */\n      tag_365\n      jump\t// in\n    tag_364:\n        /* \"#utility.yul\":8954:8956   */\n      0x20\n        /* \"#utility.yul\":8949:8952   */\n      dup3\n        /* \"#utility.yul\":8945:8957   */\n      add\n        /* \"#utility.yul\":8938:8957   */\n      swap1\n      pop\n        /* \"#utility.yul\":8597:8963   */\n      swap2\n      swap1\n      pop\n      jump\t// out\n        /* \"#utility.yul\":8969:9371   */\n    tag_366:\n        /* \"#utility.yul\":9129:9132   */\n      0x00\n        /* \"#utility.yul\":9150:9235   */\n      tag_368\n        /* \"#utility.yul\":9232:9234   */\n      0x11\n        /* \"#utility.yul\":9227:9230   */\n      dup4\n        /* \"#utility.yul\":9150:9235   */\n      tag_324\n      jump\t// in\n    tag_368:\n        /* \"#utility.yul\":9143:9235   */\n      swap2\n      pop\n        /* \"#utility.yul\":9244:9337   */\n      tag_369\n        /* \"#utility.yul\":9333:9336   */\n      dup3\n        /* \"#utility.yul\":9244:9337   */\n      tag_370\n      jump\t// in\n    tag_369:\n        /* \"#utility.yul\":9362:9364   */\n      0x11\n        /* \"#utility.yul\":9357:9360   */\n      dup3\n        /* \"#utility.yul\":9353:9365   */\n      add\n        /* \"#utility.yul\":9346:9365   */\n      swap1\n      pop\n        /* \"#utility.yul\":8969:9371   */\n      swap2\n      swap1\n      pop\n      jump\t// out\n        /* \"#utility.yul\":9377:9743   */\n    tag_371:\n        /* \"#utility.yul\":9519:9522   */\n      0x00\n        /* \"#utility.yul\":9540:9607   */\n      tag_373\n        /* \"#utility.yul\":9604:9606   */\n      0x2f\n        /* \"#utility.yul\":9599:9602   */\n      dup4\n        /* \"#utility.yul\":9540:9607   */\n      tag_315\n      jump\t// in\n    tag_373:\n        /* \"#utility.yul\":9533:9607   */\n      swap2\n      pop\n        /* \"#utility.yul\":9616:9709   */\n      tag_374\n        /* \"#utility.yul\":9705:9708   */\n      dup3\n        /* \"#utility.yul\":9616:9709   */\n      tag_375\n      jump\t// in\n    tag_374:\n        /* \"#utility.yul\":9734:9736   */\n      0x40\n        /* \"#utility.yul\":9729:9732   */\n      dup3\n        /* \"#utility.yul\":9725:9737   */\n      add\n        /* \"#utility.yul\":9718:9737   */\n      swap1\n      pop\n        /* \"#utility.yul\":9377:9743   */\n      swap2\n      swap1\n      pop\n      jump\t// out\n        /* \"#utility.yul\":9749:9867   */\n    tag_376:\n        /* \"#utility.yul\":9836:9860   */\n      tag_378\n        /* \"#utility.yul\":9854:9859   */\n      dup2\n        /* \"#utility.yul\":9836:9860   */\n      tag_379\n      jump\t// in\n    tag_378:\n        /* \"#utility.yul\":9831:9834   */\n      dup3\n        /* \"#utility.yul\":9824:9861   */\n      mstore\n        /* \"#utility.yul\":9749:9867   */\n      pop\n      pop\n      jump\t// out\n        /* \"#utility.yul\":9873:10840   */\n    tag_180:\n        /* \"#utility.yul\":10255:10258   */\n      0x00\n        /* \"#utility.yul\":10277:10425   */\n      tag_381\n        /* \"#utility.yul\":10421:10424   */\n      dup3\n        /* \"#utility.yul\":10277:10425   */\n      tag_356\n      jump\t// in\n    tag_381:\n        /* \"#utility.yul\":10270:10425   */\n      swap2\n      pop\n        /* \"#utility.yul\":10442:10537   */\n      tag_382\n        /* \"#utility.yul\":10533:10536   */\n      dup3\n        /* \"#utility.yul\":10524:10530   */\n      dup6\n        /* \"#utility.yul\":10442:10537   */\n      tag_320\n      jump\t// in\n    tag_382:\n        /* \"#utility.yul\":10435:10537   */\n      swap2\n      pop\n        /* \"#utility.yul\":10554:10702   */\n      tag_383\n        /* \"#utility.yul\":10698:10701   */\n      dup3\n        /* \"#utility.yul\":10554:10702   */\n      tag_366\n      jump\t// in\n    tag_383:\n        /* \"#utility.yul\":10547:10702   */\n      swap2\n      pop\n        /* \"#utility.yul\":10719:10814   */\n      tag_384\n        /* \"#utility.yul\":10810:10813   */\n      dup3\n        /* \"#utility.yul\":10801:10807   */\n      dup5\n        /* \"#utility.yul\":10719:10814   */\n      tag_320\n      jump\t// in\n    tag_384:\n        /* \"#utility.yul\":10712:10814   */\n      swap2\n      pop\n        /* \"#utility.yul\":10831:10834   */\n      dup2\n        /* \"#utility.yul\":10824:10834   */\n      swap1\n      pop\n        /* \"#utility.yul\":9873:10840   */\n      swap4\n      swap3\n      pop\n      pop\n      pop\n      jump\t// out\n        /* \"#utility.yul\":10846:11068   */\n    tag_65:\n        /* \"#utility.yul\":10939:10943   */\n      0x00\n        /* \"#utility.yul\":10977:10979   */\n      0x20\n        /* \"#utility.yul\":10966:10975   */\n      dup3\n        /* \"#utility.yul\":10962:10980   */\n      add\n        /* \"#utility.yul\":10954:10980   */\n      swap1\n      pop\n        /* \"#utility.yul\":10990:11061   */\n      tag_386\n        /* \"#utility.yul\":11058:11059   */\n      0x00\n        /* \"#utility.yul\":11047:11056   */\n      dup4\n        /* \"#utility.yul\":11043:11060   */\n      add\n        /* \"#utility.yul\":11034:11040   */\n      dup5\n        /* \"#utility.yul\":10990:11061   */\n      tag_298\n      jump\t// in\n    tag_386:\n        /* \"#utility.yul\":10846:11068   */\n      swap3\n      swap2\n      pop\n      pop\n      jump\t// out\n        /* \"#utility.yul\":11074:11516   */\n    tag_134:\n        /* \"#utility.yul\":11223:11227   */\n      0x00\n        /* \"#utility.yul\":11261:11263   */\n      0x60\n        /* \"#utility.yul\":11250:11259   */\n      dup3\n        /* \"#utility.yul\":11246:11264   */\n      add\n        /* \"#utility.yul\":11238:11264   */\n      swap1\n      pop\n        /* \"#utility.yul\":11274:11345   */\n      tag_388\n        /* \"#utility.yul\":11342:11343   */\n      0x00\n        /* \"#utility.yul\":11331:11340   */\n      dup4\n        /* \"#utility.yul\":11327:11344   */\n      add\n        /* \"#utility.yul\":11318:11324   */\n      dup7\n        /* \"#utility.yul\":11274:11345   */\n      tag_298\n      jump\t// in\n    tag_388:\n        /* \"#utility.yul\":11355:11427   */\n      tag_389\n        /* \"#utility.yul\":11423:11425   */\n      0x20\n        /* \"#utility.yul\":11412:11421   */\n      dup4\n        /* \"#utility.yul\":11408:11426   */\n      add\n        /* \"#utility.yul\":11399:11405   */\n      dup6\n        /* \"#utility.yul\":11355:11427   */\n      tag_298\n      jump\t// in\n    tag_389:\n        /* \"#utility.yul\":11437:11509   */\n      tag_390\n        /* \"#utility.yul\":11505:11507   */\n      0x40\n        /* \"#utility.yul\":11494:11503   */\n      dup4\n        /* \"#utility.yul\":11490:11508   */\n      add\n        /* \"#utility.yul\":11481:11487   */\n      dup5\n        /* \"#utility.yul\":11437:11509   */\n      tag_376\n      jump\t// in\n    tag_390:\n        /* \"#utility.yul\":11074:11516   */\n      swap5\n      swap4\n      pop\n      pop\n      pop\n      pop\n      jump\t// out\n        /* \"#utility.yul\":11522:12277   */\n    tag_44:\n        /* \"#utility.yul\":11747:11751   */\n      0x00\n        /* \"#utility.yul\":11785:11788   */\n      0xa0\n        /* \"#utility.yul\":11774:11783   */\n      dup3\n        /* \"#utility.yul\":11770:11789   */\n      add\n        /* \"#utility.yul\":11762:11789   */\n      swap1\n      pop\n        /* \"#utility.yul\":11799:11870   */\n      tag_392\n        /* \"#utility.yul\":11867:11868   */\n      0x00\n        /* \"#utility.yul\":11856:11865   */\n      dup4\n        /* \"#utility.yul\":11852:11869   */\n      add\n        /* \"#utility.yul\":11843:11849   */\n      dup9\n        /* \"#utility.yul\":11799:11870   */\n      tag_298\n      jump\t// in\n    tag_392:\n        /* \"#utility.yul\":11917:11926   */\n      dup2\n        /* \"#utility.yul\":11911:11915   */\n      dup2\n        /* \"#utility.yul\":11907:11927   */\n      sub\n        /* \"#utility.yul\":11902:11904   */\n      0x20\n        /* \"#utility.yul\":11891:11900   */\n      dup4\n        /* \"#utility.yul\":11887:11905   */\n      add\n        /* \"#utility.yul\":11880:11928   */\n      mstore\n        /* \"#utility.yul\":11945:12023   */\n      tag_393\n        /* \"#utility.yul\":12018:12022   */\n      dup2\n        /* \"#utility.yul\":12009:12015   */\n      dup8\n        /* \"#utility.yul\":11945:12023   */\n      tag_310\n      jump\t// in\n    tag_393:\n        /* \"#utility.yul\":11937:12023   */\n      swap1\n      pop\n        /* \"#utility.yul\":12033:12105   */\n      tag_394\n        /* \"#utility.yul\":12101:12103   */\n      0x40\n        /* \"#utility.yul\":12090:12099   */\n      dup4\n        /* \"#utility.yul\":12086:12104   */\n      add\n        /* \"#utility.yul\":12077:12083   */\n      dup7\n        /* \"#utility.yul\":12033:12105   */\n      tag_376\n      jump\t// in\n    tag_394:\n        /* \"#utility.yul\":12115:12187   */\n      tag_395\n        /* \"#utility.yul\":12183:12185   */\n      0x60\n        /* \"#utility.yul\":12172:12181   */\n      dup4\n        /* \"#utility.yul\":12168:12186   */\n      add\n        /* \"#utility.yul\":12159:12165   */\n      dup6\n        /* \"#utility.yul\":12115:12187   */\n      tag_376\n      jump\t// in\n    tag_395:\n        /* \"#utility.yul\":12197:12270   */\n      tag_396\n        /* \"#utility.yul\":12265:12268   */\n      0x80\n        /* \"#utility.yul\":12254:12263   */\n      dup4\n        /* \"#utility.yul\":12250:12269   */\n      add\n        /* \"#utility.yul\":12241:12247   */\n      dup5\n        /* \"#utility.yul\":12197:12270   */\n      tag_376\n      jump\t// in\n    tag_396:\n        /* \"#utility.yul\":11522:12277   */\n      swap7\n      swap6\n      pop\n      pop\n      pop\n      pop\n      pop\n      pop\n      jump\t// out\n        /* \"#utility.yul\":12283:12615   */\n    tag_98:\n        /* \"#utility.yul\":12404:12408   */\n      0x00\n        /* \"#utility.yul\":12442:12444   */\n      0x40\n        /* \"#utility.yul\":12431:12440   */\n      dup3\n        /* \"#utility.yul\":12427:12445   */\n      add\n        /* \"#utility.yul\":12419:12445   */\n      swap1\n      pop\n        /* \"#utility.yul\":12455:12526   */\n      tag_398\n        /* \"#utility.yul\":12523:12524   */\n      0x00\n        /* \"#utility.yul\":12512:12521   */\n      dup4\n        /* \"#utility.yul\":12508:12525   */\n      add\n        /* \"#utility.yul\":12499:12505   */\n      dup6\n        /* \"#utility.yul\":12455:12526   */\n      tag_298\n      jump\t// in\n    tag_398:\n        /* \"#utility.yul\":12536:12608   */\n      tag_399\n        /* \"#utility.yul\":12604:12606   */\n      0x20\n        /* \"#utility.yul\":12593:12602   */\n      dup4\n        /* \"#utility.yul\":12589:12607   */\n      add\n        /* \"#utility.yul\":12580:12586   */\n      dup5\n        /* \"#utility.yul\":12536:12608   */\n      tag_376\n      jump\t// in\n    tag_399:\n        /* \"#utility.yul\":12283:12615   */\n      swap4\n      swap3\n      pop\n      pop\n      pop\n      jump\t// out\n        /* \"#utility.yul\":12621:12831   */\n    tag_21:\n        /* \"#utility.yul\":12708:12712   */\n      0x00\n        /* \"#utility.yul\":12746:12748   */\n      0x20\n        /* \"#utility.yul\":12735:12744   */\n      dup3\n        /* \"#utility.yul\":12731:12749   */\n      add\n        /* \"#utility.yul\":12723:12749   */\n      swap1\n      pop\n        /* \"#utility.yul\":12759:12824   */\n      tag_401\n        /* \"#utility.yul\":12821:12822   */\n      0x00\n        /* \"#utility.yul\":12810:12819   */\n      dup4\n        /* \"#utility.yul\":12806:12823   */\n      add\n        /* \"#utility.yul\":12797:12803   */\n      dup5\n        /* \"#utility.yul\":12759:12824   */\n      tag_302\n      jump\t// in\n    tag_401:\n        /* \"#utility.yul\":12621:12831   */\n      swap3\n      swap2\n      pop\n      pop\n      jump\t// out\n        /* \"#utility.yul\":12837:13059   */\n    tag_27:\n        /* \"#utility.yul\":12930:12934   */\n      0x00\n        /* \"#utility.yul\":12968:12970   */\n      0x20\n        /* \"#utility.yul\":12957:12966   */\n      dup3\n        /* \"#utility.yul\":12953:12971   */\n      add\n        /* \"#utility.yul\":12945:12971   */\n      swap1\n      pop\n        /* \"#utility.yul\":12981:13052   */\n      tag_403\n        /* \"#utility.yul\":13049:13050   */\n      0x00\n        /* \"#utility.yul\":13038:13047   */\n      dup4\n        /* \"#utility.yul\":13034:13051   */\n      add\n        /* \"#utility.yul\":13025:13031   */\n      dup5\n        /* \"#utility.yul\":12981:13052   */\n      tag_306\n      jump\t// in\n    tag_403:\n        /* \"#utility.yul\":12837:13059   */\n      swap3\n      swap2\n      pop\n      pop\n      jump\t// out\n        /* \"#utility.yul\":13065:13378   */\n    tag_182:\n        /* \"#utility.yul\":13178:13182   */\n      0x00\n        /* \"#utility.yul\":13216:13218   */\n      0x20\n        /* \"#utility.yul\":13205:13214   */\n      dup3\n        /* \"#utility.yul\":13201:13219   */\n      add\n        /* \"#utility.yul\":13193:13219   */\n      swap1\n      pop\n        /* \"#utility.yul\":13265:13274   */\n      dup2\n        /* \"#utility.yul\":13259:13263   */\n      dup2\n        /* \"#utility.yul\":13255:13275   */\n      sub\n        /* \"#utility.yul\":13251:13252   */\n      0x00\n        /* \"#utility.yul\":13240:13249   */\n      dup4\n        /* \"#utility.yul\":13236:13253   */\n      add\n        /* \"#utility.yul\":13229:13276   */\n      mstore\n        /* \"#utility.yul\":13293:13371   */\n      tag_405\n        /* \"#utility.yul\":13366:13370   */\n      dup2\n        /* \"#utility.yul\":13357:13363   */\n      dup5\n        /* \"#utility.yul\":13293:13371   */\n      tag_310\n      jump\t// in\n    tag_405:\n        /* \"#utility.yul\":13285:13371   */\n      swap1\n      pop\n        /* \"#utility.yul\":13065:13378   */\n      swap3\n      swap2\n      pop\n      pop\n      jump\t// out\n        /* \"#utility.yul\":13384:13803   */\n    tag_89:\n        /* \"#utility.yul\":13550:13554   */\n      0x00\n        /* \"#utility.yul\":13588:13590   */\n      0x20\n        /* \"#utility.yul\":13577:13586   */\n      dup3\n        /* \"#utility.yul\":13573:13591   */\n      add\n        /* \"#utility.yul\":13565:13591   */\n      swap1\n      pop\n        /* \"#utility.yul\":13637:13646   */\n      dup2\n        /* \"#utility.yul\":13631:13635   */\n      dup2\n        /* \"#utility.yul\":13627:13647   */\n      sub\n        /* \"#utility.yul\":13623:13624   */\n      0x00\n        /* \"#utility.yul\":13612:13621   */\n      dup4\n        /* \"#utility.yul\":13608:13625   */\n      add\n        /* \"#utility.yul\":13601:13648   */\n      mstore\n        /* \"#utility.yul\":13665:13796   */\n      tag_407\n        /* \"#utility.yul\":13791:13795   */\n      dup2\n        /* \"#utility.yul\":13665:13796   */\n      tag_326\n      jump\t// in\n    tag_407:\n        /* \"#utility.yul\":13657:13796   */\n      swap1\n      pop\n        /* \"#utility.yul\":13384:13803   */\n      swap2\n      swap1\n      pop\n      jump\t// out\n        /* \"#utility.yul\":13809:14228   */\n    tag_208:\n        /* \"#utility.yul\":13975:13979   */\n      0x00\n        /* \"#utility.yul\":14013:14015   */\n      0x20\n        /* \"#utility.yul\":14002:14011   */\n      dup3\n        /* \"#utility.yul\":13998:14016   */\n      add\n        /* \"#utility.yul\":13990:14016   */\n      swap1\n      pop\n        /* \"#utility.yul\":14062:14071   */\n      dup2\n        /* \"#utility.yul\":14056:14060   */\n      dup2\n        /* \"#utility.yul\":14052:14072   */\n      sub\n        /* \"#utility.yul\":14048:14049   */\n      0x00\n        /* \"#utility.yul\":14037:14046   */\n      dup4\n        /* \"#utility.yul\":14033:14050   */\n      add\n        /* \"#utility.yul\":14026:14073   */\n      mstore\n        /* \"#utility.yul\":14090:14221   */\n      tag_409\n        /* \"#utility.yul\":14216:14220   */\n      dup2\n        /* \"#utility.yul\":14090:14221   */\n      tag_331\n      jump\t// in\n    tag_409:\n        /* \"#utility.yul\":14082:14221   */\n      swap1\n      pop\n        /* \"#utility.yul\":13809:14228   */\n      swap2\n      swap1\n      pop\n      jump\t// out\n        /* \"#utility.yul\":14234:14653   */\n    tag_156:\n        /* \"#utility.yul\":14400:14404   */\n      0x00\n        /* \"#utility.yul\":14438:14440   */\n      0x20\n        /* \"#utility.yul\":14427:14436   */\n      dup3\n        /* \"#utility.yul\":14423:14441   */\n      add\n        /* \"#utility.yul\":14415:14441   */\n      swap1\n      pop\n        /* \"#utility.yul\":14487:14496   */\n      dup2\n        /* \"#utility.yul\":14481:14485   */\n      dup2\n        /* \"#utility.yul\":14477:14497   */\n      sub\n        /* \"#utility.yul\":14473:14474   */\n      0x00\n        /* \"#utility.yul\":14462:14471   */\n      dup4\n        /* \"#utility.yul\":14458:14475   */\n      add\n        /* \"#utility.yul\":14451:14498   */\n      mstore\n        /* \"#utility.yul\":14515:14646   */\n      tag_411\n        /* \"#utility.yul\":14641:14645   */\n      dup2\n        /* \"#utility.yul\":14515:14646   */\n      tag_336\n      jump\t// in\n    tag_411:\n        /* \"#utility.yul\":14507:14646   */\n      swap1\n      pop\n        /* \"#utility.yul\":14234:14653   */\n      swap2\n      swap1\n      pop\n      jump\t// out\n        /* \"#utility.yul\":14659:15078   */\n    tag_80:\n        /* \"#utility.yul\":14825:14829   */\n      0x00\n        /* \"#utility.yul\":14863:14865   */\n      0x20\n        /* \"#utility.yul\":14852:14861   */\n      dup3\n        /* \"#utility.yul\":14848:14866   */\n      add\n        /* \"#utility.yul\":14840:14866   */\n      swap1\n      pop\n        /* \"#utility.yul\":14912:14921   */\n      dup2\n        /* \"#utility.yul\":14906:14910   */\n      dup2\n        /* \"#utility.yul\":14902:14922   */\n      sub\n        /* \"#utility.yul\":14898:14899   */\n      0x00\n        /* \"#utility.yul\":14887:14896   */\n      dup4\n        /* \"#utility.yul\":14883:14900   */\n      add\n        /* \"#utility.yul\":14876:14923   */\n      mstore\n        /* \"#utility.yul\":14940:15071   */\n      tag_413\n        /* \"#utility.yul\":15066:15070   */\n      dup2\n        /* \"#utility.yul\":14940:15071   */\n      tag_341\n      jump\t// in\n    tag_413:\n        /* \"#utility.yul\":14932:15071   */\n      swap1\n      pop\n        /* \"#utility.yul\":14659:15078   */\n      swap2\n      swap1\n      pop\n      jump\t// out\n        /* \"#utility.yul\":15084:15503   */\n    tag_141:\n        /* \"#utility.yul\":15250:15254   */\n      0x00\n        /* \"#utility.yul\":15288:15290   */\n      0x20\n        /* \"#utility.yul\":15277:15286   */\n      dup3\n        /* \"#utility.yul\":15273:15291   */\n      add\n        /* \"#utility.yul\":15265:15291   */\n      swap1\n      pop\n        /* \"#utility.yul\":15337:15346   */\n      dup2\n        /* \"#utility.yul\":15331:15335   */\n      dup2\n        /* \"#utility.yul\":15327:15347   */\n      sub\n        /* \"#utility.yul\":15323:15324   */\n      0x00\n        /* \"#utility.yul\":15312:15321   */\n      dup4\n        /* \"#utility.yul\":15308:15325   */\n      add\n        /* \"#utility.yul\":15301:15348   */\n      mstore\n        /* \"#utility.yul\":15365:15496   */\n      tag_415\n        /* \"#utility.yul\":15491:15495   */\n      dup2\n        /* \"#utility.yul\":15365:15496   */\n      tag_346\n      jump\t// in\n    tag_415:\n        /* \"#utility.yul\":15357:15496   */\n      swap1\n      pop\n        /* \"#utility.yul\":15084:15503   */\n      swap2\n      swap1\n      pop\n      jump\t// out\n        /* \"#utility.yul\":15509:15928   */\n    tag_92:\n        /* \"#utility.yul\":15675:15679   */\n      0x00\n        /* \"#utility.yul\":15713:15715   */\n      0x20\n        /* \"#utility.yul\":15702:15711   */\n      dup3\n        /* \"#utility.yul\":15698:15716   */\n      add\n        /* \"#utility.yul\":15690:15716   */\n      swap1\n      pop\n        /* \"#utility.yul\":15762:15771   */\n      dup2\n        /* \"#utility.yul\":15756:15760   */\n      dup2\n        /* \"#utility.yul\":15752:15772   */\n      sub\n        /* \"#utility.yul\":15748:15749   */\n      0x00\n        /* \"#utility.yul\":15737:15746   */\n      dup4\n        /* \"#utility.yul\":15733:15750   */\n      add\n        /* \"#utility.yul\":15726:15773   */\n      mstore\n        /* \"#utility.yul\":15790:15921   */\n      tag_417\n        /* \"#utility.yul\":15916:15920   */\n      dup2\n        /* \"#utility.yul\":15790:15921   */\n      tag_351\n      jump\t// in\n    tag_417:\n        /* \"#utility.yul\":15782:15921   */\n      swap1\n      pop\n        /* \"#utility.yul\":15509:15928   */\n      swap2\n      swap1\n      pop\n      jump\t// out\n        /* \"#utility.yul\":15934:16353   */\n    tag_106:\n        /* \"#utility.yul\":16100:16104   */\n      0x00\n        /* \"#utility.yul\":16138:16140   */\n      0x20\n        /* \"#utility.yul\":16127:16136   */\n      dup3\n        /* \"#utility.yul\":16123:16141   */\n      add\n        /* \"#utility.yul\":16115:16141   */\n      swap1\n      pop\n        /* \"#utility.yul\":16187:16196   */\n      dup2\n        /* \"#utility.yul\":16181:16185   */\n      dup2\n        /* \"#utility.yul\":16177:16197   */\n      sub\n        /* \"#utility.yul\":16173:16174   */\n      0x00\n        /* \"#utility.yul\":16162:16171   */\n      dup4\n        /* \"#utility.yul\":16158:16175   */\n      add\n        /* \"#utility.yul\":16151:16198   */\n      mstore\n        /* \"#utility.yul\":16215:16346   */\n      tag_419\n        /* \"#utility.yul\":16341:16345   */\n      dup2\n        /* \"#utility.yul\":16215:16346   */\n      tag_361\n      jump\t// in\n    tag_419:\n        /* \"#utility.yul\":16207:16346   */\n      swap1\n      pop\n        /* \"#utility.yul\":15934:16353   */\n      swap2\n      swap1\n      pop\n      jump\t// out\n        /* \"#utility.yul\":16359:16778   */\n    tag_123:\n        /* \"#utility.yul\":16525:16529   */\n      0x00\n        /* \"#utility.yul\":16563:16565   */\n      0x20\n        /* \"#utility.yul\":16552:16561   */\n      dup3\n        /* \"#utility.yul\":16548:16566   */\n      add\n        /* \"#utility.yul\":16540:16566   */\n      swap1\n      pop\n        /* \"#utility.yul\":16612:16621   */\n      dup2\n        /* \"#utility.yul\":16606:16610   */\n      dup2\n        /* \"#utility.yul\":16602:16622   */\n      sub\n        /* \"#utility.yul\":16598:16599   */\n      0x00\n        /* \"#utility.yul\":16587:16596   */\n      dup4\n        /* \"#utility.yul\":16583:16600   */\n      add\n        /* \"#utility.yul\":16576:16623   */\n      mstore\n        /* \"#utility.yul\":16640:16771   */\n      tag_421\n        /* \"#utility.yul\":16766:16770   */\n      dup2\n        /* \"#utility.yul\":16640:16771   */\n      tag_371\n      jump\t// in\n    tag_421:\n        /* \"#utility.yul\":16632:16771   */\n      swap1\n      pop\n        /* \"#utility.yul\":16359:16778   */\n      swap2\n      swap1\n      pop\n      jump\t// out\n        /* \"#utility.yul\":16784:16913   */\n    tag_225:\n        /* \"#utility.yul\":16818:16824   */\n      0x00\n        /* \"#utility.yul\":16845:16865   */\n      tag_423\n      tag_424\n      jump\t// in\n    tag_423:\n        /* \"#utility.yul\":16835:16865   */\n      swap1\n      pop\n        /* \"#utility.yul\":16874:16907   */\n      tag_425\n        /* \"#utility.yul\":16902:16906   */\n      dup3\n        /* \"#utility.yul\":16894:16900   */\n      dup3\n        /* \"#utility.yul\":16874:16907   */\n      tag_426\n      jump\t// in\n    tag_425:\n        /* \"#utility.yul\":16784:16913   */\n      swap2\n      swap1\n      pop\n      jump\t// out\n        /* \"#utility.yul\":16919:16994   */\n    tag_424:\n        /* \"#utility.yul\":16952:16958   */\n      0x00\n        /* \"#utility.yul\":16985:16987   */\n      0x40\n        /* \"#utility.yul\":16979:16988   */\n      mload\n        /* \"#utility.yul\":16969:16988   */\n      swap1\n      pop\n        /* \"#utility.yul\":16919:16994   */\n      swap1\n      jump\t// out\n        /* \"#utility.yul\":17000:17308   */\n    tag_224:\n        /* \"#utility.yul\":17062:17066   */\n      0x00\n        /* \"#utility.yul\":17152:17170   */\n      0xffffffffffffffff\n        /* \"#utility.yul\":17144:17150   */\n      dup3\n        /* \"#utility.yul\":17141:17171   */\n      gt\n        /* \"#utility.yul\":17138:17194   */\n      iszero\n      tag_429\n      jumpi\n        /* \"#utility.yul\":17174:17192   */\n      tag_430\n      tag_188\n      jump\t// in\n    tag_430:\n        /* \"#utility.yul\":17138:17194   */\n    tag_429:\n        /* \"#utility.yul\":17212:17241   */\n      tag_431\n        /* \"#utility.yul\":17234:17240   */\n      dup3\n        /* \"#utility.yul\":17212:17241   */\n      tag_319\n      jump\t// in\n    tag_431:\n        /* \"#utility.yul\":17204:17241   */\n      swap1\n      pop\n        /* \"#utility.yul\":17296:17300   */\n      0x20\n        /* \"#utility.yul\":17290:17294   */\n      dup2\n        /* \"#utility.yul\":17286:17301   */\n      add\n        /* \"#utility.yul\":17278:17301   */\n      swap1\n      pop\n        /* \"#utility.yul\":17000:17308   */\n      swap2\n      swap1\n      pop\n      jump\t// out\n        /* \"#utility.yul\":17314:17413   */\n    tag_313:\n        /* \"#utility.yul\":17366:17372   */\n      0x00\n        /* \"#utility.yul\":17400:17405   */\n      dup2\n        /* \"#utility.yul\":17394:17406   */\n      mload\n        /* \"#utility.yul\":17384:17406   */\n      swap1\n      pop\n        /* \"#utility.yul\":17314:17413   */\n      swap2\n      swap1\n      pop\n      jump\t// out\n        /* \"#utility.yul\":17419:17588   */\n    tag_315:\n        /* \"#utility.yul\":17503:17514   */\n      0x00\n        /* \"#utility.yul\":17537:17543   */\n      dup3\n        /* \"#utility.yul\":17532:17535   */\n      dup3\n        /* \"#utility.yul\":17525:17544   */\n      mstore\n        /* \"#utility.yul\":17577:17581   */\n      0x20\n        /* \"#utility.yul\":17572:17575   */\n      dup3\n        /* \"#utility.yul\":17568:17582   */\n      add\n        /* \"#utility.yul\":17553:17582   */\n      swap1\n      pop\n        /* \"#utility.yul\":17419:17588   */\n      swap3\n      swap2\n      pop\n      pop\n      jump\t// out\n        /* \"#utility.yul\":17594:17742   */\n    tag_324:\n        /* \"#utility.yul\":17696:17707   */\n      0x00\n        /* \"#utility.yul\":17733:17736   */\n      dup2\n        /* \"#utility.yul\":17718:17736   */\n      swap1\n      pop\n        /* \"#utility.yul\":17594:17742   */\n      swap3\n      swap2\n      pop\n      pop\n      jump\t// out\n        /* \"#utility.yul\":17748:18053   */\n    tag_108:\n        /* \"#utility.yul\":17788:17791   */\n      0x00\n        /* \"#utility.yul\":17807:17827   */\n      tag_436\n        /* \"#utility.yul\":17825:17826   */\n      dup3\n        /* \"#utility.yul\":17807:17827   */\n      tag_379\n      jump\t// in\n    tag_436:\n        /* \"#utility.yul\":17802:17827   */\n      swap2\n      pop\n        /* \"#utility.yul\":17841:17861   */\n      tag_437\n        /* \"#utility.yul\":17859:17860   */\n      dup4\n        /* \"#utility.yul\":17841:17861   */\n      tag_379\n      jump\t// in\n    tag_437:\n        /* \"#utility.yul\":17836:17861   */\n      swap3\n      pop\n        /* \"#utility.yul\":17995:17996   */\n      dup3\n        /* \"#utility.yul\":17927:17993   */\n      0xffffffffffffffffffffffffffffffffffffffffffffffffffffffffffffffff\n        /* \"#utility.yul\":17923:17997   */\n      sub\n        /* \"#utility.yul\":17920:17921   */\n      dup3\n        /* \"#utility.yul\":17917:17998   */\n      gt\n        /* \"#utility.yul\":17914:18021   */\n      iszero\n      tag_438\n      jumpi\n        /* \"#utility.yul\":18001:18019   */\n      tag_439\n      tag_440\n      jump\t// in\n    tag_439:\n        /* \"#utility.yul\":17914:18021   */\n    tag_438:\n        /* \"#utility.yul\":18045:18046   */\n      dup3\n        /* \"#utility.yul\":18042:18043   */\n      dup3\n        /* \"#utility.yul\":18038:18047   */\n      add\n        /* \"#utility.yul\":18031:18047   */\n      swap1\n      pop\n        /* \"#utility.yul\":17748:18053   */\n      swap3\n      swap2\n      pop\n      pop\n      jump\t// out\n        /* \"#utility.yul\":18059:18244   */\n    tag_145:\n        /* \"#utility.yul\":18099:18100   */\n      0x00\n        /* \"#utility.yul\":18116:18136   */\n      tag_442\n        /* \"#utility.yul\":18134:18135   */\n      dup3\n        /* \"#utility.yul\":18116:18136   */\n      tag_379\n      jump\t// in\n    tag_442:\n        /* \"#utility.yul\":18111:18136   */\n      swap2\n      pop\n        /* \"#utility.yul\":18150:18170   */\n      tag_443\n        /* \"#utility.yul\":18168:18169   */\n      dup4\n        /* \"#utility.yul\":18150:18170   */\n      tag_379\n      jump\t// in\n    tag_443:\n        /* \"#utility.yul\":18145:18170   */\n      swap3\n      pop\n        /* \"#utility.yul\":18189:18190   */\n      dup3\n        /* \"#utility.yul\":18179:18214   */\n      tag_444\n      jumpi\n        /* \"#utility.yul\":18194:18212   */\n      tag_445\n      tag_446\n      jump\t// in\n    tag_445:\n        /* \"#utility.yul\":18179:18214   */\n    tag_444:\n        /* \"#utility.yul\":18236:18237   */\n      dup3\n        /* \"#utility.yul\":18233:18234   */\n      dup3\n        /* \"#utility.yul\":18229:18238   */\n      div\n        /* \"#utility.yul\":18224:18238   */\n      swap1\n      pop\n        /* \"#utility.yul\":18059:18244   */\n      swap3\n      swap2\n      pop\n      pop\n      jump\t// out\n        /* \"#utility.yul\":18250:18598   */\n    tag_143:\n        /* \"#utility.yul\":18290:18297   */\n      0x00\n        /* \"#utility.yul\":18313:18333   */\n      tag_448\n        /* \"#utility.yul\":18331:18332   */\n      dup3\n        /* \"#utility.yul\":18313:18333   */\n      tag_379\n      jump\t// in\n    tag_448:\n        /* \"#utility.yul\":18308:18333   */\n      swap2\n      pop\n        /* \"#utility.yul\":18347:18367   */\n      tag_449\n        /* \"#utility.yul\":18365:18366   */\n      dup4\n        /* \"#utility.yul\":18347:18367   */\n      tag_379\n      jump\t// in\n    tag_449:\n        /* \"#utility.yul\":18342:18367   */\n      swap3\n      pop\n        /* \"#utility.yul\":18535:18536   */\n      dup2\n        /* \"#utility.yul\":18467:18533   */\n      0xffffffffffffffffffffffffffffffffffffffffffffffffffffffffffffffff\n        /* \"#utility.yul\":18463:18537   */\n      div\n        /* \"#utility.yul\":18460:18461   */\n      dup4\n        /* \"#utility.yul\":18457:18538   */\n      gt\n        /* \"#utility.yul\":18452:18453   */\n      dup3\n        /* \"#utility.yul\":18445:18454   */\n      iszero\n        /* \"#utility.yul\":18438:18455   */\n      iszero\n        /* \"#utility.yul\":18434:18539   */\n      and\n        /* \"#utility.yul\":18431:18562   */\n      iszero\n      tag_450\n      jumpi\n        /* \"#utility.yul\":18542:18560   */\n      tag_451\n      tag_440\n      jump\t// in\n    tag_451:\n        /* \"#utility.yul\":18431:18562   */\n    tag_450:\n        /* \"#utility.yul\":18590:18591   */\n      dup3\n        /* \"#utility.yul\":18587:18588   */\n      dup3\n        /* \"#utility.yul\":18583:18592   */\n      mul\n        /* \"#utility.yul\":18572:18592   */\n      swap1\n      pop\n        /* \"#utility.yul\":18250:18598   */\n      swap3\n      swap2\n      pop\n      pop\n      jump\t// out\n        /* \"#utility.yul\":18604:18795   */\n    tag_94:\n        /* \"#utility.yul\":18644:18648   */\n      0x00\n        /* \"#utility.yul\":18664:18684   */\n      tag_453\n        /* \"#utility.yul\":18682:18683   */\n      dup3\n        /* \"#utility.yul\":18664:18684   */\n      tag_379\n      jump\t// in\n    tag_453:\n        /* \"#utility.yul\":18659:18684   */\n      swap2\n      pop\n        /* \"#utility.yul\":18698:18718   */\n      tag_454\n        /* \"#utility.yul\":18716:18717   */\n      dup4\n        /* \"#utility.yul\":18698:18718   */\n      tag_379\n      jump\t// in\n    tag_454:\n        /* \"#utility.yul\":18693:18718   */\n      swap3\n      pop\n        /* \"#utility.yul\":18737:18738   */\n      dup3\n        /* \"#utility.yul\":18734:18735   */\n      dup3\n        /* \"#utility.yul\":18731:18739   */\n      lt\n        /* \"#utility.yul\":18728:18762   */\n      iszero\n      tag_455\n      jumpi\n        /* \"#utility.yul\":18742:18760   */\n      tag_456\n      tag_440\n      jump\t// in\n    tag_456:\n        /* \"#utility.yul\":18728:18762   */\n    tag_455:\n        /* \"#utility.yul\":18787:18788   */\n      dup3\n        /* \"#utility.yul\":18784:18785   */\n      dup3\n        /* \"#utility.yul\":18780:18789   */\n      sub\n        /* \"#utility.yul\":18772:18789   */\n      swap1\n      pop\n        /* \"#utility.yul\":18604:18795   */\n      swap3\n      swap2\n      pop\n      pop\n      jump\t// out\n        /* \"#utility.yul\":18801:18897   */\n    tag_301:\n        /* \"#utility.yul\":18838:18845   */\n      0x00\n        /* \"#utility.yul\":18867:18891   */\n      tag_458\n        /* \"#utility.yul\":18885:18890   */\n      dup3\n        /* \"#utility.yul\":18867:18891   */\n      tag_459\n      jump\t// in\n    tag_458:\n        /* \"#utility.yul\":18856:18891   */\n      swap1\n      pop\n        /* \"#utility.yul\":18801:18897   */\n      swap2\n      swap1\n      pop\n      jump\t// out\n        /* \"#utility.yul\":18903:18993   */\n    tag_305:\n        /* \"#utility.yul\":18937:18944   */\n      0x00\n        /* \"#utility.yul\":18980:18985   */\n      dup2\n        /* \"#utility.yul\":18973:18986   */\n      iszero\n        /* \"#utility.yul\":18966:18987   */\n      iszero\n        /* \"#utility.yul\":18955:18987   */\n      swap1\n      pop\n        /* \"#utility.yul\":18903:18993   */\n      swap2\n      swap1\n      pop\n      jump\t// out\n        /* \"#utility.yul\":18999:19076   */\n    tag_309:\n        /* \"#utility.yul\":19036:19043   */\n      0x00\n        /* \"#utility.yul\":19065:19070   */\n      dup2\n        /* \"#utility.yul\":19054:19070   */\n      swap1\n      pop\n        /* \"#utility.yul\":18999:19076   */\n      swap2\n      swap1\n      pop\n      jump\t// out\n        /* \"#utility.yul\":19082:19231   */\n    tag_462:\n        /* \"#utility.yul\":19118:19125   */\n      0x00\n        /* \"#utility.yul\":19158:19224   */\n      0xffffffff00000000000000000000000000000000000000000000000000000000\n        /* \"#utility.yul\":19151:19156   */\n      dup3\n        /* \"#utility.yul\":19147:19225   */\n      and\n        /* \"#utility.yul\":19136:19225   */\n      swap1\n      pop\n        /* \"#utility.yul\":19082:19231   */\n      swap2\n      swap1\n      pop\n      jump\t// out\n        /* \"#utility.yul\":19237:19363   */\n    tag_459:\n        /* \"#utility.yul\":19274:19281   */\n      0x00\n        /* \"#utility.yul\":19314:19356   */\n      0xffffffffffffffffffffffffffffffffffffffff\n        /* \"#utility.yul\":19307:19312   */\n      dup3\n        /* \"#utility.yul\":19303:19357   */\n      and\n        /* \"#utility.yul\":19292:19357   */\n      swap1\n      pop\n        /* \"#utility.yul\":19237:19363   */\n      swap2\n      swap1\n      pop\n      jump\t// out\n        /* \"#utility.yul\":19369:19446   */\n    tag_379:\n        /* \"#utility.yul\":19406:19413   */\n      0x00\n        /* \"#utility.yul\":19435:19440   */\n      dup2\n        /* \"#utility.yul\":19424:19440   */\n      swap1\n      pop\n        /* \"#utility.yul\":19369:19446   */\n      swap2\n      swap1\n      pop\n      jump\t// out\n        /* \"#utility.yul\":19452:19606   */\n    tag_230:\n        /* \"#utility.yul\":19536:19542   */\n      dup3\n        /* \"#utility.yul\":19531:19534   */\n      dup2\n        /* \"#utility.yul\":19526:19529   */\n      dup4\n        /* \"#utility.yul\":19513:19543   */\n      calldatacopy\n        /* \"#utility.yul\":19598:19599   */\n      0x00\n        /* \"#utility.yul\":19589:19595   */\n      dup4\n        /* \"#utility.yul\":19584:19587   */\n      dup4\n        /* \"#utility.yul\":19580:19596   */\n      add\n        /* \"#utility.yul\":19573:19600   */\n      mstore\n        /* \"#utility.yul\":19452:19606   */\n      pop\n      pop\n      pop\n      jump\t// out\n        /* \"#utility.yul\":19612:19919   */\n    tag_317:\n        /* \"#utility.yul\":19680:19681   */\n      0x00\n        /* \"#utility.yul\":19690:19803   */\n    tag_468:\n        /* \"#utility.yul\":19704:19710   */\n      dup4\n        /* \"#utility.yul\":19701:19702   */\n      dup2\n        /* \"#utility.yul\":19698:19711   */\n      lt\n        /* \"#utility.yul\":19690:19803   */\n      iszero\n      tag_470\n      jumpi\n        /* \"#utility.yul\":19789:19790   */\n      dup1\n        /* \"#utility.yul\":19784:19787   */\n      dup3\n        /* \"#utility.yul\":19780:19791   */\n      add\n        /* \"#utility.yul\":19774:19792   */\n      mload\n        /* \"#utility.yul\":19770:19771   */\n      dup2\n        /* \"#utility.yul\":19765:19768   */\n      dup5\n        /* \"#utility.yul\":19761:19772   */\n      add\n        /* \"#utility.yul\":19754:19793   */\n      mstore\n        /* \"#utility.yul\":19726:19728   */\n      0x20\n        /* \"#utility.yul\":19723:19724   */\n      dup2\n        /* \"#utility.yul\":19719:19729   */\n      add\n        /* \"#utility.yul\":19714:19729   */\n      swap1\n      pop\n        /* \"#utility.yul\":19690:19803   */\n      jump(tag_468)\n    tag_470:\n        /* \"#utility.yul\":19821:19827   */\n      dup4\n        /* \"#utility.yul\":19818:19819   */\n      dup2\n        /* \"#utility.yul\":19815:19828   */\n      gt\n        /* \"#utility.yul\":19812:19913   */\n      iszero\n      tag_471\n      jumpi\n        /* \"#utility.yul\":19901:19902   */\n      0x00\n        /* \"#utility.yul\":19892:19898   */\n      dup5\n        /* \"#utility.yul\":19887:19890   */\n      dup5\n        /* \"#utility.yul\":19883:19899   */\n      add\n        /* \"#utility.yul\":19876:19903   */\n      mstore\n        /* \"#utility.yul\":19812:19913   */\n    tag_471:\n        /* \"#utility.yul\":19661:19919   */\n      pop\n        /* \"#utility.yul\":19612:19919   */\n      pop\n      pop\n      pop\n      jump\t// out\n        /* \"#utility.yul\":19925:20096   */\n    tag_205:\n        /* \"#utility.yul\":19964:19967   */\n      0x00\n        /* \"#utility.yul\":19987:20011   */\n      tag_473\n        /* \"#utility.yul\":20005:20010   */\n      dup3\n        /* \"#utility.yul\":19987:20011   */\n      tag_379\n      jump\t// in\n    tag_473:\n        /* \"#utility.yul\":19978:20011   */\n      swap2\n      pop\n        /* \"#utility.yul\":20033:20037   */\n      0x00\n        /* \"#utility.yul\":20026:20031   */\n      dup3\n        /* \"#utility.yul\":20023:20038   */\n      eq\n        /* \"#utility.yul\":20020:20061   */\n      iszero\n      tag_474\n      jumpi\n        /* \"#utility.yul\":20041:20059   */\n      tag_475\n      tag_440\n      jump\t// in\n    tag_475:\n        /* \"#utility.yul\":20020:20061   */\n    tag_474:\n        /* \"#utility.yul\":20088:20089   */\n      0x01\n        /* \"#utility.yul\":20081:20086   */\n      dup3\n        /* \"#utility.yul\":20077:20090   */\n      sub\n        /* \"#utility.yul\":20070:20090   */\n      swap1\n      pop\n        /* \"#utility.yul\":19925:20096   */\n      swap2\n      swap1\n      pop\n      jump\t// out\n        /* \"#utility.yul\":20102:20422   */\n    tag_82:\n        /* \"#utility.yul\":20146:20152   */\n      0x00\n        /* \"#utility.yul\":20183:20184   */\n      0x02\n        /* \"#utility.yul\":20177:20181   */\n      dup3\n        /* \"#utility.yul\":20173:20185   */\n      div\n        /* \"#utility.yul\":20163:20185   */\n      swap1\n      pop\n        /* \"#utility.yul\":20230:20231   */\n      0x01\n        /* \"#utility.yul\":20224:20228   */\n      dup3\n        /* \"#utility.yul\":20220:20232   */\n      and\n        /* \"#utility.yul\":20251:20269   */\n      dup1\n        /* \"#utility.yul\":20241:20322   */\n      tag_477\n      jumpi\n        /* \"#utility.yul\":20307:20311   */\n      0x7f\n        /* \"#utility.yul\":20299:20305   */\n      dup3\n        /* \"#utility.yul\":20295:20312   */\n      and\n        /* \"#utility.yul\":20285:20312   */\n      swap2\n      pop\n        /* \"#utility.yul\":20241:20322   */\n    tag_477:\n        /* \"#utility.yul\":20369:20371   */\n      0x20\n        /* \"#utility.yul\":20361:20367   */\n      dup3\n        /* \"#utility.yul\":20358:20372   */\n      lt\n        /* \"#utility.yul\":20338:20356   */\n      dup2\n        /* \"#utility.yul\":20335:20373   */\n      eq\n        /* \"#utility.yul\":20332:20416   */\n      iszero\n      tag_478\n      jumpi\n        /* \"#utility.yul\":20388:20406   */\n      tag_479\n      tag_480\n      jump\t// in\n    tag_479:\n        /* \"#utility.yul\":20332:20416   */\n    tag_478:\n        /* \"#utility.yul\":20153:20422   */\n      pop\n        /* \"#utility.yul\":20102:20422   */\n      swap2\n      swap1\n      pop\n      jump\t// out\n        /* \"#utility.yul\":20428:20709   */\n    tag_426:\n        /* \"#utility.yul\":20511:20538   */\n      tag_482\n        /* \"#utility.yul\":20533:20537   */\n      dup3\n        /* \"#utility.yul\":20511:20538   */\n      tag_319\n      jump\t// in\n    tag_482:\n        /* \"#utility.yul\":20503:20509   */\n      dup2\n        /* \"#utility.yul\":20499:20539   */\n      add\n        /* \"#utility.yul\":20641:20647   */\n      dup2\n        /* \"#utility.yul\":20629:20639   */\n      dup2\n        /* \"#utility.yul\":20626:20648   */\n      lt\n        /* \"#utility.yul\":20605:20623   */\n      0xffffffffffffffff\n        /* \"#utility.yul\":20593:20603   */\n      dup3\n        /* \"#utility.yul\":20590:20624   */\n      gt\n        /* \"#utility.yul\":20587:20649   */\n      or\n        /* \"#utility.yul\":20584:20672   */\n      iszero\n      tag_483\n      jumpi\n        /* \"#utility.yul\":20652:20670   */\n      tag_484\n      tag_188\n      jump\t// in\n    tag_484:\n        /* \"#utility.yul\":20584:20672   */\n    tag_483:\n        /* \"#utility.yul\":20692:20702   */\n      dup1\n        /* \"#utility.yul\":20688:20690   */\n      0x40\n        /* \"#utility.yul\":20681:20703   */\n      mstore\n        /* \"#utility.yul\":20471:20709   */\n      pop\n        /* \"#utility.yul\":20428:20709   */\n      pop\n      pop\n      jump\t// out\n        /* \"#utility.yul\":20715:20895   */\n    tag_440:\n        /* \"#utility.yul\":20763:20840   */\n      0x4e487b7100000000000000000000000000000000000000000000000000000000\n        /* \"#utility.yul\":20760:20761   */\n      0x00\n        /* \"#utility.yul\":20753:20841   */\n      mstore\n        /* \"#utility.yul\":20860:20864   */\n      0x11\n        /* \"#utility.yul\":20857:20858   */\n      0x04\n        /* \"#utility.yul\":20850:20865   */\n      mstore\n        /* \"#utility.yul\":20884:20888   */\n      0x24\n        /* \"#utility.yul\":20881:20882   */\n      0x00\n        /* \"#utility.yul\":20874:20889   */\n      revert\n        /* \"#utility.yul\":20901:21081   */\n    tag_446:\n        /* \"#utility.yul\":20949:21026   */\n      0x4e487b7100000000000000000000000000000000000000000000000000000000\n        /* \"#utility.yul\":20946:20947   */\n      0x00\n        /* \"#utility.yul\":20939:21027   */\n      mstore\n        /* \"#utility.yul\":21046:21050   */\n      0x12\n        /* \"#utility.yul\":21043:21044   */\n      0x04\n        /* \"#utility.yul\":21036:21051   */\n      mstore\n        /* \"#utility.yul\":21070:21074   */\n      0x24\n        /* \"#utility.yul\":21067:21068   */\n      0x00\n        /* \"#utility.yul\":21060:21075   */\n      revert\n        /* \"#utility.yul\":21087:21267   */\n    tag_480:\n        /* \"#utility.yul\":21135:21212   */\n      0x4e487b7100000000000000000000000000000000000000000000000000000000\n        /* \"#utility.yul\":21132:21133   */\n      0x00\n        /* \"#utility.yul\":21125:21213   */\n      mstore\n        /* \"#utility.yul\":21232:21236   */\n      0x22\n        /* \"#utility.yul\":21229:21230   */\n      0x04\n        /* \"#utility.yul\":21222:21237   */\n      mstore\n        /* \"#utility.yul\":21256:21260   */\n      0x24\n        /* \"#utility.yul\":21253:21254   */\n      0x00\n        /* \"#utility.yul\":21246:21261   */\n      revert\n        /* \"#utility.yul\":21273:21453   */\n    tag_192:\n        /* \"#utility.yul\":21321:21398   */\n      0x4e487b7100000000000000000000000000000000000000000000000000000000\n        /* \"#utility.yul\":21318:21319   */\n      0x00\n        /* \"#utility.yul\":21311:21399   */\n      mstore\n        /* \"#utility.yul\":21418:21422   */\n      0x32\n        /* \"#utility.yul\":21415:21416   */\n      0x04\n        /* \"#utility.yul\":21408:21423   */\n      mstore\n        /* \"#utility.yul\":21442:21446   */\n      0x24\n        /* \"#utility.yul\":21439:21440   */\n      0x00\n        /* \"#utility.yul\":21432:21447   */\n      revert\n        /* \"#utility.yul\":21459:21639   */\n    tag_188:\n        /* \"#utility.yul\":21507:21584   */\n      0x4e487b7100000000000000000000000000000000000000000000000000000000\n        /* \"#utility.yul\":21504:21505   */\n      0x00\n        /* \"#utility.yul\":21497:21585   */\n      mstore\n        /* \"#utility.yul\":21604:21608   */\n      0x41\n        /* \"#utility.yul\":21601:21602   */\n      0x04\n        /* \"#utility.yul\":21594:21609   */\n      mstore\n        /* \"#utility.yul\":21628:21632   */\n      0x24\n        /* \"#utility.yul\":21625:21626   */\n      0x00\n        /* \"#utility.yul\":21618:21633   */\n      revert\n        /* \"#utility.yul\":21645:21762   */\n    tag_251:\n        /* \"#utility.yul\":21754:21755   */\n      0x00\n        /* \"#utility.yul\":21751:21752   */\n      dup1\n        /* \"#utility.yul\":21744:21756   */\n      revert\n        /* \"#utility.yul\":21768:21885   */\n    tag_228:\n        /* \"#utility.yul\":21877:21878   */\n      0x00\n        /* \"#utility.yul\":21874:21875   */\n      dup1\n        /* \"#utility.yul\":21867:21879   */\n      revert\n        /* \"#utility.yul\":21891:22008   */\n    tag_271:\n        /* \"#utility.yul\":22000:22001   */\n      0x00\n        /* \"#utility.yul\":21997:21998   */\n      dup1\n        /* \"#utility.yul\":21990:22002   */\n      revert\n        /* \"#utility.yul\":22014:22131   */\n    tag_263:\n        /* \"#utility.yul\":22123:22124   */\n      0x00\n        /* \"#utility.yul\":22120:22121   */\n      dup1\n        /* \"#utility.yul\":22113:22125   */\n      revert\n        /* \"#utility.yul\":22137:22239   */\n    tag_319:\n        /* \"#utility.yul\":22178:22184   */\n      0x00\n        /* \"#utility.yul\":22229:22231   */\n      0x1f\n        /* \"#utility.yul\":22225:22232   */\n      not\n        /* \"#utility.yul\":22220:22222   */\n      0x1f\n        /* \"#utility.yul\":22213:22218   */\n      dup4\n        /* \"#utility.yul\":22209:22223   */\n      add\n        /* \"#utility.yul\":22205:22233   */\n      and\n        /* \"#utility.yul\":22195:22233   */\n      swap1\n      pop\n        /* \"#utility.yul\":22137:22239   */\n      swap2\n      swap1\n      pop\n      jump\t// out\n        /* \"#utility.yul\":22245:22472   */\n    tag_330:\n        /* \"#utility.yul\":22385:22419   */\n      0x63616c6c6572206973206e6f7420656c696769626c6520666f72206e65787420\n        /* \"#utility.yul\":22381:22382   */\n      0x00\n        /* \"#utility.yul\":22373:22379   */\n      dup3\n        /* \"#utility.yul\":22369:22383   */\n      add\n        /* \"#utility.yul\":22362:22420   */\n      mstore\n        /* \"#utility.yul\":22454:22464   */\n      0x7769746864726177000000000000000000000000000000000000000000000000\n        /* \"#utility.yul\":22449:22451   */\n      0x20\n        /* \"#utility.yul\":22441:22447   */\n      dup3\n        /* \"#utility.yul\":22437:22452   */\n      add\n        /* \"#utility.yul\":22430:22465   */\n      mstore\n        /* \"#utility.yul\":22245:22472   */\n      pop\n      jump\t// out\n        /* \"#utility.yul\":22478:22660   */\n    tag_335:\n        /* \"#utility.yul\":22618:22652   */\n      0x537472696e67733a20686578206c656e67746820696e73756666696369656e74\n        /* \"#utility.yul\":22614:22615   */\n      0x00\n        /* \"#utility.yul\":22606:22612   */\n      dup3\n        /* \"#utility.yul\":22602:22616   */\n      add\n        /* \"#utility.yul\":22595:22653   */\n      mstore\n        /* \"#utility.yul\":22478:22660   */\n      pop\n      jump\t// out\n        /* \"#utility.yul\":22666:22843   */\n    tag_340:\n        /* \"#utility.yul\":22806:22835   */\n      0x63616c6c6572206973206e6f742061646d696e6973747261746f720000000000\n        /* \"#utility.yul\":22802:22803   */\n      0x00\n        /* \"#utility.yul\":22794:22800   */\n      dup3\n        /* \"#utility.yul\":22790:22804   */\n      add\n        /* \"#utility.yul\":22783:22836   */\n      mstore\n        /* \"#utility.yul\":22666:22843   */\n      pop\n      jump\t// out\n        /* \"#utility.yul\":22849:23027   */\n    tag_345:\n        /* \"#utility.yul\":22989:23019   */\n      0x6e6f7420656e6f7567682066756e647320696e20636f6e747261637400000000\n        /* \"#utility.yul\":22985:22986   */\n      0x00\n        /* \"#utility.yul\":22977:22983   */\n      dup3\n        /* \"#utility.yul\":22973:22987   */\n      add\n        /* \"#utility.yul\":22966:23020   */\n      mstore\n        /* \"#utility.yul\":22849:23027   */\n      pop\n      jump\t// out\n        /* \"#utility.yul\":23033:23195   */\n    tag_350:\n        /* \"#utility.yul\":23173:23187   */\n      0x6661696c65642072657061790000000000000000000000000000000000000000\n        /* \"#utility.yul\":23169:23170   */\n      0x00\n        /* \"#utility.yul\":23161:23167   */\n      dup3\n        /* \"#utility.yul\":23157:23171   */\n      add\n        /* \"#utility.yul\":23150:23188   */\n      mstore\n        /* \"#utility.yul\":23033:23195   */\n      pop\n      jump\t// out\n        /* \"#utility.yul\":23201:23430   */\n    tag_355:\n        /* \"#utility.yul\":23341:23375   */\n      0x63616c6c6572206973206e6f7420656c696769626c6520666f72207769746864\n        /* \"#utility.yul\":23337:23338   */\n      0x00\n        /* \"#utility.yul\":23329:23335   */\n      dup3\n        /* \"#utility.yul\":23325:23339   */\n      add\n        /* \"#utility.yul\":23318:23376   */\n      mstore\n        /* \"#utility.yul\":23410:23422   */\n      0x72617720616d6f756e7400000000000000000000000000000000000000000000\n        /* \"#utility.yul\":23405:23407   */\n      0x20\n        /* \"#utility.yul\":23397:23403   */\n      dup3\n        /* \"#utility.yul\":23393:23408   */\n      add\n        /* \"#utility.yul\":23386:23423   */\n      mstore\n        /* \"#utility.yul\":23201:23430   */\n      pop\n      jump\t// out\n        /* \"#utility.yul\":23436:23609   */\n    tag_360:\n        /* \"#utility.yul\":23576:23601   */\n      0x416363657373436f6e74726f6c3a206163636f756e7420000000000000000000\n        /* \"#utility.yul\":23572:23573   */\n      0x00\n        /* \"#utility.yul\":23564:23570   */\n      dup3\n        /* \"#utility.yul\":23560:23574   */\n      add\n        /* \"#utility.yul\":23553:23602   */\n      mstore\n        /* \"#utility.yul\":23436:23609   */\n      pop\n      jump\t// out\n        /* \"#utility.yul\":23615:23780   */\n    tag_365:\n        /* \"#utility.yul\":23755:23772   */\n      0x7769746864726177206661696c65640000000000000000000000000000000000\n        /* \"#utility.yul\":23751:23752   */\n      0x00\n        /* \"#utility.yul\":23743:23749   */\n      dup3\n        /* \"#utility.yul\":23739:23753   */\n      add\n        /* \"#utility.yul\":23732:23773   */\n      mstore\n        /* \"#utility.yul\":23615:23780   */\n      pop\n      jump\t// out\n        /* \"#utility.yul\":23786:23953   */\n    tag_370:\n        /* \"#utility.yul\":23926:23945   */\n      0x206973206d697373696e6720726f6c6520000000000000000000000000000000\n        /* \"#utility.yul\":23922:23923   */\n      0x00\n        /* \"#utility.yul\":23914:23920   */\n      dup3\n        /* \"#utility.yul\":23910:23924   */\n      add\n        /* \"#utility.yul\":23903:23946   */\n      mstore\n        /* \"#utility.yul\":23786:23953   */\n      pop\n      jump\t// out\n        /* \"#utility.yul\":23959:24193   */\n    tag_375:\n        /* \"#utility.yul\":24099:24133   */\n      0x416363657373436f6e74726f6c3a2063616e206f6e6c792072656e6f756e6365\n        /* \"#utility.yul\":24095:24096   */\n      0x00\n        /* \"#utility.yul\":24087:24093   */\n      dup3\n        /* \"#utility.yul\":24083:24097   */\n      add\n        /* \"#utility.yul\":24076:24134   */\n      mstore\n        /* \"#utility.yul\":24168:24185   */\n      0x20726f6c657320666f722073656c660000000000000000000000000000000000\n        /* \"#utility.yul\":24163:24165   */\n      0x20\n        /* \"#utility.yul\":24155:24161   */\n      dup3\n        /* \"#utility.yul\":24151:24166   */\n      add\n        /* \"#utility.yul\":24144:24186   */\n      mstore\n        /* \"#utility.yul\":23959:24193   */\n      pop\n      jump\t// out\n        /* \"#utility.yul\":24199:24321   */\n    tag_234:\n        /* \"#utility.yul\":24272:24296   */\n      tag_506\n        /* \"#utility.yul\":24290:24295   */\n      dup2\n        /* \"#utility.yul\":24272:24296   */\n      tag_301\n      jump\t// in\n    tag_506:\n        /* \"#utility.yul\":24265:24270   */\n      dup2\n        /* \"#utility.yul\":24262:24297   */\n      eq\n        /* \"#utility.yul\":24252:24315   */\n      tag_507\n      jumpi\n        /* \"#utility.yul\":24311:24312   */\n      0x00\n        /* \"#utility.yul\":24308:24309   */\n      dup1\n        /* \"#utility.yul\":24301:24313   */\n      revert\n        /* \"#utility.yul\":24252:24315   */\n    tag_507:\n        /* \"#utility.yul\":24199:24321   */\n      pop\n      jump\t// out\n        /* \"#utility.yul\":24327:24443   */\n    tag_238:\n        /* \"#utility.yul\":24397:24418   */\n      tag_509\n        /* \"#utility.yul\":24412:24417   */\n      dup2\n        /* \"#utility.yul\":24397:24418   */\n      tag_305\n      jump\t// in\n    tag_509:\n        /* \"#utility.yul\":24390:24395   */\n      dup2\n        /* \"#utility.yul\":24387:24419   */\n      eq\n        /* \"#utility.yul\":24377:24437   */\n      tag_510\n      jumpi\n        /* \"#utility.yul\":24433:24434   */\n      0x00\n        /* \"#utility.yul\":24430:24431   */\n      dup1\n        /* \"#utility.yul\":24423:24435   */\n      revert\n        /* \"#utility.yul\":24377:24437   */\n    tag_510:\n        /* \"#utility.yul\":24327:24443   */\n      pop\n      jump\t// out\n        /* \"#utility.yul\":24449:24571   */\n    tag_242:\n        /* \"#utility.yul\":24522:24546   */\n      tag_512\n        /* \"#utility.yul\":24540:24545   */\n      dup2\n        /* \"#utility.yul\":24522:24546   */\n      tag_309\n      jump\t// in\n    tag_512:\n        /* \"#utility.yul\":24515:24520   */\n      dup2\n        /* \"#utility.yul\":24512:24547   */\n      eq\n        /* \"#utility.yul\":24502:24565   */\n      tag_513\n      jumpi\n        /* \"#utility.yul\":24561:24562   */\n      0x00\n        /* \"#utility.yul\":24558:24559   */\n      dup1\n        /* \"#utility.yul\":24551:24563   */\n      revert\n        /* \"#utility.yul\":24502:24565   */\n    tag_513:\n        /* \"#utility.yul\":24449:24571   */\n      pop\n      jump\t// out\n        /* \"#utility.yul\":24577:24697   */\n    tag_246:\n        /* \"#utility.yul\":24649:24672   */\n      tag_515\n        /* \"#utility.yul\":24666:24671   */\n      dup2\n        /* \"#utility.yul\":24649:24672   */\n      tag_462\n      jump\t// in\n    tag_515:\n        /* \"#utility.yul\":24642:24647   */\n      dup2\n        /* \"#utility.yul\":24639:24673   */\n      eq\n        /* \"#utility.yul\":24629:24691   */\n      tag_516\n      jumpi\n        /* \"#utility.yul\":24687:24688   */\n      0x00\n        /* \"#utility.yul\":24684:24685   */\n      dup1\n        /* \"#utility.yul\":24677:24689   */\n      revert\n        /* \"#utility.yul\":24629:24691   */\n    tag_516:\n        /* \"#utility.yul\":24577:24697   */\n      pop\n      jump\t// out\n        /* \"#utility.yul\":24703:24825   */\n    tag_256:\n        /* \"#utility.yul\":24776:24800   */\n      tag_518\n        /* \"#utility.yul\":24794:24799   */\n      dup2\n        /* \"#utility.yul\":24776:24800   */\n      tag_379\n      jump\t// in\n    tag_518:\n        /* \"#utility.yul\":24769:24774   */\n      dup2\n        /* \"#utility.yul\":24766:24801   */\n      eq\n        /* \"#utility.yul\":24756:24819   */\n      tag_519\n      jumpi\n        /* \"#utility.yul\":24815:24816   */\n      0x00\n        /* \"#utility.yul\":24812:24813   */\n      dup1\n        /* \"#utility.yul\":24805:24817   */\n      revert\n        /* \"#utility.yul\":24756:24819   */\n    tag_519:\n        /* \"#utility.yul\":24703:24825   */\n      pop\n      jump\t// out\n\n    auxdata: 0xa26469706673582212200ea0da1635311291af39fe95059c9556913cacdf144a8fcac395f85da33e57ef64736f6c63430008070033\n}\n",
				"bytecode": {
					"linkReferences": {},
					"object": "60806040526512309ce540006002553480156200001b57600080fd5b50604051620023483803806200234883398181016040528101906200004191906200022e565b80600160006101000a81548173ffffffffffffffffffffffffffffffffffffffff021916908373ffffffffffffffffffffffffffffffffffffffff160217905550620000976000801b336200009e60201b60201c565b50620002b3565b620000b08282620000b460201b60201c565b5050565b620000c68282620001a560201b60201c565b620001a157600160008084815260200190815260200160002060000160008373ffffffffffffffffffffffffffffffffffffffff1673ffffffffffffffffffffffffffffffffffffffff16815260200190815260200160002060006101000a81548160ff021916908315150217905550620001466200020f60201b60201c565b73ffffffffffffffffffffffffffffffffffffffff168173ffffffffffffffffffffffffffffffffffffffff16837f2f8788117e7eff1d82e926ec794901d17c78024a50270940304540a733656f0d60405160405180910390a45b5050565b600080600084815260200190815260200160002060000160008373ffffffffffffffffffffffffffffffffffffffff1673ffffffffffffffffffffffffffffffffffffffff16815260200190815260200160002060009054906101000a900460ff16905092915050565b600033905090565b600081519050620002288162000299565b92915050565b60006020828403121562000247576200024662000294565b5b6000620002578482850162000217565b91505092915050565b60006200026d8262000274565b9050919050565b600073ffffffffffffffffffffffffffffffffffffffff82169050919050565b600080fd5b620002a48162000260565b8114620002b057600080fd5b50565b61208580620002c36000396000f3fe608060405234801561001057600080fd5b50600436106100b45760003560e01c806391d148541161007157806391d14854146101a15780639f7c73e9146101d1578063a217fddf146101ed578063d547741f1461020b578063f2dc12ce14610227578063fc0c546a14610243576100b4565b806301ffc9a7146100b9578063248a9ca3146100e95780632e1a7d4d146101195780632f2ff15d1461013557806336568abe14610151578063595aa13d1461016d575b600080fd5b6100d360048036038101906100ce91906114ef565b610261565b6040516100e09190611889565b60405180910390f35b61010360048036038101906100fe9190611482565b6102db565b60405161011091906118a4565b60405180910390f35b610133600480360381019061012e919061151c565b6102fa565b005b61014f600480360381019061014a91906114af565b610753565b005b61016b600480360381019061016691906114af565b610774565b005b610187600480360381019061018291906113cc565b6107f7565b604051610198959493929190611806565b60405180910390f35b6101bb60048036038101906101b691906114af565b6108d5565b6040516101c89190611889565b60405180910390f35b6101eb60048036038101906101e691906113cc565b61093f565b005b6101f5610b79565b60405161020291906118a4565b60405180910390f35b610225600480360381019061022091906114af565b610b80565b005b610241600480360381019061023c91906113f9565b610ba1565b005b61024b610cf5565b60405161025891906117b4565b60405180910390f35b60007f7965db0b000000000000000000000000000000000000000000000000000000007bffffffffffffffffffffffffffffffffffffffffffffffffffffffff1916827bffffffffffffffffffffffffffffffffffffffffffffffffffffffff191614806102d457506102d382610d1b565b5b9050919050565b6000806000838152602001908152602001600020600101549050919050565b6000600160009054906101000a900473ffffffffffffffffffffffffffffffffffffffff1673ffffffffffffffffffffffffffffffffffffffff166370a08231306040518263ffffffff1660e01b815260040161035791906117b4565b60206040518083038186803b15801561036f57600080fd5b505afa158015610383573d6000803e3d6000fd5b505050506040513d601f19601f820116820180604052508101906103a79190611549565b90508181116103eb576040517f08c379a00000000000000000000000000000000000000000000000000000000081526004016103e290611941565b60405180910390fd5b6000600360003373ffffffffffffffffffffffffffffffffffffffff1673ffffffffffffffffffffffffffffffffffffffff1681526020019081526020016000206040518060a00160405290816000820160009054906101000a900473ffffffffffffffffffffffffffffffffffffffff1673ffffffffffffffffffffffffffffffffffffffff1673ffffffffffffffffffffffffffffffffffffffff16815260200160018201805461049d90611c5d565b80601f01602080910402602001604051908101604052809291908181526020018280546104c990611c5d565b80156105165780601f106104eb57610100808354040283529160200191610516565b820191906000526020600020905b8154815290600101906020018083116104f957829003601f168201915b505050505081526020016002820154815260200160038201548152602001600482015481525050905043816080015111610585576040517f08c379a000000000000000000000000000000000000000000000000000000000815260040161057c906118e1565b60405180910390fd5b828160400151116105cb576040517f08c379a00000000000000000000000000000000000000000000000000000000081526004016105c290611981565b60405180910390fd5b8281604001516105db9190611b3f565b816060015110610620576040517f08c379a000000000000000000000000000000000000000000000000000000000815260040161061790611981565b60405180910390fd5b600160009054906101000a900473ffffffffffffffffffffffffffffffffffffffff1673ffffffffffffffffffffffffffffffffffffffff1663a9059cbb33856040518363ffffffff1660e01b815260040161067d929190611860565b602060405180830381600087803b15801561069757600080fd5b505af11580156106ab573d6000803e3d6000fd5b505050506040513d601f19601f820116820180604052508101906106cf9190611455565b61070e576040517f08c379a0000000000000000000000000000000000000000000000000000000008152600401610705906119a1565b60405180910390fd5b82816060018181516107209190611a5e565b91508181525050620106d0436107369190611a5e565b816080018181516107479190611a5e565b91508181525050505050565b61075c826102db565b61076581610d85565b61076f8383610d99565b505050565b61077c610e79565b73ffffffffffffffffffffffffffffffffffffffff168173ffffffffffffffffffffffffffffffffffffffff16146107e9576040517f08c379a00000000000000000000000000000000000000000000000000000000081526004016107e0906119c1565b60405180910390fd5b6107f38282610e81565b5050565b60036020528060005260406000206000915090508060000160009054906101000a900473ffffffffffffffffffffffffffffffffffffffff169080600101805461084090611c5d565b80601f016020809104026020016040519081016040528092919081815260200182805461086c90611c5d565b80156108b95780601f1061088e576101008083540402835291602001916108b9565b820191906000526020600020905b81548152906001019060200180831161089c57829003601f168201915b5050505050908060020154908060030154908060040154905085565b600080600084815260200190815260200160002060000160008373ffffffffffffffffffffffffffffffffffffffff1673ffffffffffffffffffffffffffffffffffffffff16815260200190815260200160002060009054906101000a900460ff16905092915050565b6000600360008373ffffffffffffffffffffffffffffffffffffffff1673ffffffffffffffffffffffffffffffffffffffff168152602001908152602001600020600301549050600160009054906101000a900473ffffffffffffffffffffffffffffffffffffffff1673ffffffffffffffffffffffffffffffffffffffff166323b872dd3330846040518463ffffffff1660e01b81526004016109e5939291906117cf565b602060405180830381600087803b1580156109ff57600080fd5b505af1158015610a13573d6000803e3d6000fd5b505050506040513d601f19601f82011682018060405250810190610a379190611455565b610a76576040517f08c379a0000000000000000000000000000000000000000000000000000000008152600401610a6d90611961565b60405180910390fd5b600060646069600360008673ffffffffffffffffffffffffffffffffffffffff1673ffffffffffffffffffffffffffffffffffffffff16815260200190815260200160002060020154610ac99190611ae5565b610ad39190611ab4565b9050600254811115610ae55760025490505b80600360008573ffffffffffffffffffffffffffffffffffffffff1673ffffffffffffffffffffffffffffffffffffffff168152602001908152602001600020600201819055506000600360008573ffffffffffffffffffffffffffffffffffffffff1673ffffffffffffffffffffffffffffffffffffffff16815260200190815260200160002060030181905550505050565b6000801b81565b610b89826102db565b610b9281610d85565b610b9c8383610e81565b505050565b610bae6000801b336108d5565b610bed576040517f08c379a0000000000000000000000000000000000000000000000000000000008152600401610be490611921565b60405180910390fd5b6040518060a001604052808373ffffffffffffffffffffffffffffffffffffffff16815260200182815260200160025481526020016000815260200143815250600360008473ffffffffffffffffffffffffffffffffffffffff1673ffffffffffffffffffffffffffffffffffffffff16815260200190815260200160002060008201518160000160006101000a81548173ffffffffffffffffffffffffffffffffffffffff021916908373ffffffffffffffffffffffffffffffffffffffff1602179055506020820151816001019080519060200190610ccf92919061123b565b506040820151816002015560608201518160030155608082015181600401559050505050565b600160009054906101000a900473ffffffffffffffffffffffffffffffffffffffff1681565b60007f01ffc9a7000000000000000000000000000000000000000000000000000000007bffffffffffffffffffffffffffffffffffffffffffffffffffffffff1916827bffffffffffffffffffffffffffffffffffffffffffffffffffffffff1916149050919050565b610d9681610d91610e79565b610f62565b50565b610da382826108d5565b610e7557600160008084815260200190815260200160002060000160008373ffffffffffffffffffffffffffffffffffffffff1673ffffffffffffffffffffffffffffffffffffffff16815260200190815260200160002060006101000a81548160ff021916908315150217905550610e1a610e79565b73ffffffffffffffffffffffffffffffffffffffff168173ffffffffffffffffffffffffffffffffffffffff16837f2f8788117e7eff1d82e926ec794901d17c78024a50270940304540a733656f0d60405160405180910390a45b5050565b600033905090565b610e8b82826108d5565b15610f5e57600080600084815260200190815260200160002060000160008373ffffffffffffffffffffffffffffffffffffffff1673ffffffffffffffffffffffffffffffffffffffff16815260200190815260200160002060006101000a81548160ff021916908315150217905550610f03610e79565b73ffffffffffffffffffffffffffffffffffffffff168173ffffffffffffffffffffffffffffffffffffffff16837ff6391f5c32d9c69d2a47ea670b442974b53935d1edc7fd64eb21e047a839171b60405160405180910390a45b5050565b610f6c82826108d5565b610ffb57610f918173ffffffffffffffffffffffffffffffffffffffff166014610fff565b610f9f8360001c6020610fff565b604051602001610fb092919061177a565b6040516020818303038152906040526040517f08c379a0000000000000000000000000000000000000000000000000000000008152600401610ff291906118bf565b60405180910390fd5b5050565b6060600060028360026110129190611ae5565b61101c9190611a5e565b67ffffffffffffffff81111561103557611034611d7c565b5b6040519080825280601f01601f1916602001820160405280156110675781602001600182028036833780820191505090505b5090507f30000000000000000000000000000000000000000000000000000000000000008160008151811061109f5761109e611d4d565b5b60200101907effffffffffffffffffffffffffffffffffffffffffffffffffffffffffffff1916908160001a9053507f78000000000000000000000000000000000000000000000000000000000000008160018151811061110357611102611d4d565b5b60200101907effffffffffffffffffffffffffffffffffffffffffffffffffffffffffffff1916908160001a905350600060018460026111439190611ae5565b61114d9190611a5e565b90505b60018111156111ed577f3031323334353637383961626364656600000000000000000000000000000000600f86166010811061118f5761118e611d4d565b5b1a60f81b8282815181106111a6576111a5611d4d565b5b60200101907effffffffffffffffffffffffffffffffffffffffffffffffffffffffffffff1916908160001a905350600485901c9450806111e690611c33565b9050611150565b5060008414611231576040517f08c379a000000000000000000000000000000000000000000000000000000000815260040161122890611901565b60405180910390fd5b8091505092915050565b82805461124790611c5d565b90600052602060002090601f01602090048101928261126957600085556112b0565b82601f1061128257805160ff19168380011785556112b0565b828001600101855582156112b0579182015b828111156112af578251825591602001919060010190611294565b5b5090506112bd91906112c1565b5090565b5b808211156112da5760008160009055506001016112c2565b5090565b60006112f16112ec84611a06565b6119e1565b90508281526020810184848401111561130d5761130c611db0565b5b611318848285611bf1565b509392505050565b60008135905061132f81611fdc565b92915050565b60008151905061134481611ff3565b92915050565b6000813590506113598161200a565b92915050565b60008135905061136e81612021565b92915050565b600082601f83011261138957611388611dab565b5b81356113998482602086016112de565b91505092915050565b6000813590506113b181612038565b92915050565b6000815190506113c681612038565b92915050565b6000602082840312156113e2576113e1611dba565b5b60006113f084828501611320565b91505092915050565b600080604083850312156114105761140f611dba565b5b600061141e85828601611320565b925050602083013567ffffffffffffffff81111561143f5761143e611db5565b5b61144b85828601611374565b9150509250929050565b60006020828403121561146b5761146a611dba565b5b600061147984828501611335565b91505092915050565b60006020828403121561149857611497611dba565b5b60006114a68482850161134a565b91505092915050565b600080604083850312156114c6576114c5611dba565b5b60006114d48582860161134a565b92505060206114e585828601611320565b9150509250929050565b60006020828403121561150557611504611dba565b5b60006115138482850161135f565b91505092915050565b60006020828403121561153257611531611dba565b5b6000611540848285016113a2565b91505092915050565b60006020828403121561155f5761155e611dba565b5b600061156d848285016113b7565b91505092915050565b61157f81611b73565b82525050565b61158e81611b85565b82525050565b61159d81611b91565b82525050565b60006115ae82611a37565b6115b88185611a42565b93506115c8818560208601611c00565b6115d181611dbf565b840191505092915050565b60006115e782611a37565b6115f18185611a53565b9350611601818560208601611c00565b80840191505092915050565b600061161a602883611a42565b915061162582611dd0565b604082019050919050565b600061163d602083611a42565b915061164882611e1f565b602082019050919050565b6000611660601b83611a42565b915061166b82611e48565b602082019050919050565b6000611683601c83611a42565b915061168e82611e71565b602082019050919050565b60006116a6600c83611a42565b91506116b182611e9a565b602082019050919050565b60006116c9602a83611a42565b91506116d482611ec3565b604082019050919050565b60006116ec601783611a53565b91506116f782611f12565b601782019050919050565b600061170f600f83611a42565b915061171a82611f3b565b602082019050919050565b6000611732601183611a53565b915061173d82611f64565b601182019050919050565b6000611755602f83611a42565b915061176082611f8d565b604082019050919050565b61177481611be7565b82525050565b6000611785826116df565b915061179182856115dc565b915061179c82611725565b91506117a882846115dc565b91508190509392505050565b60006020820190506117c96000830184611576565b92915050565b60006060820190506117e46000830186611576565b6117f16020830185611576565b6117fe604083018461176b565b949350505050565b600060a08201905061181b6000830188611576565b818103602083015261182d81876115a3565b905061183c604083018661176b565b611849606083018561176b565b611856608083018461176b565b9695505050505050565b60006040820190506118756000830185611576565b611882602083018461176b565b9392505050565b600060208201905061189e6000830184611585565b92915050565b60006020820190506118b96000830184611594565b92915050565b600060208201905081810360008301526118d981846115a3565b905092915050565b600060208201905081810360008301526118fa8161160d565b9050919050565b6000602082019050818103600083015261191a81611630565b9050919050565b6000602082019050818103600083015261193a81611653565b9050919050565b6000602082019050818103600083015261195a81611676565b9050919050565b6000602082019050818103600083015261197a81611699565b9050919050565b6000602082019050818103600083015261199a816116bc565b9050919050565b600060208201905081810360008301526119ba81611702565b9050919050565b600060208201905081810360008301526119da81611748565b9050919050565b60006119eb6119fc565b90506119f78282611c8f565b919050565b6000604051905090565b600067ffffffffffffffff821115611a2157611a20611d7c565b5b611a2a82611dbf565b9050602081019050919050565b600081519050919050565b600082825260208201905092915050565b600081905092915050565b6000611a6982611be7565b9150611a7483611be7565b9250827fffffffffffffffffffffffffffffffffffffffffffffffffffffffffffffffff03821115611aa957611aa8611cc0565b5b828201905092915050565b6000611abf82611be7565b9150611aca83611be7565b925082611ada57611ad9611cef565b5b828204905092915050565b6000611af082611be7565b9150611afb83611be7565b9250817fffffffffffffffffffffffffffffffffffffffffffffffffffffffffffffffff0483118215151615611b3457611b33611cc0565b5b828202905092915050565b6000611b4a82611be7565b9150611b5583611be7565b925082821015611b6857611b67611cc0565b5b828203905092915050565b6000611b7e82611bc7565b9050919050565b60008115159050919050565b6000819050919050565b60007fffffffff0000000000000000000000000000000000000000000000000000000082169050919050565b600073ffffffffffffffffffffffffffffffffffffffff82169050919050565b6000819050919050565b82818337600083830152505050565b60005b83811015611c1e578082015181840152602081019050611c03565b83811115611c2d576000848401525b50505050565b6000611c3e82611be7565b91506000821415611c5257611c51611cc0565b5b600182039050919050565b60006002820490506001821680611c7557607f821691505b60208210811415611c8957611c88611d1e565b5b50919050565b611c9882611dbf565b810181811067ffffffffffffffff82111715611cb757611cb6611d7c565b5b80604052505050565b7f4e487b7100000000000000000000000000000000000000000000000000000000600052601160045260246000fd5b7f4e487b7100000000000000000000000000000000000000000000000000000000600052601260045260246000fd5b7f4e487b7100000000000000000000000000000000000000000000000000000000600052602260045260246000fd5b7f4e487b7100000000000000000000000000000000000000000000000000000000600052603260045260246000fd5b7f4e487b7100000000000000000000000000000000000000000000000000000000600052604160045260246000fd5b600080fd5b600080fd5b600080fd5b600080fd5b6000601f19601f8301169050919050565b7f63616c6c6572206973206e6f7420656c696769626c6520666f72206e6578742060008201527f7769746864726177000000000000000000000000000000000000000000000000602082015250565b7f537472696e67733a20686578206c656e67746820696e73756666696369656e74600082015250565b7f63616c6c6572206973206e6f742061646d696e6973747261746f720000000000600082015250565b7f6e6f7420656e6f7567682066756e647320696e20636f6e747261637400000000600082015250565b7f6661696c65642072657061790000000000000000000000000000000000000000600082015250565b7f63616c6c6572206973206e6f7420656c696769626c6520666f7220776974686460008201527f72617720616d6f756e7400000000000000000000000000000000000000000000602082015250565b7f416363657373436f6e74726f6c3a206163636f756e7420000000000000000000600082015250565b7f7769746864726177206661696c65640000000000000000000000000000000000600082015250565b7f206973206d697373696e6720726f6c6520000000000000000000000000000000600082015250565b7f416363657373436f6e74726f6c3a2063616e206f6e6c792072656e6f756e636560008201527f20726f6c657320666f722073656c660000000000000000000000000000000000602082015250565b611fe581611b73565b8114611ff057600080fd5b50565b611ffc81611b85565b811461200757600080fd5b50565b61201381611b91565b811461201e57600080fd5b50565b61202a81611b9b565b811461203557600080fd5b50565b61204181611be7565b811461204c57600080fd5b5056fea26469706673582212200ea0da1635311291af39fe95059c9556913cacdf144a8fcac395f85da33e57ef64736f6c63430008070033",
					"opcodes": "PUSH1 0x80 PUSH1 0x40 MSTORE PUSH6 0x12309CE54000 PUSH1 0x2 SSTORE CALLVALUE DUP1 ISZERO PUSH3 0x1B JUMPI PUSH1 0x0 DUP1 REVERT JUMPDEST POP PUSH1 0x40 MLOAD PUSH3 0x2348 CODESIZE SUB DUP1 PUSH3 0x2348 DUP4 CODECOPY DUP2 DUP2 ADD PUSH1 0x40 MSTORE DUP2 ADD SWAP1 PUSH3 0x41 SWAP2 SWAP1 PUSH3 0x22E JUMP JUMPDEST DUP1 PUSH1 0x1 PUSH1 0x0 PUSH2 0x100 EXP DUP2 SLOAD DUP2 PUSH20 0xFFFFFFFFFFFFFFFFFFFFFFFFFFFFFFFFFFFFFFFF MUL NOT AND SWAP1 DUP4 PUSH20 0xFFFFFFFFFFFFFFFFFFFFFFFFFFFFFFFFFFFFFFFF AND MUL OR SWAP1 SSTORE POP PUSH3 0x97 PUSH1 0x0 DUP1 SHL CALLER PUSH3 0x9E PUSH1 0x20 SHL PUSH1 0x20 SHR JUMP JUMPDEST POP PUSH3 0x2B3 JUMP JUMPDEST PUSH3 0xB0 DUP3 DUP3 PUSH3 0xB4 PUSH1 0x20 SHL PUSH1 0x20 SHR JUMP JUMPDEST POP POP JUMP JUMPDEST PUSH3 0xC6 DUP3 DUP3 PUSH3 0x1A5 PUSH1 0x20 SHL PUSH1 0x20 SHR JUMP JUMPDEST PUSH3 0x1A1 JUMPI PUSH1 0x1 PUSH1 0x0 DUP1 DUP5 DUP2 MSTORE PUSH1 0x20 ADD SWAP1 DUP2 MSTORE PUSH1 0x20 ADD PUSH1 0x0 KECCAK256 PUSH1 0x0 ADD PUSH1 0x0 DUP4 PUSH20 0xFFFFFFFFFFFFFFFFFFFFFFFFFFFFFFFFFFFFFFFF AND PUSH20 0xFFFFFFFFFFFFFFFFFFFFFFFFFFFFFFFFFFFFFFFF AND DUP2 MSTORE PUSH1 0x20 ADD SWAP1 DUP2 MSTORE PUSH1 0x20 ADD PUSH1 0x0 KECCAK256 PUSH1 0x0 PUSH2 0x100 EXP DUP2 SLOAD DUP2 PUSH1 0xFF MUL NOT AND SWAP1 DUP4 ISZERO ISZERO MUL OR SWAP1 SSTORE POP PUSH3 0x146 PUSH3 0x20F PUSH1 0x20 SHL PUSH1 0x20 SHR JUMP JUMPDEST PUSH20 0xFFFFFFFFFFFFFFFFFFFFFFFFFFFFFFFFFFFFFFFF AND DUP2 PUSH20 0xFFFFFFFFFFFFFFFFFFFFFFFFFFFFFFFFFFFFFFFF AND DUP4 PUSH32 0x2F8788117E7EFF1D82E926EC794901D17C78024A50270940304540A733656F0D PUSH1 0x40 MLOAD PUSH1 0x40 MLOAD DUP1 SWAP2 SUB SWAP1 LOG4 JUMPDEST POP POP JUMP JUMPDEST PUSH1 0x0 DUP1 PUSH1 0x0 DUP5 DUP2 MSTORE PUSH1 0x20 ADD SWAP1 DUP2 MSTORE PUSH1 0x20 ADD PUSH1 0x0 KECCAK256 PUSH1 0x0 ADD PUSH1 0x0 DUP4 PUSH20 0xFFFFFFFFFFFFFFFFFFFFFFFFFFFFFFFFFFFFFFFF AND PUSH20 0xFFFFFFFFFFFFFFFFFFFFFFFFFFFFFFFFFFFFFFFF AND DUP2 MSTORE PUSH1 0x20 ADD SWAP1 DUP2 MSTORE PUSH1 0x20 ADD PUSH1 0x0 KECCAK256 PUSH1 0x0 SWAP1 SLOAD SWAP1 PUSH2 0x100 EXP SWAP1 DIV PUSH1 0xFF AND SWAP1 POP SWAP3 SWAP2 POP POP JUMP JUMPDEST PUSH1 0x0 CALLER SWAP1 POP SWAP1 JUMP JUMPDEST PUSH1 0x0 DUP2 MLOAD SWAP1 POP PUSH3 0x228 DUP2 PUSH3 0x299 JUMP JUMPDEST SWAP3 SWAP2 POP POP JUMP JUMPDEST PUSH1 0x0 PUSH1 0x20 DUP3 DUP5 SUB SLT ISZERO PUSH3 0x247 JUMPI PUSH3 0x246 PUSH3 0x294 JUMP JUMPDEST JUMPDEST PUSH1 0x0 PUSH3 0x257 DUP5 DUP3 DUP6 ADD PUSH3 0x217 JUMP JUMPDEST SWAP2 POP POP SWAP3 SWAP2 POP POP JUMP JUMPDEST PUSH1 0x0 PUSH3 0x26D DUP3 PUSH3 0x274 JUMP JUMPDEST SWAP1 POP SWAP2 SWAP1 POP JUMP JUMPDEST PUSH1 0x0 PUSH20 0xFFFFFFFFFFFFFFFFFFFFFFFFFFFFFFFFFFFFFFFF DUP3 AND SWAP1 POP SWAP2 SWAP1 POP JUMP JUMPDEST PUSH1 0x0 DUP1 REVERT JUMPDEST PUSH3 0x2A4 DUP2 PUSH3 0x260 JUMP JUMPDEST DUP2 EQ PUSH3 0x2B0 JUMPI PUSH1 0x0 DUP1 REVERT JUMPDEST POP JUMP JUMPDEST PUSH2 0x2085 DUP1 PUSH3 0x2C3 PUSH1 0x0 CODECOPY PUSH1 0x0 RETURN INVALID PUSH1 0x80 PUSH1 0x40 MSTORE CALLVALUE DUP1 ISZERO PUSH2 0x10 JUMPI PUSH1 0x0 DUP1 REVERT JUMPDEST POP PUSH1 0x4 CALLDATASIZE LT PUSH2 0xB4 JUMPI PUSH1 0x0 CALLDATALOAD PUSH1 0xE0 SHR DUP1 PUSH4 0x91D14854 GT PUSH2 0x71 JUMPI DUP1 PUSH4 0x91D14854 EQ PUSH2 0x1A1 JUMPI DUP1 PUSH4 0x9F7C73E9 EQ PUSH2 0x1D1 JUMPI DUP1 PUSH4 0xA217FDDF EQ PUSH2 0x1ED JUMPI DUP1 PUSH4 0xD547741F EQ PUSH2 0x20B JUMPI DUP1 PUSH4 0xF2DC12CE EQ PUSH2 0x227 JUMPI DUP1 PUSH4 0xFC0C546A EQ PUSH2 0x243 JUMPI PUSH2 0xB4 JUMP JUMPDEST DUP1 PUSH4 0x1FFC9A7 EQ PUSH2 0xB9 JUMPI DUP1 PUSH4 0x248A9CA3 EQ PUSH2 0xE9 JUMPI DUP1 PUSH4 0x2E1A7D4D EQ PUSH2 0x119 JUMPI DUP1 PUSH4 0x2F2FF15D EQ PUSH2 0x135 JUMPI DUP1 PUSH4 0x36568ABE EQ PUSH2 0x151 JUMPI DUP1 PUSH4 0x595AA13D EQ PUSH2 0x16D JUMPI JUMPDEST PUSH1 0x0 DUP1 REVERT JUMPDEST PUSH2 0xD3 PUSH1 0x4 DUP1 CALLDATASIZE SUB DUP2 ADD SWAP1 PUSH2 0xCE SWAP2 SWAP1 PUSH2 0x14EF JUMP JUMPDEST PUSH2 0x261 JUMP JUMPDEST PUSH1 0x40 MLOAD PUSH2 0xE0 SWAP2 SWAP1 PUSH2 0x1889 JUMP JUMPDEST PUSH1 0x40 MLOAD DUP1 SWAP2 SUB SWAP1 RETURN JUMPDEST PUSH2 0x103 PUSH1 0x4 DUP1 CALLDATASIZE SUB DUP2 ADD SWAP1 PUSH2 0xFE SWAP2 SWAP1 PUSH2 0x1482 JUMP JUMPDEST PUSH2 0x2DB JUMP JUMPDEST PUSH1 0x40 MLOAD PUSH2 0x110 SWAP2 SWAP1 PUSH2 0x18A4 JUMP JUMPDEST PUSH1 0x40 MLOAD DUP1 SWAP2 SUB SWAP1 RETURN JUMPDEST PUSH2 0x133 PUSH1 0x4 DUP1 CALLDATASIZE SUB DUP2 ADD SWAP1 PUSH2 0x12E SWAP2 SWAP1 PUSH2 0x151C JUMP JUMPDEST PUSH2 0x2FA JUMP JUMPDEST STOP JUMPDEST PUSH2 0x14F PUSH1 0x4 DUP1 CALLDATASIZE SUB DUP2 ADD SWAP1 PUSH2 0x14A SWAP2 SWAP1 PUSH2 0x14AF JUMP JUMPDEST PUSH2 0x753 JUMP JUMPDEST STOP JUMPDEST PUSH2 0x16B PUSH1 0x4 DUP1 CALLDATASIZE SUB DUP2 ADD SWAP1 PUSH2 0x166 SWAP2 SWAP1 PUSH2 0x14AF JUMP JUMPDEST PUSH2 0x774 JUMP JUMPDEST STOP JUMPDEST PUSH2 0x187 PUSH1 0x4 DUP1 CALLDATASIZE SUB DUP2 ADD SWAP1 PUSH2 0x182 SWAP2 SWAP1 PUSH2 0x13CC JUMP JUMPDEST PUSH2 0x7F7 JUMP JUMPDEST PUSH1 0x40 MLOAD PUSH2 0x198 SWAP6 SWAP5 SWAP4 SWAP3 SWAP2 SWAP1 PUSH2 0x1806 JUMP JUMPDEST PUSH1 0x40 MLOAD DUP1 SWAP2 SUB SWAP1 RETURN JUMPDEST PUSH2 0x1BB PUSH1 0x4 DUP1 CALLDATASIZE SUB DUP2 ADD SWAP1 PUSH2 0x1B6 SWAP2 SWAP1 PUSH2 0x14AF JUMP JUMPDEST PUSH2 0x8D5 JUMP JUMPDEST PUSH1 0x40 MLOAD PUSH2 0x1C8 SWAP2 SWAP1 PUSH2 0x1889 JUMP JUMPDEST PUSH1 0x40 MLOAD DUP1 SWAP2 SUB SWAP1 RETURN JUMPDEST PUSH2 0x1EB PUSH1 0x4 DUP1 CALLDATASIZE SUB DUP2 ADD SWAP1 PUSH2 0x1E6 SWAP2 SWAP1 PUSH2 0x13CC JUMP JUMPDEST PUSH2 0x93F JUMP JUMPDEST STOP JUMPDEST PUSH2 0x1F5 PUSH2 0xB79 JUMP JUMPDEST PUSH1 0x40 MLOAD PUSH2 0x202 SWAP2 SWAP1 PUSH2 0x18A4 JUMP JUMPDEST PUSH1 0x40 MLOAD DUP1 SWAP2 SUB SWAP1 RETURN JUMPDEST PUSH2 0x225 PUSH1 0x4 DUP1 CALLDATASIZE SUB DUP2 ADD SWAP1 PUSH2 0x220 SWAP2 SWAP1 PUSH2 0x14AF JUMP JUMPDEST PUSH2 0xB80 JUMP JUMPDEST STOP JUMPDEST PUSH2 0x241 PUSH1 0x4 DUP1 CALLDATASIZE SUB DUP2 ADD SWAP1 PUSH2 0x23C SWAP2 SWAP1 PUSH2 0x13F9 JUMP JUMPDEST PUSH2 0xBA1 JUMP JUMPDEST STOP JUMPDEST PUSH2 0x24B PUSH2 0xCF5 JUMP JUMPDEST PUSH1 0x40 MLOAD PUSH2 0x258 SWAP2 SWAP1 PUSH2 0x17B4 JUMP JUMPDEST PUSH1 0x40 MLOAD DUP1 SWAP2 SUB SWAP1 RETURN JUMPDEST PUSH1 0x0 PUSH32 0x7965DB0B00000000000000000000000000000000000000000000000000000000 PUSH28 0xFFFFFFFFFFFFFFFFFFFFFFFFFFFFFFFFFFFFFFFFFFFFFFFFFFFFFFFF NOT AND DUP3 PUSH28 0xFFFFFFFFFFFFFFFFFFFFFFFFFFFFFFFFFFFFFFFFFFFFFFFFFFFFFFFF NOT AND EQ DUP1 PUSH2 0x2D4 JUMPI POP PUSH2 0x2D3 DUP3 PUSH2 0xD1B JUMP JUMPDEST JUMPDEST SWAP1 POP SWAP2 SWAP1 POP JUMP JUMPDEST PUSH1 0x0 DUP1 PUSH1 0x0 DUP4 DUP2 MSTORE PUSH1 0x20 ADD SWAP1 DUP2 MSTORE PUSH1 0x20 ADD PUSH1 0x0 KECCAK256 PUSH1 0x1 ADD SLOAD SWAP1 POP SWAP2 SWAP1 POP JUMP JUMPDEST PUSH1 0x0 PUSH1 0x1 PUSH1 0x0 SWAP1 SLOAD SWAP1 PUSH2 0x100 EXP SWAP1 DIV PUSH20 0xFFFFFFFFFFFFFFFFFFFFFFFFFFFFFFFFFFFFFFFF AND PUSH20 0xFFFFFFFFFFFFFFFFFFFFFFFFFFFFFFFFFFFFFFFF AND PUSH4 0x70A08231 ADDRESS PUSH1 0x40 MLOAD DUP3 PUSH4 0xFFFFFFFF AND PUSH1 0xE0 SHL DUP2 MSTORE PUSH1 0x4 ADD PUSH2 0x357 SWAP2 SWAP1 PUSH2 0x17B4 JUMP JUMPDEST PUSH1 0x20 PUSH1 0x40 MLOAD DUP1 DUP4 SUB DUP2 DUP7 DUP1 EXTCODESIZE ISZERO DUP1 ISZERO PUSH2 0x36F JUMPI PUSH1 0x0 DUP1 REVERT JUMPDEST POP GAS STATICCALL ISZERO DUP1 ISZERO PUSH2 0x383 JUMPI RETURNDATASIZE PUSH1 0x0 DUP1 RETURNDATACOPY RETURNDATASIZE PUSH1 0x0 REVERT JUMPDEST POP POP POP POP PUSH1 0x40 MLOAD RETURNDATASIZE PUSH1 0x1F NOT PUSH1 0x1F DUP3 ADD AND DUP3 ADD DUP1 PUSH1 0x40 MSTORE POP DUP2 ADD SWAP1 PUSH2 0x3A7 SWAP2 SWAP1 PUSH2 0x1549 JUMP JUMPDEST SWAP1 POP DUP2 DUP2 GT PUSH2 0x3EB JUMPI PUSH1 0x40 MLOAD PUSH32 0x8C379A000000000000000000000000000000000000000000000000000000000 DUP2 MSTORE PUSH1 0x4 ADD PUSH2 0x3E2 SWAP1 PUSH2 0x1941 JUMP JUMPDEST PUSH1 0x40 MLOAD DUP1 SWAP2 SUB SWAP1 REVERT JUMPDEST PUSH1 0x0 PUSH1 0x3 PUSH1 0x0 CALLER PUSH20 0xFFFFFFFFFFFFFFFFFFFFFFFFFFFFFFFFFFFFFFFF AND PUSH20 0xFFFFFFFFFFFFFFFFFFFFFFFFFFFFFFFFFFFFFFFF AND DUP2 MSTORE PUSH1 0x20 ADD SWAP1 DUP2 MSTORE PUSH1 0x20 ADD PUSH1 0x0 KECCAK256 PUSH1 0x40 MLOAD DUP1 PUSH1 0xA0 ADD PUSH1 0x40 MSTORE SWAP1 DUP2 PUSH1 0x0 DUP3 ADD PUSH1 0x0 SWAP1 SLOAD SWAP1 PUSH2 0x100 EXP SWAP1 DIV PUSH20 0xFFFFFFFFFFFFFFFFFFFFFFFFFFFFFFFFFFFFFFFF AND PUSH20 0xFFFFFFFFFFFFFFFFFFFFFFFFFFFFFFFFFFFFFFFF AND PUSH20 0xFFFFFFFFFFFFFFFFFFFFFFFFFFFFFFFFFFFFFFFF AND DUP2 MSTORE PUSH1 0x20 ADD PUSH1 0x1 DUP3 ADD DUP1 SLOAD PUSH2 0x49D SWAP1 PUSH2 0x1C5D JUMP JUMPDEST DUP1 PUSH1 0x1F ADD PUSH1 0x20 DUP1 SWAP2 DIV MUL PUSH1 0x20 ADD PUSH1 0x40 MLOAD SWAP1 DUP2 ADD PUSH1 0x40 MSTORE DUP1 SWAP3 SWAP2 SWAP1 DUP2 DUP2 MSTORE PUSH1 0x20 ADD DUP3 DUP1 SLOAD PUSH2 0x4C9 SWAP1 PUSH2 0x1C5D JUMP JUMPDEST DUP1 ISZERO PUSH2 0x516 JUMPI DUP1 PUSH1 0x1F LT PUSH2 0x4EB JUMPI PUSH2 0x100 DUP1 DUP4 SLOAD DIV MUL DUP4 MSTORE SWAP2 PUSH1 0x20 ADD SWAP2 PUSH2 0x516 JUMP JUMPDEST DUP3 ADD SWAP2 SWAP1 PUSH1 0x0 MSTORE PUSH1 0x20 PUSH1 0x0 KECCAK256 SWAP1 JUMPDEST DUP2 SLOAD DUP2 MSTORE SWAP1 PUSH1 0x1 ADD SWAP1 PUSH1 0x20 ADD DUP1 DUP4 GT PUSH2 0x4F9 JUMPI DUP3 SWAP1 SUB PUSH1 0x1F AND DUP3 ADD SWAP2 JUMPDEST POP POP POP POP POP DUP2 MSTORE PUSH1 0x20 ADD PUSH1 0x2 DUP3 ADD SLOAD DUP2 MSTORE PUSH1 0x20 ADD PUSH1 0x3 DUP3 ADD SLOAD DUP2 MSTORE PUSH1 0x20 ADD PUSH1 0x4 DUP3 ADD SLOAD DUP2 MSTORE POP POP SWAP1 POP NUMBER DUP2 PUSH1 0x80 ADD MLOAD GT PUSH2 0x585 JUMPI PUSH1 0x40 MLOAD PUSH32 0x8C379A000000000000000000000000000000000000000000000000000000000 DUP2 MSTORE PUSH1 0x4 ADD PUSH2 0x57C SWAP1 PUSH2 0x18E1 JUMP JUMPDEST PUSH1 0x40 MLOAD DUP1 SWAP2 SUB SWAP1 REVERT JUMPDEST DUP3 DUP2 PUSH1 0x40 ADD MLOAD GT PUSH2 0x5CB JUMPI PUSH1 0x40 MLOAD PUSH32 0x8C379A000000000000000000000000000000000000000000000000000000000 DUP2 MSTORE PUSH1 0x4 ADD PUSH2 0x5C2 SWAP1 PUSH2 0x1981 JUMP JUMPDEST PUSH1 0x40 MLOAD DUP1 SWAP2 SUB SWAP1 REVERT JUMPDEST DUP3 DUP2 PUSH1 0x40 ADD MLOAD PUSH2 0x5DB SWAP2 SWAP1 PUSH2 0x1B3F JUMP JUMPDEST DUP2 PUSH1 0x60 ADD MLOAD LT PUSH2 0x620 JUMPI PUSH1 0x40 MLOAD PUSH32 0x8C379A000000000000000000000000000000000000000000000000000000000 DUP2 MSTORE PUSH1 0x4 ADD PUSH2 0x617 SWAP1 PUSH2 0x1981 JUMP JUMPDEST PUSH1 0x40 MLOAD DUP1 SWAP2 SUB SWAP1 REVERT JUMPDEST PUSH1 0x1 PUSH1 0x0 SWAP1 SLOAD SWAP1 PUSH2 0x100 EXP SWAP1 DIV PUSH20 0xFFFFFFFFFFFFFFFFFFFFFFFFFFFFFFFFFFFFFFFF AND PUSH20 0xFFFFFFFFFFFFFFFFFFFFFFFFFFFFFFFFFFFFFFFF AND PUSH4 0xA9059CBB CALLER DUP6 PUSH1 0x40 MLOAD DUP4 PUSH4 0xFFFFFFFF AND PUSH1 0xE0 SHL DUP2 MSTORE PUSH1 0x4 ADD PUSH2 0x67D SWAP3 SWAP2 SWAP1 PUSH2 0x1860 JUMP JUMPDEST PUSH1 0x20 PUSH1 0x40 MLOAD DUP1 DUP4 SUB DUP2 PUSH1 0x0 DUP8 DUP1 EXTCODESIZE ISZERO DUP1 ISZERO PUSH2 0x697 JUMPI PUSH1 0x0 DUP1 REVERT JUMPDEST POP GAS CALL ISZERO DUP1 ISZERO PUSH2 0x6AB JUMPI RETURNDATASIZE PUSH1 0x0 DUP1 RETURNDATACOPY RETURNDATASIZE PUSH1 0x0 REVERT JUMPDEST POP POP POP POP PUSH1 0x40 MLOAD RETURNDATASIZE PUSH1 0x1F NOT PUSH1 0x1F DUP3 ADD AND DUP3 ADD DUP1 PUSH1 0x40 MSTORE POP DUP2 ADD SWAP1 PUSH2 0x6CF SWAP2 SWAP1 PUSH2 0x1455 JUMP JUMPDEST PUSH2 0x70E JUMPI PUSH1 0x40 MLOAD PUSH32 0x8C379A000000000000000000000000000000000000000000000000000000000 DUP2 MSTORE PUSH1 0x4 ADD PUSH2 0x705 SWAP1 PUSH2 0x19A1 JUMP JUMPDEST PUSH1 0x40 MLOAD DUP1 SWAP2 SUB SWAP1 REVERT JUMPDEST DUP3 DUP2 PUSH1 0x60 ADD DUP2 DUP2 MLOAD PUSH2 0x720 SWAP2 SWAP1 PUSH2 0x1A5E JUMP JUMPDEST SWAP2 POP DUP2 DUP2 MSTORE POP POP PUSH3 0x106D0 NUMBER PUSH2 0x736 SWAP2 SWAP1 PUSH2 0x1A5E JUMP JUMPDEST DUP2 PUSH1 0x80 ADD DUP2 DUP2 MLOAD PUSH2 0x747 SWAP2 SWAP1 PUSH2 0x1A5E JUMP JUMPDEST SWAP2 POP DUP2 DUP2 MSTORE POP POP POP POP POP JUMP JUMPDEST PUSH2 0x75C DUP3 PUSH2 0x2DB JUMP JUMPDEST PUSH2 0x765 DUP2 PUSH2 0xD85 JUMP JUMPDEST PUSH2 0x76F DUP4 DUP4 PUSH2 0xD99 JUMP JUMPDEST POP POP POP JUMP JUMPDEST PUSH2 0x77C PUSH2 0xE79 JUMP JUMPDEST PUSH20 0xFFFFFFFFFFFFFFFFFFFFFFFFFFFFFFFFFFFFFFFF AND DUP2 PUSH20 0xFFFFFFFFFFFFFFFFFFFFFFFFFFFFFFFFFFFFFFFF AND EQ PUSH2 0x7E9 JUMPI PUSH1 0x40 MLOAD PUSH32 0x8C379A000000000000000000000000000000000000000000000000000000000 DUP2 MSTORE PUSH1 0x4 ADD PUSH2 0x7E0 SWAP1 PUSH2 0x19C1 JUMP JUMPDEST PUSH1 0x40 MLOAD DUP1 SWAP2 SUB SWAP1 REVERT JUMPDEST PUSH2 0x7F3 DUP3 DUP3 PUSH2 0xE81 JUMP JUMPDEST POP POP JUMP JUMPDEST PUSH1 0x3 PUSH1 0x20 MSTORE DUP1 PUSH1 0x0 MSTORE PUSH1 0x40 PUSH1 0x0 KECCAK256 PUSH1 0x0 SWAP2 POP SWAP1 POP DUP1 PUSH1 0x0 ADD PUSH1 0x0 SWAP1 SLOAD SWAP1 PUSH2 0x100 EXP SWAP1 DIV PUSH20 0xFFFFFFFFFFFFFFFFFFFFFFFFFFFFFFFFFFFFFFFF AND SWAP1 DUP1 PUSH1 0x1 ADD DUP1 SLOAD PUSH2 0x840 SWAP1 PUSH2 0x1C5D JUMP JUMPDEST DUP1 PUSH1 0x1F ADD PUSH1 0x20 DUP1 SWAP2 DIV MUL PUSH1 0x20 ADD PUSH1 0x40 MLOAD SWAP1 DUP2 ADD PUSH1 0x40 MSTORE DUP1 SWAP3 SWAP2 SWAP1 DUP2 DUP2 MSTORE PUSH1 0x20 ADD DUP3 DUP1 SLOAD PUSH2 0x86C SWAP1 PUSH2 0x1C5D JUMP JUMPDEST DUP1 ISZERO PUSH2 0x8B9 JUMPI DUP1 PUSH1 0x1F LT PUSH2 0x88E JUMPI PUSH2 0x100 DUP1 DUP4 SLOAD DIV MUL DUP4 MSTORE SWAP2 PUSH1 0x20 ADD SWAP2 PUSH2 0x8B9 JUMP JUMPDEST DUP3 ADD SWAP2 SWAP1 PUSH1 0x0 MSTORE PUSH1 0x20 PUSH1 0x0 KECCAK256 SWAP1 JUMPDEST DUP2 SLOAD DUP2 MSTORE SWAP1 PUSH1 0x1 ADD SWAP1 PUSH1 0x20 ADD DUP1 DUP4 GT PUSH2 0x89C JUMPI DUP3 SWAP1 SUB PUSH1 0x1F AND DUP3 ADD SWAP2 JUMPDEST POP POP POP POP POP SWAP1 DUP1 PUSH1 0x2 ADD SLOAD SWAP1 DUP1 PUSH1 0x3 ADD SLOAD SWAP1 DUP1 PUSH1 0x4 ADD SLOAD SWAP1 POP DUP6 JUMP JUMPDEST PUSH1 0x0 DUP1 PUSH1 0x0 DUP5 DUP2 MSTORE PUSH1 0x20 ADD SWAP1 DUP2 MSTORE PUSH1 0x20 ADD PUSH1 0x0 KECCAK256 PUSH1 0x0 ADD PUSH1 0x0 DUP4 PUSH20 0xFFFFFFFFFFFFFFFFFFFFFFFFFFFFFFFFFFFFFFFF AND PUSH20 0xFFFFFFFFFFFFFFFFFFFFFFFFFFFFFFFFFFFFFFFF AND DUP2 MSTORE PUSH1 0x20 ADD SWAP1 DUP2 MSTORE PUSH1 0x20 ADD PUSH1 0x0 KECCAK256 PUSH1 0x0 SWAP1 SLOAD SWAP1 PUSH2 0x100 EXP SWAP1 DIV PUSH1 0xFF AND SWAP1 POP SWAP3 SWAP2 POP POP JUMP JUMPDEST PUSH1 0x0 PUSH1 0x3 PUSH1 0x0 DUP4 PUSH20 0xFFFFFFFFFFFFFFFFFFFFFFFFFFFFFFFFFFFFFFFF AND PUSH20 0xFFFFFFFFFFFFFFFFFFFFFFFFFFFFFFFFFFFFFFFF AND DUP2 MSTORE PUSH1 0x20 ADD SWAP1 DUP2 MSTORE PUSH1 0x20 ADD PUSH1 0x0 KECCAK256 PUSH1 0x3 ADD SLOAD SWAP1 POP PUSH1 0x1 PUSH1 0x0 SWAP1 SLOAD SWAP1 PUSH2 0x100 EXP SWAP1 DIV PUSH20 0xFFFFFFFFFFFFFFFFFFFFFFFFFFFFFFFFFFFFFFFF AND PUSH20 0xFFFFFFFFFFFFFFFFFFFFFFFFFFFFFFFFFFFFFFFF AND PUSH4 0x23B872DD CALLER ADDRESS DUP5 PUSH1 0x40 MLOAD DUP5 PUSH4 0xFFFFFFFF AND PUSH1 0xE0 SHL DUP2 MSTORE PUSH1 0x4 ADD PUSH2 0x9E5 SWAP4 SWAP3 SWAP2 SWAP1 PUSH2 0x17CF JUMP JUMPDEST PUSH1 0x20 PUSH1 0x40 MLOAD DUP1 DUP4 SUB DUP2 PUSH1 0x0 DUP8 DUP1 EXTCODESIZE ISZERO DUP1 ISZERO PUSH2 0x9FF JUMPI PUSH1 0x0 DUP1 REVERT JUMPDEST POP GAS CALL ISZERO DUP1 ISZERO PUSH2 0xA13 JUMPI RETURNDATASIZE PUSH1 0x0 DUP1 RETURNDATACOPY RETURNDATASIZE PUSH1 0x0 REVERT JUMPDEST POP POP POP POP PUSH1 0x40 MLOAD RETURNDATASIZE PUSH1 0x1F NOT PUSH1 0x1F DUP3 ADD AND DUP3 ADD DUP1 PUSH1 0x40 MSTORE POP DUP2 ADD SWAP1 PUSH2 0xA37 SWAP2 SWAP1 PUSH2 0x1455 JUMP JUMPDEST PUSH2 0xA76 JUMPI PUSH1 0x40 MLOAD PUSH32 0x8C379A000000000000000000000000000000000000000000000000000000000 DUP2 MSTORE PUSH1 0x4 ADD PUSH2 0xA6D SWAP1 PUSH2 0x1961 JUMP JUMPDEST PUSH1 0x40 MLOAD DUP1 SWAP2 SUB SWAP1 REVERT JUMPDEST PUSH1 0x0 PUSH1 0x64 PUSH1 0x69 PUSH1 0x3 PUSH1 0x0 DUP7 PUSH20 0xFFFFFFFFFFFFFFFFFFFFFFFFFFFFFFFFFFFFFFFF AND PUSH20 0xFFFFFFFFFFFFFFFFFFFFFFFFFFFFFFFFFFFFFFFF AND DUP2 MSTORE PUSH1 0x20 ADD SWAP1 DUP2 MSTORE PUSH1 0x20 ADD PUSH1 0x0 KECCAK256 PUSH1 0x2 ADD SLOAD PUSH2 0xAC9 SWAP2 SWAP1 PUSH2 0x1AE5 JUMP JUMPDEST PUSH2 0xAD3 SWAP2 SWAP1 PUSH2 0x1AB4 JUMP JUMPDEST SWAP1 POP PUSH1 0x2 SLOAD DUP2 GT ISZERO PUSH2 0xAE5 JUMPI PUSH1 0x2 SLOAD SWAP1 POP JUMPDEST DUP1 PUSH1 0x3 PUSH1 0x0 DUP6 PUSH20 0xFFFFFFFFFFFFFFFFFFFFFFFFFFFFFFFFFFFFFFFF AND PUSH20 0xFFFFFFFFFFFFFFFFFFFFFFFFFFFFFFFFFFFFFFFF AND DUP2 MSTORE PUSH1 0x20 ADD SWAP1 DUP2 MSTORE PUSH1 0x20 ADD PUSH1 0x0 KECCAK256 PUSH1 0x2 ADD DUP2 SWAP1 SSTORE POP PUSH1 0x0 PUSH1 0x3 PUSH1 0x0 DUP6 PUSH20 0xFFFFFFFFFFFFFFFFFFFFFFFFFFFFFFFFFFFFFFFF AND PUSH20 0xFFFFFFFFFFFFFFFFFFFFFFFFFFFFFFFFFFFFFFFF AND DUP2 MSTORE PUSH1 0x20 ADD SWAP1 DUP2 MSTORE PUSH1 0x20 ADD PUSH1 0x0 KECCAK256 PUSH1 0x3 ADD DUP2 SWAP1 SSTORE POP POP POP POP JUMP JUMPDEST PUSH1 0x0 DUP1 SHL DUP2 JUMP JUMPDEST PUSH2 0xB89 DUP3 PUSH2 0x2DB JUMP JUMPDEST PUSH2 0xB92 DUP2 PUSH2 0xD85 JUMP JUMPDEST PUSH2 0xB9C DUP4 DUP4 PUSH2 0xE81 JUMP JUMPDEST POP POP POP JUMP JUMPDEST PUSH2 0xBAE PUSH1 0x0 DUP1 SHL CALLER PUSH2 0x8D5 JUMP JUMPDEST PUSH2 0xBED JUMPI PUSH1 0x40 MLOAD PUSH32 0x8C379A000000000000000000000000000000000000000000000000000000000 DUP2 MSTORE PUSH1 0x4 ADD PUSH2 0xBE4 SWAP1 PUSH2 0x1921 JUMP JUMPDEST PUSH1 0x40 MLOAD DUP1 SWAP2 SUB SWAP1 REVERT JUMPDEST PUSH1 0x40 MLOAD DUP1 PUSH1 0xA0 ADD PUSH1 0x40 MSTORE DUP1 DUP4 PUSH20 0xFFFFFFFFFFFFFFFFFFFFFFFFFFFFFFFFFFFFFFFF AND DUP2 MSTORE PUSH1 0x20 ADD DUP3 DUP2 MSTORE PUSH1 0x20 ADD PUSH1 0x2 SLOAD DUP2 MSTORE PUSH1 0x20 ADD PUSH1 0x0 DUP2 MSTORE PUSH1 0x20 ADD NUMBER DUP2 MSTORE POP PUSH1 0x3 PUSH1 0x0 DUP5 PUSH20 0xFFFFFFFFFFFFFFFFFFFFFFFFFFFFFFFFFFFFFFFF AND PUSH20 0xFFFFFFFFFFFFFFFFFFFFFFFFFFFFFFFFFFFFFFFF AND DUP2 MSTORE PUSH1 0x20 ADD SWAP1 DUP2 MSTORE PUSH1 0x20 ADD PUSH1 0x0 KECCAK256 PUSH1 0x0 DUP3 ADD MLOAD DUP2 PUSH1 0x0 ADD PUSH1 0x0 PUSH2 0x100 EXP DUP2 SLOAD DUP2 PUSH20 0xFFFFFFFFFFFFFFFFFFFFFFFFFFFFFFFFFFFFFFFF MUL NOT AND SWAP1 DUP4 PUSH20 0xFFFFFFFFFFFFFFFFFFFFFFFFFFFFFFFFFFFFFFFF AND MUL OR SWAP1 SSTORE POP PUSH1 0x20 DUP3 ADD MLOAD DUP2 PUSH1 0x1 ADD SWAP1 DUP1 MLOAD SWAP1 PUSH1 0x20 ADD SWAP1 PUSH2 0xCCF SWAP3 SWAP2 SWAP1 PUSH2 0x123B JUMP JUMPDEST POP PUSH1 0x40 DUP3 ADD MLOAD DUP2 PUSH1 0x2 ADD SSTORE PUSH1 0x60 DUP3 ADD MLOAD DUP2 PUSH1 0x3 ADD SSTORE PUSH1 0x80 DUP3 ADD MLOAD DUP2 PUSH1 0x4 ADD SSTORE SWAP1 POP POP POP POP JUMP JUMPDEST PUSH1 0x1 PUSH1 0x0 SWAP1 SLOAD SWAP1 PUSH2 0x100 EXP SWAP1 DIV PUSH20 0xFFFFFFFFFFFFFFFFFFFFFFFFFFFFFFFFFFFFFFFF AND DUP2 JUMP JUMPDEST PUSH1 0x0 PUSH32 0x1FFC9A700000000000000000000000000000000000000000000000000000000 PUSH28 0xFFFFFFFFFFFFFFFFFFFFFFFFFFFFFFFFFFFFFFFFFFFFFFFFFFFFFFFF NOT AND DUP3 PUSH28 0xFFFFFFFFFFFFFFFFFFFFFFFFFFFFFFFFFFFFFFFFFFFFFFFFFFFFFFFF NOT AND EQ SWAP1 POP SWAP2 SWAP1 POP JUMP JUMPDEST PUSH2 0xD96 DUP2 PUSH2 0xD91 PUSH2 0xE79 JUMP JUMPDEST PUSH2 0xF62 JUMP JUMPDEST POP JUMP JUMPDEST PUSH2 0xDA3 DUP3 DUP3 PUSH2 0x8D5 JUMP JUMPDEST PUSH2 0xE75 JUMPI PUSH1 0x1 PUSH1 0x0 DUP1 DUP5 DUP2 MSTORE PUSH1 0x20 ADD SWAP1 DUP2 MSTORE PUSH1 0x20 ADD PUSH1 0x0 KECCAK256 PUSH1 0x0 ADD PUSH1 0x0 DUP4 PUSH20 0xFFFFFFFFFFFFFFFFFFFFFFFFFFFFFFFFFFFFFFFF AND PUSH20 0xFFFFFFFFFFFFFFFFFFFFFFFFFFFFFFFFFFFFFFFF AND DUP2 MSTORE PUSH1 0x20 ADD SWAP1 DUP2 MSTORE PUSH1 0x20 ADD PUSH1 0x0 KECCAK256 PUSH1 0x0 PUSH2 0x100 EXP DUP2 SLOAD DUP2 PUSH1 0xFF MUL NOT AND SWAP1 DUP4 ISZERO ISZERO MUL OR SWAP1 SSTORE POP PUSH2 0xE1A PUSH2 0xE79 JUMP JUMPDEST PUSH20 0xFFFFFFFFFFFFFFFFFFFFFFFFFFFFFFFFFFFFFFFF AND DUP2 PUSH20 0xFFFFFFFFFFFFFFFFFFFFFFFFFFFFFFFFFFFFFFFF AND DUP4 PUSH32 0x2F8788117E7EFF1D82E926EC794901D17C78024A50270940304540A733656F0D PUSH1 0x40 MLOAD PUSH1 0x40 MLOAD DUP1 SWAP2 SUB SWAP1 LOG4 JUMPDEST POP POP JUMP JUMPDEST PUSH1 0x0 CALLER SWAP1 POP SWAP1 JUMP JUMPDEST PUSH2 0xE8B DUP3 DUP3 PUSH2 0x8D5 JUMP JUMPDEST ISZERO PUSH2 0xF5E JUMPI PUSH1 0x0 DUP1 PUSH1 0x0 DUP5 DUP2 MSTORE PUSH1 0x20 ADD SWAP1 DUP2 MSTORE PUSH1 0x20 ADD PUSH1 0x0 KECCAK256 PUSH1 0x0 ADD PUSH1 0x0 DUP4 PUSH20 0xFFFFFFFFFFFFFFFFFFFFFFFFFFFFFFFFFFFFFFFF AND PUSH20 0xFFFFFFFFFFFFFFFFFFFFFFFFFFFFFFFFFFFFFFFF AND DUP2 MSTORE PUSH1 0x20 ADD SWAP1 DUP2 MSTORE PUSH1 0x20 ADD PUSH1 0x0 KECCAK256 PUSH1 0x0 PUSH2 0x100 EXP DUP2 SLOAD DUP2 PUSH1 0xFF MUL NOT AND SWAP1 DUP4 ISZERO ISZERO MUL OR SWAP1 SSTORE POP PUSH2 0xF03 PUSH2 0xE79 JUMP JUMPDEST PUSH20 0xFFFFFFFFFFFFFFFFFFFFFFFFFFFFFFFFFFFFFFFF AND DUP2 PUSH20 0xFFFFFFFFFFFFFFFFFFFFFFFFFFFFFFFFFFFFFFFF AND DUP4 PUSH32 0xF6391F5C32D9C69D2A47EA670B442974B53935D1EDC7FD64EB21E047A839171B PUSH1 0x40 MLOAD PUSH1 0x40 MLOAD DUP1 SWAP2 SUB SWAP1 LOG4 JUMPDEST POP POP JUMP JUMPDEST PUSH2 0xF6C DUP3 DUP3 PUSH2 0x8D5 JUMP JUMPDEST PUSH2 0xFFB JUMPI PUSH2 0xF91 DUP2 PUSH20 0xFFFFFFFFFFFFFFFFFFFFFFFFFFFFFFFFFFFFFFFF AND PUSH1 0x14 PUSH2 0xFFF JUMP JUMPDEST PUSH2 0xF9F DUP4 PUSH1 0x0 SHR PUSH1 0x20 PUSH2 0xFFF JUMP JUMPDEST PUSH1 0x40 MLOAD PUSH1 0x20 ADD PUSH2 0xFB0 SWAP3 SWAP2 SWAP1 PUSH2 0x177A JUMP JUMPDEST PUSH1 0x40 MLOAD PUSH1 0x20 DUP2 DUP4 SUB SUB DUP2 MSTORE SWAP1 PUSH1 0x40 MSTORE PUSH1 0x40 MLOAD PUSH32 0x8C379A000000000000000000000000000000000000000000000000000000000 DUP2 MSTORE PUSH1 0x4 ADD PUSH2 0xFF2 SWAP2 SWAP1 PUSH2 0x18BF JUMP JUMPDEST PUSH1 0x40 MLOAD DUP1 SWAP2 SUB SWAP1 REVERT JUMPDEST POP POP JUMP JUMPDEST PUSH1 0x60 PUSH1 0x0 PUSH1 0x2 DUP4 PUSH1 0x2 PUSH2 0x1012 SWAP2 SWAP1 PUSH2 0x1AE5 JUMP JUMPDEST PUSH2 0x101C SWAP2 SWAP1 PUSH2 0x1A5E JUMP JUMPDEST PUSH8 0xFFFFFFFFFFFFFFFF DUP2 GT ISZERO PUSH2 0x1035 JUMPI PUSH2 0x1034 PUSH2 0x1D7C JUMP JUMPDEST JUMPDEST PUSH1 0x40 MLOAD SWAP1 DUP1 DUP3 MSTORE DUP1 PUSH1 0x1F ADD PUSH1 0x1F NOT AND PUSH1 0x20 ADD DUP3 ADD PUSH1 0x40 MSTORE DUP1 ISZERO PUSH2 0x1067 JUMPI DUP2 PUSH1 0x20 ADD PUSH1 0x1 DUP3 MUL DUP1 CALLDATASIZE DUP4 CALLDATACOPY DUP1 DUP3 ADD SWAP2 POP POP SWAP1 POP JUMPDEST POP SWAP1 POP PUSH32 0x3000000000000000000000000000000000000000000000000000000000000000 DUP2 PUSH1 0x0 DUP2 MLOAD DUP2 LT PUSH2 0x109F JUMPI PUSH2 0x109E PUSH2 0x1D4D JUMP JUMPDEST JUMPDEST PUSH1 0x20 ADD ADD SWAP1 PUSH31 0xFFFFFFFFFFFFFFFFFFFFFFFFFFFFFFFFFFFFFFFFFFFFFFFFFFFFFFFFFFFFFF NOT AND SWAP1 DUP2 PUSH1 0x0 BYTE SWAP1 MSTORE8 POP PUSH32 0x7800000000000000000000000000000000000000000000000000000000000000 DUP2 PUSH1 0x1 DUP2 MLOAD DUP2 LT PUSH2 0x1103 JUMPI PUSH2 0x1102 PUSH2 0x1D4D JUMP JUMPDEST JUMPDEST PUSH1 0x20 ADD ADD SWAP1 PUSH31 0xFFFFFFFFFFFFFFFFFFFFFFFFFFFFFFFFFFFFFFFFFFFFFFFFFFFFFFFFFFFFFF NOT AND SWAP1 DUP2 PUSH1 0x0 BYTE SWAP1 MSTORE8 POP PUSH1 0x0 PUSH1 0x1 DUP5 PUSH1 0x2 PUSH2 0x1143 SWAP2 SWAP1 PUSH2 0x1AE5 JUMP JUMPDEST PUSH2 0x114D SWAP2 SWAP1 PUSH2 0x1A5E JUMP JUMPDEST SWAP1 POP JUMPDEST PUSH1 0x1 DUP2 GT ISZERO PUSH2 0x11ED JUMPI PUSH32 0x3031323334353637383961626364656600000000000000000000000000000000 PUSH1 0xF DUP7 AND PUSH1 0x10 DUP2 LT PUSH2 0x118F JUMPI PUSH2 0x118E PUSH2 0x1D4D JUMP JUMPDEST JUMPDEST BYTE PUSH1 0xF8 SHL DUP3 DUP3 DUP2 MLOAD DUP2 LT PUSH2 0x11A6 JUMPI PUSH2 0x11A5 PUSH2 0x1D4D JUMP JUMPDEST JUMPDEST PUSH1 0x20 ADD ADD SWAP1 PUSH31 0xFFFFFFFFFFFFFFFFFFFFFFFFFFFFFFFFFFFFFFFFFFFFFFFFFFFFFFFFFFFFFF NOT AND SWAP1 DUP2 PUSH1 0x0 BYTE SWAP1 MSTORE8 POP PUSH1 0x4 DUP6 SWAP1 SHR SWAP5 POP DUP1 PUSH2 0x11E6 SWAP1 PUSH2 0x1C33 JUMP JUMPDEST SWAP1 POP PUSH2 0x1150 JUMP JUMPDEST POP PUSH1 0x0 DUP5 EQ PUSH2 0x1231 JUMPI PUSH1 0x40 MLOAD PUSH32 0x8C379A000000000000000000000000000000000000000000000000000000000 DUP2 MSTORE PUSH1 0x4 ADD PUSH2 0x1228 SWAP1 PUSH2 0x1901 JUMP JUMPDEST PUSH1 0x40 MLOAD DUP1 SWAP2 SUB SWAP1 REVERT JUMPDEST DUP1 SWAP2 POP POP SWAP3 SWAP2 POP POP JUMP JUMPDEST DUP3 DUP1 SLOAD PUSH2 0x1247 SWAP1 PUSH2 0x1C5D JUMP JUMPDEST SWAP1 PUSH1 0x0 MSTORE PUSH1 0x20 PUSH1 0x0 KECCAK256 SWAP1 PUSH1 0x1F ADD PUSH1 0x20 SWAP1 DIV DUP2 ADD SWAP3 DUP3 PUSH2 0x1269 JUMPI PUSH1 0x0 DUP6 SSTORE PUSH2 0x12B0 JUMP JUMPDEST DUP3 PUSH1 0x1F LT PUSH2 0x1282 JUMPI DUP1 MLOAD PUSH1 0xFF NOT AND DUP4 DUP1 ADD OR DUP6 SSTORE PUSH2 0x12B0 JUMP JUMPDEST DUP3 DUP1 ADD PUSH1 0x1 ADD DUP6 SSTORE DUP3 ISZERO PUSH2 0x12B0 JUMPI SWAP2 DUP3 ADD JUMPDEST DUP3 DUP2 GT ISZERO PUSH2 0x12AF JUMPI DUP3 MLOAD DUP3 SSTORE SWAP2 PUSH1 0x20 ADD SWAP2 SWAP1 PUSH1 0x1 ADD SWAP1 PUSH2 0x1294 JUMP JUMPDEST JUMPDEST POP SWAP1 POP PUSH2 0x12BD SWAP2 SWAP1 PUSH2 0x12C1 JUMP JUMPDEST POP SWAP1 JUMP JUMPDEST JUMPDEST DUP1 DUP3 GT ISZERO PUSH2 0x12DA JUMPI PUSH1 0x0 DUP2 PUSH1 0x0 SWAP1 SSTORE POP PUSH1 0x1 ADD PUSH2 0x12C2 JUMP JUMPDEST POP SWAP1 JUMP JUMPDEST PUSH1 0x0 PUSH2 0x12F1 PUSH2 0x12EC DUP5 PUSH2 0x1A06 JUMP JUMPDEST PUSH2 0x19E1 JUMP JUMPDEST SWAP1 POP DUP3 DUP2 MSTORE PUSH1 0x20 DUP2 ADD DUP5 DUP5 DUP5 ADD GT ISZERO PUSH2 0x130D JUMPI PUSH2 0x130C PUSH2 0x1DB0 JUMP JUMPDEST JUMPDEST PUSH2 0x1318 DUP5 DUP3 DUP6 PUSH2 0x1BF1 JUMP JUMPDEST POP SWAP4 SWAP3 POP POP POP JUMP JUMPDEST PUSH1 0x0 DUP2 CALLDATALOAD SWAP1 POP PUSH2 0x132F DUP2 PUSH2 0x1FDC JUMP JUMPDEST SWAP3 SWAP2 POP POP JUMP JUMPDEST PUSH1 0x0 DUP2 MLOAD SWAP1 POP PUSH2 0x1344 DUP2 PUSH2 0x1FF3 JUMP JUMPDEST SWAP3 SWAP2 POP POP JUMP JUMPDEST PUSH1 0x0 DUP2 CALLDATALOAD SWAP1 POP PUSH2 0x1359 DUP2 PUSH2 0x200A JUMP JUMPDEST SWAP3 SWAP2 POP POP JUMP JUMPDEST PUSH1 0x0 DUP2 CALLDATALOAD SWAP1 POP PUSH2 0x136E DUP2 PUSH2 0x2021 JUMP JUMPDEST SWAP3 SWAP2 POP POP JUMP JUMPDEST PUSH1 0x0 DUP3 PUSH1 0x1F DUP4 ADD SLT PUSH2 0x1389 JUMPI PUSH2 0x1388 PUSH2 0x1DAB JUMP JUMPDEST JUMPDEST DUP2 CALLDATALOAD PUSH2 0x1399 DUP5 DUP3 PUSH1 0x20 DUP7 ADD PUSH2 0x12DE JUMP JUMPDEST SWAP2 POP POP SWAP3 SWAP2 POP POP JUMP JUMPDEST PUSH1 0x0 DUP2 CALLDATALOAD SWAP1 POP PUSH2 0x13B1 DUP2 PUSH2 0x2038 JUMP JUMPDEST SWAP3 SWAP2 POP POP JUMP JUMPDEST PUSH1 0x0 DUP2 MLOAD SWAP1 POP PUSH2 0x13C6 DUP2 PUSH2 0x2038 JUMP JUMPDEST SWAP3 SWAP2 POP POP JUMP JUMPDEST PUSH1 0x0 PUSH1 0x20 DUP3 DUP5 SUB SLT ISZERO PUSH2 0x13E2 JUMPI PUSH2 0x13E1 PUSH2 0x1DBA JUMP JUMPDEST JUMPDEST PUSH1 0x0 PUSH2 0x13F0 DUP5 DUP3 DUP6 ADD PUSH2 0x1320 JUMP JUMPDEST SWAP2 POP POP SWAP3 SWAP2 POP POP JUMP JUMPDEST PUSH1 0x0 DUP1 PUSH1 0x40 DUP4 DUP6 SUB SLT ISZERO PUSH2 0x1410 JUMPI PUSH2 0x140F PUSH2 0x1DBA JUMP JUMPDEST JUMPDEST PUSH1 0x0 PUSH2 0x141E DUP6 DUP3 DUP7 ADD PUSH2 0x1320 JUMP JUMPDEST SWAP3 POP POP PUSH1 0x20 DUP4 ADD CALLDATALOAD PUSH8 0xFFFFFFFFFFFFFFFF DUP2 GT ISZERO PUSH2 0x143F JUMPI PUSH2 0x143E PUSH2 0x1DB5 JUMP JUMPDEST JUMPDEST PUSH2 0x144B DUP6 DUP3 DUP7 ADD PUSH2 0x1374 JUMP JUMPDEST SWAP2 POP POP SWAP3 POP SWAP3 SWAP1 POP JUMP JUMPDEST PUSH1 0x0 PUSH1 0x20 DUP3 DUP5 SUB SLT ISZERO PUSH2 0x146B JUMPI PUSH2 0x146A PUSH2 0x1DBA JUMP JUMPDEST JUMPDEST PUSH1 0x0 PUSH2 0x1479 DUP5 DUP3 DUP6 ADD PUSH2 0x1335 JUMP JUMPDEST SWAP2 POP POP SWAP3 SWAP2 POP POP JUMP JUMPDEST PUSH1 0x0 PUSH1 0x20 DUP3 DUP5 SUB SLT ISZERO PUSH2 0x1498 JUMPI PUSH2 0x1497 PUSH2 0x1DBA JUMP JUMPDEST JUMPDEST PUSH1 0x0 PUSH2 0x14A6 DUP5 DUP3 DUP6 ADD PUSH2 0x134A JUMP JUMPDEST SWAP2 POP POP SWAP3 SWAP2 POP POP JUMP JUMPDEST PUSH1 0x0 DUP1 PUSH1 0x40 DUP4 DUP6 SUB SLT ISZERO PUSH2 0x14C6 JUMPI PUSH2 0x14C5 PUSH2 0x1DBA JUMP JUMPDEST JUMPDEST PUSH1 0x0 PUSH2 0x14D4 DUP6 DUP3 DUP7 ADD PUSH2 0x134A JUMP JUMPDEST SWAP3 POP POP PUSH1 0x20 PUSH2 0x14E5 DUP6 DUP3 DUP7 ADD PUSH2 0x1320 JUMP JUMPDEST SWAP2 POP POP SWAP3 POP SWAP3 SWAP1 POP JUMP JUMPDEST PUSH1 0x0 PUSH1 0x20 DUP3 DUP5 SUB SLT ISZERO PUSH2 0x1505 JUMPI PUSH2 0x1504 PUSH2 0x1DBA JUMP JUMPDEST JUMPDEST PUSH1 0x0 PUSH2 0x1513 DUP5 DUP3 DUP6 ADD PUSH2 0x135F JUMP JUMPDEST SWAP2 POP POP SWAP3 SWAP2 POP POP JUMP JUMPDEST PUSH1 0x0 PUSH1 0x20 DUP3 DUP5 SUB SLT ISZERO PUSH2 0x1532 JUMPI PUSH2 0x1531 PUSH2 0x1DBA JUMP JUMPDEST JUMPDEST PUSH1 0x0 PUSH2 0x1540 DUP5 DUP3 DUP6 ADD PUSH2 0x13A2 JUMP JUMPDEST SWAP2 POP POP SWAP3 SWAP2 POP POP JUMP JUMPDEST PUSH1 0x0 PUSH1 0x20 DUP3 DUP5 SUB SLT ISZERO PUSH2 0x155F JUMPI PUSH2 0x155E PUSH2 0x1DBA JUMP JUMPDEST JUMPDEST PUSH1 0x0 PUSH2 0x156D DUP5 DUP3 DUP6 ADD PUSH2 0x13B7 JUMP JUMPDEST SWAP2 POP POP SWAP3 SWAP2 POP POP JUMP JUMPDEST PUSH2 0x157F DUP2 PUSH2 0x1B73 JUMP JUMPDEST DUP3 MSTORE POP POP JUMP JUMPDEST PUSH2 0x158E DUP2 PUSH2 0x1B85 JUMP JUMPDEST DUP3 MSTORE POP POP JUMP JUMPDEST PUSH2 0x159D DUP2 PUSH2 0x1B91 JUMP JUMPDEST DUP3 MSTORE POP POP JUMP JUMPDEST PUSH1 0x0 PUSH2 0x15AE DUP3 PUSH2 0x1A37 JUMP JUMPDEST PUSH2 0x15B8 DUP2 DUP6 PUSH2 0x1A42 JUMP JUMPDEST SWAP4 POP PUSH2 0x15C8 DUP2 DUP6 PUSH1 0x20 DUP7 ADD PUSH2 0x1C00 JUMP JUMPDEST PUSH2 0x15D1 DUP2 PUSH2 0x1DBF JUMP JUMPDEST DUP5 ADD SWAP2 POP POP SWAP3 SWAP2 POP POP JUMP JUMPDEST PUSH1 0x0 PUSH2 0x15E7 DUP3 PUSH2 0x1A37 JUMP JUMPDEST PUSH2 0x15F1 DUP2 DUP6 PUSH2 0x1A53 JUMP JUMPDEST SWAP4 POP PUSH2 0x1601 DUP2 DUP6 PUSH1 0x20 DUP7 ADD PUSH2 0x1C00 JUMP JUMPDEST DUP1 DUP5 ADD SWAP2 POP POP SWAP3 SWAP2 POP POP JUMP JUMPDEST PUSH1 0x0 PUSH2 0x161A PUSH1 0x28 DUP4 PUSH2 0x1A42 JUMP JUMPDEST SWAP2 POP PUSH2 0x1625 DUP3 PUSH2 0x1DD0 JUMP JUMPDEST PUSH1 0x40 DUP3 ADD SWAP1 POP SWAP2 SWAP1 POP JUMP JUMPDEST PUSH1 0x0 PUSH2 0x163D PUSH1 0x20 DUP4 PUSH2 0x1A42 JUMP JUMPDEST SWAP2 POP PUSH2 0x1648 DUP3 PUSH2 0x1E1F JUMP JUMPDEST PUSH1 0x20 DUP3 ADD SWAP1 POP SWAP2 SWAP1 POP JUMP JUMPDEST PUSH1 0x0 PUSH2 0x1660 PUSH1 0x1B DUP4 PUSH2 0x1A42 JUMP JUMPDEST SWAP2 POP PUSH2 0x166B DUP3 PUSH2 0x1E48 JUMP JUMPDEST PUSH1 0x20 DUP3 ADD SWAP1 POP SWAP2 SWAP1 POP JUMP JUMPDEST PUSH1 0x0 PUSH2 0x1683 PUSH1 0x1C DUP4 PUSH2 0x1A42 JUMP JUMPDEST SWAP2 POP PUSH2 0x168E DUP3 PUSH2 0x1E71 JUMP JUMPDEST PUSH1 0x20 DUP3 ADD SWAP1 POP SWAP2 SWAP1 POP JUMP JUMPDEST PUSH1 0x0 PUSH2 0x16A6 PUSH1 0xC DUP4 PUSH2 0x1A42 JUMP JUMPDEST SWAP2 POP PUSH2 0x16B1 DUP3 PUSH2 0x1E9A JUMP JUMPDEST PUSH1 0x20 DUP3 ADD SWAP1 POP SWAP2 SWAP1 POP JUMP JUMPDEST PUSH1 0x0 PUSH2 0x16C9 PUSH1 0x2A DUP4 PUSH2 0x1A42 JUMP JUMPDEST SWAP2 POP PUSH2 0x16D4 DUP3 PUSH2 0x1EC3 JUMP JUMPDEST PUSH1 0x40 DUP3 ADD SWAP1 POP SWAP2 SWAP1 POP JUMP JUMPDEST PUSH1 0x0 PUSH2 0x16EC PUSH1 0x17 DUP4 PUSH2 0x1A53 JUMP JUMPDEST SWAP2 POP PUSH2 0x16F7 DUP3 PUSH2 0x1F12 JUMP JUMPDEST PUSH1 0x17 DUP3 ADD SWAP1 POP SWAP2 SWAP1 POP JUMP JUMPDEST PUSH1 0x0 PUSH2 0x170F PUSH1 0xF DUP4 PUSH2 0x1A42 JUMP JUMPDEST SWAP2 POP PUSH2 0x171A DUP3 PUSH2 0x1F3B JUMP JUMPDEST PUSH1 0x20 DUP3 ADD SWAP1 POP SWAP2 SWAP1 POP JUMP JUMPDEST PUSH1 0x0 PUSH2 0x1732 PUSH1 0x11 DUP4 PUSH2 0x1A53 JUMP JUMPDEST SWAP2 POP PUSH2 0x173D DUP3 PUSH2 0x1F64 JUMP JUMPDEST PUSH1 0x11 DUP3 ADD SWAP1 POP SWAP2 SWAP1 POP JUMP JUMPDEST PUSH1 0x0 PUSH2 0x1755 PUSH1 0x2F DUP4 PUSH2 0x1A42 JUMP JUMPDEST SWAP2 POP PUSH2 0x1760 DUP3 PUSH2 0x1F8D JUMP JUMPDEST PUSH1 0x40 DUP3 ADD SWAP1 POP SWAP2 SWAP1 POP JUMP JUMPDEST PUSH2 0x1774 DUP2 PUSH2 0x1BE7 JUMP JUMPDEST DUP3 MSTORE POP POP JUMP JUMPDEST PUSH1 0x0 PUSH2 0x1785 DUP3 PUSH2 0x16DF JUMP JUMPDEST SWAP2 POP PUSH2 0x1791 DUP3 DUP6 PUSH2 0x15DC JUMP JUMPDEST SWAP2 POP PUSH2 0x179C DUP3 PUSH2 0x1725 JUMP JUMPDEST SWAP2 POP PUSH2 0x17A8 DUP3 DUP5 PUSH2 0x15DC JUMP JUMPDEST SWAP2 POP DUP2 SWAP1 POP SWAP4 SWAP3 POP POP POP JUMP JUMPDEST PUSH1 0x0 PUSH1 0x20 DUP3 ADD SWAP1 POP PUSH2 0x17C9 PUSH1 0x0 DUP4 ADD DUP5 PUSH2 0x1576 JUMP JUMPDEST SWAP3 SWAP2 POP POP JUMP JUMPDEST PUSH1 0x0 PUSH1 0x60 DUP3 ADD SWAP1 POP PUSH2 0x17E4 PUSH1 0x0 DUP4 ADD DUP7 PUSH2 0x1576 JUMP JUMPDEST PUSH2 0x17F1 PUSH1 0x20 DUP4 ADD DUP6 PUSH2 0x1576 JUMP JUMPDEST PUSH2 0x17FE PUSH1 0x40 DUP4 ADD DUP5 PUSH2 0x176B JUMP JUMPDEST SWAP5 SWAP4 POP POP POP POP JUMP JUMPDEST PUSH1 0x0 PUSH1 0xA0 DUP3 ADD SWAP1 POP PUSH2 0x181B PUSH1 0x0 DUP4 ADD DUP9 PUSH2 0x1576 JUMP JUMPDEST DUP2 DUP2 SUB PUSH1 0x20 DUP4 ADD MSTORE PUSH2 0x182D DUP2 DUP8 PUSH2 0x15A3 JUMP JUMPDEST SWAP1 POP PUSH2 0x183C PUSH1 0x40 DUP4 ADD DUP7 PUSH2 0x176B JUMP JUMPDEST PUSH2 0x1849 PUSH1 0x60 DUP4 ADD DUP6 PUSH2 0x176B JUMP JUMPDEST PUSH2 0x1856 PUSH1 0x80 DUP4 ADD DUP5 PUSH2 0x176B JUMP JUMPDEST SWAP7 SWAP6 POP POP POP POP POP POP JUMP JUMPDEST PUSH1 0x0 PUSH1 0x40 DUP3 ADD SWAP1 POP PUSH2 0x1875 PUSH1 0x0 DUP4 ADD DUP6 PUSH2 0x1576 JUMP JUMPDEST PUSH2 0x1882 PUSH1 0x20 DUP4 ADD DUP5 PUSH2 0x176B JUMP JUMPDEST SWAP4 SWAP3 POP POP POP JUMP JUMPDEST PUSH1 0x0 PUSH1 0x20 DUP3 ADD SWAP1 POP PUSH2 0x189E PUSH1 0x0 DUP4 ADD DUP5 PUSH2 0x1585 JUMP JUMPDEST SWAP3 SWAP2 POP POP JUMP JUMPDEST PUSH1 0x0 PUSH1 0x20 DUP3 ADD SWAP1 POP PUSH2 0x18B9 PUSH1 0x0 DUP4 ADD DUP5 PUSH2 0x1594 JUMP JUMPDEST SWAP3 SWAP2 POP POP JUMP JUMPDEST PUSH1 0x0 PUSH1 0x20 DUP3 ADD SWAP1 POP DUP2 DUP2 SUB PUSH1 0x0 DUP4 ADD MSTORE PUSH2 0x18D9 DUP2 DUP5 PUSH2 0x15A3 JUMP JUMPDEST SWAP1 POP SWAP3 SWAP2 POP POP JUMP JUMPDEST PUSH1 0x0 PUSH1 0x20 DUP3 ADD SWAP1 POP DUP2 DUP2 SUB PUSH1 0x0 DUP4 ADD MSTORE PUSH2 0x18FA DUP2 PUSH2 0x160D JUMP JUMPDEST SWAP1 POP SWAP2 SWAP1 POP JUMP JUMPDEST PUSH1 0x0 PUSH1 0x20 DUP3 ADD SWAP1 POP DUP2 DUP2 SUB PUSH1 0x0 DUP4 ADD MSTORE PUSH2 0x191A DUP2 PUSH2 0x1630 JUMP JUMPDEST SWAP1 POP SWAP2 SWAP1 POP JUMP JUMPDEST PUSH1 0x0 PUSH1 0x20 DUP3 ADD SWAP1 POP DUP2 DUP2 SUB PUSH1 0x0 DUP4 ADD MSTORE PUSH2 0x193A DUP2 PUSH2 0x1653 JUMP JUMPDEST SWAP1 POP SWAP2 SWAP1 POP JUMP JUMPDEST PUSH1 0x0 PUSH1 0x20 DUP3 ADD SWAP1 POP DUP2 DUP2 SUB PUSH1 0x0 DUP4 ADD MSTORE PUSH2 0x195A DUP2 PUSH2 0x1676 JUMP JUMPDEST SWAP1 POP SWAP2 SWAP1 POP JUMP JUMPDEST PUSH1 0x0 PUSH1 0x20 DUP3 ADD SWAP1 POP DUP2 DUP2 SUB PUSH1 0x0 DUP4 ADD MSTORE PUSH2 0x197A DUP2 PUSH2 0x1699 JUMP JUMPDEST SWAP1 POP SWAP2 SWAP1 POP JUMP JUMPDEST PUSH1 0x0 PUSH1 0x20 DUP3 ADD SWAP1 POP DUP2 DUP2 SUB PUSH1 0x0 DUP4 ADD MSTORE PUSH2 0x199A DUP2 PUSH2 0x16BC JUMP JUMPDEST SWAP1 POP SWAP2 SWAP1 POP JUMP JUMPDEST PUSH1 0x0 PUSH1 0x20 DUP3 ADD SWAP1 POP DUP2 DUP2 SUB PUSH1 0x0 DUP4 ADD MSTORE PUSH2 0x19BA DUP2 PUSH2 0x1702 JUMP JUMPDEST SWAP1 POP SWAP2 SWAP1 POP JUMP JUMPDEST PUSH1 0x0 PUSH1 0x20 DUP3 ADD SWAP1 POP DUP2 DUP2 SUB PUSH1 0x0 DUP4 ADD MSTORE PUSH2 0x19DA DUP2 PUSH2 0x1748 JUMP JUMPDEST SWAP1 POP SWAP2 SWAP1 POP JUMP JUMPDEST PUSH1 0x0 PUSH2 0x19EB PUSH2 0x19FC JUMP JUMPDEST SWAP1 POP PUSH2 0x19F7 DUP3 DUP3 PUSH2 0x1C8F JUMP JUMPDEST SWAP2 SWAP1 POP JUMP JUMPDEST PUSH1 0x0 PUSH1 0x40 MLOAD SWAP1 POP SWAP1 JUMP JUMPDEST PUSH1 0x0 PUSH8 0xFFFFFFFFFFFFFFFF DUP3 GT ISZERO PUSH2 0x1A21 JUMPI PUSH2 0x1A20 PUSH2 0x1D7C JUMP JUMPDEST JUMPDEST PUSH2 0x1A2A DUP3 PUSH2 0x1DBF JUMP JUMPDEST SWAP1 POP PUSH1 0x20 DUP2 ADD SWAP1 POP SWAP2 SWAP1 POP JUMP JUMPDEST PUSH1 0x0 DUP2 MLOAD SWAP1 POP SWAP2 SWAP1 POP JUMP JUMPDEST PUSH1 0x0 DUP3 DUP3 MSTORE PUSH1 0x20 DUP3 ADD SWAP1 POP SWAP3 SWAP2 POP POP JUMP JUMPDEST PUSH1 0x0 DUP2 SWAP1 POP SWAP3 SWAP2 POP POP JUMP JUMPDEST PUSH1 0x0 PUSH2 0x1A69 DUP3 PUSH2 0x1BE7 JUMP JUMPDEST SWAP2 POP PUSH2 0x1A74 DUP4 PUSH2 0x1BE7 JUMP JUMPDEST SWAP3 POP DUP3 PUSH32 0xFFFFFFFFFFFFFFFFFFFFFFFFFFFFFFFFFFFFFFFFFFFFFFFFFFFFFFFFFFFFFFFF SUB DUP3 GT ISZERO PUSH2 0x1AA9 JUMPI PUSH2 0x1AA8 PUSH2 0x1CC0 JUMP JUMPDEST JUMPDEST DUP3 DUP3 ADD SWAP1 POP SWAP3 SWAP2 POP POP JUMP JUMPDEST PUSH1 0x0 PUSH2 0x1ABF DUP3 PUSH2 0x1BE7 JUMP JUMPDEST SWAP2 POP PUSH2 0x1ACA DUP4 PUSH2 0x1BE7 JUMP JUMPDEST SWAP3 POP DUP3 PUSH2 0x1ADA JUMPI PUSH2 0x1AD9 PUSH2 0x1CEF JUMP JUMPDEST JUMPDEST DUP3 DUP3 DIV SWAP1 POP SWAP3 SWAP2 POP POP JUMP JUMPDEST PUSH1 0x0 PUSH2 0x1AF0 DUP3 PUSH2 0x1BE7 JUMP JUMPDEST SWAP2 POP PUSH2 0x1AFB DUP4 PUSH2 0x1BE7 JUMP JUMPDEST SWAP3 POP DUP2 PUSH32 0xFFFFFFFFFFFFFFFFFFFFFFFFFFFFFFFFFFFFFFFFFFFFFFFFFFFFFFFFFFFFFFFF DIV DUP4 GT DUP3 ISZERO ISZERO AND ISZERO PUSH2 0x1B34 JUMPI PUSH2 0x1B33 PUSH2 0x1CC0 JUMP JUMPDEST JUMPDEST DUP3 DUP3 MUL SWAP1 POP SWAP3 SWAP2 POP POP JUMP JUMPDEST PUSH1 0x0 PUSH2 0x1B4A DUP3 PUSH2 0x1BE7 JUMP JUMPDEST SWAP2 POP PUSH2 0x1B55 DUP4 PUSH2 0x1BE7 JUMP JUMPDEST SWAP3 POP DUP3 DUP3 LT ISZERO PUSH2 0x1B68 JUMPI PUSH2 0x1B67 PUSH2 0x1CC0 JUMP JUMPDEST JUMPDEST DUP3 DUP3 SUB SWAP1 POP SWAP3 SWAP2 POP POP JUMP JUMPDEST PUSH1 0x0 PUSH2 0x1B7E DUP3 PUSH2 0x1BC7 JUMP JUMPDEST SWAP1 POP SWAP2 SWAP1 POP JUMP JUMPDEST PUSH1 0x0 DUP2 ISZERO ISZERO SWAP1 POP SWAP2 SWAP1 POP JUMP JUMPDEST PUSH1 0x0 DUP2 SWAP1 POP SWAP2 SWAP1 POP JUMP JUMPDEST PUSH1 0x0 PUSH32 0xFFFFFFFF00000000000000000000000000000000000000000000000000000000 DUP3 AND SWAP1 POP SWAP2 SWAP1 POP JUMP JUMPDEST PUSH1 0x0 PUSH20 0xFFFFFFFFFFFFFFFFFFFFFFFFFFFFFFFFFFFFFFFF DUP3 AND SWAP1 POP SWAP2 SWAP1 POP JUMP JUMPDEST PUSH1 0x0 DUP2 SWAP1 POP SWAP2 SWAP1 POP JUMP JUMPDEST DUP3 DUP2 DUP4 CALLDATACOPY PUSH1 0x0 DUP4 DUP4 ADD MSTORE POP POP POP JUMP JUMPDEST PUSH1 0x0 JUMPDEST DUP4 DUP2 LT ISZERO PUSH2 0x1C1E JUMPI DUP1 DUP3 ADD MLOAD DUP2 DUP5 ADD MSTORE PUSH1 0x20 DUP2 ADD SWAP1 POP PUSH2 0x1C03 JUMP JUMPDEST DUP4 DUP2 GT ISZERO PUSH2 0x1C2D JUMPI PUSH1 0x0 DUP5 DUP5 ADD MSTORE JUMPDEST POP POP POP POP JUMP JUMPDEST PUSH1 0x0 PUSH2 0x1C3E DUP3 PUSH2 0x1BE7 JUMP JUMPDEST SWAP2 POP PUSH1 0x0 DUP3 EQ ISZERO PUSH2 0x1C52 JUMPI PUSH2 0x1C51 PUSH2 0x1CC0 JUMP JUMPDEST JUMPDEST PUSH1 0x1 DUP3 SUB SWAP1 POP SWAP2 SWAP1 POP JUMP JUMPDEST PUSH1 0x0 PUSH1 0x2 DUP3 DIV SWAP1 POP PUSH1 0x1 DUP3 AND DUP1 PUSH2 0x1C75 JUMPI PUSH1 0x7F DUP3 AND SWAP2 POP JUMPDEST PUSH1 0x20 DUP3 LT DUP2 EQ ISZERO PUSH2 0x1C89 JUMPI PUSH2 0x1C88 PUSH2 0x1D1E JUMP JUMPDEST JUMPDEST POP SWAP2 SWAP1 POP JUMP JUMPDEST PUSH2 0x1C98 DUP3 PUSH2 0x1DBF JUMP JUMPDEST DUP2 ADD DUP2 DUP2 LT PUSH8 0xFFFFFFFFFFFFFFFF DUP3 GT OR ISZERO PUSH2 0x1CB7 JUMPI PUSH2 0x1CB6 PUSH2 0x1D7C JUMP JUMPDEST JUMPDEST DUP1 PUSH1 0x40 MSTORE POP POP POP JUMP JUMPDEST PUSH32 0x4E487B7100000000000000000000000000000000000000000000000000000000 PUSH1 0x0 MSTORE PUSH1 0x11 PUSH1 0x4 MSTORE PUSH1 0x24 PUSH1 0x0 REVERT JUMPDEST PUSH32 0x4E487B7100000000000000000000000000000000000000000000000000000000 PUSH1 0x0 MSTORE PUSH1 0x12 PUSH1 0x4 MSTORE PUSH1 0x24 PUSH1 0x0 REVERT JUMPDEST PUSH32 0x4E487B7100000000000000000000000000000000000000000000000000000000 PUSH1 0x0 MSTORE PUSH1 0x22 PUSH1 0x4 MSTORE PUSH1 0x24 PUSH1 0x0 REVERT JUMPDEST PUSH32 0x4E487B7100000000000000000000000000000000000000000000000000000000 PUSH1 0x0 MSTORE PUSH1 0x32 PUSH1 0x4 MSTORE PUSH1 0x24 PUSH1 0x0 REVERT JUMPDEST PUSH32 0x4E487B7100000000000000000000000000000000000000000000000000000000 PUSH1 0x0 MSTORE PUSH1 0x41 PUSH1 0x4 MSTORE PUSH1 0x24 PUSH1 0x0 REVERT JUMPDEST PUSH1 0x0 DUP1 REVERT JUMPDEST PUSH1 0x0 DUP1 REVERT JUMPDEST PUSH1 0x0 DUP1 REVERT JUMPDEST PUSH1 0x0 DUP1 REVERT JUMPDEST PUSH1 0x0 PUSH1 0x1F NOT PUSH1 0x1F DUP4 ADD AND SWAP1 POP SWAP2 SWAP1 POP JUMP JUMPDEST PUSH32 0x63616C6C6572206973206E6F7420656C696769626C6520666F72206E65787420 PUSH1 0x0 DUP3 ADD MSTORE PUSH32 0x7769746864726177000000000000000000000000000000000000000000000000 PUSH1 0x20 DUP3 ADD MSTORE POP JUMP JUMPDEST PUSH32 0x537472696E67733A20686578206C656E67746820696E73756666696369656E74 PUSH1 0x0 DUP3 ADD MSTORE POP JUMP JUMPDEST PUSH32 0x63616C6C6572206973206E6F742061646D696E6973747261746F720000000000 PUSH1 0x0 DUP3 ADD MSTORE POP JUMP JUMPDEST PUSH32 0x6E6F7420656E6F7567682066756E647320696E20636F6E747261637400000000 PUSH1 0x0 DUP3 ADD MSTORE POP JUMP JUMPDEST PUSH32 0x6661696C65642072657061790000000000000000000000000000000000000000 PUSH1 0x0 DUP3 ADD MSTORE POP JUMP JUMPDEST PUSH32 0x63616C6C6572206973206E6F7420656C696769626C6520666F72207769746864 PUSH1 0x0 DUP3 ADD MSTORE PUSH32 0x72617720616D6F756E7400000000000000000000000000000000000000000000 PUSH1 0x20 DUP3 ADD MSTORE POP JUMP JUMPDEST PUSH32 0x416363657373436F6E74726F6C3A206163636F756E7420000000000000000000 PUSH1 0x0 DUP3 ADD MSTORE POP JUMP JUMPDEST PUSH32 0x7769746864726177206661696C65640000000000000000000000000000000000 PUSH1 0x0 DUP3 ADD MSTORE POP JUMP JUMPDEST PUSH32 0x206973206D697373696E6720726F6C6520000000000000000000000000000000 PUSH1 0x0 DUP3 ADD MSTORE POP JUMP JUMPDEST PUSH32 0x416363657373436F6E74726F6C3A2063616E206F6E6C792072656E6F756E6365 PUSH1 0x0 DUP3 ADD MSTORE PUSH32 0x20726F6C657320666F722073656C660000000000000000000000000000000000 PUSH1 0x20 DUP3 ADD MSTORE POP JUMP JUMPDEST PUSH2 0x1FE5 DUP2 PUSH2 0x1B73 JUMP JUMPDEST DUP2 EQ PUSH2 0x1FF0 JUMPI PUSH1 0x0 DUP1 REVERT JUMPDEST POP JUMP JUMPDEST PUSH2 0x1FFC DUP2 PUSH2 0x1B85 JUMP JUMPDEST DUP2 EQ PUSH2 0x2007 JUMPI PUSH1 0x0 DUP1 REVERT JUMPDEST POP JUMP JUMPDEST PUSH2 0x2013 DUP2 PUSH2 0x1B91 JUMP JUMPDEST DUP2 EQ PUSH2 0x201E JUMPI PUSH1 0x0 DUP1 REVERT JUMPDEST POP JUMP JUMPDEST PUSH2 0x202A DUP2 PUSH2 0x1B9B JUMP JUMPDEST DUP2 EQ PUSH2 0x2035 JUMPI PUSH1 0x0 DUP1 REVERT JUMPDEST POP JUMP JUMPDEST PUSH2 0x2041 DUP2 PUSH2 0x1BE7 JUMP JUMPDEST DUP2 EQ PUSH2 0x204C JUMPI PUSH1 0x0 DUP1 REVERT JUMPDEST POP JUMP INVALID LOG2 PUSH5 0x6970667358 0x22 SLT KECCAK256 0xE LOG0 0xDA AND CALLDATALOAD BALANCE SLT SWAP2 0xAF CODECOPY INVALID SWAP6 SDIV SWAP13 SWAP6 JUMP SWAP2 EXTCODECOPY 0xAC 0xDF EQ 0x4A DUP16 0xCA 0xC3 SWAP6 0xF8 0x5D LOG3 RETURNDATACOPY JUMPI 0xEF PUSH5 0x736F6C6343 STOP ADDMOD SMOD STOP CALLER "
				},
				"gasEstimates": {
					"creation": {
						"codeDepositCost": "1665000",
						"executionCost": "infinite",
						"totalCost": "infinite"
					},
					"external": {
						"DEFAULT_ADMIN_ROLE()": "379",
						"Participants(address)": "infinite",
						"addAdress(address,string)": "infinite",
						"getRoleAdmin(bytes32)": "infinite",
						"grantRole(bytes32,address)": "infinite",
						"hasRole(bytes32,address)": "3140",
						"renounceRole(bytes32,address)": "infinite",
						"repay(address)": "infinite",
						"revokeRole(bytes32,address)": "infinite",
						"supportsInterface(bytes4)": "728",
						"token()": "2624",
						"withdraw(uint256)": "infinite"
					},
					"internal": {
						"verifyDiiaToken(string memory)": "infinite"
					}
				},
				"methodIdentifiers": {
					"DEFAULT_ADMIN_ROLE()": "a217fddf",
					"Participants(address)": "595aa13d",
					"addAdress(address,string)": "f2dc12ce",
					"getRoleAdmin(bytes32)": "248a9ca3",
					"grantRole(bytes32,address)": "2f2ff15d",
					"hasRole(bytes32,address)": "91d14854",
					"renounceRole(bytes32,address)": "36568abe",
					"repay(address)": "9f7c73e9",
					"revokeRole(bytes32,address)": "d547741f",
					"supportsInterface(bytes4)": "01ffc9a7",
					"token()": "fc0c546a",
					"withdraw(uint256)": "2e1a7d4d"
				}
			},
			"storageLayout": {
				"storage": [
					{
						"astId": 24,
						"contract": "distributor.sol:FundDistributor",
						"label": "_roles",
						"offset": 0,
						"slot": "0",
						"type": "t_mapping(t_bytes32,t_struct(RoleData)19_storage)"
					},
					{
						"astId": 1373,
						"contract": "distributor.sol:FundDistributor",
						"label": "token",
						"offset": 0,
						"slot": "1",
						"type": "t_address"
					},
					{
						"astId": 1376,
						"contract": "distributor.sol:FundDistributor",
						"label": "maxLimit",
						"offset": 0,
						"slot": "2",
						"type": "t_uint256"
					},
					{
						"astId": 1381,
						"contract": "distributor.sol:FundDistributor",
						"label": "Participants",
						"offset": 0,
						"slot": "3",
						"type": "t_mapping(t_address,t_struct(Participant)1408_storage)"
					}
				],
				"types": {
					"t_address": {
						"encoding": "inplace",
						"label": "address",
						"numberOfBytes": "20"
					},
					"t_bool": {
						"encoding": "inplace",
						"label": "bool",
						"numberOfBytes": "1"
					},
					"t_bytes32": {
						"encoding": "inplace",
						"label": "bytes32",
						"numberOfBytes": "32"
					},
					"t_mapping(t_address,t_bool)": {
						"encoding": "mapping",
						"key": "t_address",
						"label": "mapping(address => bool)",
						"numberOfBytes": "32",
						"value": "t_bool"
					},
					"t_mapping(t_address,t_struct(Participant)1408_storage)": {
						"encoding": "mapping",
						"key": "t_address",
						"label": "mapping(address => struct FundDistributor.Participant)",
						"numberOfBytes": "32",
						"value": "t_struct(Participant)1408_storage"
					},
					"t_mapping(t_bytes32,t_struct(RoleData)19_storage)": {
						"encoding": "mapping",
						"key": "t_bytes32",
						"label": "mapping(bytes32 => struct AccessControl.RoleData)",
						"numberOfBytes": "32",
						"value": "t_struct(RoleData)19_storage"
					},
					"t_string_storage": {
						"encoding": "bytes",
						"label": "string",
						"numberOfBytes": "32"
					},
					"t_struct(Participant)1408_storage": {
						"encoding": "inplace",
						"label": "struct FundDistributor.Participant",
						"members": [
							{
								"astId": 1399,
								"contract": "distributor.sol:FundDistributor",
								"label": "owner",
								"offset": 0,
								"slot": "0",
								"type": "t_address"
							},
							{
								"astId": 1401,
								"contract": "distributor.sol:FundDistributor",
								"label": "diiaToken",
								"offset": 0,
								"slot": "1",
								"type": "t_string_storage"
							},
							{
								"astId": 1403,
								"contract": "distributor.sol:FundDistributor",
								"label": "currentLimit",
								"offset": 0,
								"slot": "2",
								"type": "t_uint256"
							},
							{
								"astId": 1405,
								"contract": "distributor.sol:FundDistributor",
								"label": "currentlyOwed",
								"offset": 0,
								"slot": "3",
								"type": "t_uint256"
							},
							{
								"astId": 1407,
								"contract": "distributor.sol:FundDistributor",
								"label": "nextAllowedWithdrawBlock",
								"offset": 0,
								"slot": "4",
								"type": "t_uint256"
							}
						],
						"numberOfBytes": "160"
					},
					"t_struct(RoleData)19_storage": {
						"encoding": "inplace",
						"label": "struct AccessControl.RoleData",
						"members": [
							{
								"astId": 16,
								"contract": "distributor.sol:FundDistributor",
								"label": "members",
								"offset": 0,
								"slot": "0",
								"type": "t_mapping(t_address,t_bool)"
							},
							{
								"astId": 18,
								"contract": "distributor.sol:FundDistributor",
								"label": "adminRole",
								"offset": 0,
								"slot": "1",
								"type": "t_bytes32"
							}
						],
						"numberOfBytes": "64"
					},
					"t_uint256": {
						"encoding": "inplace",
						"label": "uint256",
						"numberOfBytes": "32"
					}
				}
			},
			"userdoc": {
				"kind": "user",
				"methods": {},
				"version": 1
			}
		}
	}
}