{
	"distributor.sol": {
		"FundDistributor": {
			"abi": [
				{
					"inputs": [
						{
							"internalType": "address",
							"name": "_Token",
							"type": "address"
						}
					],
					"stateMutability": "nonpayable",
					"type": "constructor"
				},
				{
					"anonymous": false,
					"inputs": [
						{
							"indexed": true,
							"internalType": "bytes32",
							"name": "role",
							"type": "bytes32"
						},
						{
							"indexed": true,
							"internalType": "bytes32",
							"name": "previousAdminRole",
							"type": "bytes32"
						},
						{
							"indexed": true,
							"internalType": "bytes32",
							"name": "newAdminRole",
							"type": "bytes32"
						}
					],
					"name": "RoleAdminChanged",
					"type": "event"
				},
				{
					"anonymous": false,
					"inputs": [
						{
							"indexed": true,
							"internalType": "bytes32",
							"name": "role",
							"type": "bytes32"
						},
						{
							"indexed": true,
							"internalType": "address",
							"name": "account",
							"type": "address"
						},
						{
							"indexed": true,
							"internalType": "address",
							"name": "sender",
							"type": "address"
						}
					],
					"name": "RoleGranted",
					"type": "event"
				},
				{
					"anonymous": false,
					"inputs": [
						{
							"indexed": true,
							"internalType": "bytes32",
							"name": "role",
							"type": "bytes32"
						},
						{
							"indexed": true,
							"internalType": "address",
							"name": "account",
							"type": "address"
						},
						{
							"indexed": true,
							"internalType": "address",
							"name": "sender",
							"type": "address"
						}
					],
					"name": "RoleRevoked",
					"type": "event"
				},
				{
					"inputs": [],
					"name": "DEFAULT_ADMIN_ROLE",
					"outputs": [
						{
							"internalType": "bytes32",
							"name": "",
							"type": "bytes32"
						}
					],
					"stateMutability": "view",
					"type": "function"
				},
				{
					"inputs": [
						{
							"internalType": "string",
							"name": "",
							"type": "string"
						}
					],
					"name": "Participants",
					"outputs": [
						{
							"internalType": "uint256",
							"name": "currentLimit",
							"type": "uint256"
						},
						{
							"internalType": "uint256",
							"name": "currentlyOwed",
							"type": "uint256"
						},
						{
							"internalType": "uint256",
							"name": "nextAllowedWithdrawBlock",
							"type": "uint256"
						}
					],
					"stateMutability": "view",
					"type": "function"
				},
				{
					"inputs": [
						{
							"internalType": "string",
							"name": "diiaToken",
							"type": "string"
						}
					],
					"name": "addAdress",
					"outputs": [],
					"stateMutability": "nonpayable",
					"type": "function"
				},
				{
					"inputs": [
						{
							"internalType": "bytes32",
							"name": "role",
							"type": "bytes32"
						}
					],
					"name": "getRoleAdmin",
					"outputs": [
						{
							"internalType": "bytes32",
							"name": "",
							"type": "bytes32"
						}
					],
					"stateMutability": "view",
					"type": "function"
				},
				{
					"inputs": [
						{
							"internalType": "bytes32",
							"name": "role",
							"type": "bytes32"
						},
						{
							"internalType": "address",
							"name": "account",
							"type": "address"
						}
					],
					"name": "grantRole",
					"outputs": [],
					"stateMutability": "nonpayable",
					"type": "function"
				},
				{
					"inputs": [
						{
							"internalType": "bytes32",
							"name": "role",
							"type": "bytes32"
						},
						{
							"internalType": "address",
							"name": "account",
							"type": "address"
						}
					],
					"name": "hasRole",
					"outputs": [
						{
							"internalType": "bool",
							"name": "",
							"type": "bool"
						}
					],
					"stateMutability": "view",
					"type": "function"
				},
				{
					"inputs": [
						{
							"internalType": "bytes32",
							"name": "role",
							"type": "bytes32"
						},
						{
							"internalType": "address",
							"name": "account",
							"type": "address"
						}
					],
					"name": "renounceRole",
					"outputs": [],
					"stateMutability": "nonpayable",
					"type": "function"
				},
				{
					"inputs": [
						{
							"internalType": "string",
							"name": "diiaToken",
							"type": "string"
						}
					],
					"name": "repay",
					"outputs": [],
					"stateMutability": "nonpayable",
					"type": "function"
				},
				{
					"inputs": [
						{
							"internalType": "bytes32",
							"name": "role",
							"type": "bytes32"
						},
						{
							"internalType": "address",
							"name": "account",
							"type": "address"
						}
					],
					"name": "revokeRole",
					"outputs": [],
					"stateMutability": "nonpayable",
					"type": "function"
				},
				{
					"inputs": [
						{
							"internalType": "bytes4",
							"name": "interfaceId",
							"type": "bytes4"
						}
					],
					"name": "supportsInterface",
					"outputs": [
						{
							"internalType": "bool",
							"name": "",
							"type": "bool"
						}
					],
					"stateMutability": "view",
					"type": "function"
				},
				{
					"inputs": [],
					"name": "token",
					"outputs": [
						{
							"internalType": "address",
							"name": "",
							"type": "address"
						}
					],
					"stateMutability": "view",
					"type": "function"
				},
				{
					"inputs": [
						{
							"internalType": "uint256",
							"name": "amount",
							"type": "uint256"
						},
						{
							"internalType": "string",
							"name": "diiaToken",
							"type": "string"
						}
					],
					"name": "withdraw",
					"outputs": [],
					"stateMutability": "nonpayable",
					"type": "function"
				}
			],
			"devdoc": {
				"kind": "dev",
				"methods": {
					"getRoleAdmin(bytes32)": {
						"details": "Returns the admin role that controls `role`. See {grantRole} and {revokeRole}. To change a role's admin, use {_setRoleAdmin}."
					},
					"grantRole(bytes32,address)": {
						"details": "Grants `role` to `account`. If `account` had not been already granted `role`, emits a {RoleGranted} event. Requirements: - the caller must have ``role``'s admin role. May emit a {RoleGranted} event."
					},
					"hasRole(bytes32,address)": {
						"details": "Returns `true` if `account` has been granted `role`."
					},
					"renounceRole(bytes32,address)": {
						"details": "Revokes `role` from the calling account. Roles are often managed via {grantRole} and {revokeRole}: this function's purpose is to provide a mechanism for accounts to lose their privileges if they are compromised (such as when a trusted device is misplaced). If the calling account had been revoked `role`, emits a {RoleRevoked} event. Requirements: - the caller must be `account`. May emit a {RoleRevoked} event."
					},
					"revokeRole(bytes32,address)": {
						"details": "Revokes `role` from `account`. If `account` had been granted `role`, emits a {RoleRevoked} event. Requirements: - the caller must have ``role``'s admin role. May emit a {RoleRevoked} event."
					},
					"supportsInterface(bytes4)": {
						"details": "See {IERC165-supportsInterface}."
					}
				},
				"version": 1
			},
			"evm": {
				"assembly": "    /* \"distributor.sol\":181:2188  contract FundDistributor is AccessControl {... */\n  mstore(0x40, 0x80)\n    /* \"distributor.sol\":276:290  20000000000000 */\n  0x12309ce54000\n    /* \"distributor.sol\":257:290  uint256 maxLimit = 20000000000000 */\n  0x02\n  sstore\n    /* \"distributor.sol\":354:465  constructor(address _Token) {... */\n  callvalue\n  dup1\n  iszero\n  tag_1\n  jumpi\n  0x00\n  dup1\n  revert\ntag_1:\n  pop\n  mload(0x40)\n  sub(codesize, bytecodeSize)\n  dup1\n  bytecodeSize\n  dup4\n  codecopy\n  dup2\n  dup2\n  add\n  0x40\n  mstore\n  dup2\n  add\n  swap1\n  tag_2\n  swap2\n  swap1\n  tag_3\n  jump\t// in\ntag_2:\n    /* \"distributor.sol\":400:406  _Token */\n  dup1\n    /* \"distributor.sol\":392:397  token */\n  0x01\n  0x00\n    /* \"distributor.sol\":392:406  token = _Token */\n  0x0100\n  exp\n  dup2\n  sload\n  dup2\n  0xffffffffffffffffffffffffffffffffffffffff\n  mul\n  not\n  and\n  swap1\n  dup4\n  0xffffffffffffffffffffffffffffffffffffffff\n  and\n  mul\n  or\n  swap1\n  sstore\n  pop\n    /* \"distributor.sol\":416:458  _setupRole(DEFAULT_ADMIN_ROLE, msg.sender) */\n  tag_6\n    /* \"@openzeppelin/contracts/access/AccessControl.sol\":2072:2076  0x00 */\n  0x00\n    /* \"distributor.sol\":427:445  DEFAULT_ADMIN_ROLE */\n  dup1\n  shl\n    /* \"distributor.sol\":447:457  msg.sender */\n  caller\n    /* \"distributor.sol\":416:426  _setupRole */\n  shl(0x20, tag_7)\n    /* \"distributor.sol\":416:458  _setupRole(DEFAULT_ADMIN_ROLE, msg.sender) */\n  0x20\n  shr\n  jump\t// in\ntag_6:\n    /* \"distributor.sol\":354:465  constructor(address _Token) {... */\n  pop\n    /* \"distributor.sol\":181:2188  contract FundDistributor is AccessControl {... */\n  jump(tag_8)\n    /* \"@openzeppelin/contracts/access/AccessControl.sol\":6824:6934  function _setupRole(bytes32 role, address account) internal virtual {... */\ntag_7:\n    /* \"@openzeppelin/contracts/access/AccessControl.sol\":6902:6927  _grantRole(role, account) */\n  tag_10\n    /* \"@openzeppelin/contracts/access/AccessControl.sol\":6913:6917  role */\n  dup3\n    /* \"@openzeppelin/contracts/access/AccessControl.sol\":6919:6926  account */\n  dup3\n    /* \"@openzeppelin/contracts/access/AccessControl.sol\":6902:6912  _grantRole */\n  shl(0x20, tag_11)\n    /* \"@openzeppelin/contracts/access/AccessControl.sol\":6902:6927  _grantRole(role, account) */\n  0x20\n  shr\n  jump\t// in\ntag_10:\n    /* \"@openzeppelin/contracts/access/AccessControl.sol\":6824:6934  function _setupRole(bytes32 role, address account) internal virtual {... */\n  pop\n  pop\n  jump\t// out\n    /* \"@openzeppelin/contracts/access/AccessControl.sol\":7474:7707  function _grantRole(bytes32 role, address account) internal virtual {... */\ntag_11:\n    /* \"@openzeppelin/contracts/access/AccessControl.sol\":7557:7579  hasRole(role, account) */\n  tag_13\n    /* \"@openzeppelin/contracts/access/AccessControl.sol\":7565:7569  role */\n  dup3\n    /* \"@openzeppelin/contracts/access/AccessControl.sol\":7571:7578  account */\n  dup3\n    /* \"@openzeppelin/contracts/access/AccessControl.sol\":7557:7564  hasRole */\n  shl(0x20, tag_14)\n    /* \"@openzeppelin/contracts/access/AccessControl.sol\":7557:7579  hasRole(role, account) */\n  0x20\n  shr\n  jump\t// in\ntag_13:\n    /* \"@openzeppelin/contracts/access/AccessControl.sol\":7552:7701  if (!hasRole(role, account)) {... */\n  tag_15\n  jumpi\n    /* \"@openzeppelin/contracts/access/AccessControl.sol\":7627:7631  true */\n  0x01\n    /* \"@openzeppelin/contracts/access/AccessControl.sol\":7595:7601  _roles */\n  0x00\n    /* \"@openzeppelin/contracts/access/AccessControl.sol\":7595:7607  _roles[role] */\n  dup1\n    /* \"@openzeppelin/contracts/access/AccessControl.sol\":7602:7606  role */\n  dup5\n    /* \"@openzeppelin/contracts/access/AccessControl.sol\":7595:7607  _roles[role] */\n  dup2\n  mstore\n  0x20\n  add\n  swap1\n  dup2\n  mstore\n  0x20\n  add\n  0x00\n  keccak256\n    /* \"@openzeppelin/contracts/access/AccessControl.sol\":7595:7615  _roles[role].members */\n  0x00\n  add\n    /* \"@openzeppelin/contracts/access/AccessControl.sol\":7595:7624  _roles[role].members[account] */\n  0x00\n    /* \"@openzeppelin/contracts/access/AccessControl.sol\":7616:7623  account */\n  dup4\n    /* \"@openzeppelin/contracts/access/AccessControl.sol\":7595:7624  _roles[role].members[account] */\n  0xffffffffffffffffffffffffffffffffffffffff\n  and\n  0xffffffffffffffffffffffffffffffffffffffff\n  and\n  dup2\n  mstore\n  0x20\n  add\n  swap1\n  dup2\n  mstore\n  0x20\n  add\n  0x00\n  keccak256\n  0x00\n    /* \"@openzeppelin/contracts/access/AccessControl.sol\":7595:7631  _roles[role].members[account] = true */\n  0x0100\n  exp\n  dup2\n  sload\n  dup2\n  0xff\n  mul\n  not\n  and\n  swap1\n  dup4\n  iszero\n  iszero\n  mul\n  or\n  swap1\n  sstore\n  pop\n    /* \"@openzeppelin/contracts/access/AccessControl.sol\":7677:7689  _msgSender() */\n  tag_16\n    /* \"@openzeppelin/contracts/access/AccessControl.sol\":7677:7687  _msgSender */\n  shl(0x20, tag_17)\n    /* \"@openzeppelin/contracts/access/AccessControl.sol\":7677:7689  _msgSender() */\n  0x20\n  shr\n  jump\t// in\ntag_16:\n    /* \"@openzeppelin/contracts/access/AccessControl.sol\":7650:7690  RoleGranted(role, account, _msgSender()) */\n  0xffffffffffffffffffffffffffffffffffffffff\n  and\n    /* \"@openzeppelin/contracts/access/AccessControl.sol\":7668:7675  account */\n  dup2\n    /* \"@openzeppelin/contracts/access/AccessControl.sol\":7650:7690  RoleGranted(role, account, _msgSender()) */\n  0xffffffffffffffffffffffffffffffffffffffff\n  and\n    /* \"@openzeppelin/contracts/access/AccessControl.sol\":7662:7666  role */\n  dup4\n    /* \"@openzeppelin/contracts/access/AccessControl.sol\":7650:7690  RoleGranted(role, account, _msgSender()) */\n  0x2f8788117e7eff1d82e926ec794901d17c78024a50270940304540a733656f0d\n  mload(0x40)\n  mload(0x40)\n  dup1\n  swap2\n  sub\n  swap1\n  log4\n    /* \"@openzeppelin/contracts/access/AccessControl.sol\":7552:7701  if (!hasRole(role, account)) {... */\ntag_15:\n    /* \"@openzeppelin/contracts/access/AccessControl.sol\":7474:7707  function _grantRole(bytes32 role, address account) internal virtual {... */\n  pop\n  pop\n  jump\t// out\n    /* \"@openzeppelin/contracts/access/AccessControl.sol\":2895:3040  function hasRole(bytes32 role, address account) public view virtual override returns (bool) {... */\ntag_14:\n    /* \"@openzeppelin/contracts/access/AccessControl.sol\":2981:2985  bool */\n  0x00\n    /* \"@openzeppelin/contracts/access/AccessControl.sol\":3004:3010  _roles */\n  dup1\n    /* \"@openzeppelin/contracts/access/AccessControl.sol\":3004:3016  _roles[role] */\n  0x00\n    /* \"@openzeppelin/contracts/access/AccessControl.sol\":3011:3015  role */\n  dup5\n    /* \"@openzeppelin/contracts/access/AccessControl.sol\":3004:3016  _roles[role] */\n  dup2\n  mstore\n  0x20\n  add\n  swap1\n  dup2\n  mstore\n  0x20\n  add\n  0x00\n  keccak256\n    /* \"@openzeppelin/contracts/access/AccessControl.sol\":3004:3024  _roles[role].members */\n  0x00\n  add\n    /* \"@openzeppelin/contracts/access/AccessControl.sol\":3004:3033  _roles[role].members[account] */\n  0x00\n    /* \"@openzeppelin/contracts/access/AccessControl.sol\":3025:3032  account */\n  dup4\n    /* \"@openzeppelin/contracts/access/AccessControl.sol\":3004:3033  _roles[role].members[account] */\n  0xffffffffffffffffffffffffffffffffffffffff\n  and\n  0xffffffffffffffffffffffffffffffffffffffff\n  and\n  dup2\n  mstore\n  0x20\n  add\n  swap1\n  dup2\n  mstore\n  0x20\n  add\n  0x00\n  keccak256\n  0x00\n  swap1\n  sload\n  swap1\n  0x0100\n  exp\n  swap1\n  div\n  0xff\n  and\n    /* \"@openzeppelin/contracts/access/AccessControl.sol\":2997:3033  return _roles[role].members[account] */\n  swap1\n  pop\n    /* \"@openzeppelin/contracts/access/AccessControl.sol\":2895:3040  function hasRole(bytes32 role, address account) public view virtual override returns (bool) {... */\n  swap3\n  swap2\n  pop\n  pop\n  jump\t// out\n    /* \"@openzeppelin/contracts/utils/Context.sol\":640:736  function _msgSender() internal view virtual returns (address) {... */\ntag_17:\n    /* \"@openzeppelin/contracts/utils/Context.sol\":693:700  address */\n  0x00\n    /* \"@openzeppelin/contracts/utils/Context.sol\":719:729  msg.sender */\n  caller\n    /* \"@openzeppelin/contracts/utils/Context.sol\":712:729  return msg.sender */\n  swap1\n  pop\n    /* \"@openzeppelin/contracts/utils/Context.sol\":640:736  function _msgSender() internal view virtual returns (address) {... */\n  swap1\n  jump\t// out\n    /* \"#utility.yul\":7:150   */\ntag_21:\n    /* \"#utility.yul\":64:69   */\n  0x00\n    /* \"#utility.yul\":95:101   */\n  dup2\n    /* \"#utility.yul\":89:102   */\n  mload\n    /* \"#utility.yul\":80:102   */\n  swap1\n  pop\n    /* \"#utility.yul\":111:144   */\n  tag_23\n    /* \"#utility.yul\":138:143   */\n  dup2\n    /* \"#utility.yul\":111:144   */\n  tag_24\n  jump\t// in\ntag_23:\n    /* \"#utility.yul\":7:150   */\n  swap3\n  swap2\n  pop\n  pop\n  jump\t// out\n    /* \"#utility.yul\":156:507   */\ntag_3:\n    /* \"#utility.yul\":226:232   */\n  0x00\n    /* \"#utility.yul\":275:277   */\n  0x20\n    /* \"#utility.yul\":263:272   */\n  dup3\n    /* \"#utility.yul\":254:261   */\n  dup5\n    /* \"#utility.yul\":250:273   */\n  sub\n    /* \"#utility.yul\":246:278   */\n  slt\n    /* \"#utility.yul\":243:362   */\n  iszero\n  tag_26\n  jumpi\n    /* \"#utility.yul\":281:360   */\n  tag_27\n  tag_28\n  jump\t// in\ntag_27:\n    /* \"#utility.yul\":243:362   */\ntag_26:\n    /* \"#utility.yul\":401:402   */\n  0x00\n    /* \"#utility.yul\":426:490   */\n  tag_29\n    /* \"#utility.yul\":482:489   */\n  dup5\n    /* \"#utility.yul\":473:479   */\n  dup3\n    /* \"#utility.yul\":462:471   */\n  dup6\n    /* \"#utility.yul\":458:480   */\n  add\n    /* \"#utility.yul\":426:490   */\n  tag_21\n  jump\t// in\ntag_29:\n    /* \"#utility.yul\":416:490   */\n  swap2\n  pop\n    /* \"#utility.yul\":372:500   */\n  pop\n    /* \"#utility.yul\":156:507   */\n  swap3\n  swap2\n  pop\n  pop\n  jump\t// out\n    /* \"#utility.yul\":594:690   */\ntag_32:\n    /* \"#utility.yul\":631:638   */\n  0x00\n    /* \"#utility.yul\":660:684   */\n  tag_34\n    /* \"#utility.yul\":678:683   */\n  dup3\n    /* \"#utility.yul\":660:684   */\n  tag_35\n  jump\t// in\ntag_34:\n    /* \"#utility.yul\":649:684   */\n  swap1\n  pop\n    /* \"#utility.yul\":594:690   */\n  swap2\n  swap1\n  pop\n  jump\t// out\n    /* \"#utility.yul\":696:822   */\ntag_35:\n    /* \"#utility.yul\":733:740   */\n  0x00\n    /* \"#utility.yul\":773:815   */\n  0xffffffffffffffffffffffffffffffffffffffff\n    /* \"#utility.yul\":766:771   */\n  dup3\n    /* \"#utility.yul\":762:816   */\n  and\n    /* \"#utility.yul\":751:816   */\n  swap1\n  pop\n    /* \"#utility.yul\":696:822   */\n  swap2\n  swap1\n  pop\n  jump\t// out\n    /* \"#utility.yul\":951:1068   */\ntag_28:\n    /* \"#utility.yul\":1060:1061   */\n  0x00\n    /* \"#utility.yul\":1057:1058   */\n  dup1\n    /* \"#utility.yul\":1050:1062   */\n  revert\n    /* \"#utility.yul\":1074:1196   */\ntag_24:\n    /* \"#utility.yul\":1147:1171   */\n  tag_41\n    /* \"#utility.yul\":1165:1170   */\n  dup2\n    /* \"#utility.yul\":1147:1171   */\n  tag_32\n  jump\t// in\ntag_41:\n    /* \"#utility.yul\":1140:1145   */\n  dup2\n    /* \"#utility.yul\":1137:1172   */\n  eq\n    /* \"#utility.yul\":1127:1190   */\n  tag_42\n  jumpi\n    /* \"#utility.yul\":1186:1187   */\n  0x00\n    /* \"#utility.yul\":1183:1184   */\n  dup1\n    /* \"#utility.yul\":1176:1188   */\n  revert\n    /* \"#utility.yul\":1127:1190   */\ntag_42:\n    /* \"#utility.yul\":1074:1196   */\n  pop\n  jump\t// out\n    /* \"distributor.sol\":181:2188  contract FundDistributor is AccessControl {... */\ntag_8:\n  dataSize(sub_0)\n  dup1\n  dataOffset(sub_0)\n  0x00\n  codecopy\n  0x00\n  return\nstop\n\nsub_0: assembly {\n        /* \"distributor.sol\":181:2188  contract FundDistributor is AccessControl {... */\n      mstore(0x40, 0x80)\n      callvalue\n      dup1\n      iszero\n      tag_1\n      jumpi\n      0x00\n      dup1\n      revert\n    tag_1:\n      pop\n      jumpi(tag_2, lt(calldatasize, 0x04))\n      shr(0xe0, calldataload(0x00))\n      dup1\n      0x91d14854\n      gt\n      tag_15\n      jumpi\n      dup1\n      0x91d14854\n      eq\n      tag_9\n      jumpi\n      dup1\n      0xa217fddf\n      eq\n      tag_10\n      jumpi\n      dup1\n      0xaf805b65\n      eq\n      tag_11\n      jumpi\n      dup1\n      0xd547741f\n      eq\n      tag_12\n      jumpi\n      dup1\n      0xdc048cf2\n      eq\n      tag_13\n      jumpi\n      dup1\n      0xfc0c546a\n      eq\n      tag_14\n      jumpi\n      jump(tag_2)\n    tag_15:\n      dup1\n      0x01ffc9a7\n      eq\n      tag_3\n      jumpi\n      dup1\n      0x0e296f17\n      eq\n      tag_4\n      jumpi\n      dup1\n      0x248a9ca3\n      eq\n      tag_5\n      jumpi\n      dup1\n      0x2f2ff15d\n      eq\n      tag_6\n      jumpi\n      dup1\n      0x36568abe\n      eq\n      tag_7\n      jumpi\n      dup1\n      0x3f1c2135\n      eq\n      tag_8\n      jumpi\n    tag_2:\n      0x00\n      dup1\n      revert\n        /* \"@openzeppelin/contracts/access/AccessControl.sol\":2606:2808  function supportsInterface(bytes4 interfaceId) public view virtual override returns (bool) {... */\n    tag_3:\n      tag_16\n      0x04\n      dup1\n      calldatasize\n      sub\n      dup2\n      add\n      swap1\n      tag_17\n      swap2\n      swap1\n      tag_18\n      jump\t// in\n    tag_17:\n      tag_19\n      jump\t// in\n    tag_16:\n      mload(0x40)\n      tag_20\n      swap2\n      swap1\n      tag_21\n      jump\t// in\n    tag_20:\n      mload(0x40)\n      dup1\n      swap2\n      sub\n      swap1\n      return\n        /* \"distributor.sol\":297:347  mapping(string => Participant) public Participants */\n    tag_4:\n      tag_22\n      0x04\n      dup1\n      calldatasize\n      sub\n      dup2\n      add\n      swap1\n      tag_23\n      swap2\n      swap1\n      tag_24\n      jump\t// in\n    tag_23:\n      tag_25\n      jump\t// in\n    tag_22:\n      mload(0x40)\n      tag_26\n      swap4\n      swap3\n      swap2\n      swap1\n      tag_27\n      jump\t// in\n    tag_26:\n      mload(0x40)\n      dup1\n      swap2\n      sub\n      swap1\n      return\n        /* \"@openzeppelin/contracts/access/AccessControl.sol\":4391:4520  function getRoleAdmin(bytes32 role) public view virtual override returns (bytes32) {... */\n    tag_5:\n      tag_28\n      0x04\n      dup1\n      calldatasize\n      sub\n      dup2\n      add\n      swap1\n      tag_29\n      swap2\n      swap1\n      tag_30\n      jump\t// in\n    tag_29:\n      tag_31\n      jump\t// in\n    tag_28:\n      mload(0x40)\n      tag_32\n      swap2\n      swap1\n      tag_33\n      jump\t// in\n    tag_32:\n      mload(0x40)\n      dup1\n      swap2\n      sub\n      swap1\n      return\n        /* \"@openzeppelin/contracts/access/AccessControl.sol\":4816:4961  function grantRole(bytes32 role, address account) public virtual override onlyRole(getRoleAdmin(role)) {... */\n    tag_6:\n      tag_34\n      0x04\n      dup1\n      calldatasize\n      sub\n      dup2\n      add\n      swap1\n      tag_35\n      swap2\n      swap1\n      tag_36\n      jump\t// in\n    tag_35:\n      tag_37\n      jump\t// in\n    tag_34:\n      stop\n        /* \"@openzeppelin/contracts/access/AccessControl.sol\":5925:6139  function renounceRole(bytes32 role, address account) public virtual override {... */\n    tag_7:\n      tag_38\n      0x04\n      dup1\n      calldatasize\n      sub\n      dup2\n      add\n      swap1\n      tag_39\n      swap2\n      swap1\n      tag_36\n      jump\t// in\n    tag_39:\n      tag_40\n      jump\t// in\n    tag_38:\n      stop\n        /* \"distributor.sol\":1709:2186  function repay(string memory diiaToken) public {... */\n    tag_8:\n      tag_41\n      0x04\n      dup1\n      calldatasize\n      sub\n      dup2\n      add\n      swap1\n      tag_42\n      swap2\n      swap1\n      tag_24\n      jump\t// in\n    tag_42:\n      tag_43\n      jump\t// in\n    tag_41:\n      stop\n        /* \"@openzeppelin/contracts/access/AccessControl.sol\":2895:3040  function hasRole(bytes32 role, address account) public view virtual override returns (bool) {... */\n    tag_9:\n      tag_44\n      0x04\n      dup1\n      calldatasize\n      sub\n      dup2\n      add\n      swap1\n      tag_45\n      swap2\n      swap1\n      tag_36\n      jump\t// in\n    tag_45:\n      tag_46\n      jump\t// in\n    tag_44:\n      mload(0x40)\n      tag_47\n      swap2\n      swap1\n      tag_21\n      jump\t// in\n    tag_47:\n      mload(0x40)\n      dup1\n      swap2\n      sub\n      swap1\n      return\n        /* \"@openzeppelin/contracts/access/AccessControl.sol\":2027:2076  bytes32 public constant DEFAULT_ADMIN_ROLE = 0x00 */\n    tag_10:\n      tag_48\n      tag_49\n      jump\t// in\n    tag_48:\n      mload(0x40)\n      tag_50\n      swap2\n      swap1\n      tag_33\n      jump\t// in\n    tag_50:\n      mload(0x40)\n      dup1\n      swap2\n      sub\n      swap1\n      return\n        /* \"distributor.sol\":606:933  function addAdress(string memory diiaToken) external {... */\n    tag_11:\n      tag_51\n      0x04\n      dup1\n      calldatasize\n      sub\n      dup2\n      add\n      swap1\n      tag_52\n      swap2\n      swap1\n      tag_24\n      jump\t// in\n    tag_52:\n      tag_53\n      jump\t// in\n    tag_51:\n      stop\n        /* \"@openzeppelin/contracts/access/AccessControl.sol\":5241:5388  function revokeRole(bytes32 role, address account) public virtual override onlyRole(getRoleAdmin(role)) {... */\n    tag_12:\n      tag_54\n      0x04\n      dup1\n      calldatasize\n      sub\n      dup2\n      add\n      swap1\n      tag_55\n      swap2\n      swap1\n      tag_36\n      jump\t// in\n    tag_55:\n      tag_56\n      jump\t// in\n    tag_54:\n      stop\n        /* \"distributor.sol\":939:1703  function withdraw(uint256 amount, string memory diiaToken) public {... */\n    tag_13:\n      tag_57\n      0x04\n      dup1\n      calldatasize\n      sub\n      dup2\n      add\n      swap1\n      tag_58\n      swap2\n      swap1\n      tag_59\n      jump\t// in\n    tag_58:\n      tag_60\n      jump\t// in\n    tag_57:\n      stop\n        /* \"distributor.sol\":230:250  address public token */\n    tag_14:\n      tag_61\n      tag_62\n      jump\t// in\n    tag_61:\n      mload(0x40)\n      tag_63\n      swap2\n      swap1\n      tag_64\n      jump\t// in\n    tag_63:\n      mload(0x40)\n      dup1\n      swap2\n      sub\n      swap1\n      return\n        /* \"@openzeppelin/contracts/access/AccessControl.sol\":2606:2808  function supportsInterface(bytes4 interfaceId) public view virtual override returns (bool) {... */\n    tag_19:\n        /* \"@openzeppelin/contracts/access/AccessControl.sol\":2691:2695  bool */\n      0x00\n        /* \"@openzeppelin/contracts/access/AccessControl.sol\":2729:2761  type(IAccessControl).interfaceId */\n      0x7965db0b00000000000000000000000000000000000000000000000000000000\n        /* \"@openzeppelin/contracts/access/AccessControl.sol\":2714:2761  interfaceId == type(IAccessControl).interfaceId */\n      not(0xffffffffffffffffffffffffffffffffffffffffffffffffffffffff)\n      and\n        /* \"@openzeppelin/contracts/access/AccessControl.sol\":2714:2725  interfaceId */\n      dup3\n        /* \"@openzeppelin/contracts/access/AccessControl.sol\":2714:2761  interfaceId == type(IAccessControl).interfaceId */\n      not(0xffffffffffffffffffffffffffffffffffffffffffffffffffffffff)\n      and\n      eq\n        /* \"@openzeppelin/contracts/access/AccessControl.sol\":2714:2801  interfaceId == type(IAccessControl).interfaceId || super.supportsInterface(interfaceId) */\n      dup1\n      tag_66\n      jumpi\n      pop\n        /* \"@openzeppelin/contracts/access/AccessControl.sol\":2765:2801  super.supportsInterface(interfaceId) */\n      tag_67\n        /* \"@openzeppelin/contracts/access/AccessControl.sol\":2789:2800  interfaceId */\n      dup3\n        /* \"@openzeppelin/contracts/access/AccessControl.sol\":2765:2788  super.supportsInterface */\n      tag_68\n        /* \"@openzeppelin/contracts/access/AccessControl.sol\":2765:2801  super.supportsInterface(interfaceId) */\n      jump\t// in\n    tag_67:\n        /* \"@openzeppelin/contracts/access/AccessControl.sol\":2714:2801  interfaceId == type(IAccessControl).interfaceId || super.supportsInterface(interfaceId) */\n    tag_66:\n        /* \"@openzeppelin/contracts/access/AccessControl.sol\":2707:2801  return interfaceId == type(IAccessControl).interfaceId || super.supportsInterface(interfaceId) */\n      swap1\n      pop\n        /* \"@openzeppelin/contracts/access/AccessControl.sol\":2606:2808  function supportsInterface(bytes4 interfaceId) public view virtual override returns (bool) {... */\n      swap2\n      swap1\n      pop\n      jump\t// out\n        /* \"distributor.sol\":297:347  mapping(string => Participant) public Participants */\n    tag_25:\n      0x03\n      dup2\n      dup1\n      mload\n      0x20\n      dup2\n      add\n      dup3\n      add\n      dup1\n      mload\n      dup5\n      dup3\n      mstore\n      0x20\n      dup4\n      add\n      0x20\n      dup6\n      add\n      keccak256\n      dup2\n      dup4\n      mstore\n      dup1\n      swap6\n      pop\n      pop\n      pop\n      pop\n      pop\n      pop\n      0x00\n      swap2\n      pop\n      swap1\n      pop\n      dup1\n      0x00\n      add\n      sload\n      swap1\n      dup1\n      0x01\n      add\n      sload\n      swap1\n      dup1\n      0x02\n      add\n      sload\n      swap1\n      pop\n      dup4\n      jump\t// out\n        /* \"@openzeppelin/contracts/access/AccessControl.sol\":4391:4520  function getRoleAdmin(bytes32 role) public view virtual override returns (bytes32) {... */\n    tag_31:\n        /* \"@openzeppelin/contracts/access/AccessControl.sol\":4465:4472  bytes32 */\n      0x00\n        /* \"@openzeppelin/contracts/access/AccessControl.sol\":4491:4497  _roles */\n      dup1\n        /* \"@openzeppelin/contracts/access/AccessControl.sol\":4491:4503  _roles[role] */\n      0x00\n        /* \"@openzeppelin/contracts/access/AccessControl.sol\":4498:4502  role */\n      dup4\n        /* \"@openzeppelin/contracts/access/AccessControl.sol\":4491:4503  _roles[role] */\n      dup2\n      mstore\n      0x20\n      add\n      swap1\n      dup2\n      mstore\n      0x20\n      add\n      0x00\n      keccak256\n        /* \"@openzeppelin/contracts/access/AccessControl.sol\":4491:4513  _roles[role].adminRole */\n      0x01\n      add\n      sload\n        /* \"@openzeppelin/contracts/access/AccessControl.sol\":4484:4513  return _roles[role].adminRole */\n      swap1\n      pop\n        /* \"@openzeppelin/contracts/access/AccessControl.sol\":4391:4520  function getRoleAdmin(bytes32 role) public view virtual override returns (bytes32) {... */\n      swap2\n      swap1\n      pop\n      jump\t// out\n        /* \"@openzeppelin/contracts/access/AccessControl.sol\":4816:4961  function grantRole(bytes32 role, address account) public virtual override onlyRole(getRoleAdmin(role)) {... */\n    tag_37:\n        /* \"@openzeppelin/contracts/access/AccessControl.sol\":4899:4917  getRoleAdmin(role) */\n      tag_70\n        /* \"@openzeppelin/contracts/access/AccessControl.sol\":4912:4916  role */\n      dup3\n        /* \"@openzeppelin/contracts/access/AccessControl.sol\":4899:4911  getRoleAdmin */\n      tag_31\n        /* \"@openzeppelin/contracts/access/AccessControl.sol\":4899:4917  getRoleAdmin(role) */\n      jump\t// in\n    tag_70:\n        /* \"@openzeppelin/contracts/access/AccessControl.sol\":2505:2521  _checkRole(role) */\n      tag_72\n        /* \"@openzeppelin/contracts/access/AccessControl.sol\":2516:2520  role */\n      dup2\n        /* \"@openzeppelin/contracts/access/AccessControl.sol\":2505:2515  _checkRole */\n      tag_73\n        /* \"@openzeppelin/contracts/access/AccessControl.sol\":2505:2521  _checkRole(role) */\n      jump\t// in\n    tag_72:\n        /* \"@openzeppelin/contracts/access/AccessControl.sol\":4929:4954  _grantRole(role, account) */\n      tag_75\n        /* \"@openzeppelin/contracts/access/AccessControl.sol\":4940:4944  role */\n      dup4\n        /* \"@openzeppelin/contracts/access/AccessControl.sol\":4946:4953  account */\n      dup4\n        /* \"@openzeppelin/contracts/access/AccessControl.sol\":4929:4939  _grantRole */\n      tag_76\n        /* \"@openzeppelin/contracts/access/AccessControl.sol\":4929:4954  _grantRole(role, account) */\n      jump\t// in\n    tag_75:\n        /* \"@openzeppelin/contracts/access/AccessControl.sol\":4816:4961  function grantRole(bytes32 role, address account) public virtual override onlyRole(getRoleAdmin(role)) {... */\n      pop\n      pop\n      pop\n      jump\t// out\n        /* \"@openzeppelin/contracts/access/AccessControl.sol\":5925:6139  function renounceRole(bytes32 role, address account) public virtual override {... */\n    tag_40:\n        /* \"@openzeppelin/contracts/access/AccessControl.sol\":6031:6043  _msgSender() */\n      tag_78\n        /* \"@openzeppelin/contracts/access/AccessControl.sol\":6031:6041  _msgSender */\n      tag_79\n        /* \"@openzeppelin/contracts/access/AccessControl.sol\":6031:6043  _msgSender() */\n      jump\t// in\n    tag_78:\n        /* \"@openzeppelin/contracts/access/AccessControl.sol\":6020:6043  account == _msgSender() */\n      0xffffffffffffffffffffffffffffffffffffffff\n      and\n        /* \"@openzeppelin/contracts/access/AccessControl.sol\":6020:6027  account */\n      dup2\n        /* \"@openzeppelin/contracts/access/AccessControl.sol\":6020:6043  account == _msgSender() */\n      0xffffffffffffffffffffffffffffffffffffffff\n      and\n      eq\n        /* \"@openzeppelin/contracts/access/AccessControl.sol\":6012:6095  require(account == _msgSender(), \"AccessControl: can only renounce roles for self\") */\n      tag_80\n      jumpi\n      mload(0x40)\n      0x08c379a000000000000000000000000000000000000000000000000000000000\n      dup2\n      mstore\n      0x04\n      add\n      tag_81\n      swap1\n      tag_82\n      jump\t// in\n    tag_81:\n      mload(0x40)\n      dup1\n      swap2\n      sub\n      swap1\n      revert\n    tag_80:\n        /* \"@openzeppelin/contracts/access/AccessControl.sol\":6106:6132  _revokeRole(role, account) */\n      tag_83\n        /* \"@openzeppelin/contracts/access/AccessControl.sol\":6118:6122  role */\n      dup3\n        /* \"@openzeppelin/contracts/access/AccessControl.sol\":6124:6131  account */\n      dup3\n        /* \"@openzeppelin/contracts/access/AccessControl.sol\":6106:6117  _revokeRole */\n      tag_84\n        /* \"@openzeppelin/contracts/access/AccessControl.sol\":6106:6132  _revokeRole(role, account) */\n      jump\t// in\n    tag_83:\n        /* \"@openzeppelin/contracts/access/AccessControl.sol\":5925:6139  function renounceRole(bytes32 role, address account) public virtual override {... */\n      pop\n      pop\n      jump\t// out\n        /* \"distributor.sol\":1709:2186  function repay(string memory diiaToken) public {... */\n    tag_43:\n        /* \"distributor.sol\":1766:1778  uint256 owed */\n      0x00\n        /* \"distributor.sol\":1781:1793  Participants */\n      0x03\n        /* \"distributor.sol\":1794:1803  diiaToken */\n      dup3\n        /* \"distributor.sol\":1781:1804  Participants[diiaToken] */\n      mload(0x40)\n      tag_86\n      swap2\n      swap1\n      tag_87\n      jump\t// in\n    tag_86:\n      swap1\n      dup2\n      mstore\n      0x20\n      add\n      mload(0x40)\n      dup1\n      swap2\n      sub\n      swap1\n      keccak256\n        /* \"distributor.sol\":1781:1818  Participants[diiaToken].currentlyOwed */\n      0x01\n      add\n      sload\n        /* \"distributor.sol\":1766:1818  uint256 owed = Participants[diiaToken].currentlyOwed */\n      swap1\n      pop\n        /* \"distributor.sol\":1842:1847  token */\n      0x01\n      0x00\n      swap1\n      sload\n      swap1\n      0x0100\n      exp\n      swap1\n      div\n      0xffffffffffffffffffffffffffffffffffffffff\n      and\n        /* \"distributor.sol\":1836:1861  ERC20(token).transferFrom */\n      0xffffffffffffffffffffffffffffffffffffffff\n      and\n      0x23b872dd\n        /* \"distributor.sol\":1862:1872  msg.sender */\n      caller\n        /* \"distributor.sol\":1882:1886  this */\n      address\n        /* \"distributor.sol\":1889:1893  owed */\n      dup5\n        /* \"distributor.sol\":1836:1894  ERC20(token).transferFrom(msg.sender, address(this), owed) */\n      mload(0x40)\n      dup5\n      0xffffffff\n      and\n      0xe0\n      shl\n      dup2\n      mstore\n      0x04\n      add\n      tag_88\n      swap4\n      swap3\n      swap2\n      swap1\n      tag_89\n      jump\t// in\n    tag_88:\n      0x20\n      mload(0x40)\n      dup1\n      dup4\n      sub\n      dup2\n      0x00\n      dup8\n      dup1\n      extcodesize\n      iszero\n      dup1\n      iszero\n      tag_90\n      jumpi\n      0x00\n      dup1\n      revert\n    tag_90:\n      pop\n      gas\n      call\n      iszero\n      dup1\n      iszero\n      tag_92\n      jumpi\n      returndatasize\n      0x00\n      dup1\n      returndatacopy\n      revert(0x00, returndatasize)\n    tag_92:\n      pop\n      pop\n      pop\n      pop\n      mload(0x40)\n      returndatasize\n      not(0x1f)\n      0x1f\n      dup3\n      add\n      and\n      dup3\n      add\n      dup1\n      0x40\n      mstore\n      pop\n      dup2\n      add\n      swap1\n      tag_93\n      swap2\n      swap1\n      tag_94\n      jump\t// in\n    tag_93:\n        /* \"distributor.sol\":1828:1911  require(ERC20(token).transferFrom(msg.sender, address(this), owed), \"failed repay\") */\n      tag_95\n      jumpi\n      mload(0x40)\n      0x08c379a000000000000000000000000000000000000000000000000000000000\n      dup2\n      mstore\n      0x04\n      add\n      tag_96\n      swap1\n      tag_97\n      jump\t// in\n    tag_96:\n      mload(0x40)\n      dup1\n      swap2\n      sub\n      swap1\n      revert\n    tag_95:\n        /* \"distributor.sol\":1922:1938  uint256 newLimit */\n      0x00\n        /* \"distributor.sol\":1986:1989  100 */\n      0x64\n        /* \"distributor.sol\":1980:1983  105 */\n      0x69\n        /* \"distributor.sol\":1941:1953  Participants */\n      0x03\n        /* \"distributor.sol\":1954:1963  diiaToken */\n      dup6\n        /* \"distributor.sol\":1941:1964  Participants[diiaToken] */\n      mload(0x40)\n      tag_98\n      swap2\n      swap1\n      tag_87\n      jump\t// in\n    tag_98:\n      swap1\n      dup2\n      mstore\n      0x20\n      add\n      mload(0x40)\n      dup1\n      swap2\n      sub\n      swap1\n      keccak256\n        /* \"distributor.sol\":1941:1977  Participants[diiaToken].currentLimit */\n      0x00\n      add\n      sload\n        /* \"distributor.sol\":1941:1983  Participants[diiaToken].currentLimit * 105 */\n      tag_99\n      swap2\n      swap1\n      tag_100\n      jump\t// in\n    tag_99:\n        /* \"distributor.sol\":1941:1989  Participants[diiaToken].currentLimit * 105 / 100 */\n      tag_101\n      swap2\n      swap1\n      tag_102\n      jump\t// in\n    tag_101:\n        /* \"distributor.sol\":1922:1989  uint256 newLimit = Participants[diiaToken].currentLimit * 105 / 100 */\n      swap1\n      pop\n        /* \"distributor.sol\":2016:2024  maxLimit */\n      sload(0x02)\n        /* \"distributor.sol\":2005:2013  newLimit */\n      dup2\n        /* \"distributor.sol\":2005:2024  newLimit > maxLimit */\n      gt\n        /* \"distributor.sol\":2000:2071  if ( newLimit > maxLimit ) {... */\n      iszero\n      tag_103\n      jumpi\n        /* \"distributor.sol\":2052:2060  maxLimit */\n      sload(0x02)\n        /* \"distributor.sol\":2041:2060  newLimit = maxLimit */\n      swap1\n      pop\n        /* \"distributor.sol\":2000:2071  if ( newLimit > maxLimit ) {... */\n    tag_103:\n        /* \"distributor.sol\":2120:2128  newLimit */\n      dup1\n        /* \"distributor.sol\":2081:2093  Participants */\n      0x03\n        /* \"distributor.sol\":2094:2103  diiaToken */\n      dup5\n        /* \"distributor.sol\":2081:2104  Participants[diiaToken] */\n      mload(0x40)\n      tag_104\n      swap2\n      swap1\n      tag_87\n      jump\t// in\n    tag_104:\n      swap1\n      dup2\n      mstore\n      0x20\n      add\n      mload(0x40)\n      dup1\n      swap2\n      sub\n      swap1\n      keccak256\n        /* \"distributor.sol\":2081:2117  Participants[diiaToken].currentLimit */\n      0x00\n      add\n        /* \"distributor.sol\":2081:2128  Participants[diiaToken].currentLimit = newLimit */\n      dup2\n      swap1\n      sstore\n      pop\n        /* \"distributor.sol\":2178:2179  0 */\n      0x00\n        /* \"distributor.sol\":2138:2150  Participants */\n      0x03\n        /* \"distributor.sol\":2151:2160  diiaToken */\n      dup5\n        /* \"distributor.sol\":2138:2161  Participants[diiaToken] */\n      mload(0x40)\n      tag_105\n      swap2\n      swap1\n      tag_87\n      jump\t// in\n    tag_105:\n      swap1\n      dup2\n      mstore\n      0x20\n      add\n      mload(0x40)\n      dup1\n      swap2\n      sub\n      swap1\n      keccak256\n        /* \"distributor.sol\":2138:2175  Participants[diiaToken].currentlyOwed */\n      0x01\n      add\n        /* \"distributor.sol\":2138:2179  Participants[diiaToken].currentlyOwed = 0 */\n      dup2\n      swap1\n      sstore\n      pop\n        /* \"distributor.sol\":1756:2186  {... */\n      pop\n      pop\n        /* \"distributor.sol\":1709:2186  function repay(string memory diiaToken) public {... */\n      pop\n      jump\t// out\n        /* \"@openzeppelin/contracts/access/AccessControl.sol\":2895:3040  function hasRole(bytes32 role, address account) public view virtual override returns (bool) {... */\n    tag_46:\n        /* \"@openzeppelin/contracts/access/AccessControl.sol\":2981:2985  bool */\n      0x00\n        /* \"@openzeppelin/contracts/access/AccessControl.sol\":3004:3010  _roles */\n      dup1\n        /* \"@openzeppelin/contracts/access/AccessControl.sol\":3004:3016  _roles[role] */\n      0x00\n        /* \"@openzeppelin/contracts/access/AccessControl.sol\":3011:3015  role */\n      dup5\n        /* \"@openzeppelin/contracts/access/AccessControl.sol\":3004:3016  _roles[role] */\n      dup2\n      mstore\n      0x20\n      add\n      swap1\n      dup2\n      mstore\n      0x20\n      add\n      0x00\n      keccak256\n        /* \"@openzeppelin/contracts/access/AccessControl.sol\":3004:3024  _roles[role].members */\n      0x00\n      add\n        /* \"@openzeppelin/contracts/access/AccessControl.sol\":3004:3033  _roles[role].members[account] */\n      0x00\n        /* \"@openzeppelin/contracts/access/AccessControl.sol\":3025:3032  account */\n      dup4\n        /* \"@openzeppelin/contracts/access/AccessControl.sol\":3004:3033  _roles[role].members[account] */\n      0xffffffffffffffffffffffffffffffffffffffff\n      and\n      0xffffffffffffffffffffffffffffffffffffffff\n      and\n      dup2\n      mstore\n      0x20\n      add\n      swap1\n      dup2\n      mstore\n      0x20\n      add\n      0x00\n      keccak256\n      0x00\n      swap1\n      sload\n      swap1\n      0x0100\n      exp\n      swap1\n      div\n      0xff\n      and\n        /* \"@openzeppelin/contracts/access/AccessControl.sol\":2997:3033  return _roles[role].members[account] */\n      swap1\n      pop\n        /* \"@openzeppelin/contracts/access/AccessControl.sol\":2895:3040  function hasRole(bytes32 role, address account) public view virtual override returns (bool) {... */\n      swap3\n      swap2\n      pop\n      pop\n      jump\t// out\n        /* \"@openzeppelin/contracts/access/AccessControl.sol\":2027:2076  bytes32 public constant DEFAULT_ADMIN_ROLE = 0x00 */\n    tag_49:\n        /* \"@openzeppelin/contracts/access/AccessControl.sol\":2072:2076  0x00 */\n      0x00\n        /* \"@openzeppelin/contracts/access/AccessControl.sol\":2027:2076  bytes32 public constant DEFAULT_ADMIN_ROLE = 0x00 */\n      dup1\n      shl\n      dup2\n      jump\t// out\n        /* \"distributor.sol\":606:933  function addAdress(string memory diiaToken) external {... */\n    tag_53:\n        /* \"distributor.sol\":677:716  hasRole(DEFAULT_ADMIN_ROLE, msg.sender) */\n      tag_108\n        /* \"@openzeppelin/contracts/access/AccessControl.sol\":2072:2076  0x00 */\n      0x00\n        /* \"distributor.sol\":685:703  DEFAULT_ADMIN_ROLE */\n      dup1\n      shl\n        /* \"distributor.sol\":705:715  msg.sender */\n      caller\n        /* \"distributor.sol\":677:684  hasRole */\n      tag_46\n        /* \"distributor.sol\":677:716  hasRole(DEFAULT_ADMIN_ROLE, msg.sender) */\n      jump\t// in\n    tag_108:\n        /* \"distributor.sol\":669:748  require(hasRole(DEFAULT_ADMIN_ROLE, msg.sender), \"caller is not administrator\") */\n      tag_109\n      jumpi\n      mload(0x40)\n      0x08c379a000000000000000000000000000000000000000000000000000000000\n      dup2\n      mstore\n      0x04\n      add\n      tag_110\n      swap1\n      tag_111\n      jump\t// in\n    tag_110:\n      mload(0x40)\n      dup1\n      swap2\n      sub\n      swap1\n      revert\n    tag_109:\n        /* \"distributor.sol\":785:926  Participant({... */\n      mload(0x40)\n      dup1\n      0x60\n      add\n      0x40\n      mstore\n      dup1\n        /* \"distributor.sol\":907:915  maxLimit */\n      sload(0x02)\n        /* \"distributor.sol\":785:926  Participant({... */\n      dup2\n      mstore\n      0x20\n      add\n        /* \"distributor.sol\":878:879  0 */\n      0x00\n        /* \"distributor.sol\":785:926  Participant({... */\n      dup2\n      mstore\n      0x20\n      add\n        /* \"distributor.sol\":837:849  block.number */\n      number\n        /* \"distributor.sol\":785:926  Participant({... */\n      dup2\n      mstore\n      pop\n        /* \"distributor.sol\":759:771  Participants */\n      0x03\n        /* \"distributor.sol\":772:781  diiaToken */\n      dup3\n        /* \"distributor.sol\":759:782  Participants[diiaToken] */\n      mload(0x40)\n      tag_112\n      swap2\n      swap1\n      tag_87\n      jump\t// in\n    tag_112:\n      swap1\n      dup2\n      mstore\n      0x20\n      add\n      mload(0x40)\n      dup1\n      swap2\n      sub\n      swap1\n      keccak256\n        /* \"distributor.sol\":759:926  Participants[diiaToken] = Participant({... */\n      0x00\n      dup3\n      add\n      mload\n      dup2\n      0x00\n      add\n      sstore\n      0x20\n      dup3\n      add\n      mload\n      dup2\n      0x01\n      add\n      sstore\n      0x40\n      dup3\n      add\n      mload\n      dup2\n      0x02\n      add\n      sstore\n      swap1\n      pop\n      pop\n        /* \"distributor.sol\":606:933  function addAdress(string memory diiaToken) external {... */\n      pop\n      jump\t// out\n        /* \"@openzeppelin/contracts/access/AccessControl.sol\":5241:5388  function revokeRole(bytes32 role, address account) public virtual override onlyRole(getRoleAdmin(role)) {... */\n    tag_56:\n        /* \"@openzeppelin/contracts/access/AccessControl.sol\":5325:5343  getRoleAdmin(role) */\n      tag_113\n        /* \"@openzeppelin/contracts/access/AccessControl.sol\":5338:5342  role */\n      dup3\n        /* \"@openzeppelin/contracts/access/AccessControl.sol\":5325:5337  getRoleAdmin */\n      tag_31\n        /* \"@openzeppelin/contracts/access/AccessControl.sol\":5325:5343  getRoleAdmin(role) */\n      jump\t// in\n    tag_113:\n        /* \"@openzeppelin/contracts/access/AccessControl.sol\":2505:2521  _checkRole(role) */\n      tag_115\n        /* \"@openzeppelin/contracts/access/AccessControl.sol\":2516:2520  role */\n      dup2\n        /* \"@openzeppelin/contracts/access/AccessControl.sol\":2505:2515  _checkRole */\n      tag_73\n        /* \"@openzeppelin/contracts/access/AccessControl.sol\":2505:2521  _checkRole(role) */\n      jump\t// in\n    tag_115:\n        /* \"@openzeppelin/contracts/access/AccessControl.sol\":5355:5381  _revokeRole(role, account) */\n      tag_117\n        /* \"@openzeppelin/contracts/access/AccessControl.sol\":5367:5371  role */\n      dup4\n        /* \"@openzeppelin/contracts/access/AccessControl.sol\":5373:5380  account */\n      dup4\n        /* \"@openzeppelin/contracts/access/AccessControl.sol\":5355:5366  _revokeRole */\n      tag_84\n        /* \"@openzeppelin/contracts/access/AccessControl.sol\":5355:5381  _revokeRole(role, account) */\n      jump\t// in\n    tag_117:\n        /* \"@openzeppelin/contracts/access/AccessControl.sol\":5241:5388  function revokeRole(bytes32 role, address account) public virtual override onlyRole(getRoleAdmin(role)) {... */\n      pop\n      pop\n      pop\n      jump\t// out\n        /* \"distributor.sol\":939:1703  function withdraw(uint256 amount, string memory diiaToken) public {... */\n    tag_60:\n        /* \"distributor.sol\":1015:1030  uint256 balance */\n      0x00\n        /* \"distributor.sol\":1039:1044  token */\n      0x01\n      0x00\n      swap1\n      sload\n      swap1\n      0x0100\n      exp\n      swap1\n      div\n      0xffffffffffffffffffffffffffffffffffffffff\n      and\n        /* \"distributor.sol\":1033:1055  ERC20(token).balanceOf */\n      0xffffffffffffffffffffffffffffffffffffffff\n      and\n      0x70a08231\n        /* \"distributor.sol\":1064:1068  this */\n      address\n        /* \"distributor.sol\":1033:1070  ERC20(token).balanceOf(address(this)) */\n      mload(0x40)\n      dup3\n      0xffffffff\n      and\n      0xe0\n      shl\n      dup2\n      mstore\n      0x04\n      add\n      tag_119\n      swap2\n      swap1\n      tag_64\n      jump\t// in\n    tag_119:\n      0x20\n      mload(0x40)\n      dup1\n      dup4\n      sub\n      dup2\n      dup7\n      dup1\n      extcodesize\n      iszero\n      dup1\n      iszero\n      tag_120\n      jumpi\n      0x00\n      dup1\n      revert\n    tag_120:\n      pop\n      gas\n      staticcall\n      iszero\n      dup1\n      iszero\n      tag_122\n      jumpi\n      returndatasize\n      0x00\n      dup1\n      returndatacopy\n      revert(0x00, returndatasize)\n    tag_122:\n      pop\n      pop\n      pop\n      pop\n      mload(0x40)\n      returndatasize\n      not(0x1f)\n      0x1f\n      dup3\n      add\n      and\n      dup3\n      add\n      dup1\n      0x40\n      mstore\n      pop\n      dup2\n      add\n      swap1\n      tag_123\n      swap2\n      swap1\n      tag_124\n      jump\t// in\n    tag_123:\n        /* \"distributor.sol\":1015:1070  uint256 balance = ERC20(token).balanceOf(address(this)) */\n      swap1\n      pop\n        /* \"distributor.sol\":1098:1104  amount */\n      dup3\n        /* \"distributor.sol\":1088:1095  balance */\n      dup2\n        /* \"distributor.sol\":1088:1104  balance > amount */\n      gt\n        /* \"distributor.sol\":1080:1137  require(balance > amount, \"not enough funds in contract\") */\n      tag_125\n      jumpi\n      mload(0x40)\n      0x08c379a000000000000000000000000000000000000000000000000000000000\n      dup2\n      mstore\n      0x04\n      add\n      tag_126\n      swap1\n      tag_127\n      jump\t// in\n    tag_126:\n      mload(0x40)\n      dup1\n      swap2\n      sub\n      swap1\n      revert\n    tag_125:\n        /* \"distributor.sol\":1148:1171  Participant memory user */\n      0x00\n        /* \"distributor.sol\":1174:1186  Participants */\n      0x03\n        /* \"distributor.sol\":1187:1196  diiaToken */\n      dup4\n        /* \"distributor.sol\":1174:1197  Participants[diiaToken] */\n      mload(0x40)\n      tag_128\n      swap2\n      swap1\n      tag_87\n      jump\t// in\n    tag_128:\n      swap1\n      dup2\n      mstore\n      0x20\n      add\n      mload(0x40)\n      dup1\n      swap2\n      sub\n      swap1\n      keccak256\n        /* \"distributor.sol\":1148:1197  Participant memory user = Participants[diiaToken] */\n      mload(0x40)\n      dup1\n      0x60\n      add\n      0x40\n      mstore\n      swap1\n      dup2\n      0x00\n      dup3\n      add\n      sload\n      dup2\n      mstore\n      0x20\n      add\n      0x01\n      dup3\n      add\n      sload\n      dup2\n      mstore\n      0x20\n      add\n      0x02\n      dup3\n      add\n      sload\n      dup2\n      mstore\n      pop\n      pop\n      swap1\n      pop\n        /* \"distributor.sol\":1247:1259  block.number */\n      number\n        /* \"distributor.sol\":1215:1219  user */\n      dup2\n        /* \"distributor.sol\":1215:1244  user.nextAllowedWithdrawBlock */\n      0x40\n      add\n      mload\n        /* \"distributor.sol\":1215:1259  user.nextAllowedWithdrawBlock > block.number */\n      gt\n        /* \"distributor.sol\":1207:1304  require(user.nextAllowedWithdrawBlock > block.number, \"caller is not eligible for next withdraw\") */\n      tag_129\n      jumpi\n      mload(0x40)\n      0x08c379a000000000000000000000000000000000000000000000000000000000\n      dup2\n      mstore\n      0x04\n      add\n      tag_130\n      swap1\n      tag_131\n      jump\t// in\n    tag_130:\n      mload(0x40)\n      dup1\n      swap2\n      sub\n      swap1\n      revert\n    tag_129:\n        /* \"distributor.sol\":1342:1348  amount */\n      dup4\n        /* \"distributor.sol\":1322:1326  user */\n      dup2\n        /* \"distributor.sol\":1322:1339  user.currentLimit */\n      0x00\n      add\n      mload\n        /* \"distributor.sol\":1322:1348  user.currentLimit > amount */\n      gt\n        /* \"distributor.sol\":1314:1395  require(user.currentLimit > amount, \"caller is not eligible for withdraw amount\") */\n      tag_132\n      jumpi\n      mload(0x40)\n      0x08c379a000000000000000000000000000000000000000000000000000000000\n      dup2\n      mstore\n      0x04\n      add\n      tag_133\n      swap1\n      tag_134\n      jump\t// in\n    tag_133:\n      mload(0x40)\n      dup1\n      swap2\n      sub\n      swap1\n      revert\n    tag_132:\n        /* \"distributor.sol\":1454:1460  amount */\n      dup4\n        /* \"distributor.sol\":1434:1438  user */\n      dup2\n        /* \"distributor.sol\":1434:1451  user.currentLimit */\n      0x00\n      add\n      mload\n        /* \"distributor.sol\":1434:1460  user.currentLimit - amount */\n      tag_135\n      swap2\n      swap1\n      tag_136\n      jump\t// in\n    tag_135:\n        /* \"distributor.sol\":1413:1417  user */\n      dup2\n        /* \"distributor.sol\":1413:1431  user.currentlyOwed */\n      0x20\n      add\n      mload\n        /* \"distributor.sol\":1413:1460  user.currentlyOwed < user.currentLimit - amount */\n      lt\n        /* \"distributor.sol\":1405:1507  require(user.currentlyOwed < user.currentLimit - amount, \"caller is not eligible for withdraw amount\") */\n      tag_137\n      jumpi\n      mload(0x40)\n      0x08c379a000000000000000000000000000000000000000000000000000000000\n      dup2\n      mstore\n      0x04\n      add\n      tag_138\n      swap1\n      tag_134\n      jump\t// in\n    tag_138:\n      mload(0x40)\n      dup1\n      swap2\n      sub\n      swap1\n      revert\n    tag_137:\n        /* \"distributor.sol\":1531:1536  token */\n      0x01\n      0x00\n      swap1\n      sload\n      swap1\n      0x0100\n      exp\n      swap1\n      div\n      0xffffffffffffffffffffffffffffffffffffffff\n      and\n        /* \"distributor.sol\":1525:1546  ERC20(token).transfer */\n      0xffffffffffffffffffffffffffffffffffffffff\n      and\n      0xa9059cbb\n        /* \"distributor.sol\":1547:1557  msg.sender */\n      caller\n        /* \"distributor.sol\":1559:1565  amount */\n      dup7\n        /* \"distributor.sol\":1525:1566  ERC20(token).transfer(msg.sender, amount) */\n      mload(0x40)\n      dup4\n      0xffffffff\n      and\n      0xe0\n      shl\n      dup2\n      mstore\n      0x04\n      add\n      tag_139\n      swap3\n      swap2\n      swap1\n      tag_140\n      jump\t// in\n    tag_139:\n      0x20\n      mload(0x40)\n      dup1\n      dup4\n      sub\n      dup2\n      0x00\n      dup8\n      dup1\n      extcodesize\n      iszero\n      dup1\n      iszero\n      tag_141\n      jumpi\n      0x00\n      dup1\n      revert\n    tag_141:\n      pop\n      gas\n      call\n      iszero\n      dup1\n      iszero\n      tag_143\n      jumpi\n      returndatasize\n      0x00\n      dup1\n      returndatacopy\n      revert(0x00, returndatasize)\n    tag_143:\n      pop\n      pop\n      pop\n      pop\n      mload(0x40)\n      returndatasize\n      not(0x1f)\n      0x1f\n      dup3\n      add\n      and\n      dup3\n      add\n      dup1\n      0x40\n      mstore\n      pop\n      dup2\n      add\n      swap1\n      tag_144\n      swap2\n      swap1\n      tag_94\n      jump\t// in\n    tag_144:\n        /* \"distributor.sol\":1517:1586  require(ERC20(token).transfer(msg.sender, amount), \"withdraw failed\") */\n      tag_145\n      jumpi\n      mload(0x40)\n      0x08c379a000000000000000000000000000000000000000000000000000000000\n      dup2\n      mstore\n      0x04\n      add\n      tag_146\n      swap1\n      tag_147\n      jump\t// in\n    tag_146:\n      mload(0x40)\n      dup1\n      swap2\n      sub\n      swap1\n      revert\n    tag_145:\n        /* \"distributor.sol\":1627:1633  amount */\n      dup4\n        /* \"distributor.sol\":1605:1609  user */\n      dup2\n        /* \"distributor.sol\":1605:1623  user.currentlyOwed */\n      0x20\n      add\n        /* \"distributor.sol\":1605:1633  user.currentlyOwed += amount */\n      dup2\n      dup2\n      mload\n      tag_148\n      swap2\n      swap1\n      tag_149\n      jump\t// in\n    tag_148:\n      swap2\n      pop\n      dup2\n      dup2\n      mstore\n      pop\n      pop\n        /* \"distributor.sol\":1691:1696  67280 */\n      0x0106d0\n        /* \"distributor.sol\":1676:1688  block.number */\n      number\n        /* \"distributor.sol\":1676:1696  block.number + 67280 */\n      tag_150\n      swap2\n      swap1\n      tag_149\n      jump\t// in\n    tag_150:\n        /* \"distributor.sol\":1643:1647  user */\n      dup2\n        /* \"distributor.sol\":1643:1672  user.nextAllowedWithdrawBlock */\n      0x40\n      add\n        /* \"distributor.sol\":1643:1696  user.nextAllowedWithdrawBlock += block.number + 67280 */\n      dup2\n      dup2\n      mload\n      tag_151\n      swap2\n      swap1\n      tag_149\n      jump\t// in\n    tag_151:\n      swap2\n      pop\n      dup2\n      dup2\n      mstore\n      pop\n      pop\n        /* \"distributor.sol\":1005:1703  {... */\n      pop\n      pop\n        /* \"distributor.sol\":939:1703  function withdraw(uint256 amount, string memory diiaToken) public {... */\n      pop\n      pop\n      jump\t// out\n        /* \"distributor.sol\":230:250  address public token */\n    tag_62:\n      0x01\n      0x00\n      swap1\n      sload\n      swap1\n      0x0100\n      exp\n      swap1\n      div\n      0xffffffffffffffffffffffffffffffffffffffff\n      and\n      dup2\n      jump\t// out\n        /* \"@openzeppelin/contracts/utils/introspection/ERC165.sol\":829:984  function supportsInterface(bytes4 interfaceId) public view virtual override returns (bool) {... */\n    tag_68:\n        /* \"@openzeppelin/contracts/utils/introspection/ERC165.sol\":914:918  bool */\n      0x00\n        /* \"@openzeppelin/contracts/utils/introspection/ERC165.sol\":952:977  type(IERC165).interfaceId */\n      0x01ffc9a700000000000000000000000000000000000000000000000000000000\n        /* \"@openzeppelin/contracts/utils/introspection/ERC165.sol\":937:977  interfaceId == type(IERC165).interfaceId */\n      not(0xffffffffffffffffffffffffffffffffffffffffffffffffffffffff)\n      and\n        /* \"@openzeppelin/contracts/utils/introspection/ERC165.sol\":937:948  interfaceId */\n      dup3\n        /* \"@openzeppelin/contracts/utils/introspection/ERC165.sol\":937:977  interfaceId == type(IERC165).interfaceId */\n      not(0xffffffffffffffffffffffffffffffffffffffffffffffffffffffff)\n      and\n      eq\n        /* \"@openzeppelin/contracts/utils/introspection/ERC165.sol\":930:977  return interfaceId == type(IERC165).interfaceId */\n      swap1\n      pop\n        /* \"@openzeppelin/contracts/utils/introspection/ERC165.sol\":829:984  function supportsInterface(bytes4 interfaceId) public view virtual override returns (bool) {... */\n      swap2\n      swap1\n      pop\n      jump\t// out\n        /* \"@openzeppelin/contracts/access/AccessControl.sol\":3334:3437  function _checkRole(bytes32 role) internal view virtual {... */\n    tag_73:\n        /* \"@openzeppelin/contracts/access/AccessControl.sol\":3400:3430  _checkRole(role, _msgSender()) */\n      tag_154\n        /* \"@openzeppelin/contracts/access/AccessControl.sol\":3411:3415  role */\n      dup2\n        /* \"@openzeppelin/contracts/access/AccessControl.sol\":3417:3429  _msgSender() */\n      tag_155\n        /* \"@openzeppelin/contracts/access/AccessControl.sol\":3417:3427  _msgSender */\n      tag_79\n        /* \"@openzeppelin/contracts/access/AccessControl.sol\":3417:3429  _msgSender() */\n      jump\t// in\n    tag_155:\n        /* \"@openzeppelin/contracts/access/AccessControl.sol\":3400:3410  _checkRole */\n      tag_156\n        /* \"@openzeppelin/contracts/access/AccessControl.sol\":3400:3430  _checkRole(role, _msgSender()) */\n      jump\t// in\n    tag_154:\n        /* \"@openzeppelin/contracts/access/AccessControl.sol\":3334:3437  function _checkRole(bytes32 role) internal view virtual {... */\n      pop\n      jump\t// out\n        /* \"@openzeppelin/contracts/access/AccessControl.sol\":7474:7707  function _grantRole(bytes32 role, address account) internal virtual {... */\n    tag_76:\n        /* \"@openzeppelin/contracts/access/AccessControl.sol\":7557:7579  hasRole(role, account) */\n      tag_158\n        /* \"@openzeppelin/contracts/access/AccessControl.sol\":7565:7569  role */\n      dup3\n        /* \"@openzeppelin/contracts/access/AccessControl.sol\":7571:7578  account */\n      dup3\n        /* \"@openzeppelin/contracts/access/AccessControl.sol\":7557:7564  hasRole */\n      tag_46\n        /* \"@openzeppelin/contracts/access/AccessControl.sol\":7557:7579  hasRole(role, account) */\n      jump\t// in\n    tag_158:\n        /* \"@openzeppelin/contracts/access/AccessControl.sol\":7552:7701  if (!hasRole(role, account)) {... */\n      tag_159\n      jumpi\n        /* \"@openzeppelin/contracts/access/AccessControl.sol\":7627:7631  true */\n      0x01\n        /* \"@openzeppelin/contracts/access/AccessControl.sol\":7595:7601  _roles */\n      0x00\n        /* \"@openzeppelin/contracts/access/AccessControl.sol\":7595:7607  _roles[role] */\n      dup1\n        /* \"@openzeppelin/contracts/access/AccessControl.sol\":7602:7606  role */\n      dup5\n        /* \"@openzeppelin/contracts/access/AccessControl.sol\":7595:7607  _roles[role] */\n      dup2\n      mstore\n      0x20\n      add\n      swap1\n      dup2\n      mstore\n      0x20\n      add\n      0x00\n      keccak256\n        /* \"@openzeppelin/contracts/access/AccessControl.sol\":7595:7615  _roles[role].members */\n      0x00\n      add\n        /* \"@openzeppelin/contracts/access/AccessControl.sol\":7595:7624  _roles[role].members[account] */\n      0x00\n        /* \"@openzeppelin/contracts/access/AccessControl.sol\":7616:7623  account */\n      dup4\n        /* \"@openzeppelin/contracts/access/AccessControl.sol\":7595:7624  _roles[role].members[account] */\n      0xffffffffffffffffffffffffffffffffffffffff\n      and\n      0xffffffffffffffffffffffffffffffffffffffff\n      and\n      dup2\n      mstore\n      0x20\n      add\n      swap1\n      dup2\n      mstore\n      0x20\n      add\n      0x00\n      keccak256\n      0x00\n        /* \"@openzeppelin/contracts/access/AccessControl.sol\":7595:7631  _roles[role].members[account] = true */\n      0x0100\n      exp\n      dup2\n      sload\n      dup2\n      0xff\n      mul\n      not\n      and\n      swap1\n      dup4\n      iszero\n      iszero\n      mul\n      or\n      swap1\n      sstore\n      pop\n        /* \"@openzeppelin/contracts/access/AccessControl.sol\":7677:7689  _msgSender() */\n      tag_160\n        /* \"@openzeppelin/contracts/access/AccessControl.sol\":7677:7687  _msgSender */\n      tag_79\n        /* \"@openzeppelin/contracts/access/AccessControl.sol\":7677:7689  _msgSender() */\n      jump\t// in\n    tag_160:\n        /* \"@openzeppelin/contracts/access/AccessControl.sol\":7650:7690  RoleGranted(role, account, _msgSender()) */\n      0xffffffffffffffffffffffffffffffffffffffff\n      and\n        /* \"@openzeppelin/contracts/access/AccessControl.sol\":7668:7675  account */\n      dup2\n        /* \"@openzeppelin/contracts/access/AccessControl.sol\":7650:7690  RoleGranted(role, account, _msgSender()) */\n      0xffffffffffffffffffffffffffffffffffffffff\n      and\n        /* \"@openzeppelin/contracts/access/AccessControl.sol\":7662:7666  role */\n      dup4\n        /* \"@openzeppelin/contracts/access/AccessControl.sol\":7650:7690  RoleGranted(role, account, _msgSender()) */\n      0x2f8788117e7eff1d82e926ec794901d17c78024a50270940304540a733656f0d\n      mload(0x40)\n      mload(0x40)\n      dup1\n      swap2\n      sub\n      swap1\n      log4\n        /* \"@openzeppelin/contracts/access/AccessControl.sol\":7552:7701  if (!hasRole(role, account)) {... */\n    tag_159:\n        /* \"@openzeppelin/contracts/access/AccessControl.sol\":7474:7707  function _grantRole(bytes32 role, address account) internal virtual {... */\n      pop\n      pop\n      jump\t// out\n        /* \"@openzeppelin/contracts/utils/Context.sol\":640:736  function _msgSender() internal view virtual returns (address) {... */\n    tag_79:\n        /* \"@openzeppelin/contracts/utils/Context.sol\":693:700  address */\n      0x00\n        /* \"@openzeppelin/contracts/utils/Context.sol\":719:729  msg.sender */\n      caller\n        /* \"@openzeppelin/contracts/utils/Context.sol\":712:729  return msg.sender */\n      swap1\n      pop\n        /* \"@openzeppelin/contracts/utils/Context.sol\":640:736  function _msgSender() internal view virtual returns (address) {... */\n      swap1\n      jump\t// out\n        /* \"@openzeppelin/contracts/access/AccessControl.sol\":7878:8112  function _revokeRole(bytes32 role, address account) internal virtual {... */\n    tag_84:\n        /* \"@openzeppelin/contracts/access/AccessControl.sol\":7961:7983  hasRole(role, account) */\n      tag_163\n        /* \"@openzeppelin/contracts/access/AccessControl.sol\":7969:7973  role */\n      dup3\n        /* \"@openzeppelin/contracts/access/AccessControl.sol\":7975:7982  account */\n      dup3\n        /* \"@openzeppelin/contracts/access/AccessControl.sol\":7961:7968  hasRole */\n      tag_46\n        /* \"@openzeppelin/contracts/access/AccessControl.sol\":7961:7983  hasRole(role, account) */\n      jump\t// in\n    tag_163:\n        /* \"@openzeppelin/contracts/access/AccessControl.sol\":7957:8106  if (hasRole(role, account)) {... */\n      iszero\n      tag_164\n      jumpi\n        /* \"@openzeppelin/contracts/access/AccessControl.sol\":8031:8036  false */\n      0x00\n        /* \"@openzeppelin/contracts/access/AccessControl.sol\":7999:8005  _roles */\n      dup1\n        /* \"@openzeppelin/contracts/access/AccessControl.sol\":7999:8011  _roles[role] */\n      0x00\n        /* \"@openzeppelin/contracts/access/AccessControl.sol\":8006:8010  role */\n      dup5\n        /* \"@openzeppelin/contracts/access/AccessControl.sol\":7999:8011  _roles[role] */\n      dup2\n      mstore\n      0x20\n      add\n      swap1\n      dup2\n      mstore\n      0x20\n      add\n      0x00\n      keccak256\n        /* \"@openzeppelin/contracts/access/AccessControl.sol\":7999:8019  _roles[role].members */\n      0x00\n      add\n        /* \"@openzeppelin/contracts/access/AccessControl.sol\":7999:8028  _roles[role].members[account] */\n      0x00\n        /* \"@openzeppelin/contracts/access/AccessControl.sol\":8020:8027  account */\n      dup4\n        /* \"@openzeppelin/contracts/access/AccessControl.sol\":7999:8028  _roles[role].members[account] */\n      0xffffffffffffffffffffffffffffffffffffffff\n      and\n      0xffffffffffffffffffffffffffffffffffffffff\n      and\n      dup2\n      mstore\n      0x20\n      add\n      swap1\n      dup2\n      mstore\n      0x20\n      add\n      0x00\n      keccak256\n      0x00\n        /* \"@openzeppelin/contracts/access/AccessControl.sol\":7999:8036  _roles[role].members[account] = false */\n      0x0100\n      exp\n      dup2\n      sload\n      dup2\n      0xff\n      mul\n      not\n      and\n      swap1\n      dup4\n      iszero\n      iszero\n      mul\n      or\n      swap1\n      sstore\n      pop\n        /* \"@openzeppelin/contracts/access/AccessControl.sol\":8082:8094  _msgSender() */\n      tag_165\n        /* \"@openzeppelin/contracts/access/AccessControl.sol\":8082:8092  _msgSender */\n      tag_79\n        /* \"@openzeppelin/contracts/access/AccessControl.sol\":8082:8094  _msgSender() */\n      jump\t// in\n    tag_165:\n        /* \"@openzeppelin/contracts/access/AccessControl.sol\":8055:8095  RoleRevoked(role, account, _msgSender()) */\n      0xffffffffffffffffffffffffffffffffffffffff\n      and\n        /* \"@openzeppelin/contracts/access/AccessControl.sol\":8073:8080  account */\n      dup2\n        /* \"@openzeppelin/contracts/access/AccessControl.sol\":8055:8095  RoleRevoked(role, account, _msgSender()) */\n      0xffffffffffffffffffffffffffffffffffffffff\n      and\n        /* \"@openzeppelin/contracts/access/AccessControl.sol\":8067:8071  role */\n      dup4\n        /* \"@openzeppelin/contracts/access/AccessControl.sol\":8055:8095  RoleRevoked(role, account, _msgSender()) */\n      0xf6391f5c32d9c69d2a47ea670b442974b53935d1edc7fd64eb21e047a839171b\n      mload(0x40)\n      mload(0x40)\n      dup1\n      swap2\n      sub\n      swap1\n      log4\n        /* \"@openzeppelin/contracts/access/AccessControl.sol\":7957:8106  if (hasRole(role, account)) {... */\n    tag_164:\n        /* \"@openzeppelin/contracts/access/AccessControl.sol\":7878:8112  function _revokeRole(bytes32 role, address account) internal virtual {... */\n      pop\n      pop\n      jump\t// out\n        /* \"@openzeppelin/contracts/access/AccessControl.sol\":3718:4210  function _checkRole(bytes32 role, address account) internal view virtual {... */\n    tag_156:\n        /* \"@openzeppelin/contracts/access/AccessControl.sol\":3806:3828  hasRole(role, account) */\n      tag_167\n        /* \"@openzeppelin/contracts/access/AccessControl.sol\":3814:3818  role */\n      dup3\n        /* \"@openzeppelin/contracts/access/AccessControl.sol\":3820:3827  account */\n      dup3\n        /* \"@openzeppelin/contracts/access/AccessControl.sol\":3806:3813  hasRole */\n      tag_46\n        /* \"@openzeppelin/contracts/access/AccessControl.sol\":3806:3828  hasRole(role, account) */\n      jump\t// in\n    tag_167:\n        /* \"@openzeppelin/contracts/access/AccessControl.sol\":3801:4204  if (!hasRole(role, account)) {... */\n      tag_168\n      jumpi\n        /* \"@openzeppelin/contracts/access/AccessControl.sol\":3989:4030  Strings.toHexString(uint160(account), 20) */\n      tag_169\n        /* \"@openzeppelin/contracts/access/AccessControl.sol\":4017:4024  account */\n      dup2\n        /* \"@openzeppelin/contracts/access/AccessControl.sol\":3989:4030  Strings.toHexString(uint160(account), 20) */\n      0xffffffffffffffffffffffffffffffffffffffff\n      and\n        /* \"@openzeppelin/contracts/access/AccessControl.sol\":4027:4029  20 */\n      0x14\n        /* \"@openzeppelin/contracts/access/AccessControl.sol\":3989:4008  Strings.toHexString */\n      tag_170\n        /* \"@openzeppelin/contracts/access/AccessControl.sol\":3989:4030  Strings.toHexString(uint160(account), 20) */\n      jump\t// in\n    tag_169:\n        /* \"@openzeppelin/contracts/access/AccessControl.sol\":4101:4139  Strings.toHexString(uint256(role), 32) */\n      tag_171\n        /* \"@openzeppelin/contracts/access/AccessControl.sol\":4129:4133  role */\n      dup4\n        /* \"@openzeppelin/contracts/access/AccessControl.sol\":4121:4134  uint256(role) */\n      0x00\n      shr\n        /* \"@openzeppelin/contracts/access/AccessControl.sol\":4136:4138  32 */\n      0x20\n        /* \"@openzeppelin/contracts/access/AccessControl.sol\":4101:4120  Strings.toHexString */\n      tag_170\n        /* \"@openzeppelin/contracts/access/AccessControl.sol\":4101:4139  Strings.toHexString(uint256(role), 32) */\n      jump\t// in\n    tag_171:\n        /* \"@openzeppelin/contracts/access/AccessControl.sol\":3896:4161  abi.encodePacked(... */\n      add(0x20, mload(0x40))\n      tag_172\n      swap3\n      swap2\n      swap1\n      tag_173\n      jump\t// in\n    tag_172:\n      mload(0x40)\n      0x20\n      dup2\n      dup4\n      sub\n      sub\n      dup2\n      mstore\n      swap1\n      0x40\n      mstore\n        /* \"@openzeppelin/contracts/access/AccessControl.sol\":3844:4193  revert(... */\n      mload(0x40)\n      0x08c379a000000000000000000000000000000000000000000000000000000000\n      dup2\n      mstore\n      0x04\n      add\n      tag_174\n      swap2\n      swap1\n      tag_175\n      jump\t// in\n    tag_174:\n      mload(0x40)\n      dup1\n      swap2\n      sub\n      swap1\n      revert\n        /* \"@openzeppelin/contracts/access/AccessControl.sol\":3801:4204  if (!hasRole(role, account)) {... */\n    tag_168:\n        /* \"@openzeppelin/contracts/access/AccessControl.sol\":3718:4210  function _checkRole(bytes32 role, address account) internal view virtual {... */\n      pop\n      pop\n      jump\t// out\n        /* \"@openzeppelin/contracts/utils/Strings.sol\":1652:2093  function toHexString(uint256 value, uint256 length) internal pure returns (string memory) {... */\n    tag_170:\n        /* \"@openzeppelin/contracts/utils/Strings.sol\":1727:1740  string memory */\n      0x60\n        /* \"@openzeppelin/contracts/utils/Strings.sol\":1752:1771  bytes memory buffer */\n      0x00\n        /* \"@openzeppelin/contracts/utils/Strings.sol\":1797:1798  2 */\n      0x02\n        /* \"@openzeppelin/contracts/utils/Strings.sol\":1788:1794  length */\n      dup4\n        /* \"@openzeppelin/contracts/utils/Strings.sol\":1784:1785  2 */\n      0x02\n        /* \"@openzeppelin/contracts/utils/Strings.sol\":1784:1794  2 * length */\n      tag_177\n      swap2\n      swap1\n      tag_100\n      jump\t// in\n    tag_177:\n        /* \"@openzeppelin/contracts/utils/Strings.sol\":1784:1798  2 * length + 2 */\n      tag_178\n      swap2\n      swap1\n      tag_149\n      jump\t// in\n    tag_178:\n        /* \"@openzeppelin/contracts/utils/Strings.sol\":1774:1799  new bytes(2 * length + 2) */\n      0xffffffffffffffff\n      dup2\n      gt\n      iszero\n      tag_179\n      jumpi\n      tag_180\n      tag_181\n      jump\t// in\n    tag_180:\n    tag_179:\n      mload(0x40)\n      swap1\n      dup1\n      dup3\n      mstore\n      dup1\n      0x1f\n      add\n      not(0x1f)\n      and\n      0x20\n      add\n      dup3\n      add\n      0x40\n      mstore\n      dup1\n      iszero\n      tag_182\n      jumpi\n      dup2\n      0x20\n      add\n      0x01\n      dup3\n      mul\n      dup1\n      calldatasize\n      dup4\n      calldatacopy\n      dup1\n      dup3\n      add\n      swap2\n      pop\n      pop\n      swap1\n      pop\n    tag_182:\n      pop\n        /* \"@openzeppelin/contracts/utils/Strings.sol\":1752:1799  bytes memory buffer = new bytes(2 * length + 2) */\n      swap1\n      pop\n        /* \"@openzeppelin/contracts/utils/Strings.sol\":1809:1824  buffer[0] = \"0\" */\n      0x3000000000000000000000000000000000000000000000000000000000000000\n        /* \"@openzeppelin/contracts/utils/Strings.sol\":1809:1815  buffer */\n      dup2\n        /* \"@openzeppelin/contracts/utils/Strings.sol\":1816:1817  0 */\n      0x00\n        /* \"@openzeppelin/contracts/utils/Strings.sol\":1809:1818  buffer[0] */\n      dup2\n      mload\n      dup2\n      lt\n      tag_183\n      jumpi\n      tag_184\n      tag_185\n      jump\t// in\n    tag_184:\n    tag_183:\n      0x20\n      add\n      add\n        /* \"@openzeppelin/contracts/utils/Strings.sol\":1809:1824  buffer[0] = \"0\" */\n      swap1\n      not(0xffffffffffffffffffffffffffffffffffffffffffffffffffffffffffffff)\n      and\n      swap1\n      dup2\n      0x00\n      byte\n      swap1\n      mstore8\n      pop\n        /* \"@openzeppelin/contracts/utils/Strings.sol\":1834:1849  buffer[1] = \"x\" */\n      0x7800000000000000000000000000000000000000000000000000000000000000\n        /* \"@openzeppelin/contracts/utils/Strings.sol\":1834:1840  buffer */\n      dup2\n        /* \"@openzeppelin/contracts/utils/Strings.sol\":1841:1842  1 */\n      0x01\n        /* \"@openzeppelin/contracts/utils/Strings.sol\":1834:1843  buffer[1] */\n      dup2\n      mload\n      dup2\n      lt\n      tag_186\n      jumpi\n      tag_187\n      tag_185\n      jump\t// in\n    tag_187:\n    tag_186:\n      0x20\n      add\n      add\n        /* \"@openzeppelin/contracts/utils/Strings.sol\":1834:1849  buffer[1] = \"x\" */\n      swap1\n      not(0xffffffffffffffffffffffffffffffffffffffffffffffffffffffffffffff)\n      and\n      swap1\n      dup2\n      0x00\n      byte\n      swap1\n      mstore8\n      pop\n        /* \"@openzeppelin/contracts/utils/Strings.sol\":1864:1873  uint256 i */\n      0x00\n        /* \"@openzeppelin/contracts/utils/Strings.sol\":1889:1890  1 */\n      0x01\n        /* \"@openzeppelin/contracts/utils/Strings.sol\":1880:1886  length */\n      dup5\n        /* \"@openzeppelin/contracts/utils/Strings.sol\":1876:1877  2 */\n      0x02\n        /* \"@openzeppelin/contracts/utils/Strings.sol\":1876:1886  2 * length */\n      tag_191\n      swap2\n      swap1\n      tag_100\n      jump\t// in\n    tag_191:\n        /* \"@openzeppelin/contracts/utils/Strings.sol\":1876:1890  2 * length + 1 */\n      tag_192\n      swap2\n      swap1\n      tag_149\n      jump\t// in\n    tag_192:\n        /* \"@openzeppelin/contracts/utils/Strings.sol\":1864:1890  uint256 i = 2 * length + 1 */\n      swap1\n      pop\n        /* \"@openzeppelin/contracts/utils/Strings.sol\":1859:1991  for (uint256 i = 2 * length + 1; i > 1; --i) {... */\n    tag_188:\n        /* \"@openzeppelin/contracts/utils/Strings.sol\":1896:1897  1 */\n      0x01\n        /* \"@openzeppelin/contracts/utils/Strings.sol\":1892:1893  i */\n      dup2\n        /* \"@openzeppelin/contracts/utils/Strings.sol\":1892:1897  i > 1 */\n      gt\n        /* \"@openzeppelin/contracts/utils/Strings.sol\":1859:1991  for (uint256 i = 2 * length + 1; i > 1; --i) {... */\n      iszero\n      tag_189\n      jumpi\n        /* \"@openzeppelin/contracts/utils/Strings.sol\":1930:1942  _HEX_SYMBOLS */\n      0x3031323334353637383961626364656600000000000000000000000000000000\n        /* \"@openzeppelin/contracts/utils/Strings.sol\":1951:1954  0xf */\n      0x0f\n        /* \"@openzeppelin/contracts/utils/Strings.sol\":1943:1948  value */\n      dup7\n        /* \"@openzeppelin/contracts/utils/Strings.sol\":1943:1954  value & 0xf */\n      and\n        /* \"@openzeppelin/contracts/utils/Strings.sol\":1930:1955  _HEX_SYMBOLS[value & 0xf] */\n      0x10\n      dup2\n      lt\n      tag_193\n      jumpi\n      tag_194\n      tag_185\n      jump\t// in\n    tag_194:\n    tag_193:\n      byte\n      0xf8\n      shl\n        /* \"@openzeppelin/contracts/utils/Strings.sol\":1918:1924  buffer */\n      dup3\n        /* \"@openzeppelin/contracts/utils/Strings.sol\":1925:1926  i */\n      dup3\n        /* \"@openzeppelin/contracts/utils/Strings.sol\":1918:1927  buffer[i] */\n      dup2\n      mload\n      dup2\n      lt\n      tag_195\n      jumpi\n      tag_196\n      tag_185\n      jump\t// in\n    tag_196:\n    tag_195:\n      0x20\n      add\n      add\n        /* \"@openzeppelin/contracts/utils/Strings.sol\":1918:1955  buffer[i] = _HEX_SYMBOLS[value & 0xf] */\n      swap1\n      not(0xffffffffffffffffffffffffffffffffffffffffffffffffffffffffffffff)\n      and\n      swap1\n      dup2\n      0x00\n      byte\n      swap1\n      mstore8\n      pop\n        /* \"@openzeppelin/contracts/utils/Strings.sol\":1979:1980  4 */\n      0x04\n        /* \"@openzeppelin/contracts/utils/Strings.sol\":1969:1980  value >>= 4 */\n      dup6\n      swap1\n      shr\n      swap5\n      pop\n        /* \"@openzeppelin/contracts/utils/Strings.sol\":1899:1902  --i */\n      dup1\n      tag_197\n      swap1\n      tag_198\n      jump\t// in\n    tag_197:\n      swap1\n      pop\n        /* \"@openzeppelin/contracts/utils/Strings.sol\":1859:1991  for (uint256 i = 2 * length + 1; i > 1; --i) {... */\n      jump(tag_188)\n    tag_189:\n      pop\n        /* \"@openzeppelin/contracts/utils/Strings.sol\":2017:2018  0 */\n      0x00\n        /* \"@openzeppelin/contracts/utils/Strings.sol\":2008:2013  value */\n      dup5\n        /* \"@openzeppelin/contracts/utils/Strings.sol\":2008:2018  value == 0 */\n      eq\n        /* \"@openzeppelin/contracts/utils/Strings.sol\":2000:2055  require(value == 0, \"Strings: hex length insufficient\") */\n      tag_199\n      jumpi\n      mload(0x40)\n      0x08c379a000000000000000000000000000000000000000000000000000000000\n      dup2\n      mstore\n      0x04\n      add\n      tag_200\n      swap1\n      tag_201\n      jump\t// in\n    tag_200:\n      mload(0x40)\n      dup1\n      swap2\n      sub\n      swap1\n      revert\n    tag_199:\n        /* \"@openzeppelin/contracts/utils/Strings.sol\":2079:2085  buffer */\n      dup1\n        /* \"@openzeppelin/contracts/utils/Strings.sol\":2065:2086  return string(buffer) */\n      swap2\n      pop\n      pop\n        /* \"@openzeppelin/contracts/utils/Strings.sol\":1652:2093  function toHexString(uint256 value, uint256 length) internal pure returns (string memory) {... */\n      swap3\n      swap2\n      pop\n      pop\n      jump\t// out\n        /* \"#utility.yul\":7:419   */\n    tag_203:\n        /* \"#utility.yul\":85:90   */\n      0x00\n        /* \"#utility.yul\":110:176   */\n      tag_205\n        /* \"#utility.yul\":126:175   */\n      tag_206\n        /* \"#utility.yul\":168:174   */\n      dup5\n        /* \"#utility.yul\":126:175   */\n      tag_207\n      jump\t// in\n    tag_206:\n        /* \"#utility.yul\":110:176   */\n      tag_208\n      jump\t// in\n    tag_205:\n        /* \"#utility.yul\":101:176   */\n      swap1\n      pop\n        /* \"#utility.yul\":199:205   */\n      dup3\n        /* \"#utility.yul\":192:197   */\n      dup2\n        /* \"#utility.yul\":185:206   */\n      mstore\n        /* \"#utility.yul\":237:241   */\n      0x20\n        /* \"#utility.yul\":230:235   */\n      dup2\n        /* \"#utility.yul\":226:242   */\n      add\n        /* \"#utility.yul\":275:278   */\n      dup5\n        /* \"#utility.yul\":266:272   */\n      dup5\n        /* \"#utility.yul\":261:264   */\n      dup5\n        /* \"#utility.yul\":257:273   */\n      add\n        /* \"#utility.yul\":254:279   */\n      gt\n        /* \"#utility.yul\":251:363   */\n      iszero\n      tag_209\n      jumpi\n        /* \"#utility.yul\":282:361   */\n      tag_210\n      tag_211\n      jump\t// in\n    tag_210:\n        /* \"#utility.yul\":251:363   */\n    tag_209:\n        /* \"#utility.yul\":372:413   */\n      tag_212\n        /* \"#utility.yul\":406:412   */\n      dup5\n        /* \"#utility.yul\":401:404   */\n      dup3\n        /* \"#utility.yul\":396:399   */\n      dup6\n        /* \"#utility.yul\":372:413   */\n      tag_213\n      jump\t// in\n    tag_212:\n        /* \"#utility.yul\":91:419   */\n      pop\n        /* \"#utility.yul\":7:419   */\n      swap4\n      swap3\n      pop\n      pop\n      pop\n      jump\t// out\n        /* \"#utility.yul\":425:564   */\n    tag_214:\n        /* \"#utility.yul\":471:476   */\n      0x00\n        /* \"#utility.yul\":509:515   */\n      dup2\n        /* \"#utility.yul\":496:516   */\n      calldataload\n        /* \"#utility.yul\":487:516   */\n      swap1\n      pop\n        /* \"#utility.yul\":525:558   */\n      tag_216\n        /* \"#utility.yul\":552:557   */\n      dup2\n        /* \"#utility.yul\":525:558   */\n      tag_217\n      jump\t// in\n    tag_216:\n        /* \"#utility.yul\":425:564   */\n      swap3\n      swap2\n      pop\n      pop\n      jump\t// out\n        /* \"#utility.yul\":570:707   */\n    tag_218:\n        /* \"#utility.yul\":624:629   */\n      0x00\n        /* \"#utility.yul\":655:661   */\n      dup2\n        /* \"#utility.yul\":649:662   */\n      mload\n        /* \"#utility.yul\":640:662   */\n      swap1\n      pop\n        /* \"#utility.yul\":671:701   */\n      tag_220\n        /* \"#utility.yul\":695:700   */\n      dup2\n        /* \"#utility.yul\":671:701   */\n      tag_221\n      jump\t// in\n    tag_220:\n        /* \"#utility.yul\":570:707   */\n      swap3\n      swap2\n      pop\n      pop\n      jump\t// out\n        /* \"#utility.yul\":713:852   */\n    tag_222:\n        /* \"#utility.yul\":759:764   */\n      0x00\n        /* \"#utility.yul\":797:803   */\n      dup2\n        /* \"#utility.yul\":784:804   */\n      calldataload\n        /* \"#utility.yul\":775:804   */\n      swap1\n      pop\n        /* \"#utility.yul\":813:846   */\n      tag_224\n        /* \"#utility.yul\":840:845   */\n      dup2\n        /* \"#utility.yul\":813:846   */\n      tag_225\n      jump\t// in\n    tag_224:\n        /* \"#utility.yul\":713:852   */\n      swap3\n      swap2\n      pop\n      pop\n      jump\t// out\n        /* \"#utility.yul\":858:995   */\n    tag_226:\n        /* \"#utility.yul\":903:908   */\n      0x00\n        /* \"#utility.yul\":941:947   */\n      dup2\n        /* \"#utility.yul\":928:948   */\n      calldataload\n        /* \"#utility.yul\":919:948   */\n      swap1\n      pop\n        /* \"#utility.yul\":957:989   */\n      tag_228\n        /* \"#utility.yul\":983:988   */\n      dup2\n        /* \"#utility.yul\":957:989   */\n      tag_229\n      jump\t// in\n    tag_228:\n        /* \"#utility.yul\":858:995   */\n      swap3\n      swap2\n      pop\n      pop\n      jump\t// out\n        /* \"#utility.yul\":1015:1355   */\n    tag_230:\n        /* \"#utility.yul\":1071:1076   */\n      0x00\n        /* \"#utility.yul\":1120:1123   */\n      dup3\n        /* \"#utility.yul\":1113:1117   */\n      0x1f\n        /* \"#utility.yul\":1105:1111   */\n      dup4\n        /* \"#utility.yul\":1101:1118   */\n      add\n        /* \"#utility.yul\":1097:1124   */\n      slt\n        /* \"#utility.yul\":1087:1209   */\n      tag_232\n      jumpi\n        /* \"#utility.yul\":1128:1207   */\n      tag_233\n      tag_234\n      jump\t// in\n    tag_233:\n        /* \"#utility.yul\":1087:1209   */\n    tag_232:\n        /* \"#utility.yul\":1245:1251   */\n      dup2\n        /* \"#utility.yul\":1232:1252   */\n      calldataload\n        /* \"#utility.yul\":1270:1349   */\n      tag_235\n        /* \"#utility.yul\":1345:1348   */\n      dup5\n        /* \"#utility.yul\":1337:1343   */\n      dup3\n        /* \"#utility.yul\":1330:1334   */\n      0x20\n        /* \"#utility.yul\":1322:1328   */\n      dup7\n        /* \"#utility.yul\":1318:1335   */\n      add\n        /* \"#utility.yul\":1270:1349   */\n      tag_203\n      jump\t// in\n    tag_235:\n        /* \"#utility.yul\":1261:1349   */\n      swap2\n      pop\n        /* \"#utility.yul\":1077:1355   */\n      pop\n        /* \"#utility.yul\":1015:1355   */\n      swap3\n      swap2\n      pop\n      pop\n      jump\t// out\n        /* \"#utility.yul\":1361:1500   */\n    tag_236:\n        /* \"#utility.yul\":1407:1412   */\n      0x00\n        /* \"#utility.yul\":1445:1451   */\n      dup2\n        /* \"#utility.yul\":1432:1452   */\n      calldataload\n        /* \"#utility.yul\":1423:1452   */\n      swap1\n      pop\n        /* \"#utility.yul\":1461:1494   */\n      tag_238\n        /* \"#utility.yul\":1488:1493   */\n      dup2\n        /* \"#utility.yul\":1461:1494   */\n      tag_239\n      jump\t// in\n    tag_238:\n        /* \"#utility.yul\":1361:1500   */\n      swap3\n      swap2\n      pop\n      pop\n      jump\t// out\n        /* \"#utility.yul\":1506:1649   */\n    tag_240:\n        /* \"#utility.yul\":1563:1568   */\n      0x00\n        /* \"#utility.yul\":1594:1600   */\n      dup2\n        /* \"#utility.yul\":1588:1601   */\n      mload\n        /* \"#utility.yul\":1579:1601   */\n      swap1\n      pop\n        /* \"#utility.yul\":1610:1643   */\n      tag_242\n        /* \"#utility.yul\":1637:1642   */\n      dup2\n        /* \"#utility.yul\":1610:1643   */\n      tag_239\n      jump\t// in\n    tag_242:\n        /* \"#utility.yul\":1506:1649   */\n      swap3\n      swap2\n      pop\n      pop\n      jump\t// out\n        /* \"#utility.yul\":1655:2000   */\n    tag_94:\n        /* \"#utility.yul\":1722:1728   */\n      0x00\n        /* \"#utility.yul\":1771:1773   */\n      0x20\n        /* \"#utility.yul\":1759:1768   */\n      dup3\n        /* \"#utility.yul\":1750:1757   */\n      dup5\n        /* \"#utility.yul\":1746:1769   */\n      sub\n        /* \"#utility.yul\":1742:1774   */\n      slt\n        /* \"#utility.yul\":1739:1858   */\n      iszero\n      tag_244\n      jumpi\n        /* \"#utility.yul\":1777:1856   */\n      tag_245\n      tag_246\n      jump\t// in\n    tag_245:\n        /* \"#utility.yul\":1739:1858   */\n    tag_244:\n        /* \"#utility.yul\":1897:1898   */\n      0x00\n        /* \"#utility.yul\":1922:1983   */\n      tag_247\n        /* \"#utility.yul\":1975:1982   */\n      dup5\n        /* \"#utility.yul\":1966:1972   */\n      dup3\n        /* \"#utility.yul\":1955:1964   */\n      dup6\n        /* \"#utility.yul\":1951:1973   */\n      add\n        /* \"#utility.yul\":1922:1983   */\n      tag_218\n      jump\t// in\n    tag_247:\n        /* \"#utility.yul\":1912:1983   */\n      swap2\n      pop\n        /* \"#utility.yul\":1868:1993   */\n      pop\n        /* \"#utility.yul\":1655:2000   */\n      swap3\n      swap2\n      pop\n      pop\n      jump\t// out\n        /* \"#utility.yul\":2006:2335   */\n    tag_30:\n        /* \"#utility.yul\":2065:2071   */\n      0x00\n        /* \"#utility.yul\":2114:2116   */\n      0x20\n        /* \"#utility.yul\":2102:2111   */\n      dup3\n        /* \"#utility.yul\":2093:2100   */\n      dup5\n        /* \"#utility.yul\":2089:2112   */\n      sub\n        /* \"#utility.yul\":2085:2117   */\n      slt\n        /* \"#utility.yul\":2082:2201   */\n      iszero\n      tag_249\n      jumpi\n        /* \"#utility.yul\":2120:2199   */\n      tag_250\n      tag_246\n      jump\t// in\n    tag_250:\n        /* \"#utility.yul\":2082:2201   */\n    tag_249:\n        /* \"#utility.yul\":2240:2241   */\n      0x00\n        /* \"#utility.yul\":2265:2318   */\n      tag_251\n        /* \"#utility.yul\":2310:2317   */\n      dup5\n        /* \"#utility.yul\":2301:2307   */\n      dup3\n        /* \"#utility.yul\":2290:2299   */\n      dup6\n        /* \"#utility.yul\":2286:2308   */\n      add\n        /* \"#utility.yul\":2265:2318   */\n      tag_222\n      jump\t// in\n    tag_251:\n        /* \"#utility.yul\":2255:2318   */\n      swap2\n      pop\n        /* \"#utility.yul\":2211:2328   */\n      pop\n        /* \"#utility.yul\":2006:2335   */\n      swap3\n      swap2\n      pop\n      pop\n      jump\t// out\n        /* \"#utility.yul\":2341:2815   */\n    tag_36:\n        /* \"#utility.yul\":2409:2415   */\n      0x00\n        /* \"#utility.yul\":2417:2423   */\n      dup1\n        /* \"#utility.yul\":2466:2468   */\n      0x40\n        /* \"#utility.yul\":2454:2463   */\n      dup4\n        /* \"#utility.yul\":2445:2452   */\n      dup6\n        /* \"#utility.yul\":2441:2464   */\n      sub\n        /* \"#utility.yul\":2437:2469   */\n      slt\n        /* \"#utility.yul\":2434:2553   */\n      iszero\n      tag_253\n      jumpi\n        /* \"#utility.yul\":2472:2551   */\n      tag_254\n      tag_246\n      jump\t// in\n    tag_254:\n        /* \"#utility.yul\":2434:2553   */\n    tag_253:\n        /* \"#utility.yul\":2592:2593   */\n      0x00\n        /* \"#utility.yul\":2617:2670   */\n      tag_255\n        /* \"#utility.yul\":2662:2669   */\n      dup6\n        /* \"#utility.yul\":2653:2659   */\n      dup3\n        /* \"#utility.yul\":2642:2651   */\n      dup7\n        /* \"#utility.yul\":2638:2660   */\n      add\n        /* \"#utility.yul\":2617:2670   */\n      tag_222\n      jump\t// in\n    tag_255:\n        /* \"#utility.yul\":2607:2670   */\n      swap3\n      pop\n        /* \"#utility.yul\":2563:2680   */\n      pop\n        /* \"#utility.yul\":2719:2721   */\n      0x20\n        /* \"#utility.yul\":2745:2798   */\n      tag_256\n        /* \"#utility.yul\":2790:2797   */\n      dup6\n        /* \"#utility.yul\":2781:2787   */\n      dup3\n        /* \"#utility.yul\":2770:2779   */\n      dup7\n        /* \"#utility.yul\":2766:2788   */\n      add\n        /* \"#utility.yul\":2745:2798   */\n      tag_214\n      jump\t// in\n    tag_256:\n        /* \"#utility.yul\":2735:2798   */\n      swap2\n      pop\n        /* \"#utility.yul\":2690:2808   */\n      pop\n        /* \"#utility.yul\":2341:2815   */\n      swap3\n      pop\n      swap3\n      swap1\n      pop\n      jump\t// out\n        /* \"#utility.yul\":2821:3148   */\n    tag_18:\n        /* \"#utility.yul\":2879:2885   */\n      0x00\n        /* \"#utility.yul\":2928:2930   */\n      0x20\n        /* \"#utility.yul\":2916:2925   */\n      dup3\n        /* \"#utility.yul\":2907:2914   */\n      dup5\n        /* \"#utility.yul\":2903:2926   */\n      sub\n        /* \"#utility.yul\":2899:2931   */\n      slt\n        /* \"#utility.yul\":2896:3015   */\n      iszero\n      tag_258\n      jumpi\n        /* \"#utility.yul\":2934:3013   */\n      tag_259\n      tag_246\n      jump\t// in\n    tag_259:\n        /* \"#utility.yul\":2896:3015   */\n    tag_258:\n        /* \"#utility.yul\":3054:3055   */\n      0x00\n        /* \"#utility.yul\":3079:3131   */\n      tag_260\n        /* \"#utility.yul\":3123:3130   */\n      dup5\n        /* \"#utility.yul\":3114:3120   */\n      dup3\n        /* \"#utility.yul\":3103:3112   */\n      dup6\n        /* \"#utility.yul\":3099:3121   */\n      add\n        /* \"#utility.yul\":3079:3131   */\n      tag_226\n      jump\t// in\n    tag_260:\n        /* \"#utility.yul\":3069:3131   */\n      swap2\n      pop\n        /* \"#utility.yul\":3025:3141   */\n      pop\n        /* \"#utility.yul\":2821:3148   */\n      swap3\n      swap2\n      pop\n      pop\n      jump\t// out\n        /* \"#utility.yul\":3154:3663   */\n    tag_24:\n        /* \"#utility.yul\":3223:3229   */\n      0x00\n        /* \"#utility.yul\":3272:3274   */\n      0x20\n        /* \"#utility.yul\":3260:3269   */\n      dup3\n        /* \"#utility.yul\":3251:3258   */\n      dup5\n        /* \"#utility.yul\":3247:3270   */\n      sub\n        /* \"#utility.yul\":3243:3275   */\n      slt\n        /* \"#utility.yul\":3240:3359   */\n      iszero\n      tag_262\n      jumpi\n        /* \"#utility.yul\":3278:3357   */\n      tag_263\n      tag_246\n      jump\t// in\n    tag_263:\n        /* \"#utility.yul\":3240:3359   */\n    tag_262:\n        /* \"#utility.yul\":3426:3427   */\n      0x00\n        /* \"#utility.yul\":3415:3424   */\n      dup3\n        /* \"#utility.yul\":3411:3428   */\n      add\n        /* \"#utility.yul\":3398:3429   */\n      calldataload\n        /* \"#utility.yul\":3456:3474   */\n      0xffffffffffffffff\n        /* \"#utility.yul\":3448:3454   */\n      dup2\n        /* \"#utility.yul\":3445:3475   */\n      gt\n        /* \"#utility.yul\":3442:3559   */\n      iszero\n      tag_264\n      jumpi\n        /* \"#utility.yul\":3478:3557   */\n      tag_265\n      tag_266\n      jump\t// in\n    tag_265:\n        /* \"#utility.yul\":3442:3559   */\n    tag_264:\n        /* \"#utility.yul\":3583:3646   */\n      tag_267\n        /* \"#utility.yul\":3638:3645   */\n      dup5\n        /* \"#utility.yul\":3629:3635   */\n      dup3\n        /* \"#utility.yul\":3618:3627   */\n      dup6\n        /* \"#utility.yul\":3614:3636   */\n      add\n        /* \"#utility.yul\":3583:3646   */\n      tag_230\n      jump\t// in\n    tag_267:\n        /* \"#utility.yul\":3573:3646   */\n      swap2\n      pop\n        /* \"#utility.yul\":3369:3656   */\n      pop\n        /* \"#utility.yul\":3154:3663   */\n      swap3\n      swap2\n      pop\n      pop\n      jump\t// out\n        /* \"#utility.yul\":3669:4020   */\n    tag_124:\n        /* \"#utility.yul\":3739:3745   */\n      0x00\n        /* \"#utility.yul\":3788:3790   */\n      0x20\n        /* \"#utility.yul\":3776:3785   */\n      dup3\n        /* \"#utility.yul\":3767:3774   */\n      dup5\n        /* \"#utility.yul\":3763:3786   */\n      sub\n        /* \"#utility.yul\":3759:3791   */\n      slt\n        /* \"#utility.yul\":3756:3875   */\n      iszero\n      tag_269\n      jumpi\n        /* \"#utility.yul\":3794:3873   */\n      tag_270\n      tag_246\n      jump\t// in\n    tag_270:\n        /* \"#utility.yul\":3756:3875   */\n    tag_269:\n        /* \"#utility.yul\":3914:3915   */\n      0x00\n        /* \"#utility.yul\":3939:4003   */\n      tag_271\n        /* \"#utility.yul\":3995:4002   */\n      dup5\n        /* \"#utility.yul\":3986:3992   */\n      dup3\n        /* \"#utility.yul\":3975:3984   */\n      dup6\n        /* \"#utility.yul\":3971:3993   */\n      add\n        /* \"#utility.yul\":3939:4003   */\n      tag_240\n      jump\t// in\n    tag_271:\n        /* \"#utility.yul\":3929:4003   */\n      swap2\n      pop\n        /* \"#utility.yul\":3885:4013   */\n      pop\n        /* \"#utility.yul\":3669:4020   */\n      swap3\n      swap2\n      pop\n      pop\n      jump\t// out\n        /* \"#utility.yul\":4026:4680   */\n    tag_59:\n        /* \"#utility.yul\":4104:4110   */\n      0x00\n        /* \"#utility.yul\":4112:4118   */\n      dup1\n        /* \"#utility.yul\":4161:4163   */\n      0x40\n        /* \"#utility.yul\":4149:4158   */\n      dup4\n        /* \"#utility.yul\":4140:4147   */\n      dup6\n        /* \"#utility.yul\":4136:4159   */\n      sub\n        /* \"#utility.yul\":4132:4164   */\n      slt\n        /* \"#utility.yul\":4129:4248   */\n      iszero\n      tag_273\n      jumpi\n        /* \"#utility.yul\":4167:4246   */\n      tag_274\n      tag_246\n      jump\t// in\n    tag_274:\n        /* \"#utility.yul\":4129:4248   */\n    tag_273:\n        /* \"#utility.yul\":4287:4288   */\n      0x00\n        /* \"#utility.yul\":4312:4365   */\n      tag_275\n        /* \"#utility.yul\":4357:4364   */\n      dup6\n        /* \"#utility.yul\":4348:4354   */\n      dup3\n        /* \"#utility.yul\":4337:4346   */\n      dup7\n        /* \"#utility.yul\":4333:4355   */\n      add\n        /* \"#utility.yul\":4312:4365   */\n      tag_236\n      jump\t// in\n    tag_275:\n        /* \"#utility.yul\":4302:4365   */\n      swap3\n      pop\n        /* \"#utility.yul\":4258:4375   */\n      pop\n        /* \"#utility.yul\":4442:4444   */\n      0x20\n        /* \"#utility.yul\":4431:4440   */\n      dup4\n        /* \"#utility.yul\":4427:4445   */\n      add\n        /* \"#utility.yul\":4414:4446   */\n      calldataload\n        /* \"#utility.yul\":4473:4491   */\n      0xffffffffffffffff\n        /* \"#utility.yul\":4465:4471   */\n      dup2\n        /* \"#utility.yul\":4462:4492   */\n      gt\n        /* \"#utility.yul\":4459:4576   */\n      iszero\n      tag_276\n      jumpi\n        /* \"#utility.yul\":4495:4574   */\n      tag_277\n      tag_266\n      jump\t// in\n    tag_277:\n        /* \"#utility.yul\":4459:4576   */\n    tag_276:\n        /* \"#utility.yul\":4600:4663   */\n      tag_278\n        /* \"#utility.yul\":4655:4662   */\n      dup6\n        /* \"#utility.yul\":4646:4652   */\n      dup3\n        /* \"#utility.yul\":4635:4644   */\n      dup7\n        /* \"#utility.yul\":4631:4653   */\n      add\n        /* \"#utility.yul\":4600:4663   */\n      tag_230\n      jump\t// in\n    tag_278:\n        /* \"#utility.yul\":4590:4663   */\n      swap2\n      pop\n        /* \"#utility.yul\":4385:4673   */\n      pop\n        /* \"#utility.yul\":4026:4680   */\n      swap3\n      pop\n      swap3\n      swap1\n      pop\n      jump\t// out\n        /* \"#utility.yul\":4686:4804   */\n    tag_279:\n        /* \"#utility.yul\":4773:4797   */\n      tag_281\n        /* \"#utility.yul\":4791:4796   */\n      dup2\n        /* \"#utility.yul\":4773:4797   */\n      tag_282\n      jump\t// in\n    tag_281:\n        /* \"#utility.yul\":4768:4771   */\n      dup3\n        /* \"#utility.yul\":4761:4798   */\n      mstore\n        /* \"#utility.yul\":4686:4804   */\n      pop\n      pop\n      jump\t// out\n        /* \"#utility.yul\":4810:4919   */\n    tag_283:\n        /* \"#utility.yul\":4891:4912   */\n      tag_285\n        /* \"#utility.yul\":4906:4911   */\n      dup2\n        /* \"#utility.yul\":4891:4912   */\n      tag_286\n      jump\t// in\n    tag_285:\n        /* \"#utility.yul\":4886:4889   */\n      dup3\n        /* \"#utility.yul\":4879:4913   */\n      mstore\n        /* \"#utility.yul\":4810:4919   */\n      pop\n      pop\n      jump\t// out\n        /* \"#utility.yul\":4925:5043   */\n    tag_287:\n        /* \"#utility.yul\":5012:5036   */\n      tag_289\n        /* \"#utility.yul\":5030:5035   */\n      dup2\n        /* \"#utility.yul\":5012:5036   */\n      tag_290\n      jump\t// in\n    tag_289:\n        /* \"#utility.yul\":5007:5010   */\n      dup3\n        /* \"#utility.yul\":5000:5037   */\n      mstore\n        /* \"#utility.yul\":4925:5043   */\n      pop\n      pop\n      jump\t// out\n        /* \"#utility.yul\":5049:5413   */\n    tag_291:\n        /* \"#utility.yul\":5137:5140   */\n      0x00\n        /* \"#utility.yul\":5165:5204   */\n      tag_293\n        /* \"#utility.yul\":5198:5203   */\n      dup3\n        /* \"#utility.yul\":5165:5204   */\n      tag_294\n      jump\t// in\n    tag_293:\n        /* \"#utility.yul\":5220:5291   */\n      tag_295\n        /* \"#utility.yul\":5284:5290   */\n      dup2\n        /* \"#utility.yul\":5279:5282   */\n      dup6\n        /* \"#utility.yul\":5220:5291   */\n      tag_296\n      jump\t// in\n    tag_295:\n        /* \"#utility.yul\":5213:5291   */\n      swap4\n      pop\n        /* \"#utility.yul\":5300:5352   */\n      tag_297\n        /* \"#utility.yul\":5345:5351   */\n      dup2\n        /* \"#utility.yul\":5340:5343   */\n      dup6\n        /* \"#utility.yul\":5333:5337   */\n      0x20\n        /* \"#utility.yul\":5326:5331   */\n      dup7\n        /* \"#utility.yul\":5322:5338   */\n      add\n        /* \"#utility.yul\":5300:5352   */\n      tag_298\n      jump\t// in\n    tag_297:\n        /* \"#utility.yul\":5377:5406   */\n      tag_299\n        /* \"#utility.yul\":5399:5405   */\n      dup2\n        /* \"#utility.yul\":5377:5406   */\n      tag_300\n      jump\t// in\n    tag_299:\n        /* \"#utility.yul\":5372:5375   */\n      dup5\n        /* \"#utility.yul\":5368:5407   */\n      add\n        /* \"#utility.yul\":5361:5407   */\n      swap2\n      pop\n        /* \"#utility.yul\":5141:5413   */\n      pop\n        /* \"#utility.yul\":5049:5413   */\n      swap3\n      swap2\n      pop\n      pop\n      jump\t// out\n        /* \"#utility.yul\":5419:5796   */\n    tag_301:\n        /* \"#utility.yul\":5525:5528   */\n      0x00\n        /* \"#utility.yul\":5553:5592   */\n      tag_303\n        /* \"#utility.yul\":5586:5591   */\n      dup3\n        /* \"#utility.yul\":5553:5592   */\n      tag_294\n      jump\t// in\n    tag_303:\n        /* \"#utility.yul\":5608:5697   */\n      tag_304\n        /* \"#utility.yul\":5690:5696   */\n      dup2\n        /* \"#utility.yul\":5685:5688   */\n      dup6\n        /* \"#utility.yul\":5608:5697   */\n      tag_305\n      jump\t// in\n    tag_304:\n        /* \"#utility.yul\":5601:5697   */\n      swap4\n      pop\n        /* \"#utility.yul\":5706:5758   */\n      tag_306\n        /* \"#utility.yul\":5751:5757   */\n      dup2\n        /* \"#utility.yul\":5746:5749   */\n      dup6\n        /* \"#utility.yul\":5739:5743   */\n      0x20\n        /* \"#utility.yul\":5732:5737   */\n      dup7\n        /* \"#utility.yul\":5728:5744   */\n      add\n        /* \"#utility.yul\":5706:5758   */\n      tag_298\n      jump\t// in\n    tag_306:\n        /* \"#utility.yul\":5783:5789   */\n      dup1\n        /* \"#utility.yul\":5778:5781   */\n      dup5\n        /* \"#utility.yul\":5774:5790   */\n      add\n        /* \"#utility.yul\":5767:5790   */\n      swap2\n      pop\n        /* \"#utility.yul\":5529:5796   */\n      pop\n        /* \"#utility.yul\":5419:5796   */\n      swap3\n      swap2\n      pop\n      pop\n      jump\t// out\n        /* \"#utility.yul\":5802:6168   */\n    tag_307:\n        /* \"#utility.yul\":5944:5947   */\n      0x00\n        /* \"#utility.yul\":5965:6032   */\n      tag_309\n        /* \"#utility.yul\":6029:6031   */\n      0x28\n        /* \"#utility.yul\":6024:6027   */\n      dup4\n        /* \"#utility.yul\":5965:6032   */\n      tag_296\n      jump\t// in\n    tag_309:\n        /* \"#utility.yul\":5958:6032   */\n      swap2\n      pop\n        /* \"#utility.yul\":6041:6134   */\n      tag_310\n        /* \"#utility.yul\":6130:6133   */\n      dup3\n        /* \"#utility.yul\":6041:6134   */\n      tag_311\n      jump\t// in\n    tag_310:\n        /* \"#utility.yul\":6159:6161   */\n      0x40\n        /* \"#utility.yul\":6154:6157   */\n      dup3\n        /* \"#utility.yul\":6150:6162   */\n      add\n        /* \"#utility.yul\":6143:6162   */\n      swap1\n      pop\n        /* \"#utility.yul\":5802:6168   */\n      swap2\n      swap1\n      pop\n      jump\t// out\n        /* \"#utility.yul\":6174:6540   */\n    tag_312:\n        /* \"#utility.yul\":6316:6319   */\n      0x00\n        /* \"#utility.yul\":6337:6404   */\n      tag_314\n        /* \"#utility.yul\":6401:6403   */\n      0x20\n        /* \"#utility.yul\":6396:6399   */\n      dup4\n        /* \"#utility.yul\":6337:6404   */\n      tag_296\n      jump\t// in\n    tag_314:\n        /* \"#utility.yul\":6330:6404   */\n      swap2\n      pop\n        /* \"#utility.yul\":6413:6506   */\n      tag_315\n        /* \"#utility.yul\":6502:6505   */\n      dup3\n        /* \"#utility.yul\":6413:6506   */\n      tag_316\n      jump\t// in\n    tag_315:\n        /* \"#utility.yul\":6531:6533   */\n      0x20\n        /* \"#utility.yul\":6526:6529   */\n      dup3\n        /* \"#utility.yul\":6522:6534   */\n      add\n        /* \"#utility.yul\":6515:6534   */\n      swap1\n      pop\n        /* \"#utility.yul\":6174:6540   */\n      swap2\n      swap1\n      pop\n      jump\t// out\n        /* \"#utility.yul\":6546:6912   */\n    tag_317:\n        /* \"#utility.yul\":6688:6691   */\n      0x00\n        /* \"#utility.yul\":6709:6776   */\n      tag_319\n        /* \"#utility.yul\":6773:6775   */\n      0x1b\n        /* \"#utility.yul\":6768:6771   */\n      dup4\n        /* \"#utility.yul\":6709:6776   */\n      tag_296\n      jump\t// in\n    tag_319:\n        /* \"#utility.yul\":6702:6776   */\n      swap2\n      pop\n        /* \"#utility.yul\":6785:6878   */\n      tag_320\n        /* \"#utility.yul\":6874:6877   */\n      dup3\n        /* \"#utility.yul\":6785:6878   */\n      tag_321\n      jump\t// in\n    tag_320:\n        /* \"#utility.yul\":6903:6905   */\n      0x20\n        /* \"#utility.yul\":6898:6901   */\n      dup3\n        /* \"#utility.yul\":6894:6906   */\n      add\n        /* \"#utility.yul\":6887:6906   */\n      swap1\n      pop\n        /* \"#utility.yul\":6546:6912   */\n      swap2\n      swap1\n      pop\n      jump\t// out\n        /* \"#utility.yul\":6918:7284   */\n    tag_322:\n        /* \"#utility.yul\":7060:7063   */\n      0x00\n        /* \"#utility.yul\":7081:7148   */\n      tag_324\n        /* \"#utility.yul\":7145:7147   */\n      0x1c\n        /* \"#utility.yul\":7140:7143   */\n      dup4\n        /* \"#utility.yul\":7081:7148   */\n      tag_296\n      jump\t// in\n    tag_324:\n        /* \"#utility.yul\":7074:7148   */\n      swap2\n      pop\n        /* \"#utility.yul\":7157:7250   */\n      tag_325\n        /* \"#utility.yul\":7246:7249   */\n      dup3\n        /* \"#utility.yul\":7157:7250   */\n      tag_326\n      jump\t// in\n    tag_325:\n        /* \"#utility.yul\":7275:7277   */\n      0x20\n        /* \"#utility.yul\":7270:7273   */\n      dup3\n        /* \"#utility.yul\":7266:7278   */\n      add\n        /* \"#utility.yul\":7259:7278   */\n      swap1\n      pop\n        /* \"#utility.yul\":6918:7284   */\n      swap2\n      swap1\n      pop\n      jump\t// out\n        /* \"#utility.yul\":7290:7656   */\n    tag_327:\n        /* \"#utility.yul\":7432:7435   */\n      0x00\n        /* \"#utility.yul\":7453:7520   */\n      tag_329\n        /* \"#utility.yul\":7517:7519   */\n      0x0c\n        /* \"#utility.yul\":7512:7515   */\n      dup4\n        /* \"#utility.yul\":7453:7520   */\n      tag_296\n      jump\t// in\n    tag_329:\n        /* \"#utility.yul\":7446:7520   */\n      swap2\n      pop\n        /* \"#utility.yul\":7529:7622   */\n      tag_330\n        /* \"#utility.yul\":7618:7621   */\n      dup3\n        /* \"#utility.yul\":7529:7622   */\n      tag_331\n      jump\t// in\n    tag_330:\n        /* \"#utility.yul\":7647:7649   */\n      0x20\n        /* \"#utility.yul\":7642:7645   */\n      dup3\n        /* \"#utility.yul\":7638:7650   */\n      add\n        /* \"#utility.yul\":7631:7650   */\n      swap1\n      pop\n        /* \"#utility.yul\":7290:7656   */\n      swap2\n      swap1\n      pop\n      jump\t// out\n        /* \"#utility.yul\":7662:8028   */\n    tag_332:\n        /* \"#utility.yul\":7804:7807   */\n      0x00\n        /* \"#utility.yul\":7825:7892   */\n      tag_334\n        /* \"#utility.yul\":7889:7891   */\n      0x2a\n        /* \"#utility.yul\":7884:7887   */\n      dup4\n        /* \"#utility.yul\":7825:7892   */\n      tag_296\n      jump\t// in\n    tag_334:\n        /* \"#utility.yul\":7818:7892   */\n      swap2\n      pop\n        /* \"#utility.yul\":7901:7994   */\n      tag_335\n        /* \"#utility.yul\":7990:7993   */\n      dup3\n        /* \"#utility.yul\":7901:7994   */\n      tag_336\n      jump\t// in\n    tag_335:\n        /* \"#utility.yul\":8019:8021   */\n      0x40\n        /* \"#utility.yul\":8014:8017   */\n      dup3\n        /* \"#utility.yul\":8010:8022   */\n      add\n        /* \"#utility.yul\":8003:8022   */\n      swap1\n      pop\n        /* \"#utility.yul\":7662:8028   */\n      swap2\n      swap1\n      pop\n      jump\t// out\n        /* \"#utility.yul\":8034:8436   */\n    tag_337:\n        /* \"#utility.yul\":8194:8197   */\n      0x00\n        /* \"#utility.yul\":8215:8300   */\n      tag_339\n        /* \"#utility.yul\":8297:8299   */\n      0x17\n        /* \"#utility.yul\":8292:8295   */\n      dup4\n        /* \"#utility.yul\":8215:8300   */\n      tag_305\n      jump\t// in\n    tag_339:\n        /* \"#utility.yul\":8208:8300   */\n      swap2\n      pop\n        /* \"#utility.yul\":8309:8402   */\n      tag_340\n        /* \"#utility.yul\":8398:8401   */\n      dup3\n        /* \"#utility.yul\":8309:8402   */\n      tag_341\n      jump\t// in\n    tag_340:\n        /* \"#utility.yul\":8427:8429   */\n      0x17\n        /* \"#utility.yul\":8422:8425   */\n      dup3\n        /* \"#utility.yul\":8418:8430   */\n      add\n        /* \"#utility.yul\":8411:8430   */\n      swap1\n      pop\n        /* \"#utility.yul\":8034:8436   */\n      swap2\n      swap1\n      pop\n      jump\t// out\n        /* \"#utility.yul\":8442:8808   */\n    tag_342:\n        /* \"#utility.yul\":8584:8587   */\n      0x00\n        /* \"#utility.yul\":8605:8672   */\n      tag_344\n        /* \"#utility.yul\":8669:8671   */\n      0x0f\n        /* \"#utility.yul\":8664:8667   */\n      dup4\n        /* \"#utility.yul\":8605:8672   */\n      tag_296\n      jump\t// in\n    tag_344:\n        /* \"#utility.yul\":8598:8672   */\n      swap2\n      pop\n        /* \"#utility.yul\":8681:8774   */\n      tag_345\n        /* \"#utility.yul\":8770:8773   */\n      dup3\n        /* \"#utility.yul\":8681:8774   */\n      tag_346\n      jump\t// in\n    tag_345:\n        /* \"#utility.yul\":8799:8801   */\n      0x20\n        /* \"#utility.yul\":8794:8797   */\n      dup3\n        /* \"#utility.yul\":8790:8802   */\n      add\n        /* \"#utility.yul\":8783:8802   */\n      swap1\n      pop\n        /* \"#utility.yul\":8442:8808   */\n      swap2\n      swap1\n      pop\n      jump\t// out\n        /* \"#utility.yul\":8814:9216   */\n    tag_347:\n        /* \"#utility.yul\":8974:8977   */\n      0x00\n        /* \"#utility.yul\":8995:9080   */\n      tag_349\n        /* \"#utility.yul\":9077:9079   */\n      0x11\n        /* \"#utility.yul\":9072:9075   */\n      dup4\n        /* \"#utility.yul\":8995:9080   */\n      tag_305\n      jump\t// in\n    tag_349:\n        /* \"#utility.yul\":8988:9080   */\n      swap2\n      pop\n        /* \"#utility.yul\":9089:9182   */\n      tag_350\n        /* \"#utility.yul\":9178:9181   */\n      dup3\n        /* \"#utility.yul\":9089:9182   */\n      tag_351\n      jump\t// in\n    tag_350:\n        /* \"#utility.yul\":9207:9209   */\n      0x11\n        /* \"#utility.yul\":9202:9205   */\n      dup3\n        /* \"#utility.yul\":9198:9210   */\n      add\n        /* \"#utility.yul\":9191:9210   */\n      swap1\n      pop\n        /* \"#utility.yul\":8814:9216   */\n      swap2\n      swap1\n      pop\n      jump\t// out\n        /* \"#utility.yul\":9222:9588   */\n    tag_352:\n        /* \"#utility.yul\":9364:9367   */\n      0x00\n        /* \"#utility.yul\":9385:9452   */\n      tag_354\n        /* \"#utility.yul\":9449:9451   */\n      0x2f\n        /* \"#utility.yul\":9444:9447   */\n      dup4\n        /* \"#utility.yul\":9385:9452   */\n      tag_296\n      jump\t// in\n    tag_354:\n        /* \"#utility.yul\":9378:9452   */\n      swap2\n      pop\n        /* \"#utility.yul\":9461:9554   */\n      tag_355\n        /* \"#utility.yul\":9550:9553   */\n      dup3\n        /* \"#utility.yul\":9461:9554   */\n      tag_356\n      jump\t// in\n    tag_355:\n        /* \"#utility.yul\":9579:9581   */\n      0x40\n        /* \"#utility.yul\":9574:9577   */\n      dup3\n        /* \"#utility.yul\":9570:9582   */\n      add\n        /* \"#utility.yul\":9563:9582   */\n      swap1\n      pop\n        /* \"#utility.yul\":9222:9588   */\n      swap2\n      swap1\n      pop\n      jump\t// out\n        /* \"#utility.yul\":9594:9712   */\n    tag_357:\n        /* \"#utility.yul\":9681:9705   */\n      tag_359\n        /* \"#utility.yul\":9699:9704   */\n      dup2\n        /* \"#utility.yul\":9681:9705   */\n      tag_360\n      jump\t// in\n    tag_359:\n        /* \"#utility.yul\":9676:9679   */\n      dup3\n        /* \"#utility.yul\":9669:9706   */\n      mstore\n        /* \"#utility.yul\":9594:9712   */\n      pop\n      pop\n      jump\t// out\n        /* \"#utility.yul\":9718:9993   */\n    tag_87:\n        /* \"#utility.yul\":9850:9853   */\n      0x00\n        /* \"#utility.yul\":9872:9967   */\n      tag_362\n        /* \"#utility.yul\":9963:9966   */\n      dup3\n        /* \"#utility.yul\":9954:9960   */\n      dup5\n        /* \"#utility.yul\":9872:9967   */\n      tag_301\n      jump\t// in\n    tag_362:\n        /* \"#utility.yul\":9865:9967   */\n      swap2\n      pop\n        /* \"#utility.yul\":9984:9987   */\n      dup2\n        /* \"#utility.yul\":9977:9987   */\n      swap1\n      pop\n        /* \"#utility.yul\":9718:9993   */\n      swap3\n      swap2\n      pop\n      pop\n      jump\t// out\n        /* \"#utility.yul\":9999:10966   */\n    tag_173:\n        /* \"#utility.yul\":10381:10384   */\n      0x00\n        /* \"#utility.yul\":10403:10551   */\n      tag_364\n        /* \"#utility.yul\":10547:10550   */\n      dup3\n        /* \"#utility.yul\":10403:10551   */\n      tag_337\n      jump\t// in\n    tag_364:\n        /* \"#utility.yul\":10396:10551   */\n      swap2\n      pop\n        /* \"#utility.yul\":10568:10663   */\n      tag_365\n        /* \"#utility.yul\":10659:10662   */\n      dup3\n        /* \"#utility.yul\":10650:10656   */\n      dup6\n        /* \"#utility.yul\":10568:10663   */\n      tag_301\n      jump\t// in\n    tag_365:\n        /* \"#utility.yul\":10561:10663   */\n      swap2\n      pop\n        /* \"#utility.yul\":10680:10828   */\n      tag_366\n        /* \"#utility.yul\":10824:10827   */\n      dup3\n        /* \"#utility.yul\":10680:10828   */\n      tag_347\n      jump\t// in\n    tag_366:\n        /* \"#utility.yul\":10673:10828   */\n      swap2\n      pop\n        /* \"#utility.yul\":10845:10940   */\n      tag_367\n        /* \"#utility.yul\":10936:10939   */\n      dup3\n        /* \"#utility.yul\":10927:10933   */\n      dup5\n        /* \"#utility.yul\":10845:10940   */\n      tag_301\n      jump\t// in\n    tag_367:\n        /* \"#utility.yul\":10838:10940   */\n      swap2\n      pop\n        /* \"#utility.yul\":10957:10960   */\n      dup2\n        /* \"#utility.yul\":10950:10960   */\n      swap1\n      pop\n        /* \"#utility.yul\":9999:10966   */\n      swap4\n      swap3\n      pop\n      pop\n      pop\n      jump\t// out\n        /* \"#utility.yul\":10972:11194   */\n    tag_64:\n        /* \"#utility.yul\":11065:11069   */\n      0x00\n        /* \"#utility.yul\":11103:11105   */\n      0x20\n        /* \"#utility.yul\":11092:11101   */\n      dup3\n        /* \"#utility.yul\":11088:11106   */\n      add\n        /* \"#utility.yul\":11080:11106   */\n      swap1\n      pop\n        /* \"#utility.yul\":11116:11187   */\n      tag_369\n        /* \"#utility.yul\":11184:11185   */\n      0x00\n        /* \"#utility.yul\":11173:11182   */\n      dup4\n        /* \"#utility.yul\":11169:11186   */\n      add\n        /* \"#utility.yul\":11160:11166   */\n      dup5\n        /* \"#utility.yul\":11116:11187   */\n      tag_279\n      jump\t// in\n    tag_369:\n        /* \"#utility.yul\":10972:11194   */\n      swap3\n      swap2\n      pop\n      pop\n      jump\t// out\n        /* \"#utility.yul\":11200:11642   */\n    tag_89:\n        /* \"#utility.yul\":11349:11353   */\n      0x00\n        /* \"#utility.yul\":11387:11389   */\n      0x60\n        /* \"#utility.yul\":11376:11385   */\n      dup3\n        /* \"#utility.yul\":11372:11390   */\n      add\n        /* \"#utility.yul\":11364:11390   */\n      swap1\n      pop\n        /* \"#utility.yul\":11400:11471   */\n      tag_371\n        /* \"#utility.yul\":11468:11469   */\n      0x00\n        /* \"#utility.yul\":11457:11466   */\n      dup4\n        /* \"#utility.yul\":11453:11470   */\n      add\n        /* \"#utility.yul\":11444:11450   */\n      dup7\n        /* \"#utility.yul\":11400:11471   */\n      tag_279\n      jump\t// in\n    tag_371:\n        /* \"#utility.yul\":11481:11553   */\n      tag_372\n        /* \"#utility.yul\":11549:11551   */\n      0x20\n        /* \"#utility.yul\":11538:11547   */\n      dup4\n        /* \"#utility.yul\":11534:11552   */\n      add\n        /* \"#utility.yul\":11525:11531   */\n      dup6\n        /* \"#utility.yul\":11481:11553   */\n      tag_279\n      jump\t// in\n    tag_372:\n        /* \"#utility.yul\":11563:11635   */\n      tag_373\n        /* \"#utility.yul\":11631:11633   */\n      0x40\n        /* \"#utility.yul\":11620:11629   */\n      dup4\n        /* \"#utility.yul\":11616:11634   */\n      add\n        /* \"#utility.yul\":11607:11613   */\n      dup5\n        /* \"#utility.yul\":11563:11635   */\n      tag_357\n      jump\t// in\n    tag_373:\n        /* \"#utility.yul\":11200:11642   */\n      swap5\n      swap4\n      pop\n      pop\n      pop\n      pop\n      jump\t// out\n        /* \"#utility.yul\":11648:11980   */\n    tag_140:\n        /* \"#utility.yul\":11769:11773   */\n      0x00\n        /* \"#utility.yul\":11807:11809   */\n      0x40\n        /* \"#utility.yul\":11796:11805   */\n      dup3\n        /* \"#utility.yul\":11792:11810   */\n      add\n        /* \"#utility.yul\":11784:11810   */\n      swap1\n      pop\n        /* \"#utility.yul\":11820:11891   */\n      tag_375\n        /* \"#utility.yul\":11888:11889   */\n      0x00\n        /* \"#utility.yul\":11877:11886   */\n      dup4\n        /* \"#utility.yul\":11873:11890   */\n      add\n        /* \"#utility.yul\":11864:11870   */\n      dup6\n        /* \"#utility.yul\":11820:11891   */\n      tag_279\n      jump\t// in\n    tag_375:\n        /* \"#utility.yul\":11901:11973   */\n      tag_376\n        /* \"#utility.yul\":11969:11971   */\n      0x20\n        /* \"#utility.yul\":11958:11967   */\n      dup4\n        /* \"#utility.yul\":11954:11972   */\n      add\n        /* \"#utility.yul\":11945:11951   */\n      dup5\n        /* \"#utility.yul\":11901:11973   */\n      tag_357\n      jump\t// in\n    tag_376:\n        /* \"#utility.yul\":11648:11980   */\n      swap4\n      swap3\n      pop\n      pop\n      pop\n      jump\t// out\n        /* \"#utility.yul\":11986:12196   */\n    tag_21:\n        /* \"#utility.yul\":12073:12077   */\n      0x00\n        /* \"#utility.yul\":12111:12113   */\n      0x20\n        /* \"#utility.yul\":12100:12109   */\n      dup3\n        /* \"#utility.yul\":12096:12114   */\n      add\n        /* \"#utility.yul\":12088:12114   */\n      swap1\n      pop\n        /* \"#utility.yul\":12124:12189   */\n      tag_378\n        /* \"#utility.yul\":12186:12187   */\n      0x00\n        /* \"#utility.yul\":12175:12184   */\n      dup4\n        /* \"#utility.yul\":12171:12188   */\n      add\n        /* \"#utility.yul\":12162:12168   */\n      dup5\n        /* \"#utility.yul\":12124:12189   */\n      tag_283\n      jump\t// in\n    tag_378:\n        /* \"#utility.yul\":11986:12196   */\n      swap3\n      swap2\n      pop\n      pop\n      jump\t// out\n        /* \"#utility.yul\":12202:12424   */\n    tag_33:\n        /* \"#utility.yul\":12295:12299   */\n      0x00\n        /* \"#utility.yul\":12333:12335   */\n      0x20\n        /* \"#utility.yul\":12322:12331   */\n      dup3\n        /* \"#utility.yul\":12318:12336   */\n      add\n        /* \"#utility.yul\":12310:12336   */\n      swap1\n      pop\n        /* \"#utility.yul\":12346:12417   */\n      tag_380\n        /* \"#utility.yul\":12414:12415   */\n      0x00\n        /* \"#utility.yul\":12403:12412   */\n      dup4\n        /* \"#utility.yul\":12399:12416   */\n      add\n        /* \"#utility.yul\":12390:12396   */\n      dup5\n        /* \"#utility.yul\":12346:12417   */\n      tag_287\n      jump\t// in\n    tag_380:\n        /* \"#utility.yul\":12202:12424   */\n      swap3\n      swap2\n      pop\n      pop\n      jump\t// out\n        /* \"#utility.yul\":12430:12743   */\n    tag_175:\n        /* \"#utility.yul\":12543:12547   */\n      0x00\n        /* \"#utility.yul\":12581:12583   */\n      0x20\n        /* \"#utility.yul\":12570:12579   */\n      dup3\n        /* \"#utility.yul\":12566:12584   */\n      add\n        /* \"#utility.yul\":12558:12584   */\n      swap1\n      pop\n        /* \"#utility.yul\":12630:12639   */\n      dup2\n        /* \"#utility.yul\":12624:12628   */\n      dup2\n        /* \"#utility.yul\":12620:12640   */\n      sub\n        /* \"#utility.yul\":12616:12617   */\n      0x00\n        /* \"#utility.yul\":12605:12614   */\n      dup4\n        /* \"#utility.yul\":12601:12618   */\n      add\n        /* \"#utility.yul\":12594:12641   */\n      mstore\n        /* \"#utility.yul\":12658:12736   */\n      tag_382\n        /* \"#utility.yul\":12731:12735   */\n      dup2\n        /* \"#utility.yul\":12722:12728   */\n      dup5\n        /* \"#utility.yul\":12658:12736   */\n      tag_291\n      jump\t// in\n    tag_382:\n        /* \"#utility.yul\":12650:12736   */\n      swap1\n      pop\n        /* \"#utility.yul\":12430:12743   */\n      swap3\n      swap2\n      pop\n      pop\n      jump\t// out\n        /* \"#utility.yul\":12749:13168   */\n    tag_131:\n        /* \"#utility.yul\":12915:12919   */\n      0x00\n        /* \"#utility.yul\":12953:12955   */\n      0x20\n        /* \"#utility.yul\":12942:12951   */\n      dup3\n        /* \"#utility.yul\":12938:12956   */\n      add\n        /* \"#utility.yul\":12930:12956   */\n      swap1\n      pop\n        /* \"#utility.yul\":13002:13011   */\n      dup2\n        /* \"#utility.yul\":12996:13000   */\n      dup2\n        /* \"#utility.yul\":12992:13012   */\n      sub\n        /* \"#utility.yul\":12988:12989   */\n      0x00\n        /* \"#utility.yul\":12977:12986   */\n      dup4\n        /* \"#utility.yul\":12973:12990   */\n      add\n        /* \"#utility.yul\":12966:13013   */\n      mstore\n        /* \"#utility.yul\":13030:13161   */\n      tag_384\n        /* \"#utility.yul\":13156:13160   */\n      dup2\n        /* \"#utility.yul\":13030:13161   */\n      tag_307\n      jump\t// in\n    tag_384:\n        /* \"#utility.yul\":13022:13161   */\n      swap1\n      pop\n        /* \"#utility.yul\":12749:13168   */\n      swap2\n      swap1\n      pop\n      jump\t// out\n        /* \"#utility.yul\":13174:13593   */\n    tag_201:\n        /* \"#utility.yul\":13340:13344   */\n      0x00\n        /* \"#utility.yul\":13378:13380   */\n      0x20\n        /* \"#utility.yul\":13367:13376   */\n      dup3\n        /* \"#utility.yul\":13363:13381   */\n      add\n        /* \"#utility.yul\":13355:13381   */\n      swap1\n      pop\n        /* \"#utility.yul\":13427:13436   */\n      dup2\n        /* \"#utility.yul\":13421:13425   */\n      dup2\n        /* \"#utility.yul\":13417:13437   */\n      sub\n        /* \"#utility.yul\":13413:13414   */\n      0x00\n        /* \"#utility.yul\":13402:13411   */\n      dup4\n        /* \"#utility.yul\":13398:13415   */\n      add\n        /* \"#utility.yul\":13391:13438   */\n      mstore\n        /* \"#utility.yul\":13455:13586   */\n      tag_386\n        /* \"#utility.yul\":13581:13585   */\n      dup2\n        /* \"#utility.yul\":13455:13586   */\n      tag_312\n      jump\t// in\n    tag_386:\n        /* \"#utility.yul\":13447:13586   */\n      swap1\n      pop\n        /* \"#utility.yul\":13174:13593   */\n      swap2\n      swap1\n      pop\n      jump\t// out\n        /* \"#utility.yul\":13599:14018   */\n    tag_111:\n        /* \"#utility.yul\":13765:13769   */\n      0x00\n        /* \"#utility.yul\":13803:13805   */\n      0x20\n        /* \"#utility.yul\":13792:13801   */\n      dup3\n        /* \"#utility.yul\":13788:13806   */\n      add\n        /* \"#utility.yul\":13780:13806   */\n      swap1\n      pop\n        /* \"#utility.yul\":13852:13861   */\n      dup2\n        /* \"#utility.yul\":13846:13850   */\n      dup2\n        /* \"#utility.yul\":13842:13862   */\n      sub\n        /* \"#utility.yul\":13838:13839   */\n      0x00\n        /* \"#utility.yul\":13827:13836   */\n      dup4\n        /* \"#utility.yul\":13823:13840   */\n      add\n        /* \"#utility.yul\":13816:13863   */\n      mstore\n        /* \"#utility.yul\":13880:14011   */\n      tag_388\n        /* \"#utility.yul\":14006:14010   */\n      dup2\n        /* \"#utility.yul\":13880:14011   */\n      tag_317\n      jump\t// in\n    tag_388:\n        /* \"#utility.yul\":13872:14011   */\n      swap1\n      pop\n        /* \"#utility.yul\":13599:14018   */\n      swap2\n      swap1\n      pop\n      jump\t// out\n        /* \"#utility.yul\":14024:14443   */\n    tag_127:\n        /* \"#utility.yul\":14190:14194   */\n      0x00\n        /* \"#utility.yul\":14228:14230   */\n      0x20\n        /* \"#utility.yul\":14217:14226   */\n      dup3\n        /* \"#utility.yul\":14213:14231   */\n      add\n        /* \"#utility.yul\":14205:14231   */\n      swap1\n      pop\n        /* \"#utility.yul\":14277:14286   */\n      dup2\n        /* \"#utility.yul\":14271:14275   */\n      dup2\n        /* \"#utility.yul\":14267:14287   */\n      sub\n        /* \"#utility.yul\":14263:14264   */\n      0x00\n        /* \"#utility.yul\":14252:14261   */\n      dup4\n        /* \"#utility.yul\":14248:14265   */\n      add\n        /* \"#utility.yul\":14241:14288   */\n      mstore\n        /* \"#utility.yul\":14305:14436   */\n      tag_390\n        /* \"#utility.yul\":14431:14435   */\n      dup2\n        /* \"#utility.yul\":14305:14436   */\n      tag_322\n      jump\t// in\n    tag_390:\n        /* \"#utility.yul\":14297:14436   */\n      swap1\n      pop\n        /* \"#utility.yul\":14024:14443   */\n      swap2\n      swap1\n      pop\n      jump\t// out\n        /* \"#utility.yul\":14449:14868   */\n    tag_97:\n        /* \"#utility.yul\":14615:14619   */\n      0x00\n        /* \"#utility.yul\":14653:14655   */\n      0x20\n        /* \"#utility.yul\":14642:14651   */\n      dup3\n        /* \"#utility.yul\":14638:14656   */\n      add\n        /* \"#utility.yul\":14630:14656   */\n      swap1\n      pop\n        /* \"#utility.yul\":14702:14711   */\n      dup2\n        /* \"#utility.yul\":14696:14700   */\n      dup2\n        /* \"#utility.yul\":14692:14712   */\n      sub\n        /* \"#utility.yul\":14688:14689   */\n      0x00\n        /* \"#utility.yul\":14677:14686   */\n      dup4\n        /* \"#utility.yul\":14673:14690   */\n      add\n        /* \"#utility.yul\":14666:14713   */\n      mstore\n        /* \"#utility.yul\":14730:14861   */\n      tag_392\n        /* \"#utility.yul\":14856:14860   */\n      dup2\n        /* \"#utility.yul\":14730:14861   */\n      tag_327\n      jump\t// in\n    tag_392:\n        /* \"#utility.yul\":14722:14861   */\n      swap1\n      pop\n        /* \"#utility.yul\":14449:14868   */\n      swap2\n      swap1\n      pop\n      jump\t// out\n        /* \"#utility.yul\":14874:15293   */\n    tag_134:\n        /* \"#utility.yul\":15040:15044   */\n      0x00\n        /* \"#utility.yul\":15078:15080   */\n      0x20\n        /* \"#utility.yul\":15067:15076   */\n      dup3\n        /* \"#utility.yul\":15063:15081   */\n      add\n        /* \"#utility.yul\":15055:15081   */\n      swap1\n      pop\n        /* \"#utility.yul\":15127:15136   */\n      dup2\n        /* \"#utility.yul\":15121:15125   */\n      dup2\n        /* \"#utility.yul\":15117:15137   */\n      sub\n        /* \"#utility.yul\":15113:15114   */\n      0x00\n        /* \"#utility.yul\":15102:15111   */\n      dup4\n        /* \"#utility.yul\":15098:15115   */\n      add\n        /* \"#utility.yul\":15091:15138   */\n      mstore\n        /* \"#utility.yul\":15155:15286   */\n      tag_394\n        /* \"#utility.yul\":15281:15285   */\n      dup2\n        /* \"#utility.yul\":15155:15286   */\n      tag_332\n      jump\t// in\n    tag_394:\n        /* \"#utility.yul\":15147:15286   */\n      swap1\n      pop\n        /* \"#utility.yul\":14874:15293   */\n      swap2\n      swap1\n      pop\n      jump\t// out\n        /* \"#utility.yul\":15299:15718   */\n    tag_147:\n        /* \"#utility.yul\":15465:15469   */\n      0x00\n        /* \"#utility.yul\":15503:15505   */\n      0x20\n        /* \"#utility.yul\":15492:15501   */\n      dup3\n        /* \"#utility.yul\":15488:15506   */\n      add\n        /* \"#utility.yul\":15480:15506   */\n      swap1\n      pop\n        /* \"#utility.yul\":15552:15561   */\n      dup2\n        /* \"#utility.yul\":15546:15550   */\n      dup2\n        /* \"#utility.yul\":15542:15562   */\n      sub\n        /* \"#utility.yul\":15538:15539   */\n      0x00\n        /* \"#utility.yul\":15527:15536   */\n      dup4\n        /* \"#utility.yul\":15523:15540   */\n      add\n        /* \"#utility.yul\":15516:15563   */\n      mstore\n        /* \"#utility.yul\":15580:15711   */\n      tag_396\n        /* \"#utility.yul\":15706:15710   */\n      dup2\n        /* \"#utility.yul\":15580:15711   */\n      tag_342\n      jump\t// in\n    tag_396:\n        /* \"#utility.yul\":15572:15711   */\n      swap1\n      pop\n        /* \"#utility.yul\":15299:15718   */\n      swap2\n      swap1\n      pop\n      jump\t// out\n        /* \"#utility.yul\":15724:16143   */\n    tag_82:\n        /* \"#utility.yul\":15890:15894   */\n      0x00\n        /* \"#utility.yul\":15928:15930   */\n      0x20\n        /* \"#utility.yul\":15917:15926   */\n      dup3\n        /* \"#utility.yul\":15913:15931   */\n      add\n        /* \"#utility.yul\":15905:15931   */\n      swap1\n      pop\n        /* \"#utility.yul\":15977:15986   */\n      dup2\n        /* \"#utility.yul\":15971:15975   */\n      dup2\n        /* \"#utility.yul\":15967:15987   */\n      sub\n        /* \"#utility.yul\":15963:15964   */\n      0x00\n        /* \"#utility.yul\":15952:15961   */\n      dup4\n        /* \"#utility.yul\":15948:15965   */\n      add\n        /* \"#utility.yul\":15941:15988   */\n      mstore\n        /* \"#utility.yul\":16005:16136   */\n      tag_398\n        /* \"#utility.yul\":16131:16135   */\n      dup2\n        /* \"#utility.yul\":16005:16136   */\n      tag_352\n      jump\t// in\n    tag_398:\n        /* \"#utility.yul\":15997:16136   */\n      swap1\n      pop\n        /* \"#utility.yul\":15724:16143   */\n      swap2\n      swap1\n      pop\n      jump\t// out\n        /* \"#utility.yul\":16149:16591   */\n    tag_27:\n        /* \"#utility.yul\":16298:16302   */\n      0x00\n        /* \"#utility.yul\":16336:16338   */\n      0x60\n        /* \"#utility.yul\":16325:16334   */\n      dup3\n        /* \"#utility.yul\":16321:16339   */\n      add\n        /* \"#utility.yul\":16313:16339   */\n      swap1\n      pop\n        /* \"#utility.yul\":16349:16420   */\n      tag_400\n        /* \"#utility.yul\":16417:16418   */\n      0x00\n        /* \"#utility.yul\":16406:16415   */\n      dup4\n        /* \"#utility.yul\":16402:16419   */\n      add\n        /* \"#utility.yul\":16393:16399   */\n      dup7\n        /* \"#utility.yul\":16349:16420   */\n      tag_357\n      jump\t// in\n    tag_400:\n        /* \"#utility.yul\":16430:16502   */\n      tag_401\n        /* \"#utility.yul\":16498:16500   */\n      0x20\n        /* \"#utility.yul\":16487:16496   */\n      dup4\n        /* \"#utility.yul\":16483:16501   */\n      add\n        /* \"#utility.yul\":16474:16480   */\n      dup6\n        /* \"#utility.yul\":16430:16502   */\n      tag_357\n      jump\t// in\n    tag_401:\n        /* \"#utility.yul\":16512:16584   */\n      tag_402\n        /* \"#utility.yul\":16580:16582   */\n      0x40\n        /* \"#utility.yul\":16569:16578   */\n      dup4\n        /* \"#utility.yul\":16565:16583   */\n      add\n        /* \"#utility.yul\":16556:16562   */\n      dup5\n        /* \"#utility.yul\":16512:16584   */\n      tag_357\n      jump\t// in\n    tag_402:\n        /* \"#utility.yul\":16149:16591   */\n      swap5\n      swap4\n      pop\n      pop\n      pop\n      pop\n      jump\t// out\n        /* \"#utility.yul\":16597:16726   */\n    tag_208:\n        /* \"#utility.yul\":16631:16637   */\n      0x00\n        /* \"#utility.yul\":16658:16678   */\n      tag_404\n      tag_405\n      jump\t// in\n    tag_404:\n        /* \"#utility.yul\":16648:16678   */\n      swap1\n      pop\n        /* \"#utility.yul\":16687:16720   */\n      tag_406\n        /* \"#utility.yul\":16715:16719   */\n      dup3\n        /* \"#utility.yul\":16707:16713   */\n      dup3\n        /* \"#utility.yul\":16687:16720   */\n      tag_407\n      jump\t// in\n    tag_406:\n        /* \"#utility.yul\":16597:16726   */\n      swap2\n      swap1\n      pop\n      jump\t// out\n        /* \"#utility.yul\":16732:16807   */\n    tag_405:\n        /* \"#utility.yul\":16765:16771   */\n      0x00\n        /* \"#utility.yul\":16798:16800   */\n      0x40\n        /* \"#utility.yul\":16792:16801   */\n      mload\n        /* \"#utility.yul\":16782:16801   */\n      swap1\n      pop\n        /* \"#utility.yul\":16732:16807   */\n      swap1\n      jump\t// out\n        /* \"#utility.yul\":16813:17121   */\n    tag_207:\n        /* \"#utility.yul\":16875:16879   */\n      0x00\n        /* \"#utility.yul\":16965:16983   */\n      0xffffffffffffffff\n        /* \"#utility.yul\":16957:16963   */\n      dup3\n        /* \"#utility.yul\":16954:16984   */\n      gt\n        /* \"#utility.yul\":16951:17007   */\n      iszero\n      tag_410\n      jumpi\n        /* \"#utility.yul\":16987:17005   */\n      tag_411\n      tag_181\n      jump\t// in\n    tag_411:\n        /* \"#utility.yul\":16951:17007   */\n    tag_410:\n        /* \"#utility.yul\":17025:17054   */\n      tag_412\n        /* \"#utility.yul\":17047:17053   */\n      dup3\n        /* \"#utility.yul\":17025:17054   */\n      tag_300\n      jump\t// in\n    tag_412:\n        /* \"#utility.yul\":17017:17054   */\n      swap1\n      pop\n        /* \"#utility.yul\":17109:17113   */\n      0x20\n        /* \"#utility.yul\":17103:17107   */\n      dup2\n        /* \"#utility.yul\":17099:17114   */\n      add\n        /* \"#utility.yul\":17091:17114   */\n      swap1\n      pop\n        /* \"#utility.yul\":16813:17121   */\n      swap2\n      swap1\n      pop\n      jump\t// out\n        /* \"#utility.yul\":17127:17226   */\n    tag_294:\n        /* \"#utility.yul\":17179:17185   */\n      0x00\n        /* \"#utility.yul\":17213:17218   */\n      dup2\n        /* \"#utility.yul\":17207:17219   */\n      mload\n        /* \"#utility.yul\":17197:17219   */\n      swap1\n      pop\n        /* \"#utility.yul\":17127:17226   */\n      swap2\n      swap1\n      pop\n      jump\t// out\n        /* \"#utility.yul\":17232:17401   */\n    tag_296:\n        /* \"#utility.yul\":17316:17327   */\n      0x00\n        /* \"#utility.yul\":17350:17356   */\n      dup3\n        /* \"#utility.yul\":17345:17348   */\n      dup3\n        /* \"#utility.yul\":17338:17357   */\n      mstore\n        /* \"#utility.yul\":17390:17394   */\n      0x20\n        /* \"#utility.yul\":17385:17388   */\n      dup3\n        /* \"#utility.yul\":17381:17395   */\n      add\n        /* \"#utility.yul\":17366:17395   */\n      swap1\n      pop\n        /* \"#utility.yul\":17232:17401   */\n      swap3\n      swap2\n      pop\n      pop\n      jump\t// out\n        /* \"#utility.yul\":17407:17555   */\n    tag_305:\n        /* \"#utility.yul\":17509:17520   */\n      0x00\n        /* \"#utility.yul\":17546:17549   */\n      dup2\n        /* \"#utility.yul\":17531:17549   */\n      swap1\n      pop\n        /* \"#utility.yul\":17407:17555   */\n      swap3\n      swap2\n      pop\n      pop\n      jump\t// out\n        /* \"#utility.yul\":17561:17866   */\n    tag_149:\n        /* \"#utility.yul\":17601:17604   */\n      0x00\n        /* \"#utility.yul\":17620:17640   */\n      tag_417\n        /* \"#utility.yul\":17638:17639   */\n      dup3\n        /* \"#utility.yul\":17620:17640   */\n      tag_360\n      jump\t// in\n    tag_417:\n        /* \"#utility.yul\":17615:17640   */\n      swap2\n      pop\n        /* \"#utility.yul\":17654:17674   */\n      tag_418\n        /* \"#utility.yul\":17672:17673   */\n      dup4\n        /* \"#utility.yul\":17654:17674   */\n      tag_360\n      jump\t// in\n    tag_418:\n        /* \"#utility.yul\":17649:17674   */\n      swap3\n      pop\n        /* \"#utility.yul\":17808:17809   */\n      dup3\n        /* \"#utility.yul\":17740:17806   */\n      0xffffffffffffffffffffffffffffffffffffffffffffffffffffffffffffffff\n        /* \"#utility.yul\":17736:17810   */\n      sub\n        /* \"#utility.yul\":17733:17734   */\n      dup3\n        /* \"#utility.yul\":17730:17811   */\n      gt\n        /* \"#utility.yul\":17727:17834   */\n      iszero\n      tag_419\n      jumpi\n        /* \"#utility.yul\":17814:17832   */\n      tag_420\n      tag_421\n      jump\t// in\n    tag_420:\n        /* \"#utility.yul\":17727:17834   */\n    tag_419:\n        /* \"#utility.yul\":17858:17859   */\n      dup3\n        /* \"#utility.yul\":17855:17856   */\n      dup3\n        /* \"#utility.yul\":17851:17860   */\n      add\n        /* \"#utility.yul\":17844:17860   */\n      swap1\n      pop\n        /* \"#utility.yul\":17561:17866   */\n      swap3\n      swap2\n      pop\n      pop\n      jump\t// out\n        /* \"#utility.yul\":17872:18057   */\n    tag_102:\n        /* \"#utility.yul\":17912:17913   */\n      0x00\n        /* \"#utility.yul\":17929:17949   */\n      tag_423\n        /* \"#utility.yul\":17947:17948   */\n      dup3\n        /* \"#utility.yul\":17929:17949   */\n      tag_360\n      jump\t// in\n    tag_423:\n        /* \"#utility.yul\":17924:17949   */\n      swap2\n      pop\n        /* \"#utility.yul\":17963:17983   */\n      tag_424\n        /* \"#utility.yul\":17981:17982   */\n      dup4\n        /* \"#utility.yul\":17963:17983   */\n      tag_360\n      jump\t// in\n    tag_424:\n        /* \"#utility.yul\":17958:17983   */\n      swap3\n      pop\n        /* \"#utility.yul\":18002:18003   */\n      dup3\n        /* \"#utility.yul\":17992:18027   */\n      tag_425\n      jumpi\n        /* \"#utility.yul\":18007:18025   */\n      tag_426\n      tag_427\n      jump\t// in\n    tag_426:\n        /* \"#utility.yul\":17992:18027   */\n    tag_425:\n        /* \"#utility.yul\":18049:18050   */\n      dup3\n        /* \"#utility.yul\":18046:18047   */\n      dup3\n        /* \"#utility.yul\":18042:18051   */\n      div\n        /* \"#utility.yul\":18037:18051   */\n      swap1\n      pop\n        /* \"#utility.yul\":17872:18057   */\n      swap3\n      swap2\n      pop\n      pop\n      jump\t// out\n        /* \"#utility.yul\":18063:18411   */\n    tag_100:\n        /* \"#utility.yul\":18103:18110   */\n      0x00\n        /* \"#utility.yul\":18126:18146   */\n      tag_429\n        /* \"#utility.yul\":18144:18145   */\n      dup3\n        /* \"#utility.yul\":18126:18146   */\n      tag_360\n      jump\t// in\n    tag_429:\n        /* \"#utility.yul\":18121:18146   */\n      swap2\n      pop\n        /* \"#utility.yul\":18160:18180   */\n      tag_430\n        /* \"#utility.yul\":18178:18179   */\n      dup4\n        /* \"#utility.yul\":18160:18180   */\n      tag_360\n      jump\t// in\n    tag_430:\n        /* \"#utility.yul\":18155:18180   */\n      swap3\n      pop\n        /* \"#utility.yul\":18348:18349   */\n      dup2\n        /* \"#utility.yul\":18280:18346   */\n      0xffffffffffffffffffffffffffffffffffffffffffffffffffffffffffffffff\n        /* \"#utility.yul\":18276:18350   */\n      div\n        /* \"#utility.yul\":18273:18274   */\n      dup4\n        /* \"#utility.yul\":18270:18351   */\n      gt\n        /* \"#utility.yul\":18265:18266   */\n      dup3\n        /* \"#utility.yul\":18258:18267   */\n      iszero\n        /* \"#utility.yul\":18251:18268   */\n      iszero\n        /* \"#utility.yul\":18247:18352   */\n      and\n        /* \"#utility.yul\":18244:18375   */\n      iszero\n      tag_431\n      jumpi\n        /* \"#utility.yul\":18355:18373   */\n      tag_432\n      tag_421\n      jump\t// in\n    tag_432:\n        /* \"#utility.yul\":18244:18375   */\n    tag_431:\n        /* \"#utility.yul\":18403:18404   */\n      dup3\n        /* \"#utility.yul\":18400:18401   */\n      dup3\n        /* \"#utility.yul\":18396:18405   */\n      mul\n        /* \"#utility.yul\":18385:18405   */\n      swap1\n      pop\n        /* \"#utility.yul\":18063:18411   */\n      swap3\n      swap2\n      pop\n      pop\n      jump\t// out\n        /* \"#utility.yul\":18417:18608   */\n    tag_136:\n        /* \"#utility.yul\":18457:18461   */\n      0x00\n        /* \"#utility.yul\":18477:18497   */\n      tag_434\n        /* \"#utility.yul\":18495:18496   */\n      dup3\n        /* \"#utility.yul\":18477:18497   */\n      tag_360\n      jump\t// in\n    tag_434:\n        /* \"#utility.yul\":18472:18497   */\n      swap2\n      pop\n        /* \"#utility.yul\":18511:18531   */\n      tag_435\n        /* \"#utility.yul\":18529:18530   */\n      dup4\n        /* \"#utility.yul\":18511:18531   */\n      tag_360\n      jump\t// in\n    tag_435:\n        /* \"#utility.yul\":18506:18531   */\n      swap3\n      pop\n        /* \"#utility.yul\":18550:18551   */\n      dup3\n        /* \"#utility.yul\":18547:18548   */\n      dup3\n        /* \"#utility.yul\":18544:18552   */\n      lt\n        /* \"#utility.yul\":18541:18575   */\n      iszero\n      tag_436\n      jumpi\n        /* \"#utility.yul\":18555:18573   */\n      tag_437\n      tag_421\n      jump\t// in\n    tag_437:\n        /* \"#utility.yul\":18541:18575   */\n    tag_436:\n        /* \"#utility.yul\":18600:18601   */\n      dup3\n        /* \"#utility.yul\":18597:18598   */\n      dup3\n        /* \"#utility.yul\":18593:18602   */\n      sub\n        /* \"#utility.yul\":18585:18602   */\n      swap1\n      pop\n        /* \"#utility.yul\":18417:18608   */\n      swap3\n      swap2\n      pop\n      pop\n      jump\t// out\n        /* \"#utility.yul\":18614:18710   */\n    tag_282:\n        /* \"#utility.yul\":18651:18658   */\n      0x00\n        /* \"#utility.yul\":18680:18704   */\n      tag_439\n        /* \"#utility.yul\":18698:18703   */\n      dup3\n        /* \"#utility.yul\":18680:18704   */\n      tag_440\n      jump\t// in\n    tag_439:\n        /* \"#utility.yul\":18669:18704   */\n      swap1\n      pop\n        /* \"#utility.yul\":18614:18710   */\n      swap2\n      swap1\n      pop\n      jump\t// out\n        /* \"#utility.yul\":18716:18806   */\n    tag_286:\n        /* \"#utility.yul\":18750:18757   */\n      0x00\n        /* \"#utility.yul\":18793:18798   */\n      dup2\n        /* \"#utility.yul\":18786:18799   */\n      iszero\n        /* \"#utility.yul\":18779:18800   */\n      iszero\n        /* \"#utility.yul\":18768:18800   */\n      swap1\n      pop\n        /* \"#utility.yul\":18716:18806   */\n      swap2\n      swap1\n      pop\n      jump\t// out\n        /* \"#utility.yul\":18812:18889   */\n    tag_290:\n        /* \"#utility.yul\":18849:18856   */\n      0x00\n        /* \"#utility.yul\":18878:18883   */\n      dup2\n        /* \"#utility.yul\":18867:18883   */\n      swap1\n      pop\n        /* \"#utility.yul\":18812:18889   */\n      swap2\n      swap1\n      pop\n      jump\t// out\n        /* \"#utility.yul\":18895:19044   */\n    tag_443:\n        /* \"#utility.yul\":18931:18938   */\n      0x00\n        /* \"#utility.yul\":18971:19037   */\n      0xffffffff00000000000000000000000000000000000000000000000000000000\n        /* \"#utility.yul\":18964:18969   */\n      dup3\n        /* \"#utility.yul\":18960:19038   */\n      and\n        /* \"#utility.yul\":18949:19038   */\n      swap1\n      pop\n        /* \"#utility.yul\":18895:19044   */\n      swap2\n      swap1\n      pop\n      jump\t// out\n        /* \"#utility.yul\":19050:19176   */\n    tag_440:\n        /* \"#utility.yul\":19087:19094   */\n      0x00\n        /* \"#utility.yul\":19127:19169   */\n      0xffffffffffffffffffffffffffffffffffffffff\n        /* \"#utility.yul\":19120:19125   */\n      dup3\n        /* \"#utility.yul\":19116:19170   */\n      and\n        /* \"#utility.yul\":19105:19170   */\n      swap1\n      pop\n        /* \"#utility.yul\":19050:19176   */\n      swap2\n      swap1\n      pop\n      jump\t// out\n        /* \"#utility.yul\":19182:19259   */\n    tag_360:\n        /* \"#utility.yul\":19219:19226   */\n      0x00\n        /* \"#utility.yul\":19248:19253   */\n      dup2\n        /* \"#utility.yul\":19237:19253   */\n      swap1\n      pop\n        /* \"#utility.yul\":19182:19259   */\n      swap2\n      swap1\n      pop\n      jump\t// out\n        /* \"#utility.yul\":19265:19419   */\n    tag_213:\n        /* \"#utility.yul\":19349:19355   */\n      dup3\n        /* \"#utility.yul\":19344:19347   */\n      dup2\n        /* \"#utility.yul\":19339:19342   */\n      dup4\n        /* \"#utility.yul\":19326:19356   */\n      calldatacopy\n        /* \"#utility.yul\":19411:19412   */\n      0x00\n        /* \"#utility.yul\":19402:19408   */\n      dup4\n        /* \"#utility.yul\":19397:19400   */\n      dup4\n        /* \"#utility.yul\":19393:19409   */\n      add\n        /* \"#utility.yul\":19386:19413   */\n      mstore\n        /* \"#utility.yul\":19265:19419   */\n      pop\n      pop\n      pop\n      jump\t// out\n        /* \"#utility.yul\":19425:19732   */\n    tag_298:\n        /* \"#utility.yul\":19493:19494   */\n      0x00\n        /* \"#utility.yul\":19503:19616   */\n    tag_449:\n        /* \"#utility.yul\":19517:19523   */\n      dup4\n        /* \"#utility.yul\":19514:19515   */\n      dup2\n        /* \"#utility.yul\":19511:19524   */\n      lt\n        /* \"#utility.yul\":19503:19616   */\n      iszero\n      tag_451\n      jumpi\n        /* \"#utility.yul\":19602:19603   */\n      dup1\n        /* \"#utility.yul\":19597:19600   */\n      dup3\n        /* \"#utility.yul\":19593:19604   */\n      add\n        /* \"#utility.yul\":19587:19605   */\n      mload\n        /* \"#utility.yul\":19583:19584   */\n      dup2\n        /* \"#utility.yul\":19578:19581   */\n      dup5\n        /* \"#utility.yul\":19574:19585   */\n      add\n        /* \"#utility.yul\":19567:19606   */\n      mstore\n        /* \"#utility.yul\":19539:19541   */\n      0x20\n        /* \"#utility.yul\":19536:19537   */\n      dup2\n        /* \"#utility.yul\":19532:19542   */\n      add\n        /* \"#utility.yul\":19527:19542   */\n      swap1\n      pop\n        /* \"#utility.yul\":19503:19616   */\n      jump(tag_449)\n    tag_451:\n        /* \"#utility.yul\":19634:19640   */\n      dup4\n        /* \"#utility.yul\":19631:19632   */\n      dup2\n        /* \"#utility.yul\":19628:19641   */\n      gt\n        /* \"#utility.yul\":19625:19726   */\n      iszero\n      tag_452\n      jumpi\n        /* \"#utility.yul\":19714:19715   */\n      0x00\n        /* \"#utility.yul\":19705:19711   */\n      dup5\n        /* \"#utility.yul\":19700:19703   */\n      dup5\n        /* \"#utility.yul\":19696:19712   */\n      add\n        /* \"#utility.yul\":19689:19716   */\n      mstore\n        /* \"#utility.yul\":19625:19726   */\n    tag_452:\n        /* \"#utility.yul\":19474:19732   */\n      pop\n        /* \"#utility.yul\":19425:19732   */\n      pop\n      pop\n      pop\n      jump\t// out\n        /* \"#utility.yul\":19738:19909   */\n    tag_198:\n        /* \"#utility.yul\":19777:19780   */\n      0x00\n        /* \"#utility.yul\":19800:19824   */\n      tag_454\n        /* \"#utility.yul\":19818:19823   */\n      dup3\n        /* \"#utility.yul\":19800:19824   */\n      tag_360\n      jump\t// in\n    tag_454:\n        /* \"#utility.yul\":19791:19824   */\n      swap2\n      pop\n        /* \"#utility.yul\":19846:19850   */\n      0x00\n        /* \"#utility.yul\":19839:19844   */\n      dup3\n        /* \"#utility.yul\":19836:19851   */\n      eq\n        /* \"#utility.yul\":19833:19874   */\n      iszero\n      tag_455\n      jumpi\n        /* \"#utility.yul\":19854:19872   */\n      tag_456\n      tag_421\n      jump\t// in\n    tag_456:\n        /* \"#utility.yul\":19833:19874   */\n    tag_455:\n        /* \"#utility.yul\":19901:19902   */\n      0x01\n        /* \"#utility.yul\":19894:19899   */\n      dup3\n        /* \"#utility.yul\":19890:19903   */\n      sub\n        /* \"#utility.yul\":19883:19903   */\n      swap1\n      pop\n        /* \"#utility.yul\":19738:19909   */\n      swap2\n      swap1\n      pop\n      jump\t// out\n        /* \"#utility.yul\":19915:20196   */\n    tag_407:\n        /* \"#utility.yul\":19998:20025   */\n      tag_458\n        /* \"#utility.yul\":20020:20024   */\n      dup3\n        /* \"#utility.yul\":19998:20025   */\n      tag_300\n      jump\t// in\n    tag_458:\n        /* \"#utility.yul\":19990:19996   */\n      dup2\n        /* \"#utility.yul\":19986:20026   */\n      add\n        /* \"#utility.yul\":20128:20134   */\n      dup2\n        /* \"#utility.yul\":20116:20126   */\n      dup2\n        /* \"#utility.yul\":20113:20135   */\n      lt\n        /* \"#utility.yul\":20092:20110   */\n      0xffffffffffffffff\n        /* \"#utility.yul\":20080:20090   */\n      dup3\n        /* \"#utility.yul\":20077:20111   */\n      gt\n        /* \"#utility.yul\":20074:20136   */\n      or\n        /* \"#utility.yul\":20071:20159   */\n      iszero\n      tag_459\n      jumpi\n        /* \"#utility.yul\":20139:20157   */\n      tag_460\n      tag_181\n      jump\t// in\n    tag_460:\n        /* \"#utility.yul\":20071:20159   */\n    tag_459:\n        /* \"#utility.yul\":20179:20189   */\n      dup1\n        /* \"#utility.yul\":20175:20177   */\n      0x40\n        /* \"#utility.yul\":20168:20190   */\n      mstore\n        /* \"#utility.yul\":19958:20196   */\n      pop\n        /* \"#utility.yul\":19915:20196   */\n      pop\n      pop\n      jump\t// out\n        /* \"#utility.yul\":20202:20382   */\n    tag_421:\n        /* \"#utility.yul\":20250:20327   */\n      0x4e487b7100000000000000000000000000000000000000000000000000000000\n        /* \"#utility.yul\":20247:20248   */\n      0x00\n        /* \"#utility.yul\":20240:20328   */\n      mstore\n        /* \"#utility.yul\":20347:20351   */\n      0x11\n        /* \"#utility.yul\":20344:20345   */\n      0x04\n        /* \"#utility.yul\":20337:20352   */\n      mstore\n        /* \"#utility.yul\":20371:20375   */\n      0x24\n        /* \"#utility.yul\":20368:20369   */\n      0x00\n        /* \"#utility.yul\":20361:20376   */\n      revert\n        /* \"#utility.yul\":20388:20568   */\n    tag_427:\n        /* \"#utility.yul\":20436:20513   */\n      0x4e487b7100000000000000000000000000000000000000000000000000000000\n        /* \"#utility.yul\":20433:20434   */\n      0x00\n        /* \"#utility.yul\":20426:20514   */\n      mstore\n        /* \"#utility.yul\":20533:20537   */\n      0x12\n        /* \"#utility.yul\":20530:20531   */\n      0x04\n        /* \"#utility.yul\":20523:20538   */\n      mstore\n        /* \"#utility.yul\":20557:20561   */\n      0x24\n        /* \"#utility.yul\":20554:20555   */\n      0x00\n        /* \"#utility.yul\":20547:20562   */\n      revert\n        /* \"#utility.yul\":20574:20754   */\n    tag_185:\n        /* \"#utility.yul\":20622:20699   */\n      0x4e487b7100000000000000000000000000000000000000000000000000000000\n        /* \"#utility.yul\":20619:20620   */\n      0x00\n        /* \"#utility.yul\":20612:20700   */\n      mstore\n        /* \"#utility.yul\":20719:20723   */\n      0x32\n        /* \"#utility.yul\":20716:20717   */\n      0x04\n        /* \"#utility.yul\":20709:20724   */\n      mstore\n        /* \"#utility.yul\":20743:20747   */\n      0x24\n        /* \"#utility.yul\":20740:20741   */\n      0x00\n        /* \"#utility.yul\":20733:20748   */\n      revert\n        /* \"#utility.yul\":20760:20940   */\n    tag_181:\n        /* \"#utility.yul\":20808:20885   */\n      0x4e487b7100000000000000000000000000000000000000000000000000000000\n        /* \"#utility.yul\":20805:20806   */\n      0x00\n        /* \"#utility.yul\":20798:20886   */\n      mstore\n        /* \"#utility.yul\":20905:20909   */\n      0x41\n        /* \"#utility.yul\":20902:20903   */\n      0x04\n        /* \"#utility.yul\":20895:20910   */\n      mstore\n        /* \"#utility.yul\":20929:20933   */\n      0x24\n        /* \"#utility.yul\":20926:20927   */\n      0x00\n        /* \"#utility.yul\":20919:20934   */\n      revert\n        /* \"#utility.yul\":20946:21063   */\n    tag_234:\n        /* \"#utility.yul\":21055:21056   */\n      0x00\n        /* \"#utility.yul\":21052:21053   */\n      dup1\n        /* \"#utility.yul\":21045:21057   */\n      revert\n        /* \"#utility.yul\":21069:21186   */\n    tag_211:\n        /* \"#utility.yul\":21178:21179   */\n      0x00\n        /* \"#utility.yul\":21175:21176   */\n      dup1\n        /* \"#utility.yul\":21168:21180   */\n      revert\n        /* \"#utility.yul\":21192:21309   */\n    tag_266:\n        /* \"#utility.yul\":21301:21302   */\n      0x00\n        /* \"#utility.yul\":21298:21299   */\n      dup1\n        /* \"#utility.yul\":21291:21303   */\n      revert\n        /* \"#utility.yul\":21315:21432   */\n    tag_246:\n        /* \"#utility.yul\":21424:21425   */\n      0x00\n        /* \"#utility.yul\":21421:21422   */\n      dup1\n        /* \"#utility.yul\":21414:21426   */\n      revert\n        /* \"#utility.yul\":21438:21540   */\n    tag_300:\n        /* \"#utility.yul\":21479:21485   */\n      0x00\n        /* \"#utility.yul\":21530:21532   */\n      0x1f\n        /* \"#utility.yul\":21526:21533   */\n      not\n        /* \"#utility.yul\":21521:21523   */\n      0x1f\n        /* \"#utility.yul\":21514:21519   */\n      dup4\n        /* \"#utility.yul\":21510:21524   */\n      add\n        /* \"#utility.yul\":21506:21534   */\n      and\n        /* \"#utility.yul\":21496:21534   */\n      swap1\n      pop\n        /* \"#utility.yul\":21438:21540   */\n      swap2\n      swap1\n      pop\n      jump\t// out\n        /* \"#utility.yul\":21546:21773   */\n    tag_311:\n        /* \"#utility.yul\":21686:21720   */\n      0x63616c6c6572206973206e6f7420656c696769626c6520666f72206e65787420\n        /* \"#utility.yul\":21682:21683   */\n      0x00\n        /* \"#utility.yul\":21674:21680   */\n      dup3\n        /* \"#utility.yul\":21670:21684   */\n      add\n        /* \"#utility.yul\":21663:21721   */\n      mstore\n        /* \"#utility.yul\":21755:21765   */\n      0x7769746864726177000000000000000000000000000000000000000000000000\n        /* \"#utility.yul\":21750:21752   */\n      0x20\n        /* \"#utility.yul\":21742:21748   */\n      dup3\n        /* \"#utility.yul\":21738:21753   */\n      add\n        /* \"#utility.yul\":21731:21766   */\n      mstore\n        /* \"#utility.yul\":21546:21773   */\n      pop\n      jump\t// out\n        /* \"#utility.yul\":21779:21961   */\n    tag_316:\n        /* \"#utility.yul\":21919:21953   */\n      0x537472696e67733a20686578206c656e67746820696e73756666696369656e74\n        /* \"#utility.yul\":21915:21916   */\n      0x00\n        /* \"#utility.yul\":21907:21913   */\n      dup3\n        /* \"#utility.yul\":21903:21917   */\n      add\n        /* \"#utility.yul\":21896:21954   */\n      mstore\n        /* \"#utility.yul\":21779:21961   */\n      pop\n      jump\t// out\n        /* \"#utility.yul\":21967:22144   */\n    tag_321:\n        /* \"#utility.yul\":22107:22136   */\n      0x63616c6c6572206973206e6f742061646d696e6973747261746f720000000000\n        /* \"#utility.yul\":22103:22104   */\n      0x00\n        /* \"#utility.yul\":22095:22101   */\n      dup3\n        /* \"#utility.yul\":22091:22105   */\n      add\n        /* \"#utility.yul\":22084:22137   */\n      mstore\n        /* \"#utility.yul\":21967:22144   */\n      pop\n      jump\t// out\n        /* \"#utility.yul\":22150:22328   */\n    tag_326:\n        /* \"#utility.yul\":22290:22320   */\n      0x6e6f7420656e6f7567682066756e647320696e20636f6e747261637400000000\n        /* \"#utility.yul\":22286:22287   */\n      0x00\n        /* \"#utility.yul\":22278:22284   */\n      dup3\n        /* \"#utility.yul\":22274:22288   */\n      add\n        /* \"#utility.yul\":22267:22321   */\n      mstore\n        /* \"#utility.yul\":22150:22328   */\n      pop\n      jump\t// out\n        /* \"#utility.yul\":22334:22496   */\n    tag_331:\n        /* \"#utility.yul\":22474:22488   */\n      0x6661696c65642072657061790000000000000000000000000000000000000000\n        /* \"#utility.yul\":22470:22471   */\n      0x00\n        /* \"#utility.yul\":22462:22468   */\n      dup3\n        /* \"#utility.yul\":22458:22472   */\n      add\n        /* \"#utility.yul\":22451:22489   */\n      mstore\n        /* \"#utility.yul\":22334:22496   */\n      pop\n      jump\t// out\n        /* \"#utility.yul\":22502:22731   */\n    tag_336:\n        /* \"#utility.yul\":22642:22676   */\n      0x63616c6c6572206973206e6f7420656c696769626c6520666f72207769746864\n        /* \"#utility.yul\":22638:22639   */\n      0x00\n        /* \"#utility.yul\":22630:22636   */\n      dup3\n        /* \"#utility.yul\":22626:22640   */\n      add\n        /* \"#utility.yul\":22619:22677   */\n      mstore\n        /* \"#utility.yul\":22711:22723   */\n      0x72617720616d6f756e7400000000000000000000000000000000000000000000\n        /* \"#utility.yul\":22706:22708   */\n      0x20\n        /* \"#utility.yul\":22698:22704   */\n      dup3\n        /* \"#utility.yul\":22694:22709   */\n      add\n        /* \"#utility.yul\":22687:22724   */\n      mstore\n        /* \"#utility.yul\":22502:22731   */\n      pop\n      jump\t// out\n        /* \"#utility.yul\":22737:22910   */\n    tag_341:\n        /* \"#utility.yul\":22877:22902   */\n      0x416363657373436f6e74726f6c3a206163636f756e7420000000000000000000\n        /* \"#utility.yul\":22873:22874   */\n      0x00\n        /* \"#utility.yul\":22865:22871   */\n      dup3\n        /* \"#utility.yul\":22861:22875   */\n      add\n        /* \"#utility.yul\":22854:22903   */\n      mstore\n        /* \"#utility.yul\":22737:22910   */\n      pop\n      jump\t// out\n        /* \"#utility.yul\":22916:23081   */\n    tag_346:\n        /* \"#utility.yul\":23056:23073   */\n      0x7769746864726177206661696c65640000000000000000000000000000000000\n        /* \"#utility.yul\":23052:23053   */\n      0x00\n        /* \"#utility.yul\":23044:23050   */\n      dup3\n        /* \"#utility.yul\":23040:23054   */\n      add\n        /* \"#utility.yul\":23033:23074   */\n      mstore\n        /* \"#utility.yul\":22916:23081   */\n      pop\n      jump\t// out\n        /* \"#utility.yul\":23087:23254   */\n    tag_351:\n        /* \"#utility.yul\":23227:23246   */\n      0x206973206d697373696e6720726f6c6520000000000000000000000000000000\n        /* \"#utility.yul\":23223:23224   */\n      0x00\n        /* \"#utility.yul\":23215:23221   */\n      dup3\n        /* \"#utility.yul\":23211:23225   */\n      add\n        /* \"#utility.yul\":23204:23247   */\n      mstore\n        /* \"#utility.yul\":23087:23254   */\n      pop\n      jump\t// out\n        /* \"#utility.yul\":23260:23494   */\n    tag_356:\n        /* \"#utility.yul\":23400:23434   */\n      0x416363657373436f6e74726f6c3a2063616e206f6e6c792072656e6f756e6365\n        /* \"#utility.yul\":23396:23397   */\n      0x00\n        /* \"#utility.yul\":23388:23394   */\n      dup3\n        /* \"#utility.yul\":23384:23398   */\n      add\n        /* \"#utility.yul\":23377:23435   */\n      mstore\n        /* \"#utility.yul\":23469:23486   */\n      0x20726f6c657320666f722073656c660000000000000000000000000000000000\n        /* \"#utility.yul\":23464:23466   */\n      0x20\n        /* \"#utility.yul\":23456:23462   */\n      dup3\n        /* \"#utility.yul\":23452:23467   */\n      add\n        /* \"#utility.yul\":23445:23487   */\n      mstore\n        /* \"#utility.yul\":23260:23494   */\n      pop\n      jump\t// out\n        /* \"#utility.yul\":23500:23622   */\n    tag_217:\n        /* \"#utility.yul\":23573:23597   */\n      tag_481\n        /* \"#utility.yul\":23591:23596   */\n      dup2\n        /* \"#utility.yul\":23573:23597   */\n      tag_282\n      jump\t// in\n    tag_481:\n        /* \"#utility.yul\":23566:23571   */\n      dup2\n        /* \"#utility.yul\":23563:23598   */\n      eq\n        /* \"#utility.yul\":23553:23616   */\n      tag_482\n      jumpi\n        /* \"#utility.yul\":23612:23613   */\n      0x00\n        /* \"#utility.yul\":23609:23610   */\n      dup1\n        /* \"#utility.yul\":23602:23614   */\n      revert\n        /* \"#utility.yul\":23553:23616   */\n    tag_482:\n        /* \"#utility.yul\":23500:23622   */\n      pop\n      jump\t// out\n        /* \"#utility.yul\":23628:23744   */\n    tag_221:\n        /* \"#utility.yul\":23698:23719   */\n      tag_484\n        /* \"#utility.yul\":23713:23718   */\n      dup2\n        /* \"#utility.yul\":23698:23719   */\n      tag_286\n      jump\t// in\n    tag_484:\n        /* \"#utility.yul\":23691:23696   */\n      dup2\n        /* \"#utility.yul\":23688:23720   */\n      eq\n        /* \"#utility.yul\":23678:23738   */\n      tag_485\n      jumpi\n        /* \"#utility.yul\":23734:23735   */\n      0x00\n        /* \"#utility.yul\":23731:23732   */\n      dup1\n        /* \"#utility.yul\":23724:23736   */\n      revert\n        /* \"#utility.yul\":23678:23738   */\n    tag_485:\n        /* \"#utility.yul\":23628:23744   */\n      pop\n      jump\t// out\n        /* \"#utility.yul\":23750:23872   */\n    tag_225:\n        /* \"#utility.yul\":23823:23847   */\n      tag_487\n        /* \"#utility.yul\":23841:23846   */\n      dup2\n        /* \"#utility.yul\":23823:23847   */\n      tag_290\n      jump\t// in\n    tag_487:\n        /* \"#utility.yul\":23816:23821   */\n      dup2\n        /* \"#utility.yul\":23813:23848   */\n      eq\n        /* \"#utility.yul\":23803:23866   */\n      tag_488\n      jumpi\n        /* \"#utility.yul\":23862:23863   */\n      0x00\n        /* \"#utility.yul\":23859:23860   */\n      dup1\n        /* \"#utility.yul\":23852:23864   */\n      revert\n        /* \"#utility.yul\":23803:23866   */\n    tag_488:\n        /* \"#utility.yul\":23750:23872   */\n      pop\n      jump\t// out\n        /* \"#utility.yul\":23878:23998   */\n    tag_229:\n        /* \"#utility.yul\":23950:23973   */\n      tag_490\n        /* \"#utility.yul\":23967:23972   */\n      dup2\n        /* \"#utility.yul\":23950:23973   */\n      tag_443\n      jump\t// in\n    tag_490:\n        /* \"#utility.yul\":23943:23948   */\n      dup2\n        /* \"#utility.yul\":23940:23974   */\n      eq\n        /* \"#utility.yul\":23930:23992   */\n      tag_491\n      jumpi\n        /* \"#utility.yul\":23988:23989   */\n      0x00\n        /* \"#utility.yul\":23985:23986   */\n      dup1\n        /* \"#utility.yul\":23978:23990   */\n      revert\n        /* \"#utility.yul\":23930:23992   */\n    tag_491:\n        /* \"#utility.yul\":23878:23998   */\n      pop\n      jump\t// out\n        /* \"#utility.yul\":24004:24126   */\n    tag_239:\n        /* \"#utility.yul\":24077:24101   */\n      tag_493\n        /* \"#utility.yul\":24095:24100   */\n      dup2\n        /* \"#utility.yul\":24077:24101   */\n      tag_360\n      jump\t// in\n    tag_493:\n        /* \"#utility.yul\":24070:24075   */\n      dup2\n        /* \"#utility.yul\":24067:24102   */\n      eq\n        /* \"#utility.yul\":24057:24120   */\n      tag_494\n      jumpi\n        /* \"#utility.yul\":24116:24117   */\n      0x00\n        /* \"#utility.yul\":24113:24114   */\n      dup1\n        /* \"#utility.yul\":24106:24118   */\n      revert\n        /* \"#utility.yul\":24057:24120   */\n    tag_494:\n        /* \"#utility.yul\":24004:24126   */\n      pop\n      jump\t// out\n\n    auxdata: 0xa26469706673582212200fed0d663a9efbab9d978c0ab331a861c4e0fc3a7447441a25ceff44c393cc7964736f6c63430008070033\n}\n",
				"bytecode": {
					"linkReferences": {},
					"object": "60806040526512309ce540006002553480156200001b57600080fd5b5060405162001f5338038062001f5383398181016040528101906200004191906200022e565b80600160006101000a81548173ffffffffffffffffffffffffffffffffffffffff021916908373ffffffffffffffffffffffffffffffffffffffff160217905550620000976000801b336200009e60201b60201c565b50620002b3565b620000b08282620000b460201b60201c565b5050565b620000c68282620001a560201b60201c565b620001a157600160008084815260200190815260200160002060000160008373ffffffffffffffffffffffffffffffffffffffff1673ffffffffffffffffffffffffffffffffffffffff16815260200190815260200160002060006101000a81548160ff021916908315150217905550620001466200020f60201b60201c565b73ffffffffffffffffffffffffffffffffffffffff168173ffffffffffffffffffffffffffffffffffffffff16837f2f8788117e7eff1d82e926ec794901d17c78024a50270940304540a733656f0d60405160405180910390a45b5050565b600080600084815260200190815260200160002060000160008373ffffffffffffffffffffffffffffffffffffffff1673ffffffffffffffffffffffffffffffffffffffff16815260200190815260200160002060009054906101000a900460ff16905092915050565b600033905090565b600081519050620002288162000299565b92915050565b60006020828403121562000247576200024662000294565b5b6000620002578482850162000217565b91505092915050565b60006200026d8262000274565b9050919050565b600073ffffffffffffffffffffffffffffffffffffffff82169050919050565b600080fd5b620002a48162000260565b8114620002b057600080fd5b50565b611c9080620002c36000396000f3fe608060405234801561001057600080fd5b50600436106100b45760003560e01c806391d148541161007157806391d148541461019f578063a217fddf146101cf578063af805b65146101ed578063d547741f14610209578063dc048cf214610225578063fc0c546a14610241576100b4565b806301ffc9a7146100b95780630e296f17146100e9578063248a9ca31461011b5780632f2ff15d1461014b57806336568abe146101675780633f1c213514610183575b600080fd5b6100d360048036038101906100ce91906110ef565b61025f565b6040516100e091906114be565b60405180910390f35b61010360048036038101906100fe919061111c565b6102d9565b60405161011293929190611616565b60405180910390f35b61013560048036038101906101309190611082565b610319565b60405161014291906114d9565b60405180910390f35b610165600480360381019061016091906110af565b610338565b005b610181600480360381019061017c91906110af565b610359565b005b61019d6004803603810190610198919061111c565b6103dc565b005b6101b960048036038101906101b491906110af565b610592565b6040516101c691906114be565b60405180910390f35b6101d76105fc565b6040516101e491906114d9565b60405180910390f35b6102076004803603810190610202919061111c565b610603565b005b610223600480360381019061021e91906110af565b6106af565b005b61023f600480360381019061023a9190611192565b6106d0565b005b610249610a21565b6040516102569190611443565b60405180910390f35b60007f7965db0b000000000000000000000000000000000000000000000000000000007bffffffffffffffffffffffffffffffffffffffffffffffffffffffff1916827bffffffffffffffffffffffffffffffffffffffffffffffffffffffff191614806102d257506102d182610a47565b5b9050919050565b6003818051602081018201805184825260208301602085012081835280955050505050506000915090508060000154908060010154908060020154905083565b6000806000838152602001908152602001600020600101549050919050565b61034182610319565b61034a81610ab1565b6103548383610ac5565b505050565b610361610ba5565b73ffffffffffffffffffffffffffffffffffffffff168173ffffffffffffffffffffffffffffffffffffffff16146103ce576040517f08c379a00000000000000000000000000000000000000000000000000000000081526004016103c5906115f6565b60405180910390fd5b6103d88282610bad565b5050565b60006003826040516103ee91906113f2565b9081526020016040518091039020600101549050600160009054906101000a900473ffffffffffffffffffffffffffffffffffffffff1673ffffffffffffffffffffffffffffffffffffffff166323b872dd3330846040518463ffffffff1660e01b81526004016104619392919061145e565b602060405180830381600087803b15801561047b57600080fd5b505af115801561048f573d6000803e3d6000fd5b505050506040513d601f19601f820116820180604052508101906104b39190611055565b6104f2576040517f08c379a00000000000000000000000000000000000000000000000000000000081526004016104e990611596565b60405180910390fd5b60006064606960038560405161050891906113f2565b9081526020016040518091039020600001546105249190611751565b61052e9190611720565b90506002548111156105405760025490505b8060038460405161055191906113f2565b908152602001604051809103902060000181905550600060038460405161057891906113f2565b908152602001604051809103902060010181905550505050565b600080600084815260200190815260200160002060000160008373ffffffffffffffffffffffffffffffffffffffff1673ffffffffffffffffffffffffffffffffffffffff16815260200190815260200160002060009054906101000a900460ff16905092915050565b6000801b81565b6106106000801b33610592565b61064f576040517f08c379a000000000000000000000000000000000000000000000000000000000815260040161064690611556565b60405180910390fd5b60405180606001604052806002548152602001600081526020014381525060038260405161067d91906113f2565b908152602001604051809103902060008201518160000155602082015181600101556040820151816002015590505050565b6106b882610319565b6106c181610ab1565b6106cb8383610bad565b505050565b6000600160009054906101000a900473ffffffffffffffffffffffffffffffffffffffff1673ffffffffffffffffffffffffffffffffffffffff166370a08231306040518263ffffffff1660e01b815260040161072d9190611443565b60206040518083038186803b15801561074557600080fd5b505afa158015610759573d6000803e3d6000fd5b505050506040513d601f19601f8201168201806040525081019061077d9190611165565b90508281116107c1576040517f08c379a00000000000000000000000000000000000000000000000000000000081526004016107b890611576565b60405180910390fd5b60006003836040516107d391906113f2565b90815260200160405180910390206040518060600160405290816000820154815260200160018201548152602001600282015481525050905043816040015111610852576040517f08c379a000000000000000000000000000000000000000000000000000000000815260040161084990611516565b60405180910390fd5b83816000015111610898576040517f08c379a000000000000000000000000000000000000000000000000000000000815260040161088f906115b6565b60405180910390fd5b8381600001516108a891906117ab565b8160200151106108ed576040517f08c379a00000000000000000000000000000000000000000000000000000000081526004016108e4906115b6565b60405180910390fd5b600160009054906101000a900473ffffffffffffffffffffffffffffffffffffffff1673ffffffffffffffffffffffffffffffffffffffff1663a9059cbb33866040518363ffffffff1660e01b815260040161094a929190611495565b602060405180830381600087803b15801561096457600080fd5b505af1158015610978573d6000803e3d6000fd5b505050506040513d601f19601f8201168201806040525081019061099c9190611055565b6109db576040517f08c379a00000000000000000000000000000000000000000000000000000000081526004016109d2906115d6565b60405180910390fd5b83816020018181516109ed91906116ca565b91508181525050620106d043610a0391906116ca565b81604001818151610a1491906116ca565b9150818152505050505050565b600160009054906101000a900473ffffffffffffffffffffffffffffffffffffffff1681565b60007f01ffc9a7000000000000000000000000000000000000000000000000000000007bffffffffffffffffffffffffffffffffffffffffffffffffffffffff1916827bffffffffffffffffffffffffffffffffffffffffffffffffffffffff1916149050919050565b610ac281610abd610ba5565b610c8e565b50565b610acf8282610592565b610ba157600160008084815260200190815260200160002060000160008373ffffffffffffffffffffffffffffffffffffffff1673ffffffffffffffffffffffffffffffffffffffff16815260200190815260200160002060006101000a81548160ff021916908315150217905550610b46610ba5565b73ffffffffffffffffffffffffffffffffffffffff168173ffffffffffffffffffffffffffffffffffffffff16837f2f8788117e7eff1d82e926ec794901d17c78024a50270940304540a733656f0d60405160405180910390a45b5050565b600033905090565b610bb78282610592565b15610c8a57600080600084815260200190815260200160002060000160008373ffffffffffffffffffffffffffffffffffffffff1673ffffffffffffffffffffffffffffffffffffffff16815260200190815260200160002060006101000a81548160ff021916908315150217905550610c2f610ba5565b73ffffffffffffffffffffffffffffffffffffffff168173ffffffffffffffffffffffffffffffffffffffff16837ff6391f5c32d9c69d2a47ea670b442974b53935d1edc7fd64eb21e047a839171b60405160405180910390a45b5050565b610c988282610592565b610d2757610cbd8173ffffffffffffffffffffffffffffffffffffffff166014610d2b565b610ccb8360001c6020610d2b565b604051602001610cdc929190611409565b6040516020818303038152906040526040517f08c379a0000000000000000000000000000000000000000000000000000000008152600401610d1e91906114f4565b60405180910390fd5b5050565b606060006002836002610d3e9190611751565b610d4891906116ca565b67ffffffffffffffff811115610d6157610d60611987565b5b6040519080825280601f01601f191660200182016040528015610d935781602001600182028036833780820191505090505b5090507f300000000000000000000000000000000000000000000000000000000000000081600081518110610dcb57610dca611958565b5b60200101907effffffffffffffffffffffffffffffffffffffffffffffffffffffffffffff1916908160001a9053507f780000000000000000000000000000000000000000000000000000000000000081600181518110610e2f57610e2e611958565b5b60200101907effffffffffffffffffffffffffffffffffffffffffffffffffffffffffffff1916908160001a90535060006001846002610e6f9190611751565b610e7991906116ca565b90505b6001811115610f19577f3031323334353637383961626364656600000000000000000000000000000000600f861660108110610ebb57610eba611958565b5b1a60f81b828281518110610ed257610ed1611958565b5b60200101907effffffffffffffffffffffffffffffffffffffffffffffffffffffffffffff1916908160001a905350600485901c945080610f129061189f565b9050610e7c565b5060008414610f5d576040517f08c379a0000000000000000000000000000000000000000000000000000000008152600401610f5490611536565b60405180910390fd5b8091505092915050565b6000610f7a610f7584611672565b61164d565b905082815260208101848484011115610f9657610f956119bb565b5b610fa184828561185d565b509392505050565b600081359050610fb881611be7565b92915050565b600081519050610fcd81611bfe565b92915050565b600081359050610fe281611c15565b92915050565b600081359050610ff781611c2c565b92915050565b600082601f830112611012576110116119b6565b5b8135611022848260208601610f67565b91505092915050565b60008135905061103a81611c43565b92915050565b60008151905061104f81611c43565b92915050565b60006020828403121561106b5761106a6119c5565b5b600061107984828501610fbe565b91505092915050565b600060208284031215611098576110976119c5565b5b60006110a684828501610fd3565b91505092915050565b600080604083850312156110c6576110c56119c5565b5b60006110d485828601610fd3565b92505060206110e585828601610fa9565b9150509250929050565b600060208284031215611105576111046119c5565b5b600061111384828501610fe8565b91505092915050565b600060208284031215611132576111316119c5565b5b600082013567ffffffffffffffff8111156111505761114f6119c0565b5b61115c84828501610ffd565b91505092915050565b60006020828403121561117b5761117a6119c5565b5b600061118984828501611040565b91505092915050565b600080604083850312156111a9576111a86119c5565b5b60006111b78582860161102b565b925050602083013567ffffffffffffffff8111156111d8576111d76119c0565b5b6111e485828601610ffd565b9150509250929050565b6111f7816117df565b82525050565b611206816117f1565b82525050565b611215816117fd565b82525050565b6000611226826116a3565b61123081856116ae565b935061124081856020860161186c565b611249816119ca565b840191505092915050565b600061125f826116a3565b61126981856116bf565b935061127981856020860161186c565b80840191505092915050565b60006112926028836116ae565b915061129d826119db565b604082019050919050565b60006112b56020836116ae565b91506112c082611a2a565b602082019050919050565b60006112d8601b836116ae565b91506112e382611a53565b602082019050919050565b60006112fb601c836116ae565b915061130682611a7c565b602082019050919050565b600061131e600c836116ae565b915061132982611aa5565b602082019050919050565b6000611341602a836116ae565b915061134c82611ace565b604082019050919050565b60006113646017836116bf565b915061136f82611b1d565b601782019050919050565b6000611387600f836116ae565b915061139282611b46565b602082019050919050565b60006113aa6011836116bf565b91506113b582611b6f565b601182019050919050565b60006113cd602f836116ae565b91506113d882611b98565b604082019050919050565b6113ec81611853565b82525050565b60006113fe8284611254565b915081905092915050565b600061141482611357565b91506114208285611254565b915061142b8261139d565b91506114378284611254565b91508190509392505050565b600060208201905061145860008301846111ee565b92915050565b600060608201905061147360008301866111ee565b61148060208301856111ee565b61148d60408301846113e3565b949350505050565b60006040820190506114aa60008301856111ee565b6114b760208301846113e3565b9392505050565b60006020820190506114d360008301846111fd565b92915050565b60006020820190506114ee600083018461120c565b92915050565b6000602082019050818103600083015261150e818461121b565b905092915050565b6000602082019050818103600083015261152f81611285565b9050919050565b6000602082019050818103600083015261154f816112a8565b9050919050565b6000602082019050818103600083015261156f816112cb565b9050919050565b6000602082019050818103600083015261158f816112ee565b9050919050565b600060208201905081810360008301526115af81611311565b9050919050565b600060208201905081810360008301526115cf81611334565b9050919050565b600060208201905081810360008301526115ef8161137a565b9050919050565b6000602082019050818103600083015261160f816113c0565b9050919050565b600060608201905061162b60008301866113e3565b61163860208301856113e3565b61164560408301846113e3565b949350505050565b6000611657611668565b905061166382826118c9565b919050565b6000604051905090565b600067ffffffffffffffff82111561168d5761168c611987565b5b611696826119ca565b9050602081019050919050565b600081519050919050565b600082825260208201905092915050565b600081905092915050565b60006116d582611853565b91506116e083611853565b9250827fffffffffffffffffffffffffffffffffffffffffffffffffffffffffffffffff03821115611715576117146118fa565b5b828201905092915050565b600061172b82611853565b915061173683611853565b92508261174657611745611929565b5b828204905092915050565b600061175c82611853565b915061176783611853565b9250817fffffffffffffffffffffffffffffffffffffffffffffffffffffffffffffffff04831182151516156117a05761179f6118fa565b5b828202905092915050565b60006117b682611853565b91506117c183611853565b9250828210156117d4576117d36118fa565b5b828203905092915050565b60006117ea82611833565b9050919050565b60008115159050919050565b6000819050919050565b60007fffffffff0000000000000000000000000000000000000000000000000000000082169050919050565b600073ffffffffffffffffffffffffffffffffffffffff82169050919050565b6000819050919050565b82818337600083830152505050565b60005b8381101561188a57808201518184015260208101905061186f565b83811115611899576000848401525b50505050565b60006118aa82611853565b915060008214156118be576118bd6118fa565b5b600182039050919050565b6118d2826119ca565b810181811067ffffffffffffffff821117156118f1576118f0611987565b5b80604052505050565b7f4e487b7100000000000000000000000000000000000000000000000000000000600052601160045260246000fd5b7f4e487b7100000000000000000000000000000000000000000000000000000000600052601260045260246000fd5b7f4e487b7100000000000000000000000000000000000000000000000000000000600052603260045260246000fd5b7f4e487b7100000000000000000000000000000000000000000000000000000000600052604160045260246000fd5b600080fd5b600080fd5b600080fd5b600080fd5b6000601f19601f8301169050919050565b7f63616c6c6572206973206e6f7420656c696769626c6520666f72206e6578742060008201527f7769746864726177000000000000000000000000000000000000000000000000602082015250565b7f537472696e67733a20686578206c656e67746820696e73756666696369656e74600082015250565b7f63616c6c6572206973206e6f742061646d696e6973747261746f720000000000600082015250565b7f6e6f7420656e6f7567682066756e647320696e20636f6e747261637400000000600082015250565b7f6661696c65642072657061790000000000000000000000000000000000000000600082015250565b7f63616c6c6572206973206e6f7420656c696769626c6520666f7220776974686460008201527f72617720616d6f756e7400000000000000000000000000000000000000000000602082015250565b7f416363657373436f6e74726f6c3a206163636f756e7420000000000000000000600082015250565b7f7769746864726177206661696c65640000000000000000000000000000000000600082015250565b7f206973206d697373696e6720726f6c6520000000000000000000000000000000600082015250565b7f416363657373436f6e74726f6c3a2063616e206f6e6c792072656e6f756e636560008201527f20726f6c657320666f722073656c660000000000000000000000000000000000602082015250565b611bf0816117df565b8114611bfb57600080fd5b50565b611c07816117f1565b8114611c1257600080fd5b50565b611c1e816117fd565b8114611c2957600080fd5b50565b611c3581611807565b8114611c4057600080fd5b50565b611c4c81611853565b8114611c5757600080fd5b5056fea26469706673582212200fed0d663a9efbab9d978c0ab331a861c4e0fc3a7447441a25ceff44c393cc7964736f6c63430008070033",
					"opcodes": "PUSH1 0x80 PUSH1 0x40 MSTORE PUSH6 0x12309CE54000 PUSH1 0x2 SSTORE CALLVALUE DUP1 ISZERO PUSH3 0x1B JUMPI PUSH1 0x0 DUP1 REVERT JUMPDEST POP PUSH1 0x40 MLOAD PUSH3 0x1F53 CODESIZE SUB DUP1 PUSH3 0x1F53 DUP4 CODECOPY DUP2 DUP2 ADD PUSH1 0x40 MSTORE DUP2 ADD SWAP1 PUSH3 0x41 SWAP2 SWAP1 PUSH3 0x22E JUMP JUMPDEST DUP1 PUSH1 0x1 PUSH1 0x0 PUSH2 0x100 EXP DUP2 SLOAD DUP2 PUSH20 0xFFFFFFFFFFFFFFFFFFFFFFFFFFFFFFFFFFFFFFFF MUL NOT AND SWAP1 DUP4 PUSH20 0xFFFFFFFFFFFFFFFFFFFFFFFFFFFFFFFFFFFFFFFF AND MUL OR SWAP1 SSTORE POP PUSH3 0x97 PUSH1 0x0 DUP1 SHL CALLER PUSH3 0x9E PUSH1 0x20 SHL PUSH1 0x20 SHR JUMP JUMPDEST POP PUSH3 0x2B3 JUMP JUMPDEST PUSH3 0xB0 DUP3 DUP3 PUSH3 0xB4 PUSH1 0x20 SHL PUSH1 0x20 SHR JUMP JUMPDEST POP POP JUMP JUMPDEST PUSH3 0xC6 DUP3 DUP3 PUSH3 0x1A5 PUSH1 0x20 SHL PUSH1 0x20 SHR JUMP JUMPDEST PUSH3 0x1A1 JUMPI PUSH1 0x1 PUSH1 0x0 DUP1 DUP5 DUP2 MSTORE PUSH1 0x20 ADD SWAP1 DUP2 MSTORE PUSH1 0x20 ADD PUSH1 0x0 KECCAK256 PUSH1 0x0 ADD PUSH1 0x0 DUP4 PUSH20 0xFFFFFFFFFFFFFFFFFFFFFFFFFFFFFFFFFFFFFFFF AND PUSH20 0xFFFFFFFFFFFFFFFFFFFFFFFFFFFFFFFFFFFFFFFF AND DUP2 MSTORE PUSH1 0x20 ADD SWAP1 DUP2 MSTORE PUSH1 0x20 ADD PUSH1 0x0 KECCAK256 PUSH1 0x0 PUSH2 0x100 EXP DUP2 SLOAD DUP2 PUSH1 0xFF MUL NOT AND SWAP1 DUP4 ISZERO ISZERO MUL OR SWAP1 SSTORE POP PUSH3 0x146 PUSH3 0x20F PUSH1 0x20 SHL PUSH1 0x20 SHR JUMP JUMPDEST PUSH20 0xFFFFFFFFFFFFFFFFFFFFFFFFFFFFFFFFFFFFFFFF AND DUP2 PUSH20 0xFFFFFFFFFFFFFFFFFFFFFFFFFFFFFFFFFFFFFFFF AND DUP4 PUSH32 0x2F8788117E7EFF1D82E926EC794901D17C78024A50270940304540A733656F0D PUSH1 0x40 MLOAD PUSH1 0x40 MLOAD DUP1 SWAP2 SUB SWAP1 LOG4 JUMPDEST POP POP JUMP JUMPDEST PUSH1 0x0 DUP1 PUSH1 0x0 DUP5 DUP2 MSTORE PUSH1 0x20 ADD SWAP1 DUP2 MSTORE PUSH1 0x20 ADD PUSH1 0x0 KECCAK256 PUSH1 0x0 ADD PUSH1 0x0 DUP4 PUSH20 0xFFFFFFFFFFFFFFFFFFFFFFFFFFFFFFFFFFFFFFFF AND PUSH20 0xFFFFFFFFFFFFFFFFFFFFFFFFFFFFFFFFFFFFFFFF AND DUP2 MSTORE PUSH1 0x20 ADD SWAP1 DUP2 MSTORE PUSH1 0x20 ADD PUSH1 0x0 KECCAK256 PUSH1 0x0 SWAP1 SLOAD SWAP1 PUSH2 0x100 EXP SWAP1 DIV PUSH1 0xFF AND SWAP1 POP SWAP3 SWAP2 POP POP JUMP JUMPDEST PUSH1 0x0 CALLER SWAP1 POP SWAP1 JUMP JUMPDEST PUSH1 0x0 DUP2 MLOAD SWAP1 POP PUSH3 0x228 DUP2 PUSH3 0x299 JUMP JUMPDEST SWAP3 SWAP2 POP POP JUMP JUMPDEST PUSH1 0x0 PUSH1 0x20 DUP3 DUP5 SUB SLT ISZERO PUSH3 0x247 JUMPI PUSH3 0x246 PUSH3 0x294 JUMP JUMPDEST JUMPDEST PUSH1 0x0 PUSH3 0x257 DUP5 DUP3 DUP6 ADD PUSH3 0x217 JUMP JUMPDEST SWAP2 POP POP SWAP3 SWAP2 POP POP JUMP JUMPDEST PUSH1 0x0 PUSH3 0x26D DUP3 PUSH3 0x274 JUMP JUMPDEST SWAP1 POP SWAP2 SWAP1 POP JUMP JUMPDEST PUSH1 0x0 PUSH20 0xFFFFFFFFFFFFFFFFFFFFFFFFFFFFFFFFFFFFFFFF DUP3 AND SWAP1 POP SWAP2 SWAP1 POP JUMP JUMPDEST PUSH1 0x0 DUP1 REVERT JUMPDEST PUSH3 0x2A4 DUP2 PUSH3 0x260 JUMP JUMPDEST DUP2 EQ PUSH3 0x2B0 JUMPI PUSH1 0x0 DUP1 REVERT JUMPDEST POP JUMP JUMPDEST PUSH2 0x1C90 DUP1 PUSH3 0x2C3 PUSH1 0x0 CODECOPY PUSH1 0x0 RETURN INVALID PUSH1 0x80 PUSH1 0x40 MSTORE CALLVALUE DUP1 ISZERO PUSH2 0x10 JUMPI PUSH1 0x0 DUP1 REVERT JUMPDEST POP PUSH1 0x4 CALLDATASIZE LT PUSH2 0xB4 JUMPI PUSH1 0x0 CALLDATALOAD PUSH1 0xE0 SHR DUP1 PUSH4 0x91D14854 GT PUSH2 0x71 JUMPI DUP1 PUSH4 0x91D14854 EQ PUSH2 0x19F JUMPI DUP1 PUSH4 0xA217FDDF EQ PUSH2 0x1CF JUMPI DUP1 PUSH4 0xAF805B65 EQ PUSH2 0x1ED JUMPI DUP1 PUSH4 0xD547741F EQ PUSH2 0x209 JUMPI DUP1 PUSH4 0xDC048CF2 EQ PUSH2 0x225 JUMPI DUP1 PUSH4 0xFC0C546A EQ PUSH2 0x241 JUMPI PUSH2 0xB4 JUMP JUMPDEST DUP1 PUSH4 0x1FFC9A7 EQ PUSH2 0xB9 JUMPI DUP1 PUSH4 0xE296F17 EQ PUSH2 0xE9 JUMPI DUP1 PUSH4 0x248A9CA3 EQ PUSH2 0x11B JUMPI DUP1 PUSH4 0x2F2FF15D EQ PUSH2 0x14B JUMPI DUP1 PUSH4 0x36568ABE EQ PUSH2 0x167 JUMPI DUP1 PUSH4 0x3F1C2135 EQ PUSH2 0x183 JUMPI JUMPDEST PUSH1 0x0 DUP1 REVERT JUMPDEST PUSH2 0xD3 PUSH1 0x4 DUP1 CALLDATASIZE SUB DUP2 ADD SWAP1 PUSH2 0xCE SWAP2 SWAP1 PUSH2 0x10EF JUMP JUMPDEST PUSH2 0x25F JUMP JUMPDEST PUSH1 0x40 MLOAD PUSH2 0xE0 SWAP2 SWAP1 PUSH2 0x14BE JUMP JUMPDEST PUSH1 0x40 MLOAD DUP1 SWAP2 SUB SWAP1 RETURN JUMPDEST PUSH2 0x103 PUSH1 0x4 DUP1 CALLDATASIZE SUB DUP2 ADD SWAP1 PUSH2 0xFE SWAP2 SWAP1 PUSH2 0x111C JUMP JUMPDEST PUSH2 0x2D9 JUMP JUMPDEST PUSH1 0x40 MLOAD PUSH2 0x112 SWAP4 SWAP3 SWAP2 SWAP1 PUSH2 0x1616 JUMP JUMPDEST PUSH1 0x40 MLOAD DUP1 SWAP2 SUB SWAP1 RETURN JUMPDEST PUSH2 0x135 PUSH1 0x4 DUP1 CALLDATASIZE SUB DUP2 ADD SWAP1 PUSH2 0x130 SWAP2 SWAP1 PUSH2 0x1082 JUMP JUMPDEST PUSH2 0x319 JUMP JUMPDEST PUSH1 0x40 MLOAD PUSH2 0x142 SWAP2 SWAP1 PUSH2 0x14D9 JUMP JUMPDEST PUSH1 0x40 MLOAD DUP1 SWAP2 SUB SWAP1 RETURN JUMPDEST PUSH2 0x165 PUSH1 0x4 DUP1 CALLDATASIZE SUB DUP2 ADD SWAP1 PUSH2 0x160 SWAP2 SWAP1 PUSH2 0x10AF JUMP JUMPDEST PUSH2 0x338 JUMP JUMPDEST STOP JUMPDEST PUSH2 0x181 PUSH1 0x4 DUP1 CALLDATASIZE SUB DUP2 ADD SWAP1 PUSH2 0x17C SWAP2 SWAP1 PUSH2 0x10AF JUMP JUMPDEST PUSH2 0x359 JUMP JUMPDEST STOP JUMPDEST PUSH2 0x19D PUSH1 0x4 DUP1 CALLDATASIZE SUB DUP2 ADD SWAP1 PUSH2 0x198 SWAP2 SWAP1 PUSH2 0x111C JUMP JUMPDEST PUSH2 0x3DC JUMP JUMPDEST STOP JUMPDEST PUSH2 0x1B9 PUSH1 0x4 DUP1 CALLDATASIZE SUB DUP2 ADD SWAP1 PUSH2 0x1B4 SWAP2 SWAP1 PUSH2 0x10AF JUMP JUMPDEST PUSH2 0x592 JUMP JUMPDEST PUSH1 0x40 MLOAD PUSH2 0x1C6 SWAP2 SWAP1 PUSH2 0x14BE JUMP JUMPDEST PUSH1 0x40 MLOAD DUP1 SWAP2 SUB SWAP1 RETURN JUMPDEST PUSH2 0x1D7 PUSH2 0x5FC JUMP JUMPDEST PUSH1 0x40 MLOAD PUSH2 0x1E4 SWAP2 SWAP1 PUSH2 0x14D9 JUMP JUMPDEST PUSH1 0x40 MLOAD DUP1 SWAP2 SUB SWAP1 RETURN JUMPDEST PUSH2 0x207 PUSH1 0x4 DUP1 CALLDATASIZE SUB DUP2 ADD SWAP1 PUSH2 0x202 SWAP2 SWAP1 PUSH2 0x111C JUMP JUMPDEST PUSH2 0x603 JUMP JUMPDEST STOP JUMPDEST PUSH2 0x223 PUSH1 0x4 DUP1 CALLDATASIZE SUB DUP2 ADD SWAP1 PUSH2 0x21E SWAP2 SWAP1 PUSH2 0x10AF JUMP JUMPDEST PUSH2 0x6AF JUMP JUMPDEST STOP JUMPDEST PUSH2 0x23F PUSH1 0x4 DUP1 CALLDATASIZE SUB DUP2 ADD SWAP1 PUSH2 0x23A SWAP2 SWAP1 PUSH2 0x1192 JUMP JUMPDEST PUSH2 0x6D0 JUMP JUMPDEST STOP JUMPDEST PUSH2 0x249 PUSH2 0xA21 JUMP JUMPDEST PUSH1 0x40 MLOAD PUSH2 0x256 SWAP2 SWAP1 PUSH2 0x1443 JUMP JUMPDEST PUSH1 0x40 MLOAD DUP1 SWAP2 SUB SWAP1 RETURN JUMPDEST PUSH1 0x0 PUSH32 0x7965DB0B00000000000000000000000000000000000000000000000000000000 PUSH28 0xFFFFFFFFFFFFFFFFFFFFFFFFFFFFFFFFFFFFFFFFFFFFFFFFFFFFFFFF NOT AND DUP3 PUSH28 0xFFFFFFFFFFFFFFFFFFFFFFFFFFFFFFFFFFFFFFFFFFFFFFFFFFFFFFFF NOT AND EQ DUP1 PUSH2 0x2D2 JUMPI POP PUSH2 0x2D1 DUP3 PUSH2 0xA47 JUMP JUMPDEST JUMPDEST SWAP1 POP SWAP2 SWAP1 POP JUMP JUMPDEST PUSH1 0x3 DUP2 DUP1 MLOAD PUSH1 0x20 DUP2 ADD DUP3 ADD DUP1 MLOAD DUP5 DUP3 MSTORE PUSH1 0x20 DUP4 ADD PUSH1 0x20 DUP6 ADD KECCAK256 DUP2 DUP4 MSTORE DUP1 SWAP6 POP POP POP POP POP POP PUSH1 0x0 SWAP2 POP SWAP1 POP DUP1 PUSH1 0x0 ADD SLOAD SWAP1 DUP1 PUSH1 0x1 ADD SLOAD SWAP1 DUP1 PUSH1 0x2 ADD SLOAD SWAP1 POP DUP4 JUMP JUMPDEST PUSH1 0x0 DUP1 PUSH1 0x0 DUP4 DUP2 MSTORE PUSH1 0x20 ADD SWAP1 DUP2 MSTORE PUSH1 0x20 ADD PUSH1 0x0 KECCAK256 PUSH1 0x1 ADD SLOAD SWAP1 POP SWAP2 SWAP1 POP JUMP JUMPDEST PUSH2 0x341 DUP3 PUSH2 0x319 JUMP JUMPDEST PUSH2 0x34A DUP2 PUSH2 0xAB1 JUMP JUMPDEST PUSH2 0x354 DUP4 DUP4 PUSH2 0xAC5 JUMP JUMPDEST POP POP POP JUMP JUMPDEST PUSH2 0x361 PUSH2 0xBA5 JUMP JUMPDEST PUSH20 0xFFFFFFFFFFFFFFFFFFFFFFFFFFFFFFFFFFFFFFFF AND DUP2 PUSH20 0xFFFFFFFFFFFFFFFFFFFFFFFFFFFFFFFFFFFFFFFF AND EQ PUSH2 0x3CE JUMPI PUSH1 0x40 MLOAD PUSH32 0x8C379A000000000000000000000000000000000000000000000000000000000 DUP2 MSTORE PUSH1 0x4 ADD PUSH2 0x3C5 SWAP1 PUSH2 0x15F6 JUMP JUMPDEST PUSH1 0x40 MLOAD DUP1 SWAP2 SUB SWAP1 REVERT JUMPDEST PUSH2 0x3D8 DUP3 DUP3 PUSH2 0xBAD JUMP JUMPDEST POP POP JUMP JUMPDEST PUSH1 0x0 PUSH1 0x3 DUP3 PUSH1 0x40 MLOAD PUSH2 0x3EE SWAP2 SWAP1 PUSH2 0x13F2 JUMP JUMPDEST SWAP1 DUP2 MSTORE PUSH1 0x20 ADD PUSH1 0x40 MLOAD DUP1 SWAP2 SUB SWAP1 KECCAK256 PUSH1 0x1 ADD SLOAD SWAP1 POP PUSH1 0x1 PUSH1 0x0 SWAP1 SLOAD SWAP1 PUSH2 0x100 EXP SWAP1 DIV PUSH20 0xFFFFFFFFFFFFFFFFFFFFFFFFFFFFFFFFFFFFFFFF AND PUSH20 0xFFFFFFFFFFFFFFFFFFFFFFFFFFFFFFFFFFFFFFFF AND PUSH4 0x23B872DD CALLER ADDRESS DUP5 PUSH1 0x40 MLOAD DUP5 PUSH4 0xFFFFFFFF AND PUSH1 0xE0 SHL DUP2 MSTORE PUSH1 0x4 ADD PUSH2 0x461 SWAP4 SWAP3 SWAP2 SWAP1 PUSH2 0x145E JUMP JUMPDEST PUSH1 0x20 PUSH1 0x40 MLOAD DUP1 DUP4 SUB DUP2 PUSH1 0x0 DUP8 DUP1 EXTCODESIZE ISZERO DUP1 ISZERO PUSH2 0x47B JUMPI PUSH1 0x0 DUP1 REVERT JUMPDEST POP GAS CALL ISZERO DUP1 ISZERO PUSH2 0x48F JUMPI RETURNDATASIZE PUSH1 0x0 DUP1 RETURNDATACOPY RETURNDATASIZE PUSH1 0x0 REVERT JUMPDEST POP POP POP POP PUSH1 0x40 MLOAD RETURNDATASIZE PUSH1 0x1F NOT PUSH1 0x1F DUP3 ADD AND DUP3 ADD DUP1 PUSH1 0x40 MSTORE POP DUP2 ADD SWAP1 PUSH2 0x4B3 SWAP2 SWAP1 PUSH2 0x1055 JUMP JUMPDEST PUSH2 0x4F2 JUMPI PUSH1 0x40 MLOAD PUSH32 0x8C379A000000000000000000000000000000000000000000000000000000000 DUP2 MSTORE PUSH1 0x4 ADD PUSH2 0x4E9 SWAP1 PUSH2 0x1596 JUMP JUMPDEST PUSH1 0x40 MLOAD DUP1 SWAP2 SUB SWAP1 REVERT JUMPDEST PUSH1 0x0 PUSH1 0x64 PUSH1 0x69 PUSH1 0x3 DUP6 PUSH1 0x40 MLOAD PUSH2 0x508 SWAP2 SWAP1 PUSH2 0x13F2 JUMP JUMPDEST SWAP1 DUP2 MSTORE PUSH1 0x20 ADD PUSH1 0x40 MLOAD DUP1 SWAP2 SUB SWAP1 KECCAK256 PUSH1 0x0 ADD SLOAD PUSH2 0x524 SWAP2 SWAP1 PUSH2 0x1751 JUMP JUMPDEST PUSH2 0x52E SWAP2 SWAP1 PUSH2 0x1720 JUMP JUMPDEST SWAP1 POP PUSH1 0x2 SLOAD DUP2 GT ISZERO PUSH2 0x540 JUMPI PUSH1 0x2 SLOAD SWAP1 POP JUMPDEST DUP1 PUSH1 0x3 DUP5 PUSH1 0x40 MLOAD PUSH2 0x551 SWAP2 SWAP1 PUSH2 0x13F2 JUMP JUMPDEST SWAP1 DUP2 MSTORE PUSH1 0x20 ADD PUSH1 0x40 MLOAD DUP1 SWAP2 SUB SWAP1 KECCAK256 PUSH1 0x0 ADD DUP2 SWAP1 SSTORE POP PUSH1 0x0 PUSH1 0x3 DUP5 PUSH1 0x40 MLOAD PUSH2 0x578 SWAP2 SWAP1 PUSH2 0x13F2 JUMP JUMPDEST SWAP1 DUP2 MSTORE PUSH1 0x20 ADD PUSH1 0x40 MLOAD DUP1 SWAP2 SUB SWAP1 KECCAK256 PUSH1 0x1 ADD DUP2 SWAP1 SSTORE POP POP POP POP JUMP JUMPDEST PUSH1 0x0 DUP1 PUSH1 0x0 DUP5 DUP2 MSTORE PUSH1 0x20 ADD SWAP1 DUP2 MSTORE PUSH1 0x20 ADD PUSH1 0x0 KECCAK256 PUSH1 0x0 ADD PUSH1 0x0 DUP4 PUSH20 0xFFFFFFFFFFFFFFFFFFFFFFFFFFFFFFFFFFFFFFFF AND PUSH20 0xFFFFFFFFFFFFFFFFFFFFFFFFFFFFFFFFFFFFFFFF AND DUP2 MSTORE PUSH1 0x20 ADD SWAP1 DUP2 MSTORE PUSH1 0x20 ADD PUSH1 0x0 KECCAK256 PUSH1 0x0 SWAP1 SLOAD SWAP1 PUSH2 0x100 EXP SWAP1 DIV PUSH1 0xFF AND SWAP1 POP SWAP3 SWAP2 POP POP JUMP JUMPDEST PUSH1 0x0 DUP1 SHL DUP2 JUMP JUMPDEST PUSH2 0x610 PUSH1 0x0 DUP1 SHL CALLER PUSH2 0x592 JUMP JUMPDEST PUSH2 0x64F JUMPI PUSH1 0x40 MLOAD PUSH32 0x8C379A000000000000000000000000000000000000000000000000000000000 DUP2 MSTORE PUSH1 0x4 ADD PUSH2 0x646 SWAP1 PUSH2 0x1556 JUMP JUMPDEST PUSH1 0x40 MLOAD DUP1 SWAP2 SUB SWAP1 REVERT JUMPDEST PUSH1 0x40 MLOAD DUP1 PUSH1 0x60 ADD PUSH1 0x40 MSTORE DUP1 PUSH1 0x2 SLOAD DUP2 MSTORE PUSH1 0x20 ADD PUSH1 0x0 DUP2 MSTORE PUSH1 0x20 ADD NUMBER DUP2 MSTORE POP PUSH1 0x3 DUP3 PUSH1 0x40 MLOAD PUSH2 0x67D SWAP2 SWAP1 PUSH2 0x13F2 JUMP JUMPDEST SWAP1 DUP2 MSTORE PUSH1 0x20 ADD PUSH1 0x40 MLOAD DUP1 SWAP2 SUB SWAP1 KECCAK256 PUSH1 0x0 DUP3 ADD MLOAD DUP2 PUSH1 0x0 ADD SSTORE PUSH1 0x20 DUP3 ADD MLOAD DUP2 PUSH1 0x1 ADD SSTORE PUSH1 0x40 DUP3 ADD MLOAD DUP2 PUSH1 0x2 ADD SSTORE SWAP1 POP POP POP JUMP JUMPDEST PUSH2 0x6B8 DUP3 PUSH2 0x319 JUMP JUMPDEST PUSH2 0x6C1 DUP2 PUSH2 0xAB1 JUMP JUMPDEST PUSH2 0x6CB DUP4 DUP4 PUSH2 0xBAD JUMP JUMPDEST POP POP POP JUMP JUMPDEST PUSH1 0x0 PUSH1 0x1 PUSH1 0x0 SWAP1 SLOAD SWAP1 PUSH2 0x100 EXP SWAP1 DIV PUSH20 0xFFFFFFFFFFFFFFFFFFFFFFFFFFFFFFFFFFFFFFFF AND PUSH20 0xFFFFFFFFFFFFFFFFFFFFFFFFFFFFFFFFFFFFFFFF AND PUSH4 0x70A08231 ADDRESS PUSH1 0x40 MLOAD DUP3 PUSH4 0xFFFFFFFF AND PUSH1 0xE0 SHL DUP2 MSTORE PUSH1 0x4 ADD PUSH2 0x72D SWAP2 SWAP1 PUSH2 0x1443 JUMP JUMPDEST PUSH1 0x20 PUSH1 0x40 MLOAD DUP1 DUP4 SUB DUP2 DUP7 DUP1 EXTCODESIZE ISZERO DUP1 ISZERO PUSH2 0x745 JUMPI PUSH1 0x0 DUP1 REVERT JUMPDEST POP GAS STATICCALL ISZERO DUP1 ISZERO PUSH2 0x759 JUMPI RETURNDATASIZE PUSH1 0x0 DUP1 RETURNDATACOPY RETURNDATASIZE PUSH1 0x0 REVERT JUMPDEST POP POP POP POP PUSH1 0x40 MLOAD RETURNDATASIZE PUSH1 0x1F NOT PUSH1 0x1F DUP3 ADD AND DUP3 ADD DUP1 PUSH1 0x40 MSTORE POP DUP2 ADD SWAP1 PUSH2 0x77D SWAP2 SWAP1 PUSH2 0x1165 JUMP JUMPDEST SWAP1 POP DUP3 DUP2 GT PUSH2 0x7C1 JUMPI PUSH1 0x40 MLOAD PUSH32 0x8C379A000000000000000000000000000000000000000000000000000000000 DUP2 MSTORE PUSH1 0x4 ADD PUSH2 0x7B8 SWAP1 PUSH2 0x1576 JUMP JUMPDEST PUSH1 0x40 MLOAD DUP1 SWAP2 SUB SWAP1 REVERT JUMPDEST PUSH1 0x0 PUSH1 0x3 DUP4 PUSH1 0x40 MLOAD PUSH2 0x7D3 SWAP2 SWAP1 PUSH2 0x13F2 JUMP JUMPDEST SWAP1 DUP2 MSTORE PUSH1 0x20 ADD PUSH1 0x40 MLOAD DUP1 SWAP2 SUB SWAP1 KECCAK256 PUSH1 0x40 MLOAD DUP1 PUSH1 0x60 ADD PUSH1 0x40 MSTORE SWAP1 DUP2 PUSH1 0x0 DUP3 ADD SLOAD DUP2 MSTORE PUSH1 0x20 ADD PUSH1 0x1 DUP3 ADD SLOAD DUP2 MSTORE PUSH1 0x20 ADD PUSH1 0x2 DUP3 ADD SLOAD DUP2 MSTORE POP POP SWAP1 POP NUMBER DUP2 PUSH1 0x40 ADD MLOAD GT PUSH2 0x852 JUMPI PUSH1 0x40 MLOAD PUSH32 0x8C379A000000000000000000000000000000000000000000000000000000000 DUP2 MSTORE PUSH1 0x4 ADD PUSH2 0x849 SWAP1 PUSH2 0x1516 JUMP JUMPDEST PUSH1 0x40 MLOAD DUP1 SWAP2 SUB SWAP1 REVERT JUMPDEST DUP4 DUP2 PUSH1 0x0 ADD MLOAD GT PUSH2 0x898 JUMPI PUSH1 0x40 MLOAD PUSH32 0x8C379A000000000000000000000000000000000000000000000000000000000 DUP2 MSTORE PUSH1 0x4 ADD PUSH2 0x88F SWAP1 PUSH2 0x15B6 JUMP JUMPDEST PUSH1 0x40 MLOAD DUP1 SWAP2 SUB SWAP1 REVERT JUMPDEST DUP4 DUP2 PUSH1 0x0 ADD MLOAD PUSH2 0x8A8 SWAP2 SWAP1 PUSH2 0x17AB JUMP JUMPDEST DUP2 PUSH1 0x20 ADD MLOAD LT PUSH2 0x8ED JUMPI PUSH1 0x40 MLOAD PUSH32 0x8C379A000000000000000000000000000000000000000000000000000000000 DUP2 MSTORE PUSH1 0x4 ADD PUSH2 0x8E4 SWAP1 PUSH2 0x15B6 JUMP JUMPDEST PUSH1 0x40 MLOAD DUP1 SWAP2 SUB SWAP1 REVERT JUMPDEST PUSH1 0x1 PUSH1 0x0 SWAP1 SLOAD SWAP1 PUSH2 0x100 EXP SWAP1 DIV PUSH20 0xFFFFFFFFFFFFFFFFFFFFFFFFFFFFFFFFFFFFFFFF AND PUSH20 0xFFFFFFFFFFFFFFFFFFFFFFFFFFFFFFFFFFFFFFFF AND PUSH4 0xA9059CBB CALLER DUP7 PUSH1 0x40 MLOAD DUP4 PUSH4 0xFFFFFFFF AND PUSH1 0xE0 SHL DUP2 MSTORE PUSH1 0x4 ADD PUSH2 0x94A SWAP3 SWAP2 SWAP1 PUSH2 0x1495 JUMP JUMPDEST PUSH1 0x20 PUSH1 0x40 MLOAD DUP1 DUP4 SUB DUP2 PUSH1 0x0 DUP8 DUP1 EXTCODESIZE ISZERO DUP1 ISZERO PUSH2 0x964 JUMPI PUSH1 0x0 DUP1 REVERT JUMPDEST POP GAS CALL ISZERO DUP1 ISZERO PUSH2 0x978 JUMPI RETURNDATASIZE PUSH1 0x0 DUP1 RETURNDATACOPY RETURNDATASIZE PUSH1 0x0 REVERT JUMPDEST POP POP POP POP PUSH1 0x40 MLOAD RETURNDATASIZE PUSH1 0x1F NOT PUSH1 0x1F DUP3 ADD AND DUP3 ADD DUP1 PUSH1 0x40 MSTORE POP DUP2 ADD SWAP1 PUSH2 0x99C SWAP2 SWAP1 PUSH2 0x1055 JUMP JUMPDEST PUSH2 0x9DB JUMPI PUSH1 0x40 MLOAD PUSH32 0x8C379A000000000000000000000000000000000000000000000000000000000 DUP2 MSTORE PUSH1 0x4 ADD PUSH2 0x9D2 SWAP1 PUSH2 0x15D6 JUMP JUMPDEST PUSH1 0x40 MLOAD DUP1 SWAP2 SUB SWAP1 REVERT JUMPDEST DUP4 DUP2 PUSH1 0x20 ADD DUP2 DUP2 MLOAD PUSH2 0x9ED SWAP2 SWAP1 PUSH2 0x16CA JUMP JUMPDEST SWAP2 POP DUP2 DUP2 MSTORE POP POP PUSH3 0x106D0 NUMBER PUSH2 0xA03 SWAP2 SWAP1 PUSH2 0x16CA JUMP JUMPDEST DUP2 PUSH1 0x40 ADD DUP2 DUP2 MLOAD PUSH2 0xA14 SWAP2 SWAP1 PUSH2 0x16CA JUMP JUMPDEST SWAP2 POP DUP2 DUP2 MSTORE POP POP POP POP POP POP JUMP JUMPDEST PUSH1 0x1 PUSH1 0x0 SWAP1 SLOAD SWAP1 PUSH2 0x100 EXP SWAP1 DIV PUSH20 0xFFFFFFFFFFFFFFFFFFFFFFFFFFFFFFFFFFFFFFFF AND DUP2 JUMP JUMPDEST PUSH1 0x0 PUSH32 0x1FFC9A700000000000000000000000000000000000000000000000000000000 PUSH28 0xFFFFFFFFFFFFFFFFFFFFFFFFFFFFFFFFFFFFFFFFFFFFFFFFFFFFFFFF NOT AND DUP3 PUSH28 0xFFFFFFFFFFFFFFFFFFFFFFFFFFFFFFFFFFFFFFFFFFFFFFFFFFFFFFFF NOT AND EQ SWAP1 POP SWAP2 SWAP1 POP JUMP JUMPDEST PUSH2 0xAC2 DUP2 PUSH2 0xABD PUSH2 0xBA5 JUMP JUMPDEST PUSH2 0xC8E JUMP JUMPDEST POP JUMP JUMPDEST PUSH2 0xACF DUP3 DUP3 PUSH2 0x592 JUMP JUMPDEST PUSH2 0xBA1 JUMPI PUSH1 0x1 PUSH1 0x0 DUP1 DUP5 DUP2 MSTORE PUSH1 0x20 ADD SWAP1 DUP2 MSTORE PUSH1 0x20 ADD PUSH1 0x0 KECCAK256 PUSH1 0x0 ADD PUSH1 0x0 DUP4 PUSH20 0xFFFFFFFFFFFFFFFFFFFFFFFFFFFFFFFFFFFFFFFF AND PUSH20 0xFFFFFFFFFFFFFFFFFFFFFFFFFFFFFFFFFFFFFFFF AND DUP2 MSTORE PUSH1 0x20 ADD SWAP1 DUP2 MSTORE PUSH1 0x20 ADD PUSH1 0x0 KECCAK256 PUSH1 0x0 PUSH2 0x100 EXP DUP2 SLOAD DUP2 PUSH1 0xFF MUL NOT AND SWAP1 DUP4 ISZERO ISZERO MUL OR SWAP1 SSTORE POP PUSH2 0xB46 PUSH2 0xBA5 JUMP JUMPDEST PUSH20 0xFFFFFFFFFFFFFFFFFFFFFFFFFFFFFFFFFFFFFFFF AND DUP2 PUSH20 0xFFFFFFFFFFFFFFFFFFFFFFFFFFFFFFFFFFFFFFFF AND DUP4 PUSH32 0x2F8788117E7EFF1D82E926EC794901D17C78024A50270940304540A733656F0D PUSH1 0x40 MLOAD PUSH1 0x40 MLOAD DUP1 SWAP2 SUB SWAP1 LOG4 JUMPDEST POP POP JUMP JUMPDEST PUSH1 0x0 CALLER SWAP1 POP SWAP1 JUMP JUMPDEST PUSH2 0xBB7 DUP3 DUP3 PUSH2 0x592 JUMP JUMPDEST ISZERO PUSH2 0xC8A JUMPI PUSH1 0x0 DUP1 PUSH1 0x0 DUP5 DUP2 MSTORE PUSH1 0x20 ADD SWAP1 DUP2 MSTORE PUSH1 0x20 ADD PUSH1 0x0 KECCAK256 PUSH1 0x0 ADD PUSH1 0x0 DUP4 PUSH20 0xFFFFFFFFFFFFFFFFFFFFFFFFFFFFFFFFFFFFFFFF AND PUSH20 0xFFFFFFFFFFFFFFFFFFFFFFFFFFFFFFFFFFFFFFFF AND DUP2 MSTORE PUSH1 0x20 ADD SWAP1 DUP2 MSTORE PUSH1 0x20 ADD PUSH1 0x0 KECCAK256 PUSH1 0x0 PUSH2 0x100 EXP DUP2 SLOAD DUP2 PUSH1 0xFF MUL NOT AND SWAP1 DUP4 ISZERO ISZERO MUL OR SWAP1 SSTORE POP PUSH2 0xC2F PUSH2 0xBA5 JUMP JUMPDEST PUSH20 0xFFFFFFFFFFFFFFFFFFFFFFFFFFFFFFFFFFFFFFFF AND DUP2 PUSH20 0xFFFFFFFFFFFFFFFFFFFFFFFFFFFFFFFFFFFFFFFF AND DUP4 PUSH32 0xF6391F5C32D9C69D2A47EA670B442974B53935D1EDC7FD64EB21E047A839171B PUSH1 0x40 MLOAD PUSH1 0x40 MLOAD DUP1 SWAP2 SUB SWAP1 LOG4 JUMPDEST POP POP JUMP JUMPDEST PUSH2 0xC98 DUP3 DUP3 PUSH2 0x592 JUMP JUMPDEST PUSH2 0xD27 JUMPI PUSH2 0xCBD DUP2 PUSH20 0xFFFFFFFFFFFFFFFFFFFFFFFFFFFFFFFFFFFFFFFF AND PUSH1 0x14 PUSH2 0xD2B JUMP JUMPDEST PUSH2 0xCCB DUP4 PUSH1 0x0 SHR PUSH1 0x20 PUSH2 0xD2B JUMP JUMPDEST PUSH1 0x40 MLOAD PUSH1 0x20 ADD PUSH2 0xCDC SWAP3 SWAP2 SWAP1 PUSH2 0x1409 JUMP JUMPDEST PUSH1 0x40 MLOAD PUSH1 0x20 DUP2 DUP4 SUB SUB DUP2 MSTORE SWAP1 PUSH1 0x40 MSTORE PUSH1 0x40 MLOAD PUSH32 0x8C379A000000000000000000000000000000000000000000000000000000000 DUP2 MSTORE PUSH1 0x4 ADD PUSH2 0xD1E SWAP2 SWAP1 PUSH2 0x14F4 JUMP JUMPDEST PUSH1 0x40 MLOAD DUP1 SWAP2 SUB SWAP1 REVERT JUMPDEST POP POP JUMP JUMPDEST PUSH1 0x60 PUSH1 0x0 PUSH1 0x2 DUP4 PUSH1 0x2 PUSH2 0xD3E SWAP2 SWAP1 PUSH2 0x1751 JUMP JUMPDEST PUSH2 0xD48 SWAP2 SWAP1 PUSH2 0x16CA JUMP JUMPDEST PUSH8 0xFFFFFFFFFFFFFFFF DUP2 GT ISZERO PUSH2 0xD61 JUMPI PUSH2 0xD60 PUSH2 0x1987 JUMP JUMPDEST JUMPDEST PUSH1 0x40 MLOAD SWAP1 DUP1 DUP3 MSTORE DUP1 PUSH1 0x1F ADD PUSH1 0x1F NOT AND PUSH1 0x20 ADD DUP3 ADD PUSH1 0x40 MSTORE DUP1 ISZERO PUSH2 0xD93 JUMPI DUP2 PUSH1 0x20 ADD PUSH1 0x1 DUP3 MUL DUP1 CALLDATASIZE DUP4 CALLDATACOPY DUP1 DUP3 ADD SWAP2 POP POP SWAP1 POP JUMPDEST POP SWAP1 POP PUSH32 0x3000000000000000000000000000000000000000000000000000000000000000 DUP2 PUSH1 0x0 DUP2 MLOAD DUP2 LT PUSH2 0xDCB JUMPI PUSH2 0xDCA PUSH2 0x1958 JUMP JUMPDEST JUMPDEST PUSH1 0x20 ADD ADD SWAP1 PUSH31 0xFFFFFFFFFFFFFFFFFFFFFFFFFFFFFFFFFFFFFFFFFFFFFFFFFFFFFFFFFFFFFF NOT AND SWAP1 DUP2 PUSH1 0x0 BYTE SWAP1 MSTORE8 POP PUSH32 0x7800000000000000000000000000000000000000000000000000000000000000 DUP2 PUSH1 0x1 DUP2 MLOAD DUP2 LT PUSH2 0xE2F JUMPI PUSH2 0xE2E PUSH2 0x1958 JUMP JUMPDEST JUMPDEST PUSH1 0x20 ADD ADD SWAP1 PUSH31 0xFFFFFFFFFFFFFFFFFFFFFFFFFFFFFFFFFFFFFFFFFFFFFFFFFFFFFFFFFFFFFF NOT AND SWAP1 DUP2 PUSH1 0x0 BYTE SWAP1 MSTORE8 POP PUSH1 0x0 PUSH1 0x1 DUP5 PUSH1 0x2 PUSH2 0xE6F SWAP2 SWAP1 PUSH2 0x1751 JUMP JUMPDEST PUSH2 0xE79 SWAP2 SWAP1 PUSH2 0x16CA JUMP JUMPDEST SWAP1 POP JUMPDEST PUSH1 0x1 DUP2 GT ISZERO PUSH2 0xF19 JUMPI PUSH32 0x3031323334353637383961626364656600000000000000000000000000000000 PUSH1 0xF DUP7 AND PUSH1 0x10 DUP2 LT PUSH2 0xEBB JUMPI PUSH2 0xEBA PUSH2 0x1958 JUMP JUMPDEST JUMPDEST BYTE PUSH1 0xF8 SHL DUP3 DUP3 DUP2 MLOAD DUP2 LT PUSH2 0xED2 JUMPI PUSH2 0xED1 PUSH2 0x1958 JUMP JUMPDEST JUMPDEST PUSH1 0x20 ADD ADD SWAP1 PUSH31 0xFFFFFFFFFFFFFFFFFFFFFFFFFFFFFFFFFFFFFFFFFFFFFFFFFFFFFFFFFFFFFF NOT AND SWAP1 DUP2 PUSH1 0x0 BYTE SWAP1 MSTORE8 POP PUSH1 0x4 DUP6 SWAP1 SHR SWAP5 POP DUP1 PUSH2 0xF12 SWAP1 PUSH2 0x189F JUMP JUMPDEST SWAP1 POP PUSH2 0xE7C JUMP JUMPDEST POP PUSH1 0x0 DUP5 EQ PUSH2 0xF5D JUMPI PUSH1 0x40 MLOAD PUSH32 0x8C379A000000000000000000000000000000000000000000000000000000000 DUP2 MSTORE PUSH1 0x4 ADD PUSH2 0xF54 SWAP1 PUSH2 0x1536 JUMP JUMPDEST PUSH1 0x40 MLOAD DUP1 SWAP2 SUB SWAP1 REVERT JUMPDEST DUP1 SWAP2 POP POP SWAP3 SWAP2 POP POP JUMP JUMPDEST PUSH1 0x0 PUSH2 0xF7A PUSH2 0xF75 DUP5 PUSH2 0x1672 JUMP JUMPDEST PUSH2 0x164D JUMP JUMPDEST SWAP1 POP DUP3 DUP2 MSTORE PUSH1 0x20 DUP2 ADD DUP5 DUP5 DUP5 ADD GT ISZERO PUSH2 0xF96 JUMPI PUSH2 0xF95 PUSH2 0x19BB JUMP JUMPDEST JUMPDEST PUSH2 0xFA1 DUP5 DUP3 DUP6 PUSH2 0x185D JUMP JUMPDEST POP SWAP4 SWAP3 POP POP POP JUMP JUMPDEST PUSH1 0x0 DUP2 CALLDATALOAD SWAP1 POP PUSH2 0xFB8 DUP2 PUSH2 0x1BE7 JUMP JUMPDEST SWAP3 SWAP2 POP POP JUMP JUMPDEST PUSH1 0x0 DUP2 MLOAD SWAP1 POP PUSH2 0xFCD DUP2 PUSH2 0x1BFE JUMP JUMPDEST SWAP3 SWAP2 POP POP JUMP JUMPDEST PUSH1 0x0 DUP2 CALLDATALOAD SWAP1 POP PUSH2 0xFE2 DUP2 PUSH2 0x1C15 JUMP JUMPDEST SWAP3 SWAP2 POP POP JUMP JUMPDEST PUSH1 0x0 DUP2 CALLDATALOAD SWAP1 POP PUSH2 0xFF7 DUP2 PUSH2 0x1C2C JUMP JUMPDEST SWAP3 SWAP2 POP POP JUMP JUMPDEST PUSH1 0x0 DUP3 PUSH1 0x1F DUP4 ADD SLT PUSH2 0x1012 JUMPI PUSH2 0x1011 PUSH2 0x19B6 JUMP JUMPDEST JUMPDEST DUP2 CALLDATALOAD PUSH2 0x1022 DUP5 DUP3 PUSH1 0x20 DUP7 ADD PUSH2 0xF67 JUMP JUMPDEST SWAP2 POP POP SWAP3 SWAP2 POP POP JUMP JUMPDEST PUSH1 0x0 DUP2 CALLDATALOAD SWAP1 POP PUSH2 0x103A DUP2 PUSH2 0x1C43 JUMP JUMPDEST SWAP3 SWAP2 POP POP JUMP JUMPDEST PUSH1 0x0 DUP2 MLOAD SWAP1 POP PUSH2 0x104F DUP2 PUSH2 0x1C43 JUMP JUMPDEST SWAP3 SWAP2 POP POP JUMP JUMPDEST PUSH1 0x0 PUSH1 0x20 DUP3 DUP5 SUB SLT ISZERO PUSH2 0x106B JUMPI PUSH2 0x106A PUSH2 0x19C5 JUMP JUMPDEST JUMPDEST PUSH1 0x0 PUSH2 0x1079 DUP5 DUP3 DUP6 ADD PUSH2 0xFBE JUMP JUMPDEST SWAP2 POP POP SWAP3 SWAP2 POP POP JUMP JUMPDEST PUSH1 0x0 PUSH1 0x20 DUP3 DUP5 SUB SLT ISZERO PUSH2 0x1098 JUMPI PUSH2 0x1097 PUSH2 0x19C5 JUMP JUMPDEST JUMPDEST PUSH1 0x0 PUSH2 0x10A6 DUP5 DUP3 DUP6 ADD PUSH2 0xFD3 JUMP JUMPDEST SWAP2 POP POP SWAP3 SWAP2 POP POP JUMP JUMPDEST PUSH1 0x0 DUP1 PUSH1 0x40 DUP4 DUP6 SUB SLT ISZERO PUSH2 0x10C6 JUMPI PUSH2 0x10C5 PUSH2 0x19C5 JUMP JUMPDEST JUMPDEST PUSH1 0x0 PUSH2 0x10D4 DUP6 DUP3 DUP7 ADD PUSH2 0xFD3 JUMP JUMPDEST SWAP3 POP POP PUSH1 0x20 PUSH2 0x10E5 DUP6 DUP3 DUP7 ADD PUSH2 0xFA9 JUMP JUMPDEST SWAP2 POP POP SWAP3 POP SWAP3 SWAP1 POP JUMP JUMPDEST PUSH1 0x0 PUSH1 0x20 DUP3 DUP5 SUB SLT ISZERO PUSH2 0x1105 JUMPI PUSH2 0x1104 PUSH2 0x19C5 JUMP JUMPDEST JUMPDEST PUSH1 0x0 PUSH2 0x1113 DUP5 DUP3 DUP6 ADD PUSH2 0xFE8 JUMP JUMPDEST SWAP2 POP POP SWAP3 SWAP2 POP POP JUMP JUMPDEST PUSH1 0x0 PUSH1 0x20 DUP3 DUP5 SUB SLT ISZERO PUSH2 0x1132 JUMPI PUSH2 0x1131 PUSH2 0x19C5 JUMP JUMPDEST JUMPDEST PUSH1 0x0 DUP3 ADD CALLDATALOAD PUSH8 0xFFFFFFFFFFFFFFFF DUP2 GT ISZERO PUSH2 0x1150 JUMPI PUSH2 0x114F PUSH2 0x19C0 JUMP JUMPDEST JUMPDEST PUSH2 0x115C DUP5 DUP3 DUP6 ADD PUSH2 0xFFD JUMP JUMPDEST SWAP2 POP POP SWAP3 SWAP2 POP POP JUMP JUMPDEST PUSH1 0x0 PUSH1 0x20 DUP3 DUP5 SUB SLT ISZERO PUSH2 0x117B JUMPI PUSH2 0x117A PUSH2 0x19C5 JUMP JUMPDEST JUMPDEST PUSH1 0x0 PUSH2 0x1189 DUP5 DUP3 DUP6 ADD PUSH2 0x1040 JUMP JUMPDEST SWAP2 POP POP SWAP3 SWAP2 POP POP JUMP JUMPDEST PUSH1 0x0 DUP1 PUSH1 0x40 DUP4 DUP6 SUB SLT ISZERO PUSH2 0x11A9 JUMPI PUSH2 0x11A8 PUSH2 0x19C5 JUMP JUMPDEST JUMPDEST PUSH1 0x0 PUSH2 0x11B7 DUP6 DUP3 DUP7 ADD PUSH2 0x102B JUMP JUMPDEST SWAP3 POP POP PUSH1 0x20 DUP4 ADD CALLDATALOAD PUSH8 0xFFFFFFFFFFFFFFFF DUP2 GT ISZERO PUSH2 0x11D8 JUMPI PUSH2 0x11D7 PUSH2 0x19C0 JUMP JUMPDEST JUMPDEST PUSH2 0x11E4 DUP6 DUP3 DUP7 ADD PUSH2 0xFFD JUMP JUMPDEST SWAP2 POP POP SWAP3 POP SWAP3 SWAP1 POP JUMP JUMPDEST PUSH2 0x11F7 DUP2 PUSH2 0x17DF JUMP JUMPDEST DUP3 MSTORE POP POP JUMP JUMPDEST PUSH2 0x1206 DUP2 PUSH2 0x17F1 JUMP JUMPDEST DUP3 MSTORE POP POP JUMP JUMPDEST PUSH2 0x1215 DUP2 PUSH2 0x17FD JUMP JUMPDEST DUP3 MSTORE POP POP JUMP JUMPDEST PUSH1 0x0 PUSH2 0x1226 DUP3 PUSH2 0x16A3 JUMP JUMPDEST PUSH2 0x1230 DUP2 DUP6 PUSH2 0x16AE JUMP JUMPDEST SWAP4 POP PUSH2 0x1240 DUP2 DUP6 PUSH1 0x20 DUP7 ADD PUSH2 0x186C JUMP JUMPDEST PUSH2 0x1249 DUP2 PUSH2 0x19CA JUMP JUMPDEST DUP5 ADD SWAP2 POP POP SWAP3 SWAP2 POP POP JUMP JUMPDEST PUSH1 0x0 PUSH2 0x125F DUP3 PUSH2 0x16A3 JUMP JUMPDEST PUSH2 0x1269 DUP2 DUP6 PUSH2 0x16BF JUMP JUMPDEST SWAP4 POP PUSH2 0x1279 DUP2 DUP6 PUSH1 0x20 DUP7 ADD PUSH2 0x186C JUMP JUMPDEST DUP1 DUP5 ADD SWAP2 POP POP SWAP3 SWAP2 POP POP JUMP JUMPDEST PUSH1 0x0 PUSH2 0x1292 PUSH1 0x28 DUP4 PUSH2 0x16AE JUMP JUMPDEST SWAP2 POP PUSH2 0x129D DUP3 PUSH2 0x19DB JUMP JUMPDEST PUSH1 0x40 DUP3 ADD SWAP1 POP SWAP2 SWAP1 POP JUMP JUMPDEST PUSH1 0x0 PUSH2 0x12B5 PUSH1 0x20 DUP4 PUSH2 0x16AE JUMP JUMPDEST SWAP2 POP PUSH2 0x12C0 DUP3 PUSH2 0x1A2A JUMP JUMPDEST PUSH1 0x20 DUP3 ADD SWAP1 POP SWAP2 SWAP1 POP JUMP JUMPDEST PUSH1 0x0 PUSH2 0x12D8 PUSH1 0x1B DUP4 PUSH2 0x16AE JUMP JUMPDEST SWAP2 POP PUSH2 0x12E3 DUP3 PUSH2 0x1A53 JUMP JUMPDEST PUSH1 0x20 DUP3 ADD SWAP1 POP SWAP2 SWAP1 POP JUMP JUMPDEST PUSH1 0x0 PUSH2 0x12FB PUSH1 0x1C DUP4 PUSH2 0x16AE JUMP JUMPDEST SWAP2 POP PUSH2 0x1306 DUP3 PUSH2 0x1A7C JUMP JUMPDEST PUSH1 0x20 DUP3 ADD SWAP1 POP SWAP2 SWAP1 POP JUMP JUMPDEST PUSH1 0x0 PUSH2 0x131E PUSH1 0xC DUP4 PUSH2 0x16AE JUMP JUMPDEST SWAP2 POP PUSH2 0x1329 DUP3 PUSH2 0x1AA5 JUMP JUMPDEST PUSH1 0x20 DUP3 ADD SWAP1 POP SWAP2 SWAP1 POP JUMP JUMPDEST PUSH1 0x0 PUSH2 0x1341 PUSH1 0x2A DUP4 PUSH2 0x16AE JUMP JUMPDEST SWAP2 POP PUSH2 0x134C DUP3 PUSH2 0x1ACE JUMP JUMPDEST PUSH1 0x40 DUP3 ADD SWAP1 POP SWAP2 SWAP1 POP JUMP JUMPDEST PUSH1 0x0 PUSH2 0x1364 PUSH1 0x17 DUP4 PUSH2 0x16BF JUMP JUMPDEST SWAP2 POP PUSH2 0x136F DUP3 PUSH2 0x1B1D JUMP JUMPDEST PUSH1 0x17 DUP3 ADD SWAP1 POP SWAP2 SWAP1 POP JUMP JUMPDEST PUSH1 0x0 PUSH2 0x1387 PUSH1 0xF DUP4 PUSH2 0x16AE JUMP JUMPDEST SWAP2 POP PUSH2 0x1392 DUP3 PUSH2 0x1B46 JUMP JUMPDEST PUSH1 0x20 DUP3 ADD SWAP1 POP SWAP2 SWAP1 POP JUMP JUMPDEST PUSH1 0x0 PUSH2 0x13AA PUSH1 0x11 DUP4 PUSH2 0x16BF JUMP JUMPDEST SWAP2 POP PUSH2 0x13B5 DUP3 PUSH2 0x1B6F JUMP JUMPDEST PUSH1 0x11 DUP3 ADD SWAP1 POP SWAP2 SWAP1 POP JUMP JUMPDEST PUSH1 0x0 PUSH2 0x13CD PUSH1 0x2F DUP4 PUSH2 0x16AE JUMP JUMPDEST SWAP2 POP PUSH2 0x13D8 DUP3 PUSH2 0x1B98 JUMP JUMPDEST PUSH1 0x40 DUP3 ADD SWAP1 POP SWAP2 SWAP1 POP JUMP JUMPDEST PUSH2 0x13EC DUP2 PUSH2 0x1853 JUMP JUMPDEST DUP3 MSTORE POP POP JUMP JUMPDEST PUSH1 0x0 PUSH2 0x13FE DUP3 DUP5 PUSH2 0x1254 JUMP JUMPDEST SWAP2 POP DUP2 SWAP1 POP SWAP3 SWAP2 POP POP JUMP JUMPDEST PUSH1 0x0 PUSH2 0x1414 DUP3 PUSH2 0x1357 JUMP JUMPDEST SWAP2 POP PUSH2 0x1420 DUP3 DUP6 PUSH2 0x1254 JUMP JUMPDEST SWAP2 POP PUSH2 0x142B DUP3 PUSH2 0x139D JUMP JUMPDEST SWAP2 POP PUSH2 0x1437 DUP3 DUP5 PUSH2 0x1254 JUMP JUMPDEST SWAP2 POP DUP2 SWAP1 POP SWAP4 SWAP3 POP POP POP JUMP JUMPDEST PUSH1 0x0 PUSH1 0x20 DUP3 ADD SWAP1 POP PUSH2 0x1458 PUSH1 0x0 DUP4 ADD DUP5 PUSH2 0x11EE JUMP JUMPDEST SWAP3 SWAP2 POP POP JUMP JUMPDEST PUSH1 0x0 PUSH1 0x60 DUP3 ADD SWAP1 POP PUSH2 0x1473 PUSH1 0x0 DUP4 ADD DUP7 PUSH2 0x11EE JUMP JUMPDEST PUSH2 0x1480 PUSH1 0x20 DUP4 ADD DUP6 PUSH2 0x11EE JUMP JUMPDEST PUSH2 0x148D PUSH1 0x40 DUP4 ADD DUP5 PUSH2 0x13E3 JUMP JUMPDEST SWAP5 SWAP4 POP POP POP POP JUMP JUMPDEST PUSH1 0x0 PUSH1 0x40 DUP3 ADD SWAP1 POP PUSH2 0x14AA PUSH1 0x0 DUP4 ADD DUP6 PUSH2 0x11EE JUMP JUMPDEST PUSH2 0x14B7 PUSH1 0x20 DUP4 ADD DUP5 PUSH2 0x13E3 JUMP JUMPDEST SWAP4 SWAP3 POP POP POP JUMP JUMPDEST PUSH1 0x0 PUSH1 0x20 DUP3 ADD SWAP1 POP PUSH2 0x14D3 PUSH1 0x0 DUP4 ADD DUP5 PUSH2 0x11FD JUMP JUMPDEST SWAP3 SWAP2 POP POP JUMP JUMPDEST PUSH1 0x0 PUSH1 0x20 DUP3 ADD SWAP1 POP PUSH2 0x14EE PUSH1 0x0 DUP4 ADD DUP5 PUSH2 0x120C JUMP JUMPDEST SWAP3 SWAP2 POP POP JUMP JUMPDEST PUSH1 0x0 PUSH1 0x20 DUP3 ADD SWAP1 POP DUP2 DUP2 SUB PUSH1 0x0 DUP4 ADD MSTORE PUSH2 0x150E DUP2 DUP5 PUSH2 0x121B JUMP JUMPDEST SWAP1 POP SWAP3 SWAP2 POP POP JUMP JUMPDEST PUSH1 0x0 PUSH1 0x20 DUP3 ADD SWAP1 POP DUP2 DUP2 SUB PUSH1 0x0 DUP4 ADD MSTORE PUSH2 0x152F DUP2 PUSH2 0x1285 JUMP JUMPDEST SWAP1 POP SWAP2 SWAP1 POP JUMP JUMPDEST PUSH1 0x0 PUSH1 0x20 DUP3 ADD SWAP1 POP DUP2 DUP2 SUB PUSH1 0x0 DUP4 ADD MSTORE PUSH2 0x154F DUP2 PUSH2 0x12A8 JUMP JUMPDEST SWAP1 POP SWAP2 SWAP1 POP JUMP JUMPDEST PUSH1 0x0 PUSH1 0x20 DUP3 ADD SWAP1 POP DUP2 DUP2 SUB PUSH1 0x0 DUP4 ADD MSTORE PUSH2 0x156F DUP2 PUSH2 0x12CB JUMP JUMPDEST SWAP1 POP SWAP2 SWAP1 POP JUMP JUMPDEST PUSH1 0x0 PUSH1 0x20 DUP3 ADD SWAP1 POP DUP2 DUP2 SUB PUSH1 0x0 DUP4 ADD MSTORE PUSH2 0x158F DUP2 PUSH2 0x12EE JUMP JUMPDEST SWAP1 POP SWAP2 SWAP1 POP JUMP JUMPDEST PUSH1 0x0 PUSH1 0x20 DUP3 ADD SWAP1 POP DUP2 DUP2 SUB PUSH1 0x0 DUP4 ADD MSTORE PUSH2 0x15AF DUP2 PUSH2 0x1311 JUMP JUMPDEST SWAP1 POP SWAP2 SWAP1 POP JUMP JUMPDEST PUSH1 0x0 PUSH1 0x20 DUP3 ADD SWAP1 POP DUP2 DUP2 SUB PUSH1 0x0 DUP4 ADD MSTORE PUSH2 0x15CF DUP2 PUSH2 0x1334 JUMP JUMPDEST SWAP1 POP SWAP2 SWAP1 POP JUMP JUMPDEST PUSH1 0x0 PUSH1 0x20 DUP3 ADD SWAP1 POP DUP2 DUP2 SUB PUSH1 0x0 DUP4 ADD MSTORE PUSH2 0x15EF DUP2 PUSH2 0x137A JUMP JUMPDEST SWAP1 POP SWAP2 SWAP1 POP JUMP JUMPDEST PUSH1 0x0 PUSH1 0x20 DUP3 ADD SWAP1 POP DUP2 DUP2 SUB PUSH1 0x0 DUP4 ADD MSTORE PUSH2 0x160F DUP2 PUSH2 0x13C0 JUMP JUMPDEST SWAP1 POP SWAP2 SWAP1 POP JUMP JUMPDEST PUSH1 0x0 PUSH1 0x60 DUP3 ADD SWAP1 POP PUSH2 0x162B PUSH1 0x0 DUP4 ADD DUP7 PUSH2 0x13E3 JUMP JUMPDEST PUSH2 0x1638 PUSH1 0x20 DUP4 ADD DUP6 PUSH2 0x13E3 JUMP JUMPDEST PUSH2 0x1645 PUSH1 0x40 DUP4 ADD DUP5 PUSH2 0x13E3 JUMP JUMPDEST SWAP5 SWAP4 POP POP POP POP JUMP JUMPDEST PUSH1 0x0 PUSH2 0x1657 PUSH2 0x1668 JUMP JUMPDEST SWAP1 POP PUSH2 0x1663 DUP3 DUP3 PUSH2 0x18C9 JUMP JUMPDEST SWAP2 SWAP1 POP JUMP JUMPDEST PUSH1 0x0 PUSH1 0x40 MLOAD SWAP1 POP SWAP1 JUMP JUMPDEST PUSH1 0x0 PUSH8 0xFFFFFFFFFFFFFFFF DUP3 GT ISZERO PUSH2 0x168D JUMPI PUSH2 0x168C PUSH2 0x1987 JUMP JUMPDEST JUMPDEST PUSH2 0x1696 DUP3 PUSH2 0x19CA JUMP JUMPDEST SWAP1 POP PUSH1 0x20 DUP2 ADD SWAP1 POP SWAP2 SWAP1 POP JUMP JUMPDEST PUSH1 0x0 DUP2 MLOAD SWAP1 POP SWAP2 SWAP1 POP JUMP JUMPDEST PUSH1 0x0 DUP3 DUP3 MSTORE PUSH1 0x20 DUP3 ADD SWAP1 POP SWAP3 SWAP2 POP POP JUMP JUMPDEST PUSH1 0x0 DUP2 SWAP1 POP SWAP3 SWAP2 POP POP JUMP JUMPDEST PUSH1 0x0 PUSH2 0x16D5 DUP3 PUSH2 0x1853 JUMP JUMPDEST SWAP2 POP PUSH2 0x16E0 DUP4 PUSH2 0x1853 JUMP JUMPDEST SWAP3 POP DUP3 PUSH32 0xFFFFFFFFFFFFFFFFFFFFFFFFFFFFFFFFFFFFFFFFFFFFFFFFFFFFFFFFFFFFFFFF SUB DUP3 GT ISZERO PUSH2 0x1715 JUMPI PUSH2 0x1714 PUSH2 0x18FA JUMP JUMPDEST JUMPDEST DUP3 DUP3 ADD SWAP1 POP SWAP3 SWAP2 POP POP JUMP JUMPDEST PUSH1 0x0 PUSH2 0x172B DUP3 PUSH2 0x1853 JUMP JUMPDEST SWAP2 POP PUSH2 0x1736 DUP4 PUSH2 0x1853 JUMP JUMPDEST SWAP3 POP DUP3 PUSH2 0x1746 JUMPI PUSH2 0x1745 PUSH2 0x1929 JUMP JUMPDEST JUMPDEST DUP3 DUP3 DIV SWAP1 POP SWAP3 SWAP2 POP POP JUMP JUMPDEST PUSH1 0x0 PUSH2 0x175C DUP3 PUSH2 0x1853 JUMP JUMPDEST SWAP2 POP PUSH2 0x1767 DUP4 PUSH2 0x1853 JUMP JUMPDEST SWAP3 POP DUP2 PUSH32 0xFFFFFFFFFFFFFFFFFFFFFFFFFFFFFFFFFFFFFFFFFFFFFFFFFFFFFFFFFFFFFFFF DIV DUP4 GT DUP3 ISZERO ISZERO AND ISZERO PUSH2 0x17A0 JUMPI PUSH2 0x179F PUSH2 0x18FA JUMP JUMPDEST JUMPDEST DUP3 DUP3 MUL SWAP1 POP SWAP3 SWAP2 POP POP JUMP JUMPDEST PUSH1 0x0 PUSH2 0x17B6 DUP3 PUSH2 0x1853 JUMP JUMPDEST SWAP2 POP PUSH2 0x17C1 DUP4 PUSH2 0x1853 JUMP JUMPDEST SWAP3 POP DUP3 DUP3 LT ISZERO PUSH2 0x17D4 JUMPI PUSH2 0x17D3 PUSH2 0x18FA JUMP JUMPDEST JUMPDEST DUP3 DUP3 SUB SWAP1 POP SWAP3 SWAP2 POP POP JUMP JUMPDEST PUSH1 0x0 PUSH2 0x17EA DUP3 PUSH2 0x1833 JUMP JUMPDEST SWAP1 POP SWAP2 SWAP1 POP JUMP JUMPDEST PUSH1 0x0 DUP2 ISZERO ISZERO SWAP1 POP SWAP2 SWAP1 POP JUMP JUMPDEST PUSH1 0x0 DUP2 SWAP1 POP SWAP2 SWAP1 POP JUMP JUMPDEST PUSH1 0x0 PUSH32 0xFFFFFFFF00000000000000000000000000000000000000000000000000000000 DUP3 AND SWAP1 POP SWAP2 SWAP1 POP JUMP JUMPDEST PUSH1 0x0 PUSH20 0xFFFFFFFFFFFFFFFFFFFFFFFFFFFFFFFFFFFFFFFF DUP3 AND SWAP1 POP SWAP2 SWAP1 POP JUMP JUMPDEST PUSH1 0x0 DUP2 SWAP1 POP SWAP2 SWAP1 POP JUMP JUMPDEST DUP3 DUP2 DUP4 CALLDATACOPY PUSH1 0x0 DUP4 DUP4 ADD MSTORE POP POP POP JUMP JUMPDEST PUSH1 0x0 JUMPDEST DUP4 DUP2 LT ISZERO PUSH2 0x188A JUMPI DUP1 DUP3 ADD MLOAD DUP2 DUP5 ADD MSTORE PUSH1 0x20 DUP2 ADD SWAP1 POP PUSH2 0x186F JUMP JUMPDEST DUP4 DUP2 GT ISZERO PUSH2 0x1899 JUMPI PUSH1 0x0 DUP5 DUP5 ADD MSTORE JUMPDEST POP POP POP POP JUMP JUMPDEST PUSH1 0x0 PUSH2 0x18AA DUP3 PUSH2 0x1853 JUMP JUMPDEST SWAP2 POP PUSH1 0x0 DUP3 EQ ISZERO PUSH2 0x18BE JUMPI PUSH2 0x18BD PUSH2 0x18FA JUMP JUMPDEST JUMPDEST PUSH1 0x1 DUP3 SUB SWAP1 POP SWAP2 SWAP1 POP JUMP JUMPDEST PUSH2 0x18D2 DUP3 PUSH2 0x19CA JUMP JUMPDEST DUP2 ADD DUP2 DUP2 LT PUSH8 0xFFFFFFFFFFFFFFFF DUP3 GT OR ISZERO PUSH2 0x18F1 JUMPI PUSH2 0x18F0 PUSH2 0x1987 JUMP JUMPDEST JUMPDEST DUP1 PUSH1 0x40 MSTORE POP POP POP JUMP JUMPDEST PUSH32 0x4E487B7100000000000000000000000000000000000000000000000000000000 PUSH1 0x0 MSTORE PUSH1 0x11 PUSH1 0x4 MSTORE PUSH1 0x24 PUSH1 0x0 REVERT JUMPDEST PUSH32 0x4E487B7100000000000000000000000000000000000000000000000000000000 PUSH1 0x0 MSTORE PUSH1 0x12 PUSH1 0x4 MSTORE PUSH1 0x24 PUSH1 0x0 REVERT JUMPDEST PUSH32 0x4E487B7100000000000000000000000000000000000000000000000000000000 PUSH1 0x0 MSTORE PUSH1 0x32 PUSH1 0x4 MSTORE PUSH1 0x24 PUSH1 0x0 REVERT JUMPDEST PUSH32 0x4E487B7100000000000000000000000000000000000000000000000000000000 PUSH1 0x0 MSTORE PUSH1 0x41 PUSH1 0x4 MSTORE PUSH1 0x24 PUSH1 0x0 REVERT JUMPDEST PUSH1 0x0 DUP1 REVERT JUMPDEST PUSH1 0x0 DUP1 REVERT JUMPDEST PUSH1 0x0 DUP1 REVERT JUMPDEST PUSH1 0x0 DUP1 REVERT JUMPDEST PUSH1 0x0 PUSH1 0x1F NOT PUSH1 0x1F DUP4 ADD AND SWAP1 POP SWAP2 SWAP1 POP JUMP JUMPDEST PUSH32 0x63616C6C6572206973206E6F7420656C696769626C6520666F72206E65787420 PUSH1 0x0 DUP3 ADD MSTORE PUSH32 0x7769746864726177000000000000000000000000000000000000000000000000 PUSH1 0x20 DUP3 ADD MSTORE POP JUMP JUMPDEST PUSH32 0x537472696E67733A20686578206C656E67746820696E73756666696369656E74 PUSH1 0x0 DUP3 ADD MSTORE POP JUMP JUMPDEST PUSH32 0x63616C6C6572206973206E6F742061646D696E6973747261746F720000000000 PUSH1 0x0 DUP3 ADD MSTORE POP JUMP JUMPDEST PUSH32 0x6E6F7420656E6F7567682066756E647320696E20636F6E747261637400000000 PUSH1 0x0 DUP3 ADD MSTORE POP JUMP JUMPDEST PUSH32 0x6661696C65642072657061790000000000000000000000000000000000000000 PUSH1 0x0 DUP3 ADD MSTORE POP JUMP JUMPDEST PUSH32 0x63616C6C6572206973206E6F7420656C696769626C6520666F72207769746864 PUSH1 0x0 DUP3 ADD MSTORE PUSH32 0x72617720616D6F756E7400000000000000000000000000000000000000000000 PUSH1 0x20 DUP3 ADD MSTORE POP JUMP JUMPDEST PUSH32 0x416363657373436F6E74726F6C3A206163636F756E7420000000000000000000 PUSH1 0x0 DUP3 ADD MSTORE POP JUMP JUMPDEST PUSH32 0x7769746864726177206661696C65640000000000000000000000000000000000 PUSH1 0x0 DUP3 ADD MSTORE POP JUMP JUMPDEST PUSH32 0x206973206D697373696E6720726F6C6520000000000000000000000000000000 PUSH1 0x0 DUP3 ADD MSTORE POP JUMP JUMPDEST PUSH32 0x416363657373436F6E74726F6C3A2063616E206F6E6C792072656E6F756E6365 PUSH1 0x0 DUP3 ADD MSTORE PUSH32 0x20726F6C657320666F722073656C660000000000000000000000000000000000 PUSH1 0x20 DUP3 ADD MSTORE POP JUMP JUMPDEST PUSH2 0x1BF0 DUP2 PUSH2 0x17DF JUMP JUMPDEST DUP2 EQ PUSH2 0x1BFB JUMPI PUSH1 0x0 DUP1 REVERT JUMPDEST POP JUMP JUMPDEST PUSH2 0x1C07 DUP2 PUSH2 0x17F1 JUMP JUMPDEST DUP2 EQ PUSH2 0x1C12 JUMPI PUSH1 0x0 DUP1 REVERT JUMPDEST POP JUMP JUMPDEST PUSH2 0x1C1E DUP2 PUSH2 0x17FD JUMP JUMPDEST DUP2 EQ PUSH2 0x1C29 JUMPI PUSH1 0x0 DUP1 REVERT JUMPDEST POP JUMP JUMPDEST PUSH2 0x1C35 DUP2 PUSH2 0x1807 JUMP JUMPDEST DUP2 EQ PUSH2 0x1C40 JUMPI PUSH1 0x0 DUP1 REVERT JUMPDEST POP JUMP JUMPDEST PUSH2 0x1C4C DUP2 PUSH2 0x1853 JUMP JUMPDEST DUP2 EQ PUSH2 0x1C57 JUMPI PUSH1 0x0 DUP1 REVERT JUMPDEST POP JUMP INVALID LOG2 PUSH5 0x6970667358 0x22 SLT KECCAK256 0xF 0xED 0xD PUSH7 0x3A9EFBAB9D978C EXP 0xB3 BALANCE 0xA8 PUSH2 0xC4E0 0xFC GASPRICE PUSH21 0x47441A25CEFF44C393CC7964736F6C634300080700 CALLER "
				},
				"gasEstimates": {
					"creation": {
						"codeDepositCost": "1462400",
						"executionCost": "infinite",
						"totalCost": "infinite"
					},
					"external": {
						"DEFAULT_ADMIN_ROLE()": "357",
						"Participants(string)": "infinite",
						"addAdress(string)": "infinite",
						"getRoleAdmin(bytes32)": "infinite",
						"grantRole(bytes32,address)": "infinite",
						"hasRole(bytes32,address)": "3140",
						"renounceRole(bytes32,address)": "infinite",
						"repay(string)": "infinite",
						"revokeRole(bytes32,address)": "infinite",
						"supportsInterface(bytes4)": "728",
						"token()": "2624",
						"withdraw(uint256,string)": "infinite"
					}
				},
				"methodIdentifiers": {
					"DEFAULT_ADMIN_ROLE()": "a217fddf",
					"Participants(string)": "0e296f17",
					"addAdress(string)": "af805b65",
					"getRoleAdmin(bytes32)": "248a9ca3",
					"grantRole(bytes32,address)": "2f2ff15d",
					"hasRole(bytes32,address)": "91d14854",
					"renounceRole(bytes32,address)": "36568abe",
					"repay(string)": "3f1c2135",
					"revokeRole(bytes32,address)": "d547741f",
					"supportsInterface(bytes4)": "01ffc9a7",
					"token()": "fc0c546a",
					"withdraw(uint256,string)": "dc048cf2"
				}
			},
			"storageLayout": {
				"storage": [
					{
						"astId": 24,
						"contract": "distributor.sol:FundDistributor",
						"label": "_roles",
						"offset": 0,
						"slot": "0",
						"type": "t_mapping(t_bytes32,t_struct(RoleData)19_storage)"
					},
					{
						"astId": 1373,
						"contract": "distributor.sol:FundDistributor",
						"label": "token",
						"offset": 0,
						"slot": "1",
						"type": "t_address"
					},
					{
						"astId": 1376,
						"contract": "distributor.sol:FundDistributor",
						"label": "maxLimit",
						"offset": 0,
						"slot": "2",
						"type": "t_uint256"
					},
					{
						"astId": 1381,
						"contract": "distributor.sol:FundDistributor",
						"label": "Participants",
						"offset": 0,
						"slot": "3",
						"type": "t_mapping(t_string_memory_ptr,t_struct(Participant)1404_storage)"
					}
				],
				"types": {
					"t_address": {
						"encoding": "inplace",
						"label": "address",
						"numberOfBytes": "20"
					},
					"t_bool": {
						"encoding": "inplace",
						"label": "bool",
						"numberOfBytes": "1"
					},
					"t_bytes32": {
						"encoding": "inplace",
						"label": "bytes32",
						"numberOfBytes": "32"
					},
					"t_mapping(t_address,t_bool)": {
						"encoding": "mapping",
						"key": "t_address",
						"label": "mapping(address => bool)",
						"numberOfBytes": "32",
						"value": "t_bool"
					},
					"t_mapping(t_bytes32,t_struct(RoleData)19_storage)": {
						"encoding": "mapping",
						"key": "t_bytes32",
						"label": "mapping(bytes32 => struct AccessControl.RoleData)",
						"numberOfBytes": "32",
						"value": "t_struct(RoleData)19_storage"
					},
					"t_mapping(t_string_memory_ptr,t_struct(Participant)1404_storage)": {
						"encoding": "mapping",
						"key": "t_string_memory_ptr",
						"label": "mapping(string => struct FundDistributor.Participant)",
						"numberOfBytes": "32",
						"value": "t_struct(Participant)1404_storage"
					},
					"t_string_memory_ptr": {
						"encoding": "bytes",
						"label": "string",
						"numberOfBytes": "32"
					},
					"t_struct(Participant)1404_storage": {
						"encoding": "inplace",
						"label": "struct FundDistributor.Participant",
						"members": [
							{
								"astId": 1399,
								"contract": "distributor.sol:FundDistributor",
								"label": "currentLimit",
								"offset": 0,
								"slot": "0",
								"type": "t_uint256"
							},
							{
								"astId": 1401,
								"contract": "distributor.sol:FundDistributor",
								"label": "currentlyOwed",
								"offset": 0,
								"slot": "1",
								"type": "t_uint256"
							},
							{
								"astId": 1403,
								"contract": "distributor.sol:FundDistributor",
								"label": "nextAllowedWithdrawBlock",
								"offset": 0,
								"slot": "2",
								"type": "t_uint256"
							}
						],
						"numberOfBytes": "96"
					},
					"t_struct(RoleData)19_storage": {
						"encoding": "inplace",
						"label": "struct AccessControl.RoleData",
						"members": [
							{
								"astId": 16,
								"contract": "distributor.sol:FundDistributor",
								"label": "members",
								"offset": 0,
								"slot": "0",
								"type": "t_mapping(t_address,t_bool)"
							},
							{
								"astId": 18,
								"contract": "distributor.sol:FundDistributor",
								"label": "adminRole",
								"offset": 0,
								"slot": "1",
								"type": "t_bytes32"
							}
						],
						"numberOfBytes": "64"
					},
					"t_uint256": {
						"encoding": "inplace",
						"label": "uint256",
						"numberOfBytes": "32"
					}
				}
			},
			"userdoc": {
				"kind": "user",
				"methods": {},
				"version": 1
			}
		}
	}
}