{
	"FundDistributor.sol": {
		"FundDistributor": {
			"abi": [
				{
					"inputs": [
						{
							"internalType": "address",
							"name": "_Token",
							"type": "address"
						}
					],
					"stateMutability": "nonpayable",
					"type": "constructor"
				},
				{
					"anonymous": false,
					"inputs": [
						{
							"indexed": true,
							"internalType": "bytes32",
							"name": "role",
							"type": "bytes32"
						},
						{
							"indexed": true,
							"internalType": "bytes32",
							"name": "previousAdminRole",
							"type": "bytes32"
						},
						{
							"indexed": true,
							"internalType": "bytes32",
							"name": "newAdminRole",
							"type": "bytes32"
						}
					],
					"name": "RoleAdminChanged",
					"type": "event"
				},
				{
					"anonymous": false,
					"inputs": [
						{
							"indexed": true,
							"internalType": "bytes32",
							"name": "role",
							"type": "bytes32"
						},
						{
							"indexed": true,
							"internalType": "address",
							"name": "account",
							"type": "address"
						},
						{
							"indexed": true,
							"internalType": "address",
							"name": "sender",
							"type": "address"
						}
					],
					"name": "RoleGranted",
					"type": "event"
				},
				{
					"anonymous": false,
					"inputs": [
						{
							"indexed": true,
							"internalType": "bytes32",
							"name": "role",
							"type": "bytes32"
						},
						{
							"indexed": true,
							"internalType": "address",
							"name": "account",
							"type": "address"
						},
						{
							"indexed": true,
							"internalType": "address",
							"name": "sender",
							"type": "address"
						}
					],
					"name": "RoleRevoked",
					"type": "event"
				},
				{
					"anonymous": false,
					"inputs": [
						{
							"indexed": false,
							"internalType": "address",
							"name": "user",
							"type": "address"
						}
					],
					"name": "UserHasBeenAdded",
					"type": "event"
				},
				{
					"inputs": [],
					"name": "DEFAULT_ADMIN_ROLE",
					"outputs": [
						{
							"internalType": "bytes32",
							"name": "",
							"type": "bytes32"
						}
					],
					"stateMutability": "view",
					"type": "function"
				},
				{
					"inputs": [
						{
							"internalType": "address",
							"name": "user",
							"type": "address"
						}
					],
					"name": "addAdress",
					"outputs": [],
					"stateMutability": "payable",
					"type": "function"
				},
				{
					"inputs": [
						{
							"internalType": "address",
							"name": "user",
							"type": "address"
						}
					],
					"name": "amountAvialiable",
					"outputs": [
						{
							"internalType": "uint256",
							"name": "",
							"type": "uint256"
						}
					],
					"stateMutability": "view",
					"type": "function"
				},
				{
					"inputs": [
						{
							"internalType": "bytes32",
							"name": "role",
							"type": "bytes32"
						}
					],
					"name": "getRoleAdmin",
					"outputs": [
						{
							"internalType": "bytes32",
							"name": "",
							"type": "bytes32"
						}
					],
					"stateMutability": "view",
					"type": "function"
				},
				{
					"inputs": [
						{
							"internalType": "bytes32",
							"name": "role",
							"type": "bytes32"
						},
						{
							"internalType": "address",
							"name": "account",
							"type": "address"
						}
					],
					"name": "grantRole",
					"outputs": [],
					"stateMutability": "nonpayable",
					"type": "function"
				},
				{
					"inputs": [
						{
							"internalType": "address",
							"name": "user",
							"type": "address"
						}
					],
					"name": "hasParticipant",
					"outputs": [
						{
							"internalType": "bool",
							"name": "",
							"type": "bool"
						}
					],
					"stateMutability": "view",
					"type": "function"
				},
				{
					"inputs": [
						{
							"internalType": "bytes32",
							"name": "role",
							"type": "bytes32"
						},
						{
							"internalType": "address",
							"name": "account",
							"type": "address"
						}
					],
					"name": "hasRole",
					"outputs": [
						{
							"internalType": "bool",
							"name": "",
							"type": "bool"
						}
					],
					"stateMutability": "view",
					"type": "function"
				},
				{
					"inputs": [
						{
							"internalType": "address",
							"name": "",
							"type": "address"
						}
					],
					"name": "participants",
					"outputs": [
						{
							"internalType": "uint256",
							"name": "currentLimit",
							"type": "uint256"
						},
						{
							"internalType": "uint256",
							"name": "currentlyOwed",
							"type": "uint256"
						},
						{
							"internalType": "uint256",
							"name": "nextAllowedWithdrawBlock",
							"type": "uint256"
						}
					],
					"stateMutability": "view",
					"type": "function"
				},
				{
					"inputs": [
						{
							"internalType": "bytes32",
							"name": "role",
							"type": "bytes32"
						},
						{
							"internalType": "address",
							"name": "account",
							"type": "address"
						}
					],
					"name": "renounceRole",
					"outputs": [],
					"stateMutability": "nonpayable",
					"type": "function"
				},
				{
					"inputs": [
						{
							"internalType": "uint256",
							"name": "amount",
							"type": "uint256"
						}
					],
					"name": "repay",
					"outputs": [],
					"stateMutability": "nonpayable",
					"type": "function"
				},
				{
					"inputs": [
						{
							"internalType": "bytes32",
							"name": "role",
							"type": "bytes32"
						},
						{
							"internalType": "address",
							"name": "account",
							"type": "address"
						}
					],
					"name": "revokeRole",
					"outputs": [],
					"stateMutability": "nonpayable",
					"type": "function"
				},
				{
					"inputs": [
						{
							"internalType": "bytes4",
							"name": "interfaceId",
							"type": "bytes4"
						}
					],
					"name": "supportsInterface",
					"outputs": [
						{
							"internalType": "bool",
							"name": "",
							"type": "bool"
						}
					],
					"stateMutability": "view",
					"type": "function"
				},
				{
					"inputs": [],
					"name": "token",
					"outputs": [
						{
							"internalType": "address",
							"name": "",
							"type": "address"
						}
					],
					"stateMutability": "view",
					"type": "function"
				},
				{
					"inputs": [
						{
							"internalType": "uint256",
							"name": "amount",
							"type": "uint256"
						}
					],
					"name": "withdraw",
					"outputs": [],
					"stateMutability": "nonpayable",
					"type": "function"
				},
				{
					"inputs": [
						{
							"internalType": "address",
							"name": "_tokenContract",
							"type": "address"
						},
						{
							"internalType": "uint256",
							"name": "_amount",
							"type": "uint256"
						}
					],
					"name": "withdrawToken",
					"outputs": [],
					"stateMutability": "nonpayable",
					"type": "function"
				}
			],
			"devdoc": {
				"kind": "dev",
				"methods": {
					"getRoleAdmin(bytes32)": {
						"details": "Returns the admin role that controls `role`. See {grantRole} and {revokeRole}. To change a role's admin, use {_setRoleAdmin}."
					},
					"grantRole(bytes32,address)": {
						"details": "Grants `role` to `account`. If `account` had not been already granted `role`, emits a {RoleGranted} event. Requirements: - the caller must have ``role``'s admin role. May emit a {RoleGranted} event."
					},
					"hasRole(bytes32,address)": {
						"details": "Returns `true` if `account` has been granted `role`."
					},
					"renounceRole(bytes32,address)": {
						"details": "Revokes `role` from the calling account. Roles are often managed via {grantRole} and {revokeRole}: this function's purpose is to provide a mechanism for accounts to lose their privileges if they are compromised (such as when a trusted device is misplaced). If the calling account had been revoked `role`, emits a {RoleRevoked} event. Requirements: - the caller must be `account`. May emit a {RoleRevoked} event."
					},
					"revokeRole(bytes32,address)": {
						"details": "Revokes `role` from `account`. If `account` had been granted `role`, emits a {RoleRevoked} event. Requirements: - the caller must have ``role``'s admin role. May emit a {RoleRevoked} event."
					},
					"supportsInterface(bytes4)": {
						"details": "See {IERC165-supportsInterface}."
					}
				},
				"version": 1
			},
			"evm": {
				"assembly": "    /* \"FundDistributor.sol\":181:3037  contract FundDistributor is AccessControl {... */\n  mstore(0x40, 0x80)\n    /* \"FundDistributor.sol\":276:290  20000000000000 */\n  0x12309ce54000\n    /* \"FundDistributor.sol\":257:290  uint256 maxLimit = 20000000000000 */\n  0x02\n  sstore\n    /* \"FundDistributor.sol\":398:509  constructor(address _Token) {... */\n  callvalue\n  dup1\n  iszero\n  tag_1\n  jumpi\n  0x00\n  dup1\n  revert\ntag_1:\n  pop\n  mload(0x40)\n  sub(codesize, bytecodeSize)\n  dup1\n  bytecodeSize\n  dup4\n  codecopy\n  dup2\n  dup2\n  add\n  0x40\n  mstore\n  dup2\n  add\n  swap1\n  tag_2\n  swap2\n  swap1\n  tag_3\n  jump\t// in\ntag_2:\n    /* \"FundDistributor.sol\":444:450  _Token */\n  dup1\n    /* \"FundDistributor.sol\":436:441  token */\n  0x01\n  0x00\n    /* \"FundDistributor.sol\":436:450  token = _Token */\n  0x0100\n  exp\n  dup2\n  sload\n  dup2\n  0xffffffffffffffffffffffffffffffffffffffff\n  mul\n  not\n  and\n  swap1\n  dup4\n  0xffffffffffffffffffffffffffffffffffffffff\n  and\n  mul\n  or\n  swap1\n  sstore\n  pop\n    /* \"FundDistributor.sol\":460:502  _setupRole(DEFAULT_ADMIN_ROLE, msg.sender) */\n  tag_6\n    /* \"@openzeppelin/contracts/access/AccessControl.sol\":2072:2076  0x00 */\n  0x00\n    /* \"FundDistributor.sol\":471:489  DEFAULT_ADMIN_ROLE */\n  dup1\n  shl\n    /* \"FundDistributor.sol\":491:501  msg.sender */\n  caller\n    /* \"FundDistributor.sol\":460:470  _setupRole */\n  shl(0x20, tag_7)\n    /* \"FundDistributor.sol\":460:502  _setupRole(DEFAULT_ADMIN_ROLE, msg.sender) */\n  0x20\n  shr\n  jump\t// in\ntag_6:\n    /* \"FundDistributor.sol\":398:509  constructor(address _Token) {... */\n  pop\n    /* \"FundDistributor.sol\":181:3037  contract FundDistributor is AccessControl {... */\n  jump(tag_8)\n    /* \"@openzeppelin/contracts/access/AccessControl.sol\":6824:6934  function _setupRole(bytes32 role, address account) internal virtual {... */\ntag_7:\n    /* \"@openzeppelin/contracts/access/AccessControl.sol\":6902:6927  _grantRole(role, account) */\n  tag_10\n    /* \"@openzeppelin/contracts/access/AccessControl.sol\":6913:6917  role */\n  dup3\n    /* \"@openzeppelin/contracts/access/AccessControl.sol\":6919:6926  account */\n  dup3\n    /* \"@openzeppelin/contracts/access/AccessControl.sol\":6902:6912  _grantRole */\n  shl(0x20, tag_11)\n    /* \"@openzeppelin/contracts/access/AccessControl.sol\":6902:6927  _grantRole(role, account) */\n  0x20\n  shr\n  jump\t// in\ntag_10:\n    /* \"@openzeppelin/contracts/access/AccessControl.sol\":6824:6934  function _setupRole(bytes32 role, address account) internal virtual {... */\n  pop\n  pop\n  jump\t// out\n    /* \"@openzeppelin/contracts/access/AccessControl.sol\":7474:7707  function _grantRole(bytes32 role, address account) internal virtual {... */\ntag_11:\n    /* \"@openzeppelin/contracts/access/AccessControl.sol\":7557:7579  hasRole(role, account) */\n  tag_13\n    /* \"@openzeppelin/contracts/access/AccessControl.sol\":7565:7569  role */\n  dup3\n    /* \"@openzeppelin/contracts/access/AccessControl.sol\":7571:7578  account */\n  dup3\n    /* \"@openzeppelin/contracts/access/AccessControl.sol\":7557:7564  hasRole */\n  shl(0x20, tag_14)\n    /* \"@openzeppelin/contracts/access/AccessControl.sol\":7557:7579  hasRole(role, account) */\n  0x20\n  shr\n  jump\t// in\ntag_13:\n    /* \"@openzeppelin/contracts/access/AccessControl.sol\":7552:7701  if (!hasRole(role, account)) {... */\n  tag_15\n  jumpi\n    /* \"@openzeppelin/contracts/access/AccessControl.sol\":7627:7631  true */\n  0x01\n    /* \"@openzeppelin/contracts/access/AccessControl.sol\":7595:7601  _roles */\n  0x00\n    /* \"@openzeppelin/contracts/access/AccessControl.sol\":7595:7607  _roles[role] */\n  dup1\n    /* \"@openzeppelin/contracts/access/AccessControl.sol\":7602:7606  role */\n  dup5\n    /* \"@openzeppelin/contracts/access/AccessControl.sol\":7595:7607  _roles[role] */\n  dup2\n  mstore\n  0x20\n  add\n  swap1\n  dup2\n  mstore\n  0x20\n  add\n  0x00\n  keccak256\n    /* \"@openzeppelin/contracts/access/AccessControl.sol\":7595:7615  _roles[role].members */\n  0x00\n  add\n    /* \"@openzeppelin/contracts/access/AccessControl.sol\":7595:7624  _roles[role].members[account] */\n  0x00\n    /* \"@openzeppelin/contracts/access/AccessControl.sol\":7616:7623  account */\n  dup4\n    /* \"@openzeppelin/contracts/access/AccessControl.sol\":7595:7624  _roles[role].members[account] */\n  0xffffffffffffffffffffffffffffffffffffffff\n  and\n  0xffffffffffffffffffffffffffffffffffffffff\n  and\n  dup2\n  mstore\n  0x20\n  add\n  swap1\n  dup2\n  mstore\n  0x20\n  add\n  0x00\n  keccak256\n  0x00\n    /* \"@openzeppelin/contracts/access/AccessControl.sol\":7595:7631  _roles[role].members[account] = true */\n  0x0100\n  exp\n  dup2\n  sload\n  dup2\n  0xff\n  mul\n  not\n  and\n  swap1\n  dup4\n  iszero\n  iszero\n  mul\n  or\n  swap1\n  sstore\n  pop\n    /* \"@openzeppelin/contracts/access/AccessControl.sol\":7677:7689  _msgSender() */\n  tag_16\n    /* \"@openzeppelin/contracts/access/AccessControl.sol\":7677:7687  _msgSender */\n  shl(0x20, tag_17)\n    /* \"@openzeppelin/contracts/access/AccessControl.sol\":7677:7689  _msgSender() */\n  0x20\n  shr\n  jump\t// in\ntag_16:\n    /* \"@openzeppelin/contracts/access/AccessControl.sol\":7650:7690  RoleGranted(role, account, _msgSender()) */\n  0xffffffffffffffffffffffffffffffffffffffff\n  and\n    /* \"@openzeppelin/contracts/access/AccessControl.sol\":7668:7675  account */\n  dup2\n    /* \"@openzeppelin/contracts/access/AccessControl.sol\":7650:7690  RoleGranted(role, account, _msgSender()) */\n  0xffffffffffffffffffffffffffffffffffffffff\n  and\n    /* \"@openzeppelin/contracts/access/AccessControl.sol\":7662:7666  role */\n  dup4\n    /* \"@openzeppelin/contracts/access/AccessControl.sol\":7650:7690  RoleGranted(role, account, _msgSender()) */\n  0x2f8788117e7eff1d82e926ec794901d17c78024a50270940304540a733656f0d\n  mload(0x40)\n  mload(0x40)\n  dup1\n  swap2\n  sub\n  swap1\n  log4\n    /* \"@openzeppelin/contracts/access/AccessControl.sol\":7552:7701  if (!hasRole(role, account)) {... */\ntag_15:\n    /* \"@openzeppelin/contracts/access/AccessControl.sol\":7474:7707  function _grantRole(bytes32 role, address account) internal virtual {... */\n  pop\n  pop\n  jump\t// out\n    /* \"@openzeppelin/contracts/access/AccessControl.sol\":2895:3040  function hasRole(bytes32 role, address account) public view virtual override returns (bool) {... */\ntag_14:\n    /* \"@openzeppelin/contracts/access/AccessControl.sol\":2981:2985  bool */\n  0x00\n    /* \"@openzeppelin/contracts/access/AccessControl.sol\":3004:3010  _roles */\n  dup1\n    /* \"@openzeppelin/contracts/access/AccessControl.sol\":3004:3016  _roles[role] */\n  0x00\n    /* \"@openzeppelin/contracts/access/AccessControl.sol\":3011:3015  role */\n  dup5\n    /* \"@openzeppelin/contracts/access/AccessControl.sol\":3004:3016  _roles[role] */\n  dup2\n  mstore\n  0x20\n  add\n  swap1\n  dup2\n  mstore\n  0x20\n  add\n  0x00\n  keccak256\n    /* \"@openzeppelin/contracts/access/AccessControl.sol\":3004:3024  _roles[role].members */\n  0x00\n  add\n    /* \"@openzeppelin/contracts/access/AccessControl.sol\":3004:3033  _roles[role].members[account] */\n  0x00\n    /* \"@openzeppelin/contracts/access/AccessControl.sol\":3025:3032  account */\n  dup4\n    /* \"@openzeppelin/contracts/access/AccessControl.sol\":3004:3033  _roles[role].members[account] */\n  0xffffffffffffffffffffffffffffffffffffffff\n  and\n  0xffffffffffffffffffffffffffffffffffffffff\n  and\n  dup2\n  mstore\n  0x20\n  add\n  swap1\n  dup2\n  mstore\n  0x20\n  add\n  0x00\n  keccak256\n  0x00\n  swap1\n  sload\n  swap1\n  0x0100\n  exp\n  swap1\n  div\n  0xff\n  and\n    /* \"@openzeppelin/contracts/access/AccessControl.sol\":2997:3033  return _roles[role].members[account] */\n  swap1\n  pop\n    /* \"@openzeppelin/contracts/access/AccessControl.sol\":2895:3040  function hasRole(bytes32 role, address account) public view virtual override returns (bool) {... */\n  swap3\n  swap2\n  pop\n  pop\n  jump\t// out\n    /* \"@openzeppelin/contracts/utils/Context.sol\":640:736  function _msgSender() internal view virtual returns (address) {... */\ntag_17:\n    /* \"@openzeppelin/contracts/utils/Context.sol\":693:700  address */\n  0x00\n    /* \"@openzeppelin/contracts/utils/Context.sol\":719:729  msg.sender */\n  caller\n    /* \"@openzeppelin/contracts/utils/Context.sol\":712:729  return msg.sender */\n  swap1\n  pop\n    /* \"@openzeppelin/contracts/utils/Context.sol\":640:736  function _msgSender() internal view virtual returns (address) {... */\n  swap1\n  jump\t// out\n    /* \"#utility.yul\":7:150   */\ntag_21:\n    /* \"#utility.yul\":64:69   */\n  0x00\n    /* \"#utility.yul\":95:101   */\n  dup2\n    /* \"#utility.yul\":89:102   */\n  mload\n    /* \"#utility.yul\":80:102   */\n  swap1\n  pop\n    /* \"#utility.yul\":111:144   */\n  tag_23\n    /* \"#utility.yul\":138:143   */\n  dup2\n    /* \"#utility.yul\":111:144   */\n  tag_24\n  jump\t// in\ntag_23:\n    /* \"#utility.yul\":7:150   */\n  swap3\n  swap2\n  pop\n  pop\n  jump\t// out\n    /* \"#utility.yul\":156:507   */\ntag_3:\n    /* \"#utility.yul\":226:232   */\n  0x00\n    /* \"#utility.yul\":275:277   */\n  0x20\n    /* \"#utility.yul\":263:272   */\n  dup3\n    /* \"#utility.yul\":254:261   */\n  dup5\n    /* \"#utility.yul\":250:273   */\n  sub\n    /* \"#utility.yul\":246:278   */\n  slt\n    /* \"#utility.yul\":243:362   */\n  iszero\n  tag_26\n  jumpi\n    /* \"#utility.yul\":281:360   */\n  tag_27\n  tag_28\n  jump\t// in\ntag_27:\n    /* \"#utility.yul\":243:362   */\ntag_26:\n    /* \"#utility.yul\":401:402   */\n  0x00\n    /* \"#utility.yul\":426:490   */\n  tag_29\n    /* \"#utility.yul\":482:489   */\n  dup5\n    /* \"#utility.yul\":473:479   */\n  dup3\n    /* \"#utility.yul\":462:471   */\n  dup6\n    /* \"#utility.yul\":458:480   */\n  add\n    /* \"#utility.yul\":426:490   */\n  tag_21\n  jump\t// in\ntag_29:\n    /* \"#utility.yul\":416:490   */\n  swap2\n  pop\n    /* \"#utility.yul\":372:500   */\n  pop\n    /* \"#utility.yul\":156:507   */\n  swap3\n  swap2\n  pop\n  pop\n  jump\t// out\n    /* \"#utility.yul\":594:690   */\ntag_32:\n    /* \"#utility.yul\":631:638   */\n  0x00\n    /* \"#utility.yul\":660:684   */\n  tag_34\n    /* \"#utility.yul\":678:683   */\n  dup3\n    /* \"#utility.yul\":660:684   */\n  tag_35\n  jump\t// in\ntag_34:\n    /* \"#utility.yul\":649:684   */\n  swap1\n  pop\n    /* \"#utility.yul\":594:690   */\n  swap2\n  swap1\n  pop\n  jump\t// out\n    /* \"#utility.yul\":696:822   */\ntag_35:\n    /* \"#utility.yul\":733:740   */\n  0x00\n    /* \"#utility.yul\":773:815   */\n  0xffffffffffffffffffffffffffffffffffffffff\n    /* \"#utility.yul\":766:771   */\n  dup3\n    /* \"#utility.yul\":762:816   */\n  and\n    /* \"#utility.yul\":751:816   */\n  swap1\n  pop\n    /* \"#utility.yul\":696:822   */\n  swap2\n  swap1\n  pop\n  jump\t// out\n    /* \"#utility.yul\":951:1068   */\ntag_28:\n    /* \"#utility.yul\":1060:1061   */\n  0x00\n    /* \"#utility.yul\":1057:1058   */\n  dup1\n    /* \"#utility.yul\":1050:1062   */\n  revert\n    /* \"#utility.yul\":1074:1196   */\ntag_24:\n    /* \"#utility.yul\":1147:1171   */\n  tag_41\n    /* \"#utility.yul\":1165:1170   */\n  dup2\n    /* \"#utility.yul\":1147:1171   */\n  tag_32\n  jump\t// in\ntag_41:\n    /* \"#utility.yul\":1140:1145   */\n  dup2\n    /* \"#utility.yul\":1137:1172   */\n  eq\n    /* \"#utility.yul\":1127:1190   */\n  tag_42\n  jumpi\n    /* \"#utility.yul\":1186:1187   */\n  0x00\n    /* \"#utility.yul\":1183:1184   */\n  dup1\n    /* \"#utility.yul\":1176:1188   */\n  revert\n    /* \"#utility.yul\":1127:1190   */\ntag_42:\n    /* \"#utility.yul\":1074:1196   */\n  pop\n  jump\t// out\n    /* \"FundDistributor.sol\":181:3037  contract FundDistributor is AccessControl {... */\ntag_8:\n  dataSize(sub_0)\n  dup1\n  dataOffset(sub_0)\n  0x00\n  codecopy\n  0x00\n  return\nstop\n\nsub_0: assembly {\n        /* \"FundDistributor.sol\":181:3037  contract FundDistributor is AccessControl {... */\n      mstore(0x40, 0x80)\n      jumpi(tag_1, lt(calldatasize, 0x04))\n      shr(0xe0, calldataload(0x00))\n      dup1\n      0x91d14854\n      gt\n      tag_17\n      jumpi\n      dup1\n      0xadd474da\n      gt\n      tag_18\n      jumpi\n      dup1\n      0xadd474da\n      eq\n      tag_13\n      jumpi\n      dup1\n      0xd547741f\n      eq\n      tag_14\n      jumpi\n      dup1\n      0xf7d19f5e\n      eq\n      tag_15\n      jumpi\n      dup1\n      0xfc0c546a\n      eq\n      tag_16\n      jumpi\n      jump(tag_1)\n    tag_18:\n      dup1\n      0x91d14854\n      eq\n      tag_9\n      jumpi\n      dup1\n      0x92ac7958\n      eq\n      tag_10\n      jumpi\n      dup1\n      0x9e281a98\n      eq\n      tag_11\n      jumpi\n      dup1\n      0xa217fddf\n      eq\n      tag_12\n      jumpi\n      jump(tag_1)\n    tag_17:\n      dup1\n      0x2e1a7d4d\n      gt\n      tag_19\n      jumpi\n      dup1\n      0x2e1a7d4d\n      eq\n      tag_5\n      jumpi\n      dup1\n      0x2f2ff15d\n      eq\n      tag_6\n      jumpi\n      dup1\n      0x36568abe\n      eq\n      tag_7\n      jumpi\n      dup1\n      0x371fd8e6\n      eq\n      tag_8\n      jumpi\n      jump(tag_1)\n    tag_19:\n      dup1\n      0x01ffc9a7\n      eq\n      tag_2\n      jumpi\n      dup1\n      0x09e69ede\n      eq\n      tag_3\n      jumpi\n      dup1\n      0x248a9ca3\n      eq\n      tag_4\n      jumpi\n    tag_1:\n      0x00\n      dup1\n      revert\n        /* \"@openzeppelin/contracts/access/AccessControl.sol\":2606:2808  function supportsInterface(bytes4 interfaceId) public view virtual override returns (bool) {... */\n    tag_2:\n      callvalue\n      dup1\n      iszero\n      tag_20\n      jumpi\n      0x00\n      dup1\n      revert\n    tag_20:\n      pop\n      tag_21\n      0x04\n      dup1\n      calldatasize\n      sub\n      dup2\n      add\n      swap1\n      tag_22\n      swap2\n      swap1\n      tag_23\n      jump\t// in\n    tag_22:\n      tag_24\n      jump\t// in\n    tag_21:\n      mload(0x40)\n      tag_25\n      swap2\n      swap1\n      tag_26\n      jump\t// in\n    tag_25:\n      mload(0x40)\n      dup1\n      swap2\n      sub\n      swap1\n      return\n        /* \"FundDistributor.sol\":297:348  mapping(address => Participant) public participants */\n    tag_3:\n      callvalue\n      dup1\n      iszero\n      tag_27\n      jumpi\n      0x00\n      dup1\n      revert\n    tag_27:\n      pop\n      tag_28\n      0x04\n      dup1\n      calldatasize\n      sub\n      dup2\n      add\n      swap1\n      tag_29\n      swap2\n      swap1\n      tag_30\n      jump\t// in\n    tag_29:\n      tag_31\n      jump\t// in\n    tag_28:\n      mload(0x40)\n      tag_32\n      swap4\n      swap3\n      swap2\n      swap1\n      tag_33\n      jump\t// in\n    tag_32:\n      mload(0x40)\n      dup1\n      swap2\n      sub\n      swap1\n      return\n        /* \"@openzeppelin/contracts/access/AccessControl.sol\":4391:4520  function getRoleAdmin(bytes32 role) public view virtual override returns (bytes32) {... */\n    tag_4:\n      callvalue\n      dup1\n      iszero\n      tag_34\n      jumpi\n      0x00\n      dup1\n      revert\n    tag_34:\n      pop\n      tag_35\n      0x04\n      dup1\n      calldatasize\n      sub\n      dup2\n      add\n      swap1\n      tag_36\n      swap2\n      swap1\n      tag_37\n      jump\t// in\n    tag_36:\n      tag_38\n      jump\t// in\n    tag_35:\n      mload(0x40)\n      tag_39\n      swap2\n      swap1\n      tag_40\n      jump\t// in\n    tag_39:\n      mload(0x40)\n      dup1\n      swap2\n      sub\n      swap1\n      return\n        /* \"FundDistributor.sol\":1412:2152  function withdraw(uint256 amount) public {... */\n    tag_5:\n      callvalue\n      dup1\n      iszero\n      tag_41\n      jumpi\n      0x00\n      dup1\n      revert\n    tag_41:\n      pop\n      tag_42\n      0x04\n      dup1\n      calldatasize\n      sub\n      dup2\n      add\n      swap1\n      tag_43\n      swap2\n      swap1\n      tag_44\n      jump\t// in\n    tag_43:\n      tag_45\n      jump\t// in\n    tag_42:\n      stop\n        /* \"@openzeppelin/contracts/access/AccessControl.sol\":4816:4961  function grantRole(bytes32 role, address account) public virtual override onlyRole(getRoleAdmin(role)) {... */\n    tag_6:\n      callvalue\n      dup1\n      iszero\n      tag_46\n      jumpi\n      0x00\n      dup1\n      revert\n    tag_46:\n      pop\n      tag_47\n      0x04\n      dup1\n      calldatasize\n      sub\n      dup2\n      add\n      swap1\n      tag_48\n      swap2\n      swap1\n      tag_49\n      jump\t// in\n    tag_48:\n      tag_50\n      jump\t// in\n    tag_47:\n      stop\n        /* \"@openzeppelin/contracts/access/AccessControl.sol\":5925:6139  function renounceRole(bytes32 role, address account) public virtual override {... */\n    tag_7:\n      callvalue\n      dup1\n      iszero\n      tag_51\n      jumpi\n      0x00\n      dup1\n      revert\n    tag_51:\n      pop\n      tag_52\n      0x04\n      dup1\n      calldatasize\n      sub\n      dup2\n      add\n      swap1\n      tag_53\n      swap2\n      swap1\n      tag_49\n      jump\t// in\n    tag_53:\n      tag_54\n      jump\t// in\n    tag_52:\n      stop\n        /* \"FundDistributor.sol\":2158:2697  function repay(uint256 amount) public {... */\n    tag_8:\n      callvalue\n      dup1\n      iszero\n      tag_55\n      jumpi\n      0x00\n      dup1\n      revert\n    tag_55:\n      pop\n      tag_56\n      0x04\n      dup1\n      calldatasize\n      sub\n      dup2\n      add\n      swap1\n      tag_57\n      swap2\n      swap1\n      tag_44\n      jump\t// in\n    tag_57:\n      tag_58\n      jump\t// in\n    tag_56:\n      stop\n        /* \"@openzeppelin/contracts/access/AccessControl.sol\":2895:3040  function hasRole(bytes32 role, address account) public view virtual override returns (bool) {... */\n    tag_9:\n      callvalue\n      dup1\n      iszero\n      tag_59\n      jumpi\n      0x00\n      dup1\n      revert\n    tag_59:\n      pop\n      tag_60\n      0x04\n      dup1\n      calldatasize\n      sub\n      dup2\n      add\n      swap1\n      tag_61\n      swap2\n      swap1\n      tag_49\n      jump\t// in\n    tag_61:\n      tag_62\n      jump\t// in\n    tag_60:\n      mload(0x40)\n      tag_63\n      swap2\n      swap1\n      tag_26\n      jump\t// in\n    tag_63:\n      mload(0x40)\n      dup1\n      swap2\n      sub\n      swap1\n      return\n        /* \"FundDistributor.sol\":1247:1406  function amountAvialiable(address user) public view returns(uint256) {... */\n    tag_10:\n      callvalue\n      dup1\n      iszero\n      tag_64\n      jumpi\n      0x00\n      dup1\n      revert\n    tag_64:\n      pop\n      tag_65\n      0x04\n      dup1\n      calldatasize\n      sub\n      dup2\n      add\n      swap1\n      tag_66\n      swap2\n      swap1\n      tag_30\n      jump\t// in\n    tag_66:\n      tag_67\n      jump\t// in\n    tag_65:\n      mload(0x40)\n      tag_68\n      swap2\n      swap1\n      tag_69\n      jump\t// in\n    tag_68:\n      mload(0x40)\n      dup1\n      swap2\n      sub\n      swap1\n      return\n        /* \"FundDistributor.sol\":2703:3035  function withdrawToken(address _tokenContract, uint256 _amount) external {... */\n    tag_11:\n      callvalue\n      dup1\n      iszero\n      tag_70\n      jumpi\n      0x00\n      dup1\n      revert\n    tag_70:\n      pop\n      tag_71\n      0x04\n      dup1\n      calldatasize\n      sub\n      dup2\n      add\n      swap1\n      tag_72\n      swap2\n      swap1\n      tag_73\n      jump\t// in\n    tag_72:\n      tag_74\n      jump\t// in\n    tag_71:\n      stop\n        /* \"@openzeppelin/contracts/access/AccessControl.sol\":2027:2076  bytes32 public constant DEFAULT_ADMIN_ROLE = 0x00 */\n    tag_12:\n      callvalue\n      dup1\n      iszero\n      tag_75\n      jumpi\n      0x00\n      dup1\n      revert\n    tag_75:\n      pop\n      tag_76\n      tag_77\n      jump\t// in\n    tag_76:\n      mload(0x40)\n      tag_78\n      swap2\n      swap1\n      tag_40\n      jump\t// in\n    tag_78:\n      mload(0x40)\n      dup1\n      swap2\n      sub\n      swap1\n      return\n        /* \"FundDistributor.sol\":1117:1241  function hasParticipant(address user) public view returns(bool) {... */\n    tag_13:\n      callvalue\n      dup1\n      iszero\n      tag_79\n      jumpi\n      0x00\n      dup1\n      revert\n    tag_79:\n      pop\n      tag_80\n      0x04\n      dup1\n      calldatasize\n      sub\n      dup2\n      add\n      swap1\n      tag_81\n      swap2\n      swap1\n      tag_30\n      jump\t// in\n    tag_81:\n      tag_82\n      jump\t// in\n    tag_80:\n      mload(0x40)\n      tag_83\n      swap2\n      swap1\n      tag_26\n      jump\t// in\n    tag_83:\n      mload(0x40)\n      dup1\n      swap2\n      sub\n      swap1\n      return\n        /* \"@openzeppelin/contracts/access/AccessControl.sol\":5241:5388  function revokeRole(bytes32 role, address account) public virtual override onlyRole(getRoleAdmin(role)) {... */\n    tag_14:\n      callvalue\n      dup1\n      iszero\n      tag_84\n      jumpi\n      0x00\n      dup1\n      revert\n    tag_84:\n      pop\n      tag_85\n      0x04\n      dup1\n      calldatasize\n      sub\n      dup2\n      add\n      swap1\n      tag_86\n      swap2\n      swap1\n      tag_49\n      jump\t// in\n    tag_86:\n      tag_87\n      jump\t// in\n    tag_85:\n      stop\n        /* \"FundDistributor.sol\":650:1111  function addAdress(address user) external payable {... */\n    tag_15:\n      tag_88\n      0x04\n      dup1\n      calldatasize\n      sub\n      dup2\n      add\n      swap1\n      tag_89\n      swap2\n      swap1\n      tag_30\n      jump\t// in\n    tag_89:\n      tag_90\n      jump\t// in\n    tag_88:\n      stop\n        /* \"FundDistributor.sol\":230:250  address public token */\n    tag_16:\n      callvalue\n      dup1\n      iszero\n      tag_91\n      jumpi\n      0x00\n      dup1\n      revert\n    tag_91:\n      pop\n      tag_92\n      tag_93\n      jump\t// in\n    tag_92:\n      mload(0x40)\n      tag_94\n      swap2\n      swap1\n      tag_95\n      jump\t// in\n    tag_94:\n      mload(0x40)\n      dup1\n      swap2\n      sub\n      swap1\n      return\n        /* \"@openzeppelin/contracts/access/AccessControl.sol\":2606:2808  function supportsInterface(bytes4 interfaceId) public view virtual override returns (bool) {... */\n    tag_24:\n        /* \"@openzeppelin/contracts/access/AccessControl.sol\":2691:2695  bool */\n      0x00\n        /* \"@openzeppelin/contracts/access/AccessControl.sol\":2729:2761  type(IAccessControl).interfaceId */\n      0x7965db0b00000000000000000000000000000000000000000000000000000000\n        /* \"@openzeppelin/contracts/access/AccessControl.sol\":2714:2761  interfaceId == type(IAccessControl).interfaceId */\n      not(0xffffffffffffffffffffffffffffffffffffffffffffffffffffffff)\n      and\n        /* \"@openzeppelin/contracts/access/AccessControl.sol\":2714:2725  interfaceId */\n      dup3\n        /* \"@openzeppelin/contracts/access/AccessControl.sol\":2714:2761  interfaceId == type(IAccessControl).interfaceId */\n      not(0xffffffffffffffffffffffffffffffffffffffffffffffffffffffff)\n      and\n      eq\n        /* \"@openzeppelin/contracts/access/AccessControl.sol\":2714:2801  interfaceId == type(IAccessControl).interfaceId || super.supportsInterface(interfaceId) */\n      dup1\n      tag_97\n      jumpi\n      pop\n        /* \"@openzeppelin/contracts/access/AccessControl.sol\":2765:2801  super.supportsInterface(interfaceId) */\n      tag_98\n        /* \"@openzeppelin/contracts/access/AccessControl.sol\":2789:2800  interfaceId */\n      dup3\n        /* \"@openzeppelin/contracts/access/AccessControl.sol\":2765:2788  super.supportsInterface */\n      tag_99\n        /* \"@openzeppelin/contracts/access/AccessControl.sol\":2765:2801  super.supportsInterface(interfaceId) */\n      jump\t// in\n    tag_98:\n        /* \"@openzeppelin/contracts/access/AccessControl.sol\":2714:2801  interfaceId == type(IAccessControl).interfaceId || super.supportsInterface(interfaceId) */\n    tag_97:\n        /* \"@openzeppelin/contracts/access/AccessControl.sol\":2707:2801  return interfaceId == type(IAccessControl).interfaceId || super.supportsInterface(interfaceId) */\n      swap1\n      pop\n        /* \"@openzeppelin/contracts/access/AccessControl.sol\":2606:2808  function supportsInterface(bytes4 interfaceId) public view virtual override returns (bool) {... */\n      swap2\n      swap1\n      pop\n      jump\t// out\n        /* \"FundDistributor.sol\":297:348  mapping(address => Participant) public participants */\n    tag_31:\n      mstore(0x20, 0x03)\n      dup1\n      0x00\n      mstore\n      keccak256(0x00, 0x40)\n      0x00\n      swap2\n      pop\n      swap1\n      pop\n      dup1\n      0x00\n      add\n      sload\n      swap1\n      dup1\n      0x01\n      add\n      sload\n      swap1\n      dup1\n      0x02\n      add\n      sload\n      swap1\n      pop\n      dup4\n      jump\t// out\n        /* \"@openzeppelin/contracts/access/AccessControl.sol\":4391:4520  function getRoleAdmin(bytes32 role) public view virtual override returns (bytes32) {... */\n    tag_38:\n        /* \"@openzeppelin/contracts/access/AccessControl.sol\":4465:4472  bytes32 */\n      0x00\n        /* \"@openzeppelin/contracts/access/AccessControl.sol\":4491:4497  _roles */\n      dup1\n        /* \"@openzeppelin/contracts/access/AccessControl.sol\":4491:4503  _roles[role] */\n      0x00\n        /* \"@openzeppelin/contracts/access/AccessControl.sol\":4498:4502  role */\n      dup4\n        /* \"@openzeppelin/contracts/access/AccessControl.sol\":4491:4503  _roles[role] */\n      dup2\n      mstore\n      0x20\n      add\n      swap1\n      dup2\n      mstore\n      0x20\n      add\n      0x00\n      keccak256\n        /* \"@openzeppelin/contracts/access/AccessControl.sol\":4491:4513  _roles[role].adminRole */\n      0x01\n      add\n      sload\n        /* \"@openzeppelin/contracts/access/AccessControl.sol\":4484:4513  return _roles[role].adminRole */\n      swap1\n      pop\n        /* \"@openzeppelin/contracts/access/AccessControl.sol\":4391:4520  function getRoleAdmin(bytes32 role) public view virtual override returns (bytes32) {... */\n      swap2\n      swap1\n      pop\n      jump\t// out\n        /* \"FundDistributor.sol\":1412:2152  function withdraw(uint256 amount) public {... */\n    tag_45:\n        /* \"FundDistributor.sol\":1463:1478  uint256 balance */\n      0x00\n        /* \"FundDistributor.sol\":1487:1492  token */\n      0x01\n      0x00\n      swap1\n      sload\n      swap1\n      0x0100\n      exp\n      swap1\n      div\n      0xffffffffffffffffffffffffffffffffffffffff\n      and\n        /* \"FundDistributor.sol\":1481:1503  ERC20(token).balanceOf */\n      0xffffffffffffffffffffffffffffffffffffffff\n      and\n      0x70a08231\n        /* \"FundDistributor.sol\":1512:1516  this */\n      address\n        /* \"FundDistributor.sol\":1481:1518  ERC20(token).balanceOf(address(this)) */\n      mload(0x40)\n      dup3\n      0xffffffff\n      and\n      0xe0\n      shl\n      dup2\n      mstore\n      0x04\n      add\n      tag_102\n      swap2\n      swap1\n      tag_95\n      jump\t// in\n    tag_102:\n      0x20\n      mload(0x40)\n      dup1\n      dup4\n      sub\n      dup2\n      dup7\n      dup1\n      extcodesize\n      iszero\n      dup1\n      iszero\n      tag_103\n      jumpi\n      0x00\n      dup1\n      revert\n    tag_103:\n      pop\n      gas\n      staticcall\n      iszero\n      dup1\n      iszero\n      tag_105\n      jumpi\n      returndatasize\n      0x00\n      dup1\n      returndatacopy\n      revert(0x00, returndatasize)\n    tag_105:\n      pop\n      pop\n      pop\n      pop\n      mload(0x40)\n      returndatasize\n      not(0x1f)\n      0x1f\n      dup3\n      add\n      and\n      dup3\n      add\n      dup1\n      0x40\n      mstore\n      pop\n      dup2\n      add\n      swap1\n      tag_106\n      swap2\n      swap1\n      tag_107\n      jump\t// in\n    tag_106:\n        /* \"FundDistributor.sol\":1463:1518  uint256 balance = ERC20(token).balanceOf(address(this)) */\n      swap1\n      pop\n        /* \"FundDistributor.sol\":1546:1552  amount */\n      dup2\n        /* \"FundDistributor.sol\":1536:1543  balance */\n      dup2\n        /* \"FundDistributor.sol\":1536:1552  balance > amount */\n      gt\n        /* \"FundDistributor.sol\":1528:1585  require(balance > amount, \"not enough funds in contract\") */\n      tag_108\n      jumpi\n      mload(0x40)\n      0x08c379a000000000000000000000000000000000000000000000000000000000\n      dup2\n      mstore\n      0x04\n      add\n      tag_109\n      swap1\n      tag_110\n      jump\t// in\n    tag_109:\n      mload(0x40)\n      dup1\n      swap2\n      sub\n      swap1\n      revert\n    tag_108:\n        /* \"FundDistributor.sol\":1596:1619  Participant memory user */\n      0x00\n        /* \"FundDistributor.sol\":1622:1634  participants */\n      0x03\n        /* \"FundDistributor.sol\":1622:1646  participants[msg.sender] */\n      0x00\n        /* \"FundDistributor.sol\":1635:1645  msg.sender */\n      caller\n        /* \"FundDistributor.sol\":1622:1646  participants[msg.sender] */\n      0xffffffffffffffffffffffffffffffffffffffff\n      and\n      0xffffffffffffffffffffffffffffffffffffffff\n      and\n      dup2\n      mstore\n      0x20\n      add\n      swap1\n      dup2\n      mstore\n      0x20\n      add\n      0x00\n      keccak256\n        /* \"FundDistributor.sol\":1596:1646  Participant memory user = participants[msg.sender] */\n      mload(0x40)\n      dup1\n      0x60\n      add\n      0x40\n      mstore\n      swap1\n      dup2\n      0x00\n      dup3\n      add\n      sload\n      dup2\n      mstore\n      0x20\n      add\n      0x01\n      dup3\n      add\n      sload\n      dup2\n      mstore\n      0x20\n      add\n      0x02\n      dup3\n      add\n      sload\n      dup2\n      mstore\n      pop\n      pop\n      swap1\n      pop\n        /* \"FundDistributor.sol\":1696:1708  block.number */\n      number\n        /* \"FundDistributor.sol\":1664:1668  user */\n      dup2\n        /* \"FundDistributor.sol\":1664:1693  user.nextAllowedWithdrawBlock */\n      0x40\n      add\n      mload\n        /* \"FundDistributor.sol\":1664:1708  user.nextAllowedWithdrawBlock < block.number */\n      lt\n        /* \"FundDistributor.sol\":1656:1753  require(user.nextAllowedWithdrawBlock < block.number, \"caller is not eligible for next withdraw\") */\n      tag_111\n      jumpi\n      mload(0x40)\n      0x08c379a000000000000000000000000000000000000000000000000000000000\n      dup2\n      mstore\n      0x04\n      add\n      tag_112\n      swap1\n      tag_113\n      jump\t// in\n    tag_112:\n      mload(0x40)\n      dup1\n      swap2\n      sub\n      swap1\n      revert\n    tag_111:\n        /* \"FundDistributor.sol\":1791:1797  amount */\n      dup3\n        /* \"FundDistributor.sol\":1771:1775  user */\n      dup2\n        /* \"FundDistributor.sol\":1771:1788  user.currentLimit */\n      0x00\n      add\n      mload\n        /* \"FundDistributor.sol\":1771:1797  user.currentLimit > amount */\n      gt\n        /* \"FundDistributor.sol\":1763:1844  require(user.currentLimit > amount, \"caller is not eligible for withdraw amount\") */\n      tag_114\n      jumpi\n      mload(0x40)\n      0x08c379a000000000000000000000000000000000000000000000000000000000\n      dup2\n      mstore\n      0x04\n      add\n      tag_115\n      swap1\n      tag_116\n      jump\t// in\n    tag_115:\n      mload(0x40)\n      dup1\n      swap2\n      sub\n      swap1\n      revert\n    tag_114:\n        /* \"FundDistributor.sol\":1903:1909  amount */\n      dup3\n        /* \"FundDistributor.sol\":1883:1887  user */\n      dup2\n        /* \"FundDistributor.sol\":1883:1900  user.currentLimit */\n      0x00\n      add\n      mload\n        /* \"FundDistributor.sol\":1883:1909  user.currentLimit - amount */\n      tag_117\n      swap2\n      swap1\n      tag_118\n      jump\t// in\n    tag_117:\n        /* \"FundDistributor.sol\":1862:1866  user */\n      dup2\n        /* \"FundDistributor.sol\":1862:1880  user.currentlyOwed */\n      0x20\n      add\n      mload\n        /* \"FundDistributor.sol\":1862:1909  user.currentlyOwed < user.currentLimit - amount */\n      lt\n        /* \"FundDistributor.sol\":1854:1956  require(user.currentlyOwed < user.currentLimit - amount, \"caller is not eligible for withdraw amount\") */\n      tag_119\n      jumpi\n      mload(0x40)\n      0x08c379a000000000000000000000000000000000000000000000000000000000\n      dup2\n      mstore\n      0x04\n      add\n      tag_120\n      swap1\n      tag_116\n      jump\t// in\n    tag_120:\n      mload(0x40)\n      dup1\n      swap2\n      sub\n      swap1\n      revert\n    tag_119:\n        /* \"FundDistributor.sol\":1980:1985  token */\n      0x01\n      0x00\n      swap1\n      sload\n      swap1\n      0x0100\n      exp\n      swap1\n      div\n      0xffffffffffffffffffffffffffffffffffffffff\n      and\n        /* \"FundDistributor.sol\":1974:1995  ERC20(token).transfer */\n      0xffffffffffffffffffffffffffffffffffffffff\n      and\n      0xa9059cbb\n        /* \"FundDistributor.sol\":1996:2006  msg.sender */\n      caller\n        /* \"FundDistributor.sol\":2008:2014  amount */\n      dup6\n        /* \"FundDistributor.sol\":1974:2015  ERC20(token).transfer(msg.sender, amount) */\n      mload(0x40)\n      dup4\n      0xffffffff\n      and\n      0xe0\n      shl\n      dup2\n      mstore\n      0x04\n      add\n      tag_121\n      swap3\n      swap2\n      swap1\n      tag_122\n      jump\t// in\n    tag_121:\n      0x20\n      mload(0x40)\n      dup1\n      dup4\n      sub\n      dup2\n      0x00\n      dup8\n      dup1\n      extcodesize\n      iszero\n      dup1\n      iszero\n      tag_123\n      jumpi\n      0x00\n      dup1\n      revert\n    tag_123:\n      pop\n      gas\n      call\n      iszero\n      dup1\n      iszero\n      tag_125\n      jumpi\n      returndatasize\n      0x00\n      dup1\n      returndatacopy\n      revert(0x00, returndatasize)\n    tag_125:\n      pop\n      pop\n      pop\n      pop\n      mload(0x40)\n      returndatasize\n      not(0x1f)\n      0x1f\n      dup3\n      add\n      and\n      dup3\n      add\n      dup1\n      0x40\n      mstore\n      pop\n      dup2\n      add\n      swap1\n      tag_126\n      swap2\n      swap1\n      tag_127\n      jump\t// in\n    tag_126:\n        /* \"FundDistributor.sol\":1966:2035  require(ERC20(token).transfer(msg.sender, amount), \"withdraw failed\") */\n      tag_128\n      jumpi\n      mload(0x40)\n      0x08c379a000000000000000000000000000000000000000000000000000000000\n      dup2\n      mstore\n      0x04\n      add\n      tag_129\n      swap1\n      tag_130\n      jump\t// in\n    tag_129:\n      mload(0x40)\n      dup1\n      swap2\n      sub\n      swap1\n      revert\n    tag_128:\n        /* \"FundDistributor.sol\":2076:2082  amount */\n      dup3\n        /* \"FundDistributor.sol\":2054:2058  user */\n      dup2\n        /* \"FundDistributor.sol\":2054:2072  user.currentlyOwed */\n      0x20\n      add\n        /* \"FundDistributor.sol\":2054:2082  user.currentlyOwed += amount */\n      dup2\n      dup2\n      mload\n      tag_131\n      swap2\n      swap1\n      tag_132\n      jump\t// in\n    tag_131:\n      swap2\n      pop\n      dup2\n      dup2\n      mstore\n      pop\n      pop\n        /* \"FundDistributor.sol\":2140:2145  67280 */\n      0x0106d0\n        /* \"FundDistributor.sol\":2125:2137  block.number */\n      number\n        /* \"FundDistributor.sol\":2125:2145  block.number + 67280 */\n      tag_133\n      swap2\n      swap1\n      tag_132\n      jump\t// in\n    tag_133:\n        /* \"FundDistributor.sol\":2092:2096  user */\n      dup2\n        /* \"FundDistributor.sol\":2092:2121  user.nextAllowedWithdrawBlock */\n      0x40\n      add\n        /* \"FundDistributor.sol\":2092:2145  user.nextAllowedWithdrawBlock += block.number + 67280 */\n      dup2\n      dup2\n      mload\n      tag_134\n      swap2\n      swap1\n      tag_132\n      jump\t// in\n    tag_134:\n      swap2\n      pop\n      dup2\n      dup2\n      mstore\n      pop\n      pop\n        /* \"FundDistributor.sol\":1453:2152  {... */\n      pop\n      pop\n        /* \"FundDistributor.sol\":1412:2152  function withdraw(uint256 amount) public {... */\n      pop\n      jump\t// out\n        /* \"@openzeppelin/contracts/access/AccessControl.sol\":4816:4961  function grantRole(bytes32 role, address account) public virtual override onlyRole(getRoleAdmin(role)) {... */\n    tag_50:\n        /* \"@openzeppelin/contracts/access/AccessControl.sol\":4899:4917  getRoleAdmin(role) */\n      tag_135\n        /* \"@openzeppelin/contracts/access/AccessControl.sol\":4912:4916  role */\n      dup3\n        /* \"@openzeppelin/contracts/access/AccessControl.sol\":4899:4911  getRoleAdmin */\n      tag_38\n        /* \"@openzeppelin/contracts/access/AccessControl.sol\":4899:4917  getRoleAdmin(role) */\n      jump\t// in\n    tag_135:\n        /* \"@openzeppelin/contracts/access/AccessControl.sol\":2505:2521  _checkRole(role) */\n      tag_137\n        /* \"@openzeppelin/contracts/access/AccessControl.sol\":2516:2520  role */\n      dup2\n        /* \"@openzeppelin/contracts/access/AccessControl.sol\":2505:2515  _checkRole */\n      tag_138\n        /* \"@openzeppelin/contracts/access/AccessControl.sol\":2505:2521  _checkRole(role) */\n      jump\t// in\n    tag_137:\n        /* \"@openzeppelin/contracts/access/AccessControl.sol\":4929:4954  _grantRole(role, account) */\n      tag_140\n        /* \"@openzeppelin/contracts/access/AccessControl.sol\":4940:4944  role */\n      dup4\n        /* \"@openzeppelin/contracts/access/AccessControl.sol\":4946:4953  account */\n      dup4\n        /* \"@openzeppelin/contracts/access/AccessControl.sol\":4929:4939  _grantRole */\n      tag_141\n        /* \"@openzeppelin/contracts/access/AccessControl.sol\":4929:4954  _grantRole(role, account) */\n      jump\t// in\n    tag_140:\n        /* \"@openzeppelin/contracts/access/AccessControl.sol\":4816:4961  function grantRole(bytes32 role, address account) public virtual override onlyRole(getRoleAdmin(role)) {... */\n      pop\n      pop\n      pop\n      jump\t// out\n        /* \"@openzeppelin/contracts/access/AccessControl.sol\":5925:6139  function renounceRole(bytes32 role, address account) public virtual override {... */\n    tag_54:\n        /* \"@openzeppelin/contracts/access/AccessControl.sol\":6031:6043  _msgSender() */\n      tag_143\n        /* \"@openzeppelin/contracts/access/AccessControl.sol\":6031:6041  _msgSender */\n      tag_144\n        /* \"@openzeppelin/contracts/access/AccessControl.sol\":6031:6043  _msgSender() */\n      jump\t// in\n    tag_143:\n        /* \"@openzeppelin/contracts/access/AccessControl.sol\":6020:6043  account == _msgSender() */\n      0xffffffffffffffffffffffffffffffffffffffff\n      and\n        /* \"@openzeppelin/contracts/access/AccessControl.sol\":6020:6027  account */\n      dup2\n        /* \"@openzeppelin/contracts/access/AccessControl.sol\":6020:6043  account == _msgSender() */\n      0xffffffffffffffffffffffffffffffffffffffff\n      and\n      eq\n        /* \"@openzeppelin/contracts/access/AccessControl.sol\":6012:6095  require(account == _msgSender(), \"AccessControl: can only renounce roles for self\") */\n      tag_145\n      jumpi\n      mload(0x40)\n      0x08c379a000000000000000000000000000000000000000000000000000000000\n      dup2\n      mstore\n      0x04\n      add\n      tag_146\n      swap1\n      tag_147\n      jump\t// in\n    tag_146:\n      mload(0x40)\n      dup1\n      swap2\n      sub\n      swap1\n      revert\n    tag_145:\n        /* \"@openzeppelin/contracts/access/AccessControl.sol\":6106:6132  _revokeRole(role, account) */\n      tag_148\n        /* \"@openzeppelin/contracts/access/AccessControl.sol\":6118:6122  role */\n      dup3\n        /* \"@openzeppelin/contracts/access/AccessControl.sol\":6124:6131  account */\n      dup3\n        /* \"@openzeppelin/contracts/access/AccessControl.sol\":6106:6117  _revokeRole */\n      tag_149\n        /* \"@openzeppelin/contracts/access/AccessControl.sol\":6106:6132  _revokeRole(role, account) */\n      jump\t// in\n    tag_148:\n        /* \"@openzeppelin/contracts/access/AccessControl.sol\":5925:6139  function renounceRole(bytes32 role, address account) public virtual override {... */\n      pop\n      pop\n      jump\t// out\n        /* \"FundDistributor.sol\":2158:2697  function repay(uint256 amount) public {... */\n    tag_58:\n        /* \"FundDistributor.sol\":2206:2218  uint256 owed */\n      0x00\n        /* \"FundDistributor.sol\":2221:2233  participants */\n      0x03\n        /* \"FundDistributor.sol\":2221:2245  participants[msg.sender] */\n      0x00\n        /* \"FundDistributor.sol\":2234:2244  msg.sender */\n      caller\n        /* \"FundDistributor.sol\":2221:2245  participants[msg.sender] */\n      0xffffffffffffffffffffffffffffffffffffffff\n      and\n      0xffffffffffffffffffffffffffffffffffffffff\n      and\n      dup2\n      mstore\n      0x20\n      add\n      swap1\n      dup2\n      mstore\n      0x20\n      add\n      0x00\n      keccak256\n        /* \"FundDistributor.sol\":2221:2259  participants[msg.sender].currentlyOwed */\n      0x01\n      add\n      sload\n        /* \"FundDistributor.sol\":2206:2259  uint256 owed = participants[msg.sender].currentlyOwed */\n      swap1\n      pop\n        /* \"FundDistributor.sol\":2283:2288  token */\n      0x01\n      0x00\n      swap1\n      sload\n      swap1\n      0x0100\n      exp\n      swap1\n      div\n      0xffffffffffffffffffffffffffffffffffffffff\n      and\n        /* \"FundDistributor.sol\":2277:2302  ERC20(token).transferFrom */\n      0xffffffffffffffffffffffffffffffffffffffff\n      and\n      0x23b872dd\n        /* \"FundDistributor.sol\":2303:2313  msg.sender */\n      caller\n        /* \"FundDistributor.sol\":2323:2327  this */\n      address\n        /* \"FundDistributor.sol\":2330:2334  owed */\n      dup5\n        /* \"FundDistributor.sol\":2277:2335  ERC20(token).transferFrom(msg.sender, address(this), owed) */\n      mload(0x40)\n      dup5\n      0xffffffff\n      and\n      0xe0\n      shl\n      dup2\n      mstore\n      0x04\n      add\n      tag_151\n      swap4\n      swap3\n      swap2\n      swap1\n      tag_152\n      jump\t// in\n    tag_151:\n      0x20\n      mload(0x40)\n      dup1\n      dup4\n      sub\n      dup2\n      0x00\n      dup8\n      dup1\n      extcodesize\n      iszero\n      dup1\n      iszero\n      tag_153\n      jumpi\n      0x00\n      dup1\n      revert\n    tag_153:\n      pop\n      gas\n      call\n      iszero\n      dup1\n      iszero\n      tag_155\n      jumpi\n      returndatasize\n      0x00\n      dup1\n      returndatacopy\n      revert(0x00, returndatasize)\n    tag_155:\n      pop\n      pop\n      pop\n      pop\n      mload(0x40)\n      returndatasize\n      not(0x1f)\n      0x1f\n      dup3\n      add\n      and\n      dup3\n      add\n      dup1\n      0x40\n      mstore\n      pop\n      dup2\n      add\n      swap1\n      tag_156\n      swap2\n      swap1\n      tag_127\n      jump\t// in\n    tag_156:\n        /* \"FundDistributor.sol\":2269:2352  require(ERC20(token).transferFrom(msg.sender, address(this), owed), \"failed repay\") */\n      tag_157\n      jumpi\n      mload(0x40)\n      0x08c379a000000000000000000000000000000000000000000000000000000000\n      dup2\n      mstore\n      0x04\n      add\n      tag_158\n      swap1\n      tag_159\n      jump\t// in\n    tag_158:\n      mload(0x40)\n      dup1\n      swap2\n      sub\n      swap1\n      revert\n    tag_157:\n        /* \"FundDistributor.sol\":2405:2411  amount */\n      dup2\n        /* \"FundDistributor.sol\":2363:2375  participants */\n      0x03\n        /* \"FundDistributor.sol\":2363:2387  participants[msg.sender] */\n      0x00\n        /* \"FundDistributor.sol\":2376:2386  msg.sender */\n      caller\n        /* \"FundDistributor.sol\":2363:2387  participants[msg.sender] */\n      0xffffffffffffffffffffffffffffffffffffffff\n      and\n      0xffffffffffffffffffffffffffffffffffffffff\n      and\n      dup2\n      mstore\n      0x20\n      add\n      swap1\n      dup2\n      mstore\n      0x20\n      add\n      0x00\n      keccak256\n        /* \"FundDistributor.sol\":2363:2401  participants[msg.sender].currentlyOwed */\n      0x01\n      add\n      0x00\n        /* \"FundDistributor.sol\":2363:2411  participants[msg.sender].currentlyOwed -= amount */\n      dup3\n      dup3\n      sload\n      tag_160\n      swap2\n      swap1\n      tag_118\n      jump\t// in\n    tag_160:\n      swap3\n      pop\n      pop\n      dup2\n      swap1\n      sstore\n      pop\n        /* \"FundDistributor.sol\":2435:2439  owed */\n      dup1\n        /* \"FundDistributor.sol\":2426:2432  amount */\n      dup3\n        /* \"FundDistributor.sol\":2426:2439  amount < owed */\n      lt\n        /* \"FundDistributor.sol\":2422:2472  if (amount < owed) {... */\n      iszero\n      tag_161\n      jumpi\n        /* \"FundDistributor.sol\":2455:2462  return; */\n      pop\n      jump(tag_150)\n        /* \"FundDistributor.sol\":2422:2472  if (amount < owed) {... */\n    tag_161:\n        /* \"FundDistributor.sol\":2482:2498  uint256 newLimit */\n      0x00\n        /* \"FundDistributor.sol\":2547:2550  100 */\n      0x64\n        /* \"FundDistributor.sol\":2541:2544  105 */\n      0x69\n        /* \"FundDistributor.sol\":2501:2513  participants */\n      0x03\n        /* \"FundDistributor.sol\":2501:2525  participants[msg.sender] */\n      0x00\n        /* \"FundDistributor.sol\":2514:2524  msg.sender */\n      caller\n        /* \"FundDistributor.sol\":2501:2525  participants[msg.sender] */\n      0xffffffffffffffffffffffffffffffffffffffff\n      and\n      0xffffffffffffffffffffffffffffffffffffffff\n      and\n      dup2\n      mstore\n      0x20\n      add\n      swap1\n      dup2\n      mstore\n      0x20\n      add\n      0x00\n      keccak256\n        /* \"FundDistributor.sol\":2501:2538  participants[msg.sender].currentLimit */\n      0x00\n      add\n      sload\n        /* \"FundDistributor.sol\":2501:2544  participants[msg.sender].currentLimit * 105 */\n      tag_162\n      swap2\n      swap1\n      tag_163\n      jump\t// in\n    tag_162:\n        /* \"FundDistributor.sol\":2501:2550  participants[msg.sender].currentLimit * 105 / 100 */\n      tag_164\n      swap2\n      swap1\n      tag_165\n      jump\t// in\n    tag_164:\n        /* \"FundDistributor.sol\":2482:2550  uint256 newLimit = participants[msg.sender].currentLimit * 105 / 100 */\n      swap1\n      pop\n        /* \"FundDistributor.sol\":2577:2585  maxLimit */\n      sload(0x02)\n        /* \"FundDistributor.sol\":2566:2574  newLimit */\n      dup2\n        /* \"FundDistributor.sol\":2566:2585  newLimit > maxLimit */\n      gt\n        /* \"FundDistributor.sol\":2561:2632  if ( newLimit > maxLimit ) {... */\n      iszero\n      tag_166\n      jumpi\n        /* \"FundDistributor.sol\":2613:2621  maxLimit */\n      sload(0x02)\n        /* \"FundDistributor.sol\":2602:2621  newLimit = maxLimit */\n      swap1\n      pop\n        /* \"FundDistributor.sol\":2561:2632  if ( newLimit > maxLimit ) {... */\n    tag_166:\n        /* \"FundDistributor.sol\":2682:2690  newLimit */\n      dup1\n        /* \"FundDistributor.sol\":2642:2654  participants */\n      0x03\n        /* \"FundDistributor.sol\":2642:2666  participants[msg.sender] */\n      0x00\n        /* \"FundDistributor.sol\":2655:2665  msg.sender */\n      caller\n        /* \"FundDistributor.sol\":2642:2666  participants[msg.sender] */\n      0xffffffffffffffffffffffffffffffffffffffff\n      and\n      0xffffffffffffffffffffffffffffffffffffffff\n      and\n      dup2\n      mstore\n      0x20\n      add\n      swap1\n      dup2\n      mstore\n      0x20\n      add\n      0x00\n      keccak256\n        /* \"FundDistributor.sol\":2642:2679  participants[msg.sender].currentLimit */\n      0x00\n      add\n        /* \"FundDistributor.sol\":2642:2690  participants[msg.sender].currentLimit = newLimit */\n      dup2\n      swap1\n      sstore\n      pop\n        /* \"FundDistributor.sol\":2196:2697  {... */\n      pop\n      pop\n        /* \"FundDistributor.sol\":2158:2697  function repay(uint256 amount) public {... */\n    tag_150:\n      pop\n      jump\t// out\n        /* \"@openzeppelin/contracts/access/AccessControl.sol\":2895:3040  function hasRole(bytes32 role, address account) public view virtual override returns (bool) {... */\n    tag_62:\n        /* \"@openzeppelin/contracts/access/AccessControl.sol\":2981:2985  bool */\n      0x00\n        /* \"@openzeppelin/contracts/access/AccessControl.sol\":3004:3010  _roles */\n      dup1\n        /* \"@openzeppelin/contracts/access/AccessControl.sol\":3004:3016  _roles[role] */\n      0x00\n        /* \"@openzeppelin/contracts/access/AccessControl.sol\":3011:3015  role */\n      dup5\n        /* \"@openzeppelin/contracts/access/AccessControl.sol\":3004:3016  _roles[role] */\n      dup2\n      mstore\n      0x20\n      add\n      swap1\n      dup2\n      mstore\n      0x20\n      add\n      0x00\n      keccak256\n        /* \"@openzeppelin/contracts/access/AccessControl.sol\":3004:3024  _roles[role].members */\n      0x00\n      add\n        /* \"@openzeppelin/contracts/access/AccessControl.sol\":3004:3033  _roles[role].members[account] */\n      0x00\n        /* \"@openzeppelin/contracts/access/AccessControl.sol\":3025:3032  account */\n      dup4\n        /* \"@openzeppelin/contracts/access/AccessControl.sol\":3004:3033  _roles[role].members[account] */\n      0xffffffffffffffffffffffffffffffffffffffff\n      and\n      0xffffffffffffffffffffffffffffffffffffffff\n      and\n      dup2\n      mstore\n      0x20\n      add\n      swap1\n      dup2\n      mstore\n      0x20\n      add\n      0x00\n      keccak256\n      0x00\n      swap1\n      sload\n      swap1\n      0x0100\n      exp\n      swap1\n      div\n      0xff\n      and\n        /* \"@openzeppelin/contracts/access/AccessControl.sol\":2997:3033  return _roles[role].members[account] */\n      swap1\n      pop\n        /* \"@openzeppelin/contracts/access/AccessControl.sol\":2895:3040  function hasRole(bytes32 role, address account) public view virtual override returns (bool) {... */\n      swap3\n      swap2\n      pop\n      pop\n      jump\t// out\n        /* \"FundDistributor.sol\":1247:1406  function amountAvialiable(address user) public view returns(uint256) {... */\n    tag_67:\n        /* \"FundDistributor.sol\":1307:1314  uint256 */\n      0x00\n        /* \"FundDistributor.sol\":1367:1379  participants */\n      0x03\n        /* \"FundDistributor.sol\":1367:1385  participants[user] */\n      0x00\n        /* \"FundDistributor.sol\":1380:1384  user */\n      dup4\n        /* \"FundDistributor.sol\":1367:1385  participants[user] */\n      0xffffffffffffffffffffffffffffffffffffffff\n      and\n      0xffffffffffffffffffffffffffffffffffffffff\n      and\n      dup2\n      mstore\n      0x20\n      add\n      swap1\n      dup2\n      mstore\n      0x20\n      add\n      0x00\n      keccak256\n        /* \"FundDistributor.sol\":1367:1399  participants[user].currentlyOwed */\n      0x01\n      add\n      sload\n        /* \"FundDistributor.sol\":1333:1345  participants */\n      0x03\n        /* \"FundDistributor.sol\":1333:1351  participants[user] */\n      0x00\n        /* \"FundDistributor.sol\":1346:1350  user */\n      dup5\n        /* \"FundDistributor.sol\":1333:1351  participants[user] */\n      0xffffffffffffffffffffffffffffffffffffffff\n      and\n      0xffffffffffffffffffffffffffffffffffffffff\n      and\n      dup2\n      mstore\n      0x20\n      add\n      swap1\n      dup2\n      mstore\n      0x20\n      add\n      0x00\n      keccak256\n        /* \"FundDistributor.sol\":1333:1364  participants[user].currentLimit */\n      0x00\n      add\n      sload\n        /* \"FundDistributor.sol\":1333:1399  participants[user].currentLimit - participants[user].currentlyOwed */\n      tag_169\n      swap2\n      swap1\n      tag_118\n      jump\t// in\n    tag_169:\n        /* \"FundDistributor.sol\":1326:1399  return participants[user].currentLimit - participants[user].currentlyOwed */\n      swap1\n      pop\n        /* \"FundDistributor.sol\":1247:1406  function amountAvialiable(address user) public view returns(uint256) {... */\n      swap2\n      swap1\n      pop\n      jump\t// out\n        /* \"FundDistributor.sol\":2703:3035  function withdrawToken(address _tokenContract, uint256 _amount) external {... */\n    tag_74:\n        /* \"FundDistributor.sol\":2786:2806  IERC20 tokenContract */\n      0x00\n        /* \"FundDistributor.sol\":2816:2830  _tokenContract */\n      dup3\n        /* \"FundDistributor.sol\":2786:2831  IERC20 tokenContract = IERC20(_tokenContract) */\n      swap1\n      pop\n        /* \"FundDistributor.sol\":2985:2998  tokenContract */\n      dup1\n        /* \"FundDistributor.sol\":2985:3007  tokenContract.transfer */\n      0xffffffffffffffffffffffffffffffffffffffff\n      and\n      0xa9059cbb\n        /* \"FundDistributor.sol\":3008:3018  msg.sender */\n      caller\n        /* \"FundDistributor.sol\":3020:3027  _amount */\n      dup5\n        /* \"FundDistributor.sol\":2985:3028  tokenContract.transfer(msg.sender, _amount) */\n      mload(0x40)\n      dup4\n      0xffffffff\n      and\n      0xe0\n      shl\n      dup2\n      mstore\n      0x04\n      add\n      tag_171\n      swap3\n      swap2\n      swap1\n      tag_122\n      jump\t// in\n    tag_171:\n      0x20\n      mload(0x40)\n      dup1\n      dup4\n      sub\n      dup2\n      0x00\n      dup8\n      dup1\n      extcodesize\n      iszero\n      dup1\n      iszero\n      tag_172\n      jumpi\n      0x00\n      dup1\n      revert\n    tag_172:\n      pop\n      gas\n      call\n      iszero\n      dup1\n      iszero\n      tag_174\n      jumpi\n      returndatasize\n      0x00\n      dup1\n      returndatacopy\n      revert(0x00, returndatasize)\n    tag_174:\n      pop\n      pop\n      pop\n      pop\n      mload(0x40)\n      returndatasize\n      not(0x1f)\n      0x1f\n      dup3\n      add\n      and\n      dup3\n      add\n      dup1\n      0x40\n      mstore\n      pop\n      dup2\n      add\n      swap1\n      tag_175\n      swap2\n      swap1\n      tag_127\n      jump\t// in\n    tag_175:\n      pop\n        /* \"FundDistributor.sol\":2776:3035  {... */\n      pop\n        /* \"FundDistributor.sol\":2703:3035  function withdrawToken(address _tokenContract, uint256 _amount) external {... */\n      pop\n      pop\n      jump\t// out\n        /* \"@openzeppelin/contracts/access/AccessControl.sol\":2027:2076  bytes32 public constant DEFAULT_ADMIN_ROLE = 0x00 */\n    tag_77:\n        /* \"@openzeppelin/contracts/access/AccessControl.sol\":2072:2076  0x00 */\n      0x00\n        /* \"@openzeppelin/contracts/access/AccessControl.sol\":2027:2076  bytes32 public constant DEFAULT_ADMIN_ROLE = 0x00 */\n      dup1\n      shl\n      dup2\n      jump\t// out\n        /* \"FundDistributor.sol\":1117:1241  function hasParticipant(address user) public view returns(bool) {... */\n    tag_82:\n        /* \"FundDistributor.sol\":1175:1179  bool */\n      0x00\n        /* \"FundDistributor.sol\":1233:1234  0 */\n      dup1\n        /* \"FundDistributor.sol\":1198:1210  participants */\n      0x03\n        /* \"FundDistributor.sol\":1198:1216  participants[user] */\n      0x00\n        /* \"FundDistributor.sol\":1211:1215  user */\n      dup5\n        /* \"FundDistributor.sol\":1198:1216  participants[user] */\n      0xffffffffffffffffffffffffffffffffffffffff\n      and\n      0xffffffffffffffffffffffffffffffffffffffff\n      and\n      dup2\n      mstore\n      0x20\n      add\n      swap1\n      dup2\n      mstore\n      0x20\n      add\n      0x00\n      keccak256\n        /* \"FundDistributor.sol\":1198:1229  participants[user].currentLimit */\n      0x00\n      add\n      sload\n        /* \"FundDistributor.sol\":1198:1234  participants[user].currentLimit != 0 */\n      eq\n      iszero\n        /* \"FundDistributor.sol\":1191:1234  return participants[user].currentLimit != 0 */\n      swap1\n      pop\n        /* \"FundDistributor.sol\":1117:1241  function hasParticipant(address user) public view returns(bool) {... */\n      swap2\n      swap1\n      pop\n      jump\t// out\n        /* \"@openzeppelin/contracts/access/AccessControl.sol\":5241:5388  function revokeRole(bytes32 role, address account) public virtual override onlyRole(getRoleAdmin(role)) {... */\n    tag_87:\n        /* \"@openzeppelin/contracts/access/AccessControl.sol\":5325:5343  getRoleAdmin(role) */\n      tag_177\n        /* \"@openzeppelin/contracts/access/AccessControl.sol\":5338:5342  role */\n      dup3\n        /* \"@openzeppelin/contracts/access/AccessControl.sol\":5325:5337  getRoleAdmin */\n      tag_38\n        /* \"@openzeppelin/contracts/access/AccessControl.sol\":5325:5343  getRoleAdmin(role) */\n      jump\t// in\n    tag_177:\n        /* \"@openzeppelin/contracts/access/AccessControl.sol\":2505:2521  _checkRole(role) */\n      tag_179\n        /* \"@openzeppelin/contracts/access/AccessControl.sol\":2516:2520  role */\n      dup2\n        /* \"@openzeppelin/contracts/access/AccessControl.sol\":2505:2515  _checkRole */\n      tag_138\n        /* \"@openzeppelin/contracts/access/AccessControl.sol\":2505:2521  _checkRole(role) */\n      jump\t// in\n    tag_179:\n        /* \"@openzeppelin/contracts/access/AccessControl.sol\":5355:5381  _revokeRole(role, account) */\n      tag_181\n        /* \"@openzeppelin/contracts/access/AccessControl.sol\":5367:5371  role */\n      dup4\n        /* \"@openzeppelin/contracts/access/AccessControl.sol\":5373:5380  account */\n      dup4\n        /* \"@openzeppelin/contracts/access/AccessControl.sol\":5355:5366  _revokeRole */\n      tag_149\n        /* \"@openzeppelin/contracts/access/AccessControl.sol\":5355:5381  _revokeRole(role, account) */\n      jump\t// in\n    tag_181:\n        /* \"@openzeppelin/contracts/access/AccessControl.sol\":5241:5388  function revokeRole(bytes32 role, address account) public virtual override onlyRole(getRoleAdmin(role)) {... */\n      pop\n      pop\n      pop\n      jump\t// out\n        /* \"FundDistributor.sol\":650:1111  function addAdress(address user) external payable {... */\n    tag_90:\n        /* \"FundDistributor.sol\":718:757  hasRole(DEFAULT_ADMIN_ROLE, msg.sender) */\n      tag_183\n        /* \"@openzeppelin/contracts/access/AccessControl.sol\":2072:2076  0x00 */\n      0x00\n        /* \"FundDistributor.sol\":726:744  DEFAULT_ADMIN_ROLE */\n      dup1\n      shl\n        /* \"FundDistributor.sol\":746:756  msg.sender */\n      caller\n        /* \"FundDistributor.sol\":718:725  hasRole */\n      tag_62\n        /* \"FundDistributor.sol\":718:757  hasRole(DEFAULT_ADMIN_ROLE, msg.sender) */\n      jump\t// in\n    tag_183:\n        /* \"FundDistributor.sol\":710:789  require(hasRole(DEFAULT_ADMIN_ROLE, msg.sender), \"caller is not administrator\") */\n      tag_184\n      jumpi\n      mload(0x40)\n      0x08c379a000000000000000000000000000000000000000000000000000000000\n      dup2\n      mstore\n      0x04\n      add\n      tag_185\n      swap1\n      tag_186\n      jump\t// in\n    tag_185:\n      mload(0x40)\n      dup1\n      swap2\n      sub\n      swap1\n      revert\n    tag_184:\n        /* \"FundDistributor.sol\":821:962  Participant({... */\n      mload(0x40)\n      dup1\n      0x60\n      add\n      0x40\n      mstore\n      dup1\n        /* \"FundDistributor.sol\":943:951  maxLimit */\n      sload(0x02)\n        /* \"FundDistributor.sol\":821:962  Participant({... */\n      dup2\n      mstore\n      0x20\n      add\n        /* \"FundDistributor.sol\":914:915  0 */\n      0x00\n        /* \"FundDistributor.sol\":821:962  Participant({... */\n      dup2\n      mstore\n      0x20\n      add\n        /* \"FundDistributor.sol\":873:885  block.number */\n      number\n        /* \"FundDistributor.sol\":821:962  Participant({... */\n      dup2\n      mstore\n      pop\n        /* \"FundDistributor.sol\":800:812  participants */\n      0x03\n        /* \"FundDistributor.sol\":800:818  participants[user] */\n      0x00\n        /* \"FundDistributor.sol\":813:817  user */\n      dup4\n        /* \"FundDistributor.sol\":800:818  participants[user] */\n      0xffffffffffffffffffffffffffffffffffffffff\n      and\n      0xffffffffffffffffffffffffffffffffffffffff\n      and\n      dup2\n      mstore\n      0x20\n      add\n      swap1\n      dup2\n      mstore\n      0x20\n      add\n      0x00\n      keccak256\n        /* \"FundDistributor.sol\":800:962  participants[user] = Participant({... */\n      0x00\n      dup3\n      add\n      mload\n      dup2\n      0x00\n      add\n      sstore\n      0x20\n      dup3\n      add\n      mload\n      dup2\n      0x01\n      add\n      sstore\n      0x40\n      dup3\n      add\n      mload\n      dup2\n      0x02\n      add\n      sstore\n      swap1\n      pop\n      pop\n        /* \"FundDistributor.sol\":974:983  bool sent */\n      0x00\n        /* \"FundDistributor.sol\":988:992  user */\n      dup2\n        /* \"FundDistributor.sol\":988:997  user.call */\n      0xffffffffffffffffffffffffffffffffffffffff\n      and\n        /* \"FundDistributor.sol\":1005:1014  msg.value */\n      callvalue\n        /* \"FundDistributor.sol\":988:1019  user.call{value: msg.value}(\"\") */\n      mload(0x40)\n      tag_187\n      swap1\n      tag_188\n      jump\t// in\n    tag_187:\n      0x00\n      mload(0x40)\n      dup1\n      dup4\n      sub\n      dup2\n      dup6\n      dup8\n      gas\n      call\n      swap3\n      pop\n      pop\n      pop\n      returndatasize\n      dup1\n      0x00\n      dup2\n      eq\n      tag_191\n      jumpi\n      mload(0x40)\n      swap2\n      pop\n      and(add(returndatasize, 0x3f), not(0x1f))\n      dup3\n      add\n      0x40\n      mstore\n      returndatasize\n      dup3\n      mstore\n      returndatasize\n      0x00\n      0x20\n      dup5\n      add\n      returndatacopy\n      jump(tag_190)\n    tag_191:\n      0x60\n      swap2\n      pop\n    tag_190:\n      pop\n        /* \"FundDistributor.sol\":973:1019  (bool sent,) = user.call{value: msg.value}(\"\") */\n      pop\n      swap1\n      pop\n        /* \"FundDistributor.sol\":1037:1041  sent */\n      dup1\n        /* \"FundDistributor.sol\":1029:1066  require(sent, \"Failed to send Ether\") */\n      tag_192\n      jumpi\n      mload(0x40)\n      0x08c379a000000000000000000000000000000000000000000000000000000000\n      dup2\n      mstore\n      0x04\n      add\n      tag_193\n      swap1\n      tag_194\n      jump\t// in\n    tag_193:\n      mload(0x40)\n      dup1\n      swap2\n      sub\n      swap1\n      revert\n    tag_192:\n        /* \"FundDistributor.sol\":1082:1104  UserHasBeenAdded(user) */\n      0xb40223cb2fd2f5f68c1edc600b630cde6097946002f42d44bbc15560739e1e3d\n        /* \"FundDistributor.sol\":1099:1103  user */\n      dup3\n        /* \"FundDistributor.sol\":1082:1104  UserHasBeenAdded(user) */\n      mload(0x40)\n      tag_195\n      swap2\n      swap1\n      tag_95\n      jump\t// in\n    tag_195:\n      mload(0x40)\n      dup1\n      swap2\n      sub\n      swap1\n      log1\n        /* \"FundDistributor.sol\":700:1111  {... */\n      pop\n        /* \"FundDistributor.sol\":650:1111  function addAdress(address user) external payable {... */\n      pop\n      jump\t// out\n        /* \"FundDistributor.sol\":230:250  address public token */\n    tag_93:\n      0x01\n      0x00\n      swap1\n      sload\n      swap1\n      0x0100\n      exp\n      swap1\n      div\n      0xffffffffffffffffffffffffffffffffffffffff\n      and\n      dup2\n      jump\t// out\n        /* \"@openzeppelin/contracts/utils/introspection/ERC165.sol\":829:984  function supportsInterface(bytes4 interfaceId) public view virtual override returns (bool) {... */\n    tag_99:\n        /* \"@openzeppelin/contracts/utils/introspection/ERC165.sol\":914:918  bool */\n      0x00\n        /* \"@openzeppelin/contracts/utils/introspection/ERC165.sol\":952:977  type(IERC165).interfaceId */\n      0x01ffc9a700000000000000000000000000000000000000000000000000000000\n        /* \"@openzeppelin/contracts/utils/introspection/ERC165.sol\":937:977  interfaceId == type(IERC165).interfaceId */\n      not(0xffffffffffffffffffffffffffffffffffffffffffffffffffffffff)\n      and\n        /* \"@openzeppelin/contracts/utils/introspection/ERC165.sol\":937:948  interfaceId */\n      dup3\n        /* \"@openzeppelin/contracts/utils/introspection/ERC165.sol\":937:977  interfaceId == type(IERC165).interfaceId */\n      not(0xffffffffffffffffffffffffffffffffffffffffffffffffffffffff)\n      and\n      eq\n        /* \"@openzeppelin/contracts/utils/introspection/ERC165.sol\":930:977  return interfaceId == type(IERC165).interfaceId */\n      swap1\n      pop\n        /* \"@openzeppelin/contracts/utils/introspection/ERC165.sol\":829:984  function supportsInterface(bytes4 interfaceId) public view virtual override returns (bool) {... */\n      swap2\n      swap1\n      pop\n      jump\t// out\n        /* \"@openzeppelin/contracts/access/AccessControl.sol\":3334:3437  function _checkRole(bytes32 role) internal view virtual {... */\n    tag_138:\n        /* \"@openzeppelin/contracts/access/AccessControl.sol\":3400:3430  _checkRole(role, _msgSender()) */\n      tag_198\n        /* \"@openzeppelin/contracts/access/AccessControl.sol\":3411:3415  role */\n      dup2\n        /* \"@openzeppelin/contracts/access/AccessControl.sol\":3417:3429  _msgSender() */\n      tag_199\n        /* \"@openzeppelin/contracts/access/AccessControl.sol\":3417:3427  _msgSender */\n      tag_144\n        /* \"@openzeppelin/contracts/access/AccessControl.sol\":3417:3429  _msgSender() */\n      jump\t// in\n    tag_199:\n        /* \"@openzeppelin/contracts/access/AccessControl.sol\":3400:3410  _checkRole */\n      tag_200\n        /* \"@openzeppelin/contracts/access/AccessControl.sol\":3400:3430  _checkRole(role, _msgSender()) */\n      jump\t// in\n    tag_198:\n        /* \"@openzeppelin/contracts/access/AccessControl.sol\":3334:3437  function _checkRole(bytes32 role) internal view virtual {... */\n      pop\n      jump\t// out\n        /* \"@openzeppelin/contracts/access/AccessControl.sol\":7474:7707  function _grantRole(bytes32 role, address account) internal virtual {... */\n    tag_141:\n        /* \"@openzeppelin/contracts/access/AccessControl.sol\":7557:7579  hasRole(role, account) */\n      tag_202\n        /* \"@openzeppelin/contracts/access/AccessControl.sol\":7565:7569  role */\n      dup3\n        /* \"@openzeppelin/contracts/access/AccessControl.sol\":7571:7578  account */\n      dup3\n        /* \"@openzeppelin/contracts/access/AccessControl.sol\":7557:7564  hasRole */\n      tag_62\n        /* \"@openzeppelin/contracts/access/AccessControl.sol\":7557:7579  hasRole(role, account) */\n      jump\t// in\n    tag_202:\n        /* \"@openzeppelin/contracts/access/AccessControl.sol\":7552:7701  if (!hasRole(role, account)) {... */\n      tag_203\n      jumpi\n        /* \"@openzeppelin/contracts/access/AccessControl.sol\":7627:7631  true */\n      0x01\n        /* \"@openzeppelin/contracts/access/AccessControl.sol\":7595:7601  _roles */\n      0x00\n        /* \"@openzeppelin/contracts/access/AccessControl.sol\":7595:7607  _roles[role] */\n      dup1\n        /* \"@openzeppelin/contracts/access/AccessControl.sol\":7602:7606  role */\n      dup5\n        /* \"@openzeppelin/contracts/access/AccessControl.sol\":7595:7607  _roles[role] */\n      dup2\n      mstore\n      0x20\n      add\n      swap1\n      dup2\n      mstore\n      0x20\n      add\n      0x00\n      keccak256\n        /* \"@openzeppelin/contracts/access/AccessControl.sol\":7595:7615  _roles[role].members */\n      0x00\n      add\n        /* \"@openzeppelin/contracts/access/AccessControl.sol\":7595:7624  _roles[role].members[account] */\n      0x00\n        /* \"@openzeppelin/contracts/access/AccessControl.sol\":7616:7623  account */\n      dup4\n        /* \"@openzeppelin/contracts/access/AccessControl.sol\":7595:7624  _roles[role].members[account] */\n      0xffffffffffffffffffffffffffffffffffffffff\n      and\n      0xffffffffffffffffffffffffffffffffffffffff\n      and\n      dup2\n      mstore\n      0x20\n      add\n      swap1\n      dup2\n      mstore\n      0x20\n      add\n      0x00\n      keccak256\n      0x00\n        /* \"@openzeppelin/contracts/access/AccessControl.sol\":7595:7631  _roles[role].members[account] = true */\n      0x0100\n      exp\n      dup2\n      sload\n      dup2\n      0xff\n      mul\n      not\n      and\n      swap1\n      dup4\n      iszero\n      iszero\n      mul\n      or\n      swap1\n      sstore\n      pop\n        /* \"@openzeppelin/contracts/access/AccessControl.sol\":7677:7689  _msgSender() */\n      tag_204\n        /* \"@openzeppelin/contracts/access/AccessControl.sol\":7677:7687  _msgSender */\n      tag_144\n        /* \"@openzeppelin/contracts/access/AccessControl.sol\":7677:7689  _msgSender() */\n      jump\t// in\n    tag_204:\n        /* \"@openzeppelin/contracts/access/AccessControl.sol\":7650:7690  RoleGranted(role, account, _msgSender()) */\n      0xffffffffffffffffffffffffffffffffffffffff\n      and\n        /* \"@openzeppelin/contracts/access/AccessControl.sol\":7668:7675  account */\n      dup2\n        /* \"@openzeppelin/contracts/access/AccessControl.sol\":7650:7690  RoleGranted(role, account, _msgSender()) */\n      0xffffffffffffffffffffffffffffffffffffffff\n      and\n        /* \"@openzeppelin/contracts/access/AccessControl.sol\":7662:7666  role */\n      dup4\n        /* \"@openzeppelin/contracts/access/AccessControl.sol\":7650:7690  RoleGranted(role, account, _msgSender()) */\n      0x2f8788117e7eff1d82e926ec794901d17c78024a50270940304540a733656f0d\n      mload(0x40)\n      mload(0x40)\n      dup1\n      swap2\n      sub\n      swap1\n      log4\n        /* \"@openzeppelin/contracts/access/AccessControl.sol\":7552:7701  if (!hasRole(role, account)) {... */\n    tag_203:\n        /* \"@openzeppelin/contracts/access/AccessControl.sol\":7474:7707  function _grantRole(bytes32 role, address account) internal virtual {... */\n      pop\n      pop\n      jump\t// out\n        /* \"@openzeppelin/contracts/utils/Context.sol\":640:736  function _msgSender() internal view virtual returns (address) {... */\n    tag_144:\n        /* \"@openzeppelin/contracts/utils/Context.sol\":693:700  address */\n      0x00\n        /* \"@openzeppelin/contracts/utils/Context.sol\":719:729  msg.sender */\n      caller\n        /* \"@openzeppelin/contracts/utils/Context.sol\":712:729  return msg.sender */\n      swap1\n      pop\n        /* \"@openzeppelin/contracts/utils/Context.sol\":640:736  function _msgSender() internal view virtual returns (address) {... */\n      swap1\n      jump\t// out\n        /* \"@openzeppelin/contracts/access/AccessControl.sol\":7878:8112  function _revokeRole(bytes32 role, address account) internal virtual {... */\n    tag_149:\n        /* \"@openzeppelin/contracts/access/AccessControl.sol\":7961:7983  hasRole(role, account) */\n      tag_207\n        /* \"@openzeppelin/contracts/access/AccessControl.sol\":7969:7973  role */\n      dup3\n        /* \"@openzeppelin/contracts/access/AccessControl.sol\":7975:7982  account */\n      dup3\n        /* \"@openzeppelin/contracts/access/AccessControl.sol\":7961:7968  hasRole */\n      tag_62\n        /* \"@openzeppelin/contracts/access/AccessControl.sol\":7961:7983  hasRole(role, account) */\n      jump\t// in\n    tag_207:\n        /* \"@openzeppelin/contracts/access/AccessControl.sol\":7957:8106  if (hasRole(role, account)) {... */\n      iszero\n      tag_208\n      jumpi\n        /* \"@openzeppelin/contracts/access/AccessControl.sol\":8031:8036  false */\n      0x00\n        /* \"@openzeppelin/contracts/access/AccessControl.sol\":7999:8005  _roles */\n      dup1\n        /* \"@openzeppelin/contracts/access/AccessControl.sol\":7999:8011  _roles[role] */\n      0x00\n        /* \"@openzeppelin/contracts/access/AccessControl.sol\":8006:8010  role */\n      dup5\n        /* \"@openzeppelin/contracts/access/AccessControl.sol\":7999:8011  _roles[role] */\n      dup2\n      mstore\n      0x20\n      add\n      swap1\n      dup2\n      mstore\n      0x20\n      add\n      0x00\n      keccak256\n        /* \"@openzeppelin/contracts/access/AccessControl.sol\":7999:8019  _roles[role].members */\n      0x00\n      add\n        /* \"@openzeppelin/contracts/access/AccessControl.sol\":7999:8028  _roles[role].members[account] */\n      0x00\n        /* \"@openzeppelin/contracts/access/AccessControl.sol\":8020:8027  account */\n      dup4\n        /* \"@openzeppelin/contracts/access/AccessControl.sol\":7999:8028  _roles[role].members[account] */\n      0xffffffffffffffffffffffffffffffffffffffff\n      and\n      0xffffffffffffffffffffffffffffffffffffffff\n      and\n      dup2\n      mstore\n      0x20\n      add\n      swap1\n      dup2\n      mstore\n      0x20\n      add\n      0x00\n      keccak256\n      0x00\n        /* \"@openzeppelin/contracts/access/AccessControl.sol\":7999:8036  _roles[role].members[account] = false */\n      0x0100\n      exp\n      dup2\n      sload\n      dup2\n      0xff\n      mul\n      not\n      and\n      swap1\n      dup4\n      iszero\n      iszero\n      mul\n      or\n      swap1\n      sstore\n      pop\n        /* \"@openzeppelin/contracts/access/AccessControl.sol\":8082:8094  _msgSender() */\n      tag_209\n        /* \"@openzeppelin/contracts/access/AccessControl.sol\":8082:8092  _msgSender */\n      tag_144\n        /* \"@openzeppelin/contracts/access/AccessControl.sol\":8082:8094  _msgSender() */\n      jump\t// in\n    tag_209:\n        /* \"@openzeppelin/contracts/access/AccessControl.sol\":8055:8095  RoleRevoked(role, account, _msgSender()) */\n      0xffffffffffffffffffffffffffffffffffffffff\n      and\n        /* \"@openzeppelin/contracts/access/AccessControl.sol\":8073:8080  account */\n      dup2\n        /* \"@openzeppelin/contracts/access/AccessControl.sol\":8055:8095  RoleRevoked(role, account, _msgSender()) */\n      0xffffffffffffffffffffffffffffffffffffffff\n      and\n        /* \"@openzeppelin/contracts/access/AccessControl.sol\":8067:8071  role */\n      dup4\n        /* \"@openzeppelin/contracts/access/AccessControl.sol\":8055:8095  RoleRevoked(role, account, _msgSender()) */\n      0xf6391f5c32d9c69d2a47ea670b442974b53935d1edc7fd64eb21e047a839171b\n      mload(0x40)\n      mload(0x40)\n      dup1\n      swap2\n      sub\n      swap1\n      log4\n        /* \"@openzeppelin/contracts/access/AccessControl.sol\":7957:8106  if (hasRole(role, account)) {... */\n    tag_208:\n        /* \"@openzeppelin/contracts/access/AccessControl.sol\":7878:8112  function _revokeRole(bytes32 role, address account) internal virtual {... */\n      pop\n      pop\n      jump\t// out\n        /* \"@openzeppelin/contracts/access/AccessControl.sol\":3718:4210  function _checkRole(bytes32 role, address account) internal view virtual {... */\n    tag_200:\n        /* \"@openzeppelin/contracts/access/AccessControl.sol\":3806:3828  hasRole(role, account) */\n      tag_211\n        /* \"@openzeppelin/contracts/access/AccessControl.sol\":3814:3818  role */\n      dup3\n        /* \"@openzeppelin/contracts/access/AccessControl.sol\":3820:3827  account */\n      dup3\n        /* \"@openzeppelin/contracts/access/AccessControl.sol\":3806:3813  hasRole */\n      tag_62\n        /* \"@openzeppelin/contracts/access/AccessControl.sol\":3806:3828  hasRole(role, account) */\n      jump\t// in\n    tag_211:\n        /* \"@openzeppelin/contracts/access/AccessControl.sol\":3801:4204  if (!hasRole(role, account)) {... */\n      tag_212\n      jumpi\n        /* \"@openzeppelin/contracts/access/AccessControl.sol\":3989:4030  Strings.toHexString(uint160(account), 20) */\n      tag_213\n        /* \"@openzeppelin/contracts/access/AccessControl.sol\":4017:4024  account */\n      dup2\n        /* \"@openzeppelin/contracts/access/AccessControl.sol\":3989:4030  Strings.toHexString(uint160(account), 20) */\n      0xffffffffffffffffffffffffffffffffffffffff\n      and\n        /* \"@openzeppelin/contracts/access/AccessControl.sol\":4027:4029  20 */\n      0x14\n        /* \"@openzeppelin/contracts/access/AccessControl.sol\":3989:4008  Strings.toHexString */\n      tag_214\n        /* \"@openzeppelin/contracts/access/AccessControl.sol\":3989:4030  Strings.toHexString(uint160(account), 20) */\n      jump\t// in\n    tag_213:\n        /* \"@openzeppelin/contracts/access/AccessControl.sol\":4101:4139  Strings.toHexString(uint256(role), 32) */\n      tag_215\n        /* \"@openzeppelin/contracts/access/AccessControl.sol\":4129:4133  role */\n      dup4\n        /* \"@openzeppelin/contracts/access/AccessControl.sol\":4121:4134  uint256(role) */\n      0x00\n      shr\n        /* \"@openzeppelin/contracts/access/AccessControl.sol\":4136:4138  32 */\n      0x20\n        /* \"@openzeppelin/contracts/access/AccessControl.sol\":4101:4120  Strings.toHexString */\n      tag_214\n        /* \"@openzeppelin/contracts/access/AccessControl.sol\":4101:4139  Strings.toHexString(uint256(role), 32) */\n      jump\t// in\n    tag_215:\n        /* \"@openzeppelin/contracts/access/AccessControl.sol\":3896:4161  abi.encodePacked(... */\n      add(0x20, mload(0x40))\n      tag_216\n      swap3\n      swap2\n      swap1\n      tag_217\n      jump\t// in\n    tag_216:\n      mload(0x40)\n      0x20\n      dup2\n      dup4\n      sub\n      sub\n      dup2\n      mstore\n      swap1\n      0x40\n      mstore\n        /* \"@openzeppelin/contracts/access/AccessControl.sol\":3844:4193  revert(... */\n      mload(0x40)\n      0x08c379a000000000000000000000000000000000000000000000000000000000\n      dup2\n      mstore\n      0x04\n      add\n      tag_218\n      swap2\n      swap1\n      tag_219\n      jump\t// in\n    tag_218:\n      mload(0x40)\n      dup1\n      swap2\n      sub\n      swap1\n      revert\n        /* \"@openzeppelin/contracts/access/AccessControl.sol\":3801:4204  if (!hasRole(role, account)) {... */\n    tag_212:\n        /* \"@openzeppelin/contracts/access/AccessControl.sol\":3718:4210  function _checkRole(bytes32 role, address account) internal view virtual {... */\n      pop\n      pop\n      jump\t// out\n        /* \"@openzeppelin/contracts/utils/Strings.sol\":1652:2093  function toHexString(uint256 value, uint256 length) internal pure returns (string memory) {... */\n    tag_214:\n        /* \"@openzeppelin/contracts/utils/Strings.sol\":1727:1740  string memory */\n      0x60\n        /* \"@openzeppelin/contracts/utils/Strings.sol\":1752:1771  bytes memory buffer */\n      0x00\n        /* \"@openzeppelin/contracts/utils/Strings.sol\":1797:1798  2 */\n      0x02\n        /* \"@openzeppelin/contracts/utils/Strings.sol\":1788:1794  length */\n      dup4\n        /* \"@openzeppelin/contracts/utils/Strings.sol\":1784:1785  2 */\n      0x02\n        /* \"@openzeppelin/contracts/utils/Strings.sol\":1784:1794  2 * length */\n      tag_221\n      swap2\n      swap1\n      tag_163\n      jump\t// in\n    tag_221:\n        /* \"@openzeppelin/contracts/utils/Strings.sol\":1784:1798  2 * length + 2 */\n      tag_222\n      swap2\n      swap1\n      tag_132\n      jump\t// in\n    tag_222:\n        /* \"@openzeppelin/contracts/utils/Strings.sol\":1774:1799  new bytes(2 * length + 2) */\n      0xffffffffffffffff\n      dup2\n      gt\n      iszero\n      tag_223\n      jumpi\n      tag_224\n      tag_225\n      jump\t// in\n    tag_224:\n    tag_223:\n      mload(0x40)\n      swap1\n      dup1\n      dup3\n      mstore\n      dup1\n      0x1f\n      add\n      not(0x1f)\n      and\n      0x20\n      add\n      dup3\n      add\n      0x40\n      mstore\n      dup1\n      iszero\n      tag_226\n      jumpi\n      dup2\n      0x20\n      add\n      0x01\n      dup3\n      mul\n      dup1\n      calldatasize\n      dup4\n      calldatacopy\n      dup1\n      dup3\n      add\n      swap2\n      pop\n      pop\n      swap1\n      pop\n    tag_226:\n      pop\n        /* \"@openzeppelin/contracts/utils/Strings.sol\":1752:1799  bytes memory buffer = new bytes(2 * length + 2) */\n      swap1\n      pop\n        /* \"@openzeppelin/contracts/utils/Strings.sol\":1809:1824  buffer[0] = \"0\" */\n      0x3000000000000000000000000000000000000000000000000000000000000000\n        /* \"@openzeppelin/contracts/utils/Strings.sol\":1809:1815  buffer */\n      dup2\n        /* \"@openzeppelin/contracts/utils/Strings.sol\":1816:1817  0 */\n      0x00\n        /* \"@openzeppelin/contracts/utils/Strings.sol\":1809:1818  buffer[0] */\n      dup2\n      mload\n      dup2\n      lt\n      tag_227\n      jumpi\n      tag_228\n      tag_229\n      jump\t// in\n    tag_228:\n    tag_227:\n      0x20\n      add\n      add\n        /* \"@openzeppelin/contracts/utils/Strings.sol\":1809:1824  buffer[0] = \"0\" */\n      swap1\n      not(0xffffffffffffffffffffffffffffffffffffffffffffffffffffffffffffff)\n      and\n      swap1\n      dup2\n      0x00\n      byte\n      swap1\n      mstore8\n      pop\n        /* \"@openzeppelin/contracts/utils/Strings.sol\":1834:1849  buffer[1] = \"x\" */\n      0x7800000000000000000000000000000000000000000000000000000000000000\n        /* \"@openzeppelin/contracts/utils/Strings.sol\":1834:1840  buffer */\n      dup2\n        /* \"@openzeppelin/contracts/utils/Strings.sol\":1841:1842  1 */\n      0x01\n        /* \"@openzeppelin/contracts/utils/Strings.sol\":1834:1843  buffer[1] */\n      dup2\n      mload\n      dup2\n      lt\n      tag_230\n      jumpi\n      tag_231\n      tag_229\n      jump\t// in\n    tag_231:\n    tag_230:\n      0x20\n      add\n      add\n        /* \"@openzeppelin/contracts/utils/Strings.sol\":1834:1849  buffer[1] = \"x\" */\n      swap1\n      not(0xffffffffffffffffffffffffffffffffffffffffffffffffffffffffffffff)\n      and\n      swap1\n      dup2\n      0x00\n      byte\n      swap1\n      mstore8\n      pop\n        /* \"@openzeppelin/contracts/utils/Strings.sol\":1864:1873  uint256 i */\n      0x00\n        /* \"@openzeppelin/contracts/utils/Strings.sol\":1889:1890  1 */\n      0x01\n        /* \"@openzeppelin/contracts/utils/Strings.sol\":1880:1886  length */\n      dup5\n        /* \"@openzeppelin/contracts/utils/Strings.sol\":1876:1877  2 */\n      0x02\n        /* \"@openzeppelin/contracts/utils/Strings.sol\":1876:1886  2 * length */\n      tag_235\n      swap2\n      swap1\n      tag_163\n      jump\t// in\n    tag_235:\n        /* \"@openzeppelin/contracts/utils/Strings.sol\":1876:1890  2 * length + 1 */\n      tag_236\n      swap2\n      swap1\n      tag_132\n      jump\t// in\n    tag_236:\n        /* \"@openzeppelin/contracts/utils/Strings.sol\":1864:1890  uint256 i = 2 * length + 1 */\n      swap1\n      pop\n        /* \"@openzeppelin/contracts/utils/Strings.sol\":1859:1991  for (uint256 i = 2 * length + 1; i > 1; --i) {... */\n    tag_232:\n        /* \"@openzeppelin/contracts/utils/Strings.sol\":1896:1897  1 */\n      0x01\n        /* \"@openzeppelin/contracts/utils/Strings.sol\":1892:1893  i */\n      dup2\n        /* \"@openzeppelin/contracts/utils/Strings.sol\":1892:1897  i > 1 */\n      gt\n        /* \"@openzeppelin/contracts/utils/Strings.sol\":1859:1991  for (uint256 i = 2 * length + 1; i > 1; --i) {... */\n      iszero\n      tag_233\n      jumpi\n        /* \"@openzeppelin/contracts/utils/Strings.sol\":1930:1942  _HEX_SYMBOLS */\n      0x3031323334353637383961626364656600000000000000000000000000000000\n        /* \"@openzeppelin/contracts/utils/Strings.sol\":1951:1954  0xf */\n      0x0f\n        /* \"@openzeppelin/contracts/utils/Strings.sol\":1943:1948  value */\n      dup7\n        /* \"@openzeppelin/contracts/utils/Strings.sol\":1943:1954  value & 0xf */\n      and\n        /* \"@openzeppelin/contracts/utils/Strings.sol\":1930:1955  _HEX_SYMBOLS[value & 0xf] */\n      0x10\n      dup2\n      lt\n      tag_237\n      jumpi\n      tag_238\n      tag_229\n      jump\t// in\n    tag_238:\n    tag_237:\n      byte\n      0xf8\n      shl\n        /* \"@openzeppelin/contracts/utils/Strings.sol\":1918:1924  buffer */\n      dup3\n        /* \"@openzeppelin/contracts/utils/Strings.sol\":1925:1926  i */\n      dup3\n        /* \"@openzeppelin/contracts/utils/Strings.sol\":1918:1927  buffer[i] */\n      dup2\n      mload\n      dup2\n      lt\n      tag_239\n      jumpi\n      tag_240\n      tag_229\n      jump\t// in\n    tag_240:\n    tag_239:\n      0x20\n      add\n      add\n        /* \"@openzeppelin/contracts/utils/Strings.sol\":1918:1955  buffer[i] = _HEX_SYMBOLS[value & 0xf] */\n      swap1\n      not(0xffffffffffffffffffffffffffffffffffffffffffffffffffffffffffffff)\n      and\n      swap1\n      dup2\n      0x00\n      byte\n      swap1\n      mstore8\n      pop\n        /* \"@openzeppelin/contracts/utils/Strings.sol\":1979:1980  4 */\n      0x04\n        /* \"@openzeppelin/contracts/utils/Strings.sol\":1969:1980  value >>= 4 */\n      dup6\n      swap1\n      shr\n      swap5\n      pop\n        /* \"@openzeppelin/contracts/utils/Strings.sol\":1899:1902  --i */\n      dup1\n      tag_241\n      swap1\n      tag_242\n      jump\t// in\n    tag_241:\n      swap1\n      pop\n        /* \"@openzeppelin/contracts/utils/Strings.sol\":1859:1991  for (uint256 i = 2 * length + 1; i > 1; --i) {... */\n      jump(tag_232)\n    tag_233:\n      pop\n        /* \"@openzeppelin/contracts/utils/Strings.sol\":2017:2018  0 */\n      0x00\n        /* \"@openzeppelin/contracts/utils/Strings.sol\":2008:2013  value */\n      dup5\n        /* \"@openzeppelin/contracts/utils/Strings.sol\":2008:2018  value == 0 */\n      eq\n        /* \"@openzeppelin/contracts/utils/Strings.sol\":2000:2055  require(value == 0, \"Strings: hex length insufficient\") */\n      tag_243\n      jumpi\n      mload(0x40)\n      0x08c379a000000000000000000000000000000000000000000000000000000000\n      dup2\n      mstore\n      0x04\n      add\n      tag_244\n      swap1\n      tag_245\n      jump\t// in\n    tag_244:\n      mload(0x40)\n      dup1\n      swap2\n      sub\n      swap1\n      revert\n    tag_243:\n        /* \"@openzeppelin/contracts/utils/Strings.sol\":2079:2085  buffer */\n      dup1\n        /* \"@openzeppelin/contracts/utils/Strings.sol\":2065:2086  return string(buffer) */\n      swap2\n      pop\n      pop\n        /* \"@openzeppelin/contracts/utils/Strings.sol\":1652:2093  function toHexString(uint256 value, uint256 length) internal pure returns (string memory) {... */\n      swap3\n      swap2\n      pop\n      pop\n      jump\t// out\n        /* \"#utility.yul\":7:146   */\n    tag_247:\n        /* \"#utility.yul\":53:58   */\n      0x00\n        /* \"#utility.yul\":91:97   */\n      dup2\n        /* \"#utility.yul\":78:98   */\n      calldataload\n        /* \"#utility.yul\":69:98   */\n      swap1\n      pop\n        /* \"#utility.yul\":107:140   */\n      tag_249\n        /* \"#utility.yul\":134:139   */\n      dup2\n        /* \"#utility.yul\":107:140   */\n      tag_250\n      jump\t// in\n    tag_249:\n        /* \"#utility.yul\":7:146   */\n      swap3\n      swap2\n      pop\n      pop\n      jump\t// out\n        /* \"#utility.yul\":152:289   */\n    tag_251:\n        /* \"#utility.yul\":206:211   */\n      0x00\n        /* \"#utility.yul\":237:243   */\n      dup2\n        /* \"#utility.yul\":231:244   */\n      mload\n        /* \"#utility.yul\":222:244   */\n      swap1\n      pop\n        /* \"#utility.yul\":253:283   */\n      tag_253\n        /* \"#utility.yul\":277:282   */\n      dup2\n        /* \"#utility.yul\":253:283   */\n      tag_254\n      jump\t// in\n    tag_253:\n        /* \"#utility.yul\":152:289   */\n      swap3\n      swap2\n      pop\n      pop\n      jump\t// out\n        /* \"#utility.yul\":295:434   */\n    tag_255:\n        /* \"#utility.yul\":341:346   */\n      0x00\n        /* \"#utility.yul\":379:385   */\n      dup2\n        /* \"#utility.yul\":366:386   */\n      calldataload\n        /* \"#utility.yul\":357:386   */\n      swap1\n      pop\n        /* \"#utility.yul\":395:428   */\n      tag_257\n        /* \"#utility.yul\":422:427   */\n      dup2\n        /* \"#utility.yul\":395:428   */\n      tag_258\n      jump\t// in\n    tag_257:\n        /* \"#utility.yul\":295:434   */\n      swap3\n      swap2\n      pop\n      pop\n      jump\t// out\n        /* \"#utility.yul\":440:577   */\n    tag_259:\n        /* \"#utility.yul\":485:490   */\n      0x00\n        /* \"#utility.yul\":523:529   */\n      dup2\n        /* \"#utility.yul\":510:530   */\n      calldataload\n        /* \"#utility.yul\":501:530   */\n      swap1\n      pop\n        /* \"#utility.yul\":539:571   */\n      tag_261\n        /* \"#utility.yul\":565:570   */\n      dup2\n        /* \"#utility.yul\":539:571   */\n      tag_262\n      jump\t// in\n    tag_261:\n        /* \"#utility.yul\":440:577   */\n      swap3\n      swap2\n      pop\n      pop\n      jump\t// out\n        /* \"#utility.yul\":583:722   */\n    tag_263:\n        /* \"#utility.yul\":629:634   */\n      0x00\n        /* \"#utility.yul\":667:673   */\n      dup2\n        /* \"#utility.yul\":654:674   */\n      calldataload\n        /* \"#utility.yul\":645:674   */\n      swap1\n      pop\n        /* \"#utility.yul\":683:716   */\n      tag_265\n        /* \"#utility.yul\":710:715   */\n      dup2\n        /* \"#utility.yul\":683:716   */\n      tag_266\n      jump\t// in\n    tag_265:\n        /* \"#utility.yul\":583:722   */\n      swap3\n      swap2\n      pop\n      pop\n      jump\t// out\n        /* \"#utility.yul\":728:871   */\n    tag_267:\n        /* \"#utility.yul\":785:790   */\n      0x00\n        /* \"#utility.yul\":816:822   */\n      dup2\n        /* \"#utility.yul\":810:823   */\n      mload\n        /* \"#utility.yul\":801:823   */\n      swap1\n      pop\n        /* \"#utility.yul\":832:865   */\n      tag_269\n        /* \"#utility.yul\":859:864   */\n      dup2\n        /* \"#utility.yul\":832:865   */\n      tag_266\n      jump\t// in\n    tag_269:\n        /* \"#utility.yul\":728:871   */\n      swap3\n      swap2\n      pop\n      pop\n      jump\t// out\n        /* \"#utility.yul\":877:1206   */\n    tag_30:\n        /* \"#utility.yul\":936:942   */\n      0x00\n        /* \"#utility.yul\":985:987   */\n      0x20\n        /* \"#utility.yul\":973:982   */\n      dup3\n        /* \"#utility.yul\":964:971   */\n      dup5\n        /* \"#utility.yul\":960:983   */\n      sub\n        /* \"#utility.yul\":956:988   */\n      slt\n        /* \"#utility.yul\":953:1072   */\n      iszero\n      tag_271\n      jumpi\n        /* \"#utility.yul\":991:1070   */\n      tag_272\n      tag_273\n      jump\t// in\n    tag_272:\n        /* \"#utility.yul\":953:1072   */\n    tag_271:\n        /* \"#utility.yul\":1111:1112   */\n      0x00\n        /* \"#utility.yul\":1136:1189   */\n      tag_274\n        /* \"#utility.yul\":1181:1188   */\n      dup5\n        /* \"#utility.yul\":1172:1178   */\n      dup3\n        /* \"#utility.yul\":1161:1170   */\n      dup6\n        /* \"#utility.yul\":1157:1179   */\n      add\n        /* \"#utility.yul\":1136:1189   */\n      tag_247\n      jump\t// in\n    tag_274:\n        /* \"#utility.yul\":1126:1189   */\n      swap2\n      pop\n        /* \"#utility.yul\":1082:1199   */\n      pop\n        /* \"#utility.yul\":877:1206   */\n      swap3\n      swap2\n      pop\n      pop\n      jump\t// out\n        /* \"#utility.yul\":1212:1686   */\n    tag_73:\n        /* \"#utility.yul\":1280:1286   */\n      0x00\n        /* \"#utility.yul\":1288:1294   */\n      dup1\n        /* \"#utility.yul\":1337:1339   */\n      0x40\n        /* \"#utility.yul\":1325:1334   */\n      dup4\n        /* \"#utility.yul\":1316:1323   */\n      dup6\n        /* \"#utility.yul\":1312:1335   */\n      sub\n        /* \"#utility.yul\":1308:1340   */\n      slt\n        /* \"#utility.yul\":1305:1424   */\n      iszero\n      tag_276\n      jumpi\n        /* \"#utility.yul\":1343:1422   */\n      tag_277\n      tag_273\n      jump\t// in\n    tag_277:\n        /* \"#utility.yul\":1305:1424   */\n    tag_276:\n        /* \"#utility.yul\":1463:1464   */\n      0x00\n        /* \"#utility.yul\":1488:1541   */\n      tag_278\n        /* \"#utility.yul\":1533:1540   */\n      dup6\n        /* \"#utility.yul\":1524:1530   */\n      dup3\n        /* \"#utility.yul\":1513:1522   */\n      dup7\n        /* \"#utility.yul\":1509:1531   */\n      add\n        /* \"#utility.yul\":1488:1541   */\n      tag_247\n      jump\t// in\n    tag_278:\n        /* \"#utility.yul\":1478:1541   */\n      swap3\n      pop\n        /* \"#utility.yul\":1434:1551   */\n      pop\n        /* \"#utility.yul\":1590:1592   */\n      0x20\n        /* \"#utility.yul\":1616:1669   */\n      tag_279\n        /* \"#utility.yul\":1661:1668   */\n      dup6\n        /* \"#utility.yul\":1652:1658   */\n      dup3\n        /* \"#utility.yul\":1641:1650   */\n      dup7\n        /* \"#utility.yul\":1637:1659   */\n      add\n        /* \"#utility.yul\":1616:1669   */\n      tag_263\n      jump\t// in\n    tag_279:\n        /* \"#utility.yul\":1606:1669   */\n      swap2\n      pop\n        /* \"#utility.yul\":1561:1679   */\n      pop\n        /* \"#utility.yul\":1212:1686   */\n      swap3\n      pop\n      swap3\n      swap1\n      pop\n      jump\t// out\n        /* \"#utility.yul\":1692:2037   */\n    tag_127:\n        /* \"#utility.yul\":1759:1765   */\n      0x00\n        /* \"#utility.yul\":1808:1810   */\n      0x20\n        /* \"#utility.yul\":1796:1805   */\n      dup3\n        /* \"#utility.yul\":1787:1794   */\n      dup5\n        /* \"#utility.yul\":1783:1806   */\n      sub\n        /* \"#utility.yul\":1779:1811   */\n      slt\n        /* \"#utility.yul\":1776:1895   */\n      iszero\n      tag_281\n      jumpi\n        /* \"#utility.yul\":1814:1893   */\n      tag_282\n      tag_273\n      jump\t// in\n    tag_282:\n        /* \"#utility.yul\":1776:1895   */\n    tag_281:\n        /* \"#utility.yul\":1934:1935   */\n      0x00\n        /* \"#utility.yul\":1959:2020   */\n      tag_283\n        /* \"#utility.yul\":2012:2019   */\n      dup5\n        /* \"#utility.yul\":2003:2009   */\n      dup3\n        /* \"#utility.yul\":1992:2001   */\n      dup6\n        /* \"#utility.yul\":1988:2010   */\n      add\n        /* \"#utility.yul\":1959:2020   */\n      tag_251\n      jump\t// in\n    tag_283:\n        /* \"#utility.yul\":1949:2020   */\n      swap2\n      pop\n        /* \"#utility.yul\":1905:2030   */\n      pop\n        /* \"#utility.yul\":1692:2037   */\n      swap3\n      swap2\n      pop\n      pop\n      jump\t// out\n        /* \"#utility.yul\":2043:2372   */\n    tag_37:\n        /* \"#utility.yul\":2102:2108   */\n      0x00\n        /* \"#utility.yul\":2151:2153   */\n      0x20\n        /* \"#utility.yul\":2139:2148   */\n      dup3\n        /* \"#utility.yul\":2130:2137   */\n      dup5\n        /* \"#utility.yul\":2126:2149   */\n      sub\n        /* \"#utility.yul\":2122:2154   */\n      slt\n        /* \"#utility.yul\":2119:2238   */\n      iszero\n      tag_285\n      jumpi\n        /* \"#utility.yul\":2157:2236   */\n      tag_286\n      tag_273\n      jump\t// in\n    tag_286:\n        /* \"#utility.yul\":2119:2238   */\n    tag_285:\n        /* \"#utility.yul\":2277:2278   */\n      0x00\n        /* \"#utility.yul\":2302:2355   */\n      tag_287\n        /* \"#utility.yul\":2347:2354   */\n      dup5\n        /* \"#utility.yul\":2338:2344   */\n      dup3\n        /* \"#utility.yul\":2327:2336   */\n      dup6\n        /* \"#utility.yul\":2323:2345   */\n      add\n        /* \"#utility.yul\":2302:2355   */\n      tag_255\n      jump\t// in\n    tag_287:\n        /* \"#utility.yul\":2292:2355   */\n      swap2\n      pop\n        /* \"#utility.yul\":2248:2365   */\n      pop\n        /* \"#utility.yul\":2043:2372   */\n      swap3\n      swap2\n      pop\n      pop\n      jump\t// out\n        /* \"#utility.yul\":2378:2852   */\n    tag_49:\n        /* \"#utility.yul\":2446:2452   */\n      0x00\n        /* \"#utility.yul\":2454:2460   */\n      dup1\n        /* \"#utility.yul\":2503:2505   */\n      0x40\n        /* \"#utility.yul\":2491:2500   */\n      dup4\n        /* \"#utility.yul\":2482:2489   */\n      dup6\n        /* \"#utility.yul\":2478:2501   */\n      sub\n        /* \"#utility.yul\":2474:2506   */\n      slt\n        /* \"#utility.yul\":2471:2590   */\n      iszero\n      tag_289\n      jumpi\n        /* \"#utility.yul\":2509:2588   */\n      tag_290\n      tag_273\n      jump\t// in\n    tag_290:\n        /* \"#utility.yul\":2471:2590   */\n    tag_289:\n        /* \"#utility.yul\":2629:2630   */\n      0x00\n        /* \"#utility.yul\":2654:2707   */\n      tag_291\n        /* \"#utility.yul\":2699:2706   */\n      dup6\n        /* \"#utility.yul\":2690:2696   */\n      dup3\n        /* \"#utility.yul\":2679:2688   */\n      dup7\n        /* \"#utility.yul\":2675:2697   */\n      add\n        /* \"#utility.yul\":2654:2707   */\n      tag_255\n      jump\t// in\n    tag_291:\n        /* \"#utility.yul\":2644:2707   */\n      swap3\n      pop\n        /* \"#utility.yul\":2600:2717   */\n      pop\n        /* \"#utility.yul\":2756:2758   */\n      0x20\n        /* \"#utility.yul\":2782:2835   */\n      tag_292\n        /* \"#utility.yul\":2827:2834   */\n      dup6\n        /* \"#utility.yul\":2818:2824   */\n      dup3\n        /* \"#utility.yul\":2807:2816   */\n      dup7\n        /* \"#utility.yul\":2803:2825   */\n      add\n        /* \"#utility.yul\":2782:2835   */\n      tag_247\n      jump\t// in\n    tag_292:\n        /* \"#utility.yul\":2772:2835   */\n      swap2\n      pop\n        /* \"#utility.yul\":2727:2845   */\n      pop\n        /* \"#utility.yul\":2378:2852   */\n      swap3\n      pop\n      swap3\n      swap1\n      pop\n      jump\t// out\n        /* \"#utility.yul\":2858:3185   */\n    tag_23:\n        /* \"#utility.yul\":2916:2922   */\n      0x00\n        /* \"#utility.yul\":2965:2967   */\n      0x20\n        /* \"#utility.yul\":2953:2962   */\n      dup3\n        /* \"#utility.yul\":2944:2951   */\n      dup5\n        /* \"#utility.yul\":2940:2963   */\n      sub\n        /* \"#utility.yul\":2936:2968   */\n      slt\n        /* \"#utility.yul\":2933:3052   */\n      iszero\n      tag_294\n      jumpi\n        /* \"#utility.yul\":2971:3050   */\n      tag_295\n      tag_273\n      jump\t// in\n    tag_295:\n        /* \"#utility.yul\":2933:3052   */\n    tag_294:\n        /* \"#utility.yul\":3091:3092   */\n      0x00\n        /* \"#utility.yul\":3116:3168   */\n      tag_296\n        /* \"#utility.yul\":3160:3167   */\n      dup5\n        /* \"#utility.yul\":3151:3157   */\n      dup3\n        /* \"#utility.yul\":3140:3149   */\n      dup6\n        /* \"#utility.yul\":3136:3158   */\n      add\n        /* \"#utility.yul\":3116:3168   */\n      tag_259\n      jump\t// in\n    tag_296:\n        /* \"#utility.yul\":3106:3168   */\n      swap2\n      pop\n        /* \"#utility.yul\":3062:3178   */\n      pop\n        /* \"#utility.yul\":2858:3185   */\n      swap3\n      swap2\n      pop\n      pop\n      jump\t// out\n        /* \"#utility.yul\":3191:3520   */\n    tag_44:\n        /* \"#utility.yul\":3250:3256   */\n      0x00\n        /* \"#utility.yul\":3299:3301   */\n      0x20\n        /* \"#utility.yul\":3287:3296   */\n      dup3\n        /* \"#utility.yul\":3278:3285   */\n      dup5\n        /* \"#utility.yul\":3274:3297   */\n      sub\n        /* \"#utility.yul\":3270:3302   */\n      slt\n        /* \"#utility.yul\":3267:3386   */\n      iszero\n      tag_298\n      jumpi\n        /* \"#utility.yul\":3305:3384   */\n      tag_299\n      tag_273\n      jump\t// in\n    tag_299:\n        /* \"#utility.yul\":3267:3386   */\n    tag_298:\n        /* \"#utility.yul\":3425:3426   */\n      0x00\n        /* \"#utility.yul\":3450:3503   */\n      tag_300\n        /* \"#utility.yul\":3495:3502   */\n      dup5\n        /* \"#utility.yul\":3486:3492   */\n      dup3\n        /* \"#utility.yul\":3475:3484   */\n      dup6\n        /* \"#utility.yul\":3471:3493   */\n      add\n        /* \"#utility.yul\":3450:3503   */\n      tag_263\n      jump\t// in\n    tag_300:\n        /* \"#utility.yul\":3440:3503   */\n      swap2\n      pop\n        /* \"#utility.yul\":3396:3513   */\n      pop\n        /* \"#utility.yul\":3191:3520   */\n      swap3\n      swap2\n      pop\n      pop\n      jump\t// out\n        /* \"#utility.yul\":3526:3877   */\n    tag_107:\n        /* \"#utility.yul\":3596:3602   */\n      0x00\n        /* \"#utility.yul\":3645:3647   */\n      0x20\n        /* \"#utility.yul\":3633:3642   */\n      dup3\n        /* \"#utility.yul\":3624:3631   */\n      dup5\n        /* \"#utility.yul\":3620:3643   */\n      sub\n        /* \"#utility.yul\":3616:3648   */\n      slt\n        /* \"#utility.yul\":3613:3732   */\n      iszero\n      tag_302\n      jumpi\n        /* \"#utility.yul\":3651:3730   */\n      tag_303\n      tag_273\n      jump\t// in\n    tag_303:\n        /* \"#utility.yul\":3613:3732   */\n    tag_302:\n        /* \"#utility.yul\":3771:3772   */\n      0x00\n        /* \"#utility.yul\":3796:3860   */\n      tag_304\n        /* \"#utility.yul\":3852:3859   */\n      dup5\n        /* \"#utility.yul\":3843:3849   */\n      dup3\n        /* \"#utility.yul\":3832:3841   */\n      dup6\n        /* \"#utility.yul\":3828:3850   */\n      add\n        /* \"#utility.yul\":3796:3860   */\n      tag_267\n      jump\t// in\n    tag_304:\n        /* \"#utility.yul\":3786:3860   */\n      swap2\n      pop\n        /* \"#utility.yul\":3742:3870   */\n      pop\n        /* \"#utility.yul\":3526:3877   */\n      swap3\n      swap2\n      pop\n      pop\n      jump\t// out\n        /* \"#utility.yul\":3883:4001   */\n    tag_305:\n        /* \"#utility.yul\":3970:3994   */\n      tag_307\n        /* \"#utility.yul\":3988:3993   */\n      dup2\n        /* \"#utility.yul\":3970:3994   */\n      tag_308\n      jump\t// in\n    tag_307:\n        /* \"#utility.yul\":3965:3968   */\n      dup3\n        /* \"#utility.yul\":3958:3995   */\n      mstore\n        /* \"#utility.yul\":3883:4001   */\n      pop\n      pop\n      jump\t// out\n        /* \"#utility.yul\":4007:4116   */\n    tag_309:\n        /* \"#utility.yul\":4088:4109   */\n      tag_311\n        /* \"#utility.yul\":4103:4108   */\n      dup2\n        /* \"#utility.yul\":4088:4109   */\n      tag_312\n      jump\t// in\n    tag_311:\n        /* \"#utility.yul\":4083:4086   */\n      dup3\n        /* \"#utility.yul\":4076:4110   */\n      mstore\n        /* \"#utility.yul\":4007:4116   */\n      pop\n      pop\n      jump\t// out\n        /* \"#utility.yul\":4122:4240   */\n    tag_313:\n        /* \"#utility.yul\":4209:4233   */\n      tag_315\n        /* \"#utility.yul\":4227:4232   */\n      dup2\n        /* \"#utility.yul\":4209:4233   */\n      tag_316\n      jump\t// in\n    tag_315:\n        /* \"#utility.yul\":4204:4207   */\n      dup3\n        /* \"#utility.yul\":4197:4234   */\n      mstore\n        /* \"#utility.yul\":4122:4240   */\n      pop\n      pop\n      jump\t// out\n        /* \"#utility.yul\":4246:4610   */\n    tag_317:\n        /* \"#utility.yul\":4334:4337   */\n      0x00\n        /* \"#utility.yul\":4362:4401   */\n      tag_319\n        /* \"#utility.yul\":4395:4400   */\n      dup3\n        /* \"#utility.yul\":4362:4401   */\n      tag_320\n      jump\t// in\n    tag_319:\n        /* \"#utility.yul\":4417:4488   */\n      tag_321\n        /* \"#utility.yul\":4481:4487   */\n      dup2\n        /* \"#utility.yul\":4476:4479   */\n      dup6\n        /* \"#utility.yul\":4417:4488   */\n      tag_322\n      jump\t// in\n    tag_321:\n        /* \"#utility.yul\":4410:4488   */\n      swap4\n      pop\n        /* \"#utility.yul\":4497:4549   */\n      tag_323\n        /* \"#utility.yul\":4542:4548   */\n      dup2\n        /* \"#utility.yul\":4537:4540   */\n      dup6\n        /* \"#utility.yul\":4530:4534   */\n      0x20\n        /* \"#utility.yul\":4523:4528   */\n      dup7\n        /* \"#utility.yul\":4519:4535   */\n      add\n        /* \"#utility.yul\":4497:4549   */\n      tag_324\n      jump\t// in\n    tag_323:\n        /* \"#utility.yul\":4574:4603   */\n      tag_325\n        /* \"#utility.yul\":4596:4602   */\n      dup2\n        /* \"#utility.yul\":4574:4603   */\n      tag_326\n      jump\t// in\n    tag_325:\n        /* \"#utility.yul\":4569:4572   */\n      dup5\n        /* \"#utility.yul\":4565:4604   */\n      add\n        /* \"#utility.yul\":4558:4604   */\n      swap2\n      pop\n        /* \"#utility.yul\":4338:4610   */\n      pop\n        /* \"#utility.yul\":4246:4610   */\n      swap3\n      swap2\n      pop\n      pop\n      jump\t// out\n        /* \"#utility.yul\":4616:4993   */\n    tag_327:\n        /* \"#utility.yul\":4722:4725   */\n      0x00\n        /* \"#utility.yul\":4750:4789   */\n      tag_329\n        /* \"#utility.yul\":4783:4788   */\n      dup3\n        /* \"#utility.yul\":4750:4789   */\n      tag_320\n      jump\t// in\n    tag_329:\n        /* \"#utility.yul\":4805:4894   */\n      tag_330\n        /* \"#utility.yul\":4887:4893   */\n      dup2\n        /* \"#utility.yul\":4882:4885   */\n      dup6\n        /* \"#utility.yul\":4805:4894   */\n      tag_331\n      jump\t// in\n    tag_330:\n        /* \"#utility.yul\":4798:4894   */\n      swap4\n      pop\n        /* \"#utility.yul\":4903:4955   */\n      tag_332\n        /* \"#utility.yul\":4948:4954   */\n      dup2\n        /* \"#utility.yul\":4943:4946   */\n      dup6\n        /* \"#utility.yul\":4936:4940   */\n      0x20\n        /* \"#utility.yul\":4929:4934   */\n      dup7\n        /* \"#utility.yul\":4925:4941   */\n      add\n        /* \"#utility.yul\":4903:4955   */\n      tag_324\n      jump\t// in\n    tag_332:\n        /* \"#utility.yul\":4980:4986   */\n      dup1\n        /* \"#utility.yul\":4975:4978   */\n      dup5\n        /* \"#utility.yul\":4971:4987   */\n      add\n        /* \"#utility.yul\":4964:4987   */\n      swap2\n      pop\n        /* \"#utility.yul\":4726:4993   */\n      pop\n        /* \"#utility.yul\":4616:4993   */\n      swap3\n      swap2\n      pop\n      pop\n      jump\t// out\n        /* \"#utility.yul\":4999:5365   */\n    tag_333:\n        /* \"#utility.yul\":5141:5144   */\n      0x00\n        /* \"#utility.yul\":5162:5229   */\n      tag_335\n        /* \"#utility.yul\":5226:5228   */\n      0x28\n        /* \"#utility.yul\":5221:5224   */\n      dup4\n        /* \"#utility.yul\":5162:5229   */\n      tag_322\n      jump\t// in\n    tag_335:\n        /* \"#utility.yul\":5155:5229   */\n      swap2\n      pop\n        /* \"#utility.yul\":5238:5331   */\n      tag_336\n        /* \"#utility.yul\":5327:5330   */\n      dup3\n        /* \"#utility.yul\":5238:5331   */\n      tag_337\n      jump\t// in\n    tag_336:\n        /* \"#utility.yul\":5356:5358   */\n      0x40\n        /* \"#utility.yul\":5351:5354   */\n      dup3\n        /* \"#utility.yul\":5347:5359   */\n      add\n        /* \"#utility.yul\":5340:5359   */\n      swap1\n      pop\n        /* \"#utility.yul\":4999:5365   */\n      swap2\n      swap1\n      pop\n      jump\t// out\n        /* \"#utility.yul\":5371:5737   */\n    tag_338:\n        /* \"#utility.yul\":5513:5516   */\n      0x00\n        /* \"#utility.yul\":5534:5601   */\n      tag_340\n        /* \"#utility.yul\":5598:5600   */\n      0x20\n        /* \"#utility.yul\":5593:5596   */\n      dup4\n        /* \"#utility.yul\":5534:5601   */\n      tag_322\n      jump\t// in\n    tag_340:\n        /* \"#utility.yul\":5527:5601   */\n      swap2\n      pop\n        /* \"#utility.yul\":5610:5703   */\n      tag_341\n        /* \"#utility.yul\":5699:5702   */\n      dup3\n        /* \"#utility.yul\":5610:5703   */\n      tag_342\n      jump\t// in\n    tag_341:\n        /* \"#utility.yul\":5728:5730   */\n      0x20\n        /* \"#utility.yul\":5723:5726   */\n      dup3\n        /* \"#utility.yul\":5719:5731   */\n      add\n        /* \"#utility.yul\":5712:5731   */\n      swap1\n      pop\n        /* \"#utility.yul\":5371:5737   */\n      swap2\n      swap1\n      pop\n      jump\t// out\n        /* \"#utility.yul\":5743:6109   */\n    tag_343:\n        /* \"#utility.yul\":5885:5888   */\n      0x00\n        /* \"#utility.yul\":5906:5973   */\n      tag_345\n        /* \"#utility.yul\":5970:5972   */\n      0x1b\n        /* \"#utility.yul\":5965:5968   */\n      dup4\n        /* \"#utility.yul\":5906:5973   */\n      tag_322\n      jump\t// in\n    tag_345:\n        /* \"#utility.yul\":5899:5973   */\n      swap2\n      pop\n        /* \"#utility.yul\":5982:6075   */\n      tag_346\n        /* \"#utility.yul\":6071:6074   */\n      dup3\n        /* \"#utility.yul\":5982:6075   */\n      tag_347\n      jump\t// in\n    tag_346:\n        /* \"#utility.yul\":6100:6102   */\n      0x20\n        /* \"#utility.yul\":6095:6098   */\n      dup3\n        /* \"#utility.yul\":6091:6103   */\n      add\n        /* \"#utility.yul\":6084:6103   */\n      swap1\n      pop\n        /* \"#utility.yul\":5743:6109   */\n      swap2\n      swap1\n      pop\n      jump\t// out\n        /* \"#utility.yul\":6115:6481   */\n    tag_348:\n        /* \"#utility.yul\":6257:6260   */\n      0x00\n        /* \"#utility.yul\":6278:6345   */\n      tag_350\n        /* \"#utility.yul\":6342:6344   */\n      0x14\n        /* \"#utility.yul\":6337:6340   */\n      dup4\n        /* \"#utility.yul\":6278:6345   */\n      tag_322\n      jump\t// in\n    tag_350:\n        /* \"#utility.yul\":6271:6345   */\n      swap2\n      pop\n        /* \"#utility.yul\":6354:6447   */\n      tag_351\n        /* \"#utility.yul\":6443:6446   */\n      dup3\n        /* \"#utility.yul\":6354:6447   */\n      tag_352\n      jump\t// in\n    tag_351:\n        /* \"#utility.yul\":6472:6474   */\n      0x20\n        /* \"#utility.yul\":6467:6470   */\n      dup3\n        /* \"#utility.yul\":6463:6475   */\n      add\n        /* \"#utility.yul\":6456:6475   */\n      swap1\n      pop\n        /* \"#utility.yul\":6115:6481   */\n      swap2\n      swap1\n      pop\n      jump\t// out\n        /* \"#utility.yul\":6487:6853   */\n    tag_353:\n        /* \"#utility.yul\":6629:6632   */\n      0x00\n        /* \"#utility.yul\":6650:6717   */\n      tag_355\n        /* \"#utility.yul\":6714:6716   */\n      0x1c\n        /* \"#utility.yul\":6709:6712   */\n      dup4\n        /* \"#utility.yul\":6650:6717   */\n      tag_322\n      jump\t// in\n    tag_355:\n        /* \"#utility.yul\":6643:6717   */\n      swap2\n      pop\n        /* \"#utility.yul\":6726:6819   */\n      tag_356\n        /* \"#utility.yul\":6815:6818   */\n      dup3\n        /* \"#utility.yul\":6726:6819   */\n      tag_357\n      jump\t// in\n    tag_356:\n        /* \"#utility.yul\":6844:6846   */\n      0x20\n        /* \"#utility.yul\":6839:6842   */\n      dup3\n        /* \"#utility.yul\":6835:6847   */\n      add\n        /* \"#utility.yul\":6828:6847   */\n      swap1\n      pop\n        /* \"#utility.yul\":6487:6853   */\n      swap2\n      swap1\n      pop\n      jump\t// out\n        /* \"#utility.yul\":6859:7225   */\n    tag_358:\n        /* \"#utility.yul\":7001:7004   */\n      0x00\n        /* \"#utility.yul\":7022:7089   */\n      tag_360\n        /* \"#utility.yul\":7086:7088   */\n      0x0c\n        /* \"#utility.yul\":7081:7084   */\n      dup4\n        /* \"#utility.yul\":7022:7089   */\n      tag_322\n      jump\t// in\n    tag_360:\n        /* \"#utility.yul\":7015:7089   */\n      swap2\n      pop\n        /* \"#utility.yul\":7098:7191   */\n      tag_361\n        /* \"#utility.yul\":7187:7190   */\n      dup3\n        /* \"#utility.yul\":7098:7191   */\n      tag_362\n      jump\t// in\n    tag_361:\n        /* \"#utility.yul\":7216:7218   */\n      0x20\n        /* \"#utility.yul\":7211:7214   */\n      dup3\n        /* \"#utility.yul\":7207:7219   */\n      add\n        /* \"#utility.yul\":7200:7219   */\n      swap1\n      pop\n        /* \"#utility.yul\":6859:7225   */\n      swap2\n      swap1\n      pop\n      jump\t// out\n        /* \"#utility.yul\":7231:7597   */\n    tag_363:\n        /* \"#utility.yul\":7373:7376   */\n      0x00\n        /* \"#utility.yul\":7394:7461   */\n      tag_365\n        /* \"#utility.yul\":7458:7460   */\n      0x2a\n        /* \"#utility.yul\":7453:7456   */\n      dup4\n        /* \"#utility.yul\":7394:7461   */\n      tag_322\n      jump\t// in\n    tag_365:\n        /* \"#utility.yul\":7387:7461   */\n      swap2\n      pop\n        /* \"#utility.yul\":7470:7563   */\n      tag_366\n        /* \"#utility.yul\":7559:7562   */\n      dup3\n        /* \"#utility.yul\":7470:7563   */\n      tag_367\n      jump\t// in\n    tag_366:\n        /* \"#utility.yul\":7588:7590   */\n      0x40\n        /* \"#utility.yul\":7583:7586   */\n      dup3\n        /* \"#utility.yul\":7579:7591   */\n      add\n        /* \"#utility.yul\":7572:7591   */\n      swap1\n      pop\n        /* \"#utility.yul\":7231:7597   */\n      swap2\n      swap1\n      pop\n      jump\t// out\n        /* \"#utility.yul\":7603:8001   */\n    tag_368:\n        /* \"#utility.yul\":7762:7765   */\n      0x00\n        /* \"#utility.yul\":7783:7866   */\n      tag_370\n        /* \"#utility.yul\":7864:7865   */\n      0x00\n        /* \"#utility.yul\":7859:7862   */\n      dup4\n        /* \"#utility.yul\":7783:7866   */\n      tag_371\n      jump\t// in\n    tag_370:\n        /* \"#utility.yul\":7776:7866   */\n      swap2\n      pop\n        /* \"#utility.yul\":7875:7968   */\n      tag_372\n        /* \"#utility.yul\":7964:7967   */\n      dup3\n        /* \"#utility.yul\":7875:7968   */\n      tag_373\n      jump\t// in\n    tag_372:\n        /* \"#utility.yul\":7993:7994   */\n      0x00\n        /* \"#utility.yul\":7988:7991   */\n      dup3\n        /* \"#utility.yul\":7984:7995   */\n      add\n        /* \"#utility.yul\":7977:7995   */\n      swap1\n      pop\n        /* \"#utility.yul\":7603:8001   */\n      swap2\n      swap1\n      pop\n      jump\t// out\n        /* \"#utility.yul\":8007:8409   */\n    tag_374:\n        /* \"#utility.yul\":8167:8170   */\n      0x00\n        /* \"#utility.yul\":8188:8273   */\n      tag_376\n        /* \"#utility.yul\":8270:8272   */\n      0x17\n        /* \"#utility.yul\":8265:8268   */\n      dup4\n        /* \"#utility.yul\":8188:8273   */\n      tag_331\n      jump\t// in\n    tag_376:\n        /* \"#utility.yul\":8181:8273   */\n      swap2\n      pop\n        /* \"#utility.yul\":8282:8375   */\n      tag_377\n        /* \"#utility.yul\":8371:8374   */\n      dup3\n        /* \"#utility.yul\":8282:8375   */\n      tag_378\n      jump\t// in\n    tag_377:\n        /* \"#utility.yul\":8400:8402   */\n      0x17\n        /* \"#utility.yul\":8395:8398   */\n      dup3\n        /* \"#utility.yul\":8391:8403   */\n      add\n        /* \"#utility.yul\":8384:8403   */\n      swap1\n      pop\n        /* \"#utility.yul\":8007:8409   */\n      swap2\n      swap1\n      pop\n      jump\t// out\n        /* \"#utility.yul\":8415:8781   */\n    tag_379:\n        /* \"#utility.yul\":8557:8560   */\n      0x00\n        /* \"#utility.yul\":8578:8645   */\n      tag_381\n        /* \"#utility.yul\":8642:8644   */\n      0x0f\n        /* \"#utility.yul\":8637:8640   */\n      dup4\n        /* \"#utility.yul\":8578:8645   */\n      tag_322\n      jump\t// in\n    tag_381:\n        /* \"#utility.yul\":8571:8645   */\n      swap2\n      pop\n        /* \"#utility.yul\":8654:8747   */\n      tag_382\n        /* \"#utility.yul\":8743:8746   */\n      dup3\n        /* \"#utility.yul\":8654:8747   */\n      tag_383\n      jump\t// in\n    tag_382:\n        /* \"#utility.yul\":8772:8774   */\n      0x20\n        /* \"#utility.yul\":8767:8770   */\n      dup3\n        /* \"#utility.yul\":8763:8775   */\n      add\n        /* \"#utility.yul\":8756:8775   */\n      swap1\n      pop\n        /* \"#utility.yul\":8415:8781   */\n      swap2\n      swap1\n      pop\n      jump\t// out\n        /* \"#utility.yul\":8787:9189   */\n    tag_384:\n        /* \"#utility.yul\":8947:8950   */\n      0x00\n        /* \"#utility.yul\":8968:9053   */\n      tag_386\n        /* \"#utility.yul\":9050:9052   */\n      0x11\n        /* \"#utility.yul\":9045:9048   */\n      dup4\n        /* \"#utility.yul\":8968:9053   */\n      tag_331\n      jump\t// in\n    tag_386:\n        /* \"#utility.yul\":8961:9053   */\n      swap2\n      pop\n        /* \"#utility.yul\":9062:9155   */\n      tag_387\n        /* \"#utility.yul\":9151:9154   */\n      dup3\n        /* \"#utility.yul\":9062:9155   */\n      tag_388\n      jump\t// in\n    tag_387:\n        /* \"#utility.yul\":9180:9182   */\n      0x11\n        /* \"#utility.yul\":9175:9178   */\n      dup3\n        /* \"#utility.yul\":9171:9183   */\n      add\n        /* \"#utility.yul\":9164:9183   */\n      swap1\n      pop\n        /* \"#utility.yul\":8787:9189   */\n      swap2\n      swap1\n      pop\n      jump\t// out\n        /* \"#utility.yul\":9195:9561   */\n    tag_389:\n        /* \"#utility.yul\":9337:9340   */\n      0x00\n        /* \"#utility.yul\":9358:9425   */\n      tag_391\n        /* \"#utility.yul\":9422:9424   */\n      0x2f\n        /* \"#utility.yul\":9417:9420   */\n      dup4\n        /* \"#utility.yul\":9358:9425   */\n      tag_322\n      jump\t// in\n    tag_391:\n        /* \"#utility.yul\":9351:9425   */\n      swap2\n      pop\n        /* \"#utility.yul\":9434:9527   */\n      tag_392\n        /* \"#utility.yul\":9523:9526   */\n      dup3\n        /* \"#utility.yul\":9434:9527   */\n      tag_393\n      jump\t// in\n    tag_392:\n        /* \"#utility.yul\":9552:9554   */\n      0x40\n        /* \"#utility.yul\":9547:9550   */\n      dup3\n        /* \"#utility.yul\":9543:9555   */\n      add\n        /* \"#utility.yul\":9536:9555   */\n      swap1\n      pop\n        /* \"#utility.yul\":9195:9561   */\n      swap2\n      swap1\n      pop\n      jump\t// out\n        /* \"#utility.yul\":9567:9685   */\n    tag_394:\n        /* \"#utility.yul\":9654:9678   */\n      tag_396\n        /* \"#utility.yul\":9672:9677   */\n      dup2\n        /* \"#utility.yul\":9654:9678   */\n      tag_397\n      jump\t// in\n    tag_396:\n        /* \"#utility.yul\":9649:9652   */\n      dup3\n        /* \"#utility.yul\":9642:9679   */\n      mstore\n        /* \"#utility.yul\":9567:9685   */\n      pop\n      pop\n      jump\t// out\n        /* \"#utility.yul\":9691:10070   */\n    tag_188:\n        /* \"#utility.yul\":9875:9878   */\n      0x00\n        /* \"#utility.yul\":9897:10044   */\n      tag_399\n        /* \"#utility.yul\":10040:10043   */\n      dup3\n        /* \"#utility.yul\":9897:10044   */\n      tag_368\n      jump\t// in\n    tag_399:\n        /* \"#utility.yul\":9890:10044   */\n      swap2\n      pop\n        /* \"#utility.yul\":10061:10064   */\n      dup2\n        /* \"#utility.yul\":10054:10064   */\n      swap1\n      pop\n        /* \"#utility.yul\":9691:10070   */\n      swap2\n      swap1\n      pop\n      jump\t// out\n        /* \"#utility.yul\":10076:11043   */\n    tag_217:\n        /* \"#utility.yul\":10458:10461   */\n      0x00\n        /* \"#utility.yul\":10480:10628   */\n      tag_401\n        /* \"#utility.yul\":10624:10627   */\n      dup3\n        /* \"#utility.yul\":10480:10628   */\n      tag_374\n      jump\t// in\n    tag_401:\n        /* \"#utility.yul\":10473:10628   */\n      swap2\n      pop\n        /* \"#utility.yul\":10645:10740   */\n      tag_402\n        /* \"#utility.yul\":10736:10739   */\n      dup3\n        /* \"#utility.yul\":10727:10733   */\n      dup6\n        /* \"#utility.yul\":10645:10740   */\n      tag_327\n      jump\t// in\n    tag_402:\n        /* \"#utility.yul\":10638:10740   */\n      swap2\n      pop\n        /* \"#utility.yul\":10757:10905   */\n      tag_403\n        /* \"#utility.yul\":10901:10904   */\n      dup3\n        /* \"#utility.yul\":10757:10905   */\n      tag_384\n      jump\t// in\n    tag_403:\n        /* \"#utility.yul\":10750:10905   */\n      swap2\n      pop\n        /* \"#utility.yul\":10922:11017   */\n      tag_404\n        /* \"#utility.yul\":11013:11016   */\n      dup3\n        /* \"#utility.yul\":11004:11010   */\n      dup5\n        /* \"#utility.yul\":10922:11017   */\n      tag_327\n      jump\t// in\n    tag_404:\n        /* \"#utility.yul\":10915:11017   */\n      swap2\n      pop\n        /* \"#utility.yul\":11034:11037   */\n      dup2\n        /* \"#utility.yul\":11027:11037   */\n      swap1\n      pop\n        /* \"#utility.yul\":10076:11043   */\n      swap4\n      swap3\n      pop\n      pop\n      pop\n      jump\t// out\n        /* \"#utility.yul\":11049:11271   */\n    tag_95:\n        /* \"#utility.yul\":11142:11146   */\n      0x00\n        /* \"#utility.yul\":11180:11182   */\n      0x20\n        /* \"#utility.yul\":11169:11178   */\n      dup3\n        /* \"#utility.yul\":11165:11183   */\n      add\n        /* \"#utility.yul\":11157:11183   */\n      swap1\n      pop\n        /* \"#utility.yul\":11193:11264   */\n      tag_406\n        /* \"#utility.yul\":11261:11262   */\n      0x00\n        /* \"#utility.yul\":11250:11259   */\n      dup4\n        /* \"#utility.yul\":11246:11263   */\n      add\n        /* \"#utility.yul\":11237:11243   */\n      dup5\n        /* \"#utility.yul\":11193:11264   */\n      tag_305\n      jump\t// in\n    tag_406:\n        /* \"#utility.yul\":11049:11271   */\n      swap3\n      swap2\n      pop\n      pop\n      jump\t// out\n        /* \"#utility.yul\":11277:11719   */\n    tag_152:\n        /* \"#utility.yul\":11426:11430   */\n      0x00\n        /* \"#utility.yul\":11464:11466   */\n      0x60\n        /* \"#utility.yul\":11453:11462   */\n      dup3\n        /* \"#utility.yul\":11449:11467   */\n      add\n        /* \"#utility.yul\":11441:11467   */\n      swap1\n      pop\n        /* \"#utility.yul\":11477:11548   */\n      tag_408\n        /* \"#utility.yul\":11545:11546   */\n      0x00\n        /* \"#utility.yul\":11534:11543   */\n      dup4\n        /* \"#utility.yul\":11530:11547   */\n      add\n        /* \"#utility.yul\":11521:11527   */\n      dup7\n        /* \"#utility.yul\":11477:11548   */\n      tag_305\n      jump\t// in\n    tag_408:\n        /* \"#utility.yul\":11558:11630   */\n      tag_409\n        /* \"#utility.yul\":11626:11628   */\n      0x20\n        /* \"#utility.yul\":11615:11624   */\n      dup4\n        /* \"#utility.yul\":11611:11629   */\n      add\n        /* \"#utility.yul\":11602:11608   */\n      dup6\n        /* \"#utility.yul\":11558:11630   */\n      tag_305\n      jump\t// in\n    tag_409:\n        /* \"#utility.yul\":11640:11712   */\n      tag_410\n        /* \"#utility.yul\":11708:11710   */\n      0x40\n        /* \"#utility.yul\":11697:11706   */\n      dup4\n        /* \"#utility.yul\":11693:11711   */\n      add\n        /* \"#utility.yul\":11684:11690   */\n      dup5\n        /* \"#utility.yul\":11640:11712   */\n      tag_394\n      jump\t// in\n    tag_410:\n        /* \"#utility.yul\":11277:11719   */\n      swap5\n      swap4\n      pop\n      pop\n      pop\n      pop\n      jump\t// out\n        /* \"#utility.yul\":11725:12057   */\n    tag_122:\n        /* \"#utility.yul\":11846:11850   */\n      0x00\n        /* \"#utility.yul\":11884:11886   */\n      0x40\n        /* \"#utility.yul\":11873:11882   */\n      dup3\n        /* \"#utility.yul\":11869:11887   */\n      add\n        /* \"#utility.yul\":11861:11887   */\n      swap1\n      pop\n        /* \"#utility.yul\":11897:11968   */\n      tag_412\n        /* \"#utility.yul\":11965:11966   */\n      0x00\n        /* \"#utility.yul\":11954:11963   */\n      dup4\n        /* \"#utility.yul\":11950:11967   */\n      add\n        /* \"#utility.yul\":11941:11947   */\n      dup6\n        /* \"#utility.yul\":11897:11968   */\n      tag_305\n      jump\t// in\n    tag_412:\n        /* \"#utility.yul\":11978:12050   */\n      tag_413\n        /* \"#utility.yul\":12046:12048   */\n      0x20\n        /* \"#utility.yul\":12035:12044   */\n      dup4\n        /* \"#utility.yul\":12031:12049   */\n      add\n        /* \"#utility.yul\":12022:12028   */\n      dup5\n        /* \"#utility.yul\":11978:12050   */\n      tag_394\n      jump\t// in\n    tag_413:\n        /* \"#utility.yul\":11725:12057   */\n      swap4\n      swap3\n      pop\n      pop\n      pop\n      jump\t// out\n        /* \"#utility.yul\":12063:12273   */\n    tag_26:\n        /* \"#utility.yul\":12150:12154   */\n      0x00\n        /* \"#utility.yul\":12188:12190   */\n      0x20\n        /* \"#utility.yul\":12177:12186   */\n      dup3\n        /* \"#utility.yul\":12173:12191   */\n      add\n        /* \"#utility.yul\":12165:12191   */\n      swap1\n      pop\n        /* \"#utility.yul\":12201:12266   */\n      tag_415\n        /* \"#utility.yul\":12263:12264   */\n      0x00\n        /* \"#utility.yul\":12252:12261   */\n      dup4\n        /* \"#utility.yul\":12248:12265   */\n      add\n        /* \"#utility.yul\":12239:12245   */\n      dup5\n        /* \"#utility.yul\":12201:12266   */\n      tag_309\n      jump\t// in\n    tag_415:\n        /* \"#utility.yul\":12063:12273   */\n      swap3\n      swap2\n      pop\n      pop\n      jump\t// out\n        /* \"#utility.yul\":12279:12501   */\n    tag_40:\n        /* \"#utility.yul\":12372:12376   */\n      0x00\n        /* \"#utility.yul\":12410:12412   */\n      0x20\n        /* \"#utility.yul\":12399:12408   */\n      dup3\n        /* \"#utility.yul\":12395:12413   */\n      add\n        /* \"#utility.yul\":12387:12413   */\n      swap1\n      pop\n        /* \"#utility.yul\":12423:12494   */\n      tag_417\n        /* \"#utility.yul\":12491:12492   */\n      0x00\n        /* \"#utility.yul\":12480:12489   */\n      dup4\n        /* \"#utility.yul\":12476:12493   */\n      add\n        /* \"#utility.yul\":12467:12473   */\n      dup5\n        /* \"#utility.yul\":12423:12494   */\n      tag_313\n      jump\t// in\n    tag_417:\n        /* \"#utility.yul\":12279:12501   */\n      swap3\n      swap2\n      pop\n      pop\n      jump\t// out\n        /* \"#utility.yul\":12507:12820   */\n    tag_219:\n        /* \"#utility.yul\":12620:12624   */\n      0x00\n        /* \"#utility.yul\":12658:12660   */\n      0x20\n        /* \"#utility.yul\":12647:12656   */\n      dup3\n        /* \"#utility.yul\":12643:12661   */\n      add\n        /* \"#utility.yul\":12635:12661   */\n      swap1\n      pop\n        /* \"#utility.yul\":12707:12716   */\n      dup2\n        /* \"#utility.yul\":12701:12705   */\n      dup2\n        /* \"#utility.yul\":12697:12717   */\n      sub\n        /* \"#utility.yul\":12693:12694   */\n      0x00\n        /* \"#utility.yul\":12682:12691   */\n      dup4\n        /* \"#utility.yul\":12678:12695   */\n      add\n        /* \"#utility.yul\":12671:12718   */\n      mstore\n        /* \"#utility.yul\":12735:12813   */\n      tag_419\n        /* \"#utility.yul\":12808:12812   */\n      dup2\n        /* \"#utility.yul\":12799:12805   */\n      dup5\n        /* \"#utility.yul\":12735:12813   */\n      tag_317\n      jump\t// in\n    tag_419:\n        /* \"#utility.yul\":12727:12813   */\n      swap1\n      pop\n        /* \"#utility.yul\":12507:12820   */\n      swap3\n      swap2\n      pop\n      pop\n      jump\t// out\n        /* \"#utility.yul\":12826:13245   */\n    tag_113:\n        /* \"#utility.yul\":12992:12996   */\n      0x00\n        /* \"#utility.yul\":13030:13032   */\n      0x20\n        /* \"#utility.yul\":13019:13028   */\n      dup3\n        /* \"#utility.yul\":13015:13033   */\n      add\n        /* \"#utility.yul\":13007:13033   */\n      swap1\n      pop\n        /* \"#utility.yul\":13079:13088   */\n      dup2\n        /* \"#utility.yul\":13073:13077   */\n      dup2\n        /* \"#utility.yul\":13069:13089   */\n      sub\n        /* \"#utility.yul\":13065:13066   */\n      0x00\n        /* \"#utility.yul\":13054:13063   */\n      dup4\n        /* \"#utility.yul\":13050:13067   */\n      add\n        /* \"#utility.yul\":13043:13090   */\n      mstore\n        /* \"#utility.yul\":13107:13238   */\n      tag_421\n        /* \"#utility.yul\":13233:13237   */\n      dup2\n        /* \"#utility.yul\":13107:13238   */\n      tag_333\n      jump\t// in\n    tag_421:\n        /* \"#utility.yul\":13099:13238   */\n      swap1\n      pop\n        /* \"#utility.yul\":12826:13245   */\n      swap2\n      swap1\n      pop\n      jump\t// out\n        /* \"#utility.yul\":13251:13670   */\n    tag_245:\n        /* \"#utility.yul\":13417:13421   */\n      0x00\n        /* \"#utility.yul\":13455:13457   */\n      0x20\n        /* \"#utility.yul\":13444:13453   */\n      dup3\n        /* \"#utility.yul\":13440:13458   */\n      add\n        /* \"#utility.yul\":13432:13458   */\n      swap1\n      pop\n        /* \"#utility.yul\":13504:13513   */\n      dup2\n        /* \"#utility.yul\":13498:13502   */\n      dup2\n        /* \"#utility.yul\":13494:13514   */\n      sub\n        /* \"#utility.yul\":13490:13491   */\n      0x00\n        /* \"#utility.yul\":13479:13488   */\n      dup4\n        /* \"#utility.yul\":13475:13492   */\n      add\n        /* \"#utility.yul\":13468:13515   */\n      mstore\n        /* \"#utility.yul\":13532:13663   */\n      tag_423\n        /* \"#utility.yul\":13658:13662   */\n      dup2\n        /* \"#utility.yul\":13532:13663   */\n      tag_338\n      jump\t// in\n    tag_423:\n        /* \"#utility.yul\":13524:13663   */\n      swap1\n      pop\n        /* \"#utility.yul\":13251:13670   */\n      swap2\n      swap1\n      pop\n      jump\t// out\n        /* \"#utility.yul\":13676:14095   */\n    tag_186:\n        /* \"#utility.yul\":13842:13846   */\n      0x00\n        /* \"#utility.yul\":13880:13882   */\n      0x20\n        /* \"#utility.yul\":13869:13878   */\n      dup3\n        /* \"#utility.yul\":13865:13883   */\n      add\n        /* \"#utility.yul\":13857:13883   */\n      swap1\n      pop\n        /* \"#utility.yul\":13929:13938   */\n      dup2\n        /* \"#utility.yul\":13923:13927   */\n      dup2\n        /* \"#utility.yul\":13919:13939   */\n      sub\n        /* \"#utility.yul\":13915:13916   */\n      0x00\n        /* \"#utility.yul\":13904:13913   */\n      dup4\n        /* \"#utility.yul\":13900:13917   */\n      add\n        /* \"#utility.yul\":13893:13940   */\n      mstore\n        /* \"#utility.yul\":13957:14088   */\n      tag_425\n        /* \"#utility.yul\":14083:14087   */\n      dup2\n        /* \"#utility.yul\":13957:14088   */\n      tag_343\n      jump\t// in\n    tag_425:\n        /* \"#utility.yul\":13949:14088   */\n      swap1\n      pop\n        /* \"#utility.yul\":13676:14095   */\n      swap2\n      swap1\n      pop\n      jump\t// out\n        /* \"#utility.yul\":14101:14520   */\n    tag_194:\n        /* \"#utility.yul\":14267:14271   */\n      0x00\n        /* \"#utility.yul\":14305:14307   */\n      0x20\n        /* \"#utility.yul\":14294:14303   */\n      dup3\n        /* \"#utility.yul\":14290:14308   */\n      add\n        /* \"#utility.yul\":14282:14308   */\n      swap1\n      pop\n        /* \"#utility.yul\":14354:14363   */\n      dup2\n        /* \"#utility.yul\":14348:14352   */\n      dup2\n        /* \"#utility.yul\":14344:14364   */\n      sub\n        /* \"#utility.yul\":14340:14341   */\n      0x00\n        /* \"#utility.yul\":14329:14338   */\n      dup4\n        /* \"#utility.yul\":14325:14342   */\n      add\n        /* \"#utility.yul\":14318:14365   */\n      mstore\n        /* \"#utility.yul\":14382:14513   */\n      tag_427\n        /* \"#utility.yul\":14508:14512   */\n      dup2\n        /* \"#utility.yul\":14382:14513   */\n      tag_348\n      jump\t// in\n    tag_427:\n        /* \"#utility.yul\":14374:14513   */\n      swap1\n      pop\n        /* \"#utility.yul\":14101:14520   */\n      swap2\n      swap1\n      pop\n      jump\t// out\n        /* \"#utility.yul\":14526:14945   */\n    tag_110:\n        /* \"#utility.yul\":14692:14696   */\n      0x00\n        /* \"#utility.yul\":14730:14732   */\n      0x20\n        /* \"#utility.yul\":14719:14728   */\n      dup3\n        /* \"#utility.yul\":14715:14733   */\n      add\n        /* \"#utility.yul\":14707:14733   */\n      swap1\n      pop\n        /* \"#utility.yul\":14779:14788   */\n      dup2\n        /* \"#utility.yul\":14773:14777   */\n      dup2\n        /* \"#utility.yul\":14769:14789   */\n      sub\n        /* \"#utility.yul\":14765:14766   */\n      0x00\n        /* \"#utility.yul\":14754:14763   */\n      dup4\n        /* \"#utility.yul\":14750:14767   */\n      add\n        /* \"#utility.yul\":14743:14790   */\n      mstore\n        /* \"#utility.yul\":14807:14938   */\n      tag_429\n        /* \"#utility.yul\":14933:14937   */\n      dup2\n        /* \"#utility.yul\":14807:14938   */\n      tag_353\n      jump\t// in\n    tag_429:\n        /* \"#utility.yul\":14799:14938   */\n      swap1\n      pop\n        /* \"#utility.yul\":14526:14945   */\n      swap2\n      swap1\n      pop\n      jump\t// out\n        /* \"#utility.yul\":14951:15370   */\n    tag_159:\n        /* \"#utility.yul\":15117:15121   */\n      0x00\n        /* \"#utility.yul\":15155:15157   */\n      0x20\n        /* \"#utility.yul\":15144:15153   */\n      dup3\n        /* \"#utility.yul\":15140:15158   */\n      add\n        /* \"#utility.yul\":15132:15158   */\n      swap1\n      pop\n        /* \"#utility.yul\":15204:15213   */\n      dup2\n        /* \"#utility.yul\":15198:15202   */\n      dup2\n        /* \"#utility.yul\":15194:15214   */\n      sub\n        /* \"#utility.yul\":15190:15191   */\n      0x00\n        /* \"#utility.yul\":15179:15188   */\n      dup4\n        /* \"#utility.yul\":15175:15192   */\n      add\n        /* \"#utility.yul\":15168:15215   */\n      mstore\n        /* \"#utility.yul\":15232:15363   */\n      tag_431\n        /* \"#utility.yul\":15358:15362   */\n      dup2\n        /* \"#utility.yul\":15232:15363   */\n      tag_358\n      jump\t// in\n    tag_431:\n        /* \"#utility.yul\":15224:15363   */\n      swap1\n      pop\n        /* \"#utility.yul\":14951:15370   */\n      swap2\n      swap1\n      pop\n      jump\t// out\n        /* \"#utility.yul\":15376:15795   */\n    tag_116:\n        /* \"#utility.yul\":15542:15546   */\n      0x00\n        /* \"#utility.yul\":15580:15582   */\n      0x20\n        /* \"#utility.yul\":15569:15578   */\n      dup3\n        /* \"#utility.yul\":15565:15583   */\n      add\n        /* \"#utility.yul\":15557:15583   */\n      swap1\n      pop\n        /* \"#utility.yul\":15629:15638   */\n      dup2\n        /* \"#utility.yul\":15623:15627   */\n      dup2\n        /* \"#utility.yul\":15619:15639   */\n      sub\n        /* \"#utility.yul\":15615:15616   */\n      0x00\n        /* \"#utility.yul\":15604:15613   */\n      dup4\n        /* \"#utility.yul\":15600:15617   */\n      add\n        /* \"#utility.yul\":15593:15640   */\n      mstore\n        /* \"#utility.yul\":15657:15788   */\n      tag_433\n        /* \"#utility.yul\":15783:15787   */\n      dup2\n        /* \"#utility.yul\":15657:15788   */\n      tag_363\n      jump\t// in\n    tag_433:\n        /* \"#utility.yul\":15649:15788   */\n      swap1\n      pop\n        /* \"#utility.yul\":15376:15795   */\n      swap2\n      swap1\n      pop\n      jump\t// out\n        /* \"#utility.yul\":15801:16220   */\n    tag_130:\n        /* \"#utility.yul\":15967:15971   */\n      0x00\n        /* \"#utility.yul\":16005:16007   */\n      0x20\n        /* \"#utility.yul\":15994:16003   */\n      dup3\n        /* \"#utility.yul\":15990:16008   */\n      add\n        /* \"#utility.yul\":15982:16008   */\n      swap1\n      pop\n        /* \"#utility.yul\":16054:16063   */\n      dup2\n        /* \"#utility.yul\":16048:16052   */\n      dup2\n        /* \"#utility.yul\":16044:16064   */\n      sub\n        /* \"#utility.yul\":16040:16041   */\n      0x00\n        /* \"#utility.yul\":16029:16038   */\n      dup4\n        /* \"#utility.yul\":16025:16042   */\n      add\n        /* \"#utility.yul\":16018:16065   */\n      mstore\n        /* \"#utility.yul\":16082:16213   */\n      tag_435\n        /* \"#utility.yul\":16208:16212   */\n      dup2\n        /* \"#utility.yul\":16082:16213   */\n      tag_379\n      jump\t// in\n    tag_435:\n        /* \"#utility.yul\":16074:16213   */\n      swap1\n      pop\n        /* \"#utility.yul\":15801:16220   */\n      swap2\n      swap1\n      pop\n      jump\t// out\n        /* \"#utility.yul\":16226:16645   */\n    tag_147:\n        /* \"#utility.yul\":16392:16396   */\n      0x00\n        /* \"#utility.yul\":16430:16432   */\n      0x20\n        /* \"#utility.yul\":16419:16428   */\n      dup3\n        /* \"#utility.yul\":16415:16433   */\n      add\n        /* \"#utility.yul\":16407:16433   */\n      swap1\n      pop\n        /* \"#utility.yul\":16479:16488   */\n      dup2\n        /* \"#utility.yul\":16473:16477   */\n      dup2\n        /* \"#utility.yul\":16469:16489   */\n      sub\n        /* \"#utility.yul\":16465:16466   */\n      0x00\n        /* \"#utility.yul\":16454:16463   */\n      dup4\n        /* \"#utility.yul\":16450:16467   */\n      add\n        /* \"#utility.yul\":16443:16490   */\n      mstore\n        /* \"#utility.yul\":16507:16638   */\n      tag_437\n        /* \"#utility.yul\":16633:16637   */\n      dup2\n        /* \"#utility.yul\":16507:16638   */\n      tag_389\n      jump\t// in\n    tag_437:\n        /* \"#utility.yul\":16499:16638   */\n      swap1\n      pop\n        /* \"#utility.yul\":16226:16645   */\n      swap2\n      swap1\n      pop\n      jump\t// out\n        /* \"#utility.yul\":16651:16873   */\n    tag_69:\n        /* \"#utility.yul\":16744:16748   */\n      0x00\n        /* \"#utility.yul\":16782:16784   */\n      0x20\n        /* \"#utility.yul\":16771:16780   */\n      dup3\n        /* \"#utility.yul\":16767:16785   */\n      add\n        /* \"#utility.yul\":16759:16785   */\n      swap1\n      pop\n        /* \"#utility.yul\":16795:16866   */\n      tag_439\n        /* \"#utility.yul\":16863:16864   */\n      0x00\n        /* \"#utility.yul\":16852:16861   */\n      dup4\n        /* \"#utility.yul\":16848:16865   */\n      add\n        /* \"#utility.yul\":16839:16845   */\n      dup5\n        /* \"#utility.yul\":16795:16866   */\n      tag_394\n      jump\t// in\n    tag_439:\n        /* \"#utility.yul\":16651:16873   */\n      swap3\n      swap2\n      pop\n      pop\n      jump\t// out\n        /* \"#utility.yul\":16879:17321   */\n    tag_33:\n        /* \"#utility.yul\":17028:17032   */\n      0x00\n        /* \"#utility.yul\":17066:17068   */\n      0x60\n        /* \"#utility.yul\":17055:17064   */\n      dup3\n        /* \"#utility.yul\":17051:17069   */\n      add\n        /* \"#utility.yul\":17043:17069   */\n      swap1\n      pop\n        /* \"#utility.yul\":17079:17150   */\n      tag_441\n        /* \"#utility.yul\":17147:17148   */\n      0x00\n        /* \"#utility.yul\":17136:17145   */\n      dup4\n        /* \"#utility.yul\":17132:17149   */\n      add\n        /* \"#utility.yul\":17123:17129   */\n      dup7\n        /* \"#utility.yul\":17079:17150   */\n      tag_394\n      jump\t// in\n    tag_441:\n        /* \"#utility.yul\":17160:17232   */\n      tag_442\n        /* \"#utility.yul\":17228:17230   */\n      0x20\n        /* \"#utility.yul\":17217:17226   */\n      dup4\n        /* \"#utility.yul\":17213:17231   */\n      add\n        /* \"#utility.yul\":17204:17210   */\n      dup6\n        /* \"#utility.yul\":17160:17232   */\n      tag_394\n      jump\t// in\n    tag_442:\n        /* \"#utility.yul\":17242:17314   */\n      tag_443\n        /* \"#utility.yul\":17310:17312   */\n      0x40\n        /* \"#utility.yul\":17299:17308   */\n      dup4\n        /* \"#utility.yul\":17295:17313   */\n      add\n        /* \"#utility.yul\":17286:17292   */\n      dup5\n        /* \"#utility.yul\":17242:17314   */\n      tag_394\n      jump\t// in\n    tag_443:\n        /* \"#utility.yul\":16879:17321   */\n      swap5\n      swap4\n      pop\n      pop\n      pop\n      pop\n      jump\t// out\n        /* \"#utility.yul\":17408:17507   */\n    tag_320:\n        /* \"#utility.yul\":17460:17466   */\n      0x00\n        /* \"#utility.yul\":17494:17499   */\n      dup2\n        /* \"#utility.yul\":17488:17500   */\n      mload\n        /* \"#utility.yul\":17478:17500   */\n      swap1\n      pop\n        /* \"#utility.yul\":17408:17507   */\n      swap2\n      swap1\n      pop\n      jump\t// out\n        /* \"#utility.yul\":17513:17660   */\n    tag_371:\n        /* \"#utility.yul\":17614:17625   */\n      0x00\n        /* \"#utility.yul\":17651:17654   */\n      dup2\n        /* \"#utility.yul\":17636:17654   */\n      swap1\n      pop\n        /* \"#utility.yul\":17513:17660   */\n      swap3\n      swap2\n      pop\n      pop\n      jump\t// out\n        /* \"#utility.yul\":17666:17835   */\n    tag_322:\n        /* \"#utility.yul\":17750:17761   */\n      0x00\n        /* \"#utility.yul\":17784:17790   */\n      dup3\n        /* \"#utility.yul\":17779:17782   */\n      dup3\n        /* \"#utility.yul\":17772:17791   */\n      mstore\n        /* \"#utility.yul\":17824:17828   */\n      0x20\n        /* \"#utility.yul\":17819:17822   */\n      dup3\n        /* \"#utility.yul\":17815:17829   */\n      add\n        /* \"#utility.yul\":17800:17829   */\n      swap1\n      pop\n        /* \"#utility.yul\":17666:17835   */\n      swap3\n      swap2\n      pop\n      pop\n      jump\t// out\n        /* \"#utility.yul\":17841:17989   */\n    tag_331:\n        /* \"#utility.yul\":17943:17954   */\n      0x00\n        /* \"#utility.yul\":17980:17983   */\n      dup2\n        /* \"#utility.yul\":17965:17983   */\n      swap1\n      pop\n        /* \"#utility.yul\":17841:17989   */\n      swap3\n      swap2\n      pop\n      pop\n      jump\t// out\n        /* \"#utility.yul\":17995:18300   */\n    tag_132:\n        /* \"#utility.yul\":18035:18038   */\n      0x00\n        /* \"#utility.yul\":18054:18074   */\n      tag_451\n        /* \"#utility.yul\":18072:18073   */\n      dup3\n        /* \"#utility.yul\":18054:18074   */\n      tag_397\n      jump\t// in\n    tag_451:\n        /* \"#utility.yul\":18049:18074   */\n      swap2\n      pop\n        /* \"#utility.yul\":18088:18108   */\n      tag_452\n        /* \"#utility.yul\":18106:18107   */\n      dup4\n        /* \"#utility.yul\":18088:18108   */\n      tag_397\n      jump\t// in\n    tag_452:\n        /* \"#utility.yul\":18083:18108   */\n      swap3\n      pop\n        /* \"#utility.yul\":18242:18243   */\n      dup3\n        /* \"#utility.yul\":18174:18240   */\n      0xffffffffffffffffffffffffffffffffffffffffffffffffffffffffffffffff\n        /* \"#utility.yul\":18170:18244   */\n      sub\n        /* \"#utility.yul\":18167:18168   */\n      dup3\n        /* \"#utility.yul\":18164:18245   */\n      gt\n        /* \"#utility.yul\":18161:18268   */\n      iszero\n      tag_453\n      jumpi\n        /* \"#utility.yul\":18248:18266   */\n      tag_454\n      tag_455\n      jump\t// in\n    tag_454:\n        /* \"#utility.yul\":18161:18268   */\n    tag_453:\n        /* \"#utility.yul\":18292:18293   */\n      dup3\n        /* \"#utility.yul\":18289:18290   */\n      dup3\n        /* \"#utility.yul\":18285:18294   */\n      add\n        /* \"#utility.yul\":18278:18294   */\n      swap1\n      pop\n        /* \"#utility.yul\":17995:18300   */\n      swap3\n      swap2\n      pop\n      pop\n      jump\t// out\n        /* \"#utility.yul\":18306:18491   */\n    tag_165:\n        /* \"#utility.yul\":18346:18347   */\n      0x00\n        /* \"#utility.yul\":18363:18383   */\n      tag_457\n        /* \"#utility.yul\":18381:18382   */\n      dup3\n        /* \"#utility.yul\":18363:18383   */\n      tag_397\n      jump\t// in\n    tag_457:\n        /* \"#utility.yul\":18358:18383   */\n      swap2\n      pop\n        /* \"#utility.yul\":18397:18417   */\n      tag_458\n        /* \"#utility.yul\":18415:18416   */\n      dup4\n        /* \"#utility.yul\":18397:18417   */\n      tag_397\n      jump\t// in\n    tag_458:\n        /* \"#utility.yul\":18392:18417   */\n      swap3\n      pop\n        /* \"#utility.yul\":18436:18437   */\n      dup3\n        /* \"#utility.yul\":18426:18461   */\n      tag_459\n      jumpi\n        /* \"#utility.yul\":18441:18459   */\n      tag_460\n      tag_461\n      jump\t// in\n    tag_460:\n        /* \"#utility.yul\":18426:18461   */\n    tag_459:\n        /* \"#utility.yul\":18483:18484   */\n      dup3\n        /* \"#utility.yul\":18480:18481   */\n      dup3\n        /* \"#utility.yul\":18476:18485   */\n      div\n        /* \"#utility.yul\":18471:18485   */\n      swap1\n      pop\n        /* \"#utility.yul\":18306:18491   */\n      swap3\n      swap2\n      pop\n      pop\n      jump\t// out\n        /* \"#utility.yul\":18497:18845   */\n    tag_163:\n        /* \"#utility.yul\":18537:18544   */\n      0x00\n        /* \"#utility.yul\":18560:18580   */\n      tag_463\n        /* \"#utility.yul\":18578:18579   */\n      dup3\n        /* \"#utility.yul\":18560:18580   */\n      tag_397\n      jump\t// in\n    tag_463:\n        /* \"#utility.yul\":18555:18580   */\n      swap2\n      pop\n        /* \"#utility.yul\":18594:18614   */\n      tag_464\n        /* \"#utility.yul\":18612:18613   */\n      dup4\n        /* \"#utility.yul\":18594:18614   */\n      tag_397\n      jump\t// in\n    tag_464:\n        /* \"#utility.yul\":18589:18614   */\n      swap3\n      pop\n        /* \"#utility.yul\":18782:18783   */\n      dup2\n        /* \"#utility.yul\":18714:18780   */\n      0xffffffffffffffffffffffffffffffffffffffffffffffffffffffffffffffff\n        /* \"#utility.yul\":18710:18784   */\n      div\n        /* \"#utility.yul\":18707:18708   */\n      dup4\n        /* \"#utility.yul\":18704:18785   */\n      gt\n        /* \"#utility.yul\":18699:18700   */\n      dup3\n        /* \"#utility.yul\":18692:18701   */\n      iszero\n        /* \"#utility.yul\":18685:18702   */\n      iszero\n        /* \"#utility.yul\":18681:18786   */\n      and\n        /* \"#utility.yul\":18678:18809   */\n      iszero\n      tag_465\n      jumpi\n        /* \"#utility.yul\":18789:18807   */\n      tag_466\n      tag_455\n      jump\t// in\n    tag_466:\n        /* \"#utility.yul\":18678:18809   */\n    tag_465:\n        /* \"#utility.yul\":18837:18838   */\n      dup3\n        /* \"#utility.yul\":18834:18835   */\n      dup3\n        /* \"#utility.yul\":18830:18839   */\n      mul\n        /* \"#utility.yul\":18819:18839   */\n      swap1\n      pop\n        /* \"#utility.yul\":18497:18845   */\n      swap3\n      swap2\n      pop\n      pop\n      jump\t// out\n        /* \"#utility.yul\":18851:19042   */\n    tag_118:\n        /* \"#utility.yul\":18891:18895   */\n      0x00\n        /* \"#utility.yul\":18911:18931   */\n      tag_468\n        /* \"#utility.yul\":18929:18930   */\n      dup3\n        /* \"#utility.yul\":18911:18931   */\n      tag_397\n      jump\t// in\n    tag_468:\n        /* \"#utility.yul\":18906:18931   */\n      swap2\n      pop\n        /* \"#utility.yul\":18945:18965   */\n      tag_469\n        /* \"#utility.yul\":18963:18964   */\n      dup4\n        /* \"#utility.yul\":18945:18965   */\n      tag_397\n      jump\t// in\n    tag_469:\n        /* \"#utility.yul\":18940:18965   */\n      swap3\n      pop\n        /* \"#utility.yul\":18984:18985   */\n      dup3\n        /* \"#utility.yul\":18981:18982   */\n      dup3\n        /* \"#utility.yul\":18978:18986   */\n      lt\n        /* \"#utility.yul\":18975:19009   */\n      iszero\n      tag_470\n      jumpi\n        /* \"#utility.yul\":18989:19007   */\n      tag_471\n      tag_455\n      jump\t// in\n    tag_471:\n        /* \"#utility.yul\":18975:19009   */\n    tag_470:\n        /* \"#utility.yul\":19034:19035   */\n      dup3\n        /* \"#utility.yul\":19031:19032   */\n      dup3\n        /* \"#utility.yul\":19027:19036   */\n      sub\n        /* \"#utility.yul\":19019:19036   */\n      swap1\n      pop\n        /* \"#utility.yul\":18851:19042   */\n      swap3\n      swap2\n      pop\n      pop\n      jump\t// out\n        /* \"#utility.yul\":19048:19144   */\n    tag_308:\n        /* \"#utility.yul\":19085:19092   */\n      0x00\n        /* \"#utility.yul\":19114:19138   */\n      tag_473\n        /* \"#utility.yul\":19132:19137   */\n      dup3\n        /* \"#utility.yul\":19114:19138   */\n      tag_474\n      jump\t// in\n    tag_473:\n        /* \"#utility.yul\":19103:19138   */\n      swap1\n      pop\n        /* \"#utility.yul\":19048:19144   */\n      swap2\n      swap1\n      pop\n      jump\t// out\n        /* \"#utility.yul\":19150:19240   */\n    tag_312:\n        /* \"#utility.yul\":19184:19191   */\n      0x00\n        /* \"#utility.yul\":19227:19232   */\n      dup2\n        /* \"#utility.yul\":19220:19233   */\n      iszero\n        /* \"#utility.yul\":19213:19234   */\n      iszero\n        /* \"#utility.yul\":19202:19234   */\n      swap1\n      pop\n        /* \"#utility.yul\":19150:19240   */\n      swap2\n      swap1\n      pop\n      jump\t// out\n        /* \"#utility.yul\":19246:19323   */\n    tag_316:\n        /* \"#utility.yul\":19283:19290   */\n      0x00\n        /* \"#utility.yul\":19312:19317   */\n      dup2\n        /* \"#utility.yul\":19301:19317   */\n      swap1\n      pop\n        /* \"#utility.yul\":19246:19323   */\n      swap2\n      swap1\n      pop\n      jump\t// out\n        /* \"#utility.yul\":19329:19478   */\n    tag_477:\n        /* \"#utility.yul\":19365:19372   */\n      0x00\n        /* \"#utility.yul\":19405:19471   */\n      0xffffffff00000000000000000000000000000000000000000000000000000000\n        /* \"#utility.yul\":19398:19403   */\n      dup3\n        /* \"#utility.yul\":19394:19472   */\n      and\n        /* \"#utility.yul\":19383:19472   */\n      swap1\n      pop\n        /* \"#utility.yul\":19329:19478   */\n      swap2\n      swap1\n      pop\n      jump\t// out\n        /* \"#utility.yul\":19484:19610   */\n    tag_474:\n        /* \"#utility.yul\":19521:19528   */\n      0x00\n        /* \"#utility.yul\":19561:19603   */\n      0xffffffffffffffffffffffffffffffffffffffff\n        /* \"#utility.yul\":19554:19559   */\n      dup3\n        /* \"#utility.yul\":19550:19604   */\n      and\n        /* \"#utility.yul\":19539:19604   */\n      swap1\n      pop\n        /* \"#utility.yul\":19484:19610   */\n      swap2\n      swap1\n      pop\n      jump\t// out\n        /* \"#utility.yul\":19616:19693   */\n    tag_397:\n        /* \"#utility.yul\":19653:19660   */\n      0x00\n        /* \"#utility.yul\":19682:19687   */\n      dup2\n        /* \"#utility.yul\":19671:19687   */\n      swap1\n      pop\n        /* \"#utility.yul\":19616:19693   */\n      swap2\n      swap1\n      pop\n      jump\t// out\n        /* \"#utility.yul\":19699:20006   */\n    tag_324:\n        /* \"#utility.yul\":19767:19768   */\n      0x00\n        /* \"#utility.yul\":19777:19890   */\n    tag_482:\n        /* \"#utility.yul\":19791:19797   */\n      dup4\n        /* \"#utility.yul\":19788:19789   */\n      dup2\n        /* \"#utility.yul\":19785:19798   */\n      lt\n        /* \"#utility.yul\":19777:19890   */\n      iszero\n      tag_484\n      jumpi\n        /* \"#utility.yul\":19876:19877   */\n      dup1\n        /* \"#utility.yul\":19871:19874   */\n      dup3\n        /* \"#utility.yul\":19867:19878   */\n      add\n        /* \"#utility.yul\":19861:19879   */\n      mload\n        /* \"#utility.yul\":19857:19858   */\n      dup2\n        /* \"#utility.yul\":19852:19855   */\n      dup5\n        /* \"#utility.yul\":19848:19859   */\n      add\n        /* \"#utility.yul\":19841:19880   */\n      mstore\n        /* \"#utility.yul\":19813:19815   */\n      0x20\n        /* \"#utility.yul\":19810:19811   */\n      dup2\n        /* \"#utility.yul\":19806:19816   */\n      add\n        /* \"#utility.yul\":19801:19816   */\n      swap1\n      pop\n        /* \"#utility.yul\":19777:19890   */\n      jump(tag_482)\n    tag_484:\n        /* \"#utility.yul\":19908:19914   */\n      dup4\n        /* \"#utility.yul\":19905:19906   */\n      dup2\n        /* \"#utility.yul\":19902:19915   */\n      gt\n        /* \"#utility.yul\":19899:20000   */\n      iszero\n      tag_485\n      jumpi\n        /* \"#utility.yul\":19988:19989   */\n      0x00\n        /* \"#utility.yul\":19979:19985   */\n      dup5\n        /* \"#utility.yul\":19974:19977   */\n      dup5\n        /* \"#utility.yul\":19970:19986   */\n      add\n        /* \"#utility.yul\":19963:19990   */\n      mstore\n        /* \"#utility.yul\":19899:20000   */\n    tag_485:\n        /* \"#utility.yul\":19748:20006   */\n      pop\n        /* \"#utility.yul\":19699:20006   */\n      pop\n      pop\n      pop\n      jump\t// out\n        /* \"#utility.yul\":20012:20183   */\n    tag_242:\n        /* \"#utility.yul\":20051:20054   */\n      0x00\n        /* \"#utility.yul\":20074:20098   */\n      tag_487\n        /* \"#utility.yul\":20092:20097   */\n      dup3\n        /* \"#utility.yul\":20074:20098   */\n      tag_397\n      jump\t// in\n    tag_487:\n        /* \"#utility.yul\":20065:20098   */\n      swap2\n      pop\n        /* \"#utility.yul\":20120:20124   */\n      0x00\n        /* \"#utility.yul\":20113:20118   */\n      dup3\n        /* \"#utility.yul\":20110:20125   */\n      eq\n        /* \"#utility.yul\":20107:20148   */\n      iszero\n      tag_488\n      jumpi\n        /* \"#utility.yul\":20128:20146   */\n      tag_489\n      tag_455\n      jump\t// in\n    tag_489:\n        /* \"#utility.yul\":20107:20148   */\n    tag_488:\n        /* \"#utility.yul\":20175:20176   */\n      0x01\n        /* \"#utility.yul\":20168:20173   */\n      dup3\n        /* \"#utility.yul\":20164:20177   */\n      sub\n        /* \"#utility.yul\":20157:20177   */\n      swap1\n      pop\n        /* \"#utility.yul\":20012:20183   */\n      swap2\n      swap1\n      pop\n      jump\t// out\n        /* \"#utility.yul\":20189:20369   */\n    tag_455:\n        /* \"#utility.yul\":20237:20314   */\n      0x4e487b7100000000000000000000000000000000000000000000000000000000\n        /* \"#utility.yul\":20234:20235   */\n      0x00\n        /* \"#utility.yul\":20227:20315   */\n      mstore\n        /* \"#utility.yul\":20334:20338   */\n      0x11\n        /* \"#utility.yul\":20331:20332   */\n      0x04\n        /* \"#utility.yul\":20324:20339   */\n      mstore\n        /* \"#utility.yul\":20358:20362   */\n      0x24\n        /* \"#utility.yul\":20355:20356   */\n      0x00\n        /* \"#utility.yul\":20348:20363   */\n      revert\n        /* \"#utility.yul\":20375:20555   */\n    tag_461:\n        /* \"#utility.yul\":20423:20500   */\n      0x4e487b7100000000000000000000000000000000000000000000000000000000\n        /* \"#utility.yul\":20420:20421   */\n      0x00\n        /* \"#utility.yul\":20413:20501   */\n      mstore\n        /* \"#utility.yul\":20520:20524   */\n      0x12\n        /* \"#utility.yul\":20517:20518   */\n      0x04\n        /* \"#utility.yul\":20510:20525   */\n      mstore\n        /* \"#utility.yul\":20544:20548   */\n      0x24\n        /* \"#utility.yul\":20541:20542   */\n      0x00\n        /* \"#utility.yul\":20534:20549   */\n      revert\n        /* \"#utility.yul\":20561:20741   */\n    tag_229:\n        /* \"#utility.yul\":20609:20686   */\n      0x4e487b7100000000000000000000000000000000000000000000000000000000\n        /* \"#utility.yul\":20606:20607   */\n      0x00\n        /* \"#utility.yul\":20599:20687   */\n      mstore\n        /* \"#utility.yul\":20706:20710   */\n      0x32\n        /* \"#utility.yul\":20703:20704   */\n      0x04\n        /* \"#utility.yul\":20696:20711   */\n      mstore\n        /* \"#utility.yul\":20730:20734   */\n      0x24\n        /* \"#utility.yul\":20727:20728   */\n      0x00\n        /* \"#utility.yul\":20720:20735   */\n      revert\n        /* \"#utility.yul\":20747:20927   */\n    tag_225:\n        /* \"#utility.yul\":20795:20872   */\n      0x4e487b7100000000000000000000000000000000000000000000000000000000\n        /* \"#utility.yul\":20792:20793   */\n      0x00\n        /* \"#utility.yul\":20785:20873   */\n      mstore\n        /* \"#utility.yul\":20892:20896   */\n      0x41\n        /* \"#utility.yul\":20889:20890   */\n      0x04\n        /* \"#utility.yul\":20882:20897   */\n      mstore\n        /* \"#utility.yul\":20916:20920   */\n      0x24\n        /* \"#utility.yul\":20913:20914   */\n      0x00\n        /* \"#utility.yul\":20906:20921   */\n      revert\n        /* \"#utility.yul\":21056:21173   */\n    tag_273:\n        /* \"#utility.yul\":21165:21166   */\n      0x00\n        /* \"#utility.yul\":21162:21163   */\n      dup1\n        /* \"#utility.yul\":21155:21167   */\n      revert\n        /* \"#utility.yul\":21179:21281   */\n    tag_326:\n        /* \"#utility.yul\":21220:21226   */\n      0x00\n        /* \"#utility.yul\":21271:21273   */\n      0x1f\n        /* \"#utility.yul\":21267:21274   */\n      not\n        /* \"#utility.yul\":21262:21264   */\n      0x1f\n        /* \"#utility.yul\":21255:21260   */\n      dup4\n        /* \"#utility.yul\":21251:21265   */\n      add\n        /* \"#utility.yul\":21247:21275   */\n      and\n        /* \"#utility.yul\":21237:21275   */\n      swap1\n      pop\n        /* \"#utility.yul\":21179:21281   */\n      swap2\n      swap1\n      pop\n      jump\t// out\n        /* \"#utility.yul\":21287:21514   */\n    tag_337:\n        /* \"#utility.yul\":21427:21461   */\n      0x63616c6c6572206973206e6f7420656c696769626c6520666f72206e65787420\n        /* \"#utility.yul\":21423:21424   */\n      0x00\n        /* \"#utility.yul\":21415:21421   */\n      dup3\n        /* \"#utility.yul\":21411:21425   */\n      add\n        /* \"#utility.yul\":21404:21462   */\n      mstore\n        /* \"#utility.yul\":21496:21506   */\n      0x7769746864726177000000000000000000000000000000000000000000000000\n        /* \"#utility.yul\":21491:21493   */\n      0x20\n        /* \"#utility.yul\":21483:21489   */\n      dup3\n        /* \"#utility.yul\":21479:21494   */\n      add\n        /* \"#utility.yul\":21472:21507   */\n      mstore\n        /* \"#utility.yul\":21287:21514   */\n      pop\n      jump\t// out\n        /* \"#utility.yul\":21520:21702   */\n    tag_342:\n        /* \"#utility.yul\":21660:21694   */\n      0x537472696e67733a20686578206c656e67746820696e73756666696369656e74\n        /* \"#utility.yul\":21656:21657   */\n      0x00\n        /* \"#utility.yul\":21648:21654   */\n      dup3\n        /* \"#utility.yul\":21644:21658   */\n      add\n        /* \"#utility.yul\":21637:21695   */\n      mstore\n        /* \"#utility.yul\":21520:21702   */\n      pop\n      jump\t// out\n        /* \"#utility.yul\":21708:21885   */\n    tag_347:\n        /* \"#utility.yul\":21848:21877   */\n      0x63616c6c6572206973206e6f742061646d696e6973747261746f720000000000\n        /* \"#utility.yul\":21844:21845   */\n      0x00\n        /* \"#utility.yul\":21836:21842   */\n      dup3\n        /* \"#utility.yul\":21832:21846   */\n      add\n        /* \"#utility.yul\":21825:21878   */\n      mstore\n        /* \"#utility.yul\":21708:21885   */\n      pop\n      jump\t// out\n        /* \"#utility.yul\":21891:22061   */\n    tag_352:\n        /* \"#utility.yul\":22031:22053   */\n      0x4661696c656420746f2073656e64204574686572000000000000000000000000\n        /* \"#utility.yul\":22027:22028   */\n      0x00\n        /* \"#utility.yul\":22019:22025   */\n      dup3\n        /* \"#utility.yul\":22015:22029   */\n      add\n        /* \"#utility.yul\":22008:22054   */\n      mstore\n        /* \"#utility.yul\":21891:22061   */\n      pop\n      jump\t// out\n        /* \"#utility.yul\":22067:22245   */\n    tag_357:\n        /* \"#utility.yul\":22207:22237   */\n      0x6e6f7420656e6f7567682066756e647320696e20636f6e747261637400000000\n        /* \"#utility.yul\":22203:22204   */\n      0x00\n        /* \"#utility.yul\":22195:22201   */\n      dup3\n        /* \"#utility.yul\":22191:22205   */\n      add\n        /* \"#utility.yul\":22184:22238   */\n      mstore\n        /* \"#utility.yul\":22067:22245   */\n      pop\n      jump\t// out\n        /* \"#utility.yul\":22251:22413   */\n    tag_362:\n        /* \"#utility.yul\":22391:22405   */\n      0x6661696c65642072657061790000000000000000000000000000000000000000\n        /* \"#utility.yul\":22387:22388   */\n      0x00\n        /* \"#utility.yul\":22379:22385   */\n      dup3\n        /* \"#utility.yul\":22375:22389   */\n      add\n        /* \"#utility.yul\":22368:22406   */\n      mstore\n        /* \"#utility.yul\":22251:22413   */\n      pop\n      jump\t// out\n        /* \"#utility.yul\":22419:22648   */\n    tag_367:\n        /* \"#utility.yul\":22559:22593   */\n      0x63616c6c6572206973206e6f7420656c696769626c6520666f72207769746864\n        /* \"#utility.yul\":22555:22556   */\n      0x00\n        /* \"#utility.yul\":22547:22553   */\n      dup3\n        /* \"#utility.yul\":22543:22557   */\n      add\n        /* \"#utility.yul\":22536:22594   */\n      mstore\n        /* \"#utility.yul\":22628:22640   */\n      0x72617720616d6f756e7400000000000000000000000000000000000000000000\n        /* \"#utility.yul\":22623:22625   */\n      0x20\n        /* \"#utility.yul\":22615:22621   */\n      dup3\n        /* \"#utility.yul\":22611:22626   */\n      add\n        /* \"#utility.yul\":22604:22641   */\n      mstore\n        /* \"#utility.yul\":22419:22648   */\n      pop\n      jump\t// out\n        /* \"#utility.yul\":22654:22768   */\n    tag_373:\n      pop\n      jump\t// out\n        /* \"#utility.yul\":22774:22947   */\n    tag_378:\n        /* \"#utility.yul\":22914:22939   */\n      0x416363657373436f6e74726f6c3a206163636f756e7420000000000000000000\n        /* \"#utility.yul\":22910:22911   */\n      0x00\n        /* \"#utility.yul\":22902:22908   */\n      dup3\n        /* \"#utility.yul\":22898:22912   */\n      add\n        /* \"#utility.yul\":22891:22940   */\n      mstore\n        /* \"#utility.yul\":22774:22947   */\n      pop\n      jump\t// out\n        /* \"#utility.yul\":22953:23118   */\n    tag_383:\n        /* \"#utility.yul\":23093:23110   */\n      0x7769746864726177206661696c65640000000000000000000000000000000000\n        /* \"#utility.yul\":23089:23090   */\n      0x00\n        /* \"#utility.yul\":23081:23087   */\n      dup3\n        /* \"#utility.yul\":23077:23091   */\n      add\n        /* \"#utility.yul\":23070:23111   */\n      mstore\n        /* \"#utility.yul\":22953:23118   */\n      pop\n      jump\t// out\n        /* \"#utility.yul\":23124:23291   */\n    tag_388:\n        /* \"#utility.yul\":23264:23283   */\n      0x206973206d697373696e6720726f6c6520000000000000000000000000000000\n        /* \"#utility.yul\":23260:23261   */\n      0x00\n        /* \"#utility.yul\":23252:23258   */\n      dup3\n        /* \"#utility.yul\":23248:23262   */\n      add\n        /* \"#utility.yul\":23241:23284   */\n      mstore\n        /* \"#utility.yul\":23124:23291   */\n      pop\n      jump\t// out\n        /* \"#utility.yul\":23297:23531   */\n    tag_393:\n        /* \"#utility.yul\":23437:23471   */\n      0x416363657373436f6e74726f6c3a2063616e206f6e6c792072656e6f756e6365\n        /* \"#utility.yul\":23433:23434   */\n      0x00\n        /* \"#utility.yul\":23425:23431   */\n      dup3\n        /* \"#utility.yul\":23421:23435   */\n      add\n        /* \"#utility.yul\":23414:23472   */\n      mstore\n        /* \"#utility.yul\":23506:23523   */\n      0x20726f6c657320666f722073656c660000000000000000000000000000000000\n        /* \"#utility.yul\":23501:23503   */\n      0x20\n        /* \"#utility.yul\":23493:23499   */\n      dup3\n        /* \"#utility.yul\":23489:23504   */\n      add\n        /* \"#utility.yul\":23482:23524   */\n      mstore\n        /* \"#utility.yul\":23297:23531   */\n      pop\n      jump\t// out\n        /* \"#utility.yul\":23537:23659   */\n    tag_250:\n        /* \"#utility.yul\":23610:23634   */\n      tag_511\n        /* \"#utility.yul\":23628:23633   */\n      dup2\n        /* \"#utility.yul\":23610:23634   */\n      tag_308\n      jump\t// in\n    tag_511:\n        /* \"#utility.yul\":23603:23608   */\n      dup2\n        /* \"#utility.yul\":23600:23635   */\n      eq\n        /* \"#utility.yul\":23590:23653   */\n      tag_512\n      jumpi\n        /* \"#utility.yul\":23649:23650   */\n      0x00\n        /* \"#utility.yul\":23646:23647   */\n      dup1\n        /* \"#utility.yul\":23639:23651   */\n      revert\n        /* \"#utility.yul\":23590:23653   */\n    tag_512:\n        /* \"#utility.yul\":23537:23659   */\n      pop\n      jump\t// out\n        /* \"#utility.yul\":23665:23781   */\n    tag_254:\n        /* \"#utility.yul\":23735:23756   */\n      tag_514\n        /* \"#utility.yul\":23750:23755   */\n      dup2\n        /* \"#utility.yul\":23735:23756   */\n      tag_312\n      jump\t// in\n    tag_514:\n        /* \"#utility.yul\":23728:23733   */\n      dup2\n        /* \"#utility.yul\":23725:23757   */\n      eq\n        /* \"#utility.yul\":23715:23775   */\n      tag_515\n      jumpi\n        /* \"#utility.yul\":23771:23772   */\n      0x00\n        /* \"#utility.yul\":23768:23769   */\n      dup1\n        /* \"#utility.yul\":23761:23773   */\n      revert\n        /* \"#utility.yul\":23715:23775   */\n    tag_515:\n        /* \"#utility.yul\":23665:23781   */\n      pop\n      jump\t// out\n        /* \"#utility.yul\":23787:23909   */\n    tag_258:\n        /* \"#utility.yul\":23860:23884   */\n      tag_517\n        /* \"#utility.yul\":23878:23883   */\n      dup2\n        /* \"#utility.yul\":23860:23884   */\n      tag_316\n      jump\t// in\n    tag_517:\n        /* \"#utility.yul\":23853:23858   */\n      dup2\n        /* \"#utility.yul\":23850:23885   */\n      eq\n        /* \"#utility.yul\":23840:23903   */\n      tag_518\n      jumpi\n        /* \"#utility.yul\":23899:23900   */\n      0x00\n        /* \"#utility.yul\":23896:23897   */\n      dup1\n        /* \"#utility.yul\":23889:23901   */\n      revert\n        /* \"#utility.yul\":23840:23903   */\n    tag_518:\n        /* \"#utility.yul\":23787:23909   */\n      pop\n      jump\t// out\n        /* \"#utility.yul\":23915:24035   */\n    tag_262:\n        /* \"#utility.yul\":23987:24010   */\n      tag_520\n        /* \"#utility.yul\":24004:24009   */\n      dup2\n        /* \"#utility.yul\":23987:24010   */\n      tag_477\n      jump\t// in\n    tag_520:\n        /* \"#utility.yul\":23980:23985   */\n      dup2\n        /* \"#utility.yul\":23977:24011   */\n      eq\n        /* \"#utility.yul\":23967:24029   */\n      tag_521\n      jumpi\n        /* \"#utility.yul\":24025:24026   */\n      0x00\n        /* \"#utility.yul\":24022:24023   */\n      dup1\n        /* \"#utility.yul\":24015:24027   */\n      revert\n        /* \"#utility.yul\":23967:24029   */\n    tag_521:\n        /* \"#utility.yul\":23915:24035   */\n      pop\n      jump\t// out\n        /* \"#utility.yul\":24041:24163   */\n    tag_266:\n        /* \"#utility.yul\":24114:24138   */\n      tag_523\n        /* \"#utility.yul\":24132:24137   */\n      dup2\n        /* \"#utility.yul\":24114:24138   */\n      tag_397\n      jump\t// in\n    tag_523:\n        /* \"#utility.yul\":24107:24112   */\n      dup2\n        /* \"#utility.yul\":24104:24139   */\n      eq\n        /* \"#utility.yul\":24094:24157   */\n      tag_524\n      jumpi\n        /* \"#utility.yul\":24153:24154   */\n      0x00\n        /* \"#utility.yul\":24150:24151   */\n      dup1\n        /* \"#utility.yul\":24143:24155   */\n      revert\n        /* \"#utility.yul\":24094:24157   */\n    tag_524:\n        /* \"#utility.yul\":24041:24163   */\n      pop\n      jump\t// out\n\n    auxdata: 0xa26469706673582212206f6f54a03ab7cd53c01b4852d98f7887e6f4d9b83d8a4efa2107de0cc61ff8a764736f6c63430008070033\n}\n",
				"bytecode": {
					"linkReferences": {},
					"object": "60806040526512309ce540006002553480156200001b57600080fd5b50604051620023823803806200238283398181016040528101906200004191906200022e565b80600160006101000a81548173ffffffffffffffffffffffffffffffffffffffff021916908373ffffffffffffffffffffffffffffffffffffffff160217905550620000976000801b336200009e60201b60201c565b50620002b3565b620000b08282620000b460201b60201c565b5050565b620000c68282620001a560201b60201c565b620001a157600160008084815260200190815260200160002060000160008373ffffffffffffffffffffffffffffffffffffffff1673ffffffffffffffffffffffffffffffffffffffff16815260200190815260200160002060006101000a81548160ff021916908315150217905550620001466200020f60201b60201c565b73ffffffffffffffffffffffffffffffffffffffff168173ffffffffffffffffffffffffffffffffffffffff16837f2f8788117e7eff1d82e926ec794901d17c78024a50270940304540a733656f0d60405160405180910390a45b5050565b600080600084815260200190815260200160002060000160008373ffffffffffffffffffffffffffffffffffffffff1673ffffffffffffffffffffffffffffffffffffffff16815260200190815260200160002060009054906101000a900460ff16905092915050565b600033905090565b600081519050620002288162000299565b92915050565b60006020828403121562000247576200024662000294565b5b6000620002578482850162000217565b91505092915050565b60006200026d8262000274565b9050919050565b600073ffffffffffffffffffffffffffffffffffffffff82169050919050565b600080fd5b620002a48162000260565b8114620002b057600080fd5b50565b6120bf80620002c36000396000f3fe6080604052600436106100e85760003560e01c806391d148541161008a578063add474da11610059578063add474da14610318578063d547741f14610355578063f7d19f5e1461037e578063fc0c546a1461039a576100e8565b806391d148541461024a57806392ac7958146102875780639e281a98146102c4578063a217fddf146102ed576100e8565b80632e1a7d4d116100c65780632e1a7d4d146101a65780632f2ff15d146101cf57806336568abe146101f8578063371fd8e614610221576100e8565b806301ffc9a7146100ed57806309e69ede1461012a578063248a9ca314610169575b600080fd5b3480156100f957600080fd5b50610114600480360381019061010f9190611585565b6103c5565b6040516101219190611920565b60405180910390f35b34801561013657600080fd5b50610151600480360381019061014c919061147e565b61043f565b60405161016093929190611ab3565b60405180910390f35b34801561017557600080fd5b50610190600480360381019061018b9190611518565b610469565b60405161019d919061193b565b60405180910390f35b3480156101b257600080fd5b506101cd60048036038101906101c891906115b2565b610488565b005b3480156101db57600080fd5b506101f660048036038101906101f19190611545565b6107f9565b005b34801561020457600080fd5b5061021f600480360381019061021a9190611545565b61081a565b005b34801561022d57600080fd5b50610248600480360381019061024391906115b2565b61089d565b005b34801561025657600080fd5b50610271600480360381019061026c9190611545565b610af7565b60405161027e9190611920565b60405180910390f35b34801561029357600080fd5b506102ae60048036038101906102a9919061147e565b610b61565b6040516102bb9190611a98565b60405180910390f35b3480156102d057600080fd5b506102eb60048036038101906102e691906114ab565b610bfa565b005b3480156102f957600080fd5b50610302610c92565b60405161030f919061193b565b60405180910390f35b34801561032457600080fd5b5061033f600480360381019061033a919061147e565b610c99565b60405161034c9190611920565b60405180910390f35b34801561036157600080fd5b5061037c60048036038101906103779190611545565b610ce8565b005b6103986004803603810190610393919061147e565b610d09565b005b3480156103a657600080fd5b506103af610eba565b6040516103bc91906118a5565b60405180910390f35b60007f7965db0b000000000000000000000000000000000000000000000000000000007bffffffffffffffffffffffffffffffffffffffffffffffffffffffff1916827bffffffffffffffffffffffffffffffffffffffffffffffffffffffff19161480610438575061043782610ee0565b5b9050919050565b60036020528060005260406000206000915090508060000154908060010154908060020154905083565b6000806000838152602001908152602001600020600101549050919050565b6000600160009054906101000a900473ffffffffffffffffffffffffffffffffffffffff1673ffffffffffffffffffffffffffffffffffffffff166370a08231306040518263ffffffff1660e01b81526004016104e591906118a5565b60206040518083038186803b1580156104fd57600080fd5b505afa158015610511573d6000803e3d6000fd5b505050506040513d601f19601f8201168201806040525081019061053591906115df565b9050818111610579576040517f08c379a0000000000000000000000000000000000000000000000000000000008152600401610570906119f8565b60405180910390fd5b6000600360003373ffffffffffffffffffffffffffffffffffffffff1673ffffffffffffffffffffffffffffffffffffffff168152602001908152602001600020604051806060016040529081600082015481526020016001820154815260200160028201548152505090504381604001511061062b576040517f08c379a000000000000000000000000000000000000000000000000000000000815260040161062290611978565b60405180910390fd5b82816000015111610671576040517f08c379a000000000000000000000000000000000000000000000000000000000815260040161066890611a38565b60405180910390fd5b8281600001516106819190611bfd565b8160200151106106c6576040517f08c379a00000000000000000000000000000000000000000000000000000000081526004016106bd90611a38565b60405180910390fd5b600160009054906101000a900473ffffffffffffffffffffffffffffffffffffffff1673ffffffffffffffffffffffffffffffffffffffff1663a9059cbb33856040518363ffffffff1660e01b81526004016107239291906118f7565b602060405180830381600087803b15801561073d57600080fd5b505af1158015610751573d6000803e3d6000fd5b505050506040513d601f19601f8201168201806040525081019061077591906114eb565b6107b4576040517f08c379a00000000000000000000000000000000000000000000000000000000081526004016107ab90611a58565b60405180910390fd5b82816020018181516107c69190611b1c565b91508181525050620106d0436107dc9190611b1c565b816040018181516107ed9190611b1c565b91508181525050505050565b61080282610469565b61080b81610f4a565b6108158383610f5e565b505050565b61082261103e565b73ffffffffffffffffffffffffffffffffffffffff168173ffffffffffffffffffffffffffffffffffffffff161461088f576040517f08c379a000000000000000000000000000000000000000000000000000000000815260040161088690611a78565b60405180910390fd5b6108998282611046565b5050565b6000600360003373ffffffffffffffffffffffffffffffffffffffff1673ffffffffffffffffffffffffffffffffffffffff168152602001908152602001600020600101549050600160009054906101000a900473ffffffffffffffffffffffffffffffffffffffff1673ffffffffffffffffffffffffffffffffffffffff166323b872dd3330846040518463ffffffff1660e01b8152600401610943939291906118c0565b602060405180830381600087803b15801561095d57600080fd5b505af1158015610971573d6000803e3d6000fd5b505050506040513d601f19601f8201168201806040525081019061099591906114eb565b6109d4576040517f08c379a00000000000000000000000000000000000000000000000000000000081526004016109cb90611a18565b60405180910390fd5b81600360003373ffffffffffffffffffffffffffffffffffffffff1673ffffffffffffffffffffffffffffffffffffffff1681526020019081526020016000206001016000828254610a269190611bfd565b9250508190555080821015610a3b5750610af4565b600060646069600360003373ffffffffffffffffffffffffffffffffffffffff1673ffffffffffffffffffffffffffffffffffffffff16815260200190815260200160002060000154610a8e9190611ba3565b610a989190611b72565b9050600254811115610aaa5760025490505b80600360003373ffffffffffffffffffffffffffffffffffffffff1673ffffffffffffffffffffffffffffffffffffffff1681526020019081526020016000206000018190555050505b50565b600080600084815260200190815260200160002060000160008373ffffffffffffffffffffffffffffffffffffffff1673ffffffffffffffffffffffffffffffffffffffff16815260200190815260200160002060009054906101000a900460ff16905092915050565b6000600360008373ffffffffffffffffffffffffffffffffffffffff1673ffffffffffffffffffffffffffffffffffffffff16815260200190815260200160002060010154600360008473ffffffffffffffffffffffffffffffffffffffff1673ffffffffffffffffffffffffffffffffffffffff16815260200190815260200160002060000154610bf39190611bfd565b9050919050565b60008290508073ffffffffffffffffffffffffffffffffffffffff1663a9059cbb33846040518363ffffffff1660e01b8152600401610c3a9291906118f7565b602060405180830381600087803b158015610c5457600080fd5b505af1158015610c68573d6000803e3d6000fd5b505050506040513d601f19601f82011682018060405250810190610c8c91906114eb565b50505050565b6000801b81565b600080600360008473ffffffffffffffffffffffffffffffffffffffff1673ffffffffffffffffffffffffffffffffffffffff1681526020019081526020016000206000015414159050919050565b610cf182610469565b610cfa81610f4a565b610d048383611046565b505050565b610d166000801b33610af7565b610d55576040517f08c379a0000000000000000000000000000000000000000000000000000000008152600401610d4c906119b8565b60405180910390fd5b604051806060016040528060025481526020016000815260200143815250600360008373ffffffffffffffffffffffffffffffffffffffff1673ffffffffffffffffffffffffffffffffffffffff16815260200190815260200160002060008201518160000155602082015181600101556040820151816002015590505060008173ffffffffffffffffffffffffffffffffffffffff1634604051610df990611856565b60006040518083038185875af1925050503d8060008114610e36576040519150601f19603f3d011682016040523d82523d6000602084013e610e3b565b606091505b5050905080610e7f576040517f08c379a0000000000000000000000000000000000000000000000000000000008152600401610e76906119d8565b60405180910390fd5b7fb40223cb2fd2f5f68c1edc600b630cde6097946002f42d44bbc15560739e1e3d82604051610eae91906118a5565b60405180910390a15050565b600160009054906101000a900473ffffffffffffffffffffffffffffffffffffffff1681565b60007f01ffc9a7000000000000000000000000000000000000000000000000000000007bffffffffffffffffffffffffffffffffffffffffffffffffffffffff1916827bffffffffffffffffffffffffffffffffffffffffffffffffffffffff1916149050919050565b610f5b81610f5661103e565b611127565b50565b610f688282610af7565b61103a57600160008084815260200190815260200160002060000160008373ffffffffffffffffffffffffffffffffffffffff1673ffffffffffffffffffffffffffffffffffffffff16815260200190815260200160002060006101000a81548160ff021916908315150217905550610fdf61103e565b73ffffffffffffffffffffffffffffffffffffffff168173ffffffffffffffffffffffffffffffffffffffff16837f2f8788117e7eff1d82e926ec794901d17c78024a50270940304540a733656f0d60405160405180910390a45b5050565b600033905090565b6110508282610af7565b1561112357600080600084815260200190815260200160002060000160008373ffffffffffffffffffffffffffffffffffffffff1673ffffffffffffffffffffffffffffffffffffffff16815260200190815260200160002060006101000a81548160ff0219169083151502179055506110c861103e565b73ffffffffffffffffffffffffffffffffffffffff168173ffffffffffffffffffffffffffffffffffffffff16837ff6391f5c32d9c69d2a47ea670b442974b53935d1edc7fd64eb21e047a839171b60405160405180910390a45b5050565b6111318282610af7565b6111c0576111568173ffffffffffffffffffffffffffffffffffffffff1660146111c4565b6111648360001c60206111c4565b60405160200161117592919061186b565b6040516020818303038152906040526040517f08c379a00000000000000000000000000000000000000000000000000000000081526004016111b79190611956565b60405180910390fd5b5050565b6060600060028360026111d79190611ba3565b6111e19190611b1c565b67ffffffffffffffff8111156111fa576111f9611d99565b5b6040519080825280601f01601f19166020018201604052801561122c5781602001600182028036833780820191505090505b5090507f30000000000000000000000000000000000000000000000000000000000000008160008151811061126457611263611d6a565b5b60200101907effffffffffffffffffffffffffffffffffffffffffffffffffffffffffffff1916908160001a9053507f7800000000000000000000000000000000000000000000000000000000000000816001815181106112c8576112c7611d6a565b5b60200101907effffffffffffffffffffffffffffffffffffffffffffffffffffffffffffff1916908160001a905350600060018460026113089190611ba3565b6113129190611b1c565b90505b60018111156113b2577f3031323334353637383961626364656600000000000000000000000000000000600f86166010811061135457611353611d6a565b5b1a60f81b82828151811061136b5761136a611d6a565b5b60200101907effffffffffffffffffffffffffffffffffffffffffffffffffffffffffffff1916908160001a905350600485901c9450806113ab90611ce2565b9050611315565b50600084146113f6576040517f08c379a00000000000000000000000000000000000000000000000000000000081526004016113ed90611998565b60405180910390fd5b8091505092915050565b60008135905061140f81612016565b92915050565b6000815190506114248161202d565b92915050565b60008135905061143981612044565b92915050565b60008135905061144e8161205b565b92915050565b60008135905061146381612072565b92915050565b60008151905061147881612072565b92915050565b60006020828403121561149457611493611dc8565b5b60006114a284828501611400565b91505092915050565b600080604083850312156114c2576114c1611dc8565b5b60006114d085828601611400565b92505060206114e185828601611454565b9150509250929050565b60006020828403121561150157611500611dc8565b5b600061150f84828501611415565b91505092915050565b60006020828403121561152e5761152d611dc8565b5b600061153c8482850161142a565b91505092915050565b6000806040838503121561155c5761155b611dc8565b5b600061156a8582860161142a565b925050602061157b85828601611400565b9150509250929050565b60006020828403121561159b5761159a611dc8565b5b60006115a98482850161143f565b91505092915050565b6000602082840312156115c8576115c7611dc8565b5b60006115d684828501611454565b91505092915050565b6000602082840312156115f5576115f4611dc8565b5b600061160384828501611469565b91505092915050565b61161581611c31565b82525050565b61162481611c43565b82525050565b61163381611c4f565b82525050565b600061164482611aea565b61164e8185611b00565b935061165e818560208601611caf565b61166781611dcd565b840191505092915050565b600061167d82611aea565b6116878185611b11565b9350611697818560208601611caf565b80840191505092915050565b60006116b0602883611b00565b91506116bb82611dde565b604082019050919050565b60006116d3602083611b00565b91506116de82611e2d565b602082019050919050565b60006116f6601b83611b00565b915061170182611e56565b602082019050919050565b6000611719601483611b00565b915061172482611e7f565b602082019050919050565b600061173c601c83611b00565b915061174782611ea8565b602082019050919050565b600061175f600c83611b00565b915061176a82611ed1565b602082019050919050565b6000611782602a83611b00565b915061178d82611efa565b604082019050919050565b60006117a5600083611af5565b91506117b082611f49565b600082019050919050565b60006117c8601783611b11565b91506117d382611f4c565b601782019050919050565b60006117eb600f83611b00565b91506117f682611f75565b602082019050919050565b600061180e601183611b11565b915061181982611f9e565b601182019050919050565b6000611831602f83611b00565b915061183c82611fc7565b604082019050919050565b61185081611ca5565b82525050565b600061186182611798565b9150819050919050565b6000611876826117bb565b91506118828285611672565b915061188d82611801565b91506118998284611672565b91508190509392505050565b60006020820190506118ba600083018461160c565b92915050565b60006060820190506118d5600083018661160c565b6118e2602083018561160c565b6118ef6040830184611847565b949350505050565b600060408201905061190c600083018561160c565b6119196020830184611847565b9392505050565b6000602082019050611935600083018461161b565b92915050565b6000602082019050611950600083018461162a565b92915050565b600060208201905081810360008301526119708184611639565b905092915050565b60006020820190508181036000830152611991816116a3565b9050919050565b600060208201905081810360008301526119b1816116c6565b9050919050565b600060208201905081810360008301526119d1816116e9565b9050919050565b600060208201905081810360008301526119f18161170c565b9050919050565b60006020820190508181036000830152611a118161172f565b9050919050565b60006020820190508181036000830152611a3181611752565b9050919050565b60006020820190508181036000830152611a5181611775565b9050919050565b60006020820190508181036000830152611a71816117de565b9050919050565b60006020820190508181036000830152611a9181611824565b9050919050565b6000602082019050611aad6000830184611847565b92915050565b6000606082019050611ac86000830186611847565b611ad56020830185611847565b611ae26040830184611847565b949350505050565b600081519050919050565b600081905092915050565b600082825260208201905092915050565b600081905092915050565b6000611b2782611ca5565b9150611b3283611ca5565b9250827fffffffffffffffffffffffffffffffffffffffffffffffffffffffffffffffff03821115611b6757611b66611d0c565b5b828201905092915050565b6000611b7d82611ca5565b9150611b8883611ca5565b925082611b9857611b97611d3b565b5b828204905092915050565b6000611bae82611ca5565b9150611bb983611ca5565b9250817fffffffffffffffffffffffffffffffffffffffffffffffffffffffffffffffff0483118215151615611bf257611bf1611d0c565b5b828202905092915050565b6000611c0882611ca5565b9150611c1383611ca5565b925082821015611c2657611c25611d0c565b5b828203905092915050565b6000611c3c82611c85565b9050919050565b60008115159050919050565b6000819050919050565b60007fffffffff0000000000000000000000000000000000000000000000000000000082169050919050565b600073ffffffffffffffffffffffffffffffffffffffff82169050919050565b6000819050919050565b60005b83811015611ccd578082015181840152602081019050611cb2565b83811115611cdc576000848401525b50505050565b6000611ced82611ca5565b91506000821415611d0157611d00611d0c565b5b600182039050919050565b7f4e487b7100000000000000000000000000000000000000000000000000000000600052601160045260246000fd5b7f4e487b7100000000000000000000000000000000000000000000000000000000600052601260045260246000fd5b7f4e487b7100000000000000000000000000000000000000000000000000000000600052603260045260246000fd5b7f4e487b7100000000000000000000000000000000000000000000000000000000600052604160045260246000fd5b600080fd5b6000601f19601f8301169050919050565b7f63616c6c6572206973206e6f7420656c696769626c6520666f72206e6578742060008201527f7769746864726177000000000000000000000000000000000000000000000000602082015250565b7f537472696e67733a20686578206c656e67746820696e73756666696369656e74600082015250565b7f63616c6c6572206973206e6f742061646d696e6973747261746f720000000000600082015250565b7f4661696c656420746f2073656e64204574686572000000000000000000000000600082015250565b7f6e6f7420656e6f7567682066756e647320696e20636f6e747261637400000000600082015250565b7f6661696c65642072657061790000000000000000000000000000000000000000600082015250565b7f63616c6c6572206973206e6f7420656c696769626c6520666f7220776974686460008201527f72617720616d6f756e7400000000000000000000000000000000000000000000602082015250565b50565b7f416363657373436f6e74726f6c3a206163636f756e7420000000000000000000600082015250565b7f7769746864726177206661696c65640000000000000000000000000000000000600082015250565b7f206973206d697373696e6720726f6c6520000000000000000000000000000000600082015250565b7f416363657373436f6e74726f6c3a2063616e206f6e6c792072656e6f756e636560008201527f20726f6c657320666f722073656c660000000000000000000000000000000000602082015250565b61201f81611c31565b811461202a57600080fd5b50565b61203681611c43565b811461204157600080fd5b50565b61204d81611c4f565b811461205857600080fd5b50565b61206481611c59565b811461206f57600080fd5b50565b61207b81611ca5565b811461208657600080fd5b5056fea26469706673582212206f6f54a03ab7cd53c01b4852d98f7887e6f4d9b83d8a4efa2107de0cc61ff8a764736f6c63430008070033",
					"opcodes": "PUSH1 0x80 PUSH1 0x40 MSTORE PUSH6 0x12309CE54000 PUSH1 0x2 SSTORE CALLVALUE DUP1 ISZERO PUSH3 0x1B JUMPI PUSH1 0x0 DUP1 REVERT JUMPDEST POP PUSH1 0x40 MLOAD PUSH3 0x2382 CODESIZE SUB DUP1 PUSH3 0x2382 DUP4 CODECOPY DUP2 DUP2 ADD PUSH1 0x40 MSTORE DUP2 ADD SWAP1 PUSH3 0x41 SWAP2 SWAP1 PUSH3 0x22E JUMP JUMPDEST DUP1 PUSH1 0x1 PUSH1 0x0 PUSH2 0x100 EXP DUP2 SLOAD DUP2 PUSH20 0xFFFFFFFFFFFFFFFFFFFFFFFFFFFFFFFFFFFFFFFF MUL NOT AND SWAP1 DUP4 PUSH20 0xFFFFFFFFFFFFFFFFFFFFFFFFFFFFFFFFFFFFFFFF AND MUL OR SWAP1 SSTORE POP PUSH3 0x97 PUSH1 0x0 DUP1 SHL CALLER PUSH3 0x9E PUSH1 0x20 SHL PUSH1 0x20 SHR JUMP JUMPDEST POP PUSH3 0x2B3 JUMP JUMPDEST PUSH3 0xB0 DUP3 DUP3 PUSH3 0xB4 PUSH1 0x20 SHL PUSH1 0x20 SHR JUMP JUMPDEST POP POP JUMP JUMPDEST PUSH3 0xC6 DUP3 DUP3 PUSH3 0x1A5 PUSH1 0x20 SHL PUSH1 0x20 SHR JUMP JUMPDEST PUSH3 0x1A1 JUMPI PUSH1 0x1 PUSH1 0x0 DUP1 DUP5 DUP2 MSTORE PUSH1 0x20 ADD SWAP1 DUP2 MSTORE PUSH1 0x20 ADD PUSH1 0x0 KECCAK256 PUSH1 0x0 ADD PUSH1 0x0 DUP4 PUSH20 0xFFFFFFFFFFFFFFFFFFFFFFFFFFFFFFFFFFFFFFFF AND PUSH20 0xFFFFFFFFFFFFFFFFFFFFFFFFFFFFFFFFFFFFFFFF AND DUP2 MSTORE PUSH1 0x20 ADD SWAP1 DUP2 MSTORE PUSH1 0x20 ADD PUSH1 0x0 KECCAK256 PUSH1 0x0 PUSH2 0x100 EXP DUP2 SLOAD DUP2 PUSH1 0xFF MUL NOT AND SWAP1 DUP4 ISZERO ISZERO MUL OR SWAP1 SSTORE POP PUSH3 0x146 PUSH3 0x20F PUSH1 0x20 SHL PUSH1 0x20 SHR JUMP JUMPDEST PUSH20 0xFFFFFFFFFFFFFFFFFFFFFFFFFFFFFFFFFFFFFFFF AND DUP2 PUSH20 0xFFFFFFFFFFFFFFFFFFFFFFFFFFFFFFFFFFFFFFFF AND DUP4 PUSH32 0x2F8788117E7EFF1D82E926EC794901D17C78024A50270940304540A733656F0D PUSH1 0x40 MLOAD PUSH1 0x40 MLOAD DUP1 SWAP2 SUB SWAP1 LOG4 JUMPDEST POP POP JUMP JUMPDEST PUSH1 0x0 DUP1 PUSH1 0x0 DUP5 DUP2 MSTORE PUSH1 0x20 ADD SWAP1 DUP2 MSTORE PUSH1 0x20 ADD PUSH1 0x0 KECCAK256 PUSH1 0x0 ADD PUSH1 0x0 DUP4 PUSH20 0xFFFFFFFFFFFFFFFFFFFFFFFFFFFFFFFFFFFFFFFF AND PUSH20 0xFFFFFFFFFFFFFFFFFFFFFFFFFFFFFFFFFFFFFFFF AND DUP2 MSTORE PUSH1 0x20 ADD SWAP1 DUP2 MSTORE PUSH1 0x20 ADD PUSH1 0x0 KECCAK256 PUSH1 0x0 SWAP1 SLOAD SWAP1 PUSH2 0x100 EXP SWAP1 DIV PUSH1 0xFF AND SWAP1 POP SWAP3 SWAP2 POP POP JUMP JUMPDEST PUSH1 0x0 CALLER SWAP1 POP SWAP1 JUMP JUMPDEST PUSH1 0x0 DUP2 MLOAD SWAP1 POP PUSH3 0x228 DUP2 PUSH3 0x299 JUMP JUMPDEST SWAP3 SWAP2 POP POP JUMP JUMPDEST PUSH1 0x0 PUSH1 0x20 DUP3 DUP5 SUB SLT ISZERO PUSH3 0x247 JUMPI PUSH3 0x246 PUSH3 0x294 JUMP JUMPDEST JUMPDEST PUSH1 0x0 PUSH3 0x257 DUP5 DUP3 DUP6 ADD PUSH3 0x217 JUMP JUMPDEST SWAP2 POP POP SWAP3 SWAP2 POP POP JUMP JUMPDEST PUSH1 0x0 PUSH3 0x26D DUP3 PUSH3 0x274 JUMP JUMPDEST SWAP1 POP SWAP2 SWAP1 POP JUMP JUMPDEST PUSH1 0x0 PUSH20 0xFFFFFFFFFFFFFFFFFFFFFFFFFFFFFFFFFFFFFFFF DUP3 AND SWAP1 POP SWAP2 SWAP1 POP JUMP JUMPDEST PUSH1 0x0 DUP1 REVERT JUMPDEST PUSH3 0x2A4 DUP2 PUSH3 0x260 JUMP JUMPDEST DUP2 EQ PUSH3 0x2B0 JUMPI PUSH1 0x0 DUP1 REVERT JUMPDEST POP JUMP JUMPDEST PUSH2 0x20BF DUP1 PUSH3 0x2C3 PUSH1 0x0 CODECOPY PUSH1 0x0 RETURN INVALID PUSH1 0x80 PUSH1 0x40 MSTORE PUSH1 0x4 CALLDATASIZE LT PUSH2 0xE8 JUMPI PUSH1 0x0 CALLDATALOAD PUSH1 0xE0 SHR DUP1 PUSH4 0x91D14854 GT PUSH2 0x8A JUMPI DUP1 PUSH4 0xADD474DA GT PUSH2 0x59 JUMPI DUP1 PUSH4 0xADD474DA EQ PUSH2 0x318 JUMPI DUP1 PUSH4 0xD547741F EQ PUSH2 0x355 JUMPI DUP1 PUSH4 0xF7D19F5E EQ PUSH2 0x37E JUMPI DUP1 PUSH4 0xFC0C546A EQ PUSH2 0x39A JUMPI PUSH2 0xE8 JUMP JUMPDEST DUP1 PUSH4 0x91D14854 EQ PUSH2 0x24A JUMPI DUP1 PUSH4 0x92AC7958 EQ PUSH2 0x287 JUMPI DUP1 PUSH4 0x9E281A98 EQ PUSH2 0x2C4 JUMPI DUP1 PUSH4 0xA217FDDF EQ PUSH2 0x2ED JUMPI PUSH2 0xE8 JUMP JUMPDEST DUP1 PUSH4 0x2E1A7D4D GT PUSH2 0xC6 JUMPI DUP1 PUSH4 0x2E1A7D4D EQ PUSH2 0x1A6 JUMPI DUP1 PUSH4 0x2F2FF15D EQ PUSH2 0x1CF JUMPI DUP1 PUSH4 0x36568ABE EQ PUSH2 0x1F8 JUMPI DUP1 PUSH4 0x371FD8E6 EQ PUSH2 0x221 JUMPI PUSH2 0xE8 JUMP JUMPDEST DUP1 PUSH4 0x1FFC9A7 EQ PUSH2 0xED JUMPI DUP1 PUSH4 0x9E69EDE EQ PUSH2 0x12A JUMPI DUP1 PUSH4 0x248A9CA3 EQ PUSH2 0x169 JUMPI JUMPDEST PUSH1 0x0 DUP1 REVERT JUMPDEST CALLVALUE DUP1 ISZERO PUSH2 0xF9 JUMPI PUSH1 0x0 DUP1 REVERT JUMPDEST POP PUSH2 0x114 PUSH1 0x4 DUP1 CALLDATASIZE SUB DUP2 ADD SWAP1 PUSH2 0x10F SWAP2 SWAP1 PUSH2 0x1585 JUMP JUMPDEST PUSH2 0x3C5 JUMP JUMPDEST PUSH1 0x40 MLOAD PUSH2 0x121 SWAP2 SWAP1 PUSH2 0x1920 JUMP JUMPDEST PUSH1 0x40 MLOAD DUP1 SWAP2 SUB SWAP1 RETURN JUMPDEST CALLVALUE DUP1 ISZERO PUSH2 0x136 JUMPI PUSH1 0x0 DUP1 REVERT JUMPDEST POP PUSH2 0x151 PUSH1 0x4 DUP1 CALLDATASIZE SUB DUP2 ADD SWAP1 PUSH2 0x14C SWAP2 SWAP1 PUSH2 0x147E JUMP JUMPDEST PUSH2 0x43F JUMP JUMPDEST PUSH1 0x40 MLOAD PUSH2 0x160 SWAP4 SWAP3 SWAP2 SWAP1 PUSH2 0x1AB3 JUMP JUMPDEST PUSH1 0x40 MLOAD DUP1 SWAP2 SUB SWAP1 RETURN JUMPDEST CALLVALUE DUP1 ISZERO PUSH2 0x175 JUMPI PUSH1 0x0 DUP1 REVERT JUMPDEST POP PUSH2 0x190 PUSH1 0x4 DUP1 CALLDATASIZE SUB DUP2 ADD SWAP1 PUSH2 0x18B SWAP2 SWAP1 PUSH2 0x1518 JUMP JUMPDEST PUSH2 0x469 JUMP JUMPDEST PUSH1 0x40 MLOAD PUSH2 0x19D SWAP2 SWAP1 PUSH2 0x193B JUMP JUMPDEST PUSH1 0x40 MLOAD DUP1 SWAP2 SUB SWAP1 RETURN JUMPDEST CALLVALUE DUP1 ISZERO PUSH2 0x1B2 JUMPI PUSH1 0x0 DUP1 REVERT JUMPDEST POP PUSH2 0x1CD PUSH1 0x4 DUP1 CALLDATASIZE SUB DUP2 ADD SWAP1 PUSH2 0x1C8 SWAP2 SWAP1 PUSH2 0x15B2 JUMP JUMPDEST PUSH2 0x488 JUMP JUMPDEST STOP JUMPDEST CALLVALUE DUP1 ISZERO PUSH2 0x1DB JUMPI PUSH1 0x0 DUP1 REVERT JUMPDEST POP PUSH2 0x1F6 PUSH1 0x4 DUP1 CALLDATASIZE SUB DUP2 ADD SWAP1 PUSH2 0x1F1 SWAP2 SWAP1 PUSH2 0x1545 JUMP JUMPDEST PUSH2 0x7F9 JUMP JUMPDEST STOP JUMPDEST CALLVALUE DUP1 ISZERO PUSH2 0x204 JUMPI PUSH1 0x0 DUP1 REVERT JUMPDEST POP PUSH2 0x21F PUSH1 0x4 DUP1 CALLDATASIZE SUB DUP2 ADD SWAP1 PUSH2 0x21A SWAP2 SWAP1 PUSH2 0x1545 JUMP JUMPDEST PUSH2 0x81A JUMP JUMPDEST STOP JUMPDEST CALLVALUE DUP1 ISZERO PUSH2 0x22D JUMPI PUSH1 0x0 DUP1 REVERT JUMPDEST POP PUSH2 0x248 PUSH1 0x4 DUP1 CALLDATASIZE SUB DUP2 ADD SWAP1 PUSH2 0x243 SWAP2 SWAP1 PUSH2 0x15B2 JUMP JUMPDEST PUSH2 0x89D JUMP JUMPDEST STOP JUMPDEST CALLVALUE DUP1 ISZERO PUSH2 0x256 JUMPI PUSH1 0x0 DUP1 REVERT JUMPDEST POP PUSH2 0x271 PUSH1 0x4 DUP1 CALLDATASIZE SUB DUP2 ADD SWAP1 PUSH2 0x26C SWAP2 SWAP1 PUSH2 0x1545 JUMP JUMPDEST PUSH2 0xAF7 JUMP JUMPDEST PUSH1 0x40 MLOAD PUSH2 0x27E SWAP2 SWAP1 PUSH2 0x1920 JUMP JUMPDEST PUSH1 0x40 MLOAD DUP1 SWAP2 SUB SWAP1 RETURN JUMPDEST CALLVALUE DUP1 ISZERO PUSH2 0x293 JUMPI PUSH1 0x0 DUP1 REVERT JUMPDEST POP PUSH2 0x2AE PUSH1 0x4 DUP1 CALLDATASIZE SUB DUP2 ADD SWAP1 PUSH2 0x2A9 SWAP2 SWAP1 PUSH2 0x147E JUMP JUMPDEST PUSH2 0xB61 JUMP JUMPDEST PUSH1 0x40 MLOAD PUSH2 0x2BB SWAP2 SWAP1 PUSH2 0x1A98 JUMP JUMPDEST PUSH1 0x40 MLOAD DUP1 SWAP2 SUB SWAP1 RETURN JUMPDEST CALLVALUE DUP1 ISZERO PUSH2 0x2D0 JUMPI PUSH1 0x0 DUP1 REVERT JUMPDEST POP PUSH2 0x2EB PUSH1 0x4 DUP1 CALLDATASIZE SUB DUP2 ADD SWAP1 PUSH2 0x2E6 SWAP2 SWAP1 PUSH2 0x14AB JUMP JUMPDEST PUSH2 0xBFA JUMP JUMPDEST STOP JUMPDEST CALLVALUE DUP1 ISZERO PUSH2 0x2F9 JUMPI PUSH1 0x0 DUP1 REVERT JUMPDEST POP PUSH2 0x302 PUSH2 0xC92 JUMP JUMPDEST PUSH1 0x40 MLOAD PUSH2 0x30F SWAP2 SWAP1 PUSH2 0x193B JUMP JUMPDEST PUSH1 0x40 MLOAD DUP1 SWAP2 SUB SWAP1 RETURN JUMPDEST CALLVALUE DUP1 ISZERO PUSH2 0x324 JUMPI PUSH1 0x0 DUP1 REVERT JUMPDEST POP PUSH2 0x33F PUSH1 0x4 DUP1 CALLDATASIZE SUB DUP2 ADD SWAP1 PUSH2 0x33A SWAP2 SWAP1 PUSH2 0x147E JUMP JUMPDEST PUSH2 0xC99 JUMP JUMPDEST PUSH1 0x40 MLOAD PUSH2 0x34C SWAP2 SWAP1 PUSH2 0x1920 JUMP JUMPDEST PUSH1 0x40 MLOAD DUP1 SWAP2 SUB SWAP1 RETURN JUMPDEST CALLVALUE DUP1 ISZERO PUSH2 0x361 JUMPI PUSH1 0x0 DUP1 REVERT JUMPDEST POP PUSH2 0x37C PUSH1 0x4 DUP1 CALLDATASIZE SUB DUP2 ADD SWAP1 PUSH2 0x377 SWAP2 SWAP1 PUSH2 0x1545 JUMP JUMPDEST PUSH2 0xCE8 JUMP JUMPDEST STOP JUMPDEST PUSH2 0x398 PUSH1 0x4 DUP1 CALLDATASIZE SUB DUP2 ADD SWAP1 PUSH2 0x393 SWAP2 SWAP1 PUSH2 0x147E JUMP JUMPDEST PUSH2 0xD09 JUMP JUMPDEST STOP JUMPDEST CALLVALUE DUP1 ISZERO PUSH2 0x3A6 JUMPI PUSH1 0x0 DUP1 REVERT JUMPDEST POP PUSH2 0x3AF PUSH2 0xEBA JUMP JUMPDEST PUSH1 0x40 MLOAD PUSH2 0x3BC SWAP2 SWAP1 PUSH2 0x18A5 JUMP JUMPDEST PUSH1 0x40 MLOAD DUP1 SWAP2 SUB SWAP1 RETURN JUMPDEST PUSH1 0x0 PUSH32 0x7965DB0B00000000000000000000000000000000000000000000000000000000 PUSH28 0xFFFFFFFFFFFFFFFFFFFFFFFFFFFFFFFFFFFFFFFFFFFFFFFFFFFFFFFF NOT AND DUP3 PUSH28 0xFFFFFFFFFFFFFFFFFFFFFFFFFFFFFFFFFFFFFFFFFFFFFFFFFFFFFFFF NOT AND EQ DUP1 PUSH2 0x438 JUMPI POP PUSH2 0x437 DUP3 PUSH2 0xEE0 JUMP JUMPDEST JUMPDEST SWAP1 POP SWAP2 SWAP1 POP JUMP JUMPDEST PUSH1 0x3 PUSH1 0x20 MSTORE DUP1 PUSH1 0x0 MSTORE PUSH1 0x40 PUSH1 0x0 KECCAK256 PUSH1 0x0 SWAP2 POP SWAP1 POP DUP1 PUSH1 0x0 ADD SLOAD SWAP1 DUP1 PUSH1 0x1 ADD SLOAD SWAP1 DUP1 PUSH1 0x2 ADD SLOAD SWAP1 POP DUP4 JUMP JUMPDEST PUSH1 0x0 DUP1 PUSH1 0x0 DUP4 DUP2 MSTORE PUSH1 0x20 ADD SWAP1 DUP2 MSTORE PUSH1 0x20 ADD PUSH1 0x0 KECCAK256 PUSH1 0x1 ADD SLOAD SWAP1 POP SWAP2 SWAP1 POP JUMP JUMPDEST PUSH1 0x0 PUSH1 0x1 PUSH1 0x0 SWAP1 SLOAD SWAP1 PUSH2 0x100 EXP SWAP1 DIV PUSH20 0xFFFFFFFFFFFFFFFFFFFFFFFFFFFFFFFFFFFFFFFF AND PUSH20 0xFFFFFFFFFFFFFFFFFFFFFFFFFFFFFFFFFFFFFFFF AND PUSH4 0x70A08231 ADDRESS PUSH1 0x40 MLOAD DUP3 PUSH4 0xFFFFFFFF AND PUSH1 0xE0 SHL DUP2 MSTORE PUSH1 0x4 ADD PUSH2 0x4E5 SWAP2 SWAP1 PUSH2 0x18A5 JUMP JUMPDEST PUSH1 0x20 PUSH1 0x40 MLOAD DUP1 DUP4 SUB DUP2 DUP7 DUP1 EXTCODESIZE ISZERO DUP1 ISZERO PUSH2 0x4FD JUMPI PUSH1 0x0 DUP1 REVERT JUMPDEST POP GAS STATICCALL ISZERO DUP1 ISZERO PUSH2 0x511 JUMPI RETURNDATASIZE PUSH1 0x0 DUP1 RETURNDATACOPY RETURNDATASIZE PUSH1 0x0 REVERT JUMPDEST POP POP POP POP PUSH1 0x40 MLOAD RETURNDATASIZE PUSH1 0x1F NOT PUSH1 0x1F DUP3 ADD AND DUP3 ADD DUP1 PUSH1 0x40 MSTORE POP DUP2 ADD SWAP1 PUSH2 0x535 SWAP2 SWAP1 PUSH2 0x15DF JUMP JUMPDEST SWAP1 POP DUP2 DUP2 GT PUSH2 0x579 JUMPI PUSH1 0x40 MLOAD PUSH32 0x8C379A000000000000000000000000000000000000000000000000000000000 DUP2 MSTORE PUSH1 0x4 ADD PUSH2 0x570 SWAP1 PUSH2 0x19F8 JUMP JUMPDEST PUSH1 0x40 MLOAD DUP1 SWAP2 SUB SWAP1 REVERT JUMPDEST PUSH1 0x0 PUSH1 0x3 PUSH1 0x0 CALLER PUSH20 0xFFFFFFFFFFFFFFFFFFFFFFFFFFFFFFFFFFFFFFFF AND PUSH20 0xFFFFFFFFFFFFFFFFFFFFFFFFFFFFFFFFFFFFFFFF AND DUP2 MSTORE PUSH1 0x20 ADD SWAP1 DUP2 MSTORE PUSH1 0x20 ADD PUSH1 0x0 KECCAK256 PUSH1 0x40 MLOAD DUP1 PUSH1 0x60 ADD PUSH1 0x40 MSTORE SWAP1 DUP2 PUSH1 0x0 DUP3 ADD SLOAD DUP2 MSTORE PUSH1 0x20 ADD PUSH1 0x1 DUP3 ADD SLOAD DUP2 MSTORE PUSH1 0x20 ADD PUSH1 0x2 DUP3 ADD SLOAD DUP2 MSTORE POP POP SWAP1 POP NUMBER DUP2 PUSH1 0x40 ADD MLOAD LT PUSH2 0x62B JUMPI PUSH1 0x40 MLOAD PUSH32 0x8C379A000000000000000000000000000000000000000000000000000000000 DUP2 MSTORE PUSH1 0x4 ADD PUSH2 0x622 SWAP1 PUSH2 0x1978 JUMP JUMPDEST PUSH1 0x40 MLOAD DUP1 SWAP2 SUB SWAP1 REVERT JUMPDEST DUP3 DUP2 PUSH1 0x0 ADD MLOAD GT PUSH2 0x671 JUMPI PUSH1 0x40 MLOAD PUSH32 0x8C379A000000000000000000000000000000000000000000000000000000000 DUP2 MSTORE PUSH1 0x4 ADD PUSH2 0x668 SWAP1 PUSH2 0x1A38 JUMP JUMPDEST PUSH1 0x40 MLOAD DUP1 SWAP2 SUB SWAP1 REVERT JUMPDEST DUP3 DUP2 PUSH1 0x0 ADD MLOAD PUSH2 0x681 SWAP2 SWAP1 PUSH2 0x1BFD JUMP JUMPDEST DUP2 PUSH1 0x20 ADD MLOAD LT PUSH2 0x6C6 JUMPI PUSH1 0x40 MLOAD PUSH32 0x8C379A000000000000000000000000000000000000000000000000000000000 DUP2 MSTORE PUSH1 0x4 ADD PUSH2 0x6BD SWAP1 PUSH2 0x1A38 JUMP JUMPDEST PUSH1 0x40 MLOAD DUP1 SWAP2 SUB SWAP1 REVERT JUMPDEST PUSH1 0x1 PUSH1 0x0 SWAP1 SLOAD SWAP1 PUSH2 0x100 EXP SWAP1 DIV PUSH20 0xFFFFFFFFFFFFFFFFFFFFFFFFFFFFFFFFFFFFFFFF AND PUSH20 0xFFFFFFFFFFFFFFFFFFFFFFFFFFFFFFFFFFFFFFFF AND PUSH4 0xA9059CBB CALLER DUP6 PUSH1 0x40 MLOAD DUP4 PUSH4 0xFFFFFFFF AND PUSH1 0xE0 SHL DUP2 MSTORE PUSH1 0x4 ADD PUSH2 0x723 SWAP3 SWAP2 SWAP1 PUSH2 0x18F7 JUMP JUMPDEST PUSH1 0x20 PUSH1 0x40 MLOAD DUP1 DUP4 SUB DUP2 PUSH1 0x0 DUP8 DUP1 EXTCODESIZE ISZERO DUP1 ISZERO PUSH2 0x73D JUMPI PUSH1 0x0 DUP1 REVERT JUMPDEST POP GAS CALL ISZERO DUP1 ISZERO PUSH2 0x751 JUMPI RETURNDATASIZE PUSH1 0x0 DUP1 RETURNDATACOPY RETURNDATASIZE PUSH1 0x0 REVERT JUMPDEST POP POP POP POP PUSH1 0x40 MLOAD RETURNDATASIZE PUSH1 0x1F NOT PUSH1 0x1F DUP3 ADD AND DUP3 ADD DUP1 PUSH1 0x40 MSTORE POP DUP2 ADD SWAP1 PUSH2 0x775 SWAP2 SWAP1 PUSH2 0x14EB JUMP JUMPDEST PUSH2 0x7B4 JUMPI PUSH1 0x40 MLOAD PUSH32 0x8C379A000000000000000000000000000000000000000000000000000000000 DUP2 MSTORE PUSH1 0x4 ADD PUSH2 0x7AB SWAP1 PUSH2 0x1A58 JUMP JUMPDEST PUSH1 0x40 MLOAD DUP1 SWAP2 SUB SWAP1 REVERT JUMPDEST DUP3 DUP2 PUSH1 0x20 ADD DUP2 DUP2 MLOAD PUSH2 0x7C6 SWAP2 SWAP1 PUSH2 0x1B1C JUMP JUMPDEST SWAP2 POP DUP2 DUP2 MSTORE POP POP PUSH3 0x106D0 NUMBER PUSH2 0x7DC SWAP2 SWAP1 PUSH2 0x1B1C JUMP JUMPDEST DUP2 PUSH1 0x40 ADD DUP2 DUP2 MLOAD PUSH2 0x7ED SWAP2 SWAP1 PUSH2 0x1B1C JUMP JUMPDEST SWAP2 POP DUP2 DUP2 MSTORE POP POP POP POP POP JUMP JUMPDEST PUSH2 0x802 DUP3 PUSH2 0x469 JUMP JUMPDEST PUSH2 0x80B DUP2 PUSH2 0xF4A JUMP JUMPDEST PUSH2 0x815 DUP4 DUP4 PUSH2 0xF5E JUMP JUMPDEST POP POP POP JUMP JUMPDEST PUSH2 0x822 PUSH2 0x103E JUMP JUMPDEST PUSH20 0xFFFFFFFFFFFFFFFFFFFFFFFFFFFFFFFFFFFFFFFF AND DUP2 PUSH20 0xFFFFFFFFFFFFFFFFFFFFFFFFFFFFFFFFFFFFFFFF AND EQ PUSH2 0x88F JUMPI PUSH1 0x40 MLOAD PUSH32 0x8C379A000000000000000000000000000000000000000000000000000000000 DUP2 MSTORE PUSH1 0x4 ADD PUSH2 0x886 SWAP1 PUSH2 0x1A78 JUMP JUMPDEST PUSH1 0x40 MLOAD DUP1 SWAP2 SUB SWAP1 REVERT JUMPDEST PUSH2 0x899 DUP3 DUP3 PUSH2 0x1046 JUMP JUMPDEST POP POP JUMP JUMPDEST PUSH1 0x0 PUSH1 0x3 PUSH1 0x0 CALLER PUSH20 0xFFFFFFFFFFFFFFFFFFFFFFFFFFFFFFFFFFFFFFFF AND PUSH20 0xFFFFFFFFFFFFFFFFFFFFFFFFFFFFFFFFFFFFFFFF AND DUP2 MSTORE PUSH1 0x20 ADD SWAP1 DUP2 MSTORE PUSH1 0x20 ADD PUSH1 0x0 KECCAK256 PUSH1 0x1 ADD SLOAD SWAP1 POP PUSH1 0x1 PUSH1 0x0 SWAP1 SLOAD SWAP1 PUSH2 0x100 EXP SWAP1 DIV PUSH20 0xFFFFFFFFFFFFFFFFFFFFFFFFFFFFFFFFFFFFFFFF AND PUSH20 0xFFFFFFFFFFFFFFFFFFFFFFFFFFFFFFFFFFFFFFFF AND PUSH4 0x23B872DD CALLER ADDRESS DUP5 PUSH1 0x40 MLOAD DUP5 PUSH4 0xFFFFFFFF AND PUSH1 0xE0 SHL DUP2 MSTORE PUSH1 0x4 ADD PUSH2 0x943 SWAP4 SWAP3 SWAP2 SWAP1 PUSH2 0x18C0 JUMP JUMPDEST PUSH1 0x20 PUSH1 0x40 MLOAD DUP1 DUP4 SUB DUP2 PUSH1 0x0 DUP8 DUP1 EXTCODESIZE ISZERO DUP1 ISZERO PUSH2 0x95D JUMPI PUSH1 0x0 DUP1 REVERT JUMPDEST POP GAS CALL ISZERO DUP1 ISZERO PUSH2 0x971 JUMPI RETURNDATASIZE PUSH1 0x0 DUP1 RETURNDATACOPY RETURNDATASIZE PUSH1 0x0 REVERT JUMPDEST POP POP POP POP PUSH1 0x40 MLOAD RETURNDATASIZE PUSH1 0x1F NOT PUSH1 0x1F DUP3 ADD AND DUP3 ADD DUP1 PUSH1 0x40 MSTORE POP DUP2 ADD SWAP1 PUSH2 0x995 SWAP2 SWAP1 PUSH2 0x14EB JUMP JUMPDEST PUSH2 0x9D4 JUMPI PUSH1 0x40 MLOAD PUSH32 0x8C379A000000000000000000000000000000000000000000000000000000000 DUP2 MSTORE PUSH1 0x4 ADD PUSH2 0x9CB SWAP1 PUSH2 0x1A18 JUMP JUMPDEST PUSH1 0x40 MLOAD DUP1 SWAP2 SUB SWAP1 REVERT JUMPDEST DUP2 PUSH1 0x3 PUSH1 0x0 CALLER PUSH20 0xFFFFFFFFFFFFFFFFFFFFFFFFFFFFFFFFFFFFFFFF AND PUSH20 0xFFFFFFFFFFFFFFFFFFFFFFFFFFFFFFFFFFFFFFFF AND DUP2 MSTORE PUSH1 0x20 ADD SWAP1 DUP2 MSTORE PUSH1 0x20 ADD PUSH1 0x0 KECCAK256 PUSH1 0x1 ADD PUSH1 0x0 DUP3 DUP3 SLOAD PUSH2 0xA26 SWAP2 SWAP1 PUSH2 0x1BFD JUMP JUMPDEST SWAP3 POP POP DUP2 SWAP1 SSTORE POP DUP1 DUP3 LT ISZERO PUSH2 0xA3B JUMPI POP PUSH2 0xAF4 JUMP JUMPDEST PUSH1 0x0 PUSH1 0x64 PUSH1 0x69 PUSH1 0x3 PUSH1 0x0 CALLER PUSH20 0xFFFFFFFFFFFFFFFFFFFFFFFFFFFFFFFFFFFFFFFF AND PUSH20 0xFFFFFFFFFFFFFFFFFFFFFFFFFFFFFFFFFFFFFFFF AND DUP2 MSTORE PUSH1 0x20 ADD SWAP1 DUP2 MSTORE PUSH1 0x20 ADD PUSH1 0x0 KECCAK256 PUSH1 0x0 ADD SLOAD PUSH2 0xA8E SWAP2 SWAP1 PUSH2 0x1BA3 JUMP JUMPDEST PUSH2 0xA98 SWAP2 SWAP1 PUSH2 0x1B72 JUMP JUMPDEST SWAP1 POP PUSH1 0x2 SLOAD DUP2 GT ISZERO PUSH2 0xAAA JUMPI PUSH1 0x2 SLOAD SWAP1 POP JUMPDEST DUP1 PUSH1 0x3 PUSH1 0x0 CALLER PUSH20 0xFFFFFFFFFFFFFFFFFFFFFFFFFFFFFFFFFFFFFFFF AND PUSH20 0xFFFFFFFFFFFFFFFFFFFFFFFFFFFFFFFFFFFFFFFF AND DUP2 MSTORE PUSH1 0x20 ADD SWAP1 DUP2 MSTORE PUSH1 0x20 ADD PUSH1 0x0 KECCAK256 PUSH1 0x0 ADD DUP2 SWAP1 SSTORE POP POP POP JUMPDEST POP JUMP JUMPDEST PUSH1 0x0 DUP1 PUSH1 0x0 DUP5 DUP2 MSTORE PUSH1 0x20 ADD SWAP1 DUP2 MSTORE PUSH1 0x20 ADD PUSH1 0x0 KECCAK256 PUSH1 0x0 ADD PUSH1 0x0 DUP4 PUSH20 0xFFFFFFFFFFFFFFFFFFFFFFFFFFFFFFFFFFFFFFFF AND PUSH20 0xFFFFFFFFFFFFFFFFFFFFFFFFFFFFFFFFFFFFFFFF AND DUP2 MSTORE PUSH1 0x20 ADD SWAP1 DUP2 MSTORE PUSH1 0x20 ADD PUSH1 0x0 KECCAK256 PUSH1 0x0 SWAP1 SLOAD SWAP1 PUSH2 0x100 EXP SWAP1 DIV PUSH1 0xFF AND SWAP1 POP SWAP3 SWAP2 POP POP JUMP JUMPDEST PUSH1 0x0 PUSH1 0x3 PUSH1 0x0 DUP4 PUSH20 0xFFFFFFFFFFFFFFFFFFFFFFFFFFFFFFFFFFFFFFFF AND PUSH20 0xFFFFFFFFFFFFFFFFFFFFFFFFFFFFFFFFFFFFFFFF AND DUP2 MSTORE PUSH1 0x20 ADD SWAP1 DUP2 MSTORE PUSH1 0x20 ADD PUSH1 0x0 KECCAK256 PUSH1 0x1 ADD SLOAD PUSH1 0x3 PUSH1 0x0 DUP5 PUSH20 0xFFFFFFFFFFFFFFFFFFFFFFFFFFFFFFFFFFFFFFFF AND PUSH20 0xFFFFFFFFFFFFFFFFFFFFFFFFFFFFFFFFFFFFFFFF AND DUP2 MSTORE PUSH1 0x20 ADD SWAP1 DUP2 MSTORE PUSH1 0x20 ADD PUSH1 0x0 KECCAK256 PUSH1 0x0 ADD SLOAD PUSH2 0xBF3 SWAP2 SWAP1 PUSH2 0x1BFD JUMP JUMPDEST SWAP1 POP SWAP2 SWAP1 POP JUMP JUMPDEST PUSH1 0x0 DUP3 SWAP1 POP DUP1 PUSH20 0xFFFFFFFFFFFFFFFFFFFFFFFFFFFFFFFFFFFFFFFF AND PUSH4 0xA9059CBB CALLER DUP5 PUSH1 0x40 MLOAD DUP4 PUSH4 0xFFFFFFFF AND PUSH1 0xE0 SHL DUP2 MSTORE PUSH1 0x4 ADD PUSH2 0xC3A SWAP3 SWAP2 SWAP1 PUSH2 0x18F7 JUMP JUMPDEST PUSH1 0x20 PUSH1 0x40 MLOAD DUP1 DUP4 SUB DUP2 PUSH1 0x0 DUP8 DUP1 EXTCODESIZE ISZERO DUP1 ISZERO PUSH2 0xC54 JUMPI PUSH1 0x0 DUP1 REVERT JUMPDEST POP GAS CALL ISZERO DUP1 ISZERO PUSH2 0xC68 JUMPI RETURNDATASIZE PUSH1 0x0 DUP1 RETURNDATACOPY RETURNDATASIZE PUSH1 0x0 REVERT JUMPDEST POP POP POP POP PUSH1 0x40 MLOAD RETURNDATASIZE PUSH1 0x1F NOT PUSH1 0x1F DUP3 ADD AND DUP3 ADD DUP1 PUSH1 0x40 MSTORE POP DUP2 ADD SWAP1 PUSH2 0xC8C SWAP2 SWAP1 PUSH2 0x14EB JUMP JUMPDEST POP POP POP POP JUMP JUMPDEST PUSH1 0x0 DUP1 SHL DUP2 JUMP JUMPDEST PUSH1 0x0 DUP1 PUSH1 0x3 PUSH1 0x0 DUP5 PUSH20 0xFFFFFFFFFFFFFFFFFFFFFFFFFFFFFFFFFFFFFFFF AND PUSH20 0xFFFFFFFFFFFFFFFFFFFFFFFFFFFFFFFFFFFFFFFF AND DUP2 MSTORE PUSH1 0x20 ADD SWAP1 DUP2 MSTORE PUSH1 0x20 ADD PUSH1 0x0 KECCAK256 PUSH1 0x0 ADD SLOAD EQ ISZERO SWAP1 POP SWAP2 SWAP1 POP JUMP JUMPDEST PUSH2 0xCF1 DUP3 PUSH2 0x469 JUMP JUMPDEST PUSH2 0xCFA DUP2 PUSH2 0xF4A JUMP JUMPDEST PUSH2 0xD04 DUP4 DUP4 PUSH2 0x1046 JUMP JUMPDEST POP POP POP JUMP JUMPDEST PUSH2 0xD16 PUSH1 0x0 DUP1 SHL CALLER PUSH2 0xAF7 JUMP JUMPDEST PUSH2 0xD55 JUMPI PUSH1 0x40 MLOAD PUSH32 0x8C379A000000000000000000000000000000000000000000000000000000000 DUP2 MSTORE PUSH1 0x4 ADD PUSH2 0xD4C SWAP1 PUSH2 0x19B8 JUMP JUMPDEST PUSH1 0x40 MLOAD DUP1 SWAP2 SUB SWAP1 REVERT JUMPDEST PUSH1 0x40 MLOAD DUP1 PUSH1 0x60 ADD PUSH1 0x40 MSTORE DUP1 PUSH1 0x2 SLOAD DUP2 MSTORE PUSH1 0x20 ADD PUSH1 0x0 DUP2 MSTORE PUSH1 0x20 ADD NUMBER DUP2 MSTORE POP PUSH1 0x3 PUSH1 0x0 DUP4 PUSH20 0xFFFFFFFFFFFFFFFFFFFFFFFFFFFFFFFFFFFFFFFF AND PUSH20 0xFFFFFFFFFFFFFFFFFFFFFFFFFFFFFFFFFFFFFFFF AND DUP2 MSTORE PUSH1 0x20 ADD SWAP1 DUP2 MSTORE PUSH1 0x20 ADD PUSH1 0x0 KECCAK256 PUSH1 0x0 DUP3 ADD MLOAD DUP2 PUSH1 0x0 ADD SSTORE PUSH1 0x20 DUP3 ADD MLOAD DUP2 PUSH1 0x1 ADD SSTORE PUSH1 0x40 DUP3 ADD MLOAD DUP2 PUSH1 0x2 ADD SSTORE SWAP1 POP POP PUSH1 0x0 DUP2 PUSH20 0xFFFFFFFFFFFFFFFFFFFFFFFFFFFFFFFFFFFFFFFF AND CALLVALUE PUSH1 0x40 MLOAD PUSH2 0xDF9 SWAP1 PUSH2 0x1856 JUMP JUMPDEST PUSH1 0x0 PUSH1 0x40 MLOAD DUP1 DUP4 SUB DUP2 DUP6 DUP8 GAS CALL SWAP3 POP POP POP RETURNDATASIZE DUP1 PUSH1 0x0 DUP2 EQ PUSH2 0xE36 JUMPI PUSH1 0x40 MLOAD SWAP2 POP PUSH1 0x1F NOT PUSH1 0x3F RETURNDATASIZE ADD AND DUP3 ADD PUSH1 0x40 MSTORE RETURNDATASIZE DUP3 MSTORE RETURNDATASIZE PUSH1 0x0 PUSH1 0x20 DUP5 ADD RETURNDATACOPY PUSH2 0xE3B JUMP JUMPDEST PUSH1 0x60 SWAP2 POP JUMPDEST POP POP SWAP1 POP DUP1 PUSH2 0xE7F JUMPI PUSH1 0x40 MLOAD PUSH32 0x8C379A000000000000000000000000000000000000000000000000000000000 DUP2 MSTORE PUSH1 0x4 ADD PUSH2 0xE76 SWAP1 PUSH2 0x19D8 JUMP JUMPDEST PUSH1 0x40 MLOAD DUP1 SWAP2 SUB SWAP1 REVERT JUMPDEST PUSH32 0xB40223CB2FD2F5F68C1EDC600B630CDE6097946002F42D44BBC15560739E1E3D DUP3 PUSH1 0x40 MLOAD PUSH2 0xEAE SWAP2 SWAP1 PUSH2 0x18A5 JUMP JUMPDEST PUSH1 0x40 MLOAD DUP1 SWAP2 SUB SWAP1 LOG1 POP POP JUMP JUMPDEST PUSH1 0x1 PUSH1 0x0 SWAP1 SLOAD SWAP1 PUSH2 0x100 EXP SWAP1 DIV PUSH20 0xFFFFFFFFFFFFFFFFFFFFFFFFFFFFFFFFFFFFFFFF AND DUP2 JUMP JUMPDEST PUSH1 0x0 PUSH32 0x1FFC9A700000000000000000000000000000000000000000000000000000000 PUSH28 0xFFFFFFFFFFFFFFFFFFFFFFFFFFFFFFFFFFFFFFFFFFFFFFFFFFFFFFFF NOT AND DUP3 PUSH28 0xFFFFFFFFFFFFFFFFFFFFFFFFFFFFFFFFFFFFFFFFFFFFFFFFFFFFFFFF NOT AND EQ SWAP1 POP SWAP2 SWAP1 POP JUMP JUMPDEST PUSH2 0xF5B DUP2 PUSH2 0xF56 PUSH2 0x103E JUMP JUMPDEST PUSH2 0x1127 JUMP JUMPDEST POP JUMP JUMPDEST PUSH2 0xF68 DUP3 DUP3 PUSH2 0xAF7 JUMP JUMPDEST PUSH2 0x103A JUMPI PUSH1 0x1 PUSH1 0x0 DUP1 DUP5 DUP2 MSTORE PUSH1 0x20 ADD SWAP1 DUP2 MSTORE PUSH1 0x20 ADD PUSH1 0x0 KECCAK256 PUSH1 0x0 ADD PUSH1 0x0 DUP4 PUSH20 0xFFFFFFFFFFFFFFFFFFFFFFFFFFFFFFFFFFFFFFFF AND PUSH20 0xFFFFFFFFFFFFFFFFFFFFFFFFFFFFFFFFFFFFFFFF AND DUP2 MSTORE PUSH1 0x20 ADD SWAP1 DUP2 MSTORE PUSH1 0x20 ADD PUSH1 0x0 KECCAK256 PUSH1 0x0 PUSH2 0x100 EXP DUP2 SLOAD DUP2 PUSH1 0xFF MUL NOT AND SWAP1 DUP4 ISZERO ISZERO MUL OR SWAP1 SSTORE POP PUSH2 0xFDF PUSH2 0x103E JUMP JUMPDEST PUSH20 0xFFFFFFFFFFFFFFFFFFFFFFFFFFFFFFFFFFFFFFFF AND DUP2 PUSH20 0xFFFFFFFFFFFFFFFFFFFFFFFFFFFFFFFFFFFFFFFF AND DUP4 PUSH32 0x2F8788117E7EFF1D82E926EC794901D17C78024A50270940304540A733656F0D PUSH1 0x40 MLOAD PUSH1 0x40 MLOAD DUP1 SWAP2 SUB SWAP1 LOG4 JUMPDEST POP POP JUMP JUMPDEST PUSH1 0x0 CALLER SWAP1 POP SWAP1 JUMP JUMPDEST PUSH2 0x1050 DUP3 DUP3 PUSH2 0xAF7 JUMP JUMPDEST ISZERO PUSH2 0x1123 JUMPI PUSH1 0x0 DUP1 PUSH1 0x0 DUP5 DUP2 MSTORE PUSH1 0x20 ADD SWAP1 DUP2 MSTORE PUSH1 0x20 ADD PUSH1 0x0 KECCAK256 PUSH1 0x0 ADD PUSH1 0x0 DUP4 PUSH20 0xFFFFFFFFFFFFFFFFFFFFFFFFFFFFFFFFFFFFFFFF AND PUSH20 0xFFFFFFFFFFFFFFFFFFFFFFFFFFFFFFFFFFFFFFFF AND DUP2 MSTORE PUSH1 0x20 ADD SWAP1 DUP2 MSTORE PUSH1 0x20 ADD PUSH1 0x0 KECCAK256 PUSH1 0x0 PUSH2 0x100 EXP DUP2 SLOAD DUP2 PUSH1 0xFF MUL NOT AND SWAP1 DUP4 ISZERO ISZERO MUL OR SWAP1 SSTORE POP PUSH2 0x10C8 PUSH2 0x103E JUMP JUMPDEST PUSH20 0xFFFFFFFFFFFFFFFFFFFFFFFFFFFFFFFFFFFFFFFF AND DUP2 PUSH20 0xFFFFFFFFFFFFFFFFFFFFFFFFFFFFFFFFFFFFFFFF AND DUP4 PUSH32 0xF6391F5C32D9C69D2A47EA670B442974B53935D1EDC7FD64EB21E047A839171B PUSH1 0x40 MLOAD PUSH1 0x40 MLOAD DUP1 SWAP2 SUB SWAP1 LOG4 JUMPDEST POP POP JUMP JUMPDEST PUSH2 0x1131 DUP3 DUP3 PUSH2 0xAF7 JUMP JUMPDEST PUSH2 0x11C0 JUMPI PUSH2 0x1156 DUP2 PUSH20 0xFFFFFFFFFFFFFFFFFFFFFFFFFFFFFFFFFFFFFFFF AND PUSH1 0x14 PUSH2 0x11C4 JUMP JUMPDEST PUSH2 0x1164 DUP4 PUSH1 0x0 SHR PUSH1 0x20 PUSH2 0x11C4 JUMP JUMPDEST PUSH1 0x40 MLOAD PUSH1 0x20 ADD PUSH2 0x1175 SWAP3 SWAP2 SWAP1 PUSH2 0x186B JUMP JUMPDEST PUSH1 0x40 MLOAD PUSH1 0x20 DUP2 DUP4 SUB SUB DUP2 MSTORE SWAP1 PUSH1 0x40 MSTORE PUSH1 0x40 MLOAD PUSH32 0x8C379A000000000000000000000000000000000000000000000000000000000 DUP2 MSTORE PUSH1 0x4 ADD PUSH2 0x11B7 SWAP2 SWAP1 PUSH2 0x1956 JUMP JUMPDEST PUSH1 0x40 MLOAD DUP1 SWAP2 SUB SWAP1 REVERT JUMPDEST POP POP JUMP JUMPDEST PUSH1 0x60 PUSH1 0x0 PUSH1 0x2 DUP4 PUSH1 0x2 PUSH2 0x11D7 SWAP2 SWAP1 PUSH2 0x1BA3 JUMP JUMPDEST PUSH2 0x11E1 SWAP2 SWAP1 PUSH2 0x1B1C JUMP JUMPDEST PUSH8 0xFFFFFFFFFFFFFFFF DUP2 GT ISZERO PUSH2 0x11FA JUMPI PUSH2 0x11F9 PUSH2 0x1D99 JUMP JUMPDEST JUMPDEST PUSH1 0x40 MLOAD SWAP1 DUP1 DUP3 MSTORE DUP1 PUSH1 0x1F ADD PUSH1 0x1F NOT AND PUSH1 0x20 ADD DUP3 ADD PUSH1 0x40 MSTORE DUP1 ISZERO PUSH2 0x122C JUMPI DUP2 PUSH1 0x20 ADD PUSH1 0x1 DUP3 MUL DUP1 CALLDATASIZE DUP4 CALLDATACOPY DUP1 DUP3 ADD SWAP2 POP POP SWAP1 POP JUMPDEST POP SWAP1 POP PUSH32 0x3000000000000000000000000000000000000000000000000000000000000000 DUP2 PUSH1 0x0 DUP2 MLOAD DUP2 LT PUSH2 0x1264 JUMPI PUSH2 0x1263 PUSH2 0x1D6A JUMP JUMPDEST JUMPDEST PUSH1 0x20 ADD ADD SWAP1 PUSH31 0xFFFFFFFFFFFFFFFFFFFFFFFFFFFFFFFFFFFFFFFFFFFFFFFFFFFFFFFFFFFFFF NOT AND SWAP1 DUP2 PUSH1 0x0 BYTE SWAP1 MSTORE8 POP PUSH32 0x7800000000000000000000000000000000000000000000000000000000000000 DUP2 PUSH1 0x1 DUP2 MLOAD DUP2 LT PUSH2 0x12C8 JUMPI PUSH2 0x12C7 PUSH2 0x1D6A JUMP JUMPDEST JUMPDEST PUSH1 0x20 ADD ADD SWAP1 PUSH31 0xFFFFFFFFFFFFFFFFFFFFFFFFFFFFFFFFFFFFFFFFFFFFFFFFFFFFFFFFFFFFFF NOT AND SWAP1 DUP2 PUSH1 0x0 BYTE SWAP1 MSTORE8 POP PUSH1 0x0 PUSH1 0x1 DUP5 PUSH1 0x2 PUSH2 0x1308 SWAP2 SWAP1 PUSH2 0x1BA3 JUMP JUMPDEST PUSH2 0x1312 SWAP2 SWAP1 PUSH2 0x1B1C JUMP JUMPDEST SWAP1 POP JUMPDEST PUSH1 0x1 DUP2 GT ISZERO PUSH2 0x13B2 JUMPI PUSH32 0x3031323334353637383961626364656600000000000000000000000000000000 PUSH1 0xF DUP7 AND PUSH1 0x10 DUP2 LT PUSH2 0x1354 JUMPI PUSH2 0x1353 PUSH2 0x1D6A JUMP JUMPDEST JUMPDEST BYTE PUSH1 0xF8 SHL DUP3 DUP3 DUP2 MLOAD DUP2 LT PUSH2 0x136B JUMPI PUSH2 0x136A PUSH2 0x1D6A JUMP JUMPDEST JUMPDEST PUSH1 0x20 ADD ADD SWAP1 PUSH31 0xFFFFFFFFFFFFFFFFFFFFFFFFFFFFFFFFFFFFFFFFFFFFFFFFFFFFFFFFFFFFFF NOT AND SWAP1 DUP2 PUSH1 0x0 BYTE SWAP1 MSTORE8 POP PUSH1 0x4 DUP6 SWAP1 SHR SWAP5 POP DUP1 PUSH2 0x13AB SWAP1 PUSH2 0x1CE2 JUMP JUMPDEST SWAP1 POP PUSH2 0x1315 JUMP JUMPDEST POP PUSH1 0x0 DUP5 EQ PUSH2 0x13F6 JUMPI PUSH1 0x40 MLOAD PUSH32 0x8C379A000000000000000000000000000000000000000000000000000000000 DUP2 MSTORE PUSH1 0x4 ADD PUSH2 0x13ED SWAP1 PUSH2 0x1998 JUMP JUMPDEST PUSH1 0x40 MLOAD DUP1 SWAP2 SUB SWAP1 REVERT JUMPDEST DUP1 SWAP2 POP POP SWAP3 SWAP2 POP POP JUMP JUMPDEST PUSH1 0x0 DUP2 CALLDATALOAD SWAP1 POP PUSH2 0x140F DUP2 PUSH2 0x2016 JUMP JUMPDEST SWAP3 SWAP2 POP POP JUMP JUMPDEST PUSH1 0x0 DUP2 MLOAD SWAP1 POP PUSH2 0x1424 DUP2 PUSH2 0x202D JUMP JUMPDEST SWAP3 SWAP2 POP POP JUMP JUMPDEST PUSH1 0x0 DUP2 CALLDATALOAD SWAP1 POP PUSH2 0x1439 DUP2 PUSH2 0x2044 JUMP JUMPDEST SWAP3 SWAP2 POP POP JUMP JUMPDEST PUSH1 0x0 DUP2 CALLDATALOAD SWAP1 POP PUSH2 0x144E DUP2 PUSH2 0x205B JUMP JUMPDEST SWAP3 SWAP2 POP POP JUMP JUMPDEST PUSH1 0x0 DUP2 CALLDATALOAD SWAP1 POP PUSH2 0x1463 DUP2 PUSH2 0x2072 JUMP JUMPDEST SWAP3 SWAP2 POP POP JUMP JUMPDEST PUSH1 0x0 DUP2 MLOAD SWAP1 POP PUSH2 0x1478 DUP2 PUSH2 0x2072 JUMP JUMPDEST SWAP3 SWAP2 POP POP JUMP JUMPDEST PUSH1 0x0 PUSH1 0x20 DUP3 DUP5 SUB SLT ISZERO PUSH2 0x1494 JUMPI PUSH2 0x1493 PUSH2 0x1DC8 JUMP JUMPDEST JUMPDEST PUSH1 0x0 PUSH2 0x14A2 DUP5 DUP3 DUP6 ADD PUSH2 0x1400 JUMP JUMPDEST SWAP2 POP POP SWAP3 SWAP2 POP POP JUMP JUMPDEST PUSH1 0x0 DUP1 PUSH1 0x40 DUP4 DUP6 SUB SLT ISZERO PUSH2 0x14C2 JUMPI PUSH2 0x14C1 PUSH2 0x1DC8 JUMP JUMPDEST JUMPDEST PUSH1 0x0 PUSH2 0x14D0 DUP6 DUP3 DUP7 ADD PUSH2 0x1400 JUMP JUMPDEST SWAP3 POP POP PUSH1 0x20 PUSH2 0x14E1 DUP6 DUP3 DUP7 ADD PUSH2 0x1454 JUMP JUMPDEST SWAP2 POP POP SWAP3 POP SWAP3 SWAP1 POP JUMP JUMPDEST PUSH1 0x0 PUSH1 0x20 DUP3 DUP5 SUB SLT ISZERO PUSH2 0x1501 JUMPI PUSH2 0x1500 PUSH2 0x1DC8 JUMP JUMPDEST JUMPDEST PUSH1 0x0 PUSH2 0x150F DUP5 DUP3 DUP6 ADD PUSH2 0x1415 JUMP JUMPDEST SWAP2 POP POP SWAP3 SWAP2 POP POP JUMP JUMPDEST PUSH1 0x0 PUSH1 0x20 DUP3 DUP5 SUB SLT ISZERO PUSH2 0x152E JUMPI PUSH2 0x152D PUSH2 0x1DC8 JUMP JUMPDEST JUMPDEST PUSH1 0x0 PUSH2 0x153C DUP5 DUP3 DUP6 ADD PUSH2 0x142A JUMP JUMPDEST SWAP2 POP POP SWAP3 SWAP2 POP POP JUMP JUMPDEST PUSH1 0x0 DUP1 PUSH1 0x40 DUP4 DUP6 SUB SLT ISZERO PUSH2 0x155C JUMPI PUSH2 0x155B PUSH2 0x1DC8 JUMP JUMPDEST JUMPDEST PUSH1 0x0 PUSH2 0x156A DUP6 DUP3 DUP7 ADD PUSH2 0x142A JUMP JUMPDEST SWAP3 POP POP PUSH1 0x20 PUSH2 0x157B DUP6 DUP3 DUP7 ADD PUSH2 0x1400 JUMP JUMPDEST SWAP2 POP POP SWAP3 POP SWAP3 SWAP1 POP JUMP JUMPDEST PUSH1 0x0 PUSH1 0x20 DUP3 DUP5 SUB SLT ISZERO PUSH2 0x159B JUMPI PUSH2 0x159A PUSH2 0x1DC8 JUMP JUMPDEST JUMPDEST PUSH1 0x0 PUSH2 0x15A9 DUP5 DUP3 DUP6 ADD PUSH2 0x143F JUMP JUMPDEST SWAP2 POP POP SWAP3 SWAP2 POP POP JUMP JUMPDEST PUSH1 0x0 PUSH1 0x20 DUP3 DUP5 SUB SLT ISZERO PUSH2 0x15C8 JUMPI PUSH2 0x15C7 PUSH2 0x1DC8 JUMP JUMPDEST JUMPDEST PUSH1 0x0 PUSH2 0x15D6 DUP5 DUP3 DUP6 ADD PUSH2 0x1454 JUMP JUMPDEST SWAP2 POP POP SWAP3 SWAP2 POP POP JUMP JUMPDEST PUSH1 0x0 PUSH1 0x20 DUP3 DUP5 SUB SLT ISZERO PUSH2 0x15F5 JUMPI PUSH2 0x15F4 PUSH2 0x1DC8 JUMP JUMPDEST JUMPDEST PUSH1 0x0 PUSH2 0x1603 DUP5 DUP3 DUP6 ADD PUSH2 0x1469 JUMP JUMPDEST SWAP2 POP POP SWAP3 SWAP2 POP POP JUMP JUMPDEST PUSH2 0x1615 DUP2 PUSH2 0x1C31 JUMP JUMPDEST DUP3 MSTORE POP POP JUMP JUMPDEST PUSH2 0x1624 DUP2 PUSH2 0x1C43 JUMP JUMPDEST DUP3 MSTORE POP POP JUMP JUMPDEST PUSH2 0x1633 DUP2 PUSH2 0x1C4F JUMP JUMPDEST DUP3 MSTORE POP POP JUMP JUMPDEST PUSH1 0x0 PUSH2 0x1644 DUP3 PUSH2 0x1AEA JUMP JUMPDEST PUSH2 0x164E DUP2 DUP6 PUSH2 0x1B00 JUMP JUMPDEST SWAP4 POP PUSH2 0x165E DUP2 DUP6 PUSH1 0x20 DUP7 ADD PUSH2 0x1CAF JUMP JUMPDEST PUSH2 0x1667 DUP2 PUSH2 0x1DCD JUMP JUMPDEST DUP5 ADD SWAP2 POP POP SWAP3 SWAP2 POP POP JUMP JUMPDEST PUSH1 0x0 PUSH2 0x167D DUP3 PUSH2 0x1AEA JUMP JUMPDEST PUSH2 0x1687 DUP2 DUP6 PUSH2 0x1B11 JUMP JUMPDEST SWAP4 POP PUSH2 0x1697 DUP2 DUP6 PUSH1 0x20 DUP7 ADD PUSH2 0x1CAF JUMP JUMPDEST DUP1 DUP5 ADD SWAP2 POP POP SWAP3 SWAP2 POP POP JUMP JUMPDEST PUSH1 0x0 PUSH2 0x16B0 PUSH1 0x28 DUP4 PUSH2 0x1B00 JUMP JUMPDEST SWAP2 POP PUSH2 0x16BB DUP3 PUSH2 0x1DDE JUMP JUMPDEST PUSH1 0x40 DUP3 ADD SWAP1 POP SWAP2 SWAP1 POP JUMP JUMPDEST PUSH1 0x0 PUSH2 0x16D3 PUSH1 0x20 DUP4 PUSH2 0x1B00 JUMP JUMPDEST SWAP2 POP PUSH2 0x16DE DUP3 PUSH2 0x1E2D JUMP JUMPDEST PUSH1 0x20 DUP3 ADD SWAP1 POP SWAP2 SWAP1 POP JUMP JUMPDEST PUSH1 0x0 PUSH2 0x16F6 PUSH1 0x1B DUP4 PUSH2 0x1B00 JUMP JUMPDEST SWAP2 POP PUSH2 0x1701 DUP3 PUSH2 0x1E56 JUMP JUMPDEST PUSH1 0x20 DUP3 ADD SWAP1 POP SWAP2 SWAP1 POP JUMP JUMPDEST PUSH1 0x0 PUSH2 0x1719 PUSH1 0x14 DUP4 PUSH2 0x1B00 JUMP JUMPDEST SWAP2 POP PUSH2 0x1724 DUP3 PUSH2 0x1E7F JUMP JUMPDEST PUSH1 0x20 DUP3 ADD SWAP1 POP SWAP2 SWAP1 POP JUMP JUMPDEST PUSH1 0x0 PUSH2 0x173C PUSH1 0x1C DUP4 PUSH2 0x1B00 JUMP JUMPDEST SWAP2 POP PUSH2 0x1747 DUP3 PUSH2 0x1EA8 JUMP JUMPDEST PUSH1 0x20 DUP3 ADD SWAP1 POP SWAP2 SWAP1 POP JUMP JUMPDEST PUSH1 0x0 PUSH2 0x175F PUSH1 0xC DUP4 PUSH2 0x1B00 JUMP JUMPDEST SWAP2 POP PUSH2 0x176A DUP3 PUSH2 0x1ED1 JUMP JUMPDEST PUSH1 0x20 DUP3 ADD SWAP1 POP SWAP2 SWAP1 POP JUMP JUMPDEST PUSH1 0x0 PUSH2 0x1782 PUSH1 0x2A DUP4 PUSH2 0x1B00 JUMP JUMPDEST SWAP2 POP PUSH2 0x178D DUP3 PUSH2 0x1EFA JUMP JUMPDEST PUSH1 0x40 DUP3 ADD SWAP1 POP SWAP2 SWAP1 POP JUMP JUMPDEST PUSH1 0x0 PUSH2 0x17A5 PUSH1 0x0 DUP4 PUSH2 0x1AF5 JUMP JUMPDEST SWAP2 POP PUSH2 0x17B0 DUP3 PUSH2 0x1F49 JUMP JUMPDEST PUSH1 0x0 DUP3 ADD SWAP1 POP SWAP2 SWAP1 POP JUMP JUMPDEST PUSH1 0x0 PUSH2 0x17C8 PUSH1 0x17 DUP4 PUSH2 0x1B11 JUMP JUMPDEST SWAP2 POP PUSH2 0x17D3 DUP3 PUSH2 0x1F4C JUMP JUMPDEST PUSH1 0x17 DUP3 ADD SWAP1 POP SWAP2 SWAP1 POP JUMP JUMPDEST PUSH1 0x0 PUSH2 0x17EB PUSH1 0xF DUP4 PUSH2 0x1B00 JUMP JUMPDEST SWAP2 POP PUSH2 0x17F6 DUP3 PUSH2 0x1F75 JUMP JUMPDEST PUSH1 0x20 DUP3 ADD SWAP1 POP SWAP2 SWAP1 POP JUMP JUMPDEST PUSH1 0x0 PUSH2 0x180E PUSH1 0x11 DUP4 PUSH2 0x1B11 JUMP JUMPDEST SWAP2 POP PUSH2 0x1819 DUP3 PUSH2 0x1F9E JUMP JUMPDEST PUSH1 0x11 DUP3 ADD SWAP1 POP SWAP2 SWAP1 POP JUMP JUMPDEST PUSH1 0x0 PUSH2 0x1831 PUSH1 0x2F DUP4 PUSH2 0x1B00 JUMP JUMPDEST SWAP2 POP PUSH2 0x183C DUP3 PUSH2 0x1FC7 JUMP JUMPDEST PUSH1 0x40 DUP3 ADD SWAP1 POP SWAP2 SWAP1 POP JUMP JUMPDEST PUSH2 0x1850 DUP2 PUSH2 0x1CA5 JUMP JUMPDEST DUP3 MSTORE POP POP JUMP JUMPDEST PUSH1 0x0 PUSH2 0x1861 DUP3 PUSH2 0x1798 JUMP JUMPDEST SWAP2 POP DUP2 SWAP1 POP SWAP2 SWAP1 POP JUMP JUMPDEST PUSH1 0x0 PUSH2 0x1876 DUP3 PUSH2 0x17BB JUMP JUMPDEST SWAP2 POP PUSH2 0x1882 DUP3 DUP6 PUSH2 0x1672 JUMP JUMPDEST SWAP2 POP PUSH2 0x188D DUP3 PUSH2 0x1801 JUMP JUMPDEST SWAP2 POP PUSH2 0x1899 DUP3 DUP5 PUSH2 0x1672 JUMP JUMPDEST SWAP2 POP DUP2 SWAP1 POP SWAP4 SWAP3 POP POP POP JUMP JUMPDEST PUSH1 0x0 PUSH1 0x20 DUP3 ADD SWAP1 POP PUSH2 0x18BA PUSH1 0x0 DUP4 ADD DUP5 PUSH2 0x160C JUMP JUMPDEST SWAP3 SWAP2 POP POP JUMP JUMPDEST PUSH1 0x0 PUSH1 0x60 DUP3 ADD SWAP1 POP PUSH2 0x18D5 PUSH1 0x0 DUP4 ADD DUP7 PUSH2 0x160C JUMP JUMPDEST PUSH2 0x18E2 PUSH1 0x20 DUP4 ADD DUP6 PUSH2 0x160C JUMP JUMPDEST PUSH2 0x18EF PUSH1 0x40 DUP4 ADD DUP5 PUSH2 0x1847 JUMP JUMPDEST SWAP5 SWAP4 POP POP POP POP JUMP JUMPDEST PUSH1 0x0 PUSH1 0x40 DUP3 ADD SWAP1 POP PUSH2 0x190C PUSH1 0x0 DUP4 ADD DUP6 PUSH2 0x160C JUMP JUMPDEST PUSH2 0x1919 PUSH1 0x20 DUP4 ADD DUP5 PUSH2 0x1847 JUMP JUMPDEST SWAP4 SWAP3 POP POP POP JUMP JUMPDEST PUSH1 0x0 PUSH1 0x20 DUP3 ADD SWAP1 POP PUSH2 0x1935 PUSH1 0x0 DUP4 ADD DUP5 PUSH2 0x161B JUMP JUMPDEST SWAP3 SWAP2 POP POP JUMP JUMPDEST PUSH1 0x0 PUSH1 0x20 DUP3 ADD SWAP1 POP PUSH2 0x1950 PUSH1 0x0 DUP4 ADD DUP5 PUSH2 0x162A JUMP JUMPDEST SWAP3 SWAP2 POP POP JUMP JUMPDEST PUSH1 0x0 PUSH1 0x20 DUP3 ADD SWAP1 POP DUP2 DUP2 SUB PUSH1 0x0 DUP4 ADD MSTORE PUSH2 0x1970 DUP2 DUP5 PUSH2 0x1639 JUMP JUMPDEST SWAP1 POP SWAP3 SWAP2 POP POP JUMP JUMPDEST PUSH1 0x0 PUSH1 0x20 DUP3 ADD SWAP1 POP DUP2 DUP2 SUB PUSH1 0x0 DUP4 ADD MSTORE PUSH2 0x1991 DUP2 PUSH2 0x16A3 JUMP JUMPDEST SWAP1 POP SWAP2 SWAP1 POP JUMP JUMPDEST PUSH1 0x0 PUSH1 0x20 DUP3 ADD SWAP1 POP DUP2 DUP2 SUB PUSH1 0x0 DUP4 ADD MSTORE PUSH2 0x19B1 DUP2 PUSH2 0x16C6 JUMP JUMPDEST SWAP1 POP SWAP2 SWAP1 POP JUMP JUMPDEST PUSH1 0x0 PUSH1 0x20 DUP3 ADD SWAP1 POP DUP2 DUP2 SUB PUSH1 0x0 DUP4 ADD MSTORE PUSH2 0x19D1 DUP2 PUSH2 0x16E9 JUMP JUMPDEST SWAP1 POP SWAP2 SWAP1 POP JUMP JUMPDEST PUSH1 0x0 PUSH1 0x20 DUP3 ADD SWAP1 POP DUP2 DUP2 SUB PUSH1 0x0 DUP4 ADD MSTORE PUSH2 0x19F1 DUP2 PUSH2 0x170C JUMP JUMPDEST SWAP1 POP SWAP2 SWAP1 POP JUMP JUMPDEST PUSH1 0x0 PUSH1 0x20 DUP3 ADD SWAP1 POP DUP2 DUP2 SUB PUSH1 0x0 DUP4 ADD MSTORE PUSH2 0x1A11 DUP2 PUSH2 0x172F JUMP JUMPDEST SWAP1 POP SWAP2 SWAP1 POP JUMP JUMPDEST PUSH1 0x0 PUSH1 0x20 DUP3 ADD SWAP1 POP DUP2 DUP2 SUB PUSH1 0x0 DUP4 ADD MSTORE PUSH2 0x1A31 DUP2 PUSH2 0x1752 JUMP JUMPDEST SWAP1 POP SWAP2 SWAP1 POP JUMP JUMPDEST PUSH1 0x0 PUSH1 0x20 DUP3 ADD SWAP1 POP DUP2 DUP2 SUB PUSH1 0x0 DUP4 ADD MSTORE PUSH2 0x1A51 DUP2 PUSH2 0x1775 JUMP JUMPDEST SWAP1 POP SWAP2 SWAP1 POP JUMP JUMPDEST PUSH1 0x0 PUSH1 0x20 DUP3 ADD SWAP1 POP DUP2 DUP2 SUB PUSH1 0x0 DUP4 ADD MSTORE PUSH2 0x1A71 DUP2 PUSH2 0x17DE JUMP JUMPDEST SWAP1 POP SWAP2 SWAP1 POP JUMP JUMPDEST PUSH1 0x0 PUSH1 0x20 DUP3 ADD SWAP1 POP DUP2 DUP2 SUB PUSH1 0x0 DUP4 ADD MSTORE PUSH2 0x1A91 DUP2 PUSH2 0x1824 JUMP JUMPDEST SWAP1 POP SWAP2 SWAP1 POP JUMP JUMPDEST PUSH1 0x0 PUSH1 0x20 DUP3 ADD SWAP1 POP PUSH2 0x1AAD PUSH1 0x0 DUP4 ADD DUP5 PUSH2 0x1847 JUMP JUMPDEST SWAP3 SWAP2 POP POP JUMP JUMPDEST PUSH1 0x0 PUSH1 0x60 DUP3 ADD SWAP1 POP PUSH2 0x1AC8 PUSH1 0x0 DUP4 ADD DUP7 PUSH2 0x1847 JUMP JUMPDEST PUSH2 0x1AD5 PUSH1 0x20 DUP4 ADD DUP6 PUSH2 0x1847 JUMP JUMPDEST PUSH2 0x1AE2 PUSH1 0x40 DUP4 ADD DUP5 PUSH2 0x1847 JUMP JUMPDEST SWAP5 SWAP4 POP POP POP POP JUMP JUMPDEST PUSH1 0x0 DUP2 MLOAD SWAP1 POP SWAP2 SWAP1 POP JUMP JUMPDEST PUSH1 0x0 DUP2 SWAP1 POP SWAP3 SWAP2 POP POP JUMP JUMPDEST PUSH1 0x0 DUP3 DUP3 MSTORE PUSH1 0x20 DUP3 ADD SWAP1 POP SWAP3 SWAP2 POP POP JUMP JUMPDEST PUSH1 0x0 DUP2 SWAP1 POP SWAP3 SWAP2 POP POP JUMP JUMPDEST PUSH1 0x0 PUSH2 0x1B27 DUP3 PUSH2 0x1CA5 JUMP JUMPDEST SWAP2 POP PUSH2 0x1B32 DUP4 PUSH2 0x1CA5 JUMP JUMPDEST SWAP3 POP DUP3 PUSH32 0xFFFFFFFFFFFFFFFFFFFFFFFFFFFFFFFFFFFFFFFFFFFFFFFFFFFFFFFFFFFFFFFF SUB DUP3 GT ISZERO PUSH2 0x1B67 JUMPI PUSH2 0x1B66 PUSH2 0x1D0C JUMP JUMPDEST JUMPDEST DUP3 DUP3 ADD SWAP1 POP SWAP3 SWAP2 POP POP JUMP JUMPDEST PUSH1 0x0 PUSH2 0x1B7D DUP3 PUSH2 0x1CA5 JUMP JUMPDEST SWAP2 POP PUSH2 0x1B88 DUP4 PUSH2 0x1CA5 JUMP JUMPDEST SWAP3 POP DUP3 PUSH2 0x1B98 JUMPI PUSH2 0x1B97 PUSH2 0x1D3B JUMP JUMPDEST JUMPDEST DUP3 DUP3 DIV SWAP1 POP SWAP3 SWAP2 POP POP JUMP JUMPDEST PUSH1 0x0 PUSH2 0x1BAE DUP3 PUSH2 0x1CA5 JUMP JUMPDEST SWAP2 POP PUSH2 0x1BB9 DUP4 PUSH2 0x1CA5 JUMP JUMPDEST SWAP3 POP DUP2 PUSH32 0xFFFFFFFFFFFFFFFFFFFFFFFFFFFFFFFFFFFFFFFFFFFFFFFFFFFFFFFFFFFFFFFF DIV DUP4 GT DUP3 ISZERO ISZERO AND ISZERO PUSH2 0x1BF2 JUMPI PUSH2 0x1BF1 PUSH2 0x1D0C JUMP JUMPDEST JUMPDEST DUP3 DUP3 MUL SWAP1 POP SWAP3 SWAP2 POP POP JUMP JUMPDEST PUSH1 0x0 PUSH2 0x1C08 DUP3 PUSH2 0x1CA5 JUMP JUMPDEST SWAP2 POP PUSH2 0x1C13 DUP4 PUSH2 0x1CA5 JUMP JUMPDEST SWAP3 POP DUP3 DUP3 LT ISZERO PUSH2 0x1C26 JUMPI PUSH2 0x1C25 PUSH2 0x1D0C JUMP JUMPDEST JUMPDEST DUP3 DUP3 SUB SWAP1 POP SWAP3 SWAP2 POP POP JUMP JUMPDEST PUSH1 0x0 PUSH2 0x1C3C DUP3 PUSH2 0x1C85 JUMP JUMPDEST SWAP1 POP SWAP2 SWAP1 POP JUMP JUMPDEST PUSH1 0x0 DUP2 ISZERO ISZERO SWAP1 POP SWAP2 SWAP1 POP JUMP JUMPDEST PUSH1 0x0 DUP2 SWAP1 POP SWAP2 SWAP1 POP JUMP JUMPDEST PUSH1 0x0 PUSH32 0xFFFFFFFF00000000000000000000000000000000000000000000000000000000 DUP3 AND SWAP1 POP SWAP2 SWAP1 POP JUMP JUMPDEST PUSH1 0x0 PUSH20 0xFFFFFFFFFFFFFFFFFFFFFFFFFFFFFFFFFFFFFFFF DUP3 AND SWAP1 POP SWAP2 SWAP1 POP JUMP JUMPDEST PUSH1 0x0 DUP2 SWAP1 POP SWAP2 SWAP1 POP JUMP JUMPDEST PUSH1 0x0 JUMPDEST DUP4 DUP2 LT ISZERO PUSH2 0x1CCD JUMPI DUP1 DUP3 ADD MLOAD DUP2 DUP5 ADD MSTORE PUSH1 0x20 DUP2 ADD SWAP1 POP PUSH2 0x1CB2 JUMP JUMPDEST DUP4 DUP2 GT ISZERO PUSH2 0x1CDC JUMPI PUSH1 0x0 DUP5 DUP5 ADD MSTORE JUMPDEST POP POP POP POP JUMP JUMPDEST PUSH1 0x0 PUSH2 0x1CED DUP3 PUSH2 0x1CA5 JUMP JUMPDEST SWAP2 POP PUSH1 0x0 DUP3 EQ ISZERO PUSH2 0x1D01 JUMPI PUSH2 0x1D00 PUSH2 0x1D0C JUMP JUMPDEST JUMPDEST PUSH1 0x1 DUP3 SUB SWAP1 POP SWAP2 SWAP1 POP JUMP JUMPDEST PUSH32 0x4E487B7100000000000000000000000000000000000000000000000000000000 PUSH1 0x0 MSTORE PUSH1 0x11 PUSH1 0x4 MSTORE PUSH1 0x24 PUSH1 0x0 REVERT JUMPDEST PUSH32 0x4E487B7100000000000000000000000000000000000000000000000000000000 PUSH1 0x0 MSTORE PUSH1 0x12 PUSH1 0x4 MSTORE PUSH1 0x24 PUSH1 0x0 REVERT JUMPDEST PUSH32 0x4E487B7100000000000000000000000000000000000000000000000000000000 PUSH1 0x0 MSTORE PUSH1 0x32 PUSH1 0x4 MSTORE PUSH1 0x24 PUSH1 0x0 REVERT JUMPDEST PUSH32 0x4E487B7100000000000000000000000000000000000000000000000000000000 PUSH1 0x0 MSTORE PUSH1 0x41 PUSH1 0x4 MSTORE PUSH1 0x24 PUSH1 0x0 REVERT JUMPDEST PUSH1 0x0 DUP1 REVERT JUMPDEST PUSH1 0x0 PUSH1 0x1F NOT PUSH1 0x1F DUP4 ADD AND SWAP1 POP SWAP2 SWAP1 POP JUMP JUMPDEST PUSH32 0x63616C6C6572206973206E6F7420656C696769626C6520666F72206E65787420 PUSH1 0x0 DUP3 ADD MSTORE PUSH32 0x7769746864726177000000000000000000000000000000000000000000000000 PUSH1 0x20 DUP3 ADD MSTORE POP JUMP JUMPDEST PUSH32 0x537472696E67733A20686578206C656E67746820696E73756666696369656E74 PUSH1 0x0 DUP3 ADD MSTORE POP JUMP JUMPDEST PUSH32 0x63616C6C6572206973206E6F742061646D696E6973747261746F720000000000 PUSH1 0x0 DUP3 ADD MSTORE POP JUMP JUMPDEST PUSH32 0x4661696C656420746F2073656E64204574686572000000000000000000000000 PUSH1 0x0 DUP3 ADD MSTORE POP JUMP JUMPDEST PUSH32 0x6E6F7420656E6F7567682066756E647320696E20636F6E747261637400000000 PUSH1 0x0 DUP3 ADD MSTORE POP JUMP JUMPDEST PUSH32 0x6661696C65642072657061790000000000000000000000000000000000000000 PUSH1 0x0 DUP3 ADD MSTORE POP JUMP JUMPDEST PUSH32 0x63616C6C6572206973206E6F7420656C696769626C6520666F72207769746864 PUSH1 0x0 DUP3 ADD MSTORE PUSH32 0x72617720616D6F756E7400000000000000000000000000000000000000000000 PUSH1 0x20 DUP3 ADD MSTORE POP JUMP JUMPDEST POP JUMP JUMPDEST PUSH32 0x416363657373436F6E74726F6C3A206163636F756E7420000000000000000000 PUSH1 0x0 DUP3 ADD MSTORE POP JUMP JUMPDEST PUSH32 0x7769746864726177206661696C65640000000000000000000000000000000000 PUSH1 0x0 DUP3 ADD MSTORE POP JUMP JUMPDEST PUSH32 0x206973206D697373696E6720726F6C6520000000000000000000000000000000 PUSH1 0x0 DUP3 ADD MSTORE POP JUMP JUMPDEST PUSH32 0x416363657373436F6E74726F6C3A2063616E206F6E6C792072656E6F756E6365 PUSH1 0x0 DUP3 ADD MSTORE PUSH32 0x20726F6C657320666F722073656C660000000000000000000000000000000000 PUSH1 0x20 DUP3 ADD MSTORE POP JUMP JUMPDEST PUSH2 0x201F DUP2 PUSH2 0x1C31 JUMP JUMPDEST DUP2 EQ PUSH2 0x202A JUMPI PUSH1 0x0 DUP1 REVERT JUMPDEST POP JUMP JUMPDEST PUSH2 0x2036 DUP2 PUSH2 0x1C43 JUMP JUMPDEST DUP2 EQ PUSH2 0x2041 JUMPI PUSH1 0x0 DUP1 REVERT JUMPDEST POP JUMP JUMPDEST PUSH2 0x204D DUP2 PUSH2 0x1C4F JUMP JUMPDEST DUP2 EQ PUSH2 0x2058 JUMPI PUSH1 0x0 DUP1 REVERT JUMPDEST POP JUMP JUMPDEST PUSH2 0x2064 DUP2 PUSH2 0x1C59 JUMP JUMPDEST DUP2 EQ PUSH2 0x206F JUMPI PUSH1 0x0 DUP1 REVERT JUMPDEST POP JUMP JUMPDEST PUSH2 0x207B DUP2 PUSH2 0x1CA5 JUMP JUMPDEST DUP2 EQ PUSH2 0x2086 JUMPI PUSH1 0x0 DUP1 REVERT JUMPDEST POP JUMP INVALID LOG2 PUSH5 0x6970667358 0x22 SLT KECCAK256 PUSH16 0x6F54A03AB7CD53C01B4852D98F7887E6 DELEGATECALL 0xD9 0xB8 RETURNDATASIZE DUP11 0x4E STATICCALL 0x21 SMOD 0xDE 0xC 0xC6 0x1F 0xF8 0xA7 PUSH5 0x736F6C6343 STOP ADDMOD SMOD STOP CALLER "
				},
				"gasEstimates": {
					"creation": {
						"codeDepositCost": "1676600",
						"executionCost": "infinite",
						"totalCost": "infinite"
					},
					"external": {
						"DEFAULT_ADMIN_ROLE()": "424",
						"addAdress(address)": "infinite",
						"amountAvialiable(address)": "infinite",
						"getRoleAdmin(bytes32)": "infinite",
						"grantRole(bytes32,address)": "infinite",
						"hasParticipant(address)": "2884",
						"hasRole(bytes32,address)": "3163",
						"participants(address)": "infinite",
						"renounceRole(bytes32,address)": "infinite",
						"repay(uint256)": "infinite",
						"revokeRole(bytes32,address)": "infinite",
						"supportsInterface(bytes4)": "751",
						"token()": "2602",
						"withdraw(uint256)": "infinite",
						"withdrawToken(address,uint256)": "infinite"
					}
				},
				"methodIdentifiers": {
					"DEFAULT_ADMIN_ROLE()": "a217fddf",
					"addAdress(address)": "f7d19f5e",
					"amountAvialiable(address)": "92ac7958",
					"getRoleAdmin(bytes32)": "248a9ca3",
					"grantRole(bytes32,address)": "2f2ff15d",
					"hasParticipant(address)": "add474da",
					"hasRole(bytes32,address)": "91d14854",
					"participants(address)": "09e69ede",
					"renounceRole(bytes32,address)": "36568abe",
					"repay(uint256)": "371fd8e6",
					"revokeRole(bytes32,address)": "d547741f",
					"supportsInterface(bytes4)": "01ffc9a7",
					"token()": "fc0c546a",
					"withdraw(uint256)": "2e1a7d4d",
					"withdrawToken(address,uint256)": "9e281a98"
				}
			},
			"storageLayout": {
				"storage": [
					{
						"astId": 24,
						"contract": "FundDistributor.sol:FundDistributor",
						"label": "_roles",
						"offset": 0,
						"slot": "0",
						"type": "t_mapping(t_bytes32,t_struct(RoleData)19_storage)"
					},
					{
						"astId": 1373,
						"contract": "FundDistributor.sol:FundDistributor",
						"label": "token",
						"offset": 0,
						"slot": "1",
						"type": "t_address"
					},
					{
						"astId": 1376,
						"contract": "FundDistributor.sol:FundDistributor",
						"label": "maxLimit",
						"offset": 0,
						"slot": "2",
						"type": "t_uint256"
					},
					{
						"astId": 1381,
						"contract": "FundDistributor.sol:FundDistributor",
						"label": "participants",
						"offset": 0,
						"slot": "3",
						"type": "t_mapping(t_address,t_struct(Participant)1408_storage)"
					}
				],
				"types": {
					"t_address": {
						"encoding": "inplace",
						"label": "address",
						"numberOfBytes": "20"
					},
					"t_bool": {
						"encoding": "inplace",
						"label": "bool",
						"numberOfBytes": "1"
					},
					"t_bytes32": {
						"encoding": "inplace",
						"label": "bytes32",
						"numberOfBytes": "32"
					},
					"t_mapping(t_address,t_bool)": {
						"encoding": "mapping",
						"key": "t_address",
						"label": "mapping(address => bool)",
						"numberOfBytes": "32",
						"value": "t_bool"
					},
					"t_mapping(t_address,t_struct(Participant)1408_storage)": {
						"encoding": "mapping",
						"key": "t_address",
						"label": "mapping(address => struct FundDistributor.Participant)",
						"numberOfBytes": "32",
						"value": "t_struct(Participant)1408_storage"
					},
					"t_mapping(t_bytes32,t_struct(RoleData)19_storage)": {
						"encoding": "mapping",
						"key": "t_bytes32",
						"label": "mapping(bytes32 => struct AccessControl.RoleData)",
						"numberOfBytes": "32",
						"value": "t_struct(RoleData)19_storage"
					},
					"t_struct(Participant)1408_storage": {
						"encoding": "inplace",
						"label": "struct FundDistributor.Participant",
						"members": [
							{
								"astId": 1403,
								"contract": "FundDistributor.sol:FundDistributor",
								"label": "currentLimit",
								"offset": 0,
								"slot": "0",
								"type": "t_uint256"
							},
							{
								"astId": 1405,
								"contract": "FundDistributor.sol:FundDistributor",
								"label": "currentlyOwed",
								"offset": 0,
								"slot": "1",
								"type": "t_uint256"
							},
							{
								"astId": 1407,
								"contract": "FundDistributor.sol:FundDistributor",
								"label": "nextAllowedWithdrawBlock",
								"offset": 0,
								"slot": "2",
								"type": "t_uint256"
							}
						],
						"numberOfBytes": "96"
					},
					"t_struct(RoleData)19_storage": {
						"encoding": "inplace",
						"label": "struct AccessControl.RoleData",
						"members": [
							{
								"astId": 16,
								"contract": "FundDistributor.sol:FundDistributor",
								"label": "members",
								"offset": 0,
								"slot": "0",
								"type": "t_mapping(t_address,t_bool)"
							},
							{
								"astId": 18,
								"contract": "FundDistributor.sol:FundDistributor",
								"label": "adminRole",
								"offset": 0,
								"slot": "1",
								"type": "t_bytes32"
							}
						],
						"numberOfBytes": "64"
					},
					"t_uint256": {
						"encoding": "inplace",
						"label": "uint256",
						"numberOfBytes": "32"
					}
				}
			},
			"userdoc": {
				"kind": "user",
				"methods": {},
				"version": 1
			}
		}
	}
}